{
	"contracts/verifier.sol": {
		"Verifier": {
			"abi": [
				{
					"inputs": [
						{
							"components": [
								{
									"components": [
										{
											"internalType": "uint256",
											"name": "X",
											"type": "uint256"
										},
										{
											"internalType": "uint256",
											"name": "Y",
											"type": "uint256"
										}
									],
									"internalType": "struct Pairing.G1Point",
									"name": "a",
									"type": "tuple"
								},
								{
									"components": [
										{
											"internalType": "uint256[2]",
											"name": "X",
											"type": "uint256[2]"
										},
										{
											"internalType": "uint256[2]",
											"name": "Y",
											"type": "uint256[2]"
										}
									],
									"internalType": "struct Pairing.G2Point",
									"name": "b",
									"type": "tuple"
								},
								{
									"components": [
										{
											"internalType": "uint256",
											"name": "X",
											"type": "uint256"
										},
										{
											"internalType": "uint256",
											"name": "Y",
											"type": "uint256"
										}
									],
									"internalType": "struct Pairing.G1Point",
									"name": "c",
									"type": "tuple"
								}
							],
							"internalType": "struct Verifier.Proof",
							"name": "proof",
							"type": "tuple"
						},
						{
							"internalType": "uint256[1]",
							"name": "input",
							"type": "uint256[1]"
						}
					],
					"name": "verifyTx",
					"outputs": [
						{
							"internalType": "bool",
							"name": "r",
							"type": "bool"
						}
					],
					"stateMutability": "view",
					"type": "function"
				}
			],
			"devdoc": {
				"kind": "dev",
				"methods": {},
				"version": 1
			},
			"evm": {
				"assembly": "    /* \"contracts/verifier.sol\":6234:9668  contract Verifier {... */\n  mstore(0x40, 0x80)\n  callvalue\n  dup1\n  iszero\n  tag_1\n  jumpi\n  0x00\n  dup1\n  revert\ntag_1:\n  pop\n  dataSize(sub_0)\n  dup1\n  dataOffset(sub_0)\n  0x00\n  codecopy\n  0x00\n  return\nstop\n\nsub_0: assembly {\n        /* \"contracts/verifier.sol\":6234:9668  contract Verifier {... */\n      mstore(0x40, 0x80)\n      callvalue\n      dup1\n      iszero\n      tag_1\n      jumpi\n      0x00\n      dup1\n      revert\n    tag_1:\n      pop\n      jumpi(tag_2, lt(calldatasize, 0x04))\n      shr(0xe0, calldataload(0x00))\n      dup1\n      0xf48d7729\n      eq\n      tag_3\n      jumpi\n    tag_2:\n      0x00\n      dup1\n      revert\n        /* \"contracts/verifier.sol\":9266:9666  function verifyTx(... */\n    tag_3:\n      tag_4\n      0x04\n      dup1\n      calldatasize\n      sub\n      dup2\n      add\n      swap1\n      tag_5\n      swap2\n      swap1\n      tag_6\n      jump\t// in\n    tag_5:\n      tag_7\n      jump\t// in\n    tag_4:\n      mload(0x40)\n      tag_8\n      swap2\n      swap1\n      tag_9\n      jump\t// in\n    tag_8:\n      mload(0x40)\n      dup1\n      swap2\n      sub\n      swap1\n      return\n    tag_7:\n        /* \"contracts/verifier.sol\":9369:9375  bool r */\n      0x00\n        /* \"contracts/verifier.sol\":9387:9412  uint[] memory inputValues */\n      dup1\n        /* \"contracts/verifier.sol\":9426:9427  1 */\n      0x01\n        /* \"contracts/verifier.sol\":9415:9428  new uint[](1) */\n      0xffffffffffffffff\n      dup2\n      gt\n      iszero\n      tag_11\n      jumpi\n      tag_12\n      tag_13\n      jump\t// in\n    tag_12:\n    tag_11:\n      mload(0x40)\n      swap1\n      dup1\n      dup3\n      mstore\n      dup1\n      0x20\n      mul\n      0x20\n      add\n      dup3\n      add\n      0x40\n      mstore\n      dup1\n      iszero\n      tag_14\n      jumpi\n      dup2\n      0x20\n      add\n      0x20\n      dup3\n      mul\n      dup1\n      calldatasize\n      dup4\n      calldatacopy\n      dup1\n      dup3\n      add\n      swap2\n      pop\n      pop\n      swap1\n      pop\n    tag_14:\n      pop\n        /* \"contracts/verifier.sol\":9387:9428  uint[] memory inputValues = new uint[](1) */\n      swap1\n      pop\n        /* \"contracts/verifier.sol\":9451:9457  uint i */\n      0x00\n        /* \"contracts/verifier.sol\":9447:9535  for(uint i = 0; i < input.length; i++){... */\n    tag_15:\n        /* \"contracts/verifier.sol\":9467:9479  input.length */\n      0x01\n        /* \"contracts/verifier.sol\":9463:9464  i */\n      dup2\n        /* \"contracts/verifier.sol\":9463:9479  i < input.length */\n      lt\n        /* \"contracts/verifier.sol\":9447:9535  for(uint i = 0; i < input.length; i++){... */\n      iszero\n      tag_16\n      jumpi\n        /* \"contracts/verifier.sol\":9516:9521  input */\n      dup4\n        /* \"contracts/verifier.sol\":9522:9523  i */\n      dup2\n        /* \"contracts/verifier.sol\":9516:9524  input[i] */\n      0x01\n      dup2\n      lt\n      tag_18\n      jumpi\n      tag_19\n      tag_20\n      jump\t// in\n    tag_19:\n    tag_18:\n      0x20\n      mul\n      add\n      mload\n        /* \"contracts/verifier.sol\":9499:9510  inputValues */\n      dup3\n        /* \"contracts/verifier.sol\":9511:9512  i */\n      dup3\n        /* \"contracts/verifier.sol\":9499:9513  inputValues[i] */\n      dup2\n      mload\n      dup2\n      lt\n      tag_21\n      jumpi\n      tag_22\n      tag_20\n      jump\t// in\n    tag_22:\n    tag_21:\n      0x20\n      mul\n      0x20\n      add\n      add\n        /* \"contracts/verifier.sol\":9499:9524  inputValues[i] = input[i] */\n      dup2\n      dup2\n      mstore\n      pop\n      pop\n        /* \"contracts/verifier.sol\":9481:9484  i++ */\n      dup1\n      dup1\n      tag_23\n      swap1\n      tag_24\n      jump\t// in\n    tag_23:\n      swap2\n      pop\n      pop\n        /* \"contracts/verifier.sol\":9447:9535  for(uint i = 0; i < input.length; i++){... */\n      jump(tag_15)\n    tag_16:\n      pop\n        /* \"contracts/verifier.sol\":9578:9579  0 */\n      0x00\n        /* \"contracts/verifier.sol\":9548:9574  verify(inputValues, proof) */\n      tag_25\n        /* \"contracts/verifier.sol\":9555:9566  inputValues */\n      dup3\n        /* \"contracts/verifier.sol\":9568:9573  proof */\n      dup7\n        /* \"contracts/verifier.sol\":9548:9554  verify */\n      tag_26\n        /* \"contracts/verifier.sol\":9548:9574  verify(inputValues, proof) */\n      jump\t// in\n    tag_25:\n        /* \"contracts/verifier.sol\":9548:9579  verify(inputValues, proof) == 0 */\n      sub\n        /* \"contracts/verifier.sol\":9544:9660  if (verify(inputValues, proof) == 0) {... */\n      tag_27\n      jumpi\n        /* \"contracts/verifier.sol\":9602:9606  true */\n      0x01\n        /* \"contracts/verifier.sol\":9595:9606  return true */\n      swap2\n      pop\n      pop\n      jump(tag_10)\n        /* \"contracts/verifier.sol\":9544:9660  if (verify(inputValues, proof) == 0) {... */\n    tag_27:\n        /* \"contracts/verifier.sol\":9644:9649  false */\n      0x00\n        /* \"contracts/verifier.sol\":9637:9649  return false */\n      swap2\n      pop\n      pop\n        /* \"contracts/verifier.sol\":9266:9666  function verifyTx(... */\n    tag_10:\n      swap3\n      swap2\n      pop\n      pop\n      jump\t// out\n        /* \"contracts/verifier.sol\":8340:9261  function verify(uint[] memory input, Proof memory proof) internal view returns (uint) {... */\n    tag_26:\n        /* \"contracts/verifier.sol\":8420:8424  uint */\n      0x00\n        /* \"contracts/verifier.sol\":8436:8462  uint256 snark_scalar_field */\n      dup1\n        /* \"contracts/verifier.sol\":8465:8542  21888242871839275222246405745257275088548364400416034343698204186575808495617 */\n      0x30644e72e131a029b85045b68181585d2833e84879b9709143e1f593f0000001\n        /* \"contracts/verifier.sol\":8436:8542  uint256 snark_scalar_field = 21888242871839275222246405745257275088548364400416034343698204186575808495617 */\n      swap1\n      pop\n        /* \"contracts/verifier.sol\":8552:8574  VerifyingKey memory vk */\n      0x00\n        /* \"contracts/verifier.sol\":8577:8591  verifyingKey() */\n      tag_30\n        /* \"contracts/verifier.sol\":8577:8589  verifyingKey */\n      tag_31\n        /* \"contracts/verifier.sol\":8577:8591  verifyingKey() */\n      jump\t// in\n    tag_30:\n        /* \"contracts/verifier.sol\":8552:8591  VerifyingKey memory vk = verifyingKey() */\n      swap1\n      pop\n        /* \"contracts/verifier.sol\":8629:8631  vk */\n      dup1\n        /* \"contracts/verifier.sol\":8629:8641  vk.gamma_abc */\n      0x80\n      add\n      mload\n        /* \"contracts/verifier.sol\":8629:8648  vk.gamma_abc.length */\n      mload\n        /* \"contracts/verifier.sol\":8624:8625  1 */\n      0x01\n        /* \"contracts/verifier.sol\":8609:8614  input */\n      dup7\n        /* \"contracts/verifier.sol\":8609:8621  input.length */\n      mload\n        /* \"contracts/verifier.sol\":8609:8625  input.length + 1 */\n      tag_32\n      swap2\n      swap1\n      tag_33\n      jump\t// in\n    tag_32:\n        /* \"contracts/verifier.sol\":8609:8648  input.length + 1 == vk.gamma_abc.length */\n      eq\n        /* \"contracts/verifier.sol\":8601:8649  require(input.length + 1 == vk.gamma_abc.length) */\n      tag_34\n      jumpi\n      0x00\n      dup1\n      revert\n    tag_34:\n        /* \"contracts/verifier.sol\":8706:8733  Pairing.G1Point memory vk_x */\n      0x00\n        /* \"contracts/verifier.sol\":8736:8757  Pairing.G1Point(0, 0) */\n      mload(0x40)\n      dup1\n      0x40\n      add\n      0x40\n      mstore\n      dup1\n        /* \"contracts/verifier.sol\":8752:8753  0 */\n      0x00\n        /* \"contracts/verifier.sol\":8736:8757  Pairing.G1Point(0, 0) */\n      dup2\n      mstore\n      0x20\n      add\n        /* \"contracts/verifier.sol\":8755:8756  0 */\n      0x00\n        /* \"contracts/verifier.sol\":8736:8757  Pairing.G1Point(0, 0) */\n      dup2\n      mstore\n      pop\n        /* \"contracts/verifier.sol\":8706:8757  Pairing.G1Point memory vk_x = Pairing.G1Point(0, 0) */\n      swap1\n      pop\n        /* \"contracts/verifier.sol\":8772:8778  uint i */\n      0x00\n        /* \"contracts/verifier.sol\":8767:8964  for (uint i = 0; i < input.length; i++) {... */\n    tag_35:\n        /* \"contracts/verifier.sol\":8788:8793  input */\n      dup7\n        /* \"contracts/verifier.sol\":8788:8800  input.length */\n      mload\n        /* \"contracts/verifier.sol\":8784:8785  i */\n      dup2\n        /* \"contracts/verifier.sol\":8784:8800  i < input.length */\n      lt\n        /* \"contracts/verifier.sol\":8767:8964  for (uint i = 0; i < input.length; i++) {... */\n      iszero\n      tag_36\n      jumpi\n        /* \"contracts/verifier.sol\":8840:8858  snark_scalar_field */\n      dup4\n        /* \"contracts/verifier.sol\":8829:8834  input */\n      dup8\n        /* \"contracts/verifier.sol\":8835:8836  i */\n      dup3\n        /* \"contracts/verifier.sol\":8829:8837  input[i] */\n      dup2\n      mload\n      dup2\n      lt\n      tag_38\n      jumpi\n      tag_39\n      tag_20\n      jump\t// in\n    tag_39:\n    tag_38:\n      0x20\n      mul\n      0x20\n      add\n      add\n      mload\n        /* \"contracts/verifier.sol\":8829:8858  input[i] < snark_scalar_field */\n      lt\n        /* \"contracts/verifier.sol\":8821:8859  require(input[i] < snark_scalar_field) */\n      tag_40\n      jumpi\n      0x00\n      dup1\n      revert\n    tag_40:\n        /* \"contracts/verifier.sol\":8880:8953  Pairing.addition(vk_x, Pairing.scalar_mul(vk.gamma_abc[i + 1], input[i])) */\n      tag_41\n        /* \"contracts/verifier.sol\":8897:8901  vk_x */\n      dup3\n        /* \"contracts/verifier.sol\":8903:8952  Pairing.scalar_mul(vk.gamma_abc[i + 1], input[i]) */\n      tag_42\n        /* \"contracts/verifier.sol\":8922:8924  vk */\n      dup6\n        /* \"contracts/verifier.sol\":8922:8934  vk.gamma_abc */\n      0x80\n      add\n      mload\n        /* \"contracts/verifier.sol\":8939:8940  1 */\n      0x01\n        /* \"contracts/verifier.sol\":8935:8936  i */\n      dup6\n        /* \"contracts/verifier.sol\":8935:8940  i + 1 */\n      tag_43\n      swap2\n      swap1\n      tag_33\n      jump\t// in\n    tag_43:\n        /* \"contracts/verifier.sol\":8922:8941  vk.gamma_abc[i + 1] */\n      dup2\n      mload\n      dup2\n      lt\n      tag_44\n      jumpi\n      tag_45\n      tag_20\n      jump\t// in\n    tag_45:\n    tag_44:\n      0x20\n      mul\n      0x20\n      add\n      add\n      mload\n        /* \"contracts/verifier.sol\":8943:8948  input */\n      dup11\n        /* \"contracts/verifier.sol\":8949:8950  i */\n      dup6\n        /* \"contracts/verifier.sol\":8943:8951  input[i] */\n      dup2\n      mload\n      dup2\n      lt\n      tag_46\n      jumpi\n      tag_47\n      tag_20\n      jump\t// in\n    tag_47:\n    tag_46:\n      0x20\n      mul\n      0x20\n      add\n      add\n      mload\n        /* \"contracts/verifier.sol\":8903:8921  Pairing.scalar_mul */\n      tag_48\n        /* \"contracts/verifier.sol\":8903:8952  Pairing.scalar_mul(vk.gamma_abc[i + 1], input[i]) */\n      jump\t// in\n    tag_42:\n        /* \"contracts/verifier.sol\":8880:8896  Pairing.addition */\n      tag_49\n        /* \"contracts/verifier.sol\":8880:8953  Pairing.addition(vk_x, Pairing.scalar_mul(vk.gamma_abc[i + 1], input[i])) */\n      jump\t// in\n    tag_41:\n        /* \"contracts/verifier.sol\":8873:8953  vk_x = Pairing.addition(vk_x, Pairing.scalar_mul(vk.gamma_abc[i + 1], input[i])) */\n      swap2\n      pop\n        /* \"contracts/verifier.sol\":8802:8805  i++ */\n      dup1\n      dup1\n      tag_50\n      swap1\n      tag_24\n      jump\t// in\n    tag_50:\n      swap2\n      pop\n      pop\n        /* \"contracts/verifier.sol\":8767:8964  for (uint i = 0; i < input.length; i++) {... */\n      jump(tag_35)\n    tag_36:\n      pop\n        /* \"contracts/verifier.sol\":8980:9019  Pairing.addition(vk_x, vk.gamma_abc[0]) */\n      tag_51\n        /* \"contracts/verifier.sol\":8997:9001  vk_x */\n      dup2\n        /* \"contracts/verifier.sol\":9003:9005  vk */\n      dup4\n        /* \"contracts/verifier.sol\":9003:9015  vk.gamma_abc */\n      0x80\n      add\n      mload\n        /* \"contracts/verifier.sol\":9016:9017  0 */\n      0x00\n        /* \"contracts/verifier.sol\":9003:9018  vk.gamma_abc[0] */\n      dup2\n      mload\n      dup2\n      lt\n      tag_52\n      jumpi\n      tag_53\n      tag_20\n      jump\t// in\n    tag_53:\n    tag_52:\n      0x20\n      mul\n      0x20\n      add\n      add\n      mload\n        /* \"contracts/verifier.sol\":8980:8996  Pairing.addition */\n      tag_49\n        /* \"contracts/verifier.sol\":8980:9019  Pairing.addition(vk_x, vk.gamma_abc[0]) */\n      jump\t// in\n    tag_51:\n        /* \"contracts/verifier.sol\":8973:9019  vk_x = Pairing.addition(vk_x, vk.gamma_abc[0]) */\n      swap1\n      pop\n        /* \"contracts/verifier.sol\":9033:9226  Pairing.pairingProd4(... */\n      tag_54\n        /* \"contracts/verifier.sol\":9068:9073  proof */\n      dup6\n        /* \"contracts/verifier.sol\":9068:9075  proof.a */\n      0x00\n      add\n      mload\n        /* \"contracts/verifier.sol\":9077:9082  proof */\n      dup7\n        /* \"contracts/verifier.sol\":9077:9084  proof.b */\n      0x20\n      add\n      mload\n        /* \"contracts/verifier.sol\":9099:9119  Pairing.negate(vk_x) */\n      tag_55\n        /* \"contracts/verifier.sol\":9114:9118  vk_x */\n      dup5\n        /* \"contracts/verifier.sol\":9099:9113  Pairing.negate */\n      tag_56\n        /* \"contracts/verifier.sol\":9099:9119  Pairing.negate(vk_x) */\n      jump\t// in\n    tag_55:\n        /* \"contracts/verifier.sol\":9121:9123  vk */\n      dup6\n        /* \"contracts/verifier.sol\":9121:9129  vk.gamma */\n      0x40\n      add\n      mload\n        /* \"contracts/verifier.sol\":9144:9167  Pairing.negate(proof.c) */\n      tag_57\n        /* \"contracts/verifier.sol\":9159:9164  proof */\n      dup11\n        /* \"contracts/verifier.sol\":9159:9166  proof.c */\n      0x40\n      add\n      mload\n        /* \"contracts/verifier.sol\":9144:9158  Pairing.negate */\n      tag_56\n        /* \"contracts/verifier.sol\":9144:9167  Pairing.negate(proof.c) */\n      jump\t// in\n    tag_57:\n        /* \"contracts/verifier.sol\":9169:9171  vk */\n      dup8\n        /* \"contracts/verifier.sol\":9169:9177  vk.delta */\n      0x60\n      add\n      mload\n        /* \"contracts/verifier.sol\":9192:9216  Pairing.negate(vk.alpha) */\n      tag_58\n        /* \"contracts/verifier.sol\":9207:9209  vk */\n      dup10\n        /* \"contracts/verifier.sol\":9207:9215  vk.alpha */\n      0x00\n      add\n      mload\n        /* \"contracts/verifier.sol\":9192:9206  Pairing.negate */\n      tag_56\n        /* \"contracts/verifier.sol\":9192:9216  Pairing.negate(vk.alpha) */\n      jump\t// in\n    tag_58:\n        /* \"contracts/verifier.sol\":9218:9220  vk */\n      dup10\n        /* \"contracts/verifier.sol\":9218:9225  vk.beta */\n      0x20\n      add\n      mload\n        /* \"contracts/verifier.sol\":9033:9053  Pairing.pairingProd4 */\n      tag_59\n        /* \"contracts/verifier.sol\":9033:9226  Pairing.pairingProd4(... */\n      jump\t// in\n    tag_54:\n        /* \"contracts/verifier.sol\":9029:9236  if(!Pairing.pairingProd4(... */\n      tag_60\n      jumpi\n        /* \"contracts/verifier.sol\":9235:9236  1 */\n      0x01\n        /* \"contracts/verifier.sol\":9228:9236  return 1 */\n      swap4\n      pop\n      pop\n      pop\n      pop\n      jump(tag_29)\n        /* \"contracts/verifier.sol\":9029:9236  if(!Pairing.pairingProd4(... */\n    tag_60:\n        /* \"contracts/verifier.sol\":9253:9254  0 */\n      0x00\n        /* \"contracts/verifier.sol\":9246:9254  return 0 */\n      swap4\n      pop\n      pop\n      pop\n      pop\n        /* \"contracts/verifier.sol\":8340:9261  function verify(uint[] memory input, Proof memory proof) internal view returns (uint) {... */\n    tag_29:\n      swap3\n      swap2\n      pop\n      pop\n      jump\t// out\n        /* \"contracts/verifier.sol\":6581:8335  function verifyingKey() pure internal returns (VerifyingKey memory vk) {... */\n    tag_31:\n        /* \"contracts/verifier.sol\":6628:6650  VerifyingKey memory vk */\n      tag_61\n      tag_62\n      jump\t// in\n    tag_61:\n        /* \"contracts/verifier.sol\":6673:6842  Pairing.G1Point(uint256(0x1b979813ac43b640335cf6c75767acfc9a3a2dfb075c61974227b7050df1879a), uint256(0x2e6327fb0828b9dbbf70f07b9cee4492339ca41795b9fad4c7f920a387d68dbb)) */\n      mload(0x40)\n      dup1\n      0x40\n      add\n      0x40\n      mstore\n      dup1\n        /* \"contracts/verifier.sol\":6697:6763  0x1b979813ac43b640335cf6c75767acfc9a3a2dfb075c61974227b7050df1879a */\n      0x1b979813ac43b640335cf6c75767acfc9a3a2dfb075c61974227b7050df1879a\n        /* \"contracts/verifier.sol\":6673:6842  Pairing.G1Point(uint256(0x1b979813ac43b640335cf6c75767acfc9a3a2dfb075c61974227b7050df1879a), uint256(0x2e6327fb0828b9dbbf70f07b9cee4492339ca41795b9fad4c7f920a387d68dbb)) */\n      dup2\n      mstore\n      0x20\n      add\n        /* \"contracts/verifier.sol\":6774:6840  0x2e6327fb0828b9dbbf70f07b9cee4492339ca41795b9fad4c7f920a387d68dbb */\n      0x2e6327fb0828b9dbbf70f07b9cee4492339ca41795b9fad4c7f920a387d68dbb\n        /* \"contracts/verifier.sol\":6673:6842  Pairing.G1Point(uint256(0x1b979813ac43b640335cf6c75767acfc9a3a2dfb075c61974227b7050df1879a), uint256(0x2e6327fb0828b9dbbf70f07b9cee4492339ca41795b9fad4c7f920a387d68dbb)) */\n      dup2\n      mstore\n      pop\n        /* \"contracts/verifier.sol\":6662:6664  vk */\n      dup2\n        /* \"contracts/verifier.sol\":6662:6670  vk.alpha */\n      0x00\n      add\n        /* \"contracts/verifier.sol\":6662:6842  vk.alpha = Pairing.G1Point(uint256(0x1b979813ac43b640335cf6c75767acfc9a3a2dfb075c61974227b7050df1879a), uint256(0x2e6327fb0828b9dbbf70f07b9cee4492339ca41795b9fad4c7f920a387d68dbb)) */\n      dup2\n      swap1\n      mstore\n      pop\n        /* \"contracts/verifier.sol\":6862:7189  Pairing.G2Point([uint256(0x1cd62c0d635adc58d0eaf57261102e85e72c58d3eb6e54c0d8a1b173790e9ed5), uint256(0x11749acd92c2f9e95688499e287a1fb89419c47834529cf1e0a89ae897f242ef)], [uint256(0x034d4df055c5b510c334f918f6df0cee794d782cc53a916fac54a67aa76500c2), uint256(0x041b41daf1bfde2d1c0aad1e93021ebc149eb2076c8ccc799fd53261fbc93807)]) */\n      mload(0x40)\n      dup1\n      0x40\n      add\n      0x40\n      mstore\n      dup1\n      mload(0x40)\n      dup1\n      0x40\n      add\n      0x40\n      mstore\n      dup1\n        /* \"contracts/verifier.sol\":6887:6953  0x1cd62c0d635adc58d0eaf57261102e85e72c58d3eb6e54c0d8a1b173790e9ed5 */\n      0x1cd62c0d635adc58d0eaf57261102e85e72c58d3eb6e54c0d8a1b173790e9ed5\n        /* \"contracts/verifier.sol\":6862:7189  Pairing.G2Point([uint256(0x1cd62c0d635adc58d0eaf57261102e85e72c58d3eb6e54c0d8a1b173790e9ed5), uint256(0x11749acd92c2f9e95688499e287a1fb89419c47834529cf1e0a89ae897f242ef)], [uint256(0x034d4df055c5b510c334f918f6df0cee794d782cc53a916fac54a67aa76500c2), uint256(0x041b41daf1bfde2d1c0aad1e93021ebc149eb2076c8ccc799fd53261fbc93807)]) */\n      dup2\n      mstore\n      0x20\n      add\n        /* \"contracts/verifier.sol\":6964:7030  0x11749acd92c2f9e95688499e287a1fb89419c47834529cf1e0a89ae897f242ef */\n      0x11749acd92c2f9e95688499e287a1fb89419c47834529cf1e0a89ae897f242ef\n        /* \"contracts/verifier.sol\":6862:7189  Pairing.G2Point([uint256(0x1cd62c0d635adc58d0eaf57261102e85e72c58d3eb6e54c0d8a1b173790e9ed5), uint256(0x11749acd92c2f9e95688499e287a1fb89419c47834529cf1e0a89ae897f242ef)], [uint256(0x034d4df055c5b510c334f918f6df0cee794d782cc53a916fac54a67aa76500c2), uint256(0x041b41daf1bfde2d1c0aad1e93021ebc149eb2076c8ccc799fd53261fbc93807)]) */\n      dup2\n      mstore\n      pop\n      dup2\n      mstore\n      0x20\n      add\n      mload(0x40)\n      dup1\n      0x40\n      add\n      0x40\n      mstore\n      dup1\n        /* \"contracts/verifier.sol\":7043:7109  0x034d4df055c5b510c334f918f6df0cee794d782cc53a916fac54a67aa76500c2 */\n      0x034d4df055c5b510c334f918f6df0cee794d782cc53a916fac54a67aa76500c2\n        /* \"contracts/verifier.sol\":6862:7189  Pairing.G2Point([uint256(0x1cd62c0d635adc58d0eaf57261102e85e72c58d3eb6e54c0d8a1b173790e9ed5), uint256(0x11749acd92c2f9e95688499e287a1fb89419c47834529cf1e0a89ae897f242ef)], [uint256(0x034d4df055c5b510c334f918f6df0cee794d782cc53a916fac54a67aa76500c2), uint256(0x041b41daf1bfde2d1c0aad1e93021ebc149eb2076c8ccc799fd53261fbc93807)]) */\n      dup2\n      mstore\n      0x20\n      add\n        /* \"contracts/verifier.sol\":7120:7186  0x041b41daf1bfde2d1c0aad1e93021ebc149eb2076c8ccc799fd53261fbc93807 */\n      0x041b41daf1bfde2d1c0aad1e93021ebc149eb2076c8ccc799fd53261fbc93807\n        /* \"contracts/verifier.sol\":6862:7189  Pairing.G2Point([uint256(0x1cd62c0d635adc58d0eaf57261102e85e72c58d3eb6e54c0d8a1b173790e9ed5), uint256(0x11749acd92c2f9e95688499e287a1fb89419c47834529cf1e0a89ae897f242ef)], [uint256(0x034d4df055c5b510c334f918f6df0cee794d782cc53a916fac54a67aa76500c2), uint256(0x041b41daf1bfde2d1c0aad1e93021ebc149eb2076c8ccc799fd53261fbc93807)]) */\n      dup2\n      mstore\n      pop\n      dup2\n      mstore\n      pop\n        /* \"contracts/verifier.sol\":6852:6854  vk */\n      dup2\n        /* \"contracts/verifier.sol\":6852:6859  vk.beta */\n      0x20\n      add\n        /* \"contracts/verifier.sol\":6852:7189  vk.beta = Pairing.G2Point([uint256(0x1cd62c0d635adc58d0eaf57261102e85e72c58d3eb6e54c0d8a1b173790e9ed5), uint256(0x11749acd92c2f9e95688499e287a1fb89419c47834529cf1e0a89ae897f242ef)], [uint256(0x034d4df055c5b510c334f918f6df0cee794d782cc53a916fac54a67aa76500c2), uint256(0x041b41daf1bfde2d1c0aad1e93021ebc149eb2076c8ccc799fd53261fbc93807)]) */\n      dup2\n      swap1\n      mstore\n      pop\n        /* \"contracts/verifier.sol\":7210:7537  Pairing.G2Point([uint256(0x0ef51d5b1d19fae53c8b15ff1ffb511b7754c3482bb558e4d937edea41c33912), uint256(0x301fa6e368b7e68c773dd2df0c5918269e48f06c4fcaf06aff6f13e6ede36d83)], [uint256(0x0cbd0906bbaa9e4ddedf7287a3dfde582a3bf36530dbd642878522bb2e1c7d6f), uint256(0x0c07a07e8b6076347bcc8924cdeef500e039a59c41e8ca0a6b3c40da23d7b14e)]) */\n      mload(0x40)\n      dup1\n      0x40\n      add\n      0x40\n      mstore\n      dup1\n      mload(0x40)\n      dup1\n      0x40\n      add\n      0x40\n      mstore\n      dup1\n        /* \"contracts/verifier.sol\":7235:7301  0x0ef51d5b1d19fae53c8b15ff1ffb511b7754c3482bb558e4d937edea41c33912 */\n      0x0ef51d5b1d19fae53c8b15ff1ffb511b7754c3482bb558e4d937edea41c33912\n        /* \"contracts/verifier.sol\":7210:7537  Pairing.G2Point([uint256(0x0ef51d5b1d19fae53c8b15ff1ffb511b7754c3482bb558e4d937edea41c33912), uint256(0x301fa6e368b7e68c773dd2df0c5918269e48f06c4fcaf06aff6f13e6ede36d83)], [uint256(0x0cbd0906bbaa9e4ddedf7287a3dfde582a3bf36530dbd642878522bb2e1c7d6f), uint256(0x0c07a07e8b6076347bcc8924cdeef500e039a59c41e8ca0a6b3c40da23d7b14e)]) */\n      dup2\n      mstore\n      0x20\n      add\n        /* \"contracts/verifier.sol\":7312:7378  0x301fa6e368b7e68c773dd2df0c5918269e48f06c4fcaf06aff6f13e6ede36d83 */\n      0x301fa6e368b7e68c773dd2df0c5918269e48f06c4fcaf06aff6f13e6ede36d83\n        /* \"contracts/verifier.sol\":7210:7537  Pairing.G2Point([uint256(0x0ef51d5b1d19fae53c8b15ff1ffb511b7754c3482bb558e4d937edea41c33912), uint256(0x301fa6e368b7e68c773dd2df0c5918269e48f06c4fcaf06aff6f13e6ede36d83)], [uint256(0x0cbd0906bbaa9e4ddedf7287a3dfde582a3bf36530dbd642878522bb2e1c7d6f), uint256(0x0c07a07e8b6076347bcc8924cdeef500e039a59c41e8ca0a6b3c40da23d7b14e)]) */\n      dup2\n      mstore\n      pop\n      dup2\n      mstore\n      0x20\n      add\n      mload(0x40)\n      dup1\n      0x40\n      add\n      0x40\n      mstore\n      dup1\n        /* \"contracts/verifier.sol\":7391:7457  0x0cbd0906bbaa9e4ddedf7287a3dfde582a3bf36530dbd642878522bb2e1c7d6f */\n      0x0cbd0906bbaa9e4ddedf7287a3dfde582a3bf36530dbd642878522bb2e1c7d6f\n        /* \"contracts/verifier.sol\":7210:7537  Pairing.G2Point([uint256(0x0ef51d5b1d19fae53c8b15ff1ffb511b7754c3482bb558e4d937edea41c33912), uint256(0x301fa6e368b7e68c773dd2df0c5918269e48f06c4fcaf06aff6f13e6ede36d83)], [uint256(0x0cbd0906bbaa9e4ddedf7287a3dfde582a3bf36530dbd642878522bb2e1c7d6f), uint256(0x0c07a07e8b6076347bcc8924cdeef500e039a59c41e8ca0a6b3c40da23d7b14e)]) */\n      dup2\n      mstore\n      0x20\n      add\n        /* \"contracts/verifier.sol\":7468:7534  0x0c07a07e8b6076347bcc8924cdeef500e039a59c41e8ca0a6b3c40da23d7b14e */\n      0x0c07a07e8b6076347bcc8924cdeef500e039a59c41e8ca0a6b3c40da23d7b14e\n        /* \"contracts/verifier.sol\":7210:7537  Pairing.G2Point([uint256(0x0ef51d5b1d19fae53c8b15ff1ffb511b7754c3482bb558e4d937edea41c33912), uint256(0x301fa6e368b7e68c773dd2df0c5918269e48f06c4fcaf06aff6f13e6ede36d83)], [uint256(0x0cbd0906bbaa9e4ddedf7287a3dfde582a3bf36530dbd642878522bb2e1c7d6f), uint256(0x0c07a07e8b6076347bcc8924cdeef500e039a59c41e8ca0a6b3c40da23d7b14e)]) */\n      dup2\n      mstore\n      pop\n      dup2\n      mstore\n      pop\n        /* \"contracts/verifier.sol\":7199:7201  vk */\n      dup2\n        /* \"contracts/verifier.sol\":7199:7207  vk.gamma */\n      0x40\n      add\n        /* \"contracts/verifier.sol\":7199:7537  vk.gamma = Pairing.G2Point([uint256(0x0ef51d5b1d19fae53c8b15ff1ffb511b7754c3482bb558e4d937edea41c33912), uint256(0x301fa6e368b7e68c773dd2df0c5918269e48f06c4fcaf06aff6f13e6ede36d83)], [uint256(0x0cbd0906bbaa9e4ddedf7287a3dfde582a3bf36530dbd642878522bb2e1c7d6f), uint256(0x0c07a07e8b6076347bcc8924cdeef500e039a59c41e8ca0a6b3c40da23d7b14e)]) */\n      dup2\n      swap1\n      mstore\n      pop\n        /* \"contracts/verifier.sol\":7558:7885  Pairing.G2Point([uint256(0x0febc43eddcf02fbada2fc6d6ff3ff83e7323e836e7f610fca02819389ff9a68), uint256(0x1bd54db5e1e00f35150cf79ee0edf16f8d8ba18d66d7a7debbce84f8a113ea34)], [uint256(0x23ac314953efe67e1bf1a8c1cc20a9558e478aa681059d6bc2d957c62bd304f9), uint256(0x15e3dd68e9bcc5b24ca6f154eae58475aa4fd3db53f138b45ad581518e93cf3d)]) */\n      mload(0x40)\n      dup1\n      0x40\n      add\n      0x40\n      mstore\n      dup1\n      mload(0x40)\n      dup1\n      0x40\n      add\n      0x40\n      mstore\n      dup1\n        /* \"contracts/verifier.sol\":7583:7649  0x0febc43eddcf02fbada2fc6d6ff3ff83e7323e836e7f610fca02819389ff9a68 */\n      0x0febc43eddcf02fbada2fc6d6ff3ff83e7323e836e7f610fca02819389ff9a68\n        /* \"contracts/verifier.sol\":7558:7885  Pairing.G2Point([uint256(0x0febc43eddcf02fbada2fc6d6ff3ff83e7323e836e7f610fca02819389ff9a68), uint256(0x1bd54db5e1e00f35150cf79ee0edf16f8d8ba18d66d7a7debbce84f8a113ea34)], [uint256(0x23ac314953efe67e1bf1a8c1cc20a9558e478aa681059d6bc2d957c62bd304f9), uint256(0x15e3dd68e9bcc5b24ca6f154eae58475aa4fd3db53f138b45ad581518e93cf3d)]) */\n      dup2\n      mstore\n      0x20\n      add\n        /* \"contracts/verifier.sol\":7660:7726  0x1bd54db5e1e00f35150cf79ee0edf16f8d8ba18d66d7a7debbce84f8a113ea34 */\n      0x1bd54db5e1e00f35150cf79ee0edf16f8d8ba18d66d7a7debbce84f8a113ea34\n        /* \"contracts/verifier.sol\":7558:7885  Pairing.G2Point([uint256(0x0febc43eddcf02fbada2fc6d6ff3ff83e7323e836e7f610fca02819389ff9a68), uint256(0x1bd54db5e1e00f35150cf79ee0edf16f8d8ba18d66d7a7debbce84f8a113ea34)], [uint256(0x23ac314953efe67e1bf1a8c1cc20a9558e478aa681059d6bc2d957c62bd304f9), uint256(0x15e3dd68e9bcc5b24ca6f154eae58475aa4fd3db53f138b45ad581518e93cf3d)]) */\n      dup2\n      mstore\n      pop\n      dup2\n      mstore\n      0x20\n      add\n      mload(0x40)\n      dup1\n      0x40\n      add\n      0x40\n      mstore\n      dup1\n        /* \"contracts/verifier.sol\":7739:7805  0x23ac314953efe67e1bf1a8c1cc20a9558e478aa681059d6bc2d957c62bd304f9 */\n      0x23ac314953efe67e1bf1a8c1cc20a9558e478aa681059d6bc2d957c62bd304f9\n        /* \"contracts/verifier.sol\":7558:7885  Pairing.G2Point([uint256(0x0febc43eddcf02fbada2fc6d6ff3ff83e7323e836e7f610fca02819389ff9a68), uint256(0x1bd54db5e1e00f35150cf79ee0edf16f8d8ba18d66d7a7debbce84f8a113ea34)], [uint256(0x23ac314953efe67e1bf1a8c1cc20a9558e478aa681059d6bc2d957c62bd304f9), uint256(0x15e3dd68e9bcc5b24ca6f154eae58475aa4fd3db53f138b45ad581518e93cf3d)]) */\n      dup2\n      mstore\n      0x20\n      add\n        /* \"contracts/verifier.sol\":7816:7882  0x15e3dd68e9bcc5b24ca6f154eae58475aa4fd3db53f138b45ad581518e93cf3d */\n      0x15e3dd68e9bcc5b24ca6f154eae58475aa4fd3db53f138b45ad581518e93cf3d\n        /* \"contracts/verifier.sol\":7558:7885  Pairing.G2Point([uint256(0x0febc43eddcf02fbada2fc6d6ff3ff83e7323e836e7f610fca02819389ff9a68), uint256(0x1bd54db5e1e00f35150cf79ee0edf16f8d8ba18d66d7a7debbce84f8a113ea34)], [uint256(0x23ac314953efe67e1bf1a8c1cc20a9558e478aa681059d6bc2d957c62bd304f9), uint256(0x15e3dd68e9bcc5b24ca6f154eae58475aa4fd3db53f138b45ad581518e93cf3d)]) */\n      dup2\n      mstore\n      pop\n      dup2\n      mstore\n      pop\n        /* \"contracts/verifier.sol\":7547:7549  vk */\n      dup2\n        /* \"contracts/verifier.sol\":7547:7555  vk.delta */\n      0x60\n      add\n        /* \"contracts/verifier.sol\":7547:7885  vk.delta = Pairing.G2Point([uint256(0x0febc43eddcf02fbada2fc6d6ff3ff83e7323e836e7f610fca02819389ff9a68), uint256(0x1bd54db5e1e00f35150cf79ee0edf16f8d8ba18d66d7a7debbce84f8a113ea34)], [uint256(0x23ac314953efe67e1bf1a8c1cc20a9558e478aa681059d6bc2d957c62bd304f9), uint256(0x15e3dd68e9bcc5b24ca6f154eae58475aa4fd3db53f138b45ad581518e93cf3d)]) */\n      dup2\n      swap1\n      mstore\n      pop\n        /* \"contracts/verifier.sol\":7932:7933  2 */\n      0x02\n        /* \"contracts/verifier.sol\":7910:7934  new Pairing.G1Point[](2) */\n      0xffffffffffffffff\n      dup2\n      gt\n      iszero\n      tag_64\n      jumpi\n      tag_65\n      tag_13\n      jump\t// in\n    tag_65:\n    tag_64:\n      mload(0x40)\n      swap1\n      dup1\n      dup3\n      mstore\n      dup1\n      0x20\n      mul\n      0x20\n      add\n      dup3\n      add\n      0x40\n      mstore\n      dup1\n      iszero\n      tag_66\n      jumpi\n      dup2\n      0x20\n      add\n    tag_67:\n      tag_68\n      tag_69\n      jump\t// in\n    tag_68:\n      dup2\n      mstore\n      0x20\n      add\n      swap1\n      0x01\n      swap1\n      sub\n      swap1\n      dup2\n      tag_67\n      jumpi\n      swap1\n      pop\n    tag_66:\n      pop\n        /* \"contracts/verifier.sol\":7895:7897  vk */\n      dup2\n        /* \"contracts/verifier.sol\":7895:7907  vk.gamma_abc */\n      0x80\n      add\n        /* \"contracts/verifier.sol\":7895:7934  vk.gamma_abc = new Pairing.G1Point[](2) */\n      dup2\n      swap1\n      mstore\n      pop\n        /* \"contracts/verifier.sol\":7962:8131  Pairing.G1Point(uint256(0x2053b825f52cfc0d801d728ef574d82a16e288786c42d7d20e20c82a1f4a73a3), uint256(0x0a6048a7773e9dc067b926181c2bbd2ecf8667d1fad2a2521059b314f523f14f)) */\n      mload(0x40)\n      dup1\n      0x40\n      add\n      0x40\n      mstore\n      dup1\n        /* \"contracts/verifier.sol\":7986:8052  0x2053b825f52cfc0d801d728ef574d82a16e288786c42d7d20e20c82a1f4a73a3 */\n      0x2053b825f52cfc0d801d728ef574d82a16e288786c42d7d20e20c82a1f4a73a3\n        /* \"contracts/verifier.sol\":7962:8131  Pairing.G1Point(uint256(0x2053b825f52cfc0d801d728ef574d82a16e288786c42d7d20e20c82a1f4a73a3), uint256(0x0a6048a7773e9dc067b926181c2bbd2ecf8667d1fad2a2521059b314f523f14f)) */\n      dup2\n      mstore\n      0x20\n      add\n        /* \"contracts/verifier.sol\":8063:8129  0x0a6048a7773e9dc067b926181c2bbd2ecf8667d1fad2a2521059b314f523f14f */\n      0x0a6048a7773e9dc067b926181c2bbd2ecf8667d1fad2a2521059b314f523f14f\n        /* \"contracts/verifier.sol\":7962:8131  Pairing.G1Point(uint256(0x2053b825f52cfc0d801d728ef574d82a16e288786c42d7d20e20c82a1f4a73a3), uint256(0x0a6048a7773e9dc067b926181c2bbd2ecf8667d1fad2a2521059b314f523f14f)) */\n      dup2\n      mstore\n      pop\n        /* \"contracts/verifier.sol\":7944:7946  vk */\n      dup2\n        /* \"contracts/verifier.sol\":7944:7956  vk.gamma_abc */\n      0x80\n      add\n      mload\n        /* \"contracts/verifier.sol\":7957:7958  0 */\n      0x00\n        /* \"contracts/verifier.sol\":7944:7959  vk.gamma_abc[0] */\n      dup2\n      mload\n      dup2\n      lt\n      tag_70\n      jumpi\n      tag_71\n      tag_20\n      jump\t// in\n    tag_71:\n    tag_70:\n      0x20\n      mul\n      0x20\n      add\n      add\n        /* \"contracts/verifier.sol\":7944:8131  vk.gamma_abc[0] = Pairing.G1Point(uint256(0x2053b825f52cfc0d801d728ef574d82a16e288786c42d7d20e20c82a1f4a73a3), uint256(0x0a6048a7773e9dc067b926181c2bbd2ecf8667d1fad2a2521059b314f523f14f)) */\n      dup2\n      swap1\n      mstore\n      pop\n        /* \"contracts/verifier.sol\":8159:8328  Pairing.G1Point(uint256(0x0d112fa3afa3b0ad4b3786d9dece0d63f5b6242498292c54a70f0babd5836db8), uint256(0x070296a040c447ad3cb6fed441bc748408242115bf3e454213fb4199597d3bb7)) */\n      mload(0x40)\n      dup1\n      0x40\n      add\n      0x40\n      mstore\n      dup1\n        /* \"contracts/verifier.sol\":8183:8249  0x0d112fa3afa3b0ad4b3786d9dece0d63f5b6242498292c54a70f0babd5836db8 */\n      0x0d112fa3afa3b0ad4b3786d9dece0d63f5b6242498292c54a70f0babd5836db8\n        /* \"contracts/verifier.sol\":8159:8328  Pairing.G1Point(uint256(0x0d112fa3afa3b0ad4b3786d9dece0d63f5b6242498292c54a70f0babd5836db8), uint256(0x070296a040c447ad3cb6fed441bc748408242115bf3e454213fb4199597d3bb7)) */\n      dup2\n      mstore\n      0x20\n      add\n        /* \"contracts/verifier.sol\":8260:8326  0x070296a040c447ad3cb6fed441bc748408242115bf3e454213fb4199597d3bb7 */\n      0x070296a040c447ad3cb6fed441bc748408242115bf3e454213fb4199597d3bb7\n        /* \"contracts/verifier.sol\":8159:8328  Pairing.G1Point(uint256(0x0d112fa3afa3b0ad4b3786d9dece0d63f5b6242498292c54a70f0babd5836db8), uint256(0x070296a040c447ad3cb6fed441bc748408242115bf3e454213fb4199597d3bb7)) */\n      dup2\n      mstore\n      pop\n        /* \"contracts/verifier.sol\":8141:8143  vk */\n      dup2\n        /* \"contracts/verifier.sol\":8141:8153  vk.gamma_abc */\n      0x80\n      add\n      mload\n        /* \"contracts/verifier.sol\":8154:8155  1 */\n      0x01\n        /* \"contracts/verifier.sol\":8141:8156  vk.gamma_abc[1] */\n      dup2\n      mload\n      dup2\n      lt\n      tag_72\n      jumpi\n      tag_73\n      tag_20\n      jump\t// in\n    tag_73:\n    tag_72:\n      0x20\n      mul\n      0x20\n      add\n      add\n        /* \"contracts/verifier.sol\":8141:8328  vk.gamma_abc[1] = Pairing.G1Point(uint256(0x0d112fa3afa3b0ad4b3786d9dece0d63f5b6242498292c54a70f0babd5836db8), uint256(0x070296a040c447ad3cb6fed441bc748408242115bf3e454213fb4199597d3bb7)) */\n      dup2\n      swap1\n      mstore\n      pop\n        /* \"contracts/verifier.sol\":6581:8335  function verifyingKey() pure internal returns (VerifyingKey memory vk) {... */\n      swap1\n      jump\t// out\n        /* \"contracts/verifier.sol\":3082:3536  function scalar_mul(G1Point memory p, uint s) internal view returns (G1Point memory r) {... */\n    tag_48:\n        /* \"contracts/verifier.sol\":3151:3167  G1Point memory r */\n      tag_74\n      tag_69\n      jump\t// in\n    tag_74:\n        /* \"contracts/verifier.sol\":3179:3199  uint[3] memory input */\n      tag_76\n      tag_77\n      jump\t// in\n    tag_76:\n        /* \"contracts/verifier.sol\":3220:3221  p */\n      dup4\n        /* \"contracts/verifier.sol\":3220:3223  p.X */\n      0x00\n      add\n      mload\n        /* \"contracts/verifier.sol\":3209:3214  input */\n      dup2\n        /* \"contracts/verifier.sol\":3215:3216  0 */\n      0x00\n        /* \"contracts/verifier.sol\":3209:3217  input[0] */\n      0x03\n      dup2\n      lt\n      tag_78\n      jumpi\n      tag_79\n      tag_20\n      jump\t// in\n    tag_79:\n    tag_78:\n      0x20\n      mul\n      add\n        /* \"contracts/verifier.sol\":3209:3223  input[0] = p.X */\n      dup2\n      dup2\n      mstore\n      pop\n      pop\n        /* \"contracts/verifier.sol\":3244:3245  p */\n      dup4\n        /* \"contracts/verifier.sol\":3244:3247  p.Y */\n      0x20\n      add\n      mload\n        /* \"contracts/verifier.sol\":3233:3238  input */\n      dup2\n        /* \"contracts/verifier.sol\":3239:3240  1 */\n      0x01\n        /* \"contracts/verifier.sol\":3233:3241  input[1] */\n      0x03\n      dup2\n      lt\n      tag_80\n      jumpi\n      tag_81\n      tag_20\n      jump\t// in\n    tag_81:\n    tag_80:\n      0x20\n      mul\n      add\n        /* \"contracts/verifier.sol\":3233:3247  input[1] = p.Y */\n      dup2\n      dup2\n      mstore\n      pop\n      pop\n        /* \"contracts/verifier.sol\":3268:3269  s */\n      dup3\n        /* \"contracts/verifier.sol\":3257:3262  input */\n      dup2\n        /* \"contracts/verifier.sol\":3263:3264  2 */\n      0x02\n        /* \"contracts/verifier.sol\":3257:3265  input[2] */\n      0x03\n      dup2\n      lt\n      tag_82\n      jumpi\n      tag_83\n      tag_20\n      jump\t// in\n    tag_83:\n    tag_82:\n      0x20\n      mul\n      add\n        /* \"contracts/verifier.sol\":3257:3269  input[2] = s */\n      dup2\n      dup2\n      mstore\n      pop\n      pop\n        /* \"contracts/verifier.sol\":3279:3291  bool success */\n      0x00\n        /* \"contracts/verifier.sol\":3383:3387  0x60 */\n      0x60\n        /* \"contracts/verifier.sol\":3380:3381  r */\n      dup4\n        /* \"contracts/verifier.sol\":3374:3378  0x80 */\n      0x80\n        /* \"contracts/verifier.sol\":3367:3372  input */\n      dup5\n        /* \"contracts/verifier.sol\":3364:3365  7 */\n      0x07\n        /* \"contracts/verifier.sol\":3357:3361  2000 */\n      0x07d0\n        /* \"contracts/verifier.sol\":3350:3355  gas() */\n      gas\n        /* \"contracts/verifier.sol\":3346:3362  sub(gas(), 2000) */\n      sub\n        /* \"contracts/verifier.sol\":3335:3388  staticcall(sub(gas(), 2000), 7, input, 0x80, r, 0x60) */\n      staticcall\n        /* \"contracts/verifier.sol\":3324:3388  success := staticcall(sub(gas(), 2000), 7, input, 0x80, r, 0x60) */\n      swap1\n      pop\n        /* \"contracts/verifier.sol\":3465:3472  success */\n      dup1\n        /* \"contracts/verifier.sol\":3478:3479  0 */\n      0x00\n        /* \"contracts/verifier.sol\":3473:3493  case 0 { invalid() } */\n      dup2\n      sub\n        /* \"contracts/verifier.sol\":3458:3493  switch success case 0 { invalid() } */\n      tag_84\n        /* \"contracts/verifier.sol\":3473:3493  case 0 { invalid() } */\n      jumpi\n        /* \"contracts/verifier.sol\":3482:3491  invalid() */\n      invalid\n        /* \"contracts/verifier.sol\":3458:3493  switch success case 0 { invalid() } */\n    tag_84:\n      pop\n        /* \"contracts/verifier.sol\":3521:3528  success */\n      dup1\n        /* \"contracts/verifier.sol\":3512:3529  require (success) */\n      tag_86\n      jumpi\n      0x00\n      dup1\n      revert\n    tag_86:\n        /* \"contracts/verifier.sol\":3169:3536  {... */\n      pop\n      pop\n        /* \"contracts/verifier.sol\":3082:3536  function scalar_mul(G1Point memory p, uint s) internal view returns (G1Point memory r) {... */\n      swap3\n      swap2\n      pop\n      pop\n      jump\t// out\n        /* \"contracts/verifier.sol\":2432:2925  function addition(G1Point memory p1, G1Point memory p2) internal view returns (G1Point memory r) {... */\n    tag_49:\n        /* \"contracts/verifier.sol\":2511:2527  G1Point memory r */\n      tag_87\n      tag_69\n      jump\t// in\n    tag_87:\n        /* \"contracts/verifier.sol\":2539:2559  uint[4] memory input */\n      tag_89\n      tag_90\n      jump\t// in\n    tag_89:\n        /* \"contracts/verifier.sol\":2580:2582  p1 */\n      dup4\n        /* \"contracts/verifier.sol\":2580:2584  p1.X */\n      0x00\n      add\n      mload\n        /* \"contracts/verifier.sol\":2569:2574  input */\n      dup2\n        /* \"contracts/verifier.sol\":2575:2576  0 */\n      0x00\n        /* \"contracts/verifier.sol\":2569:2577  input[0] */\n      0x04\n      dup2\n      lt\n      tag_91\n      jumpi\n      tag_92\n      tag_20\n      jump\t// in\n    tag_92:\n    tag_91:\n      0x20\n      mul\n      add\n        /* \"contracts/verifier.sol\":2569:2584  input[0] = p1.X */\n      dup2\n      dup2\n      mstore\n      pop\n      pop\n        /* \"contracts/verifier.sol\":2605:2607  p1 */\n      dup4\n        /* \"contracts/verifier.sol\":2605:2609  p1.Y */\n      0x20\n      add\n      mload\n        /* \"contracts/verifier.sol\":2594:2599  input */\n      dup2\n        /* \"contracts/verifier.sol\":2600:2601  1 */\n      0x01\n        /* \"contracts/verifier.sol\":2594:2602  input[1] */\n      0x04\n      dup2\n      lt\n      tag_93\n      jumpi\n      tag_94\n      tag_20\n      jump\t// in\n    tag_94:\n    tag_93:\n      0x20\n      mul\n      add\n        /* \"contracts/verifier.sol\":2594:2609  input[1] = p1.Y */\n      dup2\n      dup2\n      mstore\n      pop\n      pop\n        /* \"contracts/verifier.sol\":2630:2632  p2 */\n      dup3\n        /* \"contracts/verifier.sol\":2630:2634  p2.X */\n      0x00\n      add\n      mload\n        /* \"contracts/verifier.sol\":2619:2624  input */\n      dup2\n        /* \"contracts/verifier.sol\":2625:2626  2 */\n      0x02\n        /* \"contracts/verifier.sol\":2619:2627  input[2] */\n      0x04\n      dup2\n      lt\n      tag_95\n      jumpi\n      tag_96\n      tag_20\n      jump\t// in\n    tag_96:\n    tag_95:\n      0x20\n      mul\n      add\n        /* \"contracts/verifier.sol\":2619:2634  input[2] = p2.X */\n      dup2\n      dup2\n      mstore\n      pop\n      pop\n        /* \"contracts/verifier.sol\":2655:2657  p2 */\n      dup3\n        /* \"contracts/verifier.sol\":2655:2659  p2.Y */\n      0x20\n      add\n      mload\n        /* \"contracts/verifier.sol\":2644:2649  input */\n      dup2\n        /* \"contracts/verifier.sol\":2650:2651  3 */\n      0x03\n        /* \"contracts/verifier.sol\":2644:2652  input[3] */\n      0x04\n      dup2\n      lt\n      tag_97\n      jumpi\n      tag_98\n      tag_20\n      jump\t// in\n    tag_98:\n    tag_97:\n      0x20\n      mul\n      add\n        /* \"contracts/verifier.sol\":2644:2659  input[3] = p2.Y */\n      dup2\n      dup2\n      mstore\n      pop\n      pop\n        /* \"contracts/verifier.sol\":2669:2681  bool success */\n      0x00\n        /* \"contracts/verifier.sol\":2773:2777  0x60 */\n      0x60\n        /* \"contracts/verifier.sol\":2770:2771  r */\n      dup4\n        /* \"contracts/verifier.sol\":2764:2768  0xc0 */\n      0xc0\n        /* \"contracts/verifier.sol\":2757:2762  input */\n      dup5\n        /* \"contracts/verifier.sol\":2754:2755  6 */\n      0x06\n        /* \"contracts/verifier.sol\":2747:2751  2000 */\n      0x07d0\n        /* \"contracts/verifier.sol\":2740:2745  gas() */\n      gas\n        /* \"contracts/verifier.sol\":2736:2752  sub(gas(), 2000) */\n      sub\n        /* \"contracts/verifier.sol\":2725:2778  staticcall(sub(gas(), 2000), 6, input, 0xc0, r, 0x60) */\n      staticcall\n        /* \"contracts/verifier.sol\":2714:2778  success := staticcall(sub(gas(), 2000), 6, input, 0xc0, r, 0x60) */\n      swap1\n      pop\n        /* \"contracts/verifier.sol\":2855:2862  success */\n      dup1\n        /* \"contracts/verifier.sol\":2868:2869  0 */\n      0x00\n        /* \"contracts/verifier.sol\":2863:2883  case 0 { invalid() } */\n      dup2\n      sub\n        /* \"contracts/verifier.sol\":2848:2883  switch success case 0 { invalid() } */\n      tag_99\n        /* \"contracts/verifier.sol\":2863:2883  case 0 { invalid() } */\n      jumpi\n        /* \"contracts/verifier.sol\":2872:2881  invalid() */\n      invalid\n        /* \"contracts/verifier.sol\":2848:2883  switch success case 0 { invalid() } */\n    tag_99:\n      pop\n        /* \"contracts/verifier.sol\":2910:2917  success */\n      dup1\n        /* \"contracts/verifier.sol\":2902:2918  require(success) */\n      tag_101\n      jumpi\n      0x00\n      dup1\n      revert\n    tag_101:\n        /* \"contracts/verifier.sol\":2529:2925  {... */\n      pop\n      pop\n        /* \"contracts/verifier.sol\":2432:2925  function addition(G1Point memory p1, G1Point memory p2) internal view returns (G1Point memory r) {... */\n      swap3\n      swap2\n      pop\n      pop\n      jump\t// out\n        /* \"contracts/verifier.sol\":2041:2381  function negate(G1Point memory p) pure internal returns (G1Point memory) {... */\n    tag_56:\n        /* \"contracts/verifier.sol\":2098:2112  G1Point memory */\n      tag_102\n      tag_69\n      jump\t// in\n    tag_102:\n        /* \"contracts/verifier.sol\":2176:2182  uint q */\n      0x00\n        /* \"contracts/verifier.sol\":2185:2262  21888242871839275222246405745257275088696311157297823662689037894645226208583 */\n      0x30644e72e131a029b85045b68181585d97816a916871ca8d3c208c16d87cfd47\n        /* \"contracts/verifier.sol\":2176:2262  uint q = 21888242871839275222246405745257275088696311157297823662689037894645226208583 */\n      swap1\n      pop\n        /* \"contracts/verifier.sol\":2283:2284  0 */\n      0x00\n        /* \"contracts/verifier.sol\":2276:2277  p */\n      dup4\n        /* \"contracts/verifier.sol\":2276:2279  p.X */\n      0x00\n      add\n      mload\n        /* \"contracts/verifier.sol\":2276:2284  p.X == 0 */\n      eq\n        /* \"contracts/verifier.sol\":2276:2296  p.X == 0 && p.Y == 0 */\n      dup1\n      iszero\n      tag_104\n      jumpi\n      pop\n        /* \"contracts/verifier.sol\":2295:2296  0 */\n      0x00\n        /* \"contracts/verifier.sol\":2288:2289  p */\n      dup4\n        /* \"contracts/verifier.sol\":2288:2291  p.Y */\n      0x20\n      add\n      mload\n        /* \"contracts/verifier.sol\":2288:2296  p.Y == 0 */\n      eq\n        /* \"contracts/verifier.sol\":2276:2296  p.X == 0 && p.Y == 0 */\n    tag_104:\n        /* \"contracts/verifier.sol\":2272:2330  if (p.X == 0 && p.Y == 0)... */\n      iszero\n      tag_105\n      jumpi\n        /* \"contracts/verifier.sol\":2317:2330  G1Point(0, 0) */\n      mload(0x40)\n      dup1\n      0x40\n      add\n      0x40\n      mstore\n      dup1\n        /* \"contracts/verifier.sol\":2325:2326  0 */\n      0x00\n        /* \"contracts/verifier.sol\":2317:2330  G1Point(0, 0) */\n      dup2\n      mstore\n      0x20\n      add\n        /* \"contracts/verifier.sol\":2328:2329  0 */\n      0x00\n        /* \"contracts/verifier.sol\":2317:2330  G1Point(0, 0) */\n      dup2\n      mstore\n      pop\n        /* \"contracts/verifier.sol\":2310:2330  return G1Point(0, 0) */\n      swap2\n      pop\n      pop\n      jump(tag_103)\n        /* \"contracts/verifier.sol\":2272:2330  if (p.X == 0 && p.Y == 0)... */\n    tag_105:\n        /* \"contracts/verifier.sol\":2347:2374  G1Point(p.X, q - (p.Y % q)) */\n      mload(0x40)\n      dup1\n      0x40\n      add\n      0x40\n      mstore\n      dup1\n        /* \"contracts/verifier.sol\":2355:2356  p */\n      dup5\n        /* \"contracts/verifier.sol\":2355:2358  p.X */\n      0x00\n      add\n      mload\n        /* \"contracts/verifier.sol\":2347:2374  G1Point(p.X, q - (p.Y % q)) */\n      dup2\n      mstore\n      0x20\n      add\n        /* \"contracts/verifier.sol\":2371:2372  q */\n      dup3\n        /* \"contracts/verifier.sol\":2365:2366  p */\n      dup6\n        /* \"contracts/verifier.sol\":2365:2368  p.Y */\n      0x20\n      add\n      mload\n        /* \"contracts/verifier.sol\":2365:2372  p.Y % q */\n      tag_106\n      swap2\n      swap1\n      tag_107\n      jump\t// in\n    tag_106:\n        /* \"contracts/verifier.sol\":2360:2361  q */\n      dup4\n        /* \"contracts/verifier.sol\":2360:2373  q - (p.Y % q) */\n      tag_108\n      swap2\n      swap1\n      tag_109\n      jump\t// in\n    tag_108:\n        /* \"contracts/verifier.sol\":2347:2374  G1Point(p.X, q - (p.Y % q)) */\n      dup2\n      mstore\n      pop\n        /* \"contracts/verifier.sol\":2340:2374  return G1Point(p.X, q - (p.Y % q)) */\n      swap2\n      pop\n      pop\n        /* \"contracts/verifier.sol\":2041:2381  function negate(G1Point memory p) pure internal returns (G1Point memory) {... */\n    tag_103:\n      swap2\n      swap1\n      pop\n      jump\t// out\n        /* \"contracts/verifier.sol\":5678:6230  function pairingProd4(... */\n    tag_59:\n        /* \"contracts/verifier.sol\":5929:5933  bool */\n      0x00\n        /* \"contracts/verifier.sol\":5945:5964  G1Point[] memory p1 */\n      dup1\n        /* \"contracts/verifier.sol\":5981:5982  4 */\n      0x04\n        /* \"contracts/verifier.sol\":5967:5983  new G1Point[](4) */\n      0xffffffffffffffff\n      dup2\n      gt\n      iszero\n      tag_111\n      jumpi\n      tag_112\n      tag_13\n      jump\t// in\n    tag_112:\n    tag_111:\n      mload(0x40)\n      swap1\n      dup1\n      dup3\n      mstore\n      dup1\n      0x20\n      mul\n      0x20\n      add\n      dup3\n      add\n      0x40\n      mstore\n      dup1\n      iszero\n      tag_113\n      jumpi\n      dup2\n      0x20\n      add\n    tag_114:\n      tag_115\n      tag_69\n      jump\t// in\n    tag_115:\n      dup2\n      mstore\n      0x20\n      add\n      swap1\n      0x01\n      swap1\n      sub\n      swap1\n      dup2\n      tag_114\n      jumpi\n      swap1\n      pop\n    tag_113:\n      pop\n        /* \"contracts/verifier.sol\":5945:5983  G1Point[] memory p1 = new G1Point[](4) */\n      swap1\n      pop\n        /* \"contracts/verifier.sol\":5993:6012  G2Point[] memory p2 */\n      0x00\n        /* \"contracts/verifier.sol\":6029:6030  4 */\n      0x04\n        /* \"contracts/verifier.sol\":6015:6031  new G2Point[](4) */\n      0xffffffffffffffff\n      dup2\n      gt\n      iszero\n      tag_116\n      jumpi\n      tag_117\n      tag_13\n      jump\t// in\n    tag_117:\n    tag_116:\n      mload(0x40)\n      swap1\n      dup1\n      dup3\n      mstore\n      dup1\n      0x20\n      mul\n      0x20\n      add\n      dup3\n      add\n      0x40\n      mstore\n      dup1\n      iszero\n      tag_118\n      jumpi\n      dup2\n      0x20\n      add\n    tag_119:\n      tag_120\n      tag_121\n      jump\t// in\n    tag_120:\n      dup2\n      mstore\n      0x20\n      add\n      swap1\n      0x01\n      swap1\n      sub\n      swap1\n      dup2\n      tag_119\n      jumpi\n      swap1\n      pop\n    tag_118:\n      pop\n        /* \"contracts/verifier.sol\":5993:6031  G2Point[] memory p2 = new G2Point[](4) */\n      swap1\n      pop\n        /* \"contracts/verifier.sol\":6049:6051  a1 */\n      dup11\n        /* \"contracts/verifier.sol\":6041:6043  p1 */\n      dup3\n        /* \"contracts/verifier.sol\":6044:6045  0 */\n      0x00\n        /* \"contracts/verifier.sol\":6041:6046  p1[0] */\n      dup2\n      mload\n      dup2\n      lt\n      tag_122\n      jumpi\n      tag_123\n      tag_20\n      jump\t// in\n    tag_123:\n    tag_122:\n      0x20\n      mul\n      0x20\n      add\n      add\n        /* \"contracts/verifier.sol\":6041:6051  p1[0] = a1 */\n      dup2\n      swap1\n      mstore\n      pop\n        /* \"contracts/verifier.sol\":6069:6071  b1 */\n      dup9\n        /* \"contracts/verifier.sol\":6061:6063  p1 */\n      dup3\n        /* \"contracts/verifier.sol\":6064:6065  1 */\n      0x01\n        /* \"contracts/verifier.sol\":6061:6066  p1[1] */\n      dup2\n      mload\n      dup2\n      lt\n      tag_124\n      jumpi\n      tag_125\n      tag_20\n      jump\t// in\n    tag_125:\n    tag_124:\n      0x20\n      mul\n      0x20\n      add\n      add\n        /* \"contracts/verifier.sol\":6061:6071  p1[1] = b1 */\n      dup2\n      swap1\n      mstore\n      pop\n        /* \"contracts/verifier.sol\":6089:6091  c1 */\n      dup7\n        /* \"contracts/verifier.sol\":6081:6083  p1 */\n      dup3\n        /* \"contracts/verifier.sol\":6084:6085  2 */\n      0x02\n        /* \"contracts/verifier.sol\":6081:6086  p1[2] */\n      dup2\n      mload\n      dup2\n      lt\n      tag_126\n      jumpi\n      tag_127\n      tag_20\n      jump\t// in\n    tag_127:\n    tag_126:\n      0x20\n      mul\n      0x20\n      add\n      add\n        /* \"contracts/verifier.sol\":6081:6091  p1[2] = c1 */\n      dup2\n      swap1\n      mstore\n      pop\n        /* \"contracts/verifier.sol\":6109:6111  d1 */\n      dup5\n        /* \"contracts/verifier.sol\":6101:6103  p1 */\n      dup3\n        /* \"contracts/verifier.sol\":6104:6105  3 */\n      0x03\n        /* \"contracts/verifier.sol\":6101:6106  p1[3] */\n      dup2\n      mload\n      dup2\n      lt\n      tag_128\n      jumpi\n      tag_129\n      tag_20\n      jump\t// in\n    tag_129:\n    tag_128:\n      0x20\n      mul\n      0x20\n      add\n      add\n        /* \"contracts/verifier.sol\":6101:6111  p1[3] = d1 */\n      dup2\n      swap1\n      mstore\n      pop\n        /* \"contracts/verifier.sol\":6129:6131  a2 */\n      dup10\n        /* \"contracts/verifier.sol\":6121:6123  p2 */\n      dup2\n        /* \"contracts/verifier.sol\":6124:6125  0 */\n      0x00\n        /* \"contracts/verifier.sol\":6121:6126  p2[0] */\n      dup2\n      mload\n      dup2\n      lt\n      tag_130\n      jumpi\n      tag_131\n      tag_20\n      jump\t// in\n    tag_131:\n    tag_130:\n      0x20\n      mul\n      0x20\n      add\n      add\n        /* \"contracts/verifier.sol\":6121:6131  p2[0] = a2 */\n      dup2\n      swap1\n      mstore\n      pop\n        /* \"contracts/verifier.sol\":6149:6151  b2 */\n      dup8\n        /* \"contracts/verifier.sol\":6141:6143  p2 */\n      dup2\n        /* \"contracts/verifier.sol\":6144:6145  1 */\n      0x01\n        /* \"contracts/verifier.sol\":6141:6146  p2[1] */\n      dup2\n      mload\n      dup2\n      lt\n      tag_132\n      jumpi\n      tag_133\n      tag_20\n      jump\t// in\n    tag_133:\n    tag_132:\n      0x20\n      mul\n      0x20\n      add\n      add\n        /* \"contracts/verifier.sol\":6141:6151  p2[1] = b2 */\n      dup2\n      swap1\n      mstore\n      pop\n        /* \"contracts/verifier.sol\":6169:6171  c2 */\n      dup6\n        /* \"contracts/verifier.sol\":6161:6163  p2 */\n      dup2\n        /* \"contracts/verifier.sol\":6164:6165  2 */\n      0x02\n        /* \"contracts/verifier.sol\":6161:6166  p2[2] */\n      dup2\n      mload\n      dup2\n      lt\n      tag_134\n      jumpi\n      tag_135\n      tag_20\n      jump\t// in\n    tag_135:\n    tag_134:\n      0x20\n      mul\n      0x20\n      add\n      add\n        /* \"contracts/verifier.sol\":6161:6171  p2[2] = c2 */\n      dup2\n      swap1\n      mstore\n      pop\n        /* \"contracts/verifier.sol\":6189:6191  d2 */\n      dup4\n        /* \"contracts/verifier.sol\":6181:6183  p2 */\n      dup2\n        /* \"contracts/verifier.sol\":6184:6185  3 */\n      0x03\n        /* \"contracts/verifier.sol\":6181:6186  p2[3] */\n      dup2\n      mload\n      dup2\n      lt\n      tag_136\n      jumpi\n      tag_137\n      tag_20\n      jump\t// in\n    tag_137:\n    tag_136:\n      0x20\n      mul\n      0x20\n      add\n      add\n        /* \"contracts/verifier.sol\":6181:6191  p2[3] = d2 */\n      dup2\n      swap1\n      mstore\n      pop\n        /* \"contracts/verifier.sol\":6208:6223  pairing(p1, p2) */\n      tag_138\n        /* \"contracts/verifier.sol\":6216:6218  p1 */\n      dup3\n        /* \"contracts/verifier.sol\":6220:6222  p2 */\n      dup3\n        /* \"contracts/verifier.sol\":6208:6215  pairing */\n      tag_139\n        /* \"contracts/verifier.sol\":6208:6223  pairing(p1, p2) */\n      jump\t// in\n    tag_138:\n        /* \"contracts/verifier.sol\":6201:6223  return pairing(p1, p2) */\n      swap3\n      pop\n      pop\n      pop\n        /* \"contracts/verifier.sol\":5678:6230  function pairingProd4(... */\n      swap9\n      swap8\n      pop\n      pop\n      pop\n      pop\n      pop\n      pop\n      pop\n      pop\n      jump\t// out\n        /* \"contracts/verifier.sol\":3747:4670  function pairing(G1Point[] memory p1, G2Point[] memory p2) internal view returns (bool) {... */\n    tag_139:\n        /* \"contracts/verifier.sol\":3829:3833  bool */\n      0x00\n        /* \"contracts/verifier.sol\":3866:3868  p2 */\n      dup2\n        /* \"contracts/verifier.sol\":3866:3875  p2.length */\n      mload\n        /* \"contracts/verifier.sol\":3853:3855  p1 */\n      dup4\n        /* \"contracts/verifier.sol\":3853:3862  p1.length */\n      mload\n        /* \"contracts/verifier.sol\":3853:3875  p1.length == p2.length */\n      eq\n        /* \"contracts/verifier.sol\":3845:3876  require(p1.length == p2.length) */\n      tag_141\n      jumpi\n      0x00\n      dup1\n      revert\n    tag_141:\n        /* \"contracts/verifier.sol\":3886:3899  uint elements */\n      0x00\n        /* \"contracts/verifier.sol\":3902:3904  p1 */\n      dup4\n        /* \"contracts/verifier.sol\":3902:3911  p1.length */\n      mload\n        /* \"contracts/verifier.sol\":3886:3911  uint elements = p1.length */\n      swap1\n      pop\n        /* \"contracts/verifier.sol\":3921:3935  uint inputSize */\n      0x00\n        /* \"contracts/verifier.sol\":3949:3950  6 */\n      0x06\n        /* \"contracts/verifier.sol\":3938:3946  elements */\n      dup3\n        /* \"contracts/verifier.sol\":3938:3950  elements * 6 */\n      tag_142\n      swap2\n      swap1\n      tag_143\n      jump\t// in\n    tag_142:\n        /* \"contracts/verifier.sol\":3921:3950  uint inputSize = elements * 6 */\n      swap1\n      pop\n        /* \"contracts/verifier.sol\":3960:3979  uint[] memory input */\n      0x00\n        /* \"contracts/verifier.sol\":3993:4002  inputSize */\n      dup2\n        /* \"contracts/verifier.sol\":3982:4003  new uint[](inputSize) */\n      0xffffffffffffffff\n      dup2\n      gt\n      iszero\n      tag_144\n      jumpi\n      tag_145\n      tag_13\n      jump\t// in\n    tag_145:\n    tag_144:\n      mload(0x40)\n      swap1\n      dup1\n      dup3\n      mstore\n      dup1\n      0x20\n      mul\n      0x20\n      add\n      dup3\n      add\n      0x40\n      mstore\n      dup1\n      iszero\n      tag_146\n      jumpi\n      dup2\n      0x20\n      add\n      0x20\n      dup3\n      mul\n      dup1\n      calldatasize\n      dup4\n      calldatacopy\n      dup1\n      dup3\n      add\n      swap2\n      pop\n      pop\n      swap1\n      pop\n    tag_146:\n      pop\n        /* \"contracts/verifier.sol\":3960:4003  uint[] memory input = new uint[](inputSize) */\n      swap1\n      pop\n        /* \"contracts/verifier.sol\":4018:4024  uint i */\n      0x00\n        /* \"contracts/verifier.sol\":4013:4320  for (uint i = 0; i < elements; i++)... */\n    tag_147:\n        /* \"contracts/verifier.sol\":4034:4042  elements */\n      dup4\n        /* \"contracts/verifier.sol\":4030:4031  i */\n      dup2\n        /* \"contracts/verifier.sol\":4030:4042  i < elements */\n      lt\n        /* \"contracts/verifier.sol\":4013:4320  for (uint i = 0; i < elements; i++)... */\n      iszero\n      tag_148\n      jumpi\n        /* \"contracts/verifier.sol\":4090:4092  p1 */\n      dup7\n        /* \"contracts/verifier.sol\":4093:4094  i */\n      dup2\n        /* \"contracts/verifier.sol\":4090:4095  p1[i] */\n      dup2\n      mload\n      dup2\n      lt\n      tag_150\n      jumpi\n      tag_151\n      tag_20\n      jump\t// in\n    tag_151:\n    tag_150:\n      0x20\n      mul\n      0x20\n      add\n      add\n      mload\n        /* \"contracts/verifier.sol\":4090:4097  p1[i].X */\n      0x00\n      add\n      mload\n        /* \"contracts/verifier.sol\":4071:4076  input */\n      dup3\n        /* \"contracts/verifier.sol\":4085:4086  0 */\n      0x00\n        /* \"contracts/verifier.sol\":4081:4082  6 */\n      0x06\n        /* \"contracts/verifier.sol\":4077:4078  i */\n      dup5\n        /* \"contracts/verifier.sol\":4077:4082  i * 6 */\n      tag_152\n      swap2\n      swap1\n      tag_143\n      jump\t// in\n    tag_152:\n        /* \"contracts/verifier.sol\":4077:4086  i * 6 + 0 */\n      tag_153\n      swap2\n      swap1\n      tag_33\n      jump\t// in\n    tag_153:\n        /* \"contracts/verifier.sol\":4071:4087  input[i * 6 + 0] */\n      dup2\n      mload\n      dup2\n      lt\n      tag_154\n      jumpi\n      tag_155\n      tag_20\n      jump\t// in\n    tag_155:\n    tag_154:\n      0x20\n      mul\n      0x20\n      add\n      add\n        /* \"contracts/verifier.sol\":4071:4097  input[i * 6 + 0] = p1[i].X */\n      dup2\n      dup2\n      mstore\n      pop\n      pop\n        /* \"contracts/verifier.sol\":4130:4132  p1 */\n      dup7\n        /* \"contracts/verifier.sol\":4133:4134  i */\n      dup2\n        /* \"contracts/verifier.sol\":4130:4135  p1[i] */\n      dup2\n      mload\n      dup2\n      lt\n      tag_156\n      jumpi\n      tag_157\n      tag_20\n      jump\t// in\n    tag_157:\n    tag_156:\n      0x20\n      mul\n      0x20\n      add\n      add\n      mload\n        /* \"contracts/verifier.sol\":4130:4137  p1[i].Y */\n      0x20\n      add\n      mload\n        /* \"contracts/verifier.sol\":4111:4116  input */\n      dup3\n        /* \"contracts/verifier.sol\":4125:4126  1 */\n      0x01\n        /* \"contracts/verifier.sol\":4121:4122  6 */\n      0x06\n        /* \"contracts/verifier.sol\":4117:4118  i */\n      dup5\n        /* \"contracts/verifier.sol\":4117:4122  i * 6 */\n      tag_158\n      swap2\n      swap1\n      tag_143\n      jump\t// in\n    tag_158:\n        /* \"contracts/verifier.sol\":4117:4126  i * 6 + 1 */\n      tag_159\n      swap2\n      swap1\n      tag_33\n      jump\t// in\n    tag_159:\n        /* \"contracts/verifier.sol\":4111:4127  input[i * 6 + 1] */\n      dup2\n      mload\n      dup2\n      lt\n      tag_160\n      jumpi\n      tag_161\n      tag_20\n      jump\t// in\n    tag_161:\n    tag_160:\n      0x20\n      mul\n      0x20\n      add\n      add\n        /* \"contracts/verifier.sol\":4111:4137  input[i * 6 + 1] = p1[i].Y */\n      dup2\n      dup2\n      mstore\n      pop\n      pop\n        /* \"contracts/verifier.sol\":4170:4172  p2 */\n      dup6\n        /* \"contracts/verifier.sol\":4173:4174  i */\n      dup2\n        /* \"contracts/verifier.sol\":4170:4175  p2[i] */\n      dup2\n      mload\n      dup2\n      lt\n      tag_162\n      jumpi\n      tag_163\n      tag_20\n      jump\t// in\n    tag_163:\n    tag_162:\n      0x20\n      mul\n      0x20\n      add\n      add\n      mload\n        /* \"contracts/verifier.sol\":4170:4177  p2[i].X */\n      0x00\n      add\n      mload\n        /* \"contracts/verifier.sol\":4178:4179  1 */\n      0x01\n        /* \"contracts/verifier.sol\":4170:4180  p2[i].X[1] */\n      0x02\n      dup2\n      lt\n      tag_164\n      jumpi\n      tag_165\n      tag_20\n      jump\t// in\n    tag_165:\n    tag_164:\n      0x20\n      mul\n      add\n      mload\n        /* \"contracts/verifier.sol\":4151:4156  input */\n      dup3\n        /* \"contracts/verifier.sol\":4165:4166  2 */\n      0x02\n        /* \"contracts/verifier.sol\":4161:4162  6 */\n      0x06\n        /* \"contracts/verifier.sol\":4157:4158  i */\n      dup5\n        /* \"contracts/verifier.sol\":4157:4162  i * 6 */\n      tag_166\n      swap2\n      swap1\n      tag_143\n      jump\t// in\n    tag_166:\n        /* \"contracts/verifier.sol\":4157:4166  i * 6 + 2 */\n      tag_167\n      swap2\n      swap1\n      tag_33\n      jump\t// in\n    tag_167:\n        /* \"contracts/verifier.sol\":4151:4167  input[i * 6 + 2] */\n      dup2\n      mload\n      dup2\n      lt\n      tag_168\n      jumpi\n      tag_169\n      tag_20\n      jump\t// in\n    tag_169:\n    tag_168:\n      0x20\n      mul\n      0x20\n      add\n      add\n        /* \"contracts/verifier.sol\":4151:4180  input[i * 6 + 2] = p2[i].X[1] */\n      dup2\n      dup2\n      mstore\n      pop\n      pop\n        /* \"contracts/verifier.sol\":4213:4215  p2 */\n      dup6\n        /* \"contracts/verifier.sol\":4216:4217  i */\n      dup2\n        /* \"contracts/verifier.sol\":4213:4218  p2[i] */\n      dup2\n      mload\n      dup2\n      lt\n      tag_170\n      jumpi\n      tag_171\n      tag_20\n      jump\t// in\n    tag_171:\n    tag_170:\n      0x20\n      mul\n      0x20\n      add\n      add\n      mload\n        /* \"contracts/verifier.sol\":4213:4220  p2[i].X */\n      0x00\n      add\n      mload\n        /* \"contracts/verifier.sol\":4221:4222  0 */\n      0x00\n        /* \"contracts/verifier.sol\":4213:4223  p2[i].X[0] */\n      0x02\n      dup2\n      lt\n      tag_172\n      jumpi\n      tag_173\n      tag_20\n      jump\t// in\n    tag_173:\n    tag_172:\n      0x20\n      mul\n      add\n      mload\n        /* \"contracts/verifier.sol\":4194:4199  input */\n      dup3\n        /* \"contracts/verifier.sol\":4208:4209  3 */\n      0x03\n        /* \"contracts/verifier.sol\":4204:4205  6 */\n      0x06\n        /* \"contracts/verifier.sol\":4200:4201  i */\n      dup5\n        /* \"contracts/verifier.sol\":4200:4205  i * 6 */\n      tag_174\n      swap2\n      swap1\n      tag_143\n      jump\t// in\n    tag_174:\n        /* \"contracts/verifier.sol\":4200:4209  i * 6 + 3 */\n      tag_175\n      swap2\n      swap1\n      tag_33\n      jump\t// in\n    tag_175:\n        /* \"contracts/verifier.sol\":4194:4210  input[i * 6 + 3] */\n      dup2\n      mload\n      dup2\n      lt\n      tag_176\n      jumpi\n      tag_177\n      tag_20\n      jump\t// in\n    tag_177:\n    tag_176:\n      0x20\n      mul\n      0x20\n      add\n      add\n        /* \"contracts/verifier.sol\":4194:4223  input[i * 6 + 3] = p2[i].X[0] */\n      dup2\n      dup2\n      mstore\n      pop\n      pop\n        /* \"contracts/verifier.sol\":4256:4258  p2 */\n      dup6\n        /* \"contracts/verifier.sol\":4259:4260  i */\n      dup2\n        /* \"contracts/verifier.sol\":4256:4261  p2[i] */\n      dup2\n      mload\n      dup2\n      lt\n      tag_178\n      jumpi\n      tag_179\n      tag_20\n      jump\t// in\n    tag_179:\n    tag_178:\n      0x20\n      mul\n      0x20\n      add\n      add\n      mload\n        /* \"contracts/verifier.sol\":4256:4263  p2[i].Y */\n      0x20\n      add\n      mload\n        /* \"contracts/verifier.sol\":4264:4265  1 */\n      0x01\n        /* \"contracts/verifier.sol\":4256:4266  p2[i].Y[1] */\n      0x02\n      dup2\n      lt\n      tag_180\n      jumpi\n      tag_181\n      tag_20\n      jump\t// in\n    tag_181:\n    tag_180:\n      0x20\n      mul\n      add\n      mload\n        /* \"contracts/verifier.sol\":4237:4242  input */\n      dup3\n        /* \"contracts/verifier.sol\":4251:4252  4 */\n      0x04\n        /* \"contracts/verifier.sol\":4247:4248  6 */\n      0x06\n        /* \"contracts/verifier.sol\":4243:4244  i */\n      dup5\n        /* \"contracts/verifier.sol\":4243:4248  i * 6 */\n      tag_182\n      swap2\n      swap1\n      tag_143\n      jump\t// in\n    tag_182:\n        /* \"contracts/verifier.sol\":4243:4252  i * 6 + 4 */\n      tag_183\n      swap2\n      swap1\n      tag_33\n      jump\t// in\n    tag_183:\n        /* \"contracts/verifier.sol\":4237:4253  input[i * 6 + 4] */\n      dup2\n      mload\n      dup2\n      lt\n      tag_184\n      jumpi\n      tag_185\n      tag_20\n      jump\t// in\n    tag_185:\n    tag_184:\n      0x20\n      mul\n      0x20\n      add\n      add\n        /* \"contracts/verifier.sol\":4237:4266  input[i * 6 + 4] = p2[i].Y[1] */\n      dup2\n      dup2\n      mstore\n      pop\n      pop\n        /* \"contracts/verifier.sol\":4299:4301  p2 */\n      dup6\n        /* \"contracts/verifier.sol\":4302:4303  i */\n      dup2\n        /* \"contracts/verifier.sol\":4299:4304  p2[i] */\n      dup2\n      mload\n      dup2\n      lt\n      tag_186\n      jumpi\n      tag_187\n      tag_20\n      jump\t// in\n    tag_187:\n    tag_186:\n      0x20\n      mul\n      0x20\n      add\n      add\n      mload\n        /* \"contracts/verifier.sol\":4299:4306  p2[i].Y */\n      0x20\n      add\n      mload\n        /* \"contracts/verifier.sol\":4307:4308  0 */\n      0x00\n        /* \"contracts/verifier.sol\":4299:4309  p2[i].Y[0] */\n      0x02\n      dup2\n      lt\n      tag_188\n      jumpi\n      tag_189\n      tag_20\n      jump\t// in\n    tag_189:\n    tag_188:\n      0x20\n      mul\n      add\n      mload\n        /* \"contracts/verifier.sol\":4280:4285  input */\n      dup3\n        /* \"contracts/verifier.sol\":4294:4295  5 */\n      0x05\n        /* \"contracts/verifier.sol\":4290:4291  6 */\n      0x06\n        /* \"contracts/verifier.sol\":4286:4287  i */\n      dup5\n        /* \"contracts/verifier.sol\":4286:4291  i * 6 */\n      tag_190\n      swap2\n      swap1\n      tag_143\n      jump\t// in\n    tag_190:\n        /* \"contracts/verifier.sol\":4286:4295  i * 6 + 5 */\n      tag_191\n      swap2\n      swap1\n      tag_33\n      jump\t// in\n    tag_191:\n        /* \"contracts/verifier.sol\":4280:4296  input[i * 6 + 5] */\n      dup2\n      mload\n      dup2\n      lt\n      tag_192\n      jumpi\n      tag_193\n      tag_20\n      jump\t// in\n    tag_193:\n    tag_192:\n      0x20\n      mul\n      0x20\n      add\n      add\n        /* \"contracts/verifier.sol\":4280:4309  input[i * 6 + 5] = p2[i].Y[0] */\n      dup2\n      dup2\n      mstore\n      pop\n      pop\n        /* \"contracts/verifier.sol\":4044:4047  i++ */\n      dup1\n      dup1\n      tag_194\n      swap1\n      tag_24\n      jump\t// in\n    tag_194:\n      swap2\n      pop\n      pop\n        /* \"contracts/verifier.sol\":4013:4320  for (uint i = 0; i < elements; i++)... */\n      jump(tag_147)\n    tag_148:\n      pop\n        /* \"contracts/verifier.sol\":4329:4347  uint[1] memory out */\n      tag_195\n      tag_196\n      jump\t// in\n    tag_195:\n        /* \"contracts/verifier.sol\":4357:4369  bool success */\n      0x00\n        /* \"contracts/verifier.sol\":4490:4494  0x20 */\n      0x20\n        /* \"contracts/verifier.sol\":4485:4488  out */\n      dup3\n        /* \"contracts/verifier.sol\":4478:4482  0x20 */\n      0x20\n        /* \"contracts/verifier.sol\":4467:4476  inputSize */\n      dup7\n        /* \"contracts/verifier.sol\":4463:4483  mul(inputSize, 0x20) */\n      mul\n        /* \"contracts/verifier.sol\":4456:4460  0x20 */\n      0x20\n        /* \"contracts/verifier.sol\":4449:4454  input */\n      dup7\n        /* \"contracts/verifier.sol\":4445:4461  add(input, 0x20) */\n      add\n        /* \"contracts/verifier.sol\":4442:4443  8 */\n      0x08\n        /* \"contracts/verifier.sol\":4435:4439  2000 */\n      0x07d0\n        /* \"contracts/verifier.sol\":4428:4433  gas() */\n      gas\n        /* \"contracts/verifier.sol\":4424:4440  sub(gas(), 2000) */\n      sub\n        /* \"contracts/verifier.sol\":4413:4495  staticcall(sub(gas(), 2000), 8, add(input, 0x20), mul(inputSize, 0x20), out, 0x20) */\n      staticcall\n        /* \"contracts/verifier.sol\":4402:4495  success := staticcall(sub(gas(), 2000), 8, add(input, 0x20), mul(inputSize, 0x20), out, 0x20) */\n      swap1\n      pop\n        /* \"contracts/verifier.sol\":4572:4579  success */\n      dup1\n        /* \"contracts/verifier.sol\":4585:4586  0 */\n      0x00\n        /* \"contracts/verifier.sol\":4580:4600  case 0 { invalid() } */\n      dup2\n      sub\n        /* \"contracts/verifier.sol\":4565:4600  switch success case 0 { invalid() } */\n      tag_197\n        /* \"contracts/verifier.sol\":4580:4600  case 0 { invalid() } */\n      jumpi\n        /* \"contracts/verifier.sol\":4589:4598  invalid() */\n      invalid\n        /* \"contracts/verifier.sol\":4565:4600  switch success case 0 { invalid() } */\n    tag_197:\n      pop\n        /* \"contracts/verifier.sol\":4627:4634  success */\n      dup1\n        /* \"contracts/verifier.sol\":4619:4635  require(success) */\n      tag_199\n      jumpi\n      0x00\n      dup1\n      revert\n    tag_199:\n        /* \"contracts/verifier.sol\":4662:4663  0 */\n      0x00\n        /* \"contracts/verifier.sol\":4652:4655  out */\n      dup3\n        /* \"contracts/verifier.sol\":4656:4657  0 */\n      0x00\n        /* \"contracts/verifier.sol\":4652:4658  out[0] */\n      0x01\n      dup2\n      lt\n      tag_200\n      jumpi\n      tag_201\n      tag_20\n      jump\t// in\n    tag_201:\n    tag_200:\n      0x20\n      mul\n      add\n      mload\n        /* \"contracts/verifier.sol\":4652:4663  out[0] != 0 */\n      eq\n      iszero\n        /* \"contracts/verifier.sol\":4645:4663  return out[0] != 0 */\n      swap6\n      pop\n      pop\n      pop\n      pop\n      pop\n      pop\n        /* \"contracts/verifier.sol\":3747:4670  function pairing(G1Point[] memory p1, G2Point[] memory p2) internal view returns (bool) {... */\n      swap3\n      swap2\n      pop\n      pop\n      jump\t// out\n    tag_62:\n      mload(0x40)\n      dup1\n      0xa0\n      add\n      0x40\n      mstore\n      dup1\n      tag_202\n      tag_69\n      jump\t// in\n    tag_202:\n      dup2\n      mstore\n      0x20\n      add\n      tag_203\n      tag_121\n      jump\t// in\n    tag_203:\n      dup2\n      mstore\n      0x20\n      add\n      tag_204\n      tag_121\n      jump\t// in\n    tag_204:\n      dup2\n      mstore\n      0x20\n      add\n      tag_205\n      tag_121\n      jump\t// in\n    tag_205:\n      dup2\n      mstore\n      0x20\n      add\n      0x60\n      dup2\n      mstore\n      pop\n      swap1\n      jump\t// out\n    tag_69:\n      mload(0x40)\n      dup1\n      0x40\n      add\n      0x40\n      mstore\n      dup1\n      0x00\n      dup2\n      mstore\n      0x20\n      add\n      0x00\n      dup2\n      mstore\n      pop\n      swap1\n      jump\t// out\n    tag_77:\n      mload(0x40)\n      dup1\n      0x60\n      add\n      0x40\n      mstore\n      dup1\n      0x03\n      swap1\n      0x20\n      dup3\n      mul\n      dup1\n      calldatasize\n      dup4\n      calldatacopy\n      dup1\n      dup3\n      add\n      swap2\n      pop\n      pop\n      swap1\n      pop\n      pop\n      swap1\n      jump\t// out\n    tag_90:\n      mload(0x40)\n      dup1\n      0x80\n      add\n      0x40\n      mstore\n      dup1\n      0x04\n      swap1\n      0x20\n      dup3\n      mul\n      dup1\n      calldatasize\n      dup4\n      calldatacopy\n      dup1\n      dup3\n      add\n      swap2\n      pop\n      pop\n      swap1\n      pop\n      pop\n      swap1\n      jump\t// out\n    tag_121:\n      mload(0x40)\n      dup1\n      0x40\n      add\n      0x40\n      mstore\n      dup1\n      tag_206\n      tag_207\n      jump\t// in\n    tag_206:\n      dup2\n      mstore\n      0x20\n      add\n      tag_208\n      tag_207\n      jump\t// in\n    tag_208:\n      dup2\n      mstore\n      pop\n      swap1\n      jump\t// out\n    tag_196:\n      mload(0x40)\n      dup1\n      0x20\n      add\n      0x40\n      mstore\n      dup1\n      0x01\n      swap1\n      0x20\n      dup3\n      mul\n      dup1\n      calldatasize\n      dup4\n      calldatacopy\n      dup1\n      dup3\n      add\n      swap2\n      pop\n      pop\n      swap1\n      pop\n      pop\n      swap1\n      jump\t// out\n    tag_207:\n      mload(0x40)\n      dup1\n      0x40\n      add\n      0x40\n      mstore\n      dup1\n      0x02\n      swap1\n      0x20\n      dup3\n      mul\n      dup1\n      calldatasize\n      dup4\n      calldatacopy\n      dup1\n      dup3\n      add\n      swap2\n      pop\n      pop\n      swap1\n      pop\n      pop\n      swap1\n      jump\t// out\n        /* \"#utility.yul\":7:82   */\n    tag_209:\n        /* \"#utility.yul\":40:46   */\n      0x00\n        /* \"#utility.yul\":73:75   */\n      0x40\n        /* \"#utility.yul\":67:76   */\n      mload\n        /* \"#utility.yul\":57:76   */\n      swap1\n      pop\n        /* \"#utility.yul\":7:82   */\n      swap1\n      jump\t// out\n        /* \"#utility.yul\":88:205   */\n    tag_210:\n        /* \"#utility.yul\":197:198   */\n      0x00\n        /* \"#utility.yul\":194:195   */\n      dup1\n        /* \"#utility.yul\":187:199   */\n      revert\n        /* \"#utility.yul\":334:451   */\n    tag_212:\n        /* \"#utility.yul\":443:444   */\n      0x00\n        /* \"#utility.yul\":440:441   */\n      dup1\n        /* \"#utility.yul\":433:445   */\n      revert\n        /* \"#utility.yul\":457:559   */\n    tag_213:\n        /* \"#utility.yul\":498:504   */\n      0x00\n        /* \"#utility.yul\":549:551   */\n      0x1f\n        /* \"#utility.yul\":545:552   */\n      not\n        /* \"#utility.yul\":540:542   */\n      0x1f\n        /* \"#utility.yul\":533:538   */\n      dup4\n        /* \"#utility.yul\":529:543   */\n      add\n        /* \"#utility.yul\":525:553   */\n      and\n        /* \"#utility.yul\":515:553   */\n      swap1\n      pop\n        /* \"#utility.yul\":457:559   */\n      swap2\n      swap1\n      pop\n      jump\t// out\n        /* \"#utility.yul\":565:745   */\n    tag_13:\n        /* \"#utility.yul\":613:690   */\n      0x4e487b7100000000000000000000000000000000000000000000000000000000\n        /* \"#utility.yul\":610:611   */\n      0x00\n        /* \"#utility.yul\":603:691   */\n      mstore\n        /* \"#utility.yul\":710:714   */\n      0x41\n        /* \"#utility.yul\":707:708   */\n      0x04\n        /* \"#utility.yul\":700:715   */\n      mstore\n        /* \"#utility.yul\":734:738   */\n      0x24\n        /* \"#utility.yul\":731:732   */\n      0x00\n        /* \"#utility.yul\":724:739   */\n      revert\n        /* \"#utility.yul\":751:1032   */\n    tag_214:\n        /* \"#utility.yul\":834:861   */\n      tag_243\n        /* \"#utility.yul\":856:860   */\n      dup3\n        /* \"#utility.yul\":834:861   */\n      tag_213\n      jump\t// in\n    tag_243:\n        /* \"#utility.yul\":826:832   */\n      dup2\n        /* \"#utility.yul\":822:862   */\n      add\n        /* \"#utility.yul\":964:970   */\n      dup2\n        /* \"#utility.yul\":952:962   */\n      dup2\n        /* \"#utility.yul\":949:971   */\n      lt\n        /* \"#utility.yul\":928:946   */\n      0xffffffffffffffff\n        /* \"#utility.yul\":916:926   */\n      dup3\n        /* \"#utility.yul\":913:947   */\n      gt\n        /* \"#utility.yul\":910:972   */\n      or\n        /* \"#utility.yul\":907:995   */\n      iszero\n      tag_244\n      jumpi\n        /* \"#utility.yul\":975:993   */\n      tag_245\n      tag_13\n      jump\t// in\n    tag_245:\n        /* \"#utility.yul\":907:995   */\n    tag_244:\n        /* \"#utility.yul\":1015:1025   */\n      dup1\n        /* \"#utility.yul\":1011:1013   */\n      0x40\n        /* \"#utility.yul\":1004:1026   */\n      mstore\n        /* \"#utility.yul\":794:1032   */\n      pop\n        /* \"#utility.yul\":751:1032   */\n      pop\n      pop\n      jump\t// out\n        /* \"#utility.yul\":1038:1167   */\n    tag_215:\n        /* \"#utility.yul\":1072:1078   */\n      0x00\n        /* \"#utility.yul\":1099:1119   */\n      tag_247\n      tag_209\n      jump\t// in\n    tag_247:\n        /* \"#utility.yul\":1089:1119   */\n      swap1\n      pop\n        /* \"#utility.yul\":1128:1161   */\n      tag_248\n        /* \"#utility.yul\":1156:1160   */\n      dup3\n        /* \"#utility.yul\":1148:1154   */\n      dup3\n        /* \"#utility.yul\":1128:1161   */\n      tag_214\n      jump\t// in\n    tag_248:\n        /* \"#utility.yul\":1038:1167   */\n      swap2\n      swap1\n      pop\n      jump\t// out\n        /* \"#utility.yul\":1296:1373   */\n    tag_217:\n        /* \"#utility.yul\":1333:1340   */\n      0x00\n        /* \"#utility.yul\":1362:1367   */\n      dup2\n        /* \"#utility.yul\":1351:1367   */\n      swap1\n      pop\n        /* \"#utility.yul\":1296:1373   */\n      swap2\n      swap1\n      pop\n      jump\t// out\n        /* \"#utility.yul\":1379:1501   */\n    tag_218:\n        /* \"#utility.yul\":1452:1476   */\n      tag_252\n        /* \"#utility.yul\":1470:1475   */\n      dup2\n        /* \"#utility.yul\":1452:1476   */\n      tag_217\n      jump\t// in\n    tag_252:\n        /* \"#utility.yul\":1445:1450   */\n      dup2\n        /* \"#utility.yul\":1442:1477   */\n      eq\n        /* \"#utility.yul\":1432:1495   */\n      tag_253\n      jumpi\n        /* \"#utility.yul\":1491:1492   */\n      0x00\n        /* \"#utility.yul\":1488:1489   */\n      dup1\n        /* \"#utility.yul\":1481:1493   */\n      revert\n        /* \"#utility.yul\":1432:1495   */\n    tag_253:\n        /* \"#utility.yul\":1379:1501   */\n      pop\n      jump\t// out\n        /* \"#utility.yul\":1507:1646   */\n    tag_219:\n        /* \"#utility.yul\":1553:1558   */\n      0x00\n        /* \"#utility.yul\":1591:1597   */\n      dup2\n        /* \"#utility.yul\":1578:1598   */\n      calldataload\n        /* \"#utility.yul\":1569:1598   */\n      swap1\n      pop\n        /* \"#utility.yul\":1607:1640   */\n      tag_255\n        /* \"#utility.yul\":1634:1639   */\n      dup2\n        /* \"#utility.yul\":1607:1640   */\n      tag_218\n      jump\t// in\n    tag_255:\n        /* \"#utility.yul\":1507:1646   */\n      swap3\n      swap2\n      pop\n      pop\n      jump\t// out\n        /* \"#utility.yul\":1682:2247   */\n    tag_220:\n        /* \"#utility.yul\":1753:1758   */\n      0x00\n        /* \"#utility.yul\":1797:1801   */\n      0x40\n        /* \"#utility.yul\":1785:1794   */\n      dup3\n        /* \"#utility.yul\":1780:1783   */\n      dup5\n        /* \"#utility.yul\":1776:1795   */\n      sub\n        /* \"#utility.yul\":1772:1802   */\n      slt\n        /* \"#utility.yul\":1769:1886   */\n      iszero\n      tag_257\n      jumpi\n        /* \"#utility.yul\":1805:1884   */\n      tag_258\n      tag_212\n      jump\t// in\n    tag_258:\n        /* \"#utility.yul\":1769:1886   */\n    tag_257:\n        /* \"#utility.yul\":1904:1925   */\n      tag_259\n        /* \"#utility.yul\":1920:1924   */\n      0x40\n        /* \"#utility.yul\":1904:1925   */\n      tag_215\n      jump\t// in\n    tag_259:\n        /* \"#utility.yul\":1895:1925   */\n      swap1\n      pop\n        /* \"#utility.yul\":1981:1982   */\n      0x00\n        /* \"#utility.yul\":2021:2070   */\n      tag_260\n        /* \"#utility.yul\":2066:2069   */\n      dup5\n        /* \"#utility.yul\":2057:2063   */\n      dup3\n        /* \"#utility.yul\":2046:2055   */\n      dup6\n        /* \"#utility.yul\":2042:2064   */\n      add\n        /* \"#utility.yul\":2021:2070   */\n      tag_219\n      jump\t// in\n    tag_260:\n        /* \"#utility.yul\":2014:2018   */\n      0x00\n        /* \"#utility.yul\":2007:2012   */\n      dup4\n        /* \"#utility.yul\":2003:2019   */\n      add\n        /* \"#utility.yul\":1996:2071   */\n      mstore\n        /* \"#utility.yul\":1935:2082   */\n      pop\n        /* \"#utility.yul\":2138:2140   */\n      0x20\n        /* \"#utility.yul\":2179:2228   */\n      tag_261\n        /* \"#utility.yul\":2224:2227   */\n      dup5\n        /* \"#utility.yul\":2215:2221   */\n      dup3\n        /* \"#utility.yul\":2204:2213   */\n      dup6\n        /* \"#utility.yul\":2200:2222   */\n      add\n        /* \"#utility.yul\":2179:2228   */\n      tag_219\n      jump\t// in\n    tag_261:\n        /* \"#utility.yul\":2172:2176   */\n      0x20\n        /* \"#utility.yul\":2165:2170   */\n      dup4\n        /* \"#utility.yul\":2161:2177   */\n      add\n        /* \"#utility.yul\":2154:2229   */\n      mstore\n        /* \"#utility.yul\":2092:2240   */\n      pop\n        /* \"#utility.yul\":1682:2247   */\n      swap3\n      swap2\n      pop\n      pop\n      jump\t// out\n        /* \"#utility.yul\":2253:2370   */\n    tag_221:\n        /* \"#utility.yul\":2362:2363   */\n      0x00\n        /* \"#utility.yul\":2359:2360   */\n      dup1\n        /* \"#utility.yul\":2352:2364   */\n      revert\n        /* \"#utility.yul\":2376:2625   */\n    tag_222:\n        /* \"#utility.yul\":2451:2455   */\n      0x00\n        /* \"#utility.yul\":2541:2559   */\n      0xffffffffffffffff\n        /* \"#utility.yul\":2533:2539   */\n      dup3\n        /* \"#utility.yul\":2530:2560   */\n      gt\n        /* \"#utility.yul\":2527:2583   */\n      iszero\n      tag_264\n      jumpi\n        /* \"#utility.yul\":2563:2581   */\n      tag_265\n      tag_13\n      jump\t// in\n    tag_265:\n        /* \"#utility.yul\":2527:2583   */\n    tag_264:\n        /* \"#utility.yul\":2613:2617   */\n      0x20\n        /* \"#utility.yul\":2605:2611   */\n      dup3\n        /* \"#utility.yul\":2601:2618   */\n      mul\n        /* \"#utility.yul\":2593:2618   */\n      swap1\n      pop\n        /* \"#utility.yul\":2376:2625   */\n      swap2\n      swap1\n      pop\n      jump\t// out\n        /* \"#utility.yul\":2631:2748   */\n    tag_223:\n        /* \"#utility.yul\":2740:2741   */\n      0x00\n        /* \"#utility.yul\":2737:2738   */\n      dup1\n        /* \"#utility.yul\":2730:2742   */\n      revert\n        /* \"#utility.yul\":2772:3415   */\n    tag_224:\n        /* \"#utility.yul\":2866:2871   */\n      0x00\n        /* \"#utility.yul\":2891:2970   */\n      tag_268\n        /* \"#utility.yul\":2907:2969   */\n      tag_269\n        /* \"#utility.yul\":2962:2968   */\n      dup5\n        /* \"#utility.yul\":2907:2969   */\n      tag_222\n      jump\t// in\n    tag_269:\n        /* \"#utility.yul\":2891:2970   */\n      tag_215\n      jump\t// in\n    tag_268:\n        /* \"#utility.yul\":2882:2970   */\n      swap1\n      pop\n        /* \"#utility.yul\":2990:2995   */\n      dup1\n        /* \"#utility.yul\":3043:3047   */\n      0x20\n        /* \"#utility.yul\":3035:3041   */\n      dup5\n        /* \"#utility.yul\":3031:3048   */\n      mul\n        /* \"#utility.yul\":3023:3029   */\n      dup4\n        /* \"#utility.yul\":3019:3049   */\n      add\n        /* \"#utility.yul\":3072:3075   */\n      dup6\n        /* \"#utility.yul\":3064:3070   */\n      dup2\n        /* \"#utility.yul\":3061:3076   */\n      gt\n        /* \"#utility.yul\":3058:3180   */\n      iszero\n      tag_270\n      jumpi\n        /* \"#utility.yul\":3091:3170   */\n      tag_271\n      tag_223\n      jump\t// in\n    tag_271:\n        /* \"#utility.yul\":3058:3180   */\n    tag_270:\n        /* \"#utility.yul\":3206:3212   */\n      dup4\n        /* \"#utility.yul\":3189:3409   */\n    tag_272:\n        /* \"#utility.yul\":3223:3229   */\n      dup2\n        /* \"#utility.yul\":3218:3221   */\n      dup2\n        /* \"#utility.yul\":3215:3230   */\n      lt\n        /* \"#utility.yul\":3189:3409   */\n      iszero\n      tag_274\n      jumpi\n        /* \"#utility.yul\":3298:3301   */\n      dup1\n        /* \"#utility.yul\":3327:3364   */\n      tag_275\n        /* \"#utility.yul\":3360:3363   */\n      dup9\n        /* \"#utility.yul\":3348:3358   */\n      dup3\n        /* \"#utility.yul\":3327:3364   */\n      tag_219\n      jump\t// in\n    tag_275:\n        /* \"#utility.yul\":3322:3325   */\n      dup5\n        /* \"#utility.yul\":3315:3365   */\n      mstore\n        /* \"#utility.yul\":3394:3398   */\n      0x20\n        /* \"#utility.yul\":3389:3392   */\n      dup5\n        /* \"#utility.yul\":3385:3399   */\n      add\n        /* \"#utility.yul\":3378:3399   */\n      swap4\n      pop\n        /* \"#utility.yul\":3265:3409   */\n      pop\n        /* \"#utility.yul\":3249:3253   */\n      0x20\n        /* \"#utility.yul\":3244:3247   */\n      dup2\n        /* \"#utility.yul\":3240:3254   */\n      add\n        /* \"#utility.yul\":3233:3254   */\n      swap1\n      pop\n        /* \"#utility.yul\":3189:3409   */\n      jump(tag_272)\n    tag_274:\n        /* \"#utility.yul\":3193:3214   */\n      pop\n        /* \"#utility.yul\":2872:3415   */\n      pop\n      pop\n        /* \"#utility.yul\":2772:3415   */\n      swap4\n      swap3\n      pop\n      pop\n      pop\n      jump\t// out\n        /* \"#utility.yul\":3439:3778   */\n    tag_225:\n        /* \"#utility.yul\":3508:3513   */\n      0x00\n        /* \"#utility.yul\":3557:3560   */\n      dup3\n        /* \"#utility.yul\":3550:3554   */\n      0x1f\n        /* \"#utility.yul\":3542:3548   */\n      dup4\n        /* \"#utility.yul\":3538:3555   */\n      add\n        /* \"#utility.yul\":3534:3561   */\n      slt\n        /* \"#utility.yul\":3524:3646   */\n      tag_277\n      jumpi\n        /* \"#utility.yul\":3565:3644   */\n      tag_278\n      tag_221\n      jump\t// in\n    tag_278:\n        /* \"#utility.yul\":3524:3646   */\n    tag_277:\n        /* \"#utility.yul\":3669:3673   */\n      0x02\n        /* \"#utility.yul\":3691:3772   */\n      tag_279\n        /* \"#utility.yul\":3768:3771   */\n      dup5\n        /* \"#utility.yul\":3760:3766   */\n      dup3\n        /* \"#utility.yul\":3752:3758   */\n      dup6\n        /* \"#utility.yul\":3691:3772   */\n      tag_224\n      jump\t// in\n    tag_279:\n        /* \"#utility.yul\":3682:3772   */\n      swap2\n      pop\n        /* \"#utility.yul\":3514:3778   */\n      pop\n        /* \"#utility.yul\":3439:3778   */\n      swap3\n      swap2\n      pop\n      pop\n      jump\t// out\n        /* \"#utility.yul\":3814:4426   */\n    tag_226:\n        /* \"#utility.yul\":3886:3891   */\n      0x00\n        /* \"#utility.yul\":3930:3934   */\n      0x80\n        /* \"#utility.yul\":3918:3927   */\n      dup3\n        /* \"#utility.yul\":3913:3916   */\n      dup5\n        /* \"#utility.yul\":3909:3928   */\n      sub\n        /* \"#utility.yul\":3905:3935   */\n      slt\n        /* \"#utility.yul\":3902:4019   */\n      iszero\n      tag_281\n      jumpi\n        /* \"#utility.yul\":3938:4017   */\n      tag_282\n      tag_212\n      jump\t// in\n    tag_282:\n        /* \"#utility.yul\":3902:4019   */\n    tag_281:\n        /* \"#utility.yul\":4037:4058   */\n      tag_283\n        /* \"#utility.yul\":4053:4057   */\n      0x40\n        /* \"#utility.yul\":4037:4058   */\n      tag_215\n      jump\t// in\n    tag_283:\n        /* \"#utility.yul\":4028:4058   */\n      swap1\n      pop\n        /* \"#utility.yul\":4114:4115   */\n      0x00\n        /* \"#utility.yul\":4154:4226   */\n      tag_284\n        /* \"#utility.yul\":4222:4225   */\n      dup5\n        /* \"#utility.yul\":4213:4219   */\n      dup3\n        /* \"#utility.yul\":4202:4211   */\n      dup6\n        /* \"#utility.yul\":4198:4220   */\n      add\n        /* \"#utility.yul\":4154:4226   */\n      tag_225\n      jump\t// in\n    tag_284:\n        /* \"#utility.yul\":4147:4151   */\n      0x00\n        /* \"#utility.yul\":4140:4145   */\n      dup4\n        /* \"#utility.yul\":4136:4152   */\n      add\n        /* \"#utility.yul\":4129:4227   */\n      mstore\n        /* \"#utility.yul\":4068:4238   */\n      pop\n        /* \"#utility.yul\":4294:4296   */\n      0x40\n        /* \"#utility.yul\":4335:4407   */\n      tag_285\n        /* \"#utility.yul\":4403:4406   */\n      dup5\n        /* \"#utility.yul\":4394:4400   */\n      dup3\n        /* \"#utility.yul\":4383:4392   */\n      dup6\n        /* \"#utility.yul\":4379:4401   */\n      add\n        /* \"#utility.yul\":4335:4407   */\n      tag_225\n      jump\t// in\n    tag_285:\n        /* \"#utility.yul\":4328:4332   */\n      0x20\n        /* \"#utility.yul\":4321:4326   */\n      dup4\n        /* \"#utility.yul\":4317:4333   */\n      add\n        /* \"#utility.yul\":4310:4408   */\n      mstore\n        /* \"#utility.yul\":4248:4419   */\n      pop\n        /* \"#utility.yul\":3814:4426   */\n      swap3\n      swap2\n      pop\n      pop\n      jump\t// out\n        /* \"#utility.yul\":4461:5254   */\n    tag_227:\n        /* \"#utility.yul\":4532:4537   */\n      0x00\n        /* \"#utility.yul\":4576:4582   */\n      0x0100\n        /* \"#utility.yul\":4564:4573   */\n      dup3\n        /* \"#utility.yul\":4559:4562   */\n      dup5\n        /* \"#utility.yul\":4555:4574   */\n      sub\n        /* \"#utility.yul\":4551:4583   */\n      slt\n        /* \"#utility.yul\":4548:4667   */\n      iszero\n      tag_287\n      jumpi\n        /* \"#utility.yul\":4586:4665   */\n      tag_288\n      tag_212\n      jump\t// in\n    tag_288:\n        /* \"#utility.yul\":4548:4667   */\n    tag_287:\n        /* \"#utility.yul\":4685:4706   */\n      tag_289\n        /* \"#utility.yul\":4701:4705   */\n      0x60\n        /* \"#utility.yul\":4685:4706   */\n      tag_215\n      jump\t// in\n    tag_289:\n        /* \"#utility.yul\":4676:4706   */\n      swap1\n      pop\n        /* \"#utility.yul\":4762:4763   */\n      0x00\n        /* \"#utility.yul\":4802:4873   */\n      tag_290\n        /* \"#utility.yul\":4869:4872   */\n      dup5\n        /* \"#utility.yul\":4860:4866   */\n      dup3\n        /* \"#utility.yul\":4849:4858   */\n      dup6\n        /* \"#utility.yul\":4845:4867   */\n      add\n        /* \"#utility.yul\":4802:4873   */\n      tag_220\n      jump\t// in\n    tag_290:\n        /* \"#utility.yul\":4795:4799   */\n      0x00\n        /* \"#utility.yul\":4788:4793   */\n      dup4\n        /* \"#utility.yul\":4784:4800   */\n      add\n        /* \"#utility.yul\":4777:4874   */\n      mstore\n        /* \"#utility.yul\":4716:4885   */\n      pop\n        /* \"#utility.yul\":4941:4943   */\n      0x40\n        /* \"#utility.yul\":4982:5054   */\n      tag_291\n        /* \"#utility.yul\":5050:5053   */\n      dup5\n        /* \"#utility.yul\":5041:5047   */\n      dup3\n        /* \"#utility.yul\":5030:5039   */\n      dup6\n        /* \"#utility.yul\":5026:5048   */\n      add\n        /* \"#utility.yul\":4982:5054   */\n      tag_226\n      jump\t// in\n    tag_291:\n        /* \"#utility.yul\":4975:4979   */\n      0x20\n        /* \"#utility.yul\":4968:4973   */\n      dup4\n        /* \"#utility.yul\":4964:4980   */\n      add\n        /* \"#utility.yul\":4957:5055   */\n      mstore\n        /* \"#utility.yul\":4895:5066   */\n      pop\n        /* \"#utility.yul\":5122:5125   */\n      0xc0\n        /* \"#utility.yul\":5164:5235   */\n      tag_292\n        /* \"#utility.yul\":5231:5234   */\n      dup5\n        /* \"#utility.yul\":5222:5228   */\n      dup3\n        /* \"#utility.yul\":5211:5220   */\n      dup6\n        /* \"#utility.yul\":5207:5229   */\n      add\n        /* \"#utility.yul\":5164:5235   */\n      tag_220\n      jump\t// in\n    tag_292:\n        /* \"#utility.yul\":5157:5161   */\n      0x40\n        /* \"#utility.yul\":5150:5155   */\n      dup4\n        /* \"#utility.yul\":5146:5162   */\n      add\n        /* \"#utility.yul\":5139:5236   */\n      mstore\n        /* \"#utility.yul\":5076:5247   */\n      pop\n        /* \"#utility.yul\":4461:5254   */\n      swap3\n      swap2\n      pop\n      pop\n      jump\t// out\n        /* \"#utility.yul\":5260:5509   */\n    tag_228:\n        /* \"#utility.yul\":5335:5339   */\n      0x00\n        /* \"#utility.yul\":5425:5443   */\n      0xffffffffffffffff\n        /* \"#utility.yul\":5417:5423   */\n      dup3\n        /* \"#utility.yul\":5414:5444   */\n      gt\n        /* \"#utility.yul\":5411:5467   */\n      iszero\n      tag_294\n      jumpi\n        /* \"#utility.yul\":5447:5465   */\n      tag_295\n      tag_13\n      jump\t// in\n    tag_295:\n        /* \"#utility.yul\":5411:5467   */\n    tag_294:\n        /* \"#utility.yul\":5497:5501   */\n      0x20\n        /* \"#utility.yul\":5489:5495   */\n      dup3\n        /* \"#utility.yul\":5485:5502   */\n      mul\n        /* \"#utility.yul\":5477:5502   */\n      swap1\n      pop\n        /* \"#utility.yul\":5260:5509   */\n      swap2\n      swap1\n      pop\n      jump\t// out\n        /* \"#utility.yul\":5533:6176   */\n    tag_229:\n        /* \"#utility.yul\":5627:5632   */\n      0x00\n        /* \"#utility.yul\":5652:5731   */\n      tag_297\n        /* \"#utility.yul\":5668:5730   */\n      tag_298\n        /* \"#utility.yul\":5723:5729   */\n      dup5\n        /* \"#utility.yul\":5668:5730   */\n      tag_228\n      jump\t// in\n    tag_298:\n        /* \"#utility.yul\":5652:5731   */\n      tag_215\n      jump\t// in\n    tag_297:\n        /* \"#utility.yul\":5643:5731   */\n      swap1\n      pop\n        /* \"#utility.yul\":5751:5756   */\n      dup1\n        /* \"#utility.yul\":5804:5808   */\n      0x20\n        /* \"#utility.yul\":5796:5802   */\n      dup5\n        /* \"#utility.yul\":5792:5809   */\n      mul\n        /* \"#utility.yul\":5784:5790   */\n      dup4\n        /* \"#utility.yul\":5780:5810   */\n      add\n        /* \"#utility.yul\":5833:5836   */\n      dup6\n        /* \"#utility.yul\":5825:5831   */\n      dup2\n        /* \"#utility.yul\":5822:5837   */\n      gt\n        /* \"#utility.yul\":5819:5941   */\n      iszero\n      tag_299\n      jumpi\n        /* \"#utility.yul\":5852:5931   */\n      tag_300\n      tag_223\n      jump\t// in\n    tag_300:\n        /* \"#utility.yul\":5819:5941   */\n    tag_299:\n        /* \"#utility.yul\":5967:5973   */\n      dup4\n        /* \"#utility.yul\":5950:6170   */\n    tag_301:\n        /* \"#utility.yul\":5984:5990   */\n      dup2\n        /* \"#utility.yul\":5979:5982   */\n      dup2\n        /* \"#utility.yul\":5976:5991   */\n      lt\n        /* \"#utility.yul\":5950:6170   */\n      iszero\n      tag_303\n      jumpi\n        /* \"#utility.yul\":6059:6062   */\n      dup1\n        /* \"#utility.yul\":6088:6125   */\n      tag_304\n        /* \"#utility.yul\":6121:6124   */\n      dup9\n        /* \"#utility.yul\":6109:6119   */\n      dup3\n        /* \"#utility.yul\":6088:6125   */\n      tag_219\n      jump\t// in\n    tag_304:\n        /* \"#utility.yul\":6083:6086   */\n      dup5\n        /* \"#utility.yul\":6076:6126   */\n      mstore\n        /* \"#utility.yul\":6155:6159   */\n      0x20\n        /* \"#utility.yul\":6150:6153   */\n      dup5\n        /* \"#utility.yul\":6146:6160   */\n      add\n        /* \"#utility.yul\":6139:6160   */\n      swap4\n      pop\n        /* \"#utility.yul\":6026:6170   */\n      pop\n        /* \"#utility.yul\":6010:6014   */\n      0x20\n        /* \"#utility.yul\":6005:6008   */\n      dup2\n        /* \"#utility.yul\":6001:6015   */\n      add\n        /* \"#utility.yul\":5994:6015   */\n      swap1\n      pop\n        /* \"#utility.yul\":5950:6170   */\n      jump(tag_301)\n    tag_303:\n        /* \"#utility.yul\":5954:5975   */\n      pop\n        /* \"#utility.yul\":5633:6176   */\n      pop\n      pop\n        /* \"#utility.yul\":5533:6176   */\n      swap4\n      swap3\n      pop\n      pop\n      pop\n      jump\t// out\n        /* \"#utility.yul\":6200:6539   */\n    tag_230:\n        /* \"#utility.yul\":6269:6274   */\n      0x00\n        /* \"#utility.yul\":6318:6321   */\n      dup3\n        /* \"#utility.yul\":6311:6315   */\n      0x1f\n        /* \"#utility.yul\":6303:6309   */\n      dup4\n        /* \"#utility.yul\":6299:6316   */\n      add\n        /* \"#utility.yul\":6295:6322   */\n      slt\n        /* \"#utility.yul\":6285:6407   */\n      tag_306\n      jumpi\n        /* \"#utility.yul\":6326:6405   */\n      tag_307\n      tag_221\n      jump\t// in\n    tag_307:\n        /* \"#utility.yul\":6285:6407   */\n    tag_306:\n        /* \"#utility.yul\":6430:6434   */\n      0x01\n        /* \"#utility.yul\":6452:6533   */\n      tag_308\n        /* \"#utility.yul\":6529:6532   */\n      dup5\n        /* \"#utility.yul\":6521:6527   */\n      dup3\n        /* \"#utility.yul\":6513:6519   */\n      dup6\n        /* \"#utility.yul\":6452:6533   */\n      tag_229\n      jump\t// in\n    tag_308:\n        /* \"#utility.yul\":6443:6533   */\n      swap2\n      pop\n        /* \"#utility.yul\":6275:6539   */\n      pop\n        /* \"#utility.yul\":6200:6539   */\n      swap3\n      swap2\n      pop\n      pop\n      jump\t// out\n        /* \"#utility.yul\":6545:7111   */\n    tag_6:\n        /* \"#utility.yul\":6658:6664   */\n      0x00\n        /* \"#utility.yul\":6666:6672   */\n      dup1\n        /* \"#utility.yul\":6715:6718   */\n      0x0120\n        /* \"#utility.yul\":6703:6712   */\n      dup4\n        /* \"#utility.yul\":6694:6701   */\n      dup6\n        /* \"#utility.yul\":6690:6713   */\n      sub\n        /* \"#utility.yul\":6686:6719   */\n      slt\n        /* \"#utility.yul\":6683:6803   */\n      iszero\n      tag_310\n      jumpi\n        /* \"#utility.yul\":6722:6801   */\n      tag_311\n      tag_210\n      jump\t// in\n    tag_311:\n        /* \"#utility.yul\":6683:6803   */\n    tag_310:\n        /* \"#utility.yul\":6842:6843   */\n      0x00\n        /* \"#utility.yul\":6867:6942   */\n      tag_312\n        /* \"#utility.yul\":6934:6941   */\n      dup6\n        /* \"#utility.yul\":6925:6931   */\n      dup3\n        /* \"#utility.yul\":6914:6923   */\n      dup7\n        /* \"#utility.yul\":6910:6932   */\n      add\n        /* \"#utility.yul\":6867:6942   */\n      tag_227\n      jump\t// in\n    tag_312:\n        /* \"#utility.yul\":6857:6942   */\n      swap3\n      pop\n        /* \"#utility.yul\":6813:6952   */\n      pop\n        /* \"#utility.yul\":6991:6994   */\n      0x0100\n        /* \"#utility.yul\":7018:7094   */\n      tag_313\n        /* \"#utility.yul\":7086:7093   */\n      dup6\n        /* \"#utility.yul\":7077:7083   */\n      dup3\n        /* \"#utility.yul\":7066:7075   */\n      dup7\n        /* \"#utility.yul\":7062:7084   */\n      add\n        /* \"#utility.yul\":7018:7094   */\n      tag_230\n      jump\t// in\n    tag_313:\n        /* \"#utility.yul\":7008:7094   */\n      swap2\n      pop\n        /* \"#utility.yul\":6962:7104   */\n      pop\n        /* \"#utility.yul\":6545:7111   */\n      swap3\n      pop\n      swap3\n      swap1\n      pop\n      jump\t// out\n        /* \"#utility.yul\":7117:7207   */\n    tag_231:\n        /* \"#utility.yul\":7151:7158   */\n      0x00\n        /* \"#utility.yul\":7194:7199   */\n      dup2\n        /* \"#utility.yul\":7187:7200   */\n      iszero\n        /* \"#utility.yul\":7180:7201   */\n      iszero\n        /* \"#utility.yul\":7169:7201   */\n      swap1\n      pop\n        /* \"#utility.yul\":7117:7207   */\n      swap2\n      swap1\n      pop\n      jump\t// out\n        /* \"#utility.yul\":7213:7322   */\n    tag_232:\n        /* \"#utility.yul\":7294:7315   */\n      tag_316\n        /* \"#utility.yul\":7309:7314   */\n      dup2\n        /* \"#utility.yul\":7294:7315   */\n      tag_231\n      jump\t// in\n    tag_316:\n        /* \"#utility.yul\":7289:7292   */\n      dup3\n        /* \"#utility.yul\":7282:7316   */\n      mstore\n        /* \"#utility.yul\":7213:7322   */\n      pop\n      pop\n      jump\t// out\n        /* \"#utility.yul\":7328:7538   */\n    tag_9:\n        /* \"#utility.yul\":7415:7419   */\n      0x00\n        /* \"#utility.yul\":7453:7455   */\n      0x20\n        /* \"#utility.yul\":7442:7451   */\n      dup3\n        /* \"#utility.yul\":7438:7456   */\n      add\n        /* \"#utility.yul\":7430:7456   */\n      swap1\n      pop\n        /* \"#utility.yul\":7466:7531   */\n      tag_318\n        /* \"#utility.yul\":7528:7529   */\n      0x00\n        /* \"#utility.yul\":7517:7526   */\n      dup4\n        /* \"#utility.yul\":7513:7530   */\n      add\n        /* \"#utility.yul\":7504:7510   */\n      dup5\n        /* \"#utility.yul\":7466:7531   */\n      tag_232\n      jump\t// in\n    tag_318:\n        /* \"#utility.yul\":7328:7538   */\n      swap3\n      swap2\n      pop\n      pop\n      jump\t// out\n        /* \"#utility.yul\":7544:7724   */\n    tag_20:\n        /* \"#utility.yul\":7592:7669   */\n      0x4e487b7100000000000000000000000000000000000000000000000000000000\n        /* \"#utility.yul\":7589:7590   */\n      0x00\n        /* \"#utility.yul\":7582:7670   */\n      mstore\n        /* \"#utility.yul\":7689:7693   */\n      0x32\n        /* \"#utility.yul\":7686:7687   */\n      0x04\n        /* \"#utility.yul\":7679:7694   */\n      mstore\n        /* \"#utility.yul\":7713:7717   */\n      0x24\n        /* \"#utility.yul\":7710:7711   */\n      0x00\n        /* \"#utility.yul\":7703:7718   */\n      revert\n        /* \"#utility.yul\":7730:7910   */\n    tag_233:\n        /* \"#utility.yul\":7778:7855   */\n      0x4e487b7100000000000000000000000000000000000000000000000000000000\n        /* \"#utility.yul\":7775:7776   */\n      0x00\n        /* \"#utility.yul\":7768:7856   */\n      mstore\n        /* \"#utility.yul\":7875:7879   */\n      0x11\n        /* \"#utility.yul\":7872:7873   */\n      0x04\n        /* \"#utility.yul\":7865:7880   */\n      mstore\n        /* \"#utility.yul\":7899:7903   */\n      0x24\n        /* \"#utility.yul\":7896:7897   */\n      0x00\n        /* \"#utility.yul\":7889:7904   */\n      revert\n        /* \"#utility.yul\":7916:8149   */\n    tag_24:\n        /* \"#utility.yul\":7955:7958   */\n      0x00\n        /* \"#utility.yul\":7978:8002   */\n      tag_322\n        /* \"#utility.yul\":7996:8001   */\n      dup3\n        /* \"#utility.yul\":7978:8002   */\n      tag_217\n      jump\t// in\n    tag_322:\n        /* \"#utility.yul\":7969:8002   */\n      swap2\n      pop\n        /* \"#utility.yul\":8024:8090   */\n      0xffffffffffffffffffffffffffffffffffffffffffffffffffffffffffffffff\n        /* \"#utility.yul\":8017:8022   */\n      dup3\n        /* \"#utility.yul\":8014:8091   */\n      sub\n        /* \"#utility.yul\":8011:8114   */\n      tag_323\n      jumpi\n        /* \"#utility.yul\":8094:8112   */\n      tag_324\n      tag_233\n      jump\t// in\n    tag_324:\n        /* \"#utility.yul\":8011:8114   */\n    tag_323:\n        /* \"#utility.yul\":8141:8142   */\n      0x01\n        /* \"#utility.yul\":8134:8139   */\n      dup3\n        /* \"#utility.yul\":8130:8143   */\n      add\n        /* \"#utility.yul\":8123:8143   */\n      swap1\n      pop\n        /* \"#utility.yul\":7916:8149   */\n      swap2\n      swap1\n      pop\n      jump\t// out\n        /* \"#utility.yul\":8155:8346   */\n    tag_33:\n        /* \"#utility.yul\":8195:8198   */\n      0x00\n        /* \"#utility.yul\":8214:8234   */\n      tag_326\n        /* \"#utility.yul\":8232:8233   */\n      dup3\n        /* \"#utility.yul\":8214:8234   */\n      tag_217\n      jump\t// in\n    tag_326:\n        /* \"#utility.yul\":8209:8234   */\n      swap2\n      pop\n        /* \"#utility.yul\":8248:8268   */\n      tag_327\n        /* \"#utility.yul\":8266:8267   */\n      dup4\n        /* \"#utility.yul\":8248:8268   */\n      tag_217\n      jump\t// in\n    tag_327:\n        /* \"#utility.yul\":8243:8268   */\n      swap3\n      pop\n        /* \"#utility.yul\":8291:8292   */\n      dup3\n        /* \"#utility.yul\":8288:8289   */\n      dup3\n        /* \"#utility.yul\":8284:8293   */\n      add\n        /* \"#utility.yul\":8277:8293   */\n      swap1\n      pop\n        /* \"#utility.yul\":8312:8315   */\n      dup1\n        /* \"#utility.yul\":8309:8310   */\n      dup3\n        /* \"#utility.yul\":8306:8316   */\n      gt\n        /* \"#utility.yul\":8303:8339   */\n      iszero\n      tag_328\n      jumpi\n        /* \"#utility.yul\":8319:8337   */\n      tag_329\n      tag_233\n      jump\t// in\n    tag_329:\n        /* \"#utility.yul\":8303:8339   */\n    tag_328:\n        /* \"#utility.yul\":8155:8346   */\n      swap3\n      swap2\n      pop\n      pop\n      jump\t// out\n        /* \"#utility.yul\":8352:8532   */\n    tag_234:\n        /* \"#utility.yul\":8400:8477   */\n      0x4e487b7100000000000000000000000000000000000000000000000000000000\n        /* \"#utility.yul\":8397:8398   */\n      0x00\n        /* \"#utility.yul\":8390:8478   */\n      mstore\n        /* \"#utility.yul\":8497:8501   */\n      0x12\n        /* \"#utility.yul\":8494:8495   */\n      0x04\n        /* \"#utility.yul\":8487:8502   */\n      mstore\n        /* \"#utility.yul\":8521:8525   */\n      0x24\n        /* \"#utility.yul\":8518:8519   */\n      0x00\n        /* \"#utility.yul\":8511:8526   */\n      revert\n        /* \"#utility.yul\":8538:8714   */\n    tag_107:\n        /* \"#utility.yul\":8570:8571   */\n      0x00\n        /* \"#utility.yul\":8587:8607   */\n      tag_332\n        /* \"#utility.yul\":8605:8606   */\n      dup3\n        /* \"#utility.yul\":8587:8607   */\n      tag_217\n      jump\t// in\n    tag_332:\n        /* \"#utility.yul\":8582:8607   */\n      swap2\n      pop\n        /* \"#utility.yul\":8621:8641   */\n      tag_333\n        /* \"#utility.yul\":8639:8640   */\n      dup4\n        /* \"#utility.yul\":8621:8641   */\n      tag_217\n      jump\t// in\n    tag_333:\n        /* \"#utility.yul\":8616:8641   */\n      swap3\n      pop\n        /* \"#utility.yul\":8660:8661   */\n      dup3\n        /* \"#utility.yul\":8650:8685   */\n      tag_334\n      jumpi\n        /* \"#utility.yul\":8665:8683   */\n      tag_335\n      tag_234\n      jump\t// in\n    tag_335:\n        /* \"#utility.yul\":8650:8685   */\n    tag_334:\n        /* \"#utility.yul\":8706:8707   */\n      dup3\n        /* \"#utility.yul\":8703:8704   */\n      dup3\n        /* \"#utility.yul\":8699:8708   */\n      mod\n        /* \"#utility.yul\":8694:8708   */\n      swap1\n      pop\n        /* \"#utility.yul\":8538:8714   */\n      swap3\n      swap2\n      pop\n      pop\n      jump\t// out\n        /* \"#utility.yul\":8720:8914   */\n    tag_109:\n        /* \"#utility.yul\":8760:8764   */\n      0x00\n        /* \"#utility.yul\":8780:8800   */\n      tag_337\n        /* \"#utility.yul\":8798:8799   */\n      dup3\n        /* \"#utility.yul\":8780:8800   */\n      tag_217\n      jump\t// in\n    tag_337:\n        /* \"#utility.yul\":8775:8800   */\n      swap2\n      pop\n        /* \"#utility.yul\":8814:8834   */\n      tag_338\n        /* \"#utility.yul\":8832:8833   */\n      dup4\n        /* \"#utility.yul\":8814:8834   */\n      tag_217\n      jump\t// in\n    tag_338:\n        /* \"#utility.yul\":8809:8834   */\n      swap3\n      pop\n        /* \"#utility.yul\":8858:8859   */\n      dup3\n        /* \"#utility.yul\":8855:8856   */\n      dup3\n        /* \"#utility.yul\":8851:8860   */\n      sub\n        /* \"#utility.yul\":8843:8860   */\n      swap1\n      pop\n        /* \"#utility.yul\":8882:8883   */\n      dup2\n        /* \"#utility.yul\":8876:8880   */\n      dup2\n        /* \"#utility.yul\":8873:8884   */\n      gt\n        /* \"#utility.yul\":8870:8907   */\n      iszero\n      tag_339\n      jumpi\n        /* \"#utility.yul\":8887:8905   */\n      tag_340\n      tag_233\n      jump\t// in\n    tag_340:\n        /* \"#utility.yul\":8870:8907   */\n    tag_339:\n        /* \"#utility.yul\":8720:8914   */\n      swap3\n      swap2\n      pop\n      pop\n      jump\t// out\n        /* \"#utility.yul\":8920:9330   */\n    tag_143:\n        /* \"#utility.yul\":8960:8967   */\n      0x00\n        /* \"#utility.yul\":8983:9003   */\n      tag_342\n        /* \"#utility.yul\":9001:9002   */\n      dup3\n        /* \"#utility.yul\":8983:9003   */\n      tag_217\n      jump\t// in\n    tag_342:\n        /* \"#utility.yul\":8978:9003   */\n      swap2\n      pop\n        /* \"#utility.yul\":9017:9037   */\n      tag_343\n        /* \"#utility.yul\":9035:9036   */\n      dup4\n        /* \"#utility.yul\":9017:9037   */\n      tag_217\n      jump\t// in\n    tag_343:\n        /* \"#utility.yul\":9012:9037   */\n      swap3\n      pop\n        /* \"#utility.yul\":9072:9073   */\n      dup3\n        /* \"#utility.yul\":9069:9070   */\n      dup3\n        /* \"#utility.yul\":9065:9074   */\n      mul\n        /* \"#utility.yul\":9094:9124   */\n      tag_344\n        /* \"#utility.yul\":9112:9123   */\n      dup2\n        /* \"#utility.yul\":9094:9124   */\n      tag_217\n      jump\t// in\n    tag_344:\n        /* \"#utility.yul\":9083:9124   */\n      swap2\n      pop\n        /* \"#utility.yul\":9273:9274   */\n      dup3\n        /* \"#utility.yul\":9264:9271   */\n      dup3\n        /* \"#utility.yul\":9260:9275   */\n      div\n        /* \"#utility.yul\":9257:9258   */\n      dup5\n        /* \"#utility.yul\":9254:9276   */\n      eq\n        /* \"#utility.yul\":9234:9235   */\n      dup4\n        /* \"#utility.yul\":9227:9236   */\n      iszero\n        /* \"#utility.yul\":9207:9290   */\n      or\n        /* \"#utility.yul\":9184:9323   */\n      tag_345\n      jumpi\n        /* \"#utility.yul\":9303:9321   */\n      tag_346\n      tag_233\n      jump\t// in\n    tag_346:\n        /* \"#utility.yul\":9184:9323   */\n    tag_345:\n        /* \"#utility.yul\":8968:9330   */\n      pop\n        /* \"#utility.yul\":8920:9330   */\n      swap3\n      swap2\n      pop\n      pop\n      jump\t// out\n\n    auxdata: 0xa2646970667358221220639be1c323c100f05787d82abc5c2a9acf118c8b75591d9664618cc0b3d60ca064736f6c63430008130033\n}\n",
				"bytecode": {
					"linkReferences": {},
					"object": "608060405234801561001057600080fd5b506114ae806100206000396000f3fe608060405234801561001057600080fd5b506004361061002b5760003560e01c8063f48d772914610030575b600080fd5b61004a60048036038101906100459190611250565b610060565b60405161005791906112ad565b60405180910390f35b600080600167ffffffffffffffff81111561007e5761007d610f2e565b5b6040519080825280602002602001820160405280156100ac5781602001602082028036833780820191505090505b50905060005b6001811015610105578381600181106100ce576100cd6112c8565b5b60200201518282815181106100e6576100e56112c8565b5b60200260200101818152505080806100fd90611326565b9150506100b2565b506000610112828661012d565b03610121576001915050610127565b60009150505b92915050565b6000807f30644e72e131a029b85045b68181585d2833e84879b9709143e1f593f00000019050600061015d6102c4565b905080608001515160018651610173919061136e565b1461017d57600080fd5b60006040518060400160405280600081526020016000815250905060005b865181101561023657838782815181106101b8576101b76112c8565b5b6020026020010151106101ca57600080fd5b6102218261021c85608001516001856101e3919061136e565b815181106101f4576101f36112c8565b5b60200260200101518a858151811061020f5761020e6112c8565b5b60200260200101516106c8565b61076a565b9150808061022e90611326565b91505061019b565b50610260818360800151600081518110610253576102526112c8565b5b602002602001015161076a565b90506102a68560000151866020015161027884610832565b856040015161028a8a60400151610832565b876060015161029c8960000151610832565b89602001516108d7565b6102b657600193505050506102be565b600093505050505b92915050565b6102cc610dfa565b60405180604001604052807f1b979813ac43b640335cf6c75767acfc9a3a2dfb075c61974227b7050df1879a81526020017f2e6327fb0828b9dbbf70f07b9cee4492339ca41795b9fad4c7f920a387d68dbb8152508160000181905250604051806040016040528060405180604001604052807f1cd62c0d635adc58d0eaf57261102e85e72c58d3eb6e54c0d8a1b173790e9ed581526020017f11749acd92c2f9e95688499e287a1fb89419c47834529cf1e0a89ae897f242ef815250815260200160405180604001604052807f034d4df055c5b510c334f918f6df0cee794d782cc53a916fac54a67aa76500c281526020017f041b41daf1bfde2d1c0aad1e93021ebc149eb2076c8ccc799fd53261fbc938078152508152508160200181905250604051806040016040528060405180604001604052807f0ef51d5b1d19fae53c8b15ff1ffb511b7754c3482bb558e4d937edea41c3391281526020017f301fa6e368b7e68c773dd2df0c5918269e48f06c4fcaf06aff6f13e6ede36d83815250815260200160405180604001604052807f0cbd0906bbaa9e4ddedf7287a3dfde582a3bf36530dbd642878522bb2e1c7d6f81526020017f0c07a07e8b6076347bcc8924cdeef500e039a59c41e8ca0a6b3c40da23d7b14e8152508152508160400181905250604051806040016040528060405180604001604052807f0febc43eddcf02fbada2fc6d6ff3ff83e7323e836e7f610fca02819389ff9a6881526020017f1bd54db5e1e00f35150cf79ee0edf16f8d8ba18d66d7a7debbce84f8a113ea34815250815260200160405180604001604052807f23ac314953efe67e1bf1a8c1cc20a9558e478aa681059d6bc2d957c62bd304f981526020017f15e3dd68e9bcc5b24ca6f154eae58475aa4fd3db53f138b45ad581518e93cf3d8152508152508160600181905250600267ffffffffffffffff81111561059357610592610f2e565b5b6040519080825280602002602001820160405280156105cc57816020015b6105b9610e41565b8152602001906001900390816105b15790505b50816080018190525060405180604001604052807f2053b825f52cfc0d801d728ef574d82a16e288786c42d7d20e20c82a1f4a73a381526020017f0a6048a7773e9dc067b926181c2bbd2ecf8667d1fad2a2521059b314f523f14f8152508160800151600081518110610642576106416112c8565b5b602002602001018190525060405180604001604052807f0d112fa3afa3b0ad4b3786d9dece0d63f5b6242498292c54a70f0babd5836db881526020017f070296a040c447ad3cb6fed441bc748408242115bf3e454213fb4199597d3bb781525081608001516001815181106106ba576106b96112c8565b5b602002602001018190525090565b6106d0610e41565b6106d8610e5b565b8360000151816000600381106106f1576106f06112c8565b5b602002018181525050836020015181600160038110610713576107126112c8565b5b6020020181815250508281600260038110610731576107306112c8565b5b602002018181525050600060608360808460076107d05a03fa9050806000810361075757fe5b508061076257600080fd5b505092915050565b610772610e41565b61077a610e7d565b836000015181600060048110610793576107926112c8565b5b6020020181815250508360200151816001600481106107b5576107b46112c8565b5b6020020181815250508260000151816002600481106107d7576107d66112c8565b5b6020020181815250508260200151816003600481106107f9576107f86112c8565b5b602002018181525050600060608360c08460066107d05a03fa9050806000810361081f57fe5b508061082a57600080fd5b505092915050565b61083a610e41565b60007f30644e72e131a029b85045b68181585d97816a916871ca8d3c208c16d87cfd47905060008360000151148015610877575060008360200151145b1561089b5760405180604001604052806000815260200160008152509150506108d2565b6040518060400160405280846000015181526020018285602001516108c091906113d1565b836108cb9190611402565b8152509150505b919050565b600080600467ffffffffffffffff8111156108f5576108f4610f2e565b5b60405190808252806020026020018201604052801561092e57816020015b61091b610e41565b8152602001906001900390816109135790505b5090506000600467ffffffffffffffff81111561094e5761094d610f2e565b5b60405190808252806020026020018201604052801561098757816020015b610974610e9f565b81526020019060019003908161096c5790505b5090508a8260008151811061099f5761099e6112c8565b5b602002602001018190525088826001815181106109bf576109be6112c8565b5b602002602001018190525086826002815181106109df576109de6112c8565b5b602002602001018190525084826003815181106109ff576109fe6112c8565b5b60200260200101819052508981600081518110610a1f57610a1e6112c8565b5b60200260200101819052508781600181518110610a3f57610a3e6112c8565b5b60200260200101819052508581600281518110610a5f57610a5e6112c8565b5b60200260200101819052508381600381518110610a7f57610a7e6112c8565b5b6020026020010181905250610a948282610aa4565b9250505098975050505050505050565b60008151835114610ab457600080fd5b6000835190506000600682610ac99190611436565b905060008167ffffffffffffffff811115610ae757610ae6610f2e565b5b604051908082528060200260200182016040528015610b155781602001602082028036833780820191505090505b50905060005b83811015610d9a57868181518110610b3657610b356112c8565b5b602002602001015160000151826000600684610b529190611436565b610b5c919061136e565b81518110610b6d57610b6c6112c8565b5b602002602001018181525050868181518110610b8c57610b8b6112c8565b5b602002602001015160200151826001600684610ba89190611436565b610bb2919061136e565b81518110610bc357610bc26112c8565b5b602002602001018181525050858181518110610be257610be16112c8565b5b602002602001015160000151600160028110610c0157610c006112c8565b5b6020020151826002600684610c169190611436565b610c20919061136e565b81518110610c3157610c306112c8565b5b602002602001018181525050858181518110610c5057610c4f6112c8565b5b602002602001015160000151600060028110610c6f57610c6e6112c8565b5b6020020151826003600684610c849190611436565b610c8e919061136e565b81518110610c9f57610c9e6112c8565b5b602002602001018181525050858181518110610cbe57610cbd6112c8565b5b602002602001015160200151600160028110610cdd57610cdc6112c8565b5b6020020151826004600684610cf29190611436565b610cfc919061136e565b81518110610d0d57610d0c6112c8565b5b602002602001018181525050858181518110610d2c57610d2b6112c8565b5b602002602001015160200151600060028110610d4b57610d4a6112c8565b5b6020020151826005600684610d609190611436565b610d6a919061136e565b81518110610d7b57610d7a6112c8565b5b6020026020010181815250508080610d9290611326565b915050610b1b565b50610da3610ec5565b6000602082602086026020860160086107d05a03fa90508060008103610dc557fe5b5080610dd057600080fd5b600082600060018110610de657610de56112c8565b5b602002015114159550505050505092915050565b6040518060a00160405280610e0d610e41565b8152602001610e1a610e9f565b8152602001610e27610e9f565b8152602001610e34610e9f565b8152602001606081525090565b604051806040016040528060008152602001600081525090565b6040518060600160405280600390602082028036833780820191505090505090565b6040518060800160405280600490602082028036833780820191505090505090565b6040518060400160405280610eb2610ee7565b8152602001610ebf610ee7565b81525090565b6040518060200160405280600190602082028036833780820191505090505090565b6040518060400160405280600290602082028036833780820191505090505090565b6000604051905090565b600080fd5b600080fd5b6000601f19601f8301169050919050565b7f4e487b7100000000000000000000000000000000000000000000000000000000600052604160045260246000fd5b610f6682610f1d565b810181811067ffffffffffffffff82111715610f8557610f84610f2e565b5b80604052505050565b6000610f98610f09565b9050610fa48282610f5d565b919050565b6000819050919050565b610fbc81610fa9565b8114610fc757600080fd5b50565b600081359050610fd981610fb3565b92915050565b600060408284031215610ff557610ff4610f18565b5b610fff6040610f8e565b9050600061100f84828501610fca565b600083015250602061102384828501610fca565b60208301525092915050565b600080fd5b600067ffffffffffffffff82111561104f5761104e610f2e565b5b602082029050919050565b600080fd5b600061107261106d84611034565b610f8e565b9050806020840283018581111561108c5761108b61105a565b5b835b818110156110b557806110a18882610fca565b84526020840193505060208101905061108e565b5050509392505050565b600082601f8301126110d4576110d361102f565b5b60026110e184828561105f565b91505092915050565b600060808284031215611100576110ff610f18565b5b61110a6040610f8e565b9050600061111a848285016110bf565b600083015250604061112e848285016110bf565b60208301525092915050565b6000610100828403121561115157611150610f18565b5b61115b6060610f8e565b9050600061116b84828501610fdf565b600083015250604061117f848285016110ea565b60208301525060c061119384828501610fdf565b60408301525092915050565b600067ffffffffffffffff8211156111ba576111b9610f2e565b5b602082029050919050565b60006111d86111d38461119f565b610f8e565b905080602084028301858111156111f2576111f161105a565b5b835b8181101561121b57806112078882610fca565b8452602084019350506020810190506111f4565b5050509392505050565b600082601f83011261123a5761123961102f565b5b60016112478482856111c5565b91505092915050565b600080610120838503121561126857611267610f13565b5b60006112768582860161113a565b92505061010061128885828601611225565b9150509250929050565b60008115159050919050565b6112a781611292565b82525050565b60006020820190506112c2600083018461129e565b92915050565b7f4e487b7100000000000000000000000000000000000000000000000000000000600052603260045260246000fd5b7f4e487b7100000000000000000000000000000000000000000000000000000000600052601160045260246000fd5b600061133182610fa9565b91507fffffffffffffffffffffffffffffffffffffffffffffffffffffffffffffffff8203611363576113626112f7565b5b600182019050919050565b600061137982610fa9565b915061138483610fa9565b925082820190508082111561139c5761139b6112f7565b5b92915050565b7f4e487b7100000000000000000000000000000000000000000000000000000000600052601260045260246000fd5b60006113dc82610fa9565b91506113e783610fa9565b9250826113f7576113f66113a2565b5b828206905092915050565b600061140d82610fa9565b915061141883610fa9565b92508282039050818111156114305761142f6112f7565b5b92915050565b600061144182610fa9565b915061144c83610fa9565b925082820261145a81610fa9565b91508282048414831517611471576114706112f7565b5b509291505056fea2646970667358221220639be1c323c100f05787d82abc5c2a9acf118c8b75591d9664618cc0b3d60ca064736f6c63430008130033",
					"opcodes": "PUSH1 0x80 PUSH1 0x40 MSTORE CALLVALUE DUP1 ISZERO PUSH2 0x10 JUMPI PUSH1 0x0 DUP1 REVERT JUMPDEST POP PUSH2 0x14AE DUP1 PUSH2 0x20 PUSH1 0x0 CODECOPY PUSH1 0x0 RETURN INVALID PUSH1 0x80 PUSH1 0x40 MSTORE CALLVALUE DUP1 ISZERO PUSH2 0x10 JUMPI PUSH1 0x0 DUP1 REVERT JUMPDEST POP PUSH1 0x4 CALLDATASIZE LT PUSH2 0x2B JUMPI PUSH1 0x0 CALLDATALOAD PUSH1 0xE0 SHR DUP1 PUSH4 0xF48D7729 EQ PUSH2 0x30 JUMPI JUMPDEST PUSH1 0x0 DUP1 REVERT JUMPDEST PUSH2 0x4A PUSH1 0x4 DUP1 CALLDATASIZE SUB DUP2 ADD SWAP1 PUSH2 0x45 SWAP2 SWAP1 PUSH2 0x1250 JUMP JUMPDEST PUSH2 0x60 JUMP JUMPDEST PUSH1 0x40 MLOAD PUSH2 0x57 SWAP2 SWAP1 PUSH2 0x12AD JUMP JUMPDEST PUSH1 0x40 MLOAD DUP1 SWAP2 SUB SWAP1 RETURN JUMPDEST PUSH1 0x0 DUP1 PUSH1 0x1 PUSH8 0xFFFFFFFFFFFFFFFF DUP2 GT ISZERO PUSH2 0x7E JUMPI PUSH2 0x7D PUSH2 0xF2E JUMP JUMPDEST JUMPDEST PUSH1 0x40 MLOAD SWAP1 DUP1 DUP3 MSTORE DUP1 PUSH1 0x20 MUL PUSH1 0x20 ADD DUP3 ADD PUSH1 0x40 MSTORE DUP1 ISZERO PUSH2 0xAC JUMPI DUP2 PUSH1 0x20 ADD PUSH1 0x20 DUP3 MUL DUP1 CALLDATASIZE DUP4 CALLDATACOPY DUP1 DUP3 ADD SWAP2 POP POP SWAP1 POP JUMPDEST POP SWAP1 POP PUSH1 0x0 JUMPDEST PUSH1 0x1 DUP2 LT ISZERO PUSH2 0x105 JUMPI DUP4 DUP2 PUSH1 0x1 DUP2 LT PUSH2 0xCE JUMPI PUSH2 0xCD PUSH2 0x12C8 JUMP JUMPDEST JUMPDEST PUSH1 0x20 MUL ADD MLOAD DUP3 DUP3 DUP2 MLOAD DUP2 LT PUSH2 0xE6 JUMPI PUSH2 0xE5 PUSH2 0x12C8 JUMP JUMPDEST JUMPDEST PUSH1 0x20 MUL PUSH1 0x20 ADD ADD DUP2 DUP2 MSTORE POP POP DUP1 DUP1 PUSH2 0xFD SWAP1 PUSH2 0x1326 JUMP JUMPDEST SWAP2 POP POP PUSH2 0xB2 JUMP JUMPDEST POP PUSH1 0x0 PUSH2 0x112 DUP3 DUP7 PUSH2 0x12D JUMP JUMPDEST SUB PUSH2 0x121 JUMPI PUSH1 0x1 SWAP2 POP POP PUSH2 0x127 JUMP JUMPDEST PUSH1 0x0 SWAP2 POP POP JUMPDEST SWAP3 SWAP2 POP POP JUMP JUMPDEST PUSH1 0x0 DUP1 PUSH32 0x30644E72E131A029B85045B68181585D2833E84879B9709143E1F593F0000001 SWAP1 POP PUSH1 0x0 PUSH2 0x15D PUSH2 0x2C4 JUMP JUMPDEST SWAP1 POP DUP1 PUSH1 0x80 ADD MLOAD MLOAD PUSH1 0x1 DUP7 MLOAD PUSH2 0x173 SWAP2 SWAP1 PUSH2 0x136E JUMP JUMPDEST EQ PUSH2 0x17D JUMPI PUSH1 0x0 DUP1 REVERT JUMPDEST PUSH1 0x0 PUSH1 0x40 MLOAD DUP1 PUSH1 0x40 ADD PUSH1 0x40 MSTORE DUP1 PUSH1 0x0 DUP2 MSTORE PUSH1 0x20 ADD PUSH1 0x0 DUP2 MSTORE POP SWAP1 POP PUSH1 0x0 JUMPDEST DUP7 MLOAD DUP2 LT ISZERO PUSH2 0x236 JUMPI DUP4 DUP8 DUP3 DUP2 MLOAD DUP2 LT PUSH2 0x1B8 JUMPI PUSH2 0x1B7 PUSH2 0x12C8 JUMP JUMPDEST JUMPDEST PUSH1 0x20 MUL PUSH1 0x20 ADD ADD MLOAD LT PUSH2 0x1CA JUMPI PUSH1 0x0 DUP1 REVERT JUMPDEST PUSH2 0x221 DUP3 PUSH2 0x21C DUP6 PUSH1 0x80 ADD MLOAD PUSH1 0x1 DUP6 PUSH2 0x1E3 SWAP2 SWAP1 PUSH2 0x136E JUMP JUMPDEST DUP2 MLOAD DUP2 LT PUSH2 0x1F4 JUMPI PUSH2 0x1F3 PUSH2 0x12C8 JUMP JUMPDEST JUMPDEST PUSH1 0x20 MUL PUSH1 0x20 ADD ADD MLOAD DUP11 DUP6 DUP2 MLOAD DUP2 LT PUSH2 0x20F JUMPI PUSH2 0x20E PUSH2 0x12C8 JUMP JUMPDEST JUMPDEST PUSH1 0x20 MUL PUSH1 0x20 ADD ADD MLOAD PUSH2 0x6C8 JUMP JUMPDEST PUSH2 0x76A JUMP JUMPDEST SWAP2 POP DUP1 DUP1 PUSH2 0x22E SWAP1 PUSH2 0x1326 JUMP JUMPDEST SWAP2 POP POP PUSH2 0x19B JUMP JUMPDEST POP PUSH2 0x260 DUP2 DUP4 PUSH1 0x80 ADD MLOAD PUSH1 0x0 DUP2 MLOAD DUP2 LT PUSH2 0x253 JUMPI PUSH2 0x252 PUSH2 0x12C8 JUMP JUMPDEST JUMPDEST PUSH1 0x20 MUL PUSH1 0x20 ADD ADD MLOAD PUSH2 0x76A JUMP JUMPDEST SWAP1 POP PUSH2 0x2A6 DUP6 PUSH1 0x0 ADD MLOAD DUP7 PUSH1 0x20 ADD MLOAD PUSH2 0x278 DUP5 PUSH2 0x832 JUMP JUMPDEST DUP6 PUSH1 0x40 ADD MLOAD PUSH2 0x28A DUP11 PUSH1 0x40 ADD MLOAD PUSH2 0x832 JUMP JUMPDEST DUP8 PUSH1 0x60 ADD MLOAD PUSH2 0x29C DUP10 PUSH1 0x0 ADD MLOAD PUSH2 0x832 JUMP JUMPDEST DUP10 PUSH1 0x20 ADD MLOAD PUSH2 0x8D7 JUMP JUMPDEST PUSH2 0x2B6 JUMPI PUSH1 0x1 SWAP4 POP POP POP POP PUSH2 0x2BE JUMP JUMPDEST PUSH1 0x0 SWAP4 POP POP POP POP JUMPDEST SWAP3 SWAP2 POP POP JUMP JUMPDEST PUSH2 0x2CC PUSH2 0xDFA JUMP JUMPDEST PUSH1 0x40 MLOAD DUP1 PUSH1 0x40 ADD PUSH1 0x40 MSTORE DUP1 PUSH32 0x1B979813AC43B640335CF6C75767ACFC9A3A2DFB075C61974227B7050DF1879A DUP2 MSTORE PUSH1 0x20 ADD PUSH32 0x2E6327FB0828B9DBBF70F07B9CEE4492339CA41795B9FAD4C7F920A387D68DBB DUP2 MSTORE POP DUP2 PUSH1 0x0 ADD DUP2 SWAP1 MSTORE POP PUSH1 0x40 MLOAD DUP1 PUSH1 0x40 ADD PUSH1 0x40 MSTORE DUP1 PUSH1 0x40 MLOAD DUP1 PUSH1 0x40 ADD PUSH1 0x40 MSTORE DUP1 PUSH32 0x1CD62C0D635ADC58D0EAF57261102E85E72C58D3EB6E54C0D8A1B173790E9ED5 DUP2 MSTORE PUSH1 0x20 ADD PUSH32 0x11749ACD92C2F9E95688499E287A1FB89419C47834529CF1E0A89AE897F242EF DUP2 MSTORE POP DUP2 MSTORE PUSH1 0x20 ADD PUSH1 0x40 MLOAD DUP1 PUSH1 0x40 ADD PUSH1 0x40 MSTORE DUP1 PUSH32 0x34D4DF055C5B510C334F918F6DF0CEE794D782CC53A916FAC54A67AA76500C2 DUP2 MSTORE PUSH1 0x20 ADD PUSH32 0x41B41DAF1BFDE2D1C0AAD1E93021EBC149EB2076C8CCC799FD53261FBC93807 DUP2 MSTORE POP DUP2 MSTORE POP DUP2 PUSH1 0x20 ADD DUP2 SWAP1 MSTORE POP PUSH1 0x40 MLOAD DUP1 PUSH1 0x40 ADD PUSH1 0x40 MSTORE DUP1 PUSH1 0x40 MLOAD DUP1 PUSH1 0x40 ADD PUSH1 0x40 MSTORE DUP1 PUSH32 0xEF51D5B1D19FAE53C8B15FF1FFB511B7754C3482BB558E4D937EDEA41C33912 DUP2 MSTORE PUSH1 0x20 ADD PUSH32 0x301FA6E368B7E68C773DD2DF0C5918269E48F06C4FCAF06AFF6F13E6EDE36D83 DUP2 MSTORE POP DUP2 MSTORE PUSH1 0x20 ADD PUSH1 0x40 MLOAD DUP1 PUSH1 0x40 ADD PUSH1 0x40 MSTORE DUP1 PUSH32 0xCBD0906BBAA9E4DDEDF7287A3DFDE582A3BF36530DBD642878522BB2E1C7D6F DUP2 MSTORE PUSH1 0x20 ADD PUSH32 0xC07A07E8B6076347BCC8924CDEEF500E039A59C41E8CA0A6B3C40DA23D7B14E DUP2 MSTORE POP DUP2 MSTORE POP DUP2 PUSH1 0x40 ADD DUP2 SWAP1 MSTORE POP PUSH1 0x40 MLOAD DUP1 PUSH1 0x40 ADD PUSH1 0x40 MSTORE DUP1 PUSH1 0x40 MLOAD DUP1 PUSH1 0x40 ADD PUSH1 0x40 MSTORE DUP1 PUSH32 0xFEBC43EDDCF02FBADA2FC6D6FF3FF83E7323E836E7F610FCA02819389FF9A68 DUP2 MSTORE PUSH1 0x20 ADD PUSH32 0x1BD54DB5E1E00F35150CF79EE0EDF16F8D8BA18D66D7A7DEBBCE84F8A113EA34 DUP2 MSTORE POP DUP2 MSTORE PUSH1 0x20 ADD PUSH1 0x40 MLOAD DUP1 PUSH1 0x40 ADD PUSH1 0x40 MSTORE DUP1 PUSH32 0x23AC314953EFE67E1BF1A8C1CC20A9558E478AA681059D6BC2D957C62BD304F9 DUP2 MSTORE PUSH1 0x20 ADD PUSH32 0x15E3DD68E9BCC5B24CA6F154EAE58475AA4FD3DB53F138B45AD581518E93CF3D DUP2 MSTORE POP DUP2 MSTORE POP DUP2 PUSH1 0x60 ADD DUP2 SWAP1 MSTORE POP PUSH1 0x2 PUSH8 0xFFFFFFFFFFFFFFFF DUP2 GT ISZERO PUSH2 0x593 JUMPI PUSH2 0x592 PUSH2 0xF2E JUMP JUMPDEST JUMPDEST PUSH1 0x40 MLOAD SWAP1 DUP1 DUP3 MSTORE DUP1 PUSH1 0x20 MUL PUSH1 0x20 ADD DUP3 ADD PUSH1 0x40 MSTORE DUP1 ISZERO PUSH2 0x5CC JUMPI DUP2 PUSH1 0x20 ADD JUMPDEST PUSH2 0x5B9 PUSH2 0xE41 JUMP JUMPDEST DUP2 MSTORE PUSH1 0x20 ADD SWAP1 PUSH1 0x1 SWAP1 SUB SWAP1 DUP2 PUSH2 0x5B1 JUMPI SWAP1 POP JUMPDEST POP DUP2 PUSH1 0x80 ADD DUP2 SWAP1 MSTORE POP PUSH1 0x40 MLOAD DUP1 PUSH1 0x40 ADD PUSH1 0x40 MSTORE DUP1 PUSH32 0x2053B825F52CFC0D801D728EF574D82A16E288786C42D7D20E20C82A1F4A73A3 DUP2 MSTORE PUSH1 0x20 ADD PUSH32 0xA6048A7773E9DC067B926181C2BBD2ECF8667D1FAD2A2521059B314F523F14F DUP2 MSTORE POP DUP2 PUSH1 0x80 ADD MLOAD PUSH1 0x0 DUP2 MLOAD DUP2 LT PUSH2 0x642 JUMPI PUSH2 0x641 PUSH2 0x12C8 JUMP JUMPDEST JUMPDEST PUSH1 0x20 MUL PUSH1 0x20 ADD ADD DUP2 SWAP1 MSTORE POP PUSH1 0x40 MLOAD DUP1 PUSH1 0x40 ADD PUSH1 0x40 MSTORE DUP1 PUSH32 0xD112FA3AFA3B0AD4B3786D9DECE0D63F5B6242498292C54A70F0BABD5836DB8 DUP2 MSTORE PUSH1 0x20 ADD PUSH32 0x70296A040C447AD3CB6FED441BC748408242115BF3E454213FB4199597D3BB7 DUP2 MSTORE POP DUP2 PUSH1 0x80 ADD MLOAD PUSH1 0x1 DUP2 MLOAD DUP2 LT PUSH2 0x6BA JUMPI PUSH2 0x6B9 PUSH2 0x12C8 JUMP JUMPDEST JUMPDEST PUSH1 0x20 MUL PUSH1 0x20 ADD ADD DUP2 SWAP1 MSTORE POP SWAP1 JUMP JUMPDEST PUSH2 0x6D0 PUSH2 0xE41 JUMP JUMPDEST PUSH2 0x6D8 PUSH2 0xE5B JUMP JUMPDEST DUP4 PUSH1 0x0 ADD MLOAD DUP2 PUSH1 0x0 PUSH1 0x3 DUP2 LT PUSH2 0x6F1 JUMPI PUSH2 0x6F0 PUSH2 0x12C8 JUMP JUMPDEST JUMPDEST PUSH1 0x20 MUL ADD DUP2 DUP2 MSTORE POP POP DUP4 PUSH1 0x20 ADD MLOAD DUP2 PUSH1 0x1 PUSH1 0x3 DUP2 LT PUSH2 0x713 JUMPI PUSH2 0x712 PUSH2 0x12C8 JUMP JUMPDEST JUMPDEST PUSH1 0x20 MUL ADD DUP2 DUP2 MSTORE POP POP DUP3 DUP2 PUSH1 0x2 PUSH1 0x3 DUP2 LT PUSH2 0x731 JUMPI PUSH2 0x730 PUSH2 0x12C8 JUMP JUMPDEST JUMPDEST PUSH1 0x20 MUL ADD DUP2 DUP2 MSTORE POP POP PUSH1 0x0 PUSH1 0x60 DUP4 PUSH1 0x80 DUP5 PUSH1 0x7 PUSH2 0x7D0 GAS SUB STATICCALL SWAP1 POP DUP1 PUSH1 0x0 DUP2 SUB PUSH2 0x757 JUMPI INVALID JUMPDEST POP DUP1 PUSH2 0x762 JUMPI PUSH1 0x0 DUP1 REVERT JUMPDEST POP POP SWAP3 SWAP2 POP POP JUMP JUMPDEST PUSH2 0x772 PUSH2 0xE41 JUMP JUMPDEST PUSH2 0x77A PUSH2 0xE7D JUMP JUMPDEST DUP4 PUSH1 0x0 ADD MLOAD DUP2 PUSH1 0x0 PUSH1 0x4 DUP2 LT PUSH2 0x793 JUMPI PUSH2 0x792 PUSH2 0x12C8 JUMP JUMPDEST JUMPDEST PUSH1 0x20 MUL ADD DUP2 DUP2 MSTORE POP POP DUP4 PUSH1 0x20 ADD MLOAD DUP2 PUSH1 0x1 PUSH1 0x4 DUP2 LT PUSH2 0x7B5 JUMPI PUSH2 0x7B4 PUSH2 0x12C8 JUMP JUMPDEST JUMPDEST PUSH1 0x20 MUL ADD DUP2 DUP2 MSTORE POP POP DUP3 PUSH1 0x0 ADD MLOAD DUP2 PUSH1 0x2 PUSH1 0x4 DUP2 LT PUSH2 0x7D7 JUMPI PUSH2 0x7D6 PUSH2 0x12C8 JUMP JUMPDEST JUMPDEST PUSH1 0x20 MUL ADD DUP2 DUP2 MSTORE POP POP DUP3 PUSH1 0x20 ADD MLOAD DUP2 PUSH1 0x3 PUSH1 0x4 DUP2 LT PUSH2 0x7F9 JUMPI PUSH2 0x7F8 PUSH2 0x12C8 JUMP JUMPDEST JUMPDEST PUSH1 0x20 MUL ADD DUP2 DUP2 MSTORE POP POP PUSH1 0x0 PUSH1 0x60 DUP4 PUSH1 0xC0 DUP5 PUSH1 0x6 PUSH2 0x7D0 GAS SUB STATICCALL SWAP1 POP DUP1 PUSH1 0x0 DUP2 SUB PUSH2 0x81F JUMPI INVALID JUMPDEST POP DUP1 PUSH2 0x82A JUMPI PUSH1 0x0 DUP1 REVERT JUMPDEST POP POP SWAP3 SWAP2 POP POP JUMP JUMPDEST PUSH2 0x83A PUSH2 0xE41 JUMP JUMPDEST PUSH1 0x0 PUSH32 0x30644E72E131A029B85045B68181585D97816A916871CA8D3C208C16D87CFD47 SWAP1 POP PUSH1 0x0 DUP4 PUSH1 0x0 ADD MLOAD EQ DUP1 ISZERO PUSH2 0x877 JUMPI POP PUSH1 0x0 DUP4 PUSH1 0x20 ADD MLOAD EQ JUMPDEST ISZERO PUSH2 0x89B JUMPI PUSH1 0x40 MLOAD DUP1 PUSH1 0x40 ADD PUSH1 0x40 MSTORE DUP1 PUSH1 0x0 DUP2 MSTORE PUSH1 0x20 ADD PUSH1 0x0 DUP2 MSTORE POP SWAP2 POP POP PUSH2 0x8D2 JUMP JUMPDEST PUSH1 0x40 MLOAD DUP1 PUSH1 0x40 ADD PUSH1 0x40 MSTORE DUP1 DUP5 PUSH1 0x0 ADD MLOAD DUP2 MSTORE PUSH1 0x20 ADD DUP3 DUP6 PUSH1 0x20 ADD MLOAD PUSH2 0x8C0 SWAP2 SWAP1 PUSH2 0x13D1 JUMP JUMPDEST DUP4 PUSH2 0x8CB SWAP2 SWAP1 PUSH2 0x1402 JUMP JUMPDEST DUP2 MSTORE POP SWAP2 POP POP JUMPDEST SWAP2 SWAP1 POP JUMP JUMPDEST PUSH1 0x0 DUP1 PUSH1 0x4 PUSH8 0xFFFFFFFFFFFFFFFF DUP2 GT ISZERO PUSH2 0x8F5 JUMPI PUSH2 0x8F4 PUSH2 0xF2E JUMP JUMPDEST JUMPDEST PUSH1 0x40 MLOAD SWAP1 DUP1 DUP3 MSTORE DUP1 PUSH1 0x20 MUL PUSH1 0x20 ADD DUP3 ADD PUSH1 0x40 MSTORE DUP1 ISZERO PUSH2 0x92E JUMPI DUP2 PUSH1 0x20 ADD JUMPDEST PUSH2 0x91B PUSH2 0xE41 JUMP JUMPDEST DUP2 MSTORE PUSH1 0x20 ADD SWAP1 PUSH1 0x1 SWAP1 SUB SWAP1 DUP2 PUSH2 0x913 JUMPI SWAP1 POP JUMPDEST POP SWAP1 POP PUSH1 0x0 PUSH1 0x4 PUSH8 0xFFFFFFFFFFFFFFFF DUP2 GT ISZERO PUSH2 0x94E JUMPI PUSH2 0x94D PUSH2 0xF2E JUMP JUMPDEST JUMPDEST PUSH1 0x40 MLOAD SWAP1 DUP1 DUP3 MSTORE DUP1 PUSH1 0x20 MUL PUSH1 0x20 ADD DUP3 ADD PUSH1 0x40 MSTORE DUP1 ISZERO PUSH2 0x987 JUMPI DUP2 PUSH1 0x20 ADD JUMPDEST PUSH2 0x974 PUSH2 0xE9F JUMP JUMPDEST DUP2 MSTORE PUSH1 0x20 ADD SWAP1 PUSH1 0x1 SWAP1 SUB SWAP1 DUP2 PUSH2 0x96C JUMPI SWAP1 POP JUMPDEST POP SWAP1 POP DUP11 DUP3 PUSH1 0x0 DUP2 MLOAD DUP2 LT PUSH2 0x99F JUMPI PUSH2 0x99E PUSH2 0x12C8 JUMP JUMPDEST JUMPDEST PUSH1 0x20 MUL PUSH1 0x20 ADD ADD DUP2 SWAP1 MSTORE POP DUP9 DUP3 PUSH1 0x1 DUP2 MLOAD DUP2 LT PUSH2 0x9BF JUMPI PUSH2 0x9BE PUSH2 0x12C8 JUMP JUMPDEST JUMPDEST PUSH1 0x20 MUL PUSH1 0x20 ADD ADD DUP2 SWAP1 MSTORE POP DUP7 DUP3 PUSH1 0x2 DUP2 MLOAD DUP2 LT PUSH2 0x9DF JUMPI PUSH2 0x9DE PUSH2 0x12C8 JUMP JUMPDEST JUMPDEST PUSH1 0x20 MUL PUSH1 0x20 ADD ADD DUP2 SWAP1 MSTORE POP DUP5 DUP3 PUSH1 0x3 DUP2 MLOAD DUP2 LT PUSH2 0x9FF JUMPI PUSH2 0x9FE PUSH2 0x12C8 JUMP JUMPDEST JUMPDEST PUSH1 0x20 MUL PUSH1 0x20 ADD ADD DUP2 SWAP1 MSTORE POP DUP10 DUP2 PUSH1 0x0 DUP2 MLOAD DUP2 LT PUSH2 0xA1F JUMPI PUSH2 0xA1E PUSH2 0x12C8 JUMP JUMPDEST JUMPDEST PUSH1 0x20 MUL PUSH1 0x20 ADD ADD DUP2 SWAP1 MSTORE POP DUP8 DUP2 PUSH1 0x1 DUP2 MLOAD DUP2 LT PUSH2 0xA3F JUMPI PUSH2 0xA3E PUSH2 0x12C8 JUMP JUMPDEST JUMPDEST PUSH1 0x20 MUL PUSH1 0x20 ADD ADD DUP2 SWAP1 MSTORE POP DUP6 DUP2 PUSH1 0x2 DUP2 MLOAD DUP2 LT PUSH2 0xA5F JUMPI PUSH2 0xA5E PUSH2 0x12C8 JUMP JUMPDEST JUMPDEST PUSH1 0x20 MUL PUSH1 0x20 ADD ADD DUP2 SWAP1 MSTORE POP DUP4 DUP2 PUSH1 0x3 DUP2 MLOAD DUP2 LT PUSH2 0xA7F JUMPI PUSH2 0xA7E PUSH2 0x12C8 JUMP JUMPDEST JUMPDEST PUSH1 0x20 MUL PUSH1 0x20 ADD ADD DUP2 SWAP1 MSTORE POP PUSH2 0xA94 DUP3 DUP3 PUSH2 0xAA4 JUMP JUMPDEST SWAP3 POP POP POP SWAP9 SWAP8 POP POP POP POP POP POP POP POP JUMP JUMPDEST PUSH1 0x0 DUP2 MLOAD DUP4 MLOAD EQ PUSH2 0xAB4 JUMPI PUSH1 0x0 DUP1 REVERT JUMPDEST PUSH1 0x0 DUP4 MLOAD SWAP1 POP PUSH1 0x0 PUSH1 0x6 DUP3 PUSH2 0xAC9 SWAP2 SWAP1 PUSH2 0x1436 JUMP JUMPDEST SWAP1 POP PUSH1 0x0 DUP2 PUSH8 0xFFFFFFFFFFFFFFFF DUP2 GT ISZERO PUSH2 0xAE7 JUMPI PUSH2 0xAE6 PUSH2 0xF2E JUMP JUMPDEST JUMPDEST PUSH1 0x40 MLOAD SWAP1 DUP1 DUP3 MSTORE DUP1 PUSH1 0x20 MUL PUSH1 0x20 ADD DUP3 ADD PUSH1 0x40 MSTORE DUP1 ISZERO PUSH2 0xB15 JUMPI DUP2 PUSH1 0x20 ADD PUSH1 0x20 DUP3 MUL DUP1 CALLDATASIZE DUP4 CALLDATACOPY DUP1 DUP3 ADD SWAP2 POP POP SWAP1 POP JUMPDEST POP SWAP1 POP PUSH1 0x0 JUMPDEST DUP4 DUP2 LT ISZERO PUSH2 0xD9A JUMPI DUP7 DUP2 DUP2 MLOAD DUP2 LT PUSH2 0xB36 JUMPI PUSH2 0xB35 PUSH2 0x12C8 JUMP JUMPDEST JUMPDEST PUSH1 0x20 MUL PUSH1 0x20 ADD ADD MLOAD PUSH1 0x0 ADD MLOAD DUP3 PUSH1 0x0 PUSH1 0x6 DUP5 PUSH2 0xB52 SWAP2 SWAP1 PUSH2 0x1436 JUMP JUMPDEST PUSH2 0xB5C SWAP2 SWAP1 PUSH2 0x136E JUMP JUMPDEST DUP2 MLOAD DUP2 LT PUSH2 0xB6D JUMPI PUSH2 0xB6C PUSH2 0x12C8 JUMP JUMPDEST JUMPDEST PUSH1 0x20 MUL PUSH1 0x20 ADD ADD DUP2 DUP2 MSTORE POP POP DUP7 DUP2 DUP2 MLOAD DUP2 LT PUSH2 0xB8C JUMPI PUSH2 0xB8B PUSH2 0x12C8 JUMP JUMPDEST JUMPDEST PUSH1 0x20 MUL PUSH1 0x20 ADD ADD MLOAD PUSH1 0x20 ADD MLOAD DUP3 PUSH1 0x1 PUSH1 0x6 DUP5 PUSH2 0xBA8 SWAP2 SWAP1 PUSH2 0x1436 JUMP JUMPDEST PUSH2 0xBB2 SWAP2 SWAP1 PUSH2 0x136E JUMP JUMPDEST DUP2 MLOAD DUP2 LT PUSH2 0xBC3 JUMPI PUSH2 0xBC2 PUSH2 0x12C8 JUMP JUMPDEST JUMPDEST PUSH1 0x20 MUL PUSH1 0x20 ADD ADD DUP2 DUP2 MSTORE POP POP DUP6 DUP2 DUP2 MLOAD DUP2 LT PUSH2 0xBE2 JUMPI PUSH2 0xBE1 PUSH2 0x12C8 JUMP JUMPDEST JUMPDEST PUSH1 0x20 MUL PUSH1 0x20 ADD ADD MLOAD PUSH1 0x0 ADD MLOAD PUSH1 0x1 PUSH1 0x2 DUP2 LT PUSH2 0xC01 JUMPI PUSH2 0xC00 PUSH2 0x12C8 JUMP JUMPDEST JUMPDEST PUSH1 0x20 MUL ADD MLOAD DUP3 PUSH1 0x2 PUSH1 0x6 DUP5 PUSH2 0xC16 SWAP2 SWAP1 PUSH2 0x1436 JUMP JUMPDEST PUSH2 0xC20 SWAP2 SWAP1 PUSH2 0x136E JUMP JUMPDEST DUP2 MLOAD DUP2 LT PUSH2 0xC31 JUMPI PUSH2 0xC30 PUSH2 0x12C8 JUMP JUMPDEST JUMPDEST PUSH1 0x20 MUL PUSH1 0x20 ADD ADD DUP2 DUP2 MSTORE POP POP DUP6 DUP2 DUP2 MLOAD DUP2 LT PUSH2 0xC50 JUMPI PUSH2 0xC4F PUSH2 0x12C8 JUMP JUMPDEST JUMPDEST PUSH1 0x20 MUL PUSH1 0x20 ADD ADD MLOAD PUSH1 0x0 ADD MLOAD PUSH1 0x0 PUSH1 0x2 DUP2 LT PUSH2 0xC6F JUMPI PUSH2 0xC6E PUSH2 0x12C8 JUMP JUMPDEST JUMPDEST PUSH1 0x20 MUL ADD MLOAD DUP3 PUSH1 0x3 PUSH1 0x6 DUP5 PUSH2 0xC84 SWAP2 SWAP1 PUSH2 0x1436 JUMP JUMPDEST PUSH2 0xC8E SWAP2 SWAP1 PUSH2 0x136E JUMP JUMPDEST DUP2 MLOAD DUP2 LT PUSH2 0xC9F JUMPI PUSH2 0xC9E PUSH2 0x12C8 JUMP JUMPDEST JUMPDEST PUSH1 0x20 MUL PUSH1 0x20 ADD ADD DUP2 DUP2 MSTORE POP POP DUP6 DUP2 DUP2 MLOAD DUP2 LT PUSH2 0xCBE JUMPI PUSH2 0xCBD PUSH2 0x12C8 JUMP JUMPDEST JUMPDEST PUSH1 0x20 MUL PUSH1 0x20 ADD ADD MLOAD PUSH1 0x20 ADD MLOAD PUSH1 0x1 PUSH1 0x2 DUP2 LT PUSH2 0xCDD JUMPI PUSH2 0xCDC PUSH2 0x12C8 JUMP JUMPDEST JUMPDEST PUSH1 0x20 MUL ADD MLOAD DUP3 PUSH1 0x4 PUSH1 0x6 DUP5 PUSH2 0xCF2 SWAP2 SWAP1 PUSH2 0x1436 JUMP JUMPDEST PUSH2 0xCFC SWAP2 SWAP1 PUSH2 0x136E JUMP JUMPDEST DUP2 MLOAD DUP2 LT PUSH2 0xD0D JUMPI PUSH2 0xD0C PUSH2 0x12C8 JUMP JUMPDEST JUMPDEST PUSH1 0x20 MUL PUSH1 0x20 ADD ADD DUP2 DUP2 MSTORE POP POP DUP6 DUP2 DUP2 MLOAD DUP2 LT PUSH2 0xD2C JUMPI PUSH2 0xD2B PUSH2 0x12C8 JUMP JUMPDEST JUMPDEST PUSH1 0x20 MUL PUSH1 0x20 ADD ADD MLOAD PUSH1 0x20 ADD MLOAD PUSH1 0x0 PUSH1 0x2 DUP2 LT PUSH2 0xD4B JUMPI PUSH2 0xD4A PUSH2 0x12C8 JUMP JUMPDEST JUMPDEST PUSH1 0x20 MUL ADD MLOAD DUP3 PUSH1 0x5 PUSH1 0x6 DUP5 PUSH2 0xD60 SWAP2 SWAP1 PUSH2 0x1436 JUMP JUMPDEST PUSH2 0xD6A SWAP2 SWAP1 PUSH2 0x136E JUMP JUMPDEST DUP2 MLOAD DUP2 LT PUSH2 0xD7B JUMPI PUSH2 0xD7A PUSH2 0x12C8 JUMP JUMPDEST JUMPDEST PUSH1 0x20 MUL PUSH1 0x20 ADD ADD DUP2 DUP2 MSTORE POP POP DUP1 DUP1 PUSH2 0xD92 SWAP1 PUSH2 0x1326 JUMP JUMPDEST SWAP2 POP POP PUSH2 0xB1B JUMP JUMPDEST POP PUSH2 0xDA3 PUSH2 0xEC5 JUMP JUMPDEST PUSH1 0x0 PUSH1 0x20 DUP3 PUSH1 0x20 DUP7 MUL PUSH1 0x20 DUP7 ADD PUSH1 0x8 PUSH2 0x7D0 GAS SUB STATICCALL SWAP1 POP DUP1 PUSH1 0x0 DUP2 SUB PUSH2 0xDC5 JUMPI INVALID JUMPDEST POP DUP1 PUSH2 0xDD0 JUMPI PUSH1 0x0 DUP1 REVERT JUMPDEST PUSH1 0x0 DUP3 PUSH1 0x0 PUSH1 0x1 DUP2 LT PUSH2 0xDE6 JUMPI PUSH2 0xDE5 PUSH2 0x12C8 JUMP JUMPDEST JUMPDEST PUSH1 0x20 MUL ADD MLOAD EQ ISZERO SWAP6 POP POP POP POP POP POP SWAP3 SWAP2 POP POP JUMP JUMPDEST PUSH1 0x40 MLOAD DUP1 PUSH1 0xA0 ADD PUSH1 0x40 MSTORE DUP1 PUSH2 0xE0D PUSH2 0xE41 JUMP JUMPDEST DUP2 MSTORE PUSH1 0x20 ADD PUSH2 0xE1A PUSH2 0xE9F JUMP JUMPDEST DUP2 MSTORE PUSH1 0x20 ADD PUSH2 0xE27 PUSH2 0xE9F JUMP JUMPDEST DUP2 MSTORE PUSH1 0x20 ADD PUSH2 0xE34 PUSH2 0xE9F JUMP JUMPDEST DUP2 MSTORE PUSH1 0x20 ADD PUSH1 0x60 DUP2 MSTORE POP SWAP1 JUMP JUMPDEST PUSH1 0x40 MLOAD DUP1 PUSH1 0x40 ADD PUSH1 0x40 MSTORE DUP1 PUSH1 0x0 DUP2 MSTORE PUSH1 0x20 ADD PUSH1 0x0 DUP2 MSTORE POP SWAP1 JUMP JUMPDEST PUSH1 0x40 MLOAD DUP1 PUSH1 0x60 ADD PUSH1 0x40 MSTORE DUP1 PUSH1 0x3 SWAP1 PUSH1 0x20 DUP3 MUL DUP1 CALLDATASIZE DUP4 CALLDATACOPY DUP1 DUP3 ADD SWAP2 POP POP SWAP1 POP POP SWAP1 JUMP JUMPDEST PUSH1 0x40 MLOAD DUP1 PUSH1 0x80 ADD PUSH1 0x40 MSTORE DUP1 PUSH1 0x4 SWAP1 PUSH1 0x20 DUP3 MUL DUP1 CALLDATASIZE DUP4 CALLDATACOPY DUP1 DUP3 ADD SWAP2 POP POP SWAP1 POP POP SWAP1 JUMP JUMPDEST PUSH1 0x40 MLOAD DUP1 PUSH1 0x40 ADD PUSH1 0x40 MSTORE DUP1 PUSH2 0xEB2 PUSH2 0xEE7 JUMP JUMPDEST DUP2 MSTORE PUSH1 0x20 ADD PUSH2 0xEBF PUSH2 0xEE7 JUMP JUMPDEST DUP2 MSTORE POP SWAP1 JUMP JUMPDEST PUSH1 0x40 MLOAD DUP1 PUSH1 0x20 ADD PUSH1 0x40 MSTORE DUP1 PUSH1 0x1 SWAP1 PUSH1 0x20 DUP3 MUL DUP1 CALLDATASIZE DUP4 CALLDATACOPY DUP1 DUP3 ADD SWAP2 POP POP SWAP1 POP POP SWAP1 JUMP JUMPDEST PUSH1 0x40 MLOAD DUP1 PUSH1 0x40 ADD PUSH1 0x40 MSTORE DUP1 PUSH1 0x2 SWAP1 PUSH1 0x20 DUP3 MUL DUP1 CALLDATASIZE DUP4 CALLDATACOPY DUP1 DUP3 ADD SWAP2 POP POP SWAP1 POP POP SWAP1 JUMP JUMPDEST PUSH1 0x0 PUSH1 0x40 MLOAD SWAP1 POP SWAP1 JUMP JUMPDEST PUSH1 0x0 DUP1 REVERT JUMPDEST PUSH1 0x0 DUP1 REVERT JUMPDEST PUSH1 0x0 PUSH1 0x1F NOT PUSH1 0x1F DUP4 ADD AND SWAP1 POP SWAP2 SWAP1 POP JUMP JUMPDEST PUSH32 0x4E487B7100000000000000000000000000000000000000000000000000000000 PUSH1 0x0 MSTORE PUSH1 0x41 PUSH1 0x4 MSTORE PUSH1 0x24 PUSH1 0x0 REVERT JUMPDEST PUSH2 0xF66 DUP3 PUSH2 0xF1D JUMP JUMPDEST DUP2 ADD DUP2 DUP2 LT PUSH8 0xFFFFFFFFFFFFFFFF DUP3 GT OR ISZERO PUSH2 0xF85 JUMPI PUSH2 0xF84 PUSH2 0xF2E JUMP JUMPDEST JUMPDEST DUP1 PUSH1 0x40 MSTORE POP POP POP JUMP JUMPDEST PUSH1 0x0 PUSH2 0xF98 PUSH2 0xF09 JUMP JUMPDEST SWAP1 POP PUSH2 0xFA4 DUP3 DUP3 PUSH2 0xF5D JUMP JUMPDEST SWAP2 SWAP1 POP JUMP JUMPDEST PUSH1 0x0 DUP2 SWAP1 POP SWAP2 SWAP1 POP JUMP JUMPDEST PUSH2 0xFBC DUP2 PUSH2 0xFA9 JUMP JUMPDEST DUP2 EQ PUSH2 0xFC7 JUMPI PUSH1 0x0 DUP1 REVERT JUMPDEST POP JUMP JUMPDEST PUSH1 0x0 DUP2 CALLDATALOAD SWAP1 POP PUSH2 0xFD9 DUP2 PUSH2 0xFB3 JUMP JUMPDEST SWAP3 SWAP2 POP POP JUMP JUMPDEST PUSH1 0x0 PUSH1 0x40 DUP3 DUP5 SUB SLT ISZERO PUSH2 0xFF5 JUMPI PUSH2 0xFF4 PUSH2 0xF18 JUMP JUMPDEST JUMPDEST PUSH2 0xFFF PUSH1 0x40 PUSH2 0xF8E JUMP JUMPDEST SWAP1 POP PUSH1 0x0 PUSH2 0x100F DUP5 DUP3 DUP6 ADD PUSH2 0xFCA JUMP JUMPDEST PUSH1 0x0 DUP4 ADD MSTORE POP PUSH1 0x20 PUSH2 0x1023 DUP5 DUP3 DUP6 ADD PUSH2 0xFCA JUMP JUMPDEST PUSH1 0x20 DUP4 ADD MSTORE POP SWAP3 SWAP2 POP POP JUMP JUMPDEST PUSH1 0x0 DUP1 REVERT JUMPDEST PUSH1 0x0 PUSH8 0xFFFFFFFFFFFFFFFF DUP3 GT ISZERO PUSH2 0x104F JUMPI PUSH2 0x104E PUSH2 0xF2E JUMP JUMPDEST JUMPDEST PUSH1 0x20 DUP3 MUL SWAP1 POP SWAP2 SWAP1 POP JUMP JUMPDEST PUSH1 0x0 DUP1 REVERT JUMPDEST PUSH1 0x0 PUSH2 0x1072 PUSH2 0x106D DUP5 PUSH2 0x1034 JUMP JUMPDEST PUSH2 0xF8E JUMP JUMPDEST SWAP1 POP DUP1 PUSH1 0x20 DUP5 MUL DUP4 ADD DUP6 DUP2 GT ISZERO PUSH2 0x108C JUMPI PUSH2 0x108B PUSH2 0x105A JUMP JUMPDEST JUMPDEST DUP4 JUMPDEST DUP2 DUP2 LT ISZERO PUSH2 0x10B5 JUMPI DUP1 PUSH2 0x10A1 DUP9 DUP3 PUSH2 0xFCA JUMP JUMPDEST DUP5 MSTORE PUSH1 0x20 DUP5 ADD SWAP4 POP POP PUSH1 0x20 DUP2 ADD SWAP1 POP PUSH2 0x108E JUMP JUMPDEST POP POP POP SWAP4 SWAP3 POP POP POP JUMP JUMPDEST PUSH1 0x0 DUP3 PUSH1 0x1F DUP4 ADD SLT PUSH2 0x10D4 JUMPI PUSH2 0x10D3 PUSH2 0x102F JUMP JUMPDEST JUMPDEST PUSH1 0x2 PUSH2 0x10E1 DUP5 DUP3 DUP6 PUSH2 0x105F JUMP JUMPDEST SWAP2 POP POP SWAP3 SWAP2 POP POP JUMP JUMPDEST PUSH1 0x0 PUSH1 0x80 DUP3 DUP5 SUB SLT ISZERO PUSH2 0x1100 JUMPI PUSH2 0x10FF PUSH2 0xF18 JUMP JUMPDEST JUMPDEST PUSH2 0x110A PUSH1 0x40 PUSH2 0xF8E JUMP JUMPDEST SWAP1 POP PUSH1 0x0 PUSH2 0x111A DUP5 DUP3 DUP6 ADD PUSH2 0x10BF JUMP JUMPDEST PUSH1 0x0 DUP4 ADD MSTORE POP PUSH1 0x40 PUSH2 0x112E DUP5 DUP3 DUP6 ADD PUSH2 0x10BF JUMP JUMPDEST PUSH1 0x20 DUP4 ADD MSTORE POP SWAP3 SWAP2 POP POP JUMP JUMPDEST PUSH1 0x0 PUSH2 0x100 DUP3 DUP5 SUB SLT ISZERO PUSH2 0x1151 JUMPI PUSH2 0x1150 PUSH2 0xF18 JUMP JUMPDEST JUMPDEST PUSH2 0x115B PUSH1 0x60 PUSH2 0xF8E JUMP JUMPDEST SWAP1 POP PUSH1 0x0 PUSH2 0x116B DUP5 DUP3 DUP6 ADD PUSH2 0xFDF JUMP JUMPDEST PUSH1 0x0 DUP4 ADD MSTORE POP PUSH1 0x40 PUSH2 0x117F DUP5 DUP3 DUP6 ADD PUSH2 0x10EA JUMP JUMPDEST PUSH1 0x20 DUP4 ADD MSTORE POP PUSH1 0xC0 PUSH2 0x1193 DUP5 DUP3 DUP6 ADD PUSH2 0xFDF JUMP JUMPDEST PUSH1 0x40 DUP4 ADD MSTORE POP SWAP3 SWAP2 POP POP JUMP JUMPDEST PUSH1 0x0 PUSH8 0xFFFFFFFFFFFFFFFF DUP3 GT ISZERO PUSH2 0x11BA JUMPI PUSH2 0x11B9 PUSH2 0xF2E JUMP JUMPDEST JUMPDEST PUSH1 0x20 DUP3 MUL SWAP1 POP SWAP2 SWAP1 POP JUMP JUMPDEST PUSH1 0x0 PUSH2 0x11D8 PUSH2 0x11D3 DUP5 PUSH2 0x119F JUMP JUMPDEST PUSH2 0xF8E JUMP JUMPDEST SWAP1 POP DUP1 PUSH1 0x20 DUP5 MUL DUP4 ADD DUP6 DUP2 GT ISZERO PUSH2 0x11F2 JUMPI PUSH2 0x11F1 PUSH2 0x105A JUMP JUMPDEST JUMPDEST DUP4 JUMPDEST DUP2 DUP2 LT ISZERO PUSH2 0x121B JUMPI DUP1 PUSH2 0x1207 DUP9 DUP3 PUSH2 0xFCA JUMP JUMPDEST DUP5 MSTORE PUSH1 0x20 DUP5 ADD SWAP4 POP POP PUSH1 0x20 DUP2 ADD SWAP1 POP PUSH2 0x11F4 JUMP JUMPDEST POP POP POP SWAP4 SWAP3 POP POP POP JUMP JUMPDEST PUSH1 0x0 DUP3 PUSH1 0x1F DUP4 ADD SLT PUSH2 0x123A JUMPI PUSH2 0x1239 PUSH2 0x102F JUMP JUMPDEST JUMPDEST PUSH1 0x1 PUSH2 0x1247 DUP5 DUP3 DUP6 PUSH2 0x11C5 JUMP JUMPDEST SWAP2 POP POP SWAP3 SWAP2 POP POP JUMP JUMPDEST PUSH1 0x0 DUP1 PUSH2 0x120 DUP4 DUP6 SUB SLT ISZERO PUSH2 0x1268 JUMPI PUSH2 0x1267 PUSH2 0xF13 JUMP JUMPDEST JUMPDEST PUSH1 0x0 PUSH2 0x1276 DUP6 DUP3 DUP7 ADD PUSH2 0x113A JUMP JUMPDEST SWAP3 POP POP PUSH2 0x100 PUSH2 0x1288 DUP6 DUP3 DUP7 ADD PUSH2 0x1225 JUMP JUMPDEST SWAP2 POP POP SWAP3 POP SWAP3 SWAP1 POP JUMP JUMPDEST PUSH1 0x0 DUP2 ISZERO ISZERO SWAP1 POP SWAP2 SWAP1 POP JUMP JUMPDEST PUSH2 0x12A7 DUP2 PUSH2 0x1292 JUMP JUMPDEST DUP3 MSTORE POP POP JUMP JUMPDEST PUSH1 0x0 PUSH1 0x20 DUP3 ADD SWAP1 POP PUSH2 0x12C2 PUSH1 0x0 DUP4 ADD DUP5 PUSH2 0x129E JUMP JUMPDEST SWAP3 SWAP2 POP POP JUMP JUMPDEST PUSH32 0x4E487B7100000000000000000000000000000000000000000000000000000000 PUSH1 0x0 MSTORE PUSH1 0x32 PUSH1 0x4 MSTORE PUSH1 0x24 PUSH1 0x0 REVERT JUMPDEST PUSH32 0x4E487B7100000000000000000000000000000000000000000000000000000000 PUSH1 0x0 MSTORE PUSH1 0x11 PUSH1 0x4 MSTORE PUSH1 0x24 PUSH1 0x0 REVERT JUMPDEST PUSH1 0x0 PUSH2 0x1331 DUP3 PUSH2 0xFA9 JUMP JUMPDEST SWAP2 POP PUSH32 0xFFFFFFFFFFFFFFFFFFFFFFFFFFFFFFFFFFFFFFFFFFFFFFFFFFFFFFFFFFFFFFFF DUP3 SUB PUSH2 0x1363 JUMPI PUSH2 0x1362 PUSH2 0x12F7 JUMP JUMPDEST JUMPDEST PUSH1 0x1 DUP3 ADD SWAP1 POP SWAP2 SWAP1 POP JUMP JUMPDEST PUSH1 0x0 PUSH2 0x1379 DUP3 PUSH2 0xFA9 JUMP JUMPDEST SWAP2 POP PUSH2 0x1384 DUP4 PUSH2 0xFA9 JUMP JUMPDEST SWAP3 POP DUP3 DUP3 ADD SWAP1 POP DUP1 DUP3 GT ISZERO PUSH2 0x139C JUMPI PUSH2 0x139B PUSH2 0x12F7 JUMP JUMPDEST JUMPDEST SWAP3 SWAP2 POP POP JUMP JUMPDEST PUSH32 0x4E487B7100000000000000000000000000000000000000000000000000000000 PUSH1 0x0 MSTORE PUSH1 0x12 PUSH1 0x4 MSTORE PUSH1 0x24 PUSH1 0x0 REVERT JUMPDEST PUSH1 0x0 PUSH2 0x13DC DUP3 PUSH2 0xFA9 JUMP JUMPDEST SWAP2 POP PUSH2 0x13E7 DUP4 PUSH2 0xFA9 JUMP JUMPDEST SWAP3 POP DUP3 PUSH2 0x13F7 JUMPI PUSH2 0x13F6 PUSH2 0x13A2 JUMP JUMPDEST JUMPDEST DUP3 DUP3 MOD SWAP1 POP SWAP3 SWAP2 POP POP JUMP JUMPDEST PUSH1 0x0 PUSH2 0x140D DUP3 PUSH2 0xFA9 JUMP JUMPDEST SWAP2 POP PUSH2 0x1418 DUP4 PUSH2 0xFA9 JUMP JUMPDEST SWAP3 POP DUP3 DUP3 SUB SWAP1 POP DUP2 DUP2 GT ISZERO PUSH2 0x1430 JUMPI PUSH2 0x142F PUSH2 0x12F7 JUMP JUMPDEST JUMPDEST SWAP3 SWAP2 POP POP JUMP JUMPDEST PUSH1 0x0 PUSH2 0x1441 DUP3 PUSH2 0xFA9 JUMP JUMPDEST SWAP2 POP PUSH2 0x144C DUP4 PUSH2 0xFA9 JUMP JUMPDEST SWAP3 POP DUP3 DUP3 MUL PUSH2 0x145A DUP2 PUSH2 0xFA9 JUMP JUMPDEST SWAP2 POP DUP3 DUP3 DIV DUP5 EQ DUP4 ISZERO OR PUSH2 0x1471 JUMPI PUSH2 0x1470 PUSH2 0x12F7 JUMP JUMPDEST JUMPDEST POP SWAP3 SWAP2 POP POP JUMP INVALID LOG2 PUSH5 0x6970667358 0x22 SLT KECCAK256 PUSH4 0x9BE1C323 0xC1 STOP CREATE JUMPI DUP8 0xD8 0x2A 0xBC 0x5C 0x2A SWAP11 0xCF GT DUP13 DUP12 PUSH22 0x591D9664618CC0B3D60CA064736F6C63430008130033 "
				},
				"gasEstimates": {
					"creation": {
						"codeDepositCost": "1058800",
						"executionCost": "1100",
						"totalCost": "1059900"
					},
					"external": {
						"verifyTx(((uint256,uint256),(uint256[2],uint256[2]),(uint256,uint256)),uint256[1])": "infinite"
					},
					"internal": {
						"verify(uint256[] memory,struct Verifier.Proof memory)": "infinite",
						"verifyingKey()": "infinite"
					}
				},
				"methodIdentifiers": {
					"verifyTx(((uint256,uint256),(uint256[2],uint256[2]),(uint256,uint256)),uint256[1])": "f48d7729"
				}
			},
			"storageLayout": {
				"storage": [],
				"types": null
			},
			"userdoc": {
				"kind": "user",
				"methods": {},
				"version": 1
			}
		}
	}
}