{
	"contracts/ProofSenderSepolia.sol": {
		"Messenger": {
			"abi": [
				{
					"inputs": [
						{
							"internalType": "address",
							"name": "_router",
							"type": "address"
						},
						{
							"internalType": "address",
							"name": "_link",
							"type": "address"
						}
					],
					"stateMutability": "nonpayable",
					"type": "constructor"
				},
				{
					"inputs": [
						{
							"internalType": "address",
							"name": "router",
							"type": "address"
						}
					],
					"name": "InvalidRouter",
					"type": "error"
				},
				{
					"inputs": [
						{
							"internalType": "address",
							"name": "sender",
							"type": "address"
						}
					],
					"name": "SenderNotWhitelisted",
					"type": "error"
				},
				{
					"anonymous": false,
					"inputs": [
						{
							"indexed": true,
							"internalType": "address",
							"name": "from",
							"type": "address"
						},
						{
							"indexed": true,
							"internalType": "address",
							"name": "to",
							"type": "address"
						}
					],
					"name": "OwnershipTransferRequested",
					"type": "event"
				},
				{
					"anonymous": false,
					"inputs": [
						{
							"indexed": true,
							"internalType": "address",
							"name": "from",
							"type": "address"
						},
						{
							"indexed": true,
							"internalType": "address",
							"name": "to",
							"type": "address"
						}
					],
					"name": "OwnershipTransferred",
					"type": "event"
				},
				{
					"inputs": [],
					"name": "acceptOwnership",
					"outputs": [],
					"stateMutability": "nonpayable",
					"type": "function"
				},
				{
					"inputs": [
						{
							"components": [
								{
									"internalType": "bytes32",
									"name": "messageId",
									"type": "bytes32"
								},
								{
									"internalType": "uint64",
									"name": "sourceChainSelector",
									"type": "uint64"
								},
								{
									"internalType": "bytes",
									"name": "sender",
									"type": "bytes"
								},
								{
									"internalType": "bytes",
									"name": "data",
									"type": "bytes"
								},
								{
									"components": [
										{
											"internalType": "address",
											"name": "token",
											"type": "address"
										},
										{
											"internalType": "uint256",
											"name": "amount",
											"type": "uint256"
										}
									],
									"internalType": "struct Client.EVMTokenAmount[]",
									"name": "destTokenAmounts",
									"type": "tuple[]"
								}
							],
							"internalType": "struct Client.Any2EVMMessage",
							"name": "message",
							"type": "tuple"
						}
					],
					"name": "ccipReceive",
					"outputs": [],
					"stateMutability": "nonpayable",
					"type": "function"
				},
				{
					"inputs": [
						{
							"internalType": "address",
							"name": "_sender",
							"type": "address"
						}
					],
					"name": "denySender",
					"outputs": [],
					"stateMutability": "nonpayable",
					"type": "function"
				},
				{
					"inputs": [
						{
							"internalType": "uint64",
							"name": "_destinationChainSelector",
							"type": "uint64"
						}
					],
					"name": "denylistDestinationChain",
					"outputs": [],
					"stateMutability": "nonpayable",
					"type": "function"
				},
				{
					"inputs": [
						{
							"internalType": "uint64",
							"name": "_sourceChainSelector",
							"type": "uint64"
						}
					],
					"name": "denylistSourceChain",
					"outputs": [],
					"stateMutability": "nonpayable",
					"type": "function"
				},
				{
					"inputs": [],
					"name": "getLastReceivedMessageDetails",
					"outputs": [
						{
							"internalType": "bytes32",
							"name": "messageId",
							"type": "bytes32"
						},
						{
							"internalType": "bool",
							"name": "result",
							"type": "bool"
						}
					],
					"stateMutability": "view",
					"type": "function"
				},
				{
					"inputs": [],
					"name": "getRouter",
					"outputs": [
						{
							"internalType": "address",
							"name": "",
							"type": "address"
						}
					],
					"stateMutability": "view",
					"type": "function"
				},
				{
					"inputs": [],
					"name": "lastReceivedResult",
					"outputs": [
						{
							"internalType": "bool",
							"name": "",
							"type": "bool"
						}
					],
					"stateMutability": "view",
					"type": "function"
				},
				{
					"inputs": [],
					"name": "owner",
					"outputs": [
						{
							"internalType": "address",
							"name": "",
							"type": "address"
						}
					],
					"stateMutability": "view",
					"type": "function"
				},
				{
					"inputs": [
						{
							"internalType": "uint64",
							"name": "_destinationChainSelector",
							"type": "uint64"
						},
						{
							"internalType": "address",
							"name": "_receiver",
							"type": "address"
						},
						{
							"components": [
								{
									"components": [
										{
											"components": [
												{
													"internalType": "uint256",
													"name": "X",
													"type": "uint256"
												},
												{
													"internalType": "uint256",
													"name": "Y",
													"type": "uint256"
												}
											],
											"internalType": "struct Pairing.G1Point",
											"name": "a",
											"type": "tuple"
										},
										{
											"components": [
												{
													"internalType": "uint256[2]",
													"name": "X",
													"type": "uint256[2]"
												},
												{
													"internalType": "uint256[2]",
													"name": "Y",
													"type": "uint256[2]"
												}
											],
											"internalType": "struct Pairing.G2Point",
											"name": "b",
											"type": "tuple"
										},
										{
											"components": [
												{
													"internalType": "uint256",
													"name": "X",
													"type": "uint256"
												},
												{
													"internalType": "uint256",
													"name": "Y",
													"type": "uint256"
												}
											],
											"internalType": "struct Pairing.G1Point",
											"name": "c",
											"type": "tuple"
										}
									],
									"internalType": "struct Messenger.Proof",
									"name": "proof",
									"type": "tuple"
								},
								{
									"internalType": "uint256[1]",
									"name": "input",
									"type": "uint256[1]"
								}
							],
							"internalType": "struct Messenger.ZKMessage",
							"name": "_data",
							"type": "tuple"
						}
					],
					"name": "sendMessagePayLINK",
					"outputs": [
						{
							"internalType": "bytes32",
							"name": "messageId",
							"type": "bytes32"
						}
					],
					"stateMutability": "nonpayable",
					"type": "function"
				},
				{
					"inputs": [
						{
							"internalType": "uint64",
							"name": "_destinationChainSelector",
							"type": "uint64"
						},
						{
							"internalType": "address",
							"name": "_receiver",
							"type": "address"
						},
						{
							"components": [
								{
									"components": [
										{
											"components": [
												{
													"internalType": "uint256",
													"name": "X",
													"type": "uint256"
												},
												{
													"internalType": "uint256",
													"name": "Y",
													"type": "uint256"
												}
											],
											"internalType": "struct Pairing.G1Point",
											"name": "a",
											"type": "tuple"
										},
										{
											"components": [
												{
													"internalType": "uint256[2]",
													"name": "X",
													"type": "uint256[2]"
												},
												{
													"internalType": "uint256[2]",
													"name": "Y",
													"type": "uint256[2]"
												}
											],
											"internalType": "struct Pairing.G2Point",
											"name": "b",
											"type": "tuple"
										},
										{
											"components": [
												{
													"internalType": "uint256",
													"name": "X",
													"type": "uint256"
												},
												{
													"internalType": "uint256",
													"name": "Y",
													"type": "uint256"
												}
											],
											"internalType": "struct Pairing.G1Point",
											"name": "c",
											"type": "tuple"
										}
									],
									"internalType": "struct Messenger.Proof",
									"name": "proof",
									"type": "tuple"
								},
								{
									"internalType": "uint256[1]",
									"name": "input",
									"type": "uint256[1]"
								}
							],
							"internalType": "struct Messenger.ZKMessage",
							"name": "_data",
							"type": "tuple"
						}
					],
					"name": "sendMessagePayNative",
					"outputs": [
						{
							"internalType": "bytes32",
							"name": "messageId",
							"type": "bytes32"
						}
					],
					"stateMutability": "nonpayable",
					"type": "function"
				},
				{
					"inputs": [
						{
							"internalType": "bytes4",
							"name": "interfaceId",
							"type": "bytes4"
						}
					],
					"name": "supportsInterface",
					"outputs": [
						{
							"internalType": "bool",
							"name": "",
							"type": "bool"
						}
					],
					"stateMutability": "pure",
					"type": "function"
				},
				{
					"inputs": [
						{
							"internalType": "address",
							"name": "to",
							"type": "address"
						}
					],
					"name": "transferOwnership",
					"outputs": [],
					"stateMutability": "nonpayable",
					"type": "function"
				},
				{
					"inputs": [
						{
							"internalType": "uint64",
							"name": "_destinationChainSelector",
							"type": "uint64"
						}
					],
					"name": "whitelistDestinationChain",
					"outputs": [],
					"stateMutability": "nonpayable",
					"type": "function"
				},
				{
					"inputs": [
						{
							"internalType": "address",
							"name": "_sender",
							"type": "address"
						}
					],
					"name": "whitelistSender",
					"outputs": [],
					"stateMutability": "nonpayable",
					"type": "function"
				},
				{
					"inputs": [
						{
							"internalType": "uint64",
							"name": "_sourceChainSelector",
							"type": "uint64"
						}
					],
					"name": "whitelistSourceChain",
					"outputs": [],
					"stateMutability": "nonpayable",
					"type": "function"
				},
				{
					"inputs": [
						{
							"internalType": "uint64",
							"name": "",
							"type": "uint64"
						}
					],
					"name": "whitelistedDestinationChains",
					"outputs": [
						{
							"internalType": "bool",
							"name": "",
							"type": "bool"
						}
					],
					"stateMutability": "view",
					"type": "function"
				},
				{
					"inputs": [
						{
							"internalType": "address",
							"name": "",
							"type": "address"
						}
					],
					"name": "whitelistedSenders",
					"outputs": [
						{
							"internalType": "bool",
							"name": "",
							"type": "bool"
						}
					],
					"stateMutability": "view",
					"type": "function"
				},
				{
					"inputs": [
						{
							"internalType": "uint64",
							"name": "",
							"type": "uint64"
						}
					],
					"name": "whitelistedSourceChains",
					"outputs": [
						{
							"internalType": "bool",
							"name": "",
							"type": "bool"
						}
					],
					"stateMutability": "view",
					"type": "function"
				},
				{
					"inputs": [
						{
							"internalType": "address",
							"name": "_beneficiary",
							"type": "address"
						}
					],
					"name": "withdraw",
					"outputs": [],
					"stateMutability": "nonpayable",
					"type": "function"
				},
				{
					"inputs": [
						{
							"internalType": "address",
							"name": "_beneficiary",
							"type": "address"
						},
						{
							"internalType": "address",
							"name": "_token",
							"type": "address"
						}
					],
					"name": "withdrawToken",
					"outputs": [],
					"stateMutability": "nonpayable",
					"type": "function"
				},
				{
					"stateMutability": "payable",
					"type": "receive"
				}
			],
			"devdoc": {
				"kind": "dev",
				"methods": {
					"ccipReceive((bytes32,uint64,bytes,bytes,(address,uint256)[]))": {
						"details": "Note ensure you check the msg.sender is the OffRampRouter",
						"params": {
							"message": "CCIP Message"
						}
					},
					"constructor": {
						"params": {
							"_link": "The address of the link contract.",
							"_router": "The address of the router contract."
						}
					},
					"denySender(address)": {
						"details": "Denylists a sender.",
						"params": {
							"_sender": "The address of the sender."
						}
					},
					"denylistDestinationChain(uint64)": {
						"details": "Denylists a chain for transactions.",
						"params": {
							"_destinationChainSelector": "The selector of the destination chain to be denylisted."
						}
					},
					"denylistSourceChain(uint64)": {
						"details": "Denylists a chain for transactions.",
						"params": {
							"_sourceChainSelector": "The selector of the source chain to be denylisted."
						}
					},
					"getRouter()": {
						"returns": {
							"_0": "i_router address"
						}
					},
					"supportsInterface(bytes4)": {
						"params": {
							"interfaceId": "The interfaceId to check"
						},
						"returns": {
							"_0": "true if the interfaceId is supported"
						}
					},
					"whitelistDestinationChain(uint64)": {
						"details": "Whitelists a chain for transactions.",
						"params": {
							"_destinationChainSelector": "The selector of the destination chain to be whitelisted."
						}
					},
					"whitelistSender(address)": {
						"details": "Whitelists a sender.",
						"params": {
							"_sender": "The address of the sender."
						}
					},
					"whitelistSourceChain(uint64)": {
						"details": "Whitelists a chain for transactions.",
						"params": {
							"_sourceChainSelector": "The selector of the source chain to be whitelisted."
						}
					},
					"withdraw(address)": {
						"details": "This function reverts if there are no funds to withdraw or if the transfer fails. It should only be callable by the owner of the contract.",
						"params": {
							"_beneficiary": "The address to which the Ether should be sent."
						}
					},
					"withdrawToken(address,address)": {
						"details": "This function reverts with a 'NothingToWithdraw' error if there are no tokens to withdraw.",
						"params": {
							"_beneficiary": "The address to which the tokens will be sent.",
							"_token": "The contract address of the ERC20 token to be withdrawn."
						}
					}
				},
				"version": 1
			},
			"evm": {
				"assembly": "    /* \"contracts/ProofSenderSepolia.sol\":668:9838  contract Messenger is CCIPReceiver, OwnerIsCreator {... */\n  mstore(0x40, 0xa0)\n    /* \"contracts/ProofSenderSepolia.sol\":1766:1886  constructor(address _router, address _link) CCIPReceiver(_router) {... */\n  callvalue\n  dup1\n  iszero\n  tag_1\n  jumpi\n  0x00\n  dup1\n  revert\ntag_1:\n  pop\n  mload(0x40)\n  sub(codesize, bytecodeSize)\n  dup1\n  bytecodeSize\n  dup4\n  codecopy\n  dup2\n  dup2\n  add\n  0x40\n  mstore\n  dup2\n  add\n  swap1\n  tag_2\n  swap2\n  swap1\n  tag_3\n  jump\t// in\ntag_2:\n    /* \"@chainlink/contracts-ccip/src/v0.8/shared/access/OwnerIsCreator.sol\":295:305  msg.sender */\n  caller\n    /* \"@chainlink/contracts-ccip/src/v0.8/ConfirmedOwner.sol\":327:335  newOwner */\n  dup1\n    /* \"@chainlink/contracts-ccip/src/v0.8/ConfirmedOwner.sol\":345:346  0 */\n  0x00\n    /* \"contracts/ProofSenderSepolia.sol\":1823:1830  _router */\n  dup5\n    /* \"@chainlink/contracts-ccip/src/v0.8/ccip/applications/CCIPReceiver.sol\":546:547  0 */\n  0x00\n    /* \"@chainlink/contracts-ccip/src/v0.8/ccip/applications/CCIPReceiver.sol\":528:548  router == address(0) */\n  0xffffffffffffffffffffffffffffffffffffffff\n  and\n    /* \"@chainlink/contracts-ccip/src/v0.8/ccip/applications/CCIPReceiver.sol\":528:534  router */\n  dup2\n    /* \"@chainlink/contracts-ccip/src/v0.8/ccip/applications/CCIPReceiver.sol\":528:548  router == address(0) */\n  0xffffffffffffffffffffffffffffffffffffffff\n  and\n  sub\n    /* \"@chainlink/contracts-ccip/src/v0.8/ccip/applications/CCIPReceiver.sol\":524:582  if (router == address(0)) revert InvalidRouter(address(0)) */\n  tag_10\n  jumpi\n    /* \"@chainlink/contracts-ccip/src/v0.8/ccip/applications/CCIPReceiver.sol\":579:580  0 */\n  0x00\n    /* \"@chainlink/contracts-ccip/src/v0.8/ccip/applications/CCIPReceiver.sol\":557:582  InvalidRouter(address(0)) */\n  mload(0x40)\n  0xd7f7333400000000000000000000000000000000000000000000000000000000\n  dup2\n  mstore\n  0x04\n  add\n  tag_11\n  swap2\n  swap1\n  tag_12\n  jump\t// in\ntag_11:\n  mload(0x40)\n  dup1\n  swap2\n  sub\n  swap1\n  revert\n    /* \"@chainlink/contracts-ccip/src/v0.8/ccip/applications/CCIPReceiver.sol\":524:582  if (router == address(0)) revert InvalidRouter(address(0)) */\ntag_10:\n    /* \"@chainlink/contracts-ccip/src/v0.8/ccip/applications/CCIPReceiver.sol\":599:605  router */\n  dup1\n    /* \"@chainlink/contracts-ccip/src/v0.8/ccip/applications/CCIPReceiver.sol\":588:605  i_router = router */\n  0xffffffffffffffffffffffffffffffffffffffff\n  and\n  0x80\n  dup2\n  0xffffffffffffffffffffffffffffffffffffffff\n  and\n  dup2\n  mstore\n  pop\n  pop\n    /* \"@chainlink/contracts-ccip/src/v0.8/ccip/applications/CCIPReceiver.sol\":490:610  constructor(address router) {... */\n  pop\n    /* \"@chainlink/contracts-ccip/src/v0.8/ConfirmedOwnerWithProposal.sol\":572:573  0 */\n  0x00\n    /* \"@chainlink/contracts-ccip/src/v0.8/ConfirmedOwnerWithProposal.sol\":552:574  newOwner != address(0) */\n  0xffffffffffffffffffffffffffffffffffffffff\n  and\n    /* \"@chainlink/contracts-ccip/src/v0.8/ConfirmedOwnerWithProposal.sol\":552:560  newOwner */\n  dup3\n    /* \"@chainlink/contracts-ccip/src/v0.8/ConfirmedOwnerWithProposal.sol\":552:574  newOwner != address(0) */\n  0xffffffffffffffffffffffffffffffffffffffff\n  and\n  sub\n    /* \"@chainlink/contracts-ccip/src/v0.8/ConfirmedOwnerWithProposal.sol\":544:603  require(newOwner != address(0), \"Cannot set owner to zero\") */\n  tag_14\n  jumpi\n  mload(0x40)\n  0x08c379a000000000000000000000000000000000000000000000000000000000\n  dup2\n  mstore\n  0x04\n  add\n  tag_15\n  swap1\n  tag_16\n  jump\t// in\ntag_15:\n  mload(0x40)\n  dup1\n  swap2\n  sub\n  swap1\n  revert\ntag_14:\n    /* \"@chainlink/contracts-ccip/src/v0.8/ConfirmedOwnerWithProposal.sol\":620:628  newOwner */\n  dup2\n    /* \"@chainlink/contracts-ccip/src/v0.8/ConfirmedOwnerWithProposal.sol\":610:617  s_owner */\n  0x00\n  dup1\n    /* \"@chainlink/contracts-ccip/src/v0.8/ConfirmedOwnerWithProposal.sol\":610:628  s_owner = newOwner */\n  0x0100\n  exp\n  dup2\n  sload\n  dup2\n  0xffffffffffffffffffffffffffffffffffffffff\n  mul\n  not\n  and\n  swap1\n  dup4\n  0xffffffffffffffffffffffffffffffffffffffff\n  and\n  mul\n  or\n  swap1\n  sstore\n  pop\n    /* \"@chainlink/contracts-ccip/src/v0.8/ConfirmedOwnerWithProposal.sol\":662:663  0 */\n  0x00\n    /* \"@chainlink/contracts-ccip/src/v0.8/ConfirmedOwnerWithProposal.sol\":638:664  pendingOwner != address(0) */\n  0xffffffffffffffffffffffffffffffffffffffff\n  and\n    /* \"@chainlink/contracts-ccip/src/v0.8/ConfirmedOwnerWithProposal.sol\":638:650  pendingOwner */\n  dup2\n    /* \"@chainlink/contracts-ccip/src/v0.8/ConfirmedOwnerWithProposal.sol\":638:664  pendingOwner != address(0) */\n  0xffffffffffffffffffffffffffffffffffffffff\n  and\n  eq\n    /* \"@chainlink/contracts-ccip/src/v0.8/ConfirmedOwnerWithProposal.sol\":634:713  if (pendingOwner != address(0)) {... */\n  tag_17\n  jumpi\n    /* \"@chainlink/contracts-ccip/src/v0.8/ConfirmedOwnerWithProposal.sol\":674:706  _transferOwnership(pendingOwner) */\n  tag_18\n    /* \"@chainlink/contracts-ccip/src/v0.8/ConfirmedOwnerWithProposal.sol\":693:705  pendingOwner */\n  dup2\n    /* \"@chainlink/contracts-ccip/src/v0.8/ConfirmedOwnerWithProposal.sol\":674:692  _transferOwnership */\n  shl(0x20, tag_19)\n    /* \"@chainlink/contracts-ccip/src/v0.8/ConfirmedOwnerWithProposal.sol\":674:706  _transferOwnership(pendingOwner) */\n  0x20\n  shr\n  jump\t// in\ntag_18:\n    /* \"@chainlink/contracts-ccip/src/v0.8/ConfirmedOwnerWithProposal.sol\":634:713  if (pendingOwner != address(0)) {... */\ntag_17:\n    /* \"@chainlink/contracts-ccip/src/v0.8/ConfirmedOwnerWithProposal.sol\":486:717  constructor(address newOwner, address pendingOwner) {... */\n  pop\n  pop\n    /* \"@chainlink/contracts-ccip/src/v0.8/ConfirmedOwner.sol\":270:351  constructor(address newOwner) ConfirmedOwnerWithProposal(newOwner, address(0)) {} */\n  pop\n    /* \"contracts/ProofSenderSepolia.sol\":1873:1878  _link */\n  dup1\n    /* \"contracts/ProofSenderSepolia.sol\":1842:1851  linkToken */\n  0x07\n  0x00\n    /* \"contracts/ProofSenderSepolia.sol\":1842:1879  linkToken = LinkTokenInterface(_link) */\n  0x0100\n  exp\n  dup2\n  sload\n  dup2\n  0xffffffffffffffffffffffffffffffffffffffff\n  mul\n  not\n  and\n  swap1\n  dup4\n  0xffffffffffffffffffffffffffffffffffffffff\n  and\n  mul\n  or\n  swap1\n  sstore\n  pop\n    /* \"contracts/ProofSenderSepolia.sol\":1766:1886  constructor(address _router, address _link) CCIPReceiver(_router) {... */\n  pop\n  pop\n    /* \"contracts/ProofSenderSepolia.sol\":668:9838  contract Messenger is CCIPReceiver, OwnerIsCreator {... */\n  jump(tag_23)\n    /* \"@chainlink/contracts-ccip/src/v0.8/ConfirmedOwnerWithProposal.sol\":1497:1685  function _transferOwnership(address to) private {... */\ntag_19:\n    /* \"@chainlink/contracts-ccip/src/v0.8/ConfirmedOwnerWithProposal.sol\":1565:1575  msg.sender */\n  caller\n    /* \"@chainlink/contracts-ccip/src/v0.8/ConfirmedOwnerWithProposal.sol\":1559:1575  to != msg.sender */\n  0xffffffffffffffffffffffffffffffffffffffff\n  and\n    /* \"@chainlink/contracts-ccip/src/v0.8/ConfirmedOwnerWithProposal.sol\":1559:1561  to */\n  dup2\n    /* \"@chainlink/contracts-ccip/src/v0.8/ConfirmedOwnerWithProposal.sol\":1559:1575  to != msg.sender */\n  0xffffffffffffffffffffffffffffffffffffffff\n  and\n  sub\n    /* \"@chainlink/contracts-ccip/src/v0.8/ConfirmedOwnerWithProposal.sol\":1551:1603  require(to != msg.sender, \"Cannot transfer to self\") */\n  tag_25\n  jumpi\n  mload(0x40)\n  0x08c379a000000000000000000000000000000000000000000000000000000000\n  dup2\n  mstore\n  0x04\n  add\n  tag_26\n  swap1\n  tag_27\n  jump\t// in\ntag_26:\n  mload(0x40)\n  dup1\n  swap2\n  sub\n  swap1\n  revert\ntag_25:\n    /* \"@chainlink/contracts-ccip/src/v0.8/ConfirmedOwnerWithProposal.sol\":1627:1629  to */\n  dup1\n    /* \"@chainlink/contracts-ccip/src/v0.8/ConfirmedOwnerWithProposal.sol\":1610:1624  s_pendingOwner */\n  0x01\n  0x00\n    /* \"@chainlink/contracts-ccip/src/v0.8/ConfirmedOwnerWithProposal.sol\":1610:1629  s_pendingOwner = to */\n  0x0100\n  exp\n  dup2\n  sload\n  dup2\n  0xffffffffffffffffffffffffffffffffffffffff\n  mul\n  not\n  and\n  swap1\n  dup4\n  0xffffffffffffffffffffffffffffffffffffffff\n  and\n  mul\n  or\n  swap1\n  sstore\n  pop\n    /* \"@chainlink/contracts-ccip/src/v0.8/ConfirmedOwnerWithProposal.sol\":1677:1679  to */\n  dup1\n    /* \"@chainlink/contracts-ccip/src/v0.8/ConfirmedOwnerWithProposal.sol\":1641:1680  OwnershipTransferRequested(s_owner, to) */\n  0xffffffffffffffffffffffffffffffffffffffff\n  and\n    /* \"@chainlink/contracts-ccip/src/v0.8/ConfirmedOwnerWithProposal.sol\":1668:1675  s_owner */\n  0x00\n  dup1\n  sload\n  swap1\n  0x0100\n  exp\n  swap1\n  div\n  0xffffffffffffffffffffffffffffffffffffffff\n  and\n    /* \"@chainlink/contracts-ccip/src/v0.8/ConfirmedOwnerWithProposal.sol\":1641:1680  OwnershipTransferRequested(s_owner, to) */\n  0xffffffffffffffffffffffffffffffffffffffff\n  and\n  0xed8889f560326eb138920d842192f0eb3dd22b4f139c87a2c57538e05bae1278\n  mload(0x40)\n  mload(0x40)\n  dup1\n  swap2\n  sub\n  swap1\n  log3\n    /* \"@chainlink/contracts-ccip/src/v0.8/ConfirmedOwnerWithProposal.sol\":1497:1685  function _transferOwnership(address to) private {... */\n  pop\n  jump\t// out\n    /* \"#utility.yul\":88:205   */\ntag_29:\n    /* \"#utility.yul\":197:198   */\n  0x00\n    /* \"#utility.yul\":194:195   */\n  dup1\n    /* \"#utility.yul\":187:199   */\n  revert\n    /* \"#utility.yul\":334:460   */\ntag_31:\n    /* \"#utility.yul\":371:378   */\n  0x00\n    /* \"#utility.yul\":411:453   */\n  0xffffffffffffffffffffffffffffffffffffffff\n    /* \"#utility.yul\":404:409   */\n  dup3\n    /* \"#utility.yul\":400:454   */\n  and\n    /* \"#utility.yul\":389:454   */\n  swap1\n  pop\n    /* \"#utility.yul\":334:460   */\n  swap2\n  swap1\n  pop\n  jump\t// out\n    /* \"#utility.yul\":466:562   */\ntag_32:\n    /* \"#utility.yul\":503:510   */\n  0x00\n    /* \"#utility.yul\":532:556   */\n  tag_47\n    /* \"#utility.yul\":550:555   */\n  dup3\n    /* \"#utility.yul\":532:556   */\n  tag_31\n  jump\t// in\ntag_47:\n    /* \"#utility.yul\":521:556   */\n  swap1\n  pop\n    /* \"#utility.yul\":466:562   */\n  swap2\n  swap1\n  pop\n  jump\t// out\n    /* \"#utility.yul\":568:690   */\ntag_33:\n    /* \"#utility.yul\":641:665   */\n  tag_49\n    /* \"#utility.yul\":659:664   */\n  dup2\n    /* \"#utility.yul\":641:665   */\n  tag_32\n  jump\t// in\ntag_49:\n    /* \"#utility.yul\":634:639   */\n  dup2\n    /* \"#utility.yul\":631:666   */\n  eq\n    /* \"#utility.yul\":621:684   */\n  tag_50\n  jumpi\n    /* \"#utility.yul\":680:681   */\n  0x00\n    /* \"#utility.yul\":677:678   */\n  dup1\n    /* \"#utility.yul\":670:682   */\n  revert\n    /* \"#utility.yul\":621:684   */\ntag_50:\n    /* \"#utility.yul\":568:690   */\n  pop\n  jump\t// out\n    /* \"#utility.yul\":696:839   */\ntag_34:\n    /* \"#utility.yul\":753:758   */\n  0x00\n    /* \"#utility.yul\":784:790   */\n  dup2\n    /* \"#utility.yul\":778:791   */\n  mload\n    /* \"#utility.yul\":769:791   */\n  swap1\n  pop\n    /* \"#utility.yul\":800:833   */\n  tag_52\n    /* \"#utility.yul\":827:832   */\n  dup2\n    /* \"#utility.yul\":800:833   */\n  tag_33\n  jump\t// in\ntag_52:\n    /* \"#utility.yul\":696:839   */\n  swap3\n  swap2\n  pop\n  pop\n  jump\t// out\n    /* \"#utility.yul\":845:1352   */\ntag_3:\n    /* \"#utility.yul\":924:930   */\n  0x00\n    /* \"#utility.yul\":932:938   */\n  dup1\n    /* \"#utility.yul\":981:983   */\n  0x40\n    /* \"#utility.yul\":969:978   */\n  dup4\n    /* \"#utility.yul\":960:967   */\n  dup6\n    /* \"#utility.yul\":956:979   */\n  sub\n    /* \"#utility.yul\":952:984   */\n  slt\n    /* \"#utility.yul\":949:1068   */\n  iszero\n  tag_54\n  jumpi\n    /* \"#utility.yul\":987:1066   */\n  tag_55\n  tag_29\n  jump\t// in\ntag_55:\n    /* \"#utility.yul\":949:1068   */\ntag_54:\n    /* \"#utility.yul\":1107:1108   */\n  0x00\n    /* \"#utility.yul\":1132:1196   */\n  tag_56\n    /* \"#utility.yul\":1188:1195   */\n  dup6\n    /* \"#utility.yul\":1179:1185   */\n  dup3\n    /* \"#utility.yul\":1168:1177   */\n  dup7\n    /* \"#utility.yul\":1164:1186   */\n  add\n    /* \"#utility.yul\":1132:1196   */\n  tag_34\n  jump\t// in\ntag_56:\n    /* \"#utility.yul\":1122:1196   */\n  swap3\n  pop\n    /* \"#utility.yul\":1078:1206   */\n  pop\n    /* \"#utility.yul\":1245:1247   */\n  0x20\n    /* \"#utility.yul\":1271:1335   */\n  tag_57\n    /* \"#utility.yul\":1327:1334   */\n  dup6\n    /* \"#utility.yul\":1318:1324   */\n  dup3\n    /* \"#utility.yul\":1307:1316   */\n  dup7\n    /* \"#utility.yul\":1303:1325   */\n  add\n    /* \"#utility.yul\":1271:1335   */\n  tag_34\n  jump\t// in\ntag_57:\n    /* \"#utility.yul\":1261:1335   */\n  swap2\n  pop\n    /* \"#utility.yul\":1216:1345   */\n  pop\n    /* \"#utility.yul\":845:1352   */\n  swap3\n  pop\n  swap3\n  swap1\n  pop\n  jump\t// out\n    /* \"#utility.yul\":1358:1476   */\ntag_35:\n    /* \"#utility.yul\":1445:1469   */\n  tag_59\n    /* \"#utility.yul\":1463:1468   */\n  dup2\n    /* \"#utility.yul\":1445:1469   */\n  tag_32\n  jump\t// in\ntag_59:\n    /* \"#utility.yul\":1440:1443   */\n  dup3\n    /* \"#utility.yul\":1433:1470   */\n  mstore\n    /* \"#utility.yul\":1358:1476   */\n  pop\n  pop\n  jump\t// out\n    /* \"#utility.yul\":1482:1704   */\ntag_12:\n    /* \"#utility.yul\":1575:1579   */\n  0x00\n    /* \"#utility.yul\":1613:1615   */\n  0x20\n    /* \"#utility.yul\":1602:1611   */\n  dup3\n    /* \"#utility.yul\":1598:1616   */\n  add\n    /* \"#utility.yul\":1590:1616   */\n  swap1\n  pop\n    /* \"#utility.yul\":1626:1697   */\n  tag_61\n    /* \"#utility.yul\":1694:1695   */\n  0x00\n    /* \"#utility.yul\":1683:1692   */\n  dup4\n    /* \"#utility.yul\":1679:1696   */\n  add\n    /* \"#utility.yul\":1670:1676   */\n  dup5\n    /* \"#utility.yul\":1626:1697   */\n  tag_35\n  jump\t// in\ntag_61:\n    /* \"#utility.yul\":1482:1704   */\n  swap3\n  swap2\n  pop\n  pop\n  jump\t// out\n    /* \"#utility.yul\":1710:1879   */\ntag_36:\n    /* \"#utility.yul\":1794:1805   */\n  0x00\n    /* \"#utility.yul\":1828:1834   */\n  dup3\n    /* \"#utility.yul\":1823:1826   */\n  dup3\n    /* \"#utility.yul\":1816:1835   */\n  mstore\n    /* \"#utility.yul\":1868:1872   */\n  0x20\n    /* \"#utility.yul\":1863:1866   */\n  dup3\n    /* \"#utility.yul\":1859:1873   */\n  add\n    /* \"#utility.yul\":1844:1873   */\n  swap1\n  pop\n    /* \"#utility.yul\":1710:1879   */\n  swap3\n  swap2\n  pop\n  pop\n  jump\t// out\n    /* \"#utility.yul\":1885:2059   */\ntag_37:\n    /* \"#utility.yul\":2025:2051   */\n  0x43616e6e6f7420736574206f776e657220746f207a65726f0000000000000000\n    /* \"#utility.yul\":2021:2022   */\n  0x00\n    /* \"#utility.yul\":2013:2019   */\n  dup3\n    /* \"#utility.yul\":2009:2023   */\n  add\n    /* \"#utility.yul\":2002:2052   */\n  mstore\n    /* \"#utility.yul\":1885:2059   */\n  pop\n  jump\t// out\n    /* \"#utility.yul\":2065:2431   */\ntag_38:\n    /* \"#utility.yul\":2207:2210   */\n  0x00\n    /* \"#utility.yul\":2228:2295   */\n  tag_65\n    /* \"#utility.yul\":2292:2294   */\n  0x18\n    /* \"#utility.yul\":2287:2290   */\n  dup4\n    /* \"#utility.yul\":2228:2295   */\n  tag_36\n  jump\t// in\ntag_65:\n    /* \"#utility.yul\":2221:2295   */\n  swap2\n  pop\n    /* \"#utility.yul\":2304:2397   */\n  tag_66\n    /* \"#utility.yul\":2393:2396   */\n  dup3\n    /* \"#utility.yul\":2304:2397   */\n  tag_37\n  jump\t// in\ntag_66:\n    /* \"#utility.yul\":2422:2424   */\n  0x20\n    /* \"#utility.yul\":2417:2420   */\n  dup3\n    /* \"#utility.yul\":2413:2425   */\n  add\n    /* \"#utility.yul\":2406:2425   */\n  swap1\n  pop\n    /* \"#utility.yul\":2065:2431   */\n  swap2\n  swap1\n  pop\n  jump\t// out\n    /* \"#utility.yul\":2437:2856   */\ntag_16:\n    /* \"#utility.yul\":2603:2607   */\n  0x00\n    /* \"#utility.yul\":2641:2643   */\n  0x20\n    /* \"#utility.yul\":2630:2639   */\n  dup3\n    /* \"#utility.yul\":2626:2644   */\n  add\n    /* \"#utility.yul\":2618:2644   */\n  swap1\n  pop\n    /* \"#utility.yul\":2690:2699   */\n  dup2\n    /* \"#utility.yul\":2684:2688   */\n  dup2\n    /* \"#utility.yul\":2680:2700   */\n  sub\n    /* \"#utility.yul\":2676:2677   */\n  0x00\n    /* \"#utility.yul\":2665:2674   */\n  dup4\n    /* \"#utility.yul\":2661:2678   */\n  add\n    /* \"#utility.yul\":2654:2701   */\n  mstore\n    /* \"#utility.yul\":2718:2849   */\n  tag_68\n    /* \"#utility.yul\":2844:2848   */\n  dup2\n    /* \"#utility.yul\":2718:2849   */\n  tag_38\n  jump\t// in\ntag_68:\n    /* \"#utility.yul\":2710:2849   */\n  swap1\n  pop\n    /* \"#utility.yul\":2437:2856   */\n  swap2\n  swap1\n  pop\n  jump\t// out\n    /* \"#utility.yul\":2862:3035   */\ntag_39:\n    /* \"#utility.yul\":3002:3027   */\n  0x43616e6e6f74207472616e7366657220746f2073656c66000000000000000000\n    /* \"#utility.yul\":2998:2999   */\n  0x00\n    /* \"#utility.yul\":2990:2996   */\n  dup3\n    /* \"#utility.yul\":2986:3000   */\n  add\n    /* \"#utility.yul\":2979:3028   */\n  mstore\n    /* \"#utility.yul\":2862:3035   */\n  pop\n  jump\t// out\n    /* \"#utility.yul\":3041:3407   */\ntag_40:\n    /* \"#utility.yul\":3183:3186   */\n  0x00\n    /* \"#utility.yul\":3204:3271   */\n  tag_71\n    /* \"#utility.yul\":3268:3270   */\n  0x17\n    /* \"#utility.yul\":3263:3266   */\n  dup4\n    /* \"#utility.yul\":3204:3271   */\n  tag_36\n  jump\t// in\ntag_71:\n    /* \"#utility.yul\":3197:3271   */\n  swap2\n  pop\n    /* \"#utility.yul\":3280:3373   */\n  tag_72\n    /* \"#utility.yul\":3369:3372   */\n  dup3\n    /* \"#utility.yul\":3280:3373   */\n  tag_39\n  jump\t// in\ntag_72:\n    /* \"#utility.yul\":3398:3400   */\n  0x20\n    /* \"#utility.yul\":3393:3396   */\n  dup3\n    /* \"#utility.yul\":3389:3401   */\n  add\n    /* \"#utility.yul\":3382:3401   */\n  swap1\n  pop\n    /* \"#utility.yul\":3041:3407   */\n  swap2\n  swap1\n  pop\n  jump\t// out\n    /* \"#utility.yul\":3413:3832   */\ntag_27:\n    /* \"#utility.yul\":3579:3583   */\n  0x00\n    /* \"#utility.yul\":3617:3619   */\n  0x20\n    /* \"#utility.yul\":3606:3615   */\n  dup3\n    /* \"#utility.yul\":3602:3620   */\n  add\n    /* \"#utility.yul\":3594:3620   */\n  swap1\n  pop\n    /* \"#utility.yul\":3666:3675   */\n  dup2\n    /* \"#utility.yul\":3660:3664   */\n  dup2\n    /* \"#utility.yul\":3656:3676   */\n  sub\n    /* \"#utility.yul\":3652:3653   */\n  0x00\n    /* \"#utility.yul\":3641:3650   */\n  dup4\n    /* \"#utility.yul\":3637:3654   */\n  add\n    /* \"#utility.yul\":3630:3677   */\n  mstore\n    /* \"#utility.yul\":3694:3825   */\n  tag_74\n    /* \"#utility.yul\":3820:3824   */\n  dup2\n    /* \"#utility.yul\":3694:3825   */\n  tag_40\n  jump\t// in\ntag_74:\n    /* \"#utility.yul\":3686:3825   */\n  swap1\n  pop\n    /* \"#utility.yul\":3413:3832   */\n  swap2\n  swap1\n  pop\n  jump\t// out\n    /* \"contracts/ProofSenderSepolia.sol\":668:9838  contract Messenger is CCIPReceiver, OwnerIsCreator {... */\ntag_23:\n  mload(0x80)\n  codecopy(0x00, dataOffset(sub_0), dataSize(sub_0))\n  0x00\n  assignImmutable(\"0x9fedcbae656b90e3e39f47fe3fd17358f7efaa811276fa71a4f7681cc9e0c00a\")\n  return(0x00, dataSize(sub_0))\nstop\n\nsub_0: assembly {\n        /* \"contracts/ProofSenderSepolia.sol\":668:9838  contract Messenger is CCIPReceiver, OwnerIsCreator {... */\n      mstore(0x40, 0x80)\n      jumpi(tag_1, lt(calldatasize, 0x04))\n      shr(0xe0, calldataload(0x00))\n      dup1\n      0x7898d184\n      gt\n      tag_24\n      jumpi\n      dup1\n      0x8da5cb5b\n      gt\n      tag_25\n      jumpi\n      dup1\n      0x8da5cb5b\n      eq\n      tag_18\n      jumpi\n      dup1\n      0x92a8c1fe\n      eq\n      tag_19\n      jumpi\n      dup1\n      0xa32ba7ec\n      eq\n      tag_20\n      jumpi\n      dup1\n      0xb0f479a1\n      eq\n      tag_21\n      jumpi\n      dup1\n      0xbf565170\n      eq\n      tag_22\n      jumpi\n      dup1\n      0xf2fde38b\n      eq\n      tag_23\n      jumpi\n      jump(tag_2)\n    tag_25:\n      dup1\n      0x7898d184\n      eq\n      tag_13\n      jumpi\n      dup1\n      0x79ba5097\n      eq\n      tag_14\n      jumpi\n      dup1\n      0x7dc91a02\n      eq\n      tag_15\n      jumpi\n      dup1\n      0x835b347c\n      eq\n      tag_16\n      jumpi\n      dup1\n      0x85572ffb\n      eq\n      tag_17\n      jumpi\n      jump(tag_2)\n    tag_24:\n      dup1\n      0x3aeac4e1\n      gt\n      tag_26\n      jumpi\n      dup1\n      0x3aeac4e1\n      eq\n      tag_8\n      jumpi\n      dup1\n      0x47569edf\n      eq\n      tag_9\n      jumpi\n      dup1\n      0x51cff8d9\n      eq\n      tag_10\n      jumpi\n      dup1\n      0x73645cff\n      eq\n      tag_11\n      jumpi\n      dup1\n      0x7736035b\n      eq\n      tag_12\n      jumpi\n      jump(tag_2)\n    tag_26:\n      dup1\n      0x01ffc9a7\n      eq\n      tag_3\n      jumpi\n      dup1\n      0x21b76408\n      eq\n      tag_4\n      jumpi\n      dup1\n      0x263596a5\n      eq\n      tag_5\n      jumpi\n      dup1\n      0x272efc69\n      eq\n      tag_6\n      jumpi\n      dup1\n      0x2f10a6c6\n      eq\n      tag_7\n      jumpi\n      jump(tag_2)\n    tag_1:\n      jumpi(tag_2, calldatasize)\n      stop\n    tag_2:\n      0x00\n      dup1\n      revert\n        /* \"@chainlink/contracts-ccip/src/v0.8/ccip/applications/CCIPReceiver.sol\":761:962  function supportsInterface(bytes4 interfaceId) public pure override returns (bool) {... */\n    tag_3:\n      callvalue\n      dup1\n      iszero\n      tag_29\n      jumpi\n      0x00\n      dup1\n      revert\n    tag_29:\n      pop\n      tag_30\n      0x04\n      dup1\n      calldatasize\n      sub\n      dup2\n      add\n      swap1\n      tag_31\n      swap2\n      swap1\n      tag_32\n      jump\t// in\n    tag_31:\n      tag_33\n      jump\t// in\n    tag_30:\n      mload(0x40)\n      tag_34\n      swap2\n      swap1\n      tag_35\n      jump\t// in\n    tag_34:\n      mload(0x40)\n      dup1\n      swap2\n      sub\n      swap1\n      return\n        /* \"contracts/ProofSenderSepolia.sol\":4246:5416  function sendMessagePayLINK(... */\n    tag_4:\n      callvalue\n      dup1\n      iszero\n      tag_36\n      jumpi\n      0x00\n      dup1\n      revert\n    tag_36:\n      pop\n      tag_37\n      0x04\n      dup1\n      calldatasize\n      sub\n      dup2\n      add\n      swap1\n      tag_38\n      swap2\n      swap1\n      tag_39\n      jump\t// in\n    tag_38:\n      tag_40\n      jump\t// in\n    tag_37:\n      mload(0x40)\n      tag_41\n      swap2\n      swap1\n      tag_42\n      jump\t// in\n    tag_41:\n      mload(0x40)\n      dup1\n      swap2\n      sub\n      swap1\n      return\n        /* \"contracts/ProofSenderSepolia.sol\":8023:8214  function getLastReceivedMessageDetails()... */\n    tag_5:\n      callvalue\n      dup1\n      iszero\n      tag_43\n      jumpi\n      0x00\n      dup1\n      revert\n    tag_43:\n      pop\n      tag_44\n      tag_45\n      jump\t// in\n    tag_44:\n      mload(0x40)\n      tag_46\n      swap3\n      swap2\n      swap1\n      tag_47\n      jump\t// in\n    tag_46:\n      mload(0x40)\n      dup1\n      swap2\n      sub\n      swap1\n      return\n        /* \"contracts/ProofSenderSepolia.sol\":1301:1351  mapping(address => bool) public whitelistedSenders */\n    tag_6:\n      callvalue\n      dup1\n      iszero\n      tag_48\n      jumpi\n      0x00\n      dup1\n      revert\n    tag_48:\n      pop\n      tag_49\n      0x04\n      dup1\n      calldatasize\n      sub\n      dup2\n      add\n      swap1\n      tag_50\n      swap2\n      swap1\n      tag_51\n      jump\t// in\n    tag_50:\n      tag_52\n      jump\t// in\n    tag_49:\n      mload(0x40)\n      tag_53\n      swap2\n      swap1\n      tag_35\n      jump\t// in\n    tag_53:\n      mload(0x40)\n      dup1\n      swap2\n      sub\n      swap1\n      return\n        /* \"contracts/ProofSenderSepolia.sol\":3868:3980  function whitelistSender(address _sender) external onlyOwner {... */\n    tag_7:\n      callvalue\n      dup1\n      iszero\n      tag_54\n      jumpi\n      0x00\n      dup1\n      revert\n    tag_54:\n      pop\n      tag_55\n      0x04\n      dup1\n      calldatasize\n      sub\n      dup2\n      add\n      swap1\n      tag_56\n      swap2\n      swap1\n      tag_51\n      jump\t// in\n    tag_56:\n      tag_57\n      jump\t// in\n    tag_55:\n      stop\n        /* \"contracts/ProofSenderSepolia.sol\":9559:9836  function withdrawToken(... */\n    tag_8:\n      callvalue\n      dup1\n      iszero\n      tag_58\n      jumpi\n      0x00\n      dup1\n      revert\n    tag_58:\n      pop\n      tag_59\n      0x04\n      dup1\n      calldatasize\n      sub\n      dup2\n      add\n      swap1\n      tag_60\n      swap2\n      swap1\n      tag_61\n      jump\t// in\n    tag_60:\n      tag_62\n      jump\t// in\n    tag_59:\n      stop\n        /* \"contracts/ProofSenderSepolia.sol\":928:958  bool public lastReceivedResult */\n    tag_9:\n      callvalue\n      dup1\n      iszero\n      tag_63\n      jumpi\n      0x00\n      dup1\n      revert\n    tag_63:\n      pop\n      tag_64\n      tag_65\n      jump\t// in\n    tag_64:\n      mload(0x40)\n      tag_66\n      swap2\n      swap1\n      tag_35\n      jump\t// in\n    tag_66:\n      mload(0x40)\n      dup1\n      swap2\n      sub\n      swap1\n      return\n        /* \"contracts/ProofSenderSepolia.sol\":8852:9197  function withdraw(address _beneficiary) public onlyOwner {... */\n    tag_10:\n      callvalue\n      dup1\n      iszero\n      tag_67\n      jumpi\n      0x00\n      dup1\n      revert\n    tag_67:\n      pop\n      tag_68\n      0x04\n      dup1\n      calldatasize\n      sub\n      dup2\n      add\n      swap1\n      tag_69\n      swap2\n      swap1\n      tag_51\n      jump\t// in\n    tag_69:\n      tag_70\n      jump\t// in\n    tag_68:\n      stop\n        /* \"contracts/ProofSenderSepolia.sol\":2800:2981  function denylistDestinationChain(... */\n    tag_11:\n      callvalue\n      dup1\n      iszero\n      tag_71\n      jumpi\n      0x00\n      dup1\n      revert\n    tag_71:\n      pop\n      tag_72\n      0x04\n      dup1\n      calldatasize\n      sub\n      dup2\n      add\n      swap1\n      tag_73\n      swap2\n      swap1\n      tag_74\n      jump\t// in\n    tag_73:\n      tag_75\n      jump\t// in\n    tag_72:\n      stop\n        /* \"contracts/ProofSenderSepolia.sol\":3188:3349  function whitelistSourceChain(... */\n    tag_12:\n      callvalue\n      dup1\n      iszero\n      tag_76\n      jumpi\n      0x00\n      dup1\n      revert\n    tag_76:\n      pop\n      tag_77\n      0x04\n      dup1\n      calldatasize\n      sub\n      dup2\n      add\n      swap1\n      tag_78\n      swap2\n      swap1\n      tag_74\n      jump\t// in\n    tag_78:\n      tag_79\n      jump\t// in\n    tag_77:\n      stop\n        /* \"contracts/ProofSenderSepolia.sol\":2404:2585  function whitelistDestinationChain(... */\n    tag_13:\n      callvalue\n      dup1\n      iszero\n      tag_80\n      jumpi\n      0x00\n      dup1\n      revert\n    tag_80:\n      pop\n      tag_81\n      0x04\n      dup1\n      calldatasize\n      sub\n      dup2\n      add\n      swap1\n      tag_82\n      swap2\n      swap1\n      tag_74\n      jump\t// in\n    tag_82:\n      tag_83\n      jump\t// in\n    tag_81:\n      stop\n        /* \"@chainlink/contracts-ccip/src/v0.8/ConfirmedOwnerWithProposal.sol\":1016:1281  function acceptOwnership() external override {... */\n    tag_14:\n      callvalue\n      dup1\n      iszero\n      tag_84\n      jumpi\n      0x00\n      dup1\n      revert\n    tag_84:\n      pop\n      tag_85\n      tag_86\n      jump\t// in\n    tag_85:\n      stop\n        /* \"contracts/ProofSenderSepolia.sol\":1187:1241  mapping(uint64 => bool) public whitelistedSourceChains */\n    tag_15:\n      callvalue\n      dup1\n      iszero\n      tag_87\n      jumpi\n      0x00\n      dup1\n      revert\n    tag_87:\n      pop\n      tag_88\n      0x04\n      dup1\n      calldatasize\n      sub\n      dup2\n      add\n      swap1\n      tag_89\n      swap2\n      swap1\n      tag_74\n      jump\t// in\n    tag_89:\n      tag_90\n      jump\t// in\n    tag_88:\n      mload(0x40)\n      tag_91\n      swap2\n      swap1\n      tag_35\n      jump\t// in\n    tag_91:\n      mload(0x40)\n      dup1\n      swap2\n      sub\n      swap1\n      return\n        /* \"contracts/ProofSenderSepolia.sol\":1062:1121  mapping(uint64 => bool) public whitelistedDestinationChains */\n    tag_16:\n      callvalue\n      dup1\n      iszero\n      tag_92\n      jumpi\n      0x00\n      dup1\n      revert\n    tag_92:\n      pop\n      tag_93\n      0x04\n      dup1\n      calldatasize\n      sub\n      dup2\n      add\n      swap1\n      tag_94\n      swap2\n      swap1\n      tag_74\n      jump\t// in\n    tag_94:\n      tag_95\n      jump\t// in\n    tag_93:\n      mload(0x40)\n      tag_96\n      swap2\n      swap1\n      tag_35\n      jump\t// in\n    tag_96:\n      mload(0x40)\n      dup1\n      swap2\n      sub\n      swap1\n      return\n        /* \"@chainlink/contracts-ccip/src/v0.8/ccip/applications/CCIPReceiver.sol\":1008:1138  function ccipReceive(Client.Any2EVMMessage calldata message) external virtual override onlyRouter {... */\n    tag_17:\n      callvalue\n      dup1\n      iszero\n      tag_97\n      jumpi\n      0x00\n      dup1\n      revert\n    tag_97:\n      pop\n      tag_98\n      0x04\n      dup1\n      calldatasize\n      sub\n      dup2\n      add\n      swap1\n      tag_99\n      swap2\n      swap1\n      tag_100\n      jump\t// in\n    tag_99:\n      tag_101\n      jump\t// in\n    tag_98:\n      stop\n        /* \"@chainlink/contracts-ccip/src/v0.8/ConfirmedOwnerWithProposal.sol\":1332:1413  function owner() public view override returns (address) {... */\n    tag_18:\n      callvalue\n      dup1\n      iszero\n      tag_102\n      jumpi\n      0x00\n      dup1\n      revert\n    tag_102:\n      pop\n      tag_103\n      tag_104\n      jump\t// in\n    tag_103:\n      mload(0x40)\n      tag_105\n      swap2\n      swap1\n      tag_106\n      jump\t// in\n    tag_105:\n      mload(0x40)\n      dup1\n      swap2\n      sub\n      swap1\n      return\n        /* \"contracts/ProofSenderSepolia.sol\":4132:4240  function denySender(address _sender) external onlyOwner {... */\n    tag_19:\n      callvalue\n      dup1\n      iszero\n      tag_107\n      jumpi\n      0x00\n      dup1\n      revert\n    tag_107:\n      pop\n      tag_108\n      0x04\n      dup1\n      calldatasize\n      sub\n      dup2\n      add\n      swap1\n      tag_109\n      swap2\n      swap1\n      tag_51\n      jump\t// in\n    tag_109:\n      tag_110\n      jump\t// in\n    tag_108:\n      stop\n        /* \"contracts/ProofSenderSepolia.sol\":3554:3715  function denylistSourceChain(... */\n    tag_20:\n      callvalue\n      dup1\n      iszero\n      tag_111\n      jumpi\n      0x00\n      dup1\n      revert\n    tag_111:\n      pop\n      tag_112\n      0x04\n      dup1\n      calldatasize\n      sub\n      dup2\n      add\n      swap1\n      tag_113\n      swap2\n      swap1\n      tag_74\n      jump\t// in\n    tag_113:\n      tag_114\n      jump\t// in\n    tag_112:\n      stop\n        /* \"@chainlink/contracts-ccip/src/v0.8/ccip/applications/CCIPReceiver.sol\":1550:1636  function getRouter() public view returns (address) {... */\n    tag_21:\n      callvalue\n      dup1\n      iszero\n      tag_115\n      jumpi\n      0x00\n      dup1\n      revert\n    tag_115:\n      pop\n      tag_116\n      tag_117\n      jump\t// in\n    tag_116:\n      mload(0x40)\n      tag_118\n      swap2\n      swap1\n      tag_106\n      jump\t// in\n    tag_118:\n      mload(0x40)\n      dup1\n      swap2\n      sub\n      swap1\n      return\n        /* \"contracts/ProofSenderSepolia.sol\":5423:6476  function sendMessagePayNative(... */\n    tag_22:\n      callvalue\n      dup1\n      iszero\n      tag_119\n      jumpi\n      0x00\n      dup1\n      revert\n    tag_119:\n      pop\n      tag_120\n      0x04\n      dup1\n      calldatasize\n      sub\n      dup2\n      add\n      swap1\n      tag_121\n      swap2\n      swap1\n      tag_39\n      jump\t// in\n    tag_121:\n      tag_122\n      jump\t// in\n    tag_120:\n      mload(0x40)\n      tag_123\n      swap2\n      swap1\n      tag_42\n      jump\t// in\n    tag_123:\n      mload(0x40)\n      dup1\n      swap2\n      sub\n      swap1\n      return\n        /* \"@chainlink/contracts-ccip/src/v0.8/ConfirmedOwnerWithProposal.sol\":826:924  function transferOwnership(address to) public override onlyOwner {... */\n    tag_23:\n      callvalue\n      dup1\n      iszero\n      tag_124\n      jumpi\n      0x00\n      dup1\n      revert\n    tag_124:\n      pop\n      tag_125\n      0x04\n      dup1\n      calldatasize\n      sub\n      dup2\n      add\n      swap1\n      tag_126\n      swap2\n      swap1\n      tag_51\n      jump\t// in\n    tag_126:\n      tag_127\n      jump\t// in\n    tag_125:\n      stop\n        /* \"@chainlink/contracts-ccip/src/v0.8/ccip/applications/CCIPReceiver.sol\":761:962  function supportsInterface(bytes4 interfaceId) public pure override returns (bool) {... */\n    tag_33:\n        /* \"@chainlink/contracts-ccip/src/v0.8/ccip/applications/CCIPReceiver.sol\":838:842  bool */\n      0x00\n        /* \"@chainlink/contracts-ccip/src/v0.8/ccip/applications/CCIPReceiver.sol\":872:913  type(IAny2EVMMessageReceiver).interfaceId */\n      0x85572ffb00000000000000000000000000000000000000000000000000000000\n        /* \"@chainlink/contracts-ccip/src/v0.8/ccip/applications/CCIPReceiver.sol\":857:913  interfaceId == type(IAny2EVMMessageReceiver).interfaceId */\n      not(0xffffffffffffffffffffffffffffffffffffffffffffffffffffffff)\n      and\n        /* \"@chainlink/contracts-ccip/src/v0.8/ccip/applications/CCIPReceiver.sol\":857:868  interfaceId */\n      dup3\n        /* \"@chainlink/contracts-ccip/src/v0.8/ccip/applications/CCIPReceiver.sol\":857:913  interfaceId == type(IAny2EVMMessageReceiver).interfaceId */\n      not(0xffffffffffffffffffffffffffffffffffffffffffffffffffffffff)\n      and\n      eq\n        /* \"@chainlink/contracts-ccip/src/v0.8/ccip/applications/CCIPReceiver.sol\":857:957  interfaceId == type(IAny2EVMMessageReceiver).interfaceId || interfaceId == type(IERC165).interfaceId */\n      dup1\n      tag_129\n      jumpi\n      pop\n        /* \"@chainlink/contracts-ccip/src/v0.8/ccip/applications/CCIPReceiver.sol\":932:957  type(IERC165).interfaceId */\n      0x01ffc9a700000000000000000000000000000000000000000000000000000000\n        /* \"@chainlink/contracts-ccip/src/v0.8/ccip/applications/CCIPReceiver.sol\":917:957  interfaceId == type(IERC165).interfaceId */\n      not(0xffffffffffffffffffffffffffffffffffffffffffffffffffffffff)\n      and\n        /* \"@chainlink/contracts-ccip/src/v0.8/ccip/applications/CCIPReceiver.sol\":917:928  interfaceId */\n      dup3\n        /* \"@chainlink/contracts-ccip/src/v0.8/ccip/applications/CCIPReceiver.sol\":917:957  interfaceId == type(IERC165).interfaceId */\n      not(0xffffffffffffffffffffffffffffffffffffffffffffffffffffffff)\n      and\n      eq\n        /* \"@chainlink/contracts-ccip/src/v0.8/ccip/applications/CCIPReceiver.sol\":857:957  interfaceId == type(IAny2EVMMessageReceiver).interfaceId || interfaceId == type(IERC165).interfaceId */\n    tag_129:\n        /* \"@chainlink/contracts-ccip/src/v0.8/ccip/applications/CCIPReceiver.sol\":850:957  return interfaceId == type(IAny2EVMMessageReceiver).interfaceId || interfaceId == type(IERC165).interfaceId */\n      swap1\n      pop\n        /* \"@chainlink/contracts-ccip/src/v0.8/ccip/applications/CCIPReceiver.sol\":761:962  function supportsInterface(bytes4 interfaceId) public pure override returns (bool) {... */\n      swap2\n      swap1\n      pop\n      jump\t// out\n        /* \"contracts/ProofSenderSepolia.sol\":4246:5416  function sendMessagePayLINK(... */\n    tag_40:\n        /* \"contracts/ProofSenderSepolia.sol\":4433:4450  bytes32 messageId */\n      0x00\n        /* \"@chainlink/contracts-ccip/src/v0.8/ConfirmedOwnerWithProposal.sol\":1956:1976  _validateOwnership() */\n      tag_131\n        /* \"@chainlink/contracts-ccip/src/v0.8/ConfirmedOwnerWithProposal.sol\":1956:1974  _validateOwnership */\n      tag_132\n        /* \"@chainlink/contracts-ccip/src/v0.8/ConfirmedOwnerWithProposal.sol\":1956:1976  _validateOwnership() */\n      jump\t// in\n    tag_131:\n        /* \"contracts/ProofSenderSepolia.sol\":4580:4623  Client.EVM2AnyMessage memory evm2AnyMessage */\n      0x00\n        /* \"contracts/ProofSenderSepolia.sol\":4626:4727  _buildCCIPMessage(... */\n      tag_134\n        /* \"contracts/ProofSenderSepolia.sol\":4657:4666  _receiver */\n      dup5\n        /* \"contracts/ProofSenderSepolia.sol\":4680:4685  _data */\n      dup5\n        /* \"contracts/ProofSenderSepolia.sol\":4707:4716  linkToken */\n      0x07\n      0x00\n      swap1\n      sload\n      swap1\n      0x0100\n      exp\n      swap1\n      div\n      0xffffffffffffffffffffffffffffffffffffffff\n      and\n        /* \"contracts/ProofSenderSepolia.sol\":4626:4643  _buildCCIPMessage */\n      tag_135\n        /* \"contracts/ProofSenderSepolia.sol\":4626:4727  _buildCCIPMessage(... */\n      jump\t// in\n    tag_134:\n        /* \"contracts/ProofSenderSepolia.sol\":4580:4727  Client.EVM2AnyMessage memory evm2AnyMessage = _buildCCIPMessage(... */\n      swap1\n      pop\n        /* \"contracts/ProofSenderSepolia.sol\":4821:4841  IRouterClient router */\n      0x00\n        /* \"contracts/ProofSenderSepolia.sol\":4858:4862  this */\n      address\n        /* \"contracts/ProofSenderSepolia.sol\":4858:4872  this.getRouter */\n      0xffffffffffffffffffffffffffffffffffffffff\n      and\n      0xb0f479a1\n        /* \"contracts/ProofSenderSepolia.sol\":4858:4874  this.getRouter() */\n      mload(0x40)\n      dup2\n      0xffffffff\n      and\n      0xe0\n      shl\n      dup2\n      mstore\n      0x04\n      add\n      0x20\n      mload(0x40)\n      dup1\n      dup4\n      sub\n      dup2\n      dup7\n      gas\n      staticcall\n      iszero\n      dup1\n      iszero\n      tag_137\n      jumpi\n      returndatasize\n      0x00\n      dup1\n      returndatacopy\n      revert(0x00, returndatasize)\n    tag_137:\n      pop\n      pop\n      pop\n      pop\n      mload(0x40)\n      returndatasize\n      not(0x1f)\n      0x1f\n      dup3\n      add\n      and\n      dup3\n      add\n      dup1\n      0x40\n      mstore\n      pop\n      dup2\n      add\n      swap1\n      tag_138\n      swap2\n      swap1\n      tag_139\n      jump\t// in\n    tag_138:\n        /* \"contracts/ProofSenderSepolia.sol\":4821:4875  IRouterClient router = IRouterClient(this.getRouter()) */\n      swap1\n      pop\n        /* \"contracts/ProofSenderSepolia.sol\":4943:4955  uint256 fees */\n      0x00\n        /* \"contracts/ProofSenderSepolia.sol\":4958:4964  router */\n      dup2\n        /* \"contracts/ProofSenderSepolia.sol\":4958:4971  router.getFee */\n      0xffffffffffffffffffffffffffffffffffffffff\n      and\n      0x20487ded\n        /* \"contracts/ProofSenderSepolia.sol\":4972:4997  _destinationChainSelector */\n      dup9\n        /* \"contracts/ProofSenderSepolia.sol\":4999:5013  evm2AnyMessage */\n      dup6\n        /* \"contracts/ProofSenderSepolia.sol\":4958:5014  router.getFee(_destinationChainSelector, evm2AnyMessage) */\n      mload(0x40)\n      dup4\n      0xffffffff\n      and\n      0xe0\n      shl\n      dup2\n      mstore\n      0x04\n      add\n      tag_140\n      swap3\n      swap2\n      swap1\n      tag_141\n      jump\t// in\n    tag_140:\n      0x20\n      mload(0x40)\n      dup1\n      dup4\n      sub\n      dup2\n      dup7\n      gas\n      staticcall\n      iszero\n      dup1\n      iszero\n      tag_143\n      jumpi\n      returndatasize\n      0x00\n      dup1\n      returndatacopy\n      revert(0x00, returndatasize)\n    tag_143:\n      pop\n      pop\n      pop\n      pop\n      mload(0x40)\n      returndatasize\n      not(0x1f)\n      0x1f\n      dup3\n      add\n      and\n      dup3\n      add\n      dup1\n      0x40\n      mstore\n      pop\n      dup2\n      add\n      swap1\n      tag_144\n      swap2\n      swap1\n      tag_145\n      jump\t// in\n    tag_144:\n        /* \"contracts/ProofSenderSepolia.sol\":4943:5014  uint256 fees = router.getFee(_destinationChainSelector, evm2AnyMessage) */\n      swap1\n      pop\n        /* \"contracts/ProofSenderSepolia.sol\":5132:5141  linkToken */\n      0x07\n      0x00\n      swap1\n      sload\n      swap1\n      0x0100\n      exp\n      swap1\n      div\n      0xffffffffffffffffffffffffffffffffffffffff\n      and\n        /* \"contracts/ProofSenderSepolia.sol\":5132:5149  linkToken.approve */\n      0xffffffffffffffffffffffffffffffffffffffff\n      and\n      0x095ea7b3\n        /* \"contracts/ProofSenderSepolia.sol\":5158:5164  router */\n      dup4\n        /* \"contracts/ProofSenderSepolia.sol\":5167:5171  fees */\n      dup4\n        /* \"contracts/ProofSenderSepolia.sol\":5132:5172  linkToken.approve(address(router), fees) */\n      mload(0x40)\n      dup4\n      0xffffffff\n      and\n      0xe0\n      shl\n      dup2\n      mstore\n      0x04\n      add\n      tag_146\n      swap3\n      swap2\n      swap1\n      tag_147\n      jump\t// in\n    tag_146:\n      0x20\n      mload(0x40)\n      dup1\n      dup4\n      sub\n      dup2\n      0x00\n      dup8\n      gas\n      call\n      iszero\n      dup1\n      iszero\n      tag_149\n      jumpi\n      returndatasize\n      0x00\n      dup1\n      returndatacopy\n      revert(0x00, returndatasize)\n    tag_149:\n      pop\n      pop\n      pop\n      pop\n      mload(0x40)\n      returndatasize\n      not(0x1f)\n      0x1f\n      dup3\n      add\n      and\n      dup3\n      add\n      dup1\n      0x40\n      mstore\n      pop\n      dup2\n      add\n      swap1\n      tag_150\n      swap2\n      swap1\n      tag_151\n      jump\t// in\n    tag_150:\n      pop\n        /* \"contracts/ProofSenderSepolia.sol\":5286:5292  router */\n      dup2\n        /* \"contracts/ProofSenderSepolia.sol\":5286:5301  router.ccipSend */\n      0xffffffffffffffffffffffffffffffffffffffff\n      and\n      0x96f4e9f9\n        /* \"contracts/ProofSenderSepolia.sol\":5302:5327  _destinationChainSelector */\n      dup9\n        /* \"contracts/ProofSenderSepolia.sol\":5329:5343  evm2AnyMessage */\n      dup6\n        /* \"contracts/ProofSenderSepolia.sol\":5286:5344  router.ccipSend(_destinationChainSelector, evm2AnyMessage) */\n      mload(0x40)\n      dup4\n      0xffffffff\n      and\n      0xe0\n      shl\n      dup2\n      mstore\n      0x04\n      add\n      tag_152\n      swap3\n      swap2\n      swap1\n      tag_141\n      jump\t// in\n    tag_152:\n      0x20\n      mload(0x40)\n      dup1\n      dup4\n      sub\n      dup2\n      0x00\n      dup8\n      gas\n      call\n      iszero\n      dup1\n      iszero\n      tag_154\n      jumpi\n      returndatasize\n      0x00\n      dup1\n      returndatacopy\n      revert(0x00, returndatasize)\n    tag_154:\n      pop\n      pop\n      pop\n      pop\n      mload(0x40)\n      returndatasize\n      not(0x1f)\n      0x1f\n      dup3\n      add\n      and\n      dup3\n      add\n      dup1\n      0x40\n      mstore\n      pop\n      dup2\n      add\n      swap1\n      tag_155\n      swap2\n      swap1\n      tag_156\n      jump\t// in\n    tag_155:\n        /* \"contracts/ProofSenderSepolia.sol\":5274:5344  messageId = router.ccipSend(_destinationChainSelector, evm2AnyMessage) */\n      swap4\n      pop\n        /* \"contracts/ProofSenderSepolia.sol\":5393:5409  return messageId */\n      pop\n      pop\n      pop\n        /* \"contracts/ProofSenderSepolia.sol\":4246:5416  function sendMessagePayLINK(... */\n      swap4\n      swap3\n      pop\n      pop\n      pop\n      jump\t// out\n        /* \"contracts/ProofSenderSepolia.sol\":8023:8214  function getLastReceivedMessageDetails()... */\n    tag_45:\n        /* \"contracts/ProofSenderSepolia.sol\":8111:8128  bytes32 messageId */\n      0x00\n        /* \"contracts/ProofSenderSepolia.sol\":8130:8141  bool result */\n      dup1\n        /* \"contracts/ProofSenderSepolia.sol\":8165:8186  lastReceivedMessageId */\n      sload(0x02)\n        /* \"contracts/ProofSenderSepolia.sol\":8188:8206  lastReceivedResult */\n      0x03\n      0x00\n      swap1\n      sload\n      swap1\n      0x0100\n      exp\n      swap1\n      div\n      0xff\n      and\n        /* \"contracts/ProofSenderSepolia.sol\":8157:8207  return (lastReceivedMessageId, lastReceivedResult) */\n      swap2\n      pop\n      swap2\n      pop\n        /* \"contracts/ProofSenderSepolia.sol\":8023:8214  function getLastReceivedMessageDetails()... */\n      swap1\n      swap2\n      jump\t// out\n        /* \"contracts/ProofSenderSepolia.sol\":1301:1351  mapping(address => bool) public whitelistedSenders */\n    tag_52:\n      mstore(0x20, 0x06)\n      dup1\n      0x00\n      mstore\n      keccak256(0x00, 0x40)\n      0x00\n      swap2\n      pop\n      sload\n      swap1\n      0x0100\n      exp\n      swap1\n      div\n      0xff\n      and\n      dup2\n      jump\t// out\n        /* \"contracts/ProofSenderSepolia.sol\":3868:3980  function whitelistSender(address _sender) external onlyOwner {... */\n    tag_57:\n        /* \"@chainlink/contracts-ccip/src/v0.8/ConfirmedOwnerWithProposal.sol\":1956:1976  _validateOwnership() */\n      tag_159\n        /* \"@chainlink/contracts-ccip/src/v0.8/ConfirmedOwnerWithProposal.sol\":1956:1974  _validateOwnership */\n      tag_132\n        /* \"@chainlink/contracts-ccip/src/v0.8/ConfirmedOwnerWithProposal.sol\":1956:1976  _validateOwnership() */\n      jump\t// in\n    tag_159:\n        /* \"contracts/ProofSenderSepolia.sol\":3969:3973  true */\n      0x01\n        /* \"contracts/ProofSenderSepolia.sol\":3939:3957  whitelistedSenders */\n      0x06\n        /* \"contracts/ProofSenderSepolia.sol\":3939:3966  whitelistedSenders[_sender] */\n      0x00\n        /* \"contracts/ProofSenderSepolia.sol\":3958:3965  _sender */\n      dup4\n        /* \"contracts/ProofSenderSepolia.sol\":3939:3966  whitelistedSenders[_sender] */\n      0xffffffffffffffffffffffffffffffffffffffff\n      and\n      0xffffffffffffffffffffffffffffffffffffffff\n      and\n      dup2\n      mstore\n      0x20\n      add\n      swap1\n      dup2\n      mstore\n      0x20\n      add\n      0x00\n      keccak256\n      0x00\n        /* \"contracts/ProofSenderSepolia.sol\":3939:3973  whitelistedSenders[_sender] = true */\n      0x0100\n      exp\n      dup2\n      sload\n      dup2\n      0xff\n      mul\n      not\n      and\n      swap1\n      dup4\n      iszero\n      iszero\n      mul\n      or\n      swap1\n      sstore\n      pop\n        /* \"contracts/ProofSenderSepolia.sol\":3868:3980  function whitelistSender(address _sender) external onlyOwner {... */\n      pop\n      jump\t// out\n        /* \"contracts/ProofSenderSepolia.sol\":9559:9836  function withdrawToken(... */\n    tag_62:\n        /* \"@chainlink/contracts-ccip/src/v0.8/ConfirmedOwnerWithProposal.sol\":1956:1976  _validateOwnership() */\n      tag_162\n        /* \"@chainlink/contracts-ccip/src/v0.8/ConfirmedOwnerWithProposal.sol\":1956:1974  _validateOwnership */\n      tag_132\n        /* \"@chainlink/contracts-ccip/src/v0.8/ConfirmedOwnerWithProposal.sol\":1956:1976  _validateOwnership() */\n      jump\t// in\n    tag_162:\n        /* \"contracts/ProofSenderSepolia.sol\":9718:9732  uint256 amount */\n      0x00\n        /* \"contracts/ProofSenderSepolia.sol\":9742:9748  _token */\n      dup2\n        /* \"contracts/ProofSenderSepolia.sol\":9735:9759  IERC20(_token).balanceOf */\n      0xffffffffffffffffffffffffffffffffffffffff\n      and\n      0x70a08231\n        /* \"contracts/ProofSenderSepolia.sol\":9768:9772  this */\n      address\n        /* \"contracts/ProofSenderSepolia.sol\":9735:9774  IERC20(_token).balanceOf(address(this)) */\n      mload(0x40)\n      dup3\n      0xffffffff\n      and\n      0xe0\n      shl\n      dup2\n      mstore\n      0x04\n      add\n      tag_164\n      swap2\n      swap1\n      tag_106\n      jump\t// in\n    tag_164:\n      0x20\n      mload(0x40)\n      dup1\n      dup4\n      sub\n      dup2\n      dup7\n      gas\n      staticcall\n      iszero\n      dup1\n      iszero\n      tag_166\n      jumpi\n      returndatasize\n      0x00\n      dup1\n      returndatacopy\n      revert(0x00, returndatasize)\n    tag_166:\n      pop\n      pop\n      pop\n      pop\n      mload(0x40)\n      returndatasize\n      not(0x1f)\n      0x1f\n      dup3\n      add\n      and\n      dup3\n      add\n      dup1\n      0x40\n      mstore\n      pop\n      dup2\n      add\n      swap1\n      tag_167\n      swap2\n      swap1\n      tag_145\n      jump\t// in\n    tag_167:\n        /* \"contracts/ProofSenderSepolia.sol\":9718:9774  uint256 amount = IERC20(_token).balanceOf(address(this)) */\n      swap1\n      pop\n        /* \"contracts/ProofSenderSepolia.sol\":9791:9797  _token */\n      dup2\n        /* \"contracts/ProofSenderSepolia.sol\":9784:9807  IERC20(_token).transfer */\n      0xffffffffffffffffffffffffffffffffffffffff\n      and\n      0xa9059cbb\n        /* \"contracts/ProofSenderSepolia.sol\":9808:9820  _beneficiary */\n      dup5\n        /* \"contracts/ProofSenderSepolia.sol\":9822:9828  amount */\n      dup4\n        /* \"contracts/ProofSenderSepolia.sol\":9784:9829  IERC20(_token).transfer(_beneficiary, amount) */\n      mload(0x40)\n      dup4\n      0xffffffff\n      and\n      0xe0\n      shl\n      dup2\n      mstore\n      0x04\n      add\n      tag_168\n      swap3\n      swap2\n      swap1\n      tag_147\n      jump\t// in\n    tag_168:\n      0x20\n      mload(0x40)\n      dup1\n      dup4\n      sub\n      dup2\n      0x00\n      dup8\n      gas\n      call\n      iszero\n      dup1\n      iszero\n      tag_170\n      jumpi\n      returndatasize\n      0x00\n      dup1\n      returndatacopy\n      revert(0x00, returndatasize)\n    tag_170:\n      pop\n      pop\n      pop\n      pop\n      mload(0x40)\n      returndatasize\n      not(0x1f)\n      0x1f\n      dup3\n      add\n      and\n      dup3\n      add\n      dup1\n      0x40\n      mstore\n      pop\n      dup2\n      add\n      swap1\n      tag_171\n      swap2\n      swap1\n      tag_151\n      jump\t// in\n    tag_171:\n      pop\n        /* \"contracts/ProofSenderSepolia.sol\":9659:9836  {... */\n      pop\n        /* \"contracts/ProofSenderSepolia.sol\":9559:9836  function withdrawToken(... */\n      pop\n      pop\n      jump\t// out\n        /* \"contracts/ProofSenderSepolia.sol\":928:958  bool public lastReceivedResult */\n    tag_65:\n      0x03\n      0x00\n      swap1\n      sload\n      swap1\n      0x0100\n      exp\n      swap1\n      div\n      0xff\n      and\n      dup2\n      jump\t// out\n        /* \"contracts/ProofSenderSepolia.sol\":8852:9197  function withdraw(address _beneficiary) public onlyOwner {... */\n    tag_70:\n        /* \"@chainlink/contracts-ccip/src/v0.8/ConfirmedOwnerWithProposal.sol\":1956:1976  _validateOwnership() */\n      tag_173\n        /* \"@chainlink/contracts-ccip/src/v0.8/ConfirmedOwnerWithProposal.sol\":1956:1974  _validateOwnership */\n      tag_132\n        /* \"@chainlink/contracts-ccip/src/v0.8/ConfirmedOwnerWithProposal.sol\":1956:1976  _validateOwnership() */\n      jump\t// in\n    tag_173:\n        /* \"contracts/ProofSenderSepolia.sol\":8968:8982  uint256 amount */\n      0x00\n        /* \"contracts/ProofSenderSepolia.sol\":8985:9006  address(this).balance */\n      selfbalance\n        /* \"contracts/ProofSenderSepolia.sol\":8968:9006  uint256 amount = address(this).balance */\n      swap1\n      pop\n        /* \"contracts/ProofSenderSepolia.sol\":9116:9125  bool sent */\n      0x00\n        /* \"contracts/ProofSenderSepolia.sol\":9131:9143  _beneficiary */\n      dup3\n        /* \"contracts/ProofSenderSepolia.sol\":9131:9148  _beneficiary.call */\n      0xffffffffffffffffffffffffffffffffffffffff\n      and\n        /* \"contracts/ProofSenderSepolia.sol\":9156:9162  amount */\n      dup3\n        /* \"contracts/ProofSenderSepolia.sol\":9131:9167  _beneficiary.call{value: amount}(\"\") */\n      mload(0x40)\n      tag_175\n      swap1\n      tag_176\n      jump\t// in\n    tag_175:\n      0x00\n      mload(0x40)\n      dup1\n      dup4\n      sub\n      dup2\n      dup6\n      dup8\n      gas\n      call\n      swap3\n      pop\n      pop\n      pop\n      returndatasize\n      dup1\n      0x00\n      dup2\n      eq\n      tag_179\n      jumpi\n      mload(0x40)\n      swap2\n      pop\n      and(add(returndatasize, 0x3f), not(0x1f))\n      dup3\n      add\n      0x40\n      mstore\n      returndatasize\n      dup3\n      mstore\n      returndatasize\n      0x00\n      0x20\n      dup5\n      add\n      returndatacopy\n      jump(tag_178)\n    tag_179:\n      0x60\n      swap2\n      pop\n    tag_178:\n      pop\n        /* \"contracts/ProofSenderSepolia.sol\":9115:9167  (bool sent, ) = _beneficiary.call{value: amount}(\"\") */\n      pop\n      swap1\n      pop\n        /* \"contracts/ProofSenderSepolia.sol\":9185:9189  sent */\n      dup1\n        /* \"contracts/ProofSenderSepolia.sol\":9177:9190  require(sent) */\n      tag_180\n      jumpi\n      0x00\n      dup1\n      revert\n    tag_180:\n        /* \"contracts/ProofSenderSepolia.sol\":8909:9197  {... */\n      pop\n      pop\n        /* \"contracts/ProofSenderSepolia.sol\":8852:9197  function withdraw(address _beneficiary) public onlyOwner {... */\n      pop\n      jump\t// out\n        /* \"contracts/ProofSenderSepolia.sol\":2800:2981  function denylistDestinationChain(... */\n    tag_75:\n        /* \"@chainlink/contracts-ccip/src/v0.8/ConfirmedOwnerWithProposal.sol\":1956:1976  _validateOwnership() */\n      tag_182\n        /* \"@chainlink/contracts-ccip/src/v0.8/ConfirmedOwnerWithProposal.sol\":1956:1974  _validateOwnership */\n      tag_132\n        /* \"@chainlink/contracts-ccip/src/v0.8/ConfirmedOwnerWithProposal.sol\":1956:1976  _validateOwnership() */\n      jump\t// in\n    tag_182:\n        /* \"contracts/ProofSenderSepolia.sol\":2969:2974  false */\n      0x00\n        /* \"contracts/ProofSenderSepolia.sol\":2911:2939  whitelistedDestinationChains */\n      0x04\n        /* \"contracts/ProofSenderSepolia.sol\":2911:2966  whitelistedDestinationChains[_destinationChainSelector] */\n      0x00\n        /* \"contracts/ProofSenderSepolia.sol\":2940:2965  _destinationChainSelector */\n      dup4\n        /* \"contracts/ProofSenderSepolia.sol\":2911:2966  whitelistedDestinationChains[_destinationChainSelector] */\n      0xffffffffffffffff\n      and\n      0xffffffffffffffff\n      and\n      dup2\n      mstore\n      0x20\n      add\n      swap1\n      dup2\n      mstore\n      0x20\n      add\n      0x00\n      keccak256\n      0x00\n        /* \"contracts/ProofSenderSepolia.sol\":2911:2974  whitelistedDestinationChains[_destinationChainSelector] = false */\n      0x0100\n      exp\n      dup2\n      sload\n      dup2\n      0xff\n      mul\n      not\n      and\n      swap1\n      dup4\n      iszero\n      iszero\n      mul\n      or\n      swap1\n      sstore\n      pop\n        /* \"contracts/ProofSenderSepolia.sol\":2800:2981  function denylistDestinationChain(... */\n      pop\n      jump\t// out\n        /* \"contracts/ProofSenderSepolia.sol\":3188:3349  function whitelistSourceChain(... */\n    tag_79:\n        /* \"@chainlink/contracts-ccip/src/v0.8/ConfirmedOwnerWithProposal.sol\":1956:1976  _validateOwnership() */\n      tag_185\n        /* \"@chainlink/contracts-ccip/src/v0.8/ConfirmedOwnerWithProposal.sol\":1956:1974  _validateOwnership */\n      tag_132\n        /* \"@chainlink/contracts-ccip/src/v0.8/ConfirmedOwnerWithProposal.sol\":1956:1976  _validateOwnership() */\n      jump\t// in\n    tag_185:\n        /* \"contracts/ProofSenderSepolia.sol\":3338:3342  true */\n      0x01\n        /* \"contracts/ProofSenderSepolia.sol\":3290:3313  whitelistedSourceChains */\n      0x05\n        /* \"contracts/ProofSenderSepolia.sol\":3290:3335  whitelistedSourceChains[_sourceChainSelector] */\n      0x00\n        /* \"contracts/ProofSenderSepolia.sol\":3314:3334  _sourceChainSelector */\n      dup4\n        /* \"contracts/ProofSenderSepolia.sol\":3290:3335  whitelistedSourceChains[_sourceChainSelector] */\n      0xffffffffffffffff\n      and\n      0xffffffffffffffff\n      and\n      dup2\n      mstore\n      0x20\n      add\n      swap1\n      dup2\n      mstore\n      0x20\n      add\n      0x00\n      keccak256\n      0x00\n        /* \"contracts/ProofSenderSepolia.sol\":3290:3342  whitelistedSourceChains[_sourceChainSelector] = true */\n      0x0100\n      exp\n      dup2\n      sload\n      dup2\n      0xff\n      mul\n      not\n      and\n      swap1\n      dup4\n      iszero\n      iszero\n      mul\n      or\n      swap1\n      sstore\n      pop\n        /* \"contracts/ProofSenderSepolia.sol\":3188:3349  function whitelistSourceChain(... */\n      pop\n      jump\t// out\n        /* \"contracts/ProofSenderSepolia.sol\":2404:2585  function whitelistDestinationChain(... */\n    tag_83:\n        /* \"@chainlink/contracts-ccip/src/v0.8/ConfirmedOwnerWithProposal.sol\":1956:1976  _validateOwnership() */\n      tag_188\n        /* \"@chainlink/contracts-ccip/src/v0.8/ConfirmedOwnerWithProposal.sol\":1956:1974  _validateOwnership */\n      tag_132\n        /* \"@chainlink/contracts-ccip/src/v0.8/ConfirmedOwnerWithProposal.sol\":1956:1976  _validateOwnership() */\n      jump\t// in\n    tag_188:\n        /* \"contracts/ProofSenderSepolia.sol\":2574:2578  true */\n      0x01\n        /* \"contracts/ProofSenderSepolia.sol\":2516:2544  whitelistedDestinationChains */\n      0x04\n        /* \"contracts/ProofSenderSepolia.sol\":2516:2571  whitelistedDestinationChains[_destinationChainSelector] */\n      0x00\n        /* \"contracts/ProofSenderSepolia.sol\":2545:2570  _destinationChainSelector */\n      dup4\n        /* \"contracts/ProofSenderSepolia.sol\":2516:2571  whitelistedDestinationChains[_destinationChainSelector] */\n      0xffffffffffffffff\n      and\n      0xffffffffffffffff\n      and\n      dup2\n      mstore\n      0x20\n      add\n      swap1\n      dup2\n      mstore\n      0x20\n      add\n      0x00\n      keccak256\n      0x00\n        /* \"contracts/ProofSenderSepolia.sol\":2516:2578  whitelistedDestinationChains[_destinationChainSelector] = true */\n      0x0100\n      exp\n      dup2\n      sload\n      dup2\n      0xff\n      mul\n      not\n      and\n      swap1\n      dup4\n      iszero\n      iszero\n      mul\n      or\n      swap1\n      sstore\n      pop\n        /* \"contracts/ProofSenderSepolia.sol\":2404:2585  function whitelistDestinationChain(... */\n      pop\n      jump\t// out\n        /* \"@chainlink/contracts-ccip/src/v0.8/ConfirmedOwnerWithProposal.sol\":1016:1281  function acceptOwnership() external override {... */\n    tag_86:\n        /* \"@chainlink/contracts-ccip/src/v0.8/ConfirmedOwnerWithProposal.sol\":1089:1103  s_pendingOwner */\n      0x01\n      0x00\n      swap1\n      sload\n      swap1\n      0x0100\n      exp\n      swap1\n      div\n      0xffffffffffffffffffffffffffffffffffffffff\n      and\n        /* \"@chainlink/contracts-ccip/src/v0.8/ConfirmedOwnerWithProposal.sol\":1075:1103  msg.sender == s_pendingOwner */\n      0xffffffffffffffffffffffffffffffffffffffff\n      and\n        /* \"@chainlink/contracts-ccip/src/v0.8/ConfirmedOwnerWithProposal.sol\":1075:1085  msg.sender */\n      caller\n        /* \"@chainlink/contracts-ccip/src/v0.8/ConfirmedOwnerWithProposal.sol\":1075:1103  msg.sender == s_pendingOwner */\n      0xffffffffffffffffffffffffffffffffffffffff\n      and\n      eq\n        /* \"@chainlink/contracts-ccip/src/v0.8/ConfirmedOwnerWithProposal.sol\":1067:1130  require(msg.sender == s_pendingOwner, \"Must be proposed owner\") */\n      tag_191\n      jumpi\n      mload(0x40)\n      0x08c379a000000000000000000000000000000000000000000000000000000000\n      dup2\n      mstore\n      0x04\n      add\n      tag_192\n      swap1\n      tag_193\n      jump\t// in\n    tag_192:\n      mload(0x40)\n      dup1\n      swap2\n      sub\n      swap1\n      revert\n    tag_191:\n        /* \"@chainlink/contracts-ccip/src/v0.8/ConfirmedOwnerWithProposal.sol\":1137:1153  address oldOwner */\n      0x00\n        /* \"@chainlink/contracts-ccip/src/v0.8/ConfirmedOwnerWithProposal.sol\":1156:1163  s_owner */\n      dup1\n      0x00\n      swap1\n      sload\n      swap1\n      0x0100\n      exp\n      swap1\n      div\n      0xffffffffffffffffffffffffffffffffffffffff\n      and\n        /* \"@chainlink/contracts-ccip/src/v0.8/ConfirmedOwnerWithProposal.sol\":1137:1163  address oldOwner = s_owner */\n      swap1\n      pop\n        /* \"@chainlink/contracts-ccip/src/v0.8/ConfirmedOwnerWithProposal.sol\":1179:1189  msg.sender */\n      caller\n        /* \"@chainlink/contracts-ccip/src/v0.8/ConfirmedOwnerWithProposal.sol\":1169:1176  s_owner */\n      0x00\n      dup1\n        /* \"@chainlink/contracts-ccip/src/v0.8/ConfirmedOwnerWithProposal.sol\":1169:1189  s_owner = msg.sender */\n      0x0100\n      exp\n      dup2\n      sload\n      dup2\n      0xffffffffffffffffffffffffffffffffffffffff\n      mul\n      not\n      and\n      swap1\n      dup4\n      0xffffffffffffffffffffffffffffffffffffffff\n      and\n      mul\n      or\n      swap1\n      sstore\n      pop\n        /* \"@chainlink/contracts-ccip/src/v0.8/ConfirmedOwnerWithProposal.sol\":1220:1221  0 */\n      0x00\n        /* \"@chainlink/contracts-ccip/src/v0.8/ConfirmedOwnerWithProposal.sol\":1195:1209  s_pendingOwner */\n      0x01\n      0x00\n        /* \"@chainlink/contracts-ccip/src/v0.8/ConfirmedOwnerWithProposal.sol\":1195:1222  s_pendingOwner = address(0) */\n      0x0100\n      exp\n      dup2\n      sload\n      dup2\n      0xffffffffffffffffffffffffffffffffffffffff\n      mul\n      not\n      and\n      swap1\n      dup4\n      0xffffffffffffffffffffffffffffffffffffffff\n      and\n      mul\n      or\n      swap1\n      sstore\n      pop\n        /* \"@chainlink/contracts-ccip/src/v0.8/ConfirmedOwnerWithProposal.sol\":1265:1275  msg.sender */\n      caller\n        /* \"@chainlink/contracts-ccip/src/v0.8/ConfirmedOwnerWithProposal.sol\":1234:1276  OwnershipTransferred(oldOwner, msg.sender) */\n      0xffffffffffffffffffffffffffffffffffffffff\n      and\n        /* \"@chainlink/contracts-ccip/src/v0.8/ConfirmedOwnerWithProposal.sol\":1255:1263  oldOwner */\n      dup2\n        /* \"@chainlink/contracts-ccip/src/v0.8/ConfirmedOwnerWithProposal.sol\":1234:1276  OwnershipTransferred(oldOwner, msg.sender) */\n      0xffffffffffffffffffffffffffffffffffffffff\n      and\n      0x8be0079c531659141344cd1fd0a4f28419497f9722a3daafe3b4186f6b6457e0\n      mload(0x40)\n      mload(0x40)\n      dup1\n      swap2\n      sub\n      swap1\n      log3\n        /* \"@chainlink/contracts-ccip/src/v0.8/ConfirmedOwnerWithProposal.sol\":1061:1281  {... */\n      pop\n        /* \"@chainlink/contracts-ccip/src/v0.8/ConfirmedOwnerWithProposal.sol\":1016:1281  function acceptOwnership() external override {... */\n      jump\t// out\n        /* \"contracts/ProofSenderSepolia.sol\":1187:1241  mapping(uint64 => bool) public whitelistedSourceChains */\n    tag_90:\n      mstore(0x20, 0x05)\n      dup1\n      0x00\n      mstore\n      keccak256(0x00, 0x40)\n      0x00\n      swap2\n      pop\n      sload\n      swap1\n      0x0100\n      exp\n      swap1\n      div\n      0xff\n      and\n      dup2\n      jump\t// out\n        /* \"contracts/ProofSenderSepolia.sol\":1062:1121  mapping(uint64 => bool) public whitelistedDestinationChains */\n    tag_95:\n      mstore(0x20, 0x04)\n      dup1\n      0x00\n      mstore\n      keccak256(0x00, 0x40)\n      0x00\n      swap2\n      pop\n      sload\n      swap1\n      0x0100\n      exp\n      swap1\n      div\n      0xff\n      and\n      dup2\n      jump\t// out\n        /* \"@chainlink/contracts-ccip/src/v0.8/ccip/applications/CCIPReceiver.sol\":1008:1138  function ccipReceive(Client.Any2EVMMessage calldata message) external virtual override onlyRouter {... */\n    tag_101:\n        /* \"@chainlink/contracts-ccip/src/v0.8/ccip/applications/CCIPReceiver.sol\":1790:1798  i_router */\n      immutable(\"0x9fedcbae656b90e3e39f47fe3fd17358f7efaa811276fa71a4f7681cc9e0c00a\")\n        /* \"@chainlink/contracts-ccip/src/v0.8/ccip/applications/CCIPReceiver.sol\":1768:1799  msg.sender != address(i_router) */\n      0xffffffffffffffffffffffffffffffffffffffff\n      and\n        /* \"@chainlink/contracts-ccip/src/v0.8/ccip/applications/CCIPReceiver.sol\":1768:1778  msg.sender */\n      caller\n        /* \"@chainlink/contracts-ccip/src/v0.8/ccip/applications/CCIPReceiver.sol\":1768:1799  msg.sender != address(i_router) */\n      0xffffffffffffffffffffffffffffffffffffffff\n      and\n      eq\n        /* \"@chainlink/contracts-ccip/src/v0.8/ccip/applications/CCIPReceiver.sol\":1764:1833  if (msg.sender != address(i_router)) revert InvalidRouter(msg.sender) */\n      tag_195\n      jumpi\n        /* \"@chainlink/contracts-ccip/src/v0.8/ccip/applications/CCIPReceiver.sol\":1822:1832  msg.sender */\n      caller\n        /* \"@chainlink/contracts-ccip/src/v0.8/ccip/applications/CCIPReceiver.sol\":1808:1833  InvalidRouter(msg.sender) */\n      mload(0x40)\n      0xd7f7333400000000000000000000000000000000000000000000000000000000\n      dup2\n      mstore\n      0x04\n      add\n      tag_196\n      swap2\n      swap1\n      tag_106\n      jump\t// in\n    tag_196:\n      mload(0x40)\n      dup1\n      swap2\n      sub\n      swap1\n      revert\n        /* \"@chainlink/contracts-ccip/src/v0.8/ccip/applications/CCIPReceiver.sol\":1764:1833  if (msg.sender != address(i_router)) revert InvalidRouter(msg.sender) */\n    tag_195:\n        /* \"@chainlink/contracts-ccip/src/v0.8/ccip/applications/CCIPReceiver.sol\":1112:1133  _ccipReceive(message) */\n      tag_198\n        /* \"@chainlink/contracts-ccip/src/v0.8/ccip/applications/CCIPReceiver.sol\":1125:1132  message */\n      dup2\n        /* \"@chainlink/contracts-ccip/src/v0.8/ccip/applications/CCIPReceiver.sol\":1112:1133  _ccipReceive(message) */\n      tag_199\n      swap1\n      tag_200\n      jump\t// in\n    tag_199:\n        /* \"@chainlink/contracts-ccip/src/v0.8/ccip/applications/CCIPReceiver.sol\":1112:1124  _ccipReceive */\n      tag_201\n        /* \"@chainlink/contracts-ccip/src/v0.8/ccip/applications/CCIPReceiver.sol\":1112:1133  _ccipReceive(message) */\n      jump\t// in\n    tag_198:\n        /* \"@chainlink/contracts-ccip/src/v0.8/ccip/applications/CCIPReceiver.sol\":1008:1138  function ccipReceive(Client.Any2EVMMessage calldata message) external virtual override onlyRouter {... */\n      pop\n      jump\t// out\n        /* \"@chainlink/contracts-ccip/src/v0.8/ConfirmedOwnerWithProposal.sol\":1332:1413  function owner() public view override returns (address) {... */\n    tag_104:\n        /* \"@chainlink/contracts-ccip/src/v0.8/ConfirmedOwnerWithProposal.sol\":1379:1386  address */\n      0x00\n        /* \"@chainlink/contracts-ccip/src/v0.8/ConfirmedOwnerWithProposal.sol\":1401:1408  s_owner */\n      dup1\n      0x00\n      swap1\n      sload\n      swap1\n      0x0100\n      exp\n      swap1\n      div\n      0xffffffffffffffffffffffffffffffffffffffff\n      and\n        /* \"@chainlink/contracts-ccip/src/v0.8/ConfirmedOwnerWithProposal.sol\":1394:1408  return s_owner */\n      swap1\n      pop\n        /* \"@chainlink/contracts-ccip/src/v0.8/ConfirmedOwnerWithProposal.sol\":1332:1413  function owner() public view override returns (address) {... */\n      swap1\n      jump\t// out\n        /* \"contracts/ProofSenderSepolia.sol\":4132:4240  function denySender(address _sender) external onlyOwner {... */\n    tag_110:\n        /* \"@chainlink/contracts-ccip/src/v0.8/ConfirmedOwnerWithProposal.sol\":1956:1976  _validateOwnership() */\n      tag_204\n        /* \"@chainlink/contracts-ccip/src/v0.8/ConfirmedOwnerWithProposal.sol\":1956:1974  _validateOwnership */\n      tag_132\n        /* \"@chainlink/contracts-ccip/src/v0.8/ConfirmedOwnerWithProposal.sol\":1956:1976  _validateOwnership() */\n      jump\t// in\n    tag_204:\n        /* \"contracts/ProofSenderSepolia.sol\":4228:4233  false */\n      0x00\n        /* \"contracts/ProofSenderSepolia.sol\":4198:4216  whitelistedSenders */\n      0x06\n        /* \"contracts/ProofSenderSepolia.sol\":4198:4225  whitelistedSenders[_sender] */\n      0x00\n        /* \"contracts/ProofSenderSepolia.sol\":4217:4224  _sender */\n      dup4\n        /* \"contracts/ProofSenderSepolia.sol\":4198:4225  whitelistedSenders[_sender] */\n      0xffffffffffffffffffffffffffffffffffffffff\n      and\n      0xffffffffffffffffffffffffffffffffffffffff\n      and\n      dup2\n      mstore\n      0x20\n      add\n      swap1\n      dup2\n      mstore\n      0x20\n      add\n      0x00\n      keccak256\n      0x00\n        /* \"contracts/ProofSenderSepolia.sol\":4198:4233  whitelistedSenders[_sender] = false */\n      0x0100\n      exp\n      dup2\n      sload\n      dup2\n      0xff\n      mul\n      not\n      and\n      swap1\n      dup4\n      iszero\n      iszero\n      mul\n      or\n      swap1\n      sstore\n      pop\n        /* \"contracts/ProofSenderSepolia.sol\":4132:4240  function denySender(address _sender) external onlyOwner {... */\n      pop\n      jump\t// out\n        /* \"contracts/ProofSenderSepolia.sol\":3554:3715  function denylistSourceChain(... */\n    tag_114:\n        /* \"@chainlink/contracts-ccip/src/v0.8/ConfirmedOwnerWithProposal.sol\":1956:1976  _validateOwnership() */\n      tag_207\n        /* \"@chainlink/contracts-ccip/src/v0.8/ConfirmedOwnerWithProposal.sol\":1956:1974  _validateOwnership */\n      tag_132\n        /* \"@chainlink/contracts-ccip/src/v0.8/ConfirmedOwnerWithProposal.sol\":1956:1976  _validateOwnership() */\n      jump\t// in\n    tag_207:\n        /* \"contracts/ProofSenderSepolia.sol\":3703:3708  false */\n      0x00\n        /* \"contracts/ProofSenderSepolia.sol\":3655:3678  whitelistedSourceChains */\n      0x05\n        /* \"contracts/ProofSenderSepolia.sol\":3655:3700  whitelistedSourceChains[_sourceChainSelector] */\n      0x00\n        /* \"contracts/ProofSenderSepolia.sol\":3679:3699  _sourceChainSelector */\n      dup4\n        /* \"contracts/ProofSenderSepolia.sol\":3655:3700  whitelistedSourceChains[_sourceChainSelector] */\n      0xffffffffffffffff\n      and\n      0xffffffffffffffff\n      and\n      dup2\n      mstore\n      0x20\n      add\n      swap1\n      dup2\n      mstore\n      0x20\n      add\n      0x00\n      keccak256\n      0x00\n        /* \"contracts/ProofSenderSepolia.sol\":3655:3708  whitelistedSourceChains[_sourceChainSelector] = false */\n      0x0100\n      exp\n      dup2\n      sload\n      dup2\n      0xff\n      mul\n      not\n      and\n      swap1\n      dup4\n      iszero\n      iszero\n      mul\n      or\n      swap1\n      sstore\n      pop\n        /* \"contracts/ProofSenderSepolia.sol\":3554:3715  function denylistSourceChain(... */\n      pop\n      jump\t// out\n        /* \"@chainlink/contracts-ccip/src/v0.8/ccip/applications/CCIPReceiver.sol\":1550:1636  function getRouter() public view returns (address) {... */\n    tag_117:\n        /* \"@chainlink/contracts-ccip/src/v0.8/ccip/applications/CCIPReceiver.sol\":1592:1599  address */\n      0x00\n        /* \"@chainlink/contracts-ccip/src/v0.8/ccip/applications/CCIPReceiver.sol\":1622:1630  i_router */\n      immutable(\"0x9fedcbae656b90e3e39f47fe3fd17358f7efaa811276fa71a4f7681cc9e0c00a\")\n        /* \"@chainlink/contracts-ccip/src/v0.8/ccip/applications/CCIPReceiver.sol\":1607:1631  return address(i_router) */\n      swap1\n      pop\n        /* \"@chainlink/contracts-ccip/src/v0.8/ccip/applications/CCIPReceiver.sol\":1550:1636  function getRouter() public view returns (address) {... */\n      swap1\n      jump\t// out\n        /* \"contracts/ProofSenderSepolia.sol\":5423:6476  function sendMessagePayNative(... */\n    tag_122:\n        /* \"contracts/ProofSenderSepolia.sol\":5612:5629  bytes32 messageId */\n      0x00\n        /* \"@chainlink/contracts-ccip/src/v0.8/ConfirmedOwnerWithProposal.sol\":1956:1976  _validateOwnership() */\n      tag_211\n        /* \"@chainlink/contracts-ccip/src/v0.8/ConfirmedOwnerWithProposal.sol\":1956:1974  _validateOwnership */\n      tag_132\n        /* \"@chainlink/contracts-ccip/src/v0.8/ConfirmedOwnerWithProposal.sol\":1956:1976  _validateOwnership() */\n      jump\t// in\n    tag_211:\n        /* \"contracts/ProofSenderSepolia.sol\":5759:5802  Client.EVM2AnyMessage memory evm2AnyMessage */\n      0x00\n        /* \"contracts/ProofSenderSepolia.sol\":5805:5898  _buildCCIPMessage(... */\n      tag_213\n        /* \"contracts/ProofSenderSepolia.sol\":5836:5845  _receiver */\n      dup5\n        /* \"contracts/ProofSenderSepolia.sol\":5859:5864  _data */\n      dup5\n        /* \"contracts/ProofSenderSepolia.sol\":5886:5887  0 */\n      0x00\n        /* \"contracts/ProofSenderSepolia.sol\":5805:5822  _buildCCIPMessage */\n      tag_135\n        /* \"contracts/ProofSenderSepolia.sol\":5805:5898  _buildCCIPMessage(... */\n      jump\t// in\n    tag_213:\n        /* \"contracts/ProofSenderSepolia.sol\":5759:5898  Client.EVM2AnyMessage memory evm2AnyMessage = _buildCCIPMessage(... */\n      swap1\n      pop\n        /* \"contracts/ProofSenderSepolia.sol\":5992:6012  IRouterClient router */\n      0x00\n        /* \"contracts/ProofSenderSepolia.sol\":6029:6033  this */\n      address\n        /* \"contracts/ProofSenderSepolia.sol\":6029:6043  this.getRouter */\n      0xffffffffffffffffffffffffffffffffffffffff\n      and\n      0xb0f479a1\n        /* \"contracts/ProofSenderSepolia.sol\":6029:6045  this.getRouter() */\n      mload(0x40)\n      dup2\n      0xffffffff\n      and\n      0xe0\n      shl\n      dup2\n      mstore\n      0x04\n      add\n      0x20\n      mload(0x40)\n      dup1\n      dup4\n      sub\n      dup2\n      dup7\n      gas\n      staticcall\n      iszero\n      dup1\n      iszero\n      tag_215\n      jumpi\n      returndatasize\n      0x00\n      dup1\n      returndatacopy\n      revert(0x00, returndatasize)\n    tag_215:\n      pop\n      pop\n      pop\n      pop\n      mload(0x40)\n      returndatasize\n      not(0x1f)\n      0x1f\n      dup3\n      add\n      and\n      dup3\n      add\n      dup1\n      0x40\n      mstore\n      pop\n      dup2\n      add\n      swap1\n      tag_216\n      swap2\n      swap1\n      tag_139\n      jump\t// in\n    tag_216:\n        /* \"contracts/ProofSenderSepolia.sol\":5992:6046  IRouterClient router = IRouterClient(this.getRouter()) */\n      swap1\n      pop\n        /* \"contracts/ProofSenderSepolia.sol\":6114:6126  uint256 fees */\n      0x00\n        /* \"contracts/ProofSenderSepolia.sol\":6129:6135  router */\n      dup2\n        /* \"contracts/ProofSenderSepolia.sol\":6129:6142  router.getFee */\n      0xffffffffffffffffffffffffffffffffffffffff\n      and\n      0x20487ded\n        /* \"contracts/ProofSenderSepolia.sol\":6143:6168  _destinationChainSelector */\n      dup9\n        /* \"contracts/ProofSenderSepolia.sol\":6170:6184  evm2AnyMessage */\n      dup6\n        /* \"contracts/ProofSenderSepolia.sol\":6129:6185  router.getFee(_destinationChainSelector, evm2AnyMessage) */\n      mload(0x40)\n      dup4\n      0xffffffff\n      and\n      0xe0\n      shl\n      dup2\n      mstore\n      0x04\n      add\n      tag_217\n      swap3\n      swap2\n      swap1\n      tag_141\n      jump\t// in\n    tag_217:\n      0x20\n      mload(0x40)\n      dup1\n      dup4\n      sub\n      dup2\n      dup7\n      gas\n      staticcall\n      iszero\n      dup1\n      iszero\n      tag_219\n      jumpi\n      returndatasize\n      0x00\n      dup1\n      returndatacopy\n      revert(0x00, returndatasize)\n    tag_219:\n      pop\n      pop\n      pop\n      pop\n      mload(0x40)\n      returndatasize\n      not(0x1f)\n      0x1f\n      dup3\n      add\n      and\n      dup3\n      add\n      dup1\n      0x40\n      mstore\n      pop\n      dup2\n      add\n      swap1\n      tag_220\n      swap2\n      swap1\n      tag_145\n      jump\t// in\n    tag_220:\n        /* \"contracts/ProofSenderSepolia.sol\":6114:6185  uint256 fees = router.getFee(_destinationChainSelector, evm2AnyMessage) */\n      swap1\n      pop\n        /* \"contracts/ProofSenderSepolia.sol\":6299:6305  router */\n      dup2\n        /* \"contracts/ProofSenderSepolia.sol\":6299:6314  router.ccipSend */\n      0xffffffffffffffffffffffffffffffffffffffff\n      and\n      0x96f4e9f9\n        /* \"contracts/ProofSenderSepolia.sol\":6322:6326  fees */\n      dup3\n        /* \"contracts/ProofSenderSepolia.sol\":6341:6366  _destinationChainSelector */\n      dup10\n        /* \"contracts/ProofSenderSepolia.sol\":6380:6394  evm2AnyMessage */\n      dup7\n        /* \"contracts/ProofSenderSepolia.sol\":6299:6404  router.ccipSend{value: fees}(... */\n      mload(0x40)\n      dup5\n      0xffffffff\n      and\n      0xe0\n      shl\n      dup2\n      mstore\n      0x04\n      add\n      tag_221\n      swap3\n      swap2\n      swap1\n      tag_141\n      jump\t// in\n    tag_221:\n      0x20\n      mload(0x40)\n      dup1\n      dup4\n      sub\n      dup2\n      dup6\n      dup9\n      gas\n      call\n      iszero\n      dup1\n      iszero\n      tag_223\n      jumpi\n      returndatasize\n      0x00\n      dup1\n      returndatacopy\n      revert(0x00, returndatasize)\n    tag_223:\n      pop\n      pop\n      pop\n      pop\n      pop\n      mload(0x40)\n      returndatasize\n      not(0x1f)\n      0x1f\n      dup3\n      add\n      and\n      dup3\n      add\n      dup1\n      0x40\n      mstore\n      pop\n      dup2\n      add\n      swap1\n      tag_224\n      swap2\n      swap1\n      tag_156\n      jump\t// in\n    tag_224:\n        /* \"contracts/ProofSenderSepolia.sol\":6287:6404  messageId = router.ccipSend{value: fees}(... */\n      swap4\n      pop\n        /* \"contracts/ProofSenderSepolia.sol\":6453:6469  return messageId */\n      pop\n      pop\n      pop\n        /* \"contracts/ProofSenderSepolia.sol\":5423:6476  function sendMessagePayNative(... */\n      swap4\n      swap3\n      pop\n      pop\n      pop\n      jump\t// out\n        /* \"@chainlink/contracts-ccip/src/v0.8/ConfirmedOwnerWithProposal.sol\":826:924  function transferOwnership(address to) public override onlyOwner {... */\n    tag_127:\n        /* \"@chainlink/contracts-ccip/src/v0.8/ConfirmedOwnerWithProposal.sol\":1956:1976  _validateOwnership() */\n      tag_226\n        /* \"@chainlink/contracts-ccip/src/v0.8/ConfirmedOwnerWithProposal.sol\":1956:1974  _validateOwnership */\n      tag_132\n        /* \"@chainlink/contracts-ccip/src/v0.8/ConfirmedOwnerWithProposal.sol\":1956:1976  _validateOwnership() */\n      jump\t// in\n    tag_226:\n        /* \"@chainlink/contracts-ccip/src/v0.8/ConfirmedOwnerWithProposal.sol\":897:919  _transferOwnership(to) */\n      tag_228\n        /* \"@chainlink/contracts-ccip/src/v0.8/ConfirmedOwnerWithProposal.sol\":916:918  to */\n      dup2\n        /* \"@chainlink/contracts-ccip/src/v0.8/ConfirmedOwnerWithProposal.sol\":897:915  _transferOwnership */\n      tag_229\n        /* \"@chainlink/contracts-ccip/src/v0.8/ConfirmedOwnerWithProposal.sol\":897:919  _transferOwnership(to) */\n      jump\t// in\n    tag_228:\n        /* \"@chainlink/contracts-ccip/src/v0.8/ConfirmedOwnerWithProposal.sol\":826:924  function transferOwnership(address to) public override onlyOwner {... */\n      pop\n      jump\t// out\n        /* \"@chainlink/contracts-ccip/src/v0.8/ConfirmedOwnerWithProposal.sol\":1730:1841  function _validateOwnership() internal view {... */\n    tag_132:\n        /* \"@chainlink/contracts-ccip/src/v0.8/ConfirmedOwnerWithProposal.sol\":1802:1809  s_owner */\n      0x00\n      dup1\n      sload\n      swap1\n      0x0100\n      exp\n      swap1\n      div\n      0xffffffffffffffffffffffffffffffffffffffff\n      and\n        /* \"@chainlink/contracts-ccip/src/v0.8/ConfirmedOwnerWithProposal.sol\":1788:1809  msg.sender == s_owner */\n      0xffffffffffffffffffffffffffffffffffffffff\n      and\n        /* \"@chainlink/contracts-ccip/src/v0.8/ConfirmedOwnerWithProposal.sol\":1788:1798  msg.sender */\n      caller\n        /* \"@chainlink/contracts-ccip/src/v0.8/ConfirmedOwnerWithProposal.sol\":1788:1809  msg.sender == s_owner */\n      0xffffffffffffffffffffffffffffffffffffffff\n      and\n      eq\n        /* \"@chainlink/contracts-ccip/src/v0.8/ConfirmedOwnerWithProposal.sol\":1780:1836  require(msg.sender == s_owner, \"Only callable by owner\") */\n      tag_231\n      jumpi\n      mload(0x40)\n      0x08c379a000000000000000000000000000000000000000000000000000000000\n      dup2\n      mstore\n      0x04\n      add\n      tag_232\n      swap1\n      tag_233\n      jump\t// in\n    tag_232:\n      mload(0x40)\n      dup1\n      swap2\n      sub\n      swap1\n      revert\n    tag_231:\n        /* \"@chainlink/contracts-ccip/src/v0.8/ConfirmedOwnerWithProposal.sol\":1730:1841  function _validateOwnership() internal view {... */\n      jump\t// out\n        /* \"contracts/ProofSenderSepolia.sol\":6994:8017  function _buildCCIPMessage(... */\n    tag_135:\n        /* \"contracts/ProofSenderSepolia.sol\":7143:7171  Client.EVM2AnyMessage memory */\n      tag_234\n      tag_235\n      jump\t// in\n    tag_234:\n        /* \"contracts/ProofSenderSepolia.sol\":7297:7340  Client.EVM2AnyMessage memory evm2AnyMessage */\n      0x00\n        /* \"contracts/ProofSenderSepolia.sol\":7343:7979  Client.EVM2AnyMessage({... */\n      mload(0x40)\n      dup1\n      0xa0\n      add\n      0x40\n      mstore\n      dup1\n        /* \"contracts/ProofSenderSepolia.sol\":7400:7409  _receiver */\n      dup7\n        /* \"contracts/ProofSenderSepolia.sol\":7389:7410  abi.encode(_receiver) */\n      add(0x20, mload(0x40))\n      tag_237\n      swap2\n      swap1\n      tag_106\n      jump\t// in\n    tag_237:\n      mload(0x40)\n      0x20\n      dup2\n      dup4\n      sub\n      sub\n      dup2\n      mstore\n      swap1\n      0x40\n      mstore\n        /* \"contracts/ProofSenderSepolia.sol\":7343:7979  Client.EVM2AnyMessage({... */\n      dup2\n      mstore\n      0x20\n      add\n        /* \"contracts/ProofSenderSepolia.sol\":7473:7478  _data */\n      dup6\n        /* \"contracts/ProofSenderSepolia.sol\":7462:7479  abi.encode(_data) */\n      add(0x20, mload(0x40))\n      tag_238\n      swap2\n      swap1\n      tag_239\n      jump\t// in\n    tag_238:\n      mload(0x40)\n      0x20\n      dup2\n      dup4\n      sub\n      sub\n      dup2\n      mstore\n      swap1\n      0x40\n      mstore\n        /* \"contracts/ProofSenderSepolia.sol\":7343:7979  Client.EVM2AnyMessage({... */\n      dup2\n      mstore\n      0x20\n      add\n        /* \"contracts/ProofSenderSepolia.sol\":7557:7558  0 */\n      0x00\n        /* \"contracts/ProofSenderSepolia.sol\":7529:7559  new Client.EVMTokenAmount[](0) */\n      0xffffffffffffffff\n      dup2\n      gt\n      iszero\n      tag_240\n      jumpi\n      tag_241\n      tag_242\n      jump\t// in\n    tag_241:\n    tag_240:\n      mload(0x40)\n      swap1\n      dup1\n      dup3\n      mstore\n      dup1\n      0x20\n      mul\n      0x20\n      add\n      dup3\n      add\n      0x40\n      mstore\n      dup1\n      iszero\n      tag_243\n      jumpi\n      dup2\n      0x20\n      add\n    tag_244:\n      tag_245\n      tag_246\n      jump\t// in\n    tag_245:\n      dup2\n      mstore\n      0x20\n      add\n      swap1\n      0x01\n      swap1\n      sub\n      swap1\n      dup2\n      tag_244\n      jumpi\n      swap1\n      pop\n    tag_243:\n      pop\n        /* \"contracts/ProofSenderSepolia.sol\":7343:7979  Client.EVM2AnyMessage({... */\n      dup2\n      mstore\n      0x20\n      add\n        /* \"contracts/ProofSenderSepolia.sol\":7952:7968  _feeTokenAddress */\n      dup5\n        /* \"contracts/ProofSenderSepolia.sol\":7343:7979  Client.EVM2AnyMessage({... */\n      0xffffffffffffffffffffffffffffffffffffffff\n      and\n      dup2\n      mstore\n      0x20\n      add\n        /* \"contracts/ProofSenderSepolia.sol\":7628:7826  Client._argsToBytes(... */\n      tag_247\n        /* \"contracts/ProofSenderSepolia.sol\":7755:7812  Client.EVMExtraArgsV1({gasLimit: 450_000, strict: false}) */\n      mload(0x40)\n      dup1\n      0x40\n      add\n      0x40\n      mstore\n      dup1\n        /* \"contracts/ProofSenderSepolia.sol\":7788:7795  450_000 */\n      0x06ddd0\n        /* \"contracts/ProofSenderSepolia.sol\":7755:7812  Client.EVMExtraArgsV1({gasLimit: 450_000, strict: false}) */\n      dup2\n      mstore\n      0x20\n      add\n        /* \"contracts/ProofSenderSepolia.sol\":7805:7810  false */\n      0x00\n        /* \"contracts/ProofSenderSepolia.sol\":7755:7812  Client.EVMExtraArgsV1({gasLimit: 450_000, strict: false}) */\n      iszero\n      iszero\n      dup2\n      mstore\n      pop\n        /* \"contracts/ProofSenderSepolia.sol\":7628:7647  Client._argsToBytes */\n      tag_248\n        /* \"contracts/ProofSenderSepolia.sol\":7628:7826  Client._argsToBytes(... */\n      jump\t// in\n    tag_247:\n        /* \"contracts/ProofSenderSepolia.sol\":7343:7979  Client.EVM2AnyMessage({... */\n      dup2\n      mstore\n      pop\n        /* \"contracts/ProofSenderSepolia.sol\":7297:7979  Client.EVM2AnyMessage memory evm2AnyMessage = Client.EVM2AnyMessage({... */\n      swap1\n      pop\n        /* \"contracts/ProofSenderSepolia.sol\":7996:8010  evm2AnyMessage */\n      dup1\n        /* \"contracts/ProofSenderSepolia.sol\":7989:8010  return evm2AnyMessage */\n      swap2\n      pop\n      pop\n        /* \"contracts/ProofSenderSepolia.sol\":6994:8017  function _buildCCIPMessage(... */\n      swap4\n      swap3\n      pop\n      pop\n      pop\n      jump\t// out\n        /* \"contracts/ProofSenderSepolia.sol\":6516:6988  function _ccipReceive(... */\n    tag_201:\n        /* \"contracts/ProofSenderSepolia.sol\":6787:6801  any2EvmMessage */\n      dup1\n        /* \"contracts/ProofSenderSepolia.sol\":6787:6811  any2EvmMessage.messageId */\n      0x00\n      add\n      mload\n        /* \"contracts/ProofSenderSepolia.sol\":6763:6784  lastReceivedMessageId */\n      0x02\n        /* \"contracts/ProofSenderSepolia.sol\":6763:6811  lastReceivedMessageId = any2EvmMessage.messageId */\n      dup2\n      swap1\n      sstore\n      pop\n        /* \"contracts/ProofSenderSepolia.sol\":6920:6934  any2EvmMessage */\n      dup1\n        /* \"contracts/ProofSenderSepolia.sol\":6920:6939  any2EvmMessage.data */\n      0x60\n      add\n      mload\n        /* \"contracts/ProofSenderSepolia.sol\":6909:6948  abi.decode(any2EvmMessage.data, (bool)) */\n      dup1\n      0x20\n      add\n      swap1\n      mload\n      dup2\n      add\n      swap1\n      tag_250\n      swap2\n      swap1\n      tag_151\n      jump\t// in\n    tag_250:\n        /* \"contracts/ProofSenderSepolia.sol\":6888:6906  lastReceivedResult */\n      0x03\n      0x00\n        /* \"contracts/ProofSenderSepolia.sol\":6888:6948  lastReceivedResult = abi.decode(any2EvmMessage.data, (bool)) */\n      0x0100\n      exp\n      dup2\n      sload\n      dup2\n      0xff\n      mul\n      not\n      and\n      swap1\n      dup4\n      iszero\n      iszero\n      mul\n      or\n      swap1\n      sstore\n      pop\n        /* \"contracts/ProofSenderSepolia.sol\":6516:6988  function _ccipReceive(... */\n      pop\n      jump\t// out\n        /* \"@chainlink/contracts-ccip/src/v0.8/ConfirmedOwnerWithProposal.sol\":1497:1685  function _transferOwnership(address to) private {... */\n    tag_229:\n        /* \"@chainlink/contracts-ccip/src/v0.8/ConfirmedOwnerWithProposal.sol\":1565:1575  msg.sender */\n      caller\n        /* \"@chainlink/contracts-ccip/src/v0.8/ConfirmedOwnerWithProposal.sol\":1559:1575  to != msg.sender */\n      0xffffffffffffffffffffffffffffffffffffffff\n      and\n        /* \"@chainlink/contracts-ccip/src/v0.8/ConfirmedOwnerWithProposal.sol\":1559:1561  to */\n      dup2\n        /* \"@chainlink/contracts-ccip/src/v0.8/ConfirmedOwnerWithProposal.sol\":1559:1575  to != msg.sender */\n      0xffffffffffffffffffffffffffffffffffffffff\n      and\n      sub\n        /* \"@chainlink/contracts-ccip/src/v0.8/ConfirmedOwnerWithProposal.sol\":1551:1603  require(to != msg.sender, \"Cannot transfer to self\") */\n      tag_252\n      jumpi\n      mload(0x40)\n      0x08c379a000000000000000000000000000000000000000000000000000000000\n      dup2\n      mstore\n      0x04\n      add\n      tag_253\n      swap1\n      tag_254\n      jump\t// in\n    tag_253:\n      mload(0x40)\n      dup1\n      swap2\n      sub\n      swap1\n      revert\n    tag_252:\n        /* \"@chainlink/contracts-ccip/src/v0.8/ConfirmedOwnerWithProposal.sol\":1627:1629  to */\n      dup1\n        /* \"@chainlink/contracts-ccip/src/v0.8/ConfirmedOwnerWithProposal.sol\":1610:1624  s_pendingOwner */\n      0x01\n      0x00\n        /* \"@chainlink/contracts-ccip/src/v0.8/ConfirmedOwnerWithProposal.sol\":1610:1629  s_pendingOwner = to */\n      0x0100\n      exp\n      dup2\n      sload\n      dup2\n      0xffffffffffffffffffffffffffffffffffffffff\n      mul\n      not\n      and\n      swap1\n      dup4\n      0xffffffffffffffffffffffffffffffffffffffff\n      and\n      mul\n      or\n      swap1\n      sstore\n      pop\n        /* \"@chainlink/contracts-ccip/src/v0.8/ConfirmedOwnerWithProposal.sol\":1677:1679  to */\n      dup1\n        /* \"@chainlink/contracts-ccip/src/v0.8/ConfirmedOwnerWithProposal.sol\":1641:1680  OwnershipTransferRequested(s_owner, to) */\n      0xffffffffffffffffffffffffffffffffffffffff\n      and\n        /* \"@chainlink/contracts-ccip/src/v0.8/ConfirmedOwnerWithProposal.sol\":1668:1675  s_owner */\n      0x00\n      dup1\n      sload\n      swap1\n      0x0100\n      exp\n      swap1\n      div\n      0xffffffffffffffffffffffffffffffffffffffff\n      and\n        /* \"@chainlink/contracts-ccip/src/v0.8/ConfirmedOwnerWithProposal.sol\":1641:1680  OwnershipTransferRequested(s_owner, to) */\n      0xffffffffffffffffffffffffffffffffffffffff\n      and\n      0xed8889f560326eb138920d842192f0eb3dd22b4f139c87a2c57538e05bae1278\n      mload(0x40)\n      mload(0x40)\n      dup1\n      swap2\n      sub\n      swap1\n      log3\n        /* \"@chainlink/contracts-ccip/src/v0.8/ConfirmedOwnerWithProposal.sol\":1497:1685  function _transferOwnership(address to) private {... */\n      pop\n      jump\t// out\n        /* \"@chainlink/contracts-ccip/src/v0.8/ccip/libraries/Client.sol\":1375:1545  function _argsToBytes(EVMExtraArgsV1 memory extraArgs) internal pure returns (bytes memory bts) {... */\n    tag_248:\n        /* \"@chainlink/contracts-ccip/src/v0.8/ccip/libraries/Client.sol\":1453:1469  bytes memory bts */\n      0x60\n        /* \"@chainlink/contracts-ccip/src/v0.8/ccip/libraries/Client.sol\":1201:1211  0x97a657c9 */\n      0x97a657c9\n        /* \"@chainlink/contracts-ccip/src/v0.8/ccip/libraries/Client.sol\":1507:1528  EVM_EXTRA_ARGS_V1_TAG */\n      0xe0\n      shl\n        /* \"@chainlink/contracts-ccip/src/v0.8/ccip/libraries/Client.sol\":1530:1539  extraArgs */\n      dup3\n        /* \"@chainlink/contracts-ccip/src/v0.8/ccip/libraries/Client.sol\":1484:1540  abi.encodeWithSelector(EVM_EXTRA_ARGS_V1_TAG, extraArgs) */\n      add(0x24, mload(0x40))\n      tag_256\n      swap2\n      swap1\n      tag_257\n      jump\t// in\n    tag_256:\n      mload(0x40)\n      0x20\n      dup2\n      dup4\n      sub\n      sub\n      dup2\n      mstore\n      swap1\n      0x40\n      mstore\n      swap1\n      not(0xffffffffffffffffffffffffffffffffffffffffffffffffffffffff)\n      and\n      0x20\n      dup3\n      add\n      dup1\n      mload\n      0xffffffffffffffffffffffffffffffffffffffffffffffffffffffff\n      dup4\n      dup2\n      dup4\n      and\n      or\n      dup4\n      mstore\n      pop\n      pop\n      pop\n      pop\n        /* \"@chainlink/contracts-ccip/src/v0.8/ccip/libraries/Client.sol\":1477:1540  return abi.encodeWithSelector(EVM_EXTRA_ARGS_V1_TAG, extraArgs) */\n      swap1\n      pop\n        /* \"@chainlink/contracts-ccip/src/v0.8/ccip/libraries/Client.sol\":1375:1545  function _argsToBytes(EVMExtraArgsV1 memory extraArgs) internal pure returns (bytes memory bts) {... */\n      swap2\n      swap1\n      pop\n      jump\t// out\n    tag_235:\n      mload(0x40)\n      dup1\n      0xa0\n      add\n      0x40\n      mstore\n      dup1\n      0x60\n      dup2\n      mstore\n      0x20\n      add\n      0x60\n      dup2\n      mstore\n      0x20\n      add\n      0x60\n      dup2\n      mstore\n      0x20\n      add\n      and(0xffffffffffffffffffffffffffffffffffffffff, 0x00)\n      dup2\n      mstore\n      0x20\n      add\n      0x60\n      dup2\n      mstore\n      pop\n      swap1\n      jump\t// out\n    tag_246:\n      mload(0x40)\n      dup1\n      0x40\n      add\n      0x40\n      mstore\n      dup1\n      and(0xffffffffffffffffffffffffffffffffffffffff, 0x00)\n      dup2\n      mstore\n      0x20\n      add\n      0x00\n      dup2\n      mstore\n      pop\n      swap1\n      jump\t// out\n        /* \"#utility.yul\":7:82   */\n    tag_258:\n        /* \"#utility.yul\":40:46   */\n      0x00\n        /* \"#utility.yul\":73:75   */\n      0x40\n        /* \"#utility.yul\":67:76   */\n      mload\n        /* \"#utility.yul\":57:76   */\n      swap1\n      pop\n        /* \"#utility.yul\":7:82   */\n      swap1\n      jump\t// out\n        /* \"#utility.yul\":88:205   */\n    tag_259:\n        /* \"#utility.yul\":197:198   */\n      0x00\n        /* \"#utility.yul\":194:195   */\n      dup1\n        /* \"#utility.yul\":187:199   */\n      revert\n        /* \"#utility.yul\":211:328   */\n    tag_260:\n        /* \"#utility.yul\":320:321   */\n      0x00\n        /* \"#utility.yul\":317:318   */\n      dup1\n        /* \"#utility.yul\":310:322   */\n      revert\n        /* \"#utility.yul\":334:483   */\n    tag_261:\n        /* \"#utility.yul\":370:377   */\n      0x00\n        /* \"#utility.yul\":410:476   */\n      0xffffffff00000000000000000000000000000000000000000000000000000000\n        /* \"#utility.yul\":403:408   */\n      dup3\n        /* \"#utility.yul\":399:477   */\n      and\n        /* \"#utility.yul\":388:477   */\n      swap1\n      pop\n        /* \"#utility.yul\":334:483   */\n      swap2\n      swap1\n      pop\n      jump\t// out\n        /* \"#utility.yul\":489:609   */\n    tag_262:\n        /* \"#utility.yul\":561:584   */\n      tag_364\n        /* \"#utility.yul\":578:583   */\n      dup2\n        /* \"#utility.yul\":561:584   */\n      tag_261\n      jump\t// in\n    tag_364:\n        /* \"#utility.yul\":554:559   */\n      dup2\n        /* \"#utility.yul\":551:585   */\n      eq\n        /* \"#utility.yul\":541:603   */\n      tag_365\n      jumpi\n        /* \"#utility.yul\":599:600   */\n      0x00\n        /* \"#utility.yul\":596:597   */\n      dup1\n        /* \"#utility.yul\":589:601   */\n      revert\n        /* \"#utility.yul\":541:603   */\n    tag_365:\n        /* \"#utility.yul\":489:609   */\n      pop\n      jump\t// out\n        /* \"#utility.yul\":615:752   */\n    tag_263:\n        /* \"#utility.yul\":660:665   */\n      0x00\n        /* \"#utility.yul\":698:704   */\n      dup2\n        /* \"#utility.yul\":685:705   */\n      calldataload\n        /* \"#utility.yul\":676:705   */\n      swap1\n      pop\n        /* \"#utility.yul\":714:746   */\n      tag_367\n        /* \"#utility.yul\":740:745   */\n      dup2\n        /* \"#utility.yul\":714:746   */\n      tag_262\n      jump\t// in\n    tag_367:\n        /* \"#utility.yul\":615:752   */\n      swap3\n      swap2\n      pop\n      pop\n      jump\t// out\n        /* \"#utility.yul\":758:1085   */\n    tag_32:\n        /* \"#utility.yul\":816:822   */\n      0x00\n        /* \"#utility.yul\":865:867   */\n      0x20\n        /* \"#utility.yul\":853:862   */\n      dup3\n        /* \"#utility.yul\":844:851   */\n      dup5\n        /* \"#utility.yul\":840:863   */\n      sub\n        /* \"#utility.yul\":836:868   */\n      slt\n        /* \"#utility.yul\":833:952   */\n      iszero\n      tag_369\n      jumpi\n        /* \"#utility.yul\":871:950   */\n      tag_370\n      tag_259\n      jump\t// in\n    tag_370:\n        /* \"#utility.yul\":833:952   */\n    tag_369:\n        /* \"#utility.yul\":991:992   */\n      0x00\n        /* \"#utility.yul\":1016:1068   */\n      tag_371\n        /* \"#utility.yul\":1060:1067   */\n      dup5\n        /* \"#utility.yul\":1051:1057   */\n      dup3\n        /* \"#utility.yul\":1040:1049   */\n      dup6\n        /* \"#utility.yul\":1036:1058   */\n      add\n        /* \"#utility.yul\":1016:1068   */\n      tag_263\n      jump\t// in\n    tag_371:\n        /* \"#utility.yul\":1006:1068   */\n      swap2\n      pop\n        /* \"#utility.yul\":962:1078   */\n      pop\n        /* \"#utility.yul\":758:1085   */\n      swap3\n      swap2\n      pop\n      pop\n      jump\t// out\n        /* \"#utility.yul\":1091:1181   */\n    tag_264:\n        /* \"#utility.yul\":1125:1132   */\n      0x00\n        /* \"#utility.yul\":1168:1173   */\n      dup2\n        /* \"#utility.yul\":1161:1174   */\n      iszero\n        /* \"#utility.yul\":1154:1175   */\n      iszero\n        /* \"#utility.yul\":1143:1175   */\n      swap1\n      pop\n        /* \"#utility.yul\":1091:1181   */\n      swap2\n      swap1\n      pop\n      jump\t// out\n        /* \"#utility.yul\":1187:1296   */\n    tag_265:\n        /* \"#utility.yul\":1268:1289   */\n      tag_374\n        /* \"#utility.yul\":1283:1288   */\n      dup2\n        /* \"#utility.yul\":1268:1289   */\n      tag_264\n      jump\t// in\n    tag_374:\n        /* \"#utility.yul\":1263:1266   */\n      dup3\n        /* \"#utility.yul\":1256:1290   */\n      mstore\n        /* \"#utility.yul\":1187:1296   */\n      pop\n      pop\n      jump\t// out\n        /* \"#utility.yul\":1302:1512   */\n    tag_35:\n        /* \"#utility.yul\":1389:1393   */\n      0x00\n        /* \"#utility.yul\":1427:1429   */\n      0x20\n        /* \"#utility.yul\":1416:1425   */\n      dup3\n        /* \"#utility.yul\":1412:1430   */\n      add\n        /* \"#utility.yul\":1404:1430   */\n      swap1\n      pop\n        /* \"#utility.yul\":1440:1505   */\n      tag_376\n        /* \"#utility.yul\":1502:1503   */\n      0x00\n        /* \"#utility.yul\":1491:1500   */\n      dup4\n        /* \"#utility.yul\":1487:1504   */\n      add\n        /* \"#utility.yul\":1478:1484   */\n      dup5\n        /* \"#utility.yul\":1440:1505   */\n      tag_265\n      jump\t// in\n    tag_376:\n        /* \"#utility.yul\":1302:1512   */\n      swap3\n      swap2\n      pop\n      pop\n      jump\t// out\n        /* \"#utility.yul\":1518:1619   */\n    tag_266:\n        /* \"#utility.yul\":1554:1561   */\n      0x00\n        /* \"#utility.yul\":1594:1612   */\n      0xffffffffffffffff\n        /* \"#utility.yul\":1587:1592   */\n      dup3\n        /* \"#utility.yul\":1583:1613   */\n      and\n        /* \"#utility.yul\":1572:1613   */\n      swap1\n      pop\n        /* \"#utility.yul\":1518:1619   */\n      swap2\n      swap1\n      pop\n      jump\t// out\n        /* \"#utility.yul\":1625:1745   */\n    tag_267:\n        /* \"#utility.yul\":1697:1720   */\n      tag_379\n        /* \"#utility.yul\":1714:1719   */\n      dup2\n        /* \"#utility.yul\":1697:1720   */\n      tag_266\n      jump\t// in\n    tag_379:\n        /* \"#utility.yul\":1690:1695   */\n      dup2\n        /* \"#utility.yul\":1687:1721   */\n      eq\n        /* \"#utility.yul\":1677:1739   */\n      tag_380\n      jumpi\n        /* \"#utility.yul\":1735:1736   */\n      0x00\n        /* \"#utility.yul\":1732:1733   */\n      dup1\n        /* \"#utility.yul\":1725:1737   */\n      revert\n        /* \"#utility.yul\":1677:1739   */\n    tag_380:\n        /* \"#utility.yul\":1625:1745   */\n      pop\n      jump\t// out\n        /* \"#utility.yul\":1751:1888   */\n    tag_268:\n        /* \"#utility.yul\":1796:1801   */\n      0x00\n        /* \"#utility.yul\":1834:1840   */\n      dup2\n        /* \"#utility.yul\":1821:1841   */\n      calldataload\n        /* \"#utility.yul\":1812:1841   */\n      swap1\n      pop\n        /* \"#utility.yul\":1850:1882   */\n      tag_382\n        /* \"#utility.yul\":1876:1881   */\n      dup2\n        /* \"#utility.yul\":1850:1882   */\n      tag_267\n      jump\t// in\n    tag_382:\n        /* \"#utility.yul\":1751:1888   */\n      swap3\n      swap2\n      pop\n      pop\n      jump\t// out\n        /* \"#utility.yul\":1894:2020   */\n    tag_269:\n        /* \"#utility.yul\":1931:1938   */\n      0x00\n        /* \"#utility.yul\":1971:2013   */\n      0xffffffffffffffffffffffffffffffffffffffff\n        /* \"#utility.yul\":1964:1969   */\n      dup3\n        /* \"#utility.yul\":1960:2014   */\n      and\n        /* \"#utility.yul\":1949:2014   */\n      swap1\n      pop\n        /* \"#utility.yul\":1894:2020   */\n      swap2\n      swap1\n      pop\n      jump\t// out\n        /* \"#utility.yul\":2026:2122   */\n    tag_270:\n        /* \"#utility.yul\":2063:2070   */\n      0x00\n        /* \"#utility.yul\":2092:2116   */\n      tag_385\n        /* \"#utility.yul\":2110:2115   */\n      dup3\n        /* \"#utility.yul\":2092:2116   */\n      tag_269\n      jump\t// in\n    tag_385:\n        /* \"#utility.yul\":2081:2116   */\n      swap1\n      pop\n        /* \"#utility.yul\":2026:2122   */\n      swap2\n      swap1\n      pop\n      jump\t// out\n        /* \"#utility.yul\":2128:2250   */\n    tag_271:\n        /* \"#utility.yul\":2201:2225   */\n      tag_387\n        /* \"#utility.yul\":2219:2224   */\n      dup2\n        /* \"#utility.yul\":2201:2225   */\n      tag_270\n      jump\t// in\n    tag_387:\n        /* \"#utility.yul\":2194:2199   */\n      dup2\n        /* \"#utility.yul\":2191:2226   */\n      eq\n        /* \"#utility.yul\":2181:2244   */\n      tag_388\n      jumpi\n        /* \"#utility.yul\":2240:2241   */\n      0x00\n        /* \"#utility.yul\":2237:2238   */\n      dup1\n        /* \"#utility.yul\":2230:2242   */\n      revert\n        /* \"#utility.yul\":2181:2244   */\n    tag_388:\n        /* \"#utility.yul\":2128:2250   */\n      pop\n      jump\t// out\n        /* \"#utility.yul\":2256:2395   */\n    tag_272:\n        /* \"#utility.yul\":2302:2307   */\n      0x00\n        /* \"#utility.yul\":2340:2346   */\n      dup2\n        /* \"#utility.yul\":2327:2347   */\n      calldataload\n        /* \"#utility.yul\":2318:2347   */\n      swap1\n      pop\n        /* \"#utility.yul\":2356:2389   */\n      tag_390\n        /* \"#utility.yul\":2383:2388   */\n      dup2\n        /* \"#utility.yul\":2356:2389   */\n      tag_271\n      jump\t// in\n    tag_390:\n        /* \"#utility.yul\":2256:2395   */\n      swap3\n      swap2\n      pop\n      pop\n      jump\t// out\n        /* \"#utility.yul\":2401:2518   */\n    tag_273:\n        /* \"#utility.yul\":2510:2511   */\n      0x00\n        /* \"#utility.yul\":2507:2508   */\n      dup1\n        /* \"#utility.yul\":2500:2512   */\n      revert\n        /* \"#utility.yul\":2524:2626   */\n    tag_274:\n        /* \"#utility.yul\":2565:2571   */\n      0x00\n        /* \"#utility.yul\":2616:2618   */\n      0x1f\n        /* \"#utility.yul\":2612:2619   */\n      not\n        /* \"#utility.yul\":2607:2609   */\n      0x1f\n        /* \"#utility.yul\":2600:2605   */\n      dup4\n        /* \"#utility.yul\":2596:2610   */\n      add\n        /* \"#utility.yul\":2592:2620   */\n      and\n        /* \"#utility.yul\":2582:2620   */\n      swap1\n      pop\n        /* \"#utility.yul\":2524:2626   */\n      swap2\n      swap1\n      pop\n      jump\t// out\n        /* \"#utility.yul\":2632:2812   */\n    tag_242:\n        /* \"#utility.yul\":2680:2757   */\n      0x4e487b7100000000000000000000000000000000000000000000000000000000\n        /* \"#utility.yul\":2677:2678   */\n      0x00\n        /* \"#utility.yul\":2670:2758   */\n      mstore\n        /* \"#utility.yul\":2777:2781   */\n      0x41\n        /* \"#utility.yul\":2774:2775   */\n      0x04\n        /* \"#utility.yul\":2767:2782   */\n      mstore\n        /* \"#utility.yul\":2801:2805   */\n      0x24\n        /* \"#utility.yul\":2798:2799   */\n      0x00\n        /* \"#utility.yul\":2791:2806   */\n      revert\n        /* \"#utility.yul\":2818:3099   */\n    tag_275:\n        /* \"#utility.yul\":2901:2928   */\n      tag_395\n        /* \"#utility.yul\":2923:2927   */\n      dup3\n        /* \"#utility.yul\":2901:2928   */\n      tag_274\n      jump\t// in\n    tag_395:\n        /* \"#utility.yul\":2893:2899   */\n      dup2\n        /* \"#utility.yul\":2889:2929   */\n      add\n        /* \"#utility.yul\":3031:3037   */\n      dup2\n        /* \"#utility.yul\":3019:3029   */\n      dup2\n        /* \"#utility.yul\":3016:3038   */\n      lt\n        /* \"#utility.yul\":2995:3013   */\n      0xffffffffffffffff\n        /* \"#utility.yul\":2983:2993   */\n      dup3\n        /* \"#utility.yul\":2980:3014   */\n      gt\n        /* \"#utility.yul\":2977:3039   */\n      or\n        /* \"#utility.yul\":2974:3062   */\n      iszero\n      tag_396\n      jumpi\n        /* \"#utility.yul\":3042:3060   */\n      tag_397\n      tag_242\n      jump\t// in\n    tag_397:\n        /* \"#utility.yul\":2974:3062   */\n    tag_396:\n        /* \"#utility.yul\":3082:3092   */\n      dup1\n        /* \"#utility.yul\":3078:3080   */\n      0x40\n        /* \"#utility.yul\":3071:3093   */\n      mstore\n        /* \"#utility.yul\":2861:3099   */\n      pop\n        /* \"#utility.yul\":2818:3099   */\n      pop\n      pop\n      jump\t// out\n        /* \"#utility.yul\":3105:3234   */\n    tag_276:\n        /* \"#utility.yul\":3139:3145   */\n      0x00\n        /* \"#utility.yul\":3166:3186   */\n      tag_399\n      tag_258\n      jump\t// in\n    tag_399:\n        /* \"#utility.yul\":3156:3186   */\n      swap1\n      pop\n        /* \"#utility.yul\":3195:3228   */\n      tag_400\n        /* \"#utility.yul\":3223:3227   */\n      dup3\n        /* \"#utility.yul\":3215:3221   */\n      dup3\n        /* \"#utility.yul\":3195:3228   */\n      tag_275\n      jump\t// in\n    tag_400:\n        /* \"#utility.yul\":3105:3234   */\n      swap2\n      swap1\n      pop\n      jump\t// out\n        /* \"#utility.yul\":3240:3357   */\n    tag_277:\n        /* \"#utility.yul\":3349:3350   */\n      0x00\n        /* \"#utility.yul\":3346:3347   */\n      dup1\n        /* \"#utility.yul\":3339:3351   */\n      revert\n        /* \"#utility.yul\":3363:3440   */\n    tag_278:\n        /* \"#utility.yul\":3400:3407   */\n      0x00\n        /* \"#utility.yul\":3429:3434   */\n      dup2\n        /* \"#utility.yul\":3418:3434   */\n      swap1\n      pop\n        /* \"#utility.yul\":3363:3440   */\n      swap2\n      swap1\n      pop\n      jump\t// out\n        /* \"#utility.yul\":3446:3568   */\n    tag_279:\n        /* \"#utility.yul\":3519:3543   */\n      tag_404\n        /* \"#utility.yul\":3537:3542   */\n      dup2\n        /* \"#utility.yul\":3519:3543   */\n      tag_278\n      jump\t// in\n    tag_404:\n        /* \"#utility.yul\":3512:3517   */\n      dup2\n        /* \"#utility.yul\":3509:3544   */\n      eq\n        /* \"#utility.yul\":3499:3562   */\n      tag_405\n      jumpi\n        /* \"#utility.yul\":3558:3559   */\n      0x00\n        /* \"#utility.yul\":3555:3556   */\n      dup1\n        /* \"#utility.yul\":3548:3560   */\n      revert\n        /* \"#utility.yul\":3499:3562   */\n    tag_405:\n        /* \"#utility.yul\":3446:3568   */\n      pop\n      jump\t// out\n        /* \"#utility.yul\":3574:3713   */\n    tag_280:\n        /* \"#utility.yul\":3620:3625   */\n      0x00\n        /* \"#utility.yul\":3658:3664   */\n      dup2\n        /* \"#utility.yul\":3645:3665   */\n      calldataload\n        /* \"#utility.yul\":3636:3665   */\n      swap1\n      pop\n        /* \"#utility.yul\":3674:3707   */\n      tag_407\n        /* \"#utility.yul\":3701:3706   */\n      dup2\n        /* \"#utility.yul\":3674:3707   */\n      tag_279\n      jump\t// in\n    tag_407:\n        /* \"#utility.yul\":3574:3713   */\n      swap3\n      swap2\n      pop\n      pop\n      jump\t// out\n        /* \"#utility.yul\":3749:4317   */\n    tag_281:\n        /* \"#utility.yul\":3823:3828   */\n      0x00\n        /* \"#utility.yul\":3867:3871   */\n      0x40\n        /* \"#utility.yul\":3855:3864   */\n      dup3\n        /* \"#utility.yul\":3850:3853   */\n      dup5\n        /* \"#utility.yul\":3846:3865   */\n      sub\n        /* \"#utility.yul\":3842:3872   */\n      slt\n        /* \"#utility.yul\":3839:3956   */\n      iszero\n      tag_409\n      jumpi\n        /* \"#utility.yul\":3875:3954   */\n      tag_410\n      tag_273\n      jump\t// in\n    tag_410:\n        /* \"#utility.yul\":3839:3956   */\n    tag_409:\n        /* \"#utility.yul\":3974:3995   */\n      tag_411\n        /* \"#utility.yul\":3990:3994   */\n      0x40\n        /* \"#utility.yul\":3974:3995   */\n      tag_276\n      jump\t// in\n    tag_411:\n        /* \"#utility.yul\":3965:3995   */\n      swap1\n      pop\n        /* \"#utility.yul\":4051:4052   */\n      0x00\n        /* \"#utility.yul\":4091:4140   */\n      tag_412\n        /* \"#utility.yul\":4136:4139   */\n      dup5\n        /* \"#utility.yul\":4127:4133   */\n      dup3\n        /* \"#utility.yul\":4116:4125   */\n      dup6\n        /* \"#utility.yul\":4112:4134   */\n      add\n        /* \"#utility.yul\":4091:4140   */\n      tag_280\n      jump\t// in\n    tag_412:\n        /* \"#utility.yul\":4084:4088   */\n      0x00\n        /* \"#utility.yul\":4077:4082   */\n      dup4\n        /* \"#utility.yul\":4073:4089   */\n      add\n        /* \"#utility.yul\":4066:4141   */\n      mstore\n        /* \"#utility.yul\":4005:4152   */\n      pop\n        /* \"#utility.yul\":4208:4210   */\n      0x20\n        /* \"#utility.yul\":4249:4298   */\n      tag_413\n        /* \"#utility.yul\":4294:4297   */\n      dup5\n        /* \"#utility.yul\":4285:4291   */\n      dup3\n        /* \"#utility.yul\":4274:4283   */\n      dup6\n        /* \"#utility.yul\":4270:4292   */\n      add\n        /* \"#utility.yul\":4249:4298   */\n      tag_280\n      jump\t// in\n    tag_413:\n        /* \"#utility.yul\":4242:4246   */\n      0x20\n        /* \"#utility.yul\":4235:4240   */\n      dup4\n        /* \"#utility.yul\":4231:4247   */\n      add\n        /* \"#utility.yul\":4224:4299   */\n      mstore\n        /* \"#utility.yul\":4162:4310   */\n      pop\n        /* \"#utility.yul\":3749:4317   */\n      swap3\n      swap2\n      pop\n      pop\n      jump\t// out\n        /* \"#utility.yul\":4323:4440   */\n    tag_282:\n        /* \"#utility.yul\":4432:4433   */\n      0x00\n        /* \"#utility.yul\":4429:4430   */\n      dup1\n        /* \"#utility.yul\":4422:4434   */\n      revert\n        /* \"#utility.yul\":4446:4695   */\n    tag_283:\n        /* \"#utility.yul\":4521:4525   */\n      0x00\n        /* \"#utility.yul\":4611:4629   */\n      0xffffffffffffffff\n        /* \"#utility.yul\":4603:4609   */\n      dup3\n        /* \"#utility.yul\":4600:4630   */\n      gt\n        /* \"#utility.yul\":4597:4653   */\n      iszero\n      tag_416\n      jumpi\n        /* \"#utility.yul\":4633:4651   */\n      tag_417\n      tag_242\n      jump\t// in\n    tag_417:\n        /* \"#utility.yul\":4597:4653   */\n    tag_416:\n        /* \"#utility.yul\":4683:4687   */\n      0x20\n        /* \"#utility.yul\":4675:4681   */\n      dup3\n        /* \"#utility.yul\":4671:4688   */\n      mul\n        /* \"#utility.yul\":4663:4688   */\n      swap1\n      pop\n        /* \"#utility.yul\":4446:4695   */\n      swap2\n      swap1\n      pop\n      jump\t// out\n        /* \"#utility.yul\":4701:4818   */\n    tag_284:\n        /* \"#utility.yul\":4810:4811   */\n      0x00\n        /* \"#utility.yul\":4807:4808   */\n      dup1\n        /* \"#utility.yul\":4800:4812   */\n      revert\n        /* \"#utility.yul\":4842:5485   */\n    tag_285:\n        /* \"#utility.yul\":4936:4941   */\n      0x00\n        /* \"#utility.yul\":4961:5040   */\n      tag_420\n        /* \"#utility.yul\":4977:5039   */\n      tag_421\n        /* \"#utility.yul\":5032:5038   */\n      dup5\n        /* \"#utility.yul\":4977:5039   */\n      tag_283\n      jump\t// in\n    tag_421:\n        /* \"#utility.yul\":4961:5040   */\n      tag_276\n      jump\t// in\n    tag_420:\n        /* \"#utility.yul\":4952:5040   */\n      swap1\n      pop\n        /* \"#utility.yul\":5060:5065   */\n      dup1\n        /* \"#utility.yul\":5113:5117   */\n      0x20\n        /* \"#utility.yul\":5105:5111   */\n      dup5\n        /* \"#utility.yul\":5101:5118   */\n      mul\n        /* \"#utility.yul\":5093:5099   */\n      dup4\n        /* \"#utility.yul\":5089:5119   */\n      add\n        /* \"#utility.yul\":5142:5145   */\n      dup6\n        /* \"#utility.yul\":5134:5140   */\n      dup2\n        /* \"#utility.yul\":5131:5146   */\n      gt\n        /* \"#utility.yul\":5128:5250   */\n      iszero\n      tag_422\n      jumpi\n        /* \"#utility.yul\":5161:5240   */\n      tag_423\n      tag_284\n      jump\t// in\n    tag_423:\n        /* \"#utility.yul\":5128:5250   */\n    tag_422:\n        /* \"#utility.yul\":5276:5282   */\n      dup4\n        /* \"#utility.yul\":5259:5479   */\n    tag_424:\n        /* \"#utility.yul\":5293:5299   */\n      dup2\n        /* \"#utility.yul\":5288:5291   */\n      dup2\n        /* \"#utility.yul\":5285:5300   */\n      lt\n        /* \"#utility.yul\":5259:5479   */\n      iszero\n      tag_426\n      jumpi\n        /* \"#utility.yul\":5368:5371   */\n      dup1\n        /* \"#utility.yul\":5397:5434   */\n      tag_427\n        /* \"#utility.yul\":5430:5433   */\n      dup9\n        /* \"#utility.yul\":5418:5428   */\n      dup3\n        /* \"#utility.yul\":5397:5434   */\n      tag_280\n      jump\t// in\n    tag_427:\n        /* \"#utility.yul\":5392:5395   */\n      dup5\n        /* \"#utility.yul\":5385:5435   */\n      mstore\n        /* \"#utility.yul\":5464:5468   */\n      0x20\n        /* \"#utility.yul\":5459:5462   */\n      dup5\n        /* \"#utility.yul\":5455:5469   */\n      add\n        /* \"#utility.yul\":5448:5469   */\n      swap4\n      pop\n        /* \"#utility.yul\":5335:5479   */\n      pop\n        /* \"#utility.yul\":5319:5323   */\n      0x20\n        /* \"#utility.yul\":5314:5317   */\n      dup2\n        /* \"#utility.yul\":5310:5324   */\n      add\n        /* \"#utility.yul\":5303:5324   */\n      swap1\n      pop\n        /* \"#utility.yul\":5259:5479   */\n      jump(tag_424)\n    tag_426:\n        /* \"#utility.yul\":5263:5284   */\n      pop\n        /* \"#utility.yul\":4942:5485   */\n      pop\n      pop\n        /* \"#utility.yul\":4842:5485   */\n      swap4\n      swap3\n      pop\n      pop\n      pop\n      jump\t// out\n        /* \"#utility.yul\":5509:5848   */\n    tag_286:\n        /* \"#utility.yul\":5578:5583   */\n      0x00\n        /* \"#utility.yul\":5627:5630   */\n      dup3\n        /* \"#utility.yul\":5620:5624   */\n      0x1f\n        /* \"#utility.yul\":5612:5618   */\n      dup4\n        /* \"#utility.yul\":5608:5625   */\n      add\n        /* \"#utility.yul\":5604:5631   */\n      slt\n        /* \"#utility.yul\":5594:5716   */\n      tag_429\n      jumpi\n        /* \"#utility.yul\":5635:5714   */\n      tag_430\n      tag_282\n      jump\t// in\n    tag_430:\n        /* \"#utility.yul\":5594:5716   */\n    tag_429:\n        /* \"#utility.yul\":5739:5743   */\n      0x02\n        /* \"#utility.yul\":5761:5842   */\n      tag_431\n        /* \"#utility.yul\":5838:5841   */\n      dup5\n        /* \"#utility.yul\":5830:5836   */\n      dup3\n        /* \"#utility.yul\":5822:5828   */\n      dup6\n        /* \"#utility.yul\":5761:5842   */\n      tag_285\n      jump\t// in\n    tag_431:\n        /* \"#utility.yul\":5752:5842   */\n      swap2\n      pop\n        /* \"#utility.yul\":5584:5848   */\n      pop\n        /* \"#utility.yul\":5509:5848   */\n      swap3\n      swap2\n      pop\n      pop\n      jump\t// out\n        /* \"#utility.yul\":5884:6498   */\n    tag_287:\n        /* \"#utility.yul\":5958:5963   */\n      0x00\n        /* \"#utility.yul\":6002:6006   */\n      0x80\n        /* \"#utility.yul\":5990:5999   */\n      dup3\n        /* \"#utility.yul\":5985:5988   */\n      dup5\n        /* \"#utility.yul\":5981:6000   */\n      sub\n        /* \"#utility.yul\":5977:6007   */\n      slt\n        /* \"#utility.yul\":5974:6091   */\n      iszero\n      tag_433\n      jumpi\n        /* \"#utility.yul\":6010:6089   */\n      tag_434\n      tag_273\n      jump\t// in\n    tag_434:\n        /* \"#utility.yul\":5974:6091   */\n    tag_433:\n        /* \"#utility.yul\":6109:6130   */\n      tag_435\n        /* \"#utility.yul\":6125:6129   */\n      0x40\n        /* \"#utility.yul\":6109:6130   */\n      tag_276\n      jump\t// in\n    tag_435:\n        /* \"#utility.yul\":6100:6130   */\n      swap1\n      pop\n        /* \"#utility.yul\":6186:6187   */\n      0x00\n        /* \"#utility.yul\":6226:6298   */\n      tag_436\n        /* \"#utility.yul\":6294:6297   */\n      dup5\n        /* \"#utility.yul\":6285:6291   */\n      dup3\n        /* \"#utility.yul\":6274:6283   */\n      dup6\n        /* \"#utility.yul\":6270:6292   */\n      add\n        /* \"#utility.yul\":6226:6298   */\n      tag_286\n      jump\t// in\n    tag_436:\n        /* \"#utility.yul\":6219:6223   */\n      0x00\n        /* \"#utility.yul\":6212:6217   */\n      dup4\n        /* \"#utility.yul\":6208:6224   */\n      add\n        /* \"#utility.yul\":6201:6299   */\n      mstore\n        /* \"#utility.yul\":6140:6310   */\n      pop\n        /* \"#utility.yul\":6366:6368   */\n      0x40\n        /* \"#utility.yul\":6407:6479   */\n      tag_437\n        /* \"#utility.yul\":6475:6478   */\n      dup5\n        /* \"#utility.yul\":6466:6472   */\n      dup3\n        /* \"#utility.yul\":6455:6464   */\n      dup6\n        /* \"#utility.yul\":6451:6473   */\n      add\n        /* \"#utility.yul\":6407:6479   */\n      tag_286\n      jump\t// in\n    tag_437:\n        /* \"#utility.yul\":6400:6404   */\n      0x20\n        /* \"#utility.yul\":6393:6398   */\n      dup4\n        /* \"#utility.yul\":6389:6405   */\n      add\n        /* \"#utility.yul\":6382:6480   */\n      mstore\n        /* \"#utility.yul\":6320:6491   */\n      pop\n        /* \"#utility.yul\":5884:6498   */\n      swap3\n      swap2\n      pop\n      pop\n      jump\t// out\n        /* \"#utility.yul\":6534:7335   */\n    tag_288:\n        /* \"#utility.yul\":6605:6610   */\n      0x00\n        /* \"#utility.yul\":6649:6655   */\n      0x0100\n        /* \"#utility.yul\":6637:6646   */\n      dup3\n        /* \"#utility.yul\":6632:6635   */\n      dup5\n        /* \"#utility.yul\":6628:6647   */\n      sub\n        /* \"#utility.yul\":6624:6656   */\n      slt\n        /* \"#utility.yul\":6621:6740   */\n      iszero\n      tag_439\n      jumpi\n        /* \"#utility.yul\":6659:6738   */\n      tag_440\n      tag_273\n      jump\t// in\n    tag_440:\n        /* \"#utility.yul\":6621:6740   */\n    tag_439:\n        /* \"#utility.yul\":6758:6779   */\n      tag_441\n        /* \"#utility.yul\":6774:6778   */\n      0x60\n        /* \"#utility.yul\":6758:6779   */\n      tag_276\n      jump\t// in\n    tag_441:\n        /* \"#utility.yul\":6749:6779   */\n      swap1\n      pop\n        /* \"#utility.yul\":6835:6836   */\n      0x00\n        /* \"#utility.yul\":6875:6949   */\n      tag_442\n        /* \"#utility.yul\":6945:6948   */\n      dup5\n        /* \"#utility.yul\":6936:6942   */\n      dup3\n        /* \"#utility.yul\":6925:6934   */\n      dup6\n        /* \"#utility.yul\":6921:6943   */\n      add\n        /* \"#utility.yul\":6875:6949   */\n      tag_281\n      jump\t// in\n    tag_442:\n        /* \"#utility.yul\":6868:6872   */\n      0x00\n        /* \"#utility.yul\":6861:6866   */\n      dup4\n        /* \"#utility.yul\":6857:6873   */\n      add\n        /* \"#utility.yul\":6850:6950   */\n      mstore\n        /* \"#utility.yul\":6789:6961   */\n      pop\n        /* \"#utility.yul\":7017:7019   */\n      0x40\n        /* \"#utility.yul\":7058:7132   */\n      tag_443\n        /* \"#utility.yul\":7128:7131   */\n      dup5\n        /* \"#utility.yul\":7119:7125   */\n      dup3\n        /* \"#utility.yul\":7108:7117   */\n      dup6\n        /* \"#utility.yul\":7104:7126   */\n      add\n        /* \"#utility.yul\":7058:7132   */\n      tag_287\n      jump\t// in\n    tag_443:\n        /* \"#utility.yul\":7051:7055   */\n      0x20\n        /* \"#utility.yul\":7044:7049   */\n      dup4\n        /* \"#utility.yul\":7040:7056   */\n      add\n        /* \"#utility.yul\":7033:7133   */\n      mstore\n        /* \"#utility.yul\":6971:7144   */\n      pop\n        /* \"#utility.yul\":7200:7203   */\n      0xc0\n        /* \"#utility.yul\":7242:7316   */\n      tag_444\n        /* \"#utility.yul\":7312:7315   */\n      dup5\n        /* \"#utility.yul\":7303:7309   */\n      dup3\n        /* \"#utility.yul\":7292:7301   */\n      dup6\n        /* \"#utility.yul\":7288:7310   */\n      add\n        /* \"#utility.yul\":7242:7316   */\n      tag_281\n      jump\t// in\n    tag_444:\n        /* \"#utility.yul\":7235:7239   */\n      0x40\n        /* \"#utility.yul\":7228:7233   */\n      dup4\n        /* \"#utility.yul\":7224:7240   */\n      add\n        /* \"#utility.yul\":7217:7317   */\n      mstore\n        /* \"#utility.yul\":7154:7328   */\n      pop\n        /* \"#utility.yul\":6534:7335   */\n      swap3\n      swap2\n      pop\n      pop\n      jump\t// out\n        /* \"#utility.yul\":7341:7590   */\n    tag_289:\n        /* \"#utility.yul\":7416:7420   */\n      0x00\n        /* \"#utility.yul\":7506:7524   */\n      0xffffffffffffffff\n        /* \"#utility.yul\":7498:7504   */\n      dup3\n        /* \"#utility.yul\":7495:7525   */\n      gt\n        /* \"#utility.yul\":7492:7548   */\n      iszero\n      tag_446\n      jumpi\n        /* \"#utility.yul\":7528:7546   */\n      tag_447\n      tag_242\n      jump\t// in\n    tag_447:\n        /* \"#utility.yul\":7492:7548   */\n    tag_446:\n        /* \"#utility.yul\":7578:7582   */\n      0x20\n        /* \"#utility.yul\":7570:7576   */\n      dup3\n        /* \"#utility.yul\":7566:7583   */\n      mul\n        /* \"#utility.yul\":7558:7583   */\n      swap1\n      pop\n        /* \"#utility.yul\":7341:7590   */\n      swap2\n      swap1\n      pop\n      jump\t// out\n        /* \"#utility.yul\":7614:8257   */\n    tag_290:\n        /* \"#utility.yul\":7708:7713   */\n      0x00\n        /* \"#utility.yul\":7733:7812   */\n      tag_449\n        /* \"#utility.yul\":7749:7811   */\n      tag_450\n        /* \"#utility.yul\":7804:7810   */\n      dup5\n        /* \"#utility.yul\":7749:7811   */\n      tag_289\n      jump\t// in\n    tag_450:\n        /* \"#utility.yul\":7733:7812   */\n      tag_276\n      jump\t// in\n    tag_449:\n        /* \"#utility.yul\":7724:7812   */\n      swap1\n      pop\n        /* \"#utility.yul\":7832:7837   */\n      dup1\n        /* \"#utility.yul\":7885:7889   */\n      0x20\n        /* \"#utility.yul\":7877:7883   */\n      dup5\n        /* \"#utility.yul\":7873:7890   */\n      mul\n        /* \"#utility.yul\":7865:7871   */\n      dup4\n        /* \"#utility.yul\":7861:7891   */\n      add\n        /* \"#utility.yul\":7914:7917   */\n      dup6\n        /* \"#utility.yul\":7906:7912   */\n      dup2\n        /* \"#utility.yul\":7903:7918   */\n      gt\n        /* \"#utility.yul\":7900:8022   */\n      iszero\n      tag_451\n      jumpi\n        /* \"#utility.yul\":7933:8012   */\n      tag_452\n      tag_284\n      jump\t// in\n    tag_452:\n        /* \"#utility.yul\":7900:8022   */\n    tag_451:\n        /* \"#utility.yul\":8048:8054   */\n      dup4\n        /* \"#utility.yul\":8031:8251   */\n    tag_453:\n        /* \"#utility.yul\":8065:8071   */\n      dup2\n        /* \"#utility.yul\":8060:8063   */\n      dup2\n        /* \"#utility.yul\":8057:8072   */\n      lt\n        /* \"#utility.yul\":8031:8251   */\n      iszero\n      tag_455\n      jumpi\n        /* \"#utility.yul\":8140:8143   */\n      dup1\n        /* \"#utility.yul\":8169:8206   */\n      tag_456\n        /* \"#utility.yul\":8202:8205   */\n      dup9\n        /* \"#utility.yul\":8190:8200   */\n      dup3\n        /* \"#utility.yul\":8169:8206   */\n      tag_280\n      jump\t// in\n    tag_456:\n        /* \"#utility.yul\":8164:8167   */\n      dup5\n        /* \"#utility.yul\":8157:8207   */\n      mstore\n        /* \"#utility.yul\":8236:8240   */\n      0x20\n        /* \"#utility.yul\":8231:8234   */\n      dup5\n        /* \"#utility.yul\":8227:8241   */\n      add\n        /* \"#utility.yul\":8220:8241   */\n      swap4\n      pop\n        /* \"#utility.yul\":8107:8251   */\n      pop\n        /* \"#utility.yul\":8091:8095   */\n      0x20\n        /* \"#utility.yul\":8086:8089   */\n      dup2\n        /* \"#utility.yul\":8082:8096   */\n      add\n        /* \"#utility.yul\":8075:8096   */\n      swap1\n      pop\n        /* \"#utility.yul\":8031:8251   */\n      jump(tag_453)\n    tag_455:\n        /* \"#utility.yul\":8035:8056   */\n      pop\n        /* \"#utility.yul\":7714:8257   */\n      pop\n      pop\n        /* \"#utility.yul\":7614:8257   */\n      swap4\n      swap3\n      pop\n      pop\n      pop\n      jump\t// out\n        /* \"#utility.yul\":8281:8620   */\n    tag_291:\n        /* \"#utility.yul\":8350:8355   */\n      0x00\n        /* \"#utility.yul\":8399:8402   */\n      dup3\n        /* \"#utility.yul\":8392:8396   */\n      0x1f\n        /* \"#utility.yul\":8384:8390   */\n      dup4\n        /* \"#utility.yul\":8380:8397   */\n      add\n        /* \"#utility.yul\":8376:8403   */\n      slt\n        /* \"#utility.yul\":8366:8488   */\n      tag_458\n      jumpi\n        /* \"#utility.yul\":8407:8486   */\n      tag_459\n      tag_282\n      jump\t// in\n    tag_459:\n        /* \"#utility.yul\":8366:8488   */\n    tag_458:\n        /* \"#utility.yul\":8511:8515   */\n      0x01\n        /* \"#utility.yul\":8533:8614   */\n      tag_460\n        /* \"#utility.yul\":8610:8613   */\n      dup5\n        /* \"#utility.yul\":8602:8608   */\n      dup3\n        /* \"#utility.yul\":8594:8600   */\n      dup6\n        /* \"#utility.yul\":8533:8614   */\n      tag_290\n      jump\t// in\n    tag_460:\n        /* \"#utility.yul\":8524:8614   */\n      swap2\n      pop\n        /* \"#utility.yul\":8356:8620   */\n      pop\n        /* \"#utility.yul\":8281:8620   */\n      swap3\n      swap2\n      pop\n      pop\n      jump\t// out\n        /* \"#utility.yul\":8660:9285   */\n    tag_292:\n        /* \"#utility.yul\":8735:8740   */\n      0x00\n        /* \"#utility.yul\":8779:8785   */\n      0x0120\n        /* \"#utility.yul\":8767:8776   */\n      dup3\n        /* \"#utility.yul\":8762:8765   */\n      dup5\n        /* \"#utility.yul\":8758:8777   */\n      sub\n        /* \"#utility.yul\":8754:8786   */\n      slt\n        /* \"#utility.yul\":8751:8870   */\n      iszero\n      tag_462\n      jumpi\n        /* \"#utility.yul\":8789:8868   */\n      tag_463\n      tag_273\n      jump\t// in\n    tag_463:\n        /* \"#utility.yul\":8751:8870   */\n    tag_462:\n        /* \"#utility.yul\":8888:8909   */\n      tag_464\n        /* \"#utility.yul\":8904:8908   */\n      0x40\n        /* \"#utility.yul\":8888:8909   */\n      tag_276\n      jump\t// in\n    tag_464:\n        /* \"#utility.yul\":8879:8909   */\n      swap1\n      pop\n        /* \"#utility.yul\":8969:8970   */\n      0x00\n        /* \"#utility.yul\":9009:9080   */\n      tag_465\n        /* \"#utility.yul\":9076:9079   */\n      dup5\n        /* \"#utility.yul\":9067:9073   */\n      dup3\n        /* \"#utility.yul\":9056:9065   */\n      dup6\n        /* \"#utility.yul\":9052:9074   */\n      add\n        /* \"#utility.yul\":9009:9080   */\n      tag_288\n      jump\t// in\n    tag_465:\n        /* \"#utility.yul\":9002:9006   */\n      0x00\n        /* \"#utility.yul\":8995:9000   */\n      dup4\n        /* \"#utility.yul\":8991:9007   */\n      add\n        /* \"#utility.yul\":8984:9081   */\n      mstore\n        /* \"#utility.yul\":8919:9092   */\n      pop\n        /* \"#utility.yul\":9152:9155   */\n      0x0100\n        /* \"#utility.yul\":9194:9266   */\n      tag_466\n        /* \"#utility.yul\":9262:9265   */\n      dup5\n        /* \"#utility.yul\":9253:9259   */\n      dup3\n        /* \"#utility.yul\":9242:9251   */\n      dup6\n        /* \"#utility.yul\":9238:9260   */\n      add\n        /* \"#utility.yul\":9194:9266   */\n      tag_291\n      jump\t// in\n    tag_466:\n        /* \"#utility.yul\":9187:9191   */\n      0x20\n        /* \"#utility.yul\":9180:9185   */\n      dup4\n        /* \"#utility.yul\":9176:9192   */\n      add\n        /* \"#utility.yul\":9169:9267   */\n      mstore\n        /* \"#utility.yul\":9102:9278   */\n      pop\n        /* \"#utility.yul\":8660:9285   */\n      swap3\n      swap2\n      pop\n      pop\n      jump\t// out\n        /* \"#utility.yul\":9291:9961   */\n    tag_39:\n        /* \"#utility.yul\":9393:9399   */\n      0x00\n        /* \"#utility.yul\":9401:9407   */\n      dup1\n        /* \"#utility.yul\":9409:9415   */\n      0x00\n        /* \"#utility.yul\":9458:9461   */\n      0x0160\n        /* \"#utility.yul\":9446:9455   */\n      dup5\n        /* \"#utility.yul\":9437:9444   */\n      dup7\n        /* \"#utility.yul\":9433:9456   */\n      sub\n        /* \"#utility.yul\":9429:9462   */\n      slt\n        /* \"#utility.yul\":9426:9546   */\n      iszero\n      tag_468\n      jumpi\n        /* \"#utility.yul\":9465:9544   */\n      tag_469\n      tag_259\n      jump\t// in\n    tag_469:\n        /* \"#utility.yul\":9426:9546   */\n    tag_468:\n        /* \"#utility.yul\":9585:9586   */\n      0x00\n        /* \"#utility.yul\":9610:9662   */\n      tag_470\n        /* \"#utility.yul\":9654:9661   */\n      dup7\n        /* \"#utility.yul\":9645:9651   */\n      dup3\n        /* \"#utility.yul\":9634:9643   */\n      dup8\n        /* \"#utility.yul\":9630:9652   */\n      add\n        /* \"#utility.yul\":9610:9662   */\n      tag_268\n      jump\t// in\n    tag_470:\n        /* \"#utility.yul\":9600:9662   */\n      swap4\n      pop\n        /* \"#utility.yul\":9556:9672   */\n      pop\n        /* \"#utility.yul\":9711:9713   */\n      0x20\n        /* \"#utility.yul\":9737:9790   */\n      tag_471\n        /* \"#utility.yul\":9782:9789   */\n      dup7\n        /* \"#utility.yul\":9773:9779   */\n      dup3\n        /* \"#utility.yul\":9762:9771   */\n      dup8\n        /* \"#utility.yul\":9758:9780   */\n      add\n        /* \"#utility.yul\":9737:9790   */\n      tag_272\n      jump\t// in\n    tag_471:\n        /* \"#utility.yul\":9727:9790   */\n      swap3\n      pop\n        /* \"#utility.yul\":9682:9800   */\n      pop\n        /* \"#utility.yul\":9839:9841   */\n      0x40\n        /* \"#utility.yul\":9865:9944   */\n      tag_472\n        /* \"#utility.yul\":9936:9943   */\n      dup7\n        /* \"#utility.yul\":9927:9933   */\n      dup3\n        /* \"#utility.yul\":9916:9925   */\n      dup8\n        /* \"#utility.yul\":9912:9934   */\n      add\n        /* \"#utility.yul\":9865:9944   */\n      tag_292\n      jump\t// in\n    tag_472:\n        /* \"#utility.yul\":9855:9944   */\n      swap2\n      pop\n        /* \"#utility.yul\":9810:9954   */\n      pop\n        /* \"#utility.yul\":9291:9961   */\n      swap3\n      pop\n      swap3\n      pop\n      swap3\n      jump\t// out\n        /* \"#utility.yul\":9967:10044   */\n    tag_293:\n        /* \"#utility.yul\":10004:10011   */\n      0x00\n        /* \"#utility.yul\":10033:10038   */\n      dup2\n        /* \"#utility.yul\":10022:10038   */\n      swap1\n      pop\n        /* \"#utility.yul\":9967:10044   */\n      swap2\n      swap1\n      pop\n      jump\t// out\n        /* \"#utility.yul\":10050:10168   */\n    tag_294:\n        /* \"#utility.yul\":10137:10161   */\n      tag_475\n        /* \"#utility.yul\":10155:10160   */\n      dup2\n        /* \"#utility.yul\":10137:10161   */\n      tag_293\n      jump\t// in\n    tag_475:\n        /* \"#utility.yul\":10132:10135   */\n      dup3\n        /* \"#utility.yul\":10125:10162   */\n      mstore\n        /* \"#utility.yul\":10050:10168   */\n      pop\n      pop\n      jump\t// out\n        /* \"#utility.yul\":10174:10396   */\n    tag_42:\n        /* \"#utility.yul\":10267:10271   */\n      0x00\n        /* \"#utility.yul\":10305:10307   */\n      0x20\n        /* \"#utility.yul\":10294:10303   */\n      dup3\n        /* \"#utility.yul\":10290:10308   */\n      add\n        /* \"#utility.yul\":10282:10308   */\n      swap1\n      pop\n        /* \"#utility.yul\":10318:10389   */\n      tag_477\n        /* \"#utility.yul\":10386:10387   */\n      0x00\n        /* \"#utility.yul\":10375:10384   */\n      dup4\n        /* \"#utility.yul\":10371:10388   */\n      add\n        /* \"#utility.yul\":10362:10368   */\n      dup5\n        /* \"#utility.yul\":10318:10389   */\n      tag_294\n      jump\t// in\n    tag_477:\n        /* \"#utility.yul\":10174:10396   */\n      swap3\n      swap2\n      pop\n      pop\n      jump\t// out\n        /* \"#utility.yul\":10402:10722   */\n    tag_47:\n        /* \"#utility.yul\":10517:10521   */\n      0x00\n        /* \"#utility.yul\":10555:10557   */\n      0x40\n        /* \"#utility.yul\":10544:10553   */\n      dup3\n        /* \"#utility.yul\":10540:10558   */\n      add\n        /* \"#utility.yul\":10532:10558   */\n      swap1\n      pop\n        /* \"#utility.yul\":10568:10639   */\n      tag_479\n        /* \"#utility.yul\":10636:10637   */\n      0x00\n        /* \"#utility.yul\":10625:10634   */\n      dup4\n        /* \"#utility.yul\":10621:10638   */\n      add\n        /* \"#utility.yul\":10612:10618   */\n      dup6\n        /* \"#utility.yul\":10568:10639   */\n      tag_294\n      jump\t// in\n    tag_479:\n        /* \"#utility.yul\":10649:10715   */\n      tag_480\n        /* \"#utility.yul\":10711:10713   */\n      0x20\n        /* \"#utility.yul\":10700:10709   */\n      dup4\n        /* \"#utility.yul\":10696:10714   */\n      add\n        /* \"#utility.yul\":10687:10693   */\n      dup5\n        /* \"#utility.yul\":10649:10715   */\n      tag_265\n      jump\t// in\n    tag_480:\n        /* \"#utility.yul\":10402:10722   */\n      swap4\n      swap3\n      pop\n      pop\n      pop\n      jump\t// out\n        /* \"#utility.yul\":10728:11057   */\n    tag_51:\n        /* \"#utility.yul\":10787:10793   */\n      0x00\n        /* \"#utility.yul\":10836:10838   */\n      0x20\n        /* \"#utility.yul\":10824:10833   */\n      dup3\n        /* \"#utility.yul\":10815:10822   */\n      dup5\n        /* \"#utility.yul\":10811:10834   */\n      sub\n        /* \"#utility.yul\":10807:10839   */\n      slt\n        /* \"#utility.yul\":10804:10923   */\n      iszero\n      tag_482\n      jumpi\n        /* \"#utility.yul\":10842:10921   */\n      tag_483\n      tag_259\n      jump\t// in\n    tag_483:\n        /* \"#utility.yul\":10804:10923   */\n    tag_482:\n        /* \"#utility.yul\":10962:10963   */\n      0x00\n        /* \"#utility.yul\":10987:11040   */\n      tag_484\n        /* \"#utility.yul\":11032:11039   */\n      dup5\n        /* \"#utility.yul\":11023:11029   */\n      dup3\n        /* \"#utility.yul\":11012:11021   */\n      dup6\n        /* \"#utility.yul\":11008:11030   */\n      add\n        /* \"#utility.yul\":10987:11040   */\n      tag_272\n      jump\t// in\n    tag_484:\n        /* \"#utility.yul\":10977:11040   */\n      swap2\n      pop\n        /* \"#utility.yul\":10933:11050   */\n      pop\n        /* \"#utility.yul\":10728:11057   */\n      swap3\n      swap2\n      pop\n      pop\n      jump\t// out\n        /* \"#utility.yul\":11063:11537   */\n    tag_61:\n        /* \"#utility.yul\":11131:11137   */\n      0x00\n        /* \"#utility.yul\":11139:11145   */\n      dup1\n        /* \"#utility.yul\":11188:11190   */\n      0x40\n        /* \"#utility.yul\":11176:11185   */\n      dup4\n        /* \"#utility.yul\":11167:11174   */\n      dup6\n        /* \"#utility.yul\":11163:11186   */\n      sub\n        /* \"#utility.yul\":11159:11191   */\n      slt\n        /* \"#utility.yul\":11156:11275   */\n      iszero\n      tag_486\n      jumpi\n        /* \"#utility.yul\":11194:11273   */\n      tag_487\n      tag_259\n      jump\t// in\n    tag_487:\n        /* \"#utility.yul\":11156:11275   */\n    tag_486:\n        /* \"#utility.yul\":11314:11315   */\n      0x00\n        /* \"#utility.yul\":11339:11392   */\n      tag_488\n        /* \"#utility.yul\":11384:11391   */\n      dup6\n        /* \"#utility.yul\":11375:11381   */\n      dup3\n        /* \"#utility.yul\":11364:11373   */\n      dup7\n        /* \"#utility.yul\":11360:11382   */\n      add\n        /* \"#utility.yul\":11339:11392   */\n      tag_272\n      jump\t// in\n    tag_488:\n        /* \"#utility.yul\":11329:11392   */\n      swap3\n      pop\n        /* \"#utility.yul\":11285:11402   */\n      pop\n        /* \"#utility.yul\":11441:11443   */\n      0x20\n        /* \"#utility.yul\":11467:11520   */\n      tag_489\n        /* \"#utility.yul\":11512:11519   */\n      dup6\n        /* \"#utility.yul\":11503:11509   */\n      dup3\n        /* \"#utility.yul\":11492:11501   */\n      dup7\n        /* \"#utility.yul\":11488:11510   */\n      add\n        /* \"#utility.yul\":11467:11520   */\n      tag_272\n      jump\t// in\n    tag_489:\n        /* \"#utility.yul\":11457:11520   */\n      swap2\n      pop\n        /* \"#utility.yul\":11412:11530   */\n      pop\n        /* \"#utility.yul\":11063:11537   */\n      swap3\n      pop\n      swap3\n      swap1\n      pop\n      jump\t// out\n        /* \"#utility.yul\":11543:11870   */\n    tag_74:\n        /* \"#utility.yul\":11601:11607   */\n      0x00\n        /* \"#utility.yul\":11650:11652   */\n      0x20\n        /* \"#utility.yul\":11638:11647   */\n      dup3\n        /* \"#utility.yul\":11629:11636   */\n      dup5\n        /* \"#utility.yul\":11625:11648   */\n      sub\n        /* \"#utility.yul\":11621:11653   */\n      slt\n        /* \"#utility.yul\":11618:11737   */\n      iszero\n      tag_491\n      jumpi\n        /* \"#utility.yul\":11656:11735   */\n      tag_492\n      tag_259\n      jump\t// in\n    tag_492:\n        /* \"#utility.yul\":11618:11737   */\n    tag_491:\n        /* \"#utility.yul\":11776:11777   */\n      0x00\n        /* \"#utility.yul\":11801:11853   */\n      tag_493\n        /* \"#utility.yul\":11845:11852   */\n      dup5\n        /* \"#utility.yul\":11836:11842   */\n      dup3\n        /* \"#utility.yul\":11825:11834   */\n      dup6\n        /* \"#utility.yul\":11821:11843   */\n      add\n        /* \"#utility.yul\":11801:11853   */\n      tag_268\n      jump\t// in\n    tag_493:\n        /* \"#utility.yul\":11791:11853   */\n      swap2\n      pop\n        /* \"#utility.yul\":11747:11863   */\n      pop\n        /* \"#utility.yul\":11543:11870   */\n      swap3\n      swap2\n      pop\n      pop\n      jump\t// out\n        /* \"#utility.yul\":11876:11993   */\n    tag_295:\n        /* \"#utility.yul\":11985:11986   */\n      0x00\n        /* \"#utility.yul\":11982:11983   */\n      dup1\n        /* \"#utility.yul\":11975:11987   */\n      revert\n        /* \"#utility.yul\":12035:12273   */\n    tag_296:\n        /* \"#utility.yul\":12114:12119   */\n      0x00\n        /* \"#utility.yul\":12155:12158   */\n      0xa0\n        /* \"#utility.yul\":12146:12152   */\n      dup3\n        /* \"#utility.yul\":12141:12144   */\n      dup5\n        /* \"#utility.yul\":12137:12153   */\n      sub\n        /* \"#utility.yul\":12133:12159   */\n      slt\n        /* \"#utility.yul\":12130:12243   */\n      iszero\n      tag_496\n      jumpi\n        /* \"#utility.yul\":12162:12241   */\n      tag_497\n      tag_295\n      jump\t// in\n    tag_497:\n        /* \"#utility.yul\":12130:12243   */\n    tag_496:\n        /* \"#utility.yul\":12261:12267   */\n      dup2\n        /* \"#utility.yul\":12252:12267   */\n      swap1\n      pop\n        /* \"#utility.yul\":12035:12273   */\n      swap3\n      swap2\n      pop\n      pop\n      jump\t// out\n        /* \"#utility.yul\":12279:12834   */\n    tag_100:\n        /* \"#utility.yul\":12371:12377   */\n      0x00\n        /* \"#utility.yul\":12420:12422   */\n      0x20\n        /* \"#utility.yul\":12408:12417   */\n      dup3\n        /* \"#utility.yul\":12399:12406   */\n      dup5\n        /* \"#utility.yul\":12395:12418   */\n      sub\n        /* \"#utility.yul\":12391:12423   */\n      slt\n        /* \"#utility.yul\":12388:12507   */\n      iszero\n      tag_499\n      jumpi\n        /* \"#utility.yul\":12426:12505   */\n      tag_500\n      tag_259\n      jump\t// in\n    tag_500:\n        /* \"#utility.yul\":12388:12507   */\n    tag_499:\n        /* \"#utility.yul\":12574:12575   */\n      0x00\n        /* \"#utility.yul\":12563:12572   */\n      dup3\n        /* \"#utility.yul\":12559:12576   */\n      add\n        /* \"#utility.yul\":12546:12577   */\n      calldataload\n        /* \"#utility.yul\":12604:12622   */\n      0xffffffffffffffff\n        /* \"#utility.yul\":12596:12602   */\n      dup2\n        /* \"#utility.yul\":12593:12623   */\n      gt\n        /* \"#utility.yul\":12590:12707   */\n      iszero\n      tag_501\n      jumpi\n        /* \"#utility.yul\":12626:12705   */\n      tag_502\n      tag_260\n      jump\t// in\n    tag_502:\n        /* \"#utility.yul\":12590:12707   */\n    tag_501:\n        /* \"#utility.yul\":12731:12817   */\n      tag_503\n        /* \"#utility.yul\":12809:12816   */\n      dup5\n        /* \"#utility.yul\":12800:12806   */\n      dup3\n        /* \"#utility.yul\":12789:12798   */\n      dup6\n        /* \"#utility.yul\":12785:12807   */\n      add\n        /* \"#utility.yul\":12731:12817   */\n      tag_296\n      jump\t// in\n    tag_503:\n        /* \"#utility.yul\":12721:12817   */\n      swap2\n      pop\n        /* \"#utility.yul\":12517:12827   */\n      pop\n        /* \"#utility.yul\":12279:12834   */\n      swap3\n      swap2\n      pop\n      pop\n      jump\t// out\n        /* \"#utility.yul\":12840:12958   */\n    tag_297:\n        /* \"#utility.yul\":12927:12951   */\n      tag_505\n        /* \"#utility.yul\":12945:12950   */\n      dup2\n        /* \"#utility.yul\":12927:12951   */\n      tag_270\n      jump\t// in\n    tag_505:\n        /* \"#utility.yul\":12922:12925   */\n      dup3\n        /* \"#utility.yul\":12915:12952   */\n      mstore\n        /* \"#utility.yul\":12840:12958   */\n      pop\n      pop\n      jump\t// out\n        /* \"#utility.yul\":12964:13186   */\n    tag_106:\n        /* \"#utility.yul\":13057:13061   */\n      0x00\n        /* \"#utility.yul\":13095:13097   */\n      0x20\n        /* \"#utility.yul\":13084:13093   */\n      dup3\n        /* \"#utility.yul\":13080:13098   */\n      add\n        /* \"#utility.yul\":13072:13098   */\n      swap1\n      pop\n        /* \"#utility.yul\":13108:13179   */\n      tag_507\n        /* \"#utility.yul\":13176:13177   */\n      0x00\n        /* \"#utility.yul\":13165:13174   */\n      dup4\n        /* \"#utility.yul\":13161:13178   */\n      add\n        /* \"#utility.yul\":13152:13158   */\n      dup5\n        /* \"#utility.yul\":13108:13179   */\n      tag_297\n      jump\t// in\n    tag_507:\n        /* \"#utility.yul\":12964:13186   */\n      swap3\n      swap2\n      pop\n      pop\n      jump\t// out\n        /* \"#utility.yul\":13192:13335   */\n    tag_298:\n        /* \"#utility.yul\":13249:13254   */\n      0x00\n        /* \"#utility.yul\":13280:13286   */\n      dup2\n        /* \"#utility.yul\":13274:13287   */\n      mload\n        /* \"#utility.yul\":13265:13287   */\n      swap1\n      pop\n        /* \"#utility.yul\":13296:13329   */\n      tag_509\n        /* \"#utility.yul\":13323:13328   */\n      dup2\n        /* \"#utility.yul\":13296:13329   */\n      tag_271\n      jump\t// in\n    tag_509:\n        /* \"#utility.yul\":13192:13335   */\n      swap3\n      swap2\n      pop\n      pop\n      jump\t// out\n        /* \"#utility.yul\":13341:13692   */\n    tag_139:\n        /* \"#utility.yul\":13411:13417   */\n      0x00\n        /* \"#utility.yul\":13460:13462   */\n      0x20\n        /* \"#utility.yul\":13448:13457   */\n      dup3\n        /* \"#utility.yul\":13439:13446   */\n      dup5\n        /* \"#utility.yul\":13435:13458   */\n      sub\n        /* \"#utility.yul\":13431:13463   */\n      slt\n        /* \"#utility.yul\":13428:13547   */\n      iszero\n      tag_511\n      jumpi\n        /* \"#utility.yul\":13466:13545   */\n      tag_512\n      tag_259\n      jump\t// in\n    tag_512:\n        /* \"#utility.yul\":13428:13547   */\n    tag_511:\n        /* \"#utility.yul\":13586:13587   */\n      0x00\n        /* \"#utility.yul\":13611:13675   */\n      tag_513\n        /* \"#utility.yul\":13667:13674   */\n      dup5\n        /* \"#utility.yul\":13658:13664   */\n      dup3\n        /* \"#utility.yul\":13647:13656   */\n      dup6\n        /* \"#utility.yul\":13643:13665   */\n      add\n        /* \"#utility.yul\":13611:13675   */\n      tag_298\n      jump\t// in\n    tag_513:\n        /* \"#utility.yul\":13601:13675   */\n      swap2\n      pop\n        /* \"#utility.yul\":13557:13685   */\n      pop\n        /* \"#utility.yul\":13341:13692   */\n      swap3\n      swap2\n      pop\n      pop\n      jump\t// out\n        /* \"#utility.yul\":13698:13813   */\n    tag_299:\n        /* \"#utility.yul\":13783:13806   */\n      tag_515\n        /* \"#utility.yul\":13800:13805   */\n      dup2\n        /* \"#utility.yul\":13783:13806   */\n      tag_266\n      jump\t// in\n    tag_515:\n        /* \"#utility.yul\":13778:13781   */\n      dup3\n        /* \"#utility.yul\":13771:13807   */\n      mstore\n        /* \"#utility.yul\":13698:13813   */\n      pop\n      pop\n      jump\t// out\n        /* \"#utility.yul\":13819:13917   */\n    tag_300:\n        /* \"#utility.yul\":13870:13876   */\n      0x00\n        /* \"#utility.yul\":13904:13909   */\n      dup2\n        /* \"#utility.yul\":13898:13910   */\n      mload\n        /* \"#utility.yul\":13888:13910   */\n      swap1\n      pop\n        /* \"#utility.yul\":13819:13917   */\n      swap2\n      swap1\n      pop\n      jump\t// out\n        /* \"#utility.yul\":13923:14081   */\n    tag_301:\n        /* \"#utility.yul\":13996:14007   */\n      0x00\n        /* \"#utility.yul\":14030:14036   */\n      dup3\n        /* \"#utility.yul\":14025:14028   */\n      dup3\n        /* \"#utility.yul\":14018:14037   */\n      mstore\n        /* \"#utility.yul\":14070:14074   */\n      0x20\n        /* \"#utility.yul\":14065:14068   */\n      dup3\n        /* \"#utility.yul\":14061:14075   */\n      add\n        /* \"#utility.yul\":14046:14075   */\n      swap1\n      pop\n        /* \"#utility.yul\":13923:14081   */\n      swap3\n      swap2\n      pop\n      pop\n      jump\t// out\n        /* \"#utility.yul\":14087:14333   */\n    tag_302:\n        /* \"#utility.yul\":14168:14169   */\n      0x00\n        /* \"#utility.yul\":14178:14291   */\n    tag_519:\n        /* \"#utility.yul\":14192:14198   */\n      dup4\n        /* \"#utility.yul\":14189:14190   */\n      dup2\n        /* \"#utility.yul\":14186:14199   */\n      lt\n        /* \"#utility.yul\":14178:14291   */\n      iszero\n      tag_521\n      jumpi\n        /* \"#utility.yul\":14277:14278   */\n      dup1\n        /* \"#utility.yul\":14272:14275   */\n      dup3\n        /* \"#utility.yul\":14268:14279   */\n      add\n        /* \"#utility.yul\":14262:14280   */\n      mload\n        /* \"#utility.yul\":14258:14259   */\n      dup2\n        /* \"#utility.yul\":14253:14256   */\n      dup5\n        /* \"#utility.yul\":14249:14260   */\n      add\n        /* \"#utility.yul\":14242:14281   */\n      mstore\n        /* \"#utility.yul\":14214:14216   */\n      0x20\n        /* \"#utility.yul\":14211:14212   */\n      dup2\n        /* \"#utility.yul\":14207:14217   */\n      add\n        /* \"#utility.yul\":14202:14217   */\n      swap1\n      pop\n        /* \"#utility.yul\":14178:14291   */\n      jump(tag_519)\n    tag_521:\n        /* \"#utility.yul\":14325:14326   */\n      0x00\n        /* \"#utility.yul\":14316:14322   */\n      dup5\n        /* \"#utility.yul\":14311:14314   */\n      dup5\n        /* \"#utility.yul\":14307:14323   */\n      add\n        /* \"#utility.yul\":14300:14327   */\n      mstore\n        /* \"#utility.yul\":14149:14333   */\n      pop\n        /* \"#utility.yul\":14087:14333   */\n      pop\n      pop\n      pop\n      jump\t// out\n        /* \"#utility.yul\":14339:14692   */\n    tag_303:\n        /* \"#utility.yul\":14415:14418   */\n      0x00\n        /* \"#utility.yul\":14443:14481   */\n      tag_523\n        /* \"#utility.yul\":14475:14480   */\n      dup3\n        /* \"#utility.yul\":14443:14481   */\n      tag_300\n      jump\t// in\n    tag_523:\n        /* \"#utility.yul\":14497:14557   */\n      tag_524\n        /* \"#utility.yul\":14550:14556   */\n      dup2\n        /* \"#utility.yul\":14545:14548   */\n      dup6\n        /* \"#utility.yul\":14497:14557   */\n      tag_301\n      jump\t// in\n    tag_524:\n        /* \"#utility.yul\":14490:14557   */\n      swap4\n      pop\n        /* \"#utility.yul\":14566:14631   */\n      tag_525\n        /* \"#utility.yul\":14624:14630   */\n      dup2\n        /* \"#utility.yul\":14619:14622   */\n      dup6\n        /* \"#utility.yul\":14612:14616   */\n      0x20\n        /* \"#utility.yul\":14605:14610   */\n      dup7\n        /* \"#utility.yul\":14601:14617   */\n      add\n        /* \"#utility.yul\":14566:14631   */\n      tag_302\n      jump\t// in\n    tag_525:\n        /* \"#utility.yul\":14656:14685   */\n      tag_526\n        /* \"#utility.yul\":14678:14684   */\n      dup2\n        /* \"#utility.yul\":14656:14685   */\n      tag_274\n      jump\t// in\n    tag_526:\n        /* \"#utility.yul\":14651:14654   */\n      dup5\n        /* \"#utility.yul\":14647:14686   */\n      add\n        /* \"#utility.yul\":14640:14686   */\n      swap2\n      pop\n        /* \"#utility.yul\":14419:14692   */\n      pop\n        /* \"#utility.yul\":14339:14692   */\n      swap3\n      swap2\n      pop\n      pop\n      jump\t// out\n        /* \"#utility.yul\":14698:14843   */\n    tag_304:\n        /* \"#utility.yul\":14796:14802   */\n      0x00\n        /* \"#utility.yul\":14830:14835   */\n      dup2\n        /* \"#utility.yul\":14824:14836   */\n      mload\n        /* \"#utility.yul\":14814:14836   */\n      swap1\n      pop\n        /* \"#utility.yul\":14698:14843   */\n      swap2\n      swap1\n      pop\n      jump\t// out\n        /* \"#utility.yul\":14849:15054   */\n    tag_305:\n        /* \"#utility.yul\":14969:14980   */\n      0x00\n        /* \"#utility.yul\":15003:15009   */\n      dup3\n        /* \"#utility.yul\":14998:15001   */\n      dup3\n        /* \"#utility.yul\":14991:15010   */\n      mstore\n        /* \"#utility.yul\":15043:15047   */\n      0x20\n        /* \"#utility.yul\":15038:15041   */\n      dup3\n        /* \"#utility.yul\":15034:15048   */\n      add\n        /* \"#utility.yul\":15019:15048   */\n      swap1\n      pop\n        /* \"#utility.yul\":14849:15054   */\n      swap3\n      swap2\n      pop\n      pop\n      jump\t// out\n        /* \"#utility.yul\":15060:15223   */\n    tag_306:\n        /* \"#utility.yul\":15158:15162   */\n      0x00\n        /* \"#utility.yul\":15181:15184   */\n      dup2\n        /* \"#utility.yul\":15173:15184   */\n      swap1\n      pop\n        /* \"#utility.yul\":15211:15215   */\n      0x20\n        /* \"#utility.yul\":15206:15209   */\n      dup3\n        /* \"#utility.yul\":15202:15216   */\n      add\n        /* \"#utility.yul\":15194:15216   */\n      swap1\n      pop\n        /* \"#utility.yul\":15060:15223   */\n      swap2\n      swap1\n      pop\n      jump\t// out\n        /* \"#utility.yul\":15229:15337   */\n    tag_307:\n        /* \"#utility.yul\":15306:15330   */\n      tag_531\n        /* \"#utility.yul\":15324:15329   */\n      dup2\n        /* \"#utility.yul\":15306:15330   */\n      tag_270\n      jump\t// in\n    tag_531:\n        /* \"#utility.yul\":15301:15304   */\n      dup3\n        /* \"#utility.yul\":15294:15331   */\n      mstore\n        /* \"#utility.yul\":15229:15337   */\n      pop\n      pop\n      jump\t// out\n        /* \"#utility.yul\":15343:15451   */\n    tag_308:\n        /* \"#utility.yul\":15420:15444   */\n      tag_533\n        /* \"#utility.yul\":15438:15443   */\n      dup2\n        /* \"#utility.yul\":15420:15444   */\n      tag_278\n      jump\t// in\n    tag_533:\n        /* \"#utility.yul\":15415:15418   */\n      dup3\n        /* \"#utility.yul\":15408:15445   */\n      mstore\n        /* \"#utility.yul\":15343:15451   */\n      pop\n      pop\n      jump\t// out\n        /* \"#utility.yul\":15525:16037   */\n    tag_309:\n        /* \"#utility.yul\":15674:15678   */\n      0x40\n        /* \"#utility.yul\":15669:15672   */\n      dup3\n        /* \"#utility.yul\":15665:15679   */\n      add\n        /* \"#utility.yul\":15762:15766   */\n      0x00\n        /* \"#utility.yul\":15755:15760   */\n      dup3\n        /* \"#utility.yul\":15751:15767   */\n      add\n        /* \"#utility.yul\":15745:15768   */\n      mload\n        /* \"#utility.yul\":15781:15844   */\n      tag_535\n        /* \"#utility.yul\":15838:15842   */\n      0x00\n        /* \"#utility.yul\":15833:15836   */\n      dup6\n        /* \"#utility.yul\":15829:15843   */\n      add\n        /* \"#utility.yul\":15815:15827   */\n      dup3\n        /* \"#utility.yul\":15781:15844   */\n      tag_307\n      jump\t// in\n    tag_535:\n        /* \"#utility.yul\":15689:15854   */\n      pop\n        /* \"#utility.yul\":15938:15942   */\n      0x20\n        /* \"#utility.yul\":15931:15936   */\n      dup3\n        /* \"#utility.yul\":15927:15943   */\n      add\n        /* \"#utility.yul\":15921:15944   */\n      mload\n        /* \"#utility.yul\":15957:16020   */\n      tag_536\n        /* \"#utility.yul\":16014:16018   */\n      0x20\n        /* \"#utility.yul\":16009:16012   */\n      dup6\n        /* \"#utility.yul\":16005:16019   */\n      add\n        /* \"#utility.yul\":15991:16003   */\n      dup3\n        /* \"#utility.yul\":15957:16020   */\n      tag_308\n      jump\t// in\n    tag_536:\n        /* \"#utility.yul\":15864:16030   */\n      pop\n        /* \"#utility.yul\":15643:16037   */\n      pop\n        /* \"#utility.yul\":15525:16037   */\n      pop\n      pop\n      jump\t// out\n        /* \"#utility.yul\":16043:16346   */\n    tag_310:\n        /* \"#utility.yul\":16174:16184   */\n      0x00\n        /* \"#utility.yul\":16195:16303   */\n      tag_538\n        /* \"#utility.yul\":16299:16302   */\n      dup4\n        /* \"#utility.yul\":16291:16297   */\n      dup4\n        /* \"#utility.yul\":16195:16303   */\n      tag_309\n      jump\t// in\n    tag_538:\n        /* \"#utility.yul\":16335:16339   */\n      0x40\n        /* \"#utility.yul\":16330:16333   */\n      dup4\n        /* \"#utility.yul\":16326:16340   */\n      add\n        /* \"#utility.yul\":16312:16340   */\n      swap1\n      pop\n        /* \"#utility.yul\":16043:16346   */\n      swap3\n      swap2\n      pop\n      pop\n      jump\t// out\n        /* \"#utility.yul\":16352:16496   */\n    tag_311:\n        /* \"#utility.yul\":16453:16457   */\n      0x00\n        /* \"#utility.yul\":16485:16489   */\n      0x20\n        /* \"#utility.yul\":16480:16483   */\n      dup3\n        /* \"#utility.yul\":16476:16490   */\n      add\n        /* \"#utility.yul\":16468:16490   */\n      swap1\n      pop\n        /* \"#utility.yul\":16352:16496   */\n      swap2\n      swap1\n      pop\n      jump\t// out\n        /* \"#utility.yul\":16574:17534   */\n    tag_312:\n        /* \"#utility.yul\":16745:16748   */\n      0x00\n        /* \"#utility.yul\":16774:16859   */\n      tag_541\n        /* \"#utility.yul\":16853:16858   */\n      dup3\n        /* \"#utility.yul\":16774:16859   */\n      tag_304\n      jump\t// in\n    tag_541:\n        /* \"#utility.yul\":16875:16982   */\n      tag_542\n        /* \"#utility.yul\":16975:16981   */\n      dup2\n        /* \"#utility.yul\":16970:16973   */\n      dup6\n        /* \"#utility.yul\":16875:16982   */\n      tag_305\n      jump\t// in\n    tag_542:\n        /* \"#utility.yul\":16868:16982   */\n      swap4\n      pop\n        /* \"#utility.yul\":17006:17093   */\n      tag_543\n        /* \"#utility.yul\":17087:17092   */\n      dup4\n        /* \"#utility.yul\":17006:17093   */\n      tag_306\n      jump\t// in\n    tag_543:\n        /* \"#utility.yul\":17116:17123   */\n      dup1\n        /* \"#utility.yul\":17147:17148   */\n      0x00\n        /* \"#utility.yul\":17132:17509   */\n    tag_544:\n        /* \"#utility.yul\":17157:17163   */\n      dup4\n        /* \"#utility.yul\":17154:17155   */\n      dup2\n        /* \"#utility.yul\":17151:17164   */\n      lt\n        /* \"#utility.yul\":17132:17509   */\n      iszero\n      tag_546\n      jumpi\n        /* \"#utility.yul\":17233:17239   */\n      dup2\n        /* \"#utility.yul\":17227:17240   */\n      mload\n        /* \"#utility.yul\":17260:17385   */\n      tag_547\n        /* \"#utility.yul\":17381:17384   */\n      dup9\n        /* \"#utility.yul\":17366:17379   */\n      dup3\n        /* \"#utility.yul\":17260:17385   */\n      tag_310\n      jump\t// in\n    tag_547:\n        /* \"#utility.yul\":17253:17385   */\n      swap8\n      pop\n        /* \"#utility.yul\":17408:17499   */\n      tag_548\n        /* \"#utility.yul\":17492:17498   */\n      dup4\n        /* \"#utility.yul\":17408:17499   */\n      tag_311\n      jump\t// in\n    tag_548:\n        /* \"#utility.yul\":17398:17499   */\n      swap3\n      pop\n        /* \"#utility.yul\":17192:17509   */\n      pop\n        /* \"#utility.yul\":17179:17180   */\n      0x01\n        /* \"#utility.yul\":17176:17177   */\n      dup2\n        /* \"#utility.yul\":17172:17181   */\n      add\n        /* \"#utility.yul\":17167:17181   */\n      swap1\n      pop\n        /* \"#utility.yul\":17132:17509   */\n      jump(tag_544)\n    tag_546:\n        /* \"#utility.yul\":17136:17150   */\n      pop\n        /* \"#utility.yul\":17525:17528   */\n      dup6\n        /* \"#utility.yul\":17518:17528   */\n      swap4\n      pop\n        /* \"#utility.yul\":16750:17534   */\n      pop\n      pop\n      pop\n        /* \"#utility.yul\":16574:17534   */\n      swap3\n      swap2\n      pop\n      pop\n      jump\t// out\n        /* \"#utility.yul\":17608:19068   */\n    tag_313:\n        /* \"#utility.yul\":17739:17742   */\n      0x00\n        /* \"#utility.yul\":17775:17779   */\n      0xa0\n        /* \"#utility.yul\":17770:17773   */\n      dup4\n        /* \"#utility.yul\":17766:17780   */\n      add\n        /* \"#utility.yul\":17866:17870   */\n      0x00\n        /* \"#utility.yul\":17859:17864   */\n      dup4\n        /* \"#utility.yul\":17855:17871   */\n      add\n        /* \"#utility.yul\":17849:17872   */\n      mload\n        /* \"#utility.yul\":17919:17922   */\n      dup5\n        /* \"#utility.yul\":17913:17917   */\n      dup3\n        /* \"#utility.yul\":17909:17923   */\n      sub\n        /* \"#utility.yul\":17902:17906   */\n      0x00\n        /* \"#utility.yul\":17897:17900   */\n      dup7\n        /* \"#utility.yul\":17893:17907   */\n      add\n        /* \"#utility.yul\":17886:17924   */\n      mstore\n        /* \"#utility.yul\":17945:18016   */\n      tag_550\n        /* \"#utility.yul\":18011:18015   */\n      dup3\n        /* \"#utility.yul\":17997:18009   */\n      dup3\n        /* \"#utility.yul\":17945:18016   */\n      tag_303\n      jump\t// in\n    tag_550:\n        /* \"#utility.yul\":17937:18016   */\n      swap2\n      pop\n        /* \"#utility.yul\":17790:18027   */\n      pop\n        /* \"#utility.yul\":18109:18113   */\n      0x20\n        /* \"#utility.yul\":18102:18107   */\n      dup4\n        /* \"#utility.yul\":18098:18114   */\n      add\n        /* \"#utility.yul\":18092:18115   */\n      mload\n        /* \"#utility.yul\":18162:18165   */\n      dup5\n        /* \"#utility.yul\":18156:18160   */\n      dup3\n        /* \"#utility.yul\":18152:18166   */\n      sub\n        /* \"#utility.yul\":18145:18149   */\n      0x20\n        /* \"#utility.yul\":18140:18143   */\n      dup7\n        /* \"#utility.yul\":18136:18150   */\n      add\n        /* \"#utility.yul\":18129:18167   */\n      mstore\n        /* \"#utility.yul\":18188:18259   */\n      tag_551\n        /* \"#utility.yul\":18254:18258   */\n      dup3\n        /* \"#utility.yul\":18240:18252   */\n      dup3\n        /* \"#utility.yul\":18188:18259   */\n      tag_303\n      jump\t// in\n    tag_551:\n        /* \"#utility.yul\":18180:18259   */\n      swap2\n      pop\n        /* \"#utility.yul\":18037:18270   */\n      pop\n        /* \"#utility.yul\":18360:18364   */\n      0x40\n        /* \"#utility.yul\":18353:18358   */\n      dup4\n        /* \"#utility.yul\":18349:18365   */\n      add\n        /* \"#utility.yul\":18343:18366   */\n      mload\n        /* \"#utility.yul\":18413:18416   */\n      dup5\n        /* \"#utility.yul\":18407:18411   */\n      dup3\n        /* \"#utility.yul\":18403:18417   */\n      sub\n        /* \"#utility.yul\":18396:18400   */\n      0x40\n        /* \"#utility.yul\":18391:18394   */\n      dup7\n        /* \"#utility.yul\":18387:18401   */\n      add\n        /* \"#utility.yul\":18380:18418   */\n      mstore\n        /* \"#utility.yul\":18439:18604   */\n      tag_552\n        /* \"#utility.yul\":18599:18603   */\n      dup3\n        /* \"#utility.yul\":18585:18597   */\n      dup3\n        /* \"#utility.yul\":18439:18604   */\n      tag_312\n      jump\t// in\n    tag_552:\n        /* \"#utility.yul\":18431:18604   */\n      swap2\n      pop\n        /* \"#utility.yul\":18280:18615   */\n      pop\n        /* \"#utility.yul\":18701:18705   */\n      0x60\n        /* \"#utility.yul\":18694:18699   */\n      dup4\n        /* \"#utility.yul\":18690:18706   */\n      add\n        /* \"#utility.yul\":18684:18707   */\n      mload\n        /* \"#utility.yul\":18720:18783   */\n      tag_553\n        /* \"#utility.yul\":18777:18781   */\n      0x60\n        /* \"#utility.yul\":18772:18775   */\n      dup7\n        /* \"#utility.yul\":18768:18782   */\n      add\n        /* \"#utility.yul\":18754:18766   */\n      dup3\n        /* \"#utility.yul\":18720:18783   */\n      tag_307\n      jump\t// in\n    tag_553:\n        /* \"#utility.yul\":18625:18793   */\n      pop\n        /* \"#utility.yul\":18880:18884   */\n      0x80\n        /* \"#utility.yul\":18873:18878   */\n      dup4\n        /* \"#utility.yul\":18869:18885   */\n      add\n        /* \"#utility.yul\":18863:18886   */\n      mload\n        /* \"#utility.yul\":18933:18936   */\n      dup5\n        /* \"#utility.yul\":18927:18931   */\n      dup3\n        /* \"#utility.yul\":18923:18937   */\n      sub\n        /* \"#utility.yul\":18916:18920   */\n      0x80\n        /* \"#utility.yul\":18911:18914   */\n      dup7\n        /* \"#utility.yul\":18907:18921   */\n      add\n        /* \"#utility.yul\":18900:18938   */\n      mstore\n        /* \"#utility.yul\":18959:19030   */\n      tag_554\n        /* \"#utility.yul\":19025:19029   */\n      dup3\n        /* \"#utility.yul\":19011:19023   */\n      dup3\n        /* \"#utility.yul\":18959:19030   */\n      tag_303\n      jump\t// in\n    tag_554:\n        /* \"#utility.yul\":18951:19030   */\n      swap2\n      pop\n        /* \"#utility.yul\":18803:19041   */\n      pop\n        /* \"#utility.yul\":19058:19062   */\n      dup1\n        /* \"#utility.yul\":19051:19062   */\n      swap2\n      pop\n        /* \"#utility.yul\":17744:19068   */\n      pop\n        /* \"#utility.yul\":17608:19068   */\n      swap3\n      swap2\n      pop\n      pop\n      jump\t// out\n        /* \"#utility.yul\":19074:19577   */\n    tag_141:\n        /* \"#utility.yul\":19255:19259   */\n      0x00\n        /* \"#utility.yul\":19293:19295   */\n      0x40\n        /* \"#utility.yul\":19282:19291   */\n      dup3\n        /* \"#utility.yul\":19278:19296   */\n      add\n        /* \"#utility.yul\":19270:19296   */\n      swap1\n      pop\n        /* \"#utility.yul\":19306:19375   */\n      tag_556\n        /* \"#utility.yul\":19372:19373   */\n      0x00\n        /* \"#utility.yul\":19361:19370   */\n      dup4\n        /* \"#utility.yul\":19357:19374   */\n      add\n        /* \"#utility.yul\":19348:19354   */\n      dup6\n        /* \"#utility.yul\":19306:19375   */\n      tag_299\n      jump\t// in\n    tag_556:\n        /* \"#utility.yul\":19422:19431   */\n      dup2\n        /* \"#utility.yul\":19416:19420   */\n      dup2\n        /* \"#utility.yul\":19412:19432   */\n      sub\n        /* \"#utility.yul\":19407:19409   */\n      0x20\n        /* \"#utility.yul\":19396:19405   */\n      dup4\n        /* \"#utility.yul\":19392:19410   */\n      add\n        /* \"#utility.yul\":19385:19433   */\n      mstore\n        /* \"#utility.yul\":19450:19570   */\n      tag_557\n        /* \"#utility.yul\":19565:19569   */\n      dup2\n        /* \"#utility.yul\":19556:19562   */\n      dup5\n        /* \"#utility.yul\":19450:19570   */\n      tag_313\n      jump\t// in\n    tag_557:\n        /* \"#utility.yul\":19442:19570   */\n      swap1\n      pop\n        /* \"#utility.yul\":19074:19577   */\n      swap4\n      swap3\n      pop\n      pop\n      pop\n      jump\t// out\n        /* \"#utility.yul\":19583:19726   */\n    tag_314:\n        /* \"#utility.yul\":19640:19645   */\n      0x00\n        /* \"#utility.yul\":19671:19677   */\n      dup2\n        /* \"#utility.yul\":19665:19678   */\n      mload\n        /* \"#utility.yul\":19656:19678   */\n      swap1\n      pop\n        /* \"#utility.yul\":19687:19720   */\n      tag_559\n        /* \"#utility.yul\":19714:19719   */\n      dup2\n        /* \"#utility.yul\":19687:19720   */\n      tag_279\n      jump\t// in\n    tag_559:\n        /* \"#utility.yul\":19583:19726   */\n      swap3\n      swap2\n      pop\n      pop\n      jump\t// out\n        /* \"#utility.yul\":19732:20083   */\n    tag_145:\n        /* \"#utility.yul\":19802:19808   */\n      0x00\n        /* \"#utility.yul\":19851:19853   */\n      0x20\n        /* \"#utility.yul\":19839:19848   */\n      dup3\n        /* \"#utility.yul\":19830:19837   */\n      dup5\n        /* \"#utility.yul\":19826:19849   */\n      sub\n        /* \"#utility.yul\":19822:19854   */\n      slt\n        /* \"#utility.yul\":19819:19938   */\n      iszero\n      tag_561\n      jumpi\n        /* \"#utility.yul\":19857:19936   */\n      tag_562\n      tag_259\n      jump\t// in\n    tag_562:\n        /* \"#utility.yul\":19819:19938   */\n    tag_561:\n        /* \"#utility.yul\":19977:19978   */\n      0x00\n        /* \"#utility.yul\":20002:20066   */\n      tag_563\n        /* \"#utility.yul\":20058:20065   */\n      dup5\n        /* \"#utility.yul\":20049:20055   */\n      dup3\n        /* \"#utility.yul\":20038:20047   */\n      dup6\n        /* \"#utility.yul\":20034:20056   */\n      add\n        /* \"#utility.yul\":20002:20066   */\n      tag_314\n      jump\t// in\n    tag_563:\n        /* \"#utility.yul\":19992:20066   */\n      swap2\n      pop\n        /* \"#utility.yul\":19948:20076   */\n      pop\n        /* \"#utility.yul\":19732:20083   */\n      swap3\n      swap2\n      pop\n      pop\n      jump\t// out\n        /* \"#utility.yul\":20089:20207   */\n    tag_315:\n        /* \"#utility.yul\":20176:20200   */\n      tag_565\n        /* \"#utility.yul\":20194:20199   */\n      dup2\n        /* \"#utility.yul\":20176:20200   */\n      tag_278\n      jump\t// in\n    tag_565:\n        /* \"#utility.yul\":20171:20174   */\n      dup3\n        /* \"#utility.yul\":20164:20201   */\n      mstore\n        /* \"#utility.yul\":20089:20207   */\n      pop\n      pop\n      jump\t// out\n        /* \"#utility.yul\":20213:20545   */\n    tag_147:\n        /* \"#utility.yul\":20334:20338   */\n      0x00\n        /* \"#utility.yul\":20372:20374   */\n      0x40\n        /* \"#utility.yul\":20361:20370   */\n      dup3\n        /* \"#utility.yul\":20357:20375   */\n      add\n        /* \"#utility.yul\":20349:20375   */\n      swap1\n      pop\n        /* \"#utility.yul\":20385:20456   */\n      tag_567\n        /* \"#utility.yul\":20453:20454   */\n      0x00\n        /* \"#utility.yul\":20442:20451   */\n      dup4\n        /* \"#utility.yul\":20438:20455   */\n      add\n        /* \"#utility.yul\":20429:20435   */\n      dup6\n        /* \"#utility.yul\":20385:20456   */\n      tag_297\n      jump\t// in\n    tag_567:\n        /* \"#utility.yul\":20466:20538   */\n      tag_568\n        /* \"#utility.yul\":20534:20536   */\n      0x20\n        /* \"#utility.yul\":20523:20532   */\n      dup4\n        /* \"#utility.yul\":20519:20537   */\n      add\n        /* \"#utility.yul\":20510:20516   */\n      dup5\n        /* \"#utility.yul\":20466:20538   */\n      tag_315\n      jump\t// in\n    tag_568:\n        /* \"#utility.yul\":20213:20545   */\n      swap4\n      swap3\n      pop\n      pop\n      pop\n      jump\t// out\n        /* \"#utility.yul\":20551:20667   */\n    tag_316:\n        /* \"#utility.yul\":20621:20642   */\n      tag_570\n        /* \"#utility.yul\":20636:20641   */\n      dup2\n        /* \"#utility.yul\":20621:20642   */\n      tag_264\n      jump\t// in\n    tag_570:\n        /* \"#utility.yul\":20614:20619   */\n      dup2\n        /* \"#utility.yul\":20611:20643   */\n      eq\n        /* \"#utility.yul\":20601:20661   */\n      tag_571\n      jumpi\n        /* \"#utility.yul\":20657:20658   */\n      0x00\n        /* \"#utility.yul\":20654:20655   */\n      dup1\n        /* \"#utility.yul\":20647:20659   */\n      revert\n        /* \"#utility.yul\":20601:20661   */\n    tag_571:\n        /* \"#utility.yul\":20551:20667   */\n      pop\n      jump\t// out\n        /* \"#utility.yul\":20673:20810   */\n    tag_317:\n        /* \"#utility.yul\":20727:20732   */\n      0x00\n        /* \"#utility.yul\":20758:20764   */\n      dup2\n        /* \"#utility.yul\":20752:20765   */\n      mload\n        /* \"#utility.yul\":20743:20765   */\n      swap1\n      pop\n        /* \"#utility.yul\":20774:20804   */\n      tag_573\n        /* \"#utility.yul\":20798:20803   */\n      dup2\n        /* \"#utility.yul\":20774:20804   */\n      tag_316\n      jump\t// in\n    tag_573:\n        /* \"#utility.yul\":20673:20810   */\n      swap3\n      swap2\n      pop\n      pop\n      jump\t// out\n        /* \"#utility.yul\":20816:21161   */\n    tag_151:\n        /* \"#utility.yul\":20883:20889   */\n      0x00\n        /* \"#utility.yul\":20932:20934   */\n      0x20\n        /* \"#utility.yul\":20920:20929   */\n      dup3\n        /* \"#utility.yul\":20911:20918   */\n      dup5\n        /* \"#utility.yul\":20907:20930   */\n      sub\n        /* \"#utility.yul\":20903:20935   */\n      slt\n        /* \"#utility.yul\":20900:21019   */\n      iszero\n      tag_575\n      jumpi\n        /* \"#utility.yul\":20938:21017   */\n      tag_576\n      tag_259\n      jump\t// in\n    tag_576:\n        /* \"#utility.yul\":20900:21019   */\n    tag_575:\n        /* \"#utility.yul\":21058:21059   */\n      0x00\n        /* \"#utility.yul\":21083:21144   */\n      tag_577\n        /* \"#utility.yul\":21136:21143   */\n      dup5\n        /* \"#utility.yul\":21127:21133   */\n      dup3\n        /* \"#utility.yul\":21116:21125   */\n      dup6\n        /* \"#utility.yul\":21112:21134   */\n      add\n        /* \"#utility.yul\":21083:21144   */\n      tag_317\n      jump\t// in\n    tag_577:\n        /* \"#utility.yul\":21073:21144   */\n      swap2\n      pop\n        /* \"#utility.yul\":21029:21154   */\n      pop\n        /* \"#utility.yul\":20816:21161   */\n      swap3\n      swap2\n      pop\n      pop\n      jump\t// out\n        /* \"#utility.yul\":21167:21289   */\n    tag_318:\n        /* \"#utility.yul\":21240:21264   */\n      tag_579\n        /* \"#utility.yul\":21258:21263   */\n      dup2\n        /* \"#utility.yul\":21240:21264   */\n      tag_293\n      jump\t// in\n    tag_579:\n        /* \"#utility.yul\":21233:21238   */\n      dup2\n        /* \"#utility.yul\":21230:21265   */\n      eq\n        /* \"#utility.yul\":21220:21283   */\n      tag_580\n      jumpi\n        /* \"#utility.yul\":21279:21280   */\n      0x00\n        /* \"#utility.yul\":21276:21277   */\n      dup1\n        /* \"#utility.yul\":21269:21281   */\n      revert\n        /* \"#utility.yul\":21220:21283   */\n    tag_580:\n        /* \"#utility.yul\":21167:21289   */\n      pop\n      jump\t// out\n        /* \"#utility.yul\":21295:21438   */\n    tag_319:\n        /* \"#utility.yul\":21352:21357   */\n      0x00\n        /* \"#utility.yul\":21383:21389   */\n      dup2\n        /* \"#utility.yul\":21377:21390   */\n      mload\n        /* \"#utility.yul\":21368:21390   */\n      swap1\n      pop\n        /* \"#utility.yul\":21399:21432   */\n      tag_582\n        /* \"#utility.yul\":21426:21431   */\n      dup2\n        /* \"#utility.yul\":21399:21432   */\n      tag_318\n      jump\t// in\n    tag_582:\n        /* \"#utility.yul\":21295:21438   */\n      swap3\n      swap2\n      pop\n      pop\n      jump\t// out\n        /* \"#utility.yul\":21444:21795   */\n    tag_156:\n        /* \"#utility.yul\":21514:21520   */\n      0x00\n        /* \"#utility.yul\":21563:21565   */\n      0x20\n        /* \"#utility.yul\":21551:21560   */\n      dup3\n        /* \"#utility.yul\":21542:21549   */\n      dup5\n        /* \"#utility.yul\":21538:21561   */\n      sub\n        /* \"#utility.yul\":21534:21566   */\n      slt\n        /* \"#utility.yul\":21531:21650   */\n      iszero\n      tag_584\n      jumpi\n        /* \"#utility.yul\":21569:21648   */\n      tag_585\n      tag_259\n      jump\t// in\n    tag_585:\n        /* \"#utility.yul\":21531:21650   */\n    tag_584:\n        /* \"#utility.yul\":21689:21690   */\n      0x00\n        /* \"#utility.yul\":21714:21778   */\n      tag_586\n        /* \"#utility.yul\":21770:21777   */\n      dup5\n        /* \"#utility.yul\":21761:21767   */\n      dup3\n        /* \"#utility.yul\":21750:21759   */\n      dup6\n        /* \"#utility.yul\":21746:21768   */\n      add\n        /* \"#utility.yul\":21714:21778   */\n      tag_319\n      jump\t// in\n    tag_586:\n        /* \"#utility.yul\":21704:21778   */\n      swap2\n      pop\n        /* \"#utility.yul\":21660:21788   */\n      pop\n        /* \"#utility.yul\":21444:21795   */\n      swap3\n      swap2\n      pop\n      pop\n      jump\t// out\n        /* \"#utility.yul\":21801:21948   */\n    tag_320:\n        /* \"#utility.yul\":21902:21913   */\n      0x00\n        /* \"#utility.yul\":21939:21942   */\n      dup2\n        /* \"#utility.yul\":21924:21942   */\n      swap1\n      pop\n        /* \"#utility.yul\":21801:21948   */\n      swap3\n      swap2\n      pop\n      pop\n      jump\t// out\n        /* \"#utility.yul\":21954:22068   */\n    tag_321:\n      pop\n      jump\t// out\n        /* \"#utility.yul\":22074:22472   */\n    tag_322:\n        /* \"#utility.yul\":22233:22236   */\n      0x00\n        /* \"#utility.yul\":22254:22337   */\n      tag_590\n        /* \"#utility.yul\":22335:22336   */\n      0x00\n        /* \"#utility.yul\":22330:22333   */\n      dup4\n        /* \"#utility.yul\":22254:22337   */\n      tag_320\n      jump\t// in\n    tag_590:\n        /* \"#utility.yul\":22247:22337   */\n      swap2\n      pop\n        /* \"#utility.yul\":22346:22439   */\n      tag_591\n        /* \"#utility.yul\":22435:22438   */\n      dup3\n        /* \"#utility.yul\":22346:22439   */\n      tag_321\n      jump\t// in\n    tag_591:\n        /* \"#utility.yul\":22464:22465   */\n      0x00\n        /* \"#utility.yul\":22459:22462   */\n      dup3\n        /* \"#utility.yul\":22455:22466   */\n      add\n        /* \"#utility.yul\":22448:22466   */\n      swap1\n      pop\n        /* \"#utility.yul\":22074:22472   */\n      swap2\n      swap1\n      pop\n      jump\t// out\n        /* \"#utility.yul\":22478:22857   */\n    tag_176:\n        /* \"#utility.yul\":22662:22665   */\n      0x00\n        /* \"#utility.yul\":22684:22831   */\n      tag_593\n        /* \"#utility.yul\":22827:22830   */\n      dup3\n        /* \"#utility.yul\":22684:22831   */\n      tag_322\n      jump\t// in\n    tag_593:\n        /* \"#utility.yul\":22677:22831   */\n      swap2\n      pop\n        /* \"#utility.yul\":22848:22851   */\n      dup2\n        /* \"#utility.yul\":22841:22851   */\n      swap1\n      pop\n        /* \"#utility.yul\":22478:22857   */\n      swap2\n      swap1\n      pop\n      jump\t// out\n        /* \"#utility.yul\":22863:23032   */\n    tag_323:\n        /* \"#utility.yul\":22947:22958   */\n      0x00\n        /* \"#utility.yul\":22981:22987   */\n      dup3\n        /* \"#utility.yul\":22976:22979   */\n      dup3\n        /* \"#utility.yul\":22969:22988   */\n      mstore\n        /* \"#utility.yul\":23021:23025   */\n      0x20\n        /* \"#utility.yul\":23016:23019   */\n      dup3\n        /* \"#utility.yul\":23012:23026   */\n      add\n        /* \"#utility.yul\":22997:23026   */\n      swap1\n      pop\n        /* \"#utility.yul\":22863:23032   */\n      swap3\n      swap2\n      pop\n      pop\n      jump\t// out\n        /* \"#utility.yul\":23038:23210   */\n    tag_324:\n        /* \"#utility.yul\":23178:23202   */\n      0x4d7573742062652070726f706f736564206f776e657200000000000000000000\n        /* \"#utility.yul\":23174:23175   */\n      0x00\n        /* \"#utility.yul\":23166:23172   */\n      dup3\n        /* \"#utility.yul\":23162:23176   */\n      add\n        /* \"#utility.yul\":23155:23203   */\n      mstore\n        /* \"#utility.yul\":23038:23210   */\n      pop\n      jump\t// out\n        /* \"#utility.yul\":23216:23582   */\n    tag_325:\n        /* \"#utility.yul\":23358:23361   */\n      0x00\n        /* \"#utility.yul\":23379:23446   */\n      tag_597\n        /* \"#utility.yul\":23443:23445   */\n      0x16\n        /* \"#utility.yul\":23438:23441   */\n      dup4\n        /* \"#utility.yul\":23379:23446   */\n      tag_323\n      jump\t// in\n    tag_597:\n        /* \"#utility.yul\":23372:23446   */\n      swap2\n      pop\n        /* \"#utility.yul\":23455:23548   */\n      tag_598\n        /* \"#utility.yul\":23544:23547   */\n      dup3\n        /* \"#utility.yul\":23455:23548   */\n      tag_324\n      jump\t// in\n    tag_598:\n        /* \"#utility.yul\":23573:23575   */\n      0x20\n        /* \"#utility.yul\":23568:23571   */\n      dup3\n        /* \"#utility.yul\":23564:23576   */\n      add\n        /* \"#utility.yul\":23557:23576   */\n      swap1\n      pop\n        /* \"#utility.yul\":23216:23582   */\n      swap2\n      swap1\n      pop\n      jump\t// out\n        /* \"#utility.yul\":23588:24007   */\n    tag_193:\n        /* \"#utility.yul\":23754:23758   */\n      0x00\n        /* \"#utility.yul\":23792:23794   */\n      0x20\n        /* \"#utility.yul\":23781:23790   */\n      dup3\n        /* \"#utility.yul\":23777:23795   */\n      add\n        /* \"#utility.yul\":23769:23795   */\n      swap1\n      pop\n        /* \"#utility.yul\":23841:23850   */\n      dup2\n        /* \"#utility.yul\":23835:23839   */\n      dup2\n        /* \"#utility.yul\":23831:23851   */\n      sub\n        /* \"#utility.yul\":23827:23828   */\n      0x00\n        /* \"#utility.yul\":23816:23825   */\n      dup4\n        /* \"#utility.yul\":23812:23829   */\n      add\n        /* \"#utility.yul\":23805:23852   */\n      mstore\n        /* \"#utility.yul\":23869:24000   */\n      tag_600\n        /* \"#utility.yul\":23995:23999   */\n      dup2\n        /* \"#utility.yul\":23869:24000   */\n      tag_325\n      jump\t// in\n    tag_600:\n        /* \"#utility.yul\":23861:24000   */\n      swap1\n      pop\n        /* \"#utility.yul\":23588:24007   */\n      swap2\n      swap1\n      pop\n      jump\t// out\n        /* \"#utility.yul\":24013:24152   */\n    tag_326:\n        /* \"#utility.yul\":24059:24064   */\n      0x00\n        /* \"#utility.yul\":24097:24103   */\n      dup2\n        /* \"#utility.yul\":24084:24104   */\n      calldataload\n        /* \"#utility.yul\":24075:24104   */\n      swap1\n      pop\n        /* \"#utility.yul\":24113:24146   */\n      tag_602\n        /* \"#utility.yul\":24140:24145   */\n      dup2\n        /* \"#utility.yul\":24113:24146   */\n      tag_318\n      jump\t// in\n    tag_602:\n        /* \"#utility.yul\":24013:24152   */\n      swap3\n      swap2\n      pop\n      pop\n      jump\t// out\n        /* \"#utility.yul\":24158:24275   */\n    tag_327:\n        /* \"#utility.yul\":24267:24268   */\n      0x00\n        /* \"#utility.yul\":24264:24265   */\n      dup1\n        /* \"#utility.yul\":24257:24269   */\n      revert\n        /* \"#utility.yul\":24281:24588   */\n    tag_328:\n        /* \"#utility.yul\":24342:24346   */\n      0x00\n        /* \"#utility.yul\":24432:24450   */\n      0xffffffffffffffff\n        /* \"#utility.yul\":24424:24430   */\n      dup3\n        /* \"#utility.yul\":24421:24451   */\n      gt\n        /* \"#utility.yul\":24418:24474   */\n      iszero\n      tag_605\n      jumpi\n        /* \"#utility.yul\":24454:24472   */\n      tag_606\n      tag_242\n      jump\t// in\n    tag_606:\n        /* \"#utility.yul\":24418:24474   */\n    tag_605:\n        /* \"#utility.yul\":24492:24521   */\n      tag_607\n        /* \"#utility.yul\":24514:24520   */\n      dup3\n        /* \"#utility.yul\":24492:24521   */\n      tag_274\n      jump\t// in\n    tag_607:\n        /* \"#utility.yul\":24484:24521   */\n      swap1\n      pop\n        /* \"#utility.yul\":24576:24580   */\n      0x20\n        /* \"#utility.yul\":24570:24574   */\n      dup2\n        /* \"#utility.yul\":24566:24581   */\n      add\n        /* \"#utility.yul\":24558:24581   */\n      swap1\n      pop\n        /* \"#utility.yul\":24281:24588   */\n      swap2\n      swap1\n      pop\n      jump\t// out\n        /* \"#utility.yul\":24594:24740   */\n    tag_329:\n        /* \"#utility.yul\":24691:24697   */\n      dup3\n        /* \"#utility.yul\":24686:24689   */\n      dup2\n        /* \"#utility.yul\":24681:24684   */\n      dup4\n        /* \"#utility.yul\":24668:24698   */\n      calldatacopy\n        /* \"#utility.yul\":24732:24733   */\n      0x00\n        /* \"#utility.yul\":24723:24729   */\n      dup4\n        /* \"#utility.yul\":24718:24721   */\n      dup4\n        /* \"#utility.yul\":24714:24730   */\n      add\n        /* \"#utility.yul\":24707:24734   */\n      mstore\n        /* \"#utility.yul\":24594:24740   */\n      pop\n      pop\n      pop\n      jump\t// out\n        /* \"#utility.yul\":24746:25169   */\n    tag_330:\n        /* \"#utility.yul\":24823:24828   */\n      0x00\n        /* \"#utility.yul\":24848:24913   */\n      tag_610\n        /* \"#utility.yul\":24864:24912   */\n      tag_611\n        /* \"#utility.yul\":24905:24911   */\n      dup5\n        /* \"#utility.yul\":24864:24912   */\n      tag_328\n      jump\t// in\n    tag_611:\n        /* \"#utility.yul\":24848:24913   */\n      tag_276\n      jump\t// in\n    tag_610:\n        /* \"#utility.yul\":24839:24913   */\n      swap1\n      pop\n        /* \"#utility.yul\":24936:24942   */\n      dup3\n        /* \"#utility.yul\":24929:24934   */\n      dup2\n        /* \"#utility.yul\":24922:24943   */\n      mstore\n        /* \"#utility.yul\":24974:24978   */\n      0x20\n        /* \"#utility.yul\":24967:24972   */\n      dup2\n        /* \"#utility.yul\":24963:24979   */\n      add\n        /* \"#utility.yul\":25012:25015   */\n      dup5\n        /* \"#utility.yul\":25003:25009   */\n      dup5\n        /* \"#utility.yul\":24998:25001   */\n      dup5\n        /* \"#utility.yul\":24994:25010   */\n      add\n        /* \"#utility.yul\":24991:25016   */\n      gt\n        /* \"#utility.yul\":24988:25100   */\n      iszero\n      tag_612\n      jumpi\n        /* \"#utility.yul\":25019:25098   */\n      tag_613\n      tag_327\n      jump\t// in\n    tag_613:\n        /* \"#utility.yul\":24988:25100   */\n    tag_612:\n        /* \"#utility.yul\":25109:25163   */\n      tag_614\n        /* \"#utility.yul\":25156:25162   */\n      dup5\n        /* \"#utility.yul\":25151:25154   */\n      dup3\n        /* \"#utility.yul\":25146:25149   */\n      dup6\n        /* \"#utility.yul\":25109:25163   */\n      tag_329\n      jump\t// in\n    tag_614:\n        /* \"#utility.yul\":24829:25169   */\n      pop\n        /* \"#utility.yul\":24746:25169   */\n      swap4\n      swap3\n      pop\n      pop\n      pop\n      jump\t// out\n        /* \"#utility.yul\":25188:25526   */\n    tag_331:\n        /* \"#utility.yul\":25243:25248   */\n      0x00\n        /* \"#utility.yul\":25292:25295   */\n      dup3\n        /* \"#utility.yul\":25285:25289   */\n      0x1f\n        /* \"#utility.yul\":25277:25283   */\n      dup4\n        /* \"#utility.yul\":25273:25290   */\n      add\n        /* \"#utility.yul\":25269:25296   */\n      slt\n        /* \"#utility.yul\":25259:25381   */\n      tag_616\n      jumpi\n        /* \"#utility.yul\":25300:25379   */\n      tag_617\n      tag_282\n      jump\t// in\n    tag_617:\n        /* \"#utility.yul\":25259:25381   */\n    tag_616:\n        /* \"#utility.yul\":25417:25423   */\n      dup2\n        /* \"#utility.yul\":25404:25424   */\n      calldataload\n        /* \"#utility.yul\":25442:25520   */\n      tag_618\n        /* \"#utility.yul\":25516:25519   */\n      dup5\n        /* \"#utility.yul\":25508:25514   */\n      dup3\n        /* \"#utility.yul\":25501:25505   */\n      0x20\n        /* \"#utility.yul\":25493:25499   */\n      dup7\n        /* \"#utility.yul\":25489:25506   */\n      add\n        /* \"#utility.yul\":25442:25520   */\n      tag_330\n      jump\t// in\n    tag_618:\n        /* \"#utility.yul\":25433:25520   */\n      swap2\n      pop\n        /* \"#utility.yul\":25249:25526   */\n      pop\n        /* \"#utility.yul\":25188:25526   */\n      swap3\n      swap2\n      pop\n      pop\n      jump\t// out\n        /* \"#utility.yul\":25532:25874   */\n    tag_332:\n        /* \"#utility.yul\":25640:25644   */\n      0x00\n        /* \"#utility.yul\":25730:25748   */\n      0xffffffffffffffff\n        /* \"#utility.yul\":25722:25728   */\n      dup3\n        /* \"#utility.yul\":25719:25749   */\n      gt\n        /* \"#utility.yul\":25716:25772   */\n      iszero\n      tag_620\n      jumpi\n        /* \"#utility.yul\":25752:25770   */\n      tag_621\n      tag_242\n      jump\t// in\n    tag_621:\n        /* \"#utility.yul\":25716:25772   */\n    tag_620:\n        /* \"#utility.yul\":25802:25806   */\n      0x20\n        /* \"#utility.yul\":25794:25800   */\n      dup3\n        /* \"#utility.yul\":25790:25807   */\n      mul\n        /* \"#utility.yul\":25782:25807   */\n      swap1\n      pop\n        /* \"#utility.yul\":25862:25866   */\n      0x20\n        /* \"#utility.yul\":25856:25860   */\n      dup2\n        /* \"#utility.yul\":25852:25867   */\n      add\n        /* \"#utility.yul\":25844:25867   */\n      swap1\n      pop\n        /* \"#utility.yul\":25532:25874   */\n      swap2\n      swap1\n      pop\n      jump\t// out\n        /* \"#utility.yul\":25916:26499   */\n    tag_333:\n        /* \"#utility.yul\":25996:26001   */\n      0x00\n        /* \"#utility.yul\":26040:26044   */\n      0x40\n        /* \"#utility.yul\":26028:26037   */\n      dup3\n        /* \"#utility.yul\":26023:26026   */\n      dup5\n        /* \"#utility.yul\":26019:26038   */\n      sub\n        /* \"#utility.yul\":26015:26045   */\n      slt\n        /* \"#utility.yul\":26012:26129   */\n      iszero\n      tag_623\n      jumpi\n        /* \"#utility.yul\":26048:26127   */\n      tag_624\n      tag_273\n      jump\t// in\n    tag_624:\n        /* \"#utility.yul\":26012:26129   */\n    tag_623:\n        /* \"#utility.yul\":26147:26168   */\n      tag_625\n        /* \"#utility.yul\":26163:26167   */\n      0x40\n        /* \"#utility.yul\":26147:26168   */\n      tag_276\n      jump\t// in\n    tag_625:\n        /* \"#utility.yul\":26138:26168   */\n      swap1\n      pop\n        /* \"#utility.yul\":26228:26229   */\n      0x00\n        /* \"#utility.yul\":26268:26317   */\n      tag_626\n        /* \"#utility.yul\":26313:26316   */\n      dup5\n        /* \"#utility.yul\":26304:26310   */\n      dup3\n        /* \"#utility.yul\":26293:26302   */\n      dup6\n        /* \"#utility.yul\":26289:26311   */\n      add\n        /* \"#utility.yul\":26268:26317   */\n      tag_272\n      jump\t// in\n    tag_626:\n        /* \"#utility.yul\":26261:26265   */\n      0x00\n        /* \"#utility.yul\":26254:26259   */\n      dup4\n        /* \"#utility.yul\":26250:26266   */\n      add\n        /* \"#utility.yul\":26243:26318   */\n      mstore\n        /* \"#utility.yul\":26178:26329   */\n      pop\n        /* \"#utility.yul\":26390:26392   */\n      0x20\n        /* \"#utility.yul\":26431:26480   */\n      tag_627\n        /* \"#utility.yul\":26476:26479   */\n      dup5\n        /* \"#utility.yul\":26467:26473   */\n      dup3\n        /* \"#utility.yul\":26456:26465   */\n      dup6\n        /* \"#utility.yul\":26452:26474   */\n      add\n        /* \"#utility.yul\":26431:26480   */\n      tag_280\n      jump\t// in\n    tag_627:\n        /* \"#utility.yul\":26424:26428   */\n      0x20\n        /* \"#utility.yul\":26417:26422   */\n      dup4\n        /* \"#utility.yul\":26413:26429   */\n      add\n        /* \"#utility.yul\":26406:26481   */\n      mstore\n        /* \"#utility.yul\":26339:26492   */\n      pop\n        /* \"#utility.yul\":25916:26499   */\n      swap3\n      swap2\n      pop\n      pop\n      jump\t// out\n        /* \"#utility.yul\":26543:27346   */\n    tag_334:\n        /* \"#utility.yul\":26670:26675   */\n      0x00\n        /* \"#utility.yul\":26695:26807   */\n      tag_629\n        /* \"#utility.yul\":26711:26806   */\n      tag_630\n        /* \"#utility.yul\":26799:26805   */\n      dup5\n        /* \"#utility.yul\":26711:26806   */\n      tag_332\n      jump\t// in\n    tag_630:\n        /* \"#utility.yul\":26695:26807   */\n      tag_276\n      jump\t// in\n    tag_629:\n        /* \"#utility.yul\":26686:26807   */\n      swap1\n      pop\n        /* \"#utility.yul\":26827:26832   */\n      dup1\n        /* \"#utility.yul\":26856:26862   */\n      dup4\n        /* \"#utility.yul\":26849:26854   */\n      dup3\n        /* \"#utility.yul\":26842:26863   */\n      mstore\n        /* \"#utility.yul\":26890:26894   */\n      0x20\n        /* \"#utility.yul\":26883:26888   */\n      dup3\n        /* \"#utility.yul\":26879:26895   */\n      add\n        /* \"#utility.yul\":26872:26895   */\n      swap1\n      pop\n        /* \"#utility.yul\":26943:26947   */\n      0x40\n        /* \"#utility.yul\":26935:26941   */\n      dup5\n        /* \"#utility.yul\":26931:26948   */\n      mul\n        /* \"#utility.yul\":26923:26929   */\n      dup4\n        /* \"#utility.yul\":26919:26949   */\n      add\n        /* \"#utility.yul\":26972:26975   */\n      dup6\n        /* \"#utility.yul\":26964:26970   */\n      dup2\n        /* \"#utility.yul\":26961:26976   */\n      gt\n        /* \"#utility.yul\":26958:27080   */\n      iszero\n      tag_631\n      jumpi\n        /* \"#utility.yul\":26991:27070   */\n      tag_632\n      tag_284\n      jump\t// in\n    tag_632:\n        /* \"#utility.yul\":26958:27080   */\n    tag_631:\n        /* \"#utility.yul\":27106:27112   */\n      dup4\n        /* \"#utility.yul\":27089:27340   */\n    tag_633:\n        /* \"#utility.yul\":27123:27129   */\n      dup2\n        /* \"#utility.yul\":27118:27121   */\n      dup2\n        /* \"#utility.yul\":27115:27130   */\n      lt\n        /* \"#utility.yul\":27089:27340   */\n      iszero\n      tag_635\n      jumpi\n        /* \"#utility.yul\":27198:27201   */\n      dup1\n        /* \"#utility.yul\":27227:27295   */\n      tag_636\n        /* \"#utility.yul\":27291:27294   */\n      dup9\n        /* \"#utility.yul\":27279:27289   */\n      dup3\n        /* \"#utility.yul\":27227:27295   */\n      tag_333\n      jump\t// in\n    tag_636:\n        /* \"#utility.yul\":27222:27225   */\n      dup5\n        /* \"#utility.yul\":27215:27296   */\n      mstore\n        /* \"#utility.yul\":27325:27329   */\n      0x20\n        /* \"#utility.yul\":27320:27323   */\n      dup5\n        /* \"#utility.yul\":27316:27330   */\n      add\n        /* \"#utility.yul\":27309:27330   */\n      swap4\n      pop\n        /* \"#utility.yul\":27165:27340   */\n      pop\n        /* \"#utility.yul\":27149:27153   */\n      0x40\n        /* \"#utility.yul\":27144:27147   */\n      dup2\n        /* \"#utility.yul\":27140:27154   */\n      add\n        /* \"#utility.yul\":27133:27154   */\n      swap1\n      pop\n        /* \"#utility.yul\":27089:27340   */\n      jump(tag_633)\n    tag_635:\n        /* \"#utility.yul\":27093:27114   */\n      pop\n        /* \"#utility.yul\":26676:27346   */\n      pop\n      pop\n        /* \"#utility.yul\":26543:27346   */\n      swap4\n      swap3\n      pop\n      pop\n      pop\n      jump\t// out\n        /* \"#utility.yul\":27390:27822   */\n    tag_335:\n        /* \"#utility.yul\":27492:27497   */\n      0x00\n        /* \"#utility.yul\":27541:27544   */\n      dup3\n        /* \"#utility.yul\":27534:27538   */\n      0x1f\n        /* \"#utility.yul\":27526:27532   */\n      dup4\n        /* \"#utility.yul\":27522:27539   */\n      add\n        /* \"#utility.yul\":27518:27545   */\n      slt\n        /* \"#utility.yul\":27508:27630   */\n      tag_638\n      jumpi\n        /* \"#utility.yul\":27549:27628   */\n      tag_639\n      tag_282\n      jump\t// in\n    tag_639:\n        /* \"#utility.yul\":27508:27630   */\n    tag_638:\n        /* \"#utility.yul\":27666:27672   */\n      dup2\n        /* \"#utility.yul\":27653:27673   */\n      calldataload\n        /* \"#utility.yul\":27691:27816   */\n      tag_640\n        /* \"#utility.yul\":27812:27815   */\n      dup5\n        /* \"#utility.yul\":27804:27810   */\n      dup3\n        /* \"#utility.yul\":27797:27801   */\n      0x20\n        /* \"#utility.yul\":27789:27795   */\n      dup7\n        /* \"#utility.yul\":27785:27802   */\n      add\n        /* \"#utility.yul\":27691:27816   */\n      tag_334\n      jump\t// in\n    tag_640:\n        /* \"#utility.yul\":27682:27816   */\n      swap2\n      pop\n        /* \"#utility.yul\":27498:27822   */\n      pop\n        /* \"#utility.yul\":27390:27822   */\n      swap3\n      swap2\n      pop\n      pop\n      jump\t// out\n        /* \"#utility.yul\":27864:29515   */\n    tag_336:\n        /* \"#utility.yul\":27944:27949   */\n      0x00\n        /* \"#utility.yul\":27988:27992   */\n      0xa0\n        /* \"#utility.yul\":27976:27985   */\n      dup3\n        /* \"#utility.yul\":27971:27974   */\n      dup5\n        /* \"#utility.yul\":27967:27986   */\n      sub\n        /* \"#utility.yul\":27963:27993   */\n      slt\n        /* \"#utility.yul\":27960:28077   */\n      iszero\n      tag_642\n      jumpi\n        /* \"#utility.yul\":27996:28075   */\n      tag_643\n      tag_273\n      jump\t// in\n    tag_643:\n        /* \"#utility.yul\":27960:28077   */\n    tag_642:\n        /* \"#utility.yul\":28095:28116   */\n      tag_644\n        /* \"#utility.yul\":28111:28115   */\n      0xa0\n        /* \"#utility.yul\":28095:28116   */\n      tag_276\n      jump\t// in\n    tag_644:\n        /* \"#utility.yul\":28086:28116   */\n      swap1\n      pop\n        /* \"#utility.yul\":28180:28181   */\n      0x00\n        /* \"#utility.yul\":28220:28269   */\n      tag_645\n        /* \"#utility.yul\":28265:28268   */\n      dup5\n        /* \"#utility.yul\":28256:28262   */\n      dup3\n        /* \"#utility.yul\":28245:28254   */\n      dup6\n        /* \"#utility.yul\":28241:28263   */\n      add\n        /* \"#utility.yul\":28220:28269   */\n      tag_326\n      jump\t// in\n    tag_645:\n        /* \"#utility.yul\":28213:28217   */\n      0x00\n        /* \"#utility.yul\":28206:28211   */\n      dup4\n        /* \"#utility.yul\":28202:28218   */\n      add\n        /* \"#utility.yul\":28195:28270   */\n      mstore\n        /* \"#utility.yul\":28126:28281   */\n      pop\n        /* \"#utility.yul\":28355:28357   */\n      0x20\n        /* \"#utility.yul\":28396:28444   */\n      tag_646\n        /* \"#utility.yul\":28440:28443   */\n      dup5\n        /* \"#utility.yul\":28431:28437   */\n      dup3\n        /* \"#utility.yul\":28420:28429   */\n      dup6\n        /* \"#utility.yul\":28416:28438   */\n      add\n        /* \"#utility.yul\":28396:28444   */\n      tag_268\n      jump\t// in\n    tag_646:\n        /* \"#utility.yul\":28389:28393   */\n      0x20\n        /* \"#utility.yul\":28382:28387   */\n      dup4\n        /* \"#utility.yul\":28378:28394   */\n      add\n        /* \"#utility.yul\":28371:28445   */\n      mstore\n        /* \"#utility.yul\":28291:28456   */\n      pop\n        /* \"#utility.yul\":28545:28547   */\n      0x40\n        /* \"#utility.yul\":28534:28543   */\n      dup3\n        /* \"#utility.yul\":28530:28548   */\n      add\n        /* \"#utility.yul\":28517:28549   */\n      calldataload\n        /* \"#utility.yul\":28576:28594   */\n      0xffffffffffffffff\n        /* \"#utility.yul\":28568:28574   */\n      dup2\n        /* \"#utility.yul\":28565:28595   */\n      gt\n        /* \"#utility.yul\":28562:28679   */\n      iszero\n      tag_647\n      jumpi\n        /* \"#utility.yul\":28598:28677   */\n      tag_648\n      tag_277\n      jump\t// in\n    tag_648:\n        /* \"#utility.yul\":28562:28679   */\n    tag_647:\n        /* \"#utility.yul\":28718:28776   */\n      tag_649\n        /* \"#utility.yul\":28772:28775   */\n      dup5\n        /* \"#utility.yul\":28763:28769   */\n      dup3\n        /* \"#utility.yul\":28752:28761   */\n      dup6\n        /* \"#utility.yul\":28748:28770   */\n      add\n        /* \"#utility.yul\":28718:28776   */\n      tag_331\n      jump\t// in\n    tag_649:\n        /* \"#utility.yul\":28711:28715   */\n      0x40\n        /* \"#utility.yul\":28704:28709   */\n      dup4\n        /* \"#utility.yul\":28700:28716   */\n      add\n        /* \"#utility.yul\":28693:28777   */\n      mstore\n        /* \"#utility.yul\":28466:28788   */\n      pop\n        /* \"#utility.yul\":28875:28877   */\n      0x60\n        /* \"#utility.yul\":28864:28873   */\n      dup3\n        /* \"#utility.yul\":28860:28878   */\n      add\n        /* \"#utility.yul\":28847:28879   */\n      calldataload\n        /* \"#utility.yul\":28906:28924   */\n      0xffffffffffffffff\n        /* \"#utility.yul\":28898:28904   */\n      dup2\n        /* \"#utility.yul\":28895:28925   */\n      gt\n        /* \"#utility.yul\":28892:29009   */\n      iszero\n      tag_650\n      jumpi\n        /* \"#utility.yul\":28928:29007   */\n      tag_651\n      tag_277\n      jump\t// in\n    tag_651:\n        /* \"#utility.yul\":28892:29009   */\n    tag_650:\n        /* \"#utility.yul\":29048:29106   */\n      tag_652\n        /* \"#utility.yul\":29102:29105   */\n      dup5\n        /* \"#utility.yul\":29093:29099   */\n      dup3\n        /* \"#utility.yul\":29082:29091   */\n      dup6\n        /* \"#utility.yul\":29078:29100   */\n      add\n        /* \"#utility.yul\":29048:29106   */\n      tag_331\n      jump\t// in\n    tag_652:\n        /* \"#utility.yul\":29041:29045   */\n      0x60\n        /* \"#utility.yul\":29034:29039   */\n      dup4\n        /* \"#utility.yul\":29030:29046   */\n      add\n        /* \"#utility.yul\":29023:29107   */\n      mstore\n        /* \"#utility.yul\":28798:29118   */\n      pop\n        /* \"#utility.yul\":29217:29220   */\n      0x80\n        /* \"#utility.yul\":29206:29215   */\n      dup3\n        /* \"#utility.yul\":29202:29221   */\n      add\n        /* \"#utility.yul\":29189:29222   */\n      calldataload\n        /* \"#utility.yul\":29249:29267   */\n      0xffffffffffffffff\n        /* \"#utility.yul\":29241:29247   */\n      dup2\n        /* \"#utility.yul\":29238:29268   */\n      gt\n        /* \"#utility.yul\":29235:29352   */\n      iszero\n      tag_653\n      jumpi\n        /* \"#utility.yul\":29271:29350   */\n      tag_654\n      tag_277\n      jump\t// in\n    tag_654:\n        /* \"#utility.yul\":29235:29352   */\n    tag_653:\n        /* \"#utility.yul\":29391:29496   */\n      tag_655\n        /* \"#utility.yul\":29492:29495   */\n      dup5\n        /* \"#utility.yul\":29483:29489   */\n      dup3\n        /* \"#utility.yul\":29472:29481   */\n      dup6\n        /* \"#utility.yul\":29468:29490   */\n      add\n        /* \"#utility.yul\":29391:29496   */\n      tag_335\n      jump\t// in\n    tag_655:\n        /* \"#utility.yul\":29384:29388   */\n      0x80\n        /* \"#utility.yul\":29377:29382   */\n      dup4\n        /* \"#utility.yul\":29373:29389   */\n      add\n        /* \"#utility.yul\":29366:29497   */\n      mstore\n        /* \"#utility.yul\":29128:29508   */\n      pop\n        /* \"#utility.yul\":27864:29515   */\n      swap3\n      swap2\n      pop\n      pop\n      jump\t// out\n        /* \"#utility.yul\":29521:29750   */\n    tag_200:\n        /* \"#utility.yul\":29635:29644   */\n      0x00\n        /* \"#utility.yul\":29669:29743   */\n      tag_657\n        /* \"#utility.yul\":29728:29742   */\n      calldatasize\n        /* \"#utility.yul\":29721:29726   */\n      dup4\n        /* \"#utility.yul\":29669:29743   */\n      tag_336\n      jump\t// in\n    tag_657:\n        /* \"#utility.yul\":29656:29743   */\n      swap1\n      pop\n        /* \"#utility.yul\":29521:29750   */\n      swap2\n      swap1\n      pop\n      jump\t// out\n        /* \"#utility.yul\":29756:29928   */\n    tag_337:\n        /* \"#utility.yul\":29896:29920   */\n      0x4f6e6c792063616c6c61626c65206279206f776e657200000000000000000000\n        /* \"#utility.yul\":29892:29893   */\n      0x00\n        /* \"#utility.yul\":29884:29890   */\n      dup3\n        /* \"#utility.yul\":29880:29894   */\n      add\n        /* \"#utility.yul\":29873:29921   */\n      mstore\n        /* \"#utility.yul\":29756:29928   */\n      pop\n      jump\t// out\n        /* \"#utility.yul\":29934:30300   */\n    tag_338:\n        /* \"#utility.yul\":30076:30079   */\n      0x00\n        /* \"#utility.yul\":30097:30164   */\n      tag_660\n        /* \"#utility.yul\":30161:30163   */\n      0x16\n        /* \"#utility.yul\":30156:30159   */\n      dup4\n        /* \"#utility.yul\":30097:30164   */\n      tag_323\n      jump\t// in\n    tag_660:\n        /* \"#utility.yul\":30090:30164   */\n      swap2\n      pop\n        /* \"#utility.yul\":30173:30266   */\n      tag_661\n        /* \"#utility.yul\":30262:30265   */\n      dup3\n        /* \"#utility.yul\":30173:30266   */\n      tag_337\n      jump\t// in\n    tag_661:\n        /* \"#utility.yul\":30291:30293   */\n      0x20\n        /* \"#utility.yul\":30286:30289   */\n      dup3\n        /* \"#utility.yul\":30282:30294   */\n      add\n        /* \"#utility.yul\":30275:30294   */\n      swap1\n      pop\n        /* \"#utility.yul\":29934:30300   */\n      swap2\n      swap1\n      pop\n      jump\t// out\n        /* \"#utility.yul\":30306:30725   */\n    tag_233:\n        /* \"#utility.yul\":30472:30476   */\n      0x00\n        /* \"#utility.yul\":30510:30512   */\n      0x20\n        /* \"#utility.yul\":30499:30508   */\n      dup3\n        /* \"#utility.yul\":30495:30513   */\n      add\n        /* \"#utility.yul\":30487:30513   */\n      swap1\n      pop\n        /* \"#utility.yul\":30559:30568   */\n      dup2\n        /* \"#utility.yul\":30553:30557   */\n      dup2\n        /* \"#utility.yul\":30549:30569   */\n      sub\n        /* \"#utility.yul\":30545:30546   */\n      0x00\n        /* \"#utility.yul\":30534:30543   */\n      dup4\n        /* \"#utility.yul\":30530:30547   */\n      add\n        /* \"#utility.yul\":30523:30570   */\n      mstore\n        /* \"#utility.yul\":30587:30718   */\n      tag_663\n        /* \"#utility.yul\":30713:30717   */\n      dup2\n        /* \"#utility.yul\":30587:30718   */\n      tag_338\n      jump\t// in\n    tag_663:\n        /* \"#utility.yul\":30579:30718   */\n      swap1\n      pop\n        /* \"#utility.yul\":30306:30725   */\n      swap2\n      swap1\n      pop\n      jump\t// out\n        /* \"#utility.yul\":30787:31278   */\n    tag_339:\n        /* \"#utility.yul\":30924:30928   */\n      0x40\n        /* \"#utility.yul\":30919:30922   */\n      dup3\n        /* \"#utility.yul\":30915:30929   */\n      add\n        /* \"#utility.yul\":31008:31012   */\n      0x00\n        /* \"#utility.yul\":31001:31006   */\n      dup3\n        /* \"#utility.yul\":30997:31013   */\n      add\n        /* \"#utility.yul\":30991:31014   */\n      mload\n        /* \"#utility.yul\":31027:31090   */\n      tag_665\n        /* \"#utility.yul\":31084:31088   */\n      0x00\n        /* \"#utility.yul\":31079:31082   */\n      dup6\n        /* \"#utility.yul\":31075:31089   */\n      add\n        /* \"#utility.yul\":31061:31073   */\n      dup3\n        /* \"#utility.yul\":31027:31090   */\n      tag_308\n      jump\t// in\n    tag_665:\n        /* \"#utility.yul\":30939:31100   */\n      pop\n        /* \"#utility.yul\":31179:31183   */\n      0x20\n        /* \"#utility.yul\":31172:31177   */\n      dup3\n        /* \"#utility.yul\":31168:31184   */\n      add\n        /* \"#utility.yul\":31162:31185   */\n      mload\n        /* \"#utility.yul\":31198:31261   */\n      tag_666\n        /* \"#utility.yul\":31255:31259   */\n      0x20\n        /* \"#utility.yul\":31250:31253   */\n      dup6\n        /* \"#utility.yul\":31246:31260   */\n      add\n        /* \"#utility.yul\":31232:31244   */\n      dup3\n        /* \"#utility.yul\":31198:31261   */\n      tag_308\n      jump\t// in\n    tag_666:\n        /* \"#utility.yul\":31110:31271   */\n      pop\n        /* \"#utility.yul\":30893:31278   */\n      pop\n        /* \"#utility.yul\":30787:31278   */\n      pop\n      pop\n      jump\t// out\n        /* \"#utility.yul\":31284:31388   */\n    tag_340:\n        /* \"#utility.yul\":31349:31355   */\n      0x00\n        /* \"#utility.yul\":31377:31381   */\n      0x02\n        /* \"#utility.yul\":31367:31381   */\n      swap1\n      pop\n        /* \"#utility.yul\":31284:31388   */\n      swap2\n      swap1\n      pop\n      jump\t// out\n        /* \"#utility.yul\":31394:31527   */\n    tag_341:\n        /* \"#utility.yul\":31481:31492   */\n      0x00\n        /* \"#utility.yul\":31518:31521   */\n      dup2\n        /* \"#utility.yul\":31503:31521   */\n      swap1\n      pop\n        /* \"#utility.yul\":31394:31527   */\n      swap3\n      swap2\n      pop\n      pop\n      jump\t// out\n        /* \"#utility.yul\":31533:31631   */\n    tag_342:\n        /* \"#utility.yul\":31598:31602   */\n      0x00\n        /* \"#utility.yul\":31621:31624   */\n      dup2\n        /* \"#utility.yul\":31613:31624   */\n      swap1\n      pop\n        /* \"#utility.yul\":31533:31631   */\n      swap2\n      swap1\n      pop\n      jump\t// out\n        /* \"#utility.yul\":31637:31816   */\n    tag_343:\n        /* \"#utility.yul\":31706:31716   */\n      0x00\n        /* \"#utility.yul\":31727:31773   */\n      tag_671\n        /* \"#utility.yul\":31769:31772   */\n      dup4\n        /* \"#utility.yul\":31761:31767   */\n      dup4\n        /* \"#utility.yul\":31727:31773   */\n      tag_308\n      jump\t// in\n    tag_671:\n        /* \"#utility.yul\":31805:31809   */\n      0x20\n        /* \"#utility.yul\":31800:31803   */\n      dup4\n        /* \"#utility.yul\":31796:31810   */\n      add\n        /* \"#utility.yul\":31782:31810   */\n      swap1\n      pop\n        /* \"#utility.yul\":31637:31816   */\n      swap3\n      swap2\n      pop\n      pop\n      jump\t// out\n        /* \"#utility.yul\":31822:31933   */\n    tag_344:\n        /* \"#utility.yul\":31890:31894   */\n      0x00\n        /* \"#utility.yul\":31922:31926   */\n      0x20\n        /* \"#utility.yul\":31917:31920   */\n      dup3\n        /* \"#utility.yul\":31913:31927   */\n      add\n        /* \"#utility.yul\":31905:31927   */\n      swap1\n      pop\n        /* \"#utility.yul\":31822:31933   */\n      swap2\n      swap1\n      pop\n      jump\t// out\n        /* \"#utility.yul\":31971:32645   */\n    tag_345:\n        /* \"#utility.yul\":32097:32149   */\n      tag_674\n        /* \"#utility.yul\":32143:32148   */\n      dup2\n        /* \"#utility.yul\":32097:32149   */\n      tag_340\n      jump\t// in\n    tag_674:\n        /* \"#utility.yul\":32165:32239   */\n      tag_675\n        /* \"#utility.yul\":32232:32238   */\n      dup2\n        /* \"#utility.yul\":32227:32230   */\n      dup5\n        /* \"#utility.yul\":32165:32239   */\n      tag_341\n      jump\t// in\n    tag_675:\n        /* \"#utility.yul\":32158:32239   */\n      swap3\n      pop\n        /* \"#utility.yul\":32263:32317   */\n      tag_676\n        /* \"#utility.yul\":32311:32316   */\n      dup3\n        /* \"#utility.yul\":32263:32317   */\n      tag_342\n      jump\t// in\n    tag_676:\n        /* \"#utility.yul\":32340:32347   */\n      dup1\n        /* \"#utility.yul\":32371:32372   */\n      0x00\n        /* \"#utility.yul\":32356:32638   */\n    tag_677:\n        /* \"#utility.yul\":32381:32387   */\n      dup4\n        /* \"#utility.yul\":32378:32379   */\n      dup2\n        /* \"#utility.yul\":32375:32388   */\n      lt\n        /* \"#utility.yul\":32356:32638   */\n      iszero\n      tag_679\n      jumpi\n        /* \"#utility.yul\":32457:32463   */\n      dup2\n        /* \"#utility.yul\":32451:32464   */\n      mload\n        /* \"#utility.yul\":32484:32547   */\n      tag_680\n        /* \"#utility.yul\":32543:32546   */\n      dup8\n        /* \"#utility.yul\":32528:32541   */\n      dup3\n        /* \"#utility.yul\":32484:32547   */\n      tag_343\n      jump\t// in\n    tag_680:\n        /* \"#utility.yul\":32477:32547   */\n      swap7\n      pop\n        /* \"#utility.yul\":32570:32628   */\n      tag_681\n        /* \"#utility.yul\":32621:32627   */\n      dup4\n        /* \"#utility.yul\":32570:32628   */\n      tag_344\n      jump\t// in\n    tag_681:\n        /* \"#utility.yul\":32560:32628   */\n      swap3\n      pop\n        /* \"#utility.yul\":32416:32638   */\n      pop\n        /* \"#utility.yul\":32403:32404   */\n      0x01\n        /* \"#utility.yul\":32400:32401   */\n      dup2\n        /* \"#utility.yul\":32396:32405   */\n      add\n        /* \"#utility.yul\":32391:32405   */\n      swap1\n      pop\n        /* \"#utility.yul\":32356:32638   */\n      jump(tag_677)\n    tag_679:\n        /* \"#utility.yul\":32360:32374   */\n      pop\n        /* \"#utility.yul\":32073:32645   */\n      pop\n      pop\n      pop\n        /* \"#utility.yul\":31971:32645   */\n      pop\n      pop\n      jump\t// out\n        /* \"#utility.yul\":32707:33290   */\n    tag_346:\n        /* \"#utility.yul\":32844:32848   */\n      0x80\n        /* \"#utility.yul\":32839:32842   */\n      dup3\n        /* \"#utility.yul\":32835:32849   */\n      add\n        /* \"#utility.yul\":32928:32932   */\n      0x00\n        /* \"#utility.yul\":32921:32926   */\n      dup3\n        /* \"#utility.yul\":32917:32933   */\n      add\n        /* \"#utility.yul\":32911:32934   */\n      mload\n        /* \"#utility.yul\":32947:33056   */\n      tag_683\n        /* \"#utility.yul\":33050:33054   */\n      0x00\n        /* \"#utility.yul\":33045:33048   */\n      dup6\n        /* \"#utility.yul\":33041:33055   */\n      add\n        /* \"#utility.yul\":33027:33039   */\n      dup3\n        /* \"#utility.yul\":32947:33056   */\n      tag_345\n      jump\t// in\n    tag_683:\n        /* \"#utility.yul\":32859:33066   */\n      pop\n        /* \"#utility.yul\":33145:33149   */\n      0x20\n        /* \"#utility.yul\":33138:33143   */\n      dup3\n        /* \"#utility.yul\":33134:33150   */\n      add\n        /* \"#utility.yul\":33128:33151   */\n      mload\n        /* \"#utility.yul\":33164:33273   */\n      tag_684\n        /* \"#utility.yul\":33267:33271   */\n      0x40\n        /* \"#utility.yul\":33262:33265   */\n      dup6\n        /* \"#utility.yul\":33258:33272   */\n      add\n        /* \"#utility.yul\":33244:33256   */\n      dup3\n        /* \"#utility.yul\":33164:33273   */\n      tag_345\n      jump\t// in\n    tag_684:\n        /* \"#utility.yul\":33076:33283   */\n      pop\n        /* \"#utility.yul\":32813:33290   */\n      pop\n        /* \"#utility.yul\":32707:33290   */\n      pop\n      pop\n      jump\t// out\n        /* \"#utility.yul\":33352:34160   */\n    tag_347:\n        /* \"#utility.yul\":33483:33489   */\n      0x0100\n        /* \"#utility.yul\":33478:33481   */\n      dup3\n        /* \"#utility.yul\":33474:33490   */\n      add\n        /* \"#utility.yul\":33569:33573   */\n      0x00\n        /* \"#utility.yul\":33562:33567   */\n      dup3\n        /* \"#utility.yul\":33558:33574   */\n      add\n        /* \"#utility.yul\":33552:33575   */\n      mload\n        /* \"#utility.yul\":33588:33701   */\n      tag_686\n        /* \"#utility.yul\":33695:33699   */\n      0x00\n        /* \"#utility.yul\":33690:33693   */\n      dup6\n        /* \"#utility.yul\":33686:33700   */\n      add\n        /* \"#utility.yul\":33672:33684   */\n      dup3\n        /* \"#utility.yul\":33588:33701   */\n      tag_339\n      jump\t// in\n    tag_686:\n        /* \"#utility.yul\":33500:33711   */\n      pop\n        /* \"#utility.yul\":33790:33794   */\n      0x20\n        /* \"#utility.yul\":33783:33788   */\n      dup3\n        /* \"#utility.yul\":33779:33795   */\n      add\n        /* \"#utility.yul\":33773:33796   */\n      mload\n        /* \"#utility.yul\":33809:33922   */\n      tag_687\n        /* \"#utility.yul\":33916:33920   */\n      0x40\n        /* \"#utility.yul\":33911:33914   */\n      dup6\n        /* \"#utility.yul\":33907:33921   */\n      add\n        /* \"#utility.yul\":33893:33905   */\n      dup3\n        /* \"#utility.yul\":33809:33922   */\n      tag_346\n      jump\t// in\n    tag_687:\n        /* \"#utility.yul\":33721:33932   */\n      pop\n        /* \"#utility.yul\":34011:34015   */\n      0x40\n        /* \"#utility.yul\":34004:34009   */\n      dup3\n        /* \"#utility.yul\":34000:34016   */\n      add\n        /* \"#utility.yul\":33994:34017   */\n      mload\n        /* \"#utility.yul\":34030:34143   */\n      tag_688\n        /* \"#utility.yul\":34137:34141   */\n      0xc0\n        /* \"#utility.yul\":34132:34135   */\n      dup6\n        /* \"#utility.yul\":34128:34142   */\n      add\n        /* \"#utility.yul\":34114:34126   */\n      dup3\n        /* \"#utility.yul\":34030:34143   */\n      tag_339\n      jump\t// in\n    tag_688:\n        /* \"#utility.yul\":33942:34153   */\n      pop\n        /* \"#utility.yul\":33452:34160   */\n      pop\n        /* \"#utility.yul\":33352:34160   */\n      pop\n      pop\n      jump\t// out\n        /* \"#utility.yul\":34166:34270   */\n    tag_348:\n        /* \"#utility.yul\":34231:34237   */\n      0x00\n        /* \"#utility.yul\":34259:34263   */\n      0x01\n        /* \"#utility.yul\":34249:34263   */\n      swap1\n      pop\n        /* \"#utility.yul\":34166:34270   */\n      swap2\n      swap1\n      pop\n      jump\t// out\n        /* \"#utility.yul\":34276:34409   */\n    tag_349:\n        /* \"#utility.yul\":34363:34374   */\n      0x00\n        /* \"#utility.yul\":34400:34403   */\n      dup2\n        /* \"#utility.yul\":34385:34403   */\n      swap1\n      pop\n        /* \"#utility.yul\":34276:34409   */\n      swap3\n      swap2\n      pop\n      pop\n      jump\t// out\n        /* \"#utility.yul\":34415:34513   */\n    tag_350:\n        /* \"#utility.yul\":34480:34484   */\n      0x00\n        /* \"#utility.yul\":34503:34506   */\n      dup2\n        /* \"#utility.yul\":34495:34506   */\n      swap1\n      pop\n        /* \"#utility.yul\":34415:34513   */\n      swap2\n      swap1\n      pop\n      jump\t// out\n        /* \"#utility.yul\":34519:34630   */\n    tag_351:\n        /* \"#utility.yul\":34587:34591   */\n      0x00\n        /* \"#utility.yul\":34619:34623   */\n      0x20\n        /* \"#utility.yul\":34614:34617   */\n      dup3\n        /* \"#utility.yul\":34610:34624   */\n      add\n        /* \"#utility.yul\":34602:34624   */\n      swap1\n      pop\n        /* \"#utility.yul\":34519:34630   */\n      swap2\n      swap1\n      pop\n      jump\t// out\n        /* \"#utility.yul\":34668:35342   */\n    tag_352:\n        /* \"#utility.yul\":34794:34846   */\n      tag_694\n        /* \"#utility.yul\":34840:34845   */\n      dup2\n        /* \"#utility.yul\":34794:34846   */\n      tag_348\n      jump\t// in\n    tag_694:\n        /* \"#utility.yul\":34862:34936   */\n      tag_695\n        /* \"#utility.yul\":34929:34935   */\n      dup2\n        /* \"#utility.yul\":34924:34927   */\n      dup5\n        /* \"#utility.yul\":34862:34936   */\n      tag_349\n      jump\t// in\n    tag_695:\n        /* \"#utility.yul\":34855:34936   */\n      swap3\n      pop\n        /* \"#utility.yul\":34960:35014   */\n      tag_696\n        /* \"#utility.yul\":35008:35013   */\n      dup3\n        /* \"#utility.yul\":34960:35014   */\n      tag_350\n      jump\t// in\n    tag_696:\n        /* \"#utility.yul\":35037:35044   */\n      dup1\n        /* \"#utility.yul\":35068:35069   */\n      0x00\n        /* \"#utility.yul\":35053:35335   */\n    tag_697:\n        /* \"#utility.yul\":35078:35084   */\n      dup4\n        /* \"#utility.yul\":35075:35076   */\n      dup2\n        /* \"#utility.yul\":35072:35085   */\n      lt\n        /* \"#utility.yul\":35053:35335   */\n      iszero\n      tag_699\n      jumpi\n        /* \"#utility.yul\":35154:35160   */\n      dup2\n        /* \"#utility.yul\":35148:35161   */\n      mload\n        /* \"#utility.yul\":35181:35244   */\n      tag_700\n        /* \"#utility.yul\":35240:35243   */\n      dup8\n        /* \"#utility.yul\":35225:35238   */\n      dup3\n        /* \"#utility.yul\":35181:35244   */\n      tag_343\n      jump\t// in\n    tag_700:\n        /* \"#utility.yul\":35174:35244   */\n      swap7\n      pop\n        /* \"#utility.yul\":35267:35325   */\n      tag_701\n        /* \"#utility.yul\":35318:35324   */\n      dup4\n        /* \"#utility.yul\":35267:35325   */\n      tag_351\n      jump\t// in\n    tag_701:\n        /* \"#utility.yul\":35257:35325   */\n      swap3\n      pop\n        /* \"#utility.yul\":35113:35335   */\n      pop\n        /* \"#utility.yul\":35100:35101   */\n      0x01\n        /* \"#utility.yul\":35097:35098   */\n      dup2\n        /* \"#utility.yul\":35093:35102   */\n      add\n        /* \"#utility.yul\":35088:35102   */\n      swap1\n      pop\n        /* \"#utility.yul\":35053:35335   */\n      jump(tag_697)\n    tag_699:\n        /* \"#utility.yul\":35057:35071   */\n      pop\n        /* \"#utility.yul\":34770:35342   */\n      pop\n      pop\n      pop\n        /* \"#utility.yul\":34668:35342   */\n      pop\n      pop\n      jump\t// out\n        /* \"#utility.yul\":35412:36017   */\n    tag_353:\n        /* \"#utility.yul\":35561:35567   */\n      0x0120\n        /* \"#utility.yul\":35556:35559   */\n      dup3\n        /* \"#utility.yul\":35552:35568   */\n      add\n        /* \"#utility.yul\":35651:35655   */\n      0x00\n        /* \"#utility.yul\":35644:35649   */\n      dup3\n        /* \"#utility.yul\":35640:35656   */\n      add\n        /* \"#utility.yul\":35634:35657   */\n      mload\n        /* \"#utility.yul\":35670:35777   */\n      tag_703\n        /* \"#utility.yul\":35771:35775   */\n      0x00\n        /* \"#utility.yul\":35766:35769   */\n      dup6\n        /* \"#utility.yul\":35762:35776   */\n      add\n        /* \"#utility.yul\":35748:35760   */\n      dup3\n        /* \"#utility.yul\":35670:35777   */\n      tag_347\n      jump\t// in\n    tag_703:\n        /* \"#utility.yul\":35578:35787   */\n      pop\n        /* \"#utility.yul\":35870:35874   */\n      0x20\n        /* \"#utility.yul\":35863:35868   */\n      dup3\n        /* \"#utility.yul\":35859:35875   */\n      add\n        /* \"#utility.yul\":35853:35876   */\n      mload\n        /* \"#utility.yul\":35889:36000   */\n      tag_704\n        /* \"#utility.yul\":35992:35998   */\n      0x0100\n        /* \"#utility.yul\":35987:35990   */\n      dup6\n        /* \"#utility.yul\":35983:35999   */\n      add\n        /* \"#utility.yul\":35969:35981   */\n      dup3\n        /* \"#utility.yul\":35889:36000   */\n      tag_352\n      jump\t// in\n    tag_704:\n        /* \"#utility.yul\":35797:36010   */\n      pop\n        /* \"#utility.yul\":35530:36017   */\n      pop\n        /* \"#utility.yul\":35412:36017   */\n      pop\n      pop\n      jump\t// out\n        /* \"#utility.yul\":36023:36350   */\n    tag_239:\n        /* \"#utility.yul\":36168:36172   */\n      0x00\n        /* \"#utility.yul\":36206:36209   */\n      0x0120\n        /* \"#utility.yul\":36195:36204   */\n      dup3\n        /* \"#utility.yul\":36191:36210   */\n      add\n        /* \"#utility.yul\":36183:36210   */\n      swap1\n      pop\n        /* \"#utility.yul\":36220:36343   */\n      tag_706\n        /* \"#utility.yul\":36340:36341   */\n      0x00\n        /* \"#utility.yul\":36329:36338   */\n      dup4\n        /* \"#utility.yul\":36325:36342   */\n      add\n        /* \"#utility.yul\":36316:36322   */\n      dup5\n        /* \"#utility.yul\":36220:36343   */\n      tag_353\n      jump\t// in\n    tag_706:\n        /* \"#utility.yul\":36023:36350   */\n      swap3\n      swap2\n      pop\n      pop\n      jump\t// out\n        /* \"#utility.yul\":36356:36529   */\n    tag_354:\n        /* \"#utility.yul\":36496:36521   */\n      0x43616e6e6f74207472616e7366657220746f2073656c66000000000000000000\n        /* \"#utility.yul\":36492:36493   */\n      0x00\n        /* \"#utility.yul\":36484:36490   */\n      dup3\n        /* \"#utility.yul\":36480:36494   */\n      add\n        /* \"#utility.yul\":36473:36522   */\n      mstore\n        /* \"#utility.yul\":36356:36529   */\n      pop\n      jump\t// out\n        /* \"#utility.yul\":36535:36901   */\n    tag_355:\n        /* \"#utility.yul\":36677:36680   */\n      0x00\n        /* \"#utility.yul\":36698:36765   */\n      tag_709\n        /* \"#utility.yul\":36762:36764   */\n      0x17\n        /* \"#utility.yul\":36757:36760   */\n      dup4\n        /* \"#utility.yul\":36698:36765   */\n      tag_323\n      jump\t// in\n    tag_709:\n        /* \"#utility.yul\":36691:36765   */\n      swap2\n      pop\n        /* \"#utility.yul\":36774:36867   */\n      tag_710\n        /* \"#utility.yul\":36863:36866   */\n      dup3\n        /* \"#utility.yul\":36774:36867   */\n      tag_354\n      jump\t// in\n    tag_710:\n        /* \"#utility.yul\":36892:36894   */\n      0x20\n        /* \"#utility.yul\":36887:36890   */\n      dup3\n        /* \"#utility.yul\":36883:36895   */\n      add\n        /* \"#utility.yul\":36876:36895   */\n      swap1\n      pop\n        /* \"#utility.yul\":36535:36901   */\n      swap2\n      swap1\n      pop\n      jump\t// out\n        /* \"#utility.yul\":36907:37326   */\n    tag_254:\n        /* \"#utility.yul\":37073:37077   */\n      0x00\n        /* \"#utility.yul\":37111:37113   */\n      0x20\n        /* \"#utility.yul\":37100:37109   */\n      dup3\n        /* \"#utility.yul\":37096:37114   */\n      add\n        /* \"#utility.yul\":37088:37114   */\n      swap1\n      pop\n        /* \"#utility.yul\":37160:37169   */\n      dup2\n        /* \"#utility.yul\":37154:37158   */\n      dup2\n        /* \"#utility.yul\":37150:37170   */\n      sub\n        /* \"#utility.yul\":37146:37147   */\n      0x00\n        /* \"#utility.yul\":37135:37144   */\n      dup4\n        /* \"#utility.yul\":37131:37148   */\n      add\n        /* \"#utility.yul\":37124:37171   */\n      mstore\n        /* \"#utility.yul\":37188:37319   */\n      tag_712\n        /* \"#utility.yul\":37314:37318   */\n      dup2\n        /* \"#utility.yul\":37188:37319   */\n      tag_355\n      jump\t// in\n    tag_712:\n        /* \"#utility.yul\":37180:37319   */\n      swap1\n      pop\n        /* \"#utility.yul\":36907:37326   */\n      swap2\n      swap1\n      pop\n      jump\t// out\n        /* \"#utility.yul\":37332:37431   */\n    tag_356:\n        /* \"#utility.yul\":37403:37424   */\n      tag_714\n        /* \"#utility.yul\":37418:37423   */\n      dup2\n        /* \"#utility.yul\":37403:37424   */\n      tag_264\n      jump\t// in\n    tag_714:\n        /* \"#utility.yul\":37398:37401   */\n      dup3\n        /* \"#utility.yul\":37391:37425   */\n      mstore\n        /* \"#utility.yul\":37332:37431   */\n      pop\n      pop\n      jump\t// out\n        /* \"#utility.yul\":37505:38024   */\n    tag_357:\n        /* \"#utility.yul\":37664:37668   */\n      0x40\n        /* \"#utility.yul\":37659:37662   */\n      dup3\n        /* \"#utility.yul\":37655:37669   */\n      add\n        /* \"#utility.yul\":37755:37759   */\n      0x00\n        /* \"#utility.yul\":37748:37753   */\n      dup3\n        /* \"#utility.yul\":37744:37760   */\n      add\n        /* \"#utility.yul\":37738:37761   */\n      mload\n        /* \"#utility.yul\":37774:37837   */\n      tag_716\n        /* \"#utility.yul\":37831:37835   */\n      0x00\n        /* \"#utility.yul\":37826:37829   */\n      dup6\n        /* \"#utility.yul\":37822:37836   */\n      add\n        /* \"#utility.yul\":37808:37820   */\n      dup3\n        /* \"#utility.yul\":37774:37837   */\n      tag_308\n      jump\t// in\n    tag_716:\n        /* \"#utility.yul\":37679:37847   */\n      pop\n        /* \"#utility.yul\":37931:37935   */\n      0x20\n        /* \"#utility.yul\":37924:37929   */\n      dup3\n        /* \"#utility.yul\":37920:37936   */\n      add\n        /* \"#utility.yul\":37914:37937   */\n      mload\n        /* \"#utility.yul\":37950:38007   */\n      tag_717\n        /* \"#utility.yul\":38001:38005   */\n      0x20\n        /* \"#utility.yul\":37996:37999   */\n      dup6\n        /* \"#utility.yul\":37992:38006   */\n      add\n        /* \"#utility.yul\":37978:37990   */\n      dup3\n        /* \"#utility.yul\":37950:38007   */\n      tag_356\n      jump\t// in\n    tag_717:\n        /* \"#utility.yul\":37857:38017   */\n      pop\n        /* \"#utility.yul\":37633:38024   */\n      pop\n        /* \"#utility.yul\":37505:38024   */\n      pop\n      pop\n      jump\t// out\n        /* \"#utility.yul\":38030:38376   */\n    tag_257:\n        /* \"#utility.yul\":38185:38189   */\n      0x00\n        /* \"#utility.yul\":38223:38225   */\n      0x40\n        /* \"#utility.yul\":38212:38221   */\n      dup3\n        /* \"#utility.yul\":38208:38226   */\n      add\n        /* \"#utility.yul\":38200:38226   */\n      swap1\n      pop\n        /* \"#utility.yul\":38236:38369   */\n      tag_719\n        /* \"#utility.yul\":38366:38367   */\n      0x00\n        /* \"#utility.yul\":38355:38364   */\n      dup4\n        /* \"#utility.yul\":38351:38368   */\n      add\n        /* \"#utility.yul\":38342:38348   */\n      dup5\n        /* \"#utility.yul\":38236:38369   */\n      tag_357\n      jump\t// in\n    tag_719:\n        /* \"#utility.yul\":38030:38376   */\n      swap3\n      swap2\n      pop\n      pop\n      jump\t// out\n\n    auxdata: 0xa26469706673582212208796c430ed46815109148b8219eb3d5d857e03ca97865d3f0fc56a907c21df6564736f6c63430008130033\n}\n",
				"bytecode": {
					"linkReferences": {},
					"object": "60a06040523480156200001157600080fd5b5060405162002b5e38038062002b5e8339818101604052810190620000379190620003c4565b3380600084600073ffffffffffffffffffffffffffffffffffffffff168173ffffffffffffffffffffffffffffffffffffffff1603620000b15760006040517fd7f73334000000000000000000000000000000000000000000000000000000008152600401620000a891906200041c565b60405180910390fd5b8073ffffffffffffffffffffffffffffffffffffffff1660808173ffffffffffffffffffffffffffffffffffffffff168152505050600073ffffffffffffffffffffffffffffffffffffffff168273ffffffffffffffffffffffffffffffffffffffff160362000158576040517f08c379a00000000000000000000000000000000000000000000000000000000081526004016200014f906200049a565b60405180910390fd5b816000806101000a81548173ffffffffffffffffffffffffffffffffffffffff021916908373ffffffffffffffffffffffffffffffffffffffff160217905550600073ffffffffffffffffffffffffffffffffffffffff168173ffffffffffffffffffffffffffffffffffffffff1614620001df57620001de816200022b60201b60201c565b5b50505080600760006101000a81548173ffffffffffffffffffffffffffffffffffffffff021916908373ffffffffffffffffffffffffffffffffffffffff16021790555050506200052e565b3373ffffffffffffffffffffffffffffffffffffffff168173ffffffffffffffffffffffffffffffffffffffff16036200029c576040517f08c379a000000000000000000000000000000000000000000000000000000000815260040162000293906200050c565b60405180910390fd5b80600160006101000a81548173ffffffffffffffffffffffffffffffffffffffff021916908373ffffffffffffffffffffffffffffffffffffffff1602179055508073ffffffffffffffffffffffffffffffffffffffff1660008054906101000a900473ffffffffffffffffffffffffffffffffffffffff1673ffffffffffffffffffffffffffffffffffffffff167fed8889f560326eb138920d842192f0eb3dd22b4f139c87a2c57538e05bae127860405160405180910390a350565b600080fd5b600073ffffffffffffffffffffffffffffffffffffffff82169050919050565b60006200038c826200035f565b9050919050565b6200039e816200037f565b8114620003aa57600080fd5b50565b600081519050620003be8162000393565b92915050565b60008060408385031215620003de57620003dd6200035a565b5b6000620003ee85828601620003ad565b92505060206200040185828601620003ad565b9150509250929050565b62000416816200037f565b82525050565b60006020820190506200043360008301846200040b565b92915050565b600082825260208201905092915050565b7f43616e6e6f7420736574206f776e657220746f207a65726f0000000000000000600082015250565b60006200048260188362000439565b91506200048f826200044a565b602082019050919050565b60006020820190508181036000830152620004b58162000473565b9050919050565b7f43616e6e6f74207472616e7366657220746f2073656c66000000000000000000600082015250565b6000620004f460178362000439565b91506200050182620004bc565b602082019050919050565b600060208201905081810360008301526200052781620004e5565b9050919050565b60805161260d6200055160003960008181610d2f0152610ead015261260d6000f3fe60806040526004361061012e5760003560e01c80637898d184116100ab5780638da5cb5b1161006f5780638da5cb5b146103f857806392a8c1fe14610423578063a32ba7ec1461044c578063b0f479a114610475578063bf565170146104a0578063f2fde38b146104dd57610135565b80637898d1841461031557806379ba50971461033e5780637dc91a0214610355578063835b347c1461039257806385572ffb146103cf57610135565b80633aeac4e1116100f25780633aeac4e11461024657806347569edf1461026f57806351cff8d91461029a57806373645cff146102c35780637736035b146102ec57610135565b806301ffc9a71461013a57806321b7640814610177578063263596a5146101b4578063272efc69146101e05780632f10a6c61461021d57610135565b3661013557005b600080fd5b34801561014657600080fd5b50610161600480360381019061015c91906114e0565b610506565b60405161016e9190611528565b60405180910390f35b34801561018357600080fd5b5061019e60048036038101906101999190611970565b6105d8565b6040516101ab91906119dd565b60405180910390f35b3480156101c057600080fd5b506101c9610831565b6040516101d79291906119f8565b60405180910390f35b3480156101ec57600080fd5b5061020760048036038101906102029190611a21565b61084f565b6040516102149190611528565b60405180910390f35b34801561022957600080fd5b50610244600480360381019061023f9190611a21565b61086f565b005b34801561025257600080fd5b5061026d60048036038101906102689190611a4e565b6108d2565b005b34801561027b57600080fd5b506102846109dc565b6040516102919190611528565b60405180910390f35b3480156102a657600080fd5b506102c160048036038101906102bc9190611a21565b6109ef565b005b3480156102cf57600080fd5b506102ea60048036038101906102e59190611a8e565b610a77565b005b3480156102f857600080fd5b50610313600480360381019061030e9190611a8e565b610ac2565b005b34801561032157600080fd5b5061033c60048036038101906103379190611a8e565b610b0d565b005b34801561034a57600080fd5b50610353610b58565b005b34801561036157600080fd5b5061037c60048036038101906103779190611a8e565b610ced565b6040516103899190611528565b60405180910390f35b34801561039e57600080fd5b506103b960048036038101906103b49190611a8e565b610d0d565b6040516103c69190611528565b60405180910390f35b3480156103db57600080fd5b506103f660048036038101906103f19190611adf565b610d2d565b005b34801561040457600080fd5b5061040d610dd2565b60405161041a9190611b37565b60405180910390f35b34801561042f57600080fd5b5061044a60048036038101906104459190611a21565b610dfb565b005b34801561045857600080fd5b50610473600480360381019061046e9190611a8e565b610e5e565b005b34801561048157600080fd5b5061048a610ea9565b6040516104979190611b37565b60405180910390f35b3480156104ac57600080fd5b506104c760048036038101906104c29190611970565b610ed1565b6040516104d491906119dd565b60405180910390f35b3480156104e957600080fd5b5061050460048036038101906104ff9190611a21565b611069565b005b60007f85572ffb000000000000000000000000000000000000000000000000000000007bffffffffffffffffffffffffffffffffffffffffffffffffffffffff1916827bffffffffffffffffffffffffffffffffffffffffffffffffffffffff191614806105d157507f01ffc9a7000000000000000000000000000000000000000000000000000000007bffffffffffffffffffffffffffffffffffffffffffffffffffffffff1916827bffffffffffffffffffffffffffffffffffffffffffffffffffffffff1916145b9050919050565b60006105e261107d565b60006106118484600760009054906101000a900473ffffffffffffffffffffffffffffffffffffffff1661110d565b905060003073ffffffffffffffffffffffffffffffffffffffff1663b0f479a16040518163ffffffff1660e01b8152600401602060405180830381865afa158015610660573d6000803e3d6000fd5b505050506040513d601f19601f820116820180604052508101906106849190611b67565b905060008173ffffffffffffffffffffffffffffffffffffffff166320487ded88856040518363ffffffff1660e01b81526004016106c3929190611da9565b602060405180830381865afa1580156106e0573d6000803e3d6000fd5b505050506040513d601f19601f820116820180604052508101906107049190611dee565b9050600760009054906101000a900473ffffffffffffffffffffffffffffffffffffffff1673ffffffffffffffffffffffffffffffffffffffff1663095ea7b383836040518363ffffffff1660e01b8152600401610763929190611e2a565b6020604051808303816000875af1158015610782573d6000803e3d6000fd5b505050506040513d601f19601f820116820180604052508101906107a69190611e7f565b508173ffffffffffffffffffffffffffffffffffffffff166396f4e9f988856040518363ffffffff1660e01b81526004016107e2929190611da9565b6020604051808303816000875af1158015610801573d6000803e3d6000fd5b505050506040513d601f19601f820116820180604052508101906108259190611ed8565b93505050509392505050565b600080600254600360009054906101000a900460ff16915091509091565b60066020528060005260406000206000915054906101000a900460ff1681565b61087761107d565b6001600660008373ffffffffffffffffffffffffffffffffffffffff1673ffffffffffffffffffffffffffffffffffffffff16815260200190815260200160002060006101000a81548160ff02191690831515021790555050565b6108da61107d565b60008173ffffffffffffffffffffffffffffffffffffffff166370a08231306040518263ffffffff1660e01b81526004016109159190611b37565b602060405180830381865afa158015610932573d6000803e3d6000fd5b505050506040513d601f19601f820116820180604052508101906109569190611dee565b90508173ffffffffffffffffffffffffffffffffffffffff1663a9059cbb84836040518363ffffffff1660e01b8152600401610993929190611e2a565b6020604051808303816000875af11580156109b2573d6000803e3d6000fd5b505050506040513d601f19601f820116820180604052508101906109d69190611e7f565b50505050565b600360009054906101000a900460ff1681565b6109f761107d565b600047905060008273ffffffffffffffffffffffffffffffffffffffff1682604051610a2290611f36565b60006040518083038185875af1925050503d8060008114610a5f576040519150601f19603f3d011682016040523d82523d6000602084013e610a64565b606091505b5050905080610a7257600080fd5b505050565b610a7f61107d565b6000600460008367ffffffffffffffff1667ffffffffffffffff16815260200190815260200160002060006101000a81548160ff02191690831515021790555050565b610aca61107d565b6001600560008367ffffffffffffffff1667ffffffffffffffff16815260200190815260200160002060006101000a81548160ff02191690831515021790555050565b610b1561107d565b6001600460008367ffffffffffffffff1667ffffffffffffffff16815260200190815260200160002060006101000a81548160ff02191690831515021790555050565b600160009054906101000a900473ffffffffffffffffffffffffffffffffffffffff1673ffffffffffffffffffffffffffffffffffffffff163373ffffffffffffffffffffffffffffffffffffffff1614610be8576040517f08c379a0000000000000000000000000000000000000000000000000000000008152600401610bdf90611fa8565b60405180910390fd5b60008060009054906101000a900473ffffffffffffffffffffffffffffffffffffffff169050336000806101000a81548173ffffffffffffffffffffffffffffffffffffffff021916908373ffffffffffffffffffffffffffffffffffffffff1602179055506000600160006101000a81548173ffffffffffffffffffffffffffffffffffffffff021916908373ffffffffffffffffffffffffffffffffffffffff1602179055503373ffffffffffffffffffffffffffffffffffffffff168173ffffffffffffffffffffffffffffffffffffffff167f8be0079c531659141344cd1fd0a4f28419497f9722a3daafe3b4186f6b6457e060405160405180910390a350565b60056020528060005260406000206000915054906101000a900460ff1681565b60046020528060005260406000206000915054906101000a900460ff1681565b7f000000000000000000000000000000000000000000000000000000000000000073ffffffffffffffffffffffffffffffffffffffff163373ffffffffffffffffffffffffffffffffffffffff1614610dbd57336040517fd7f73334000000000000000000000000000000000000000000000000000000008152600401610db49190611b37565b60405180910390fd5b610dcf81610dca90612285565b611215565b50565b60008060009054906101000a900473ffffffffffffffffffffffffffffffffffffffff16905090565b610e0361107d565b6000600660008373ffffffffffffffffffffffffffffffffffffffff1673ffffffffffffffffffffffffffffffffffffffff16815260200190815260200160002060006101000a81548160ff02191690831515021790555050565b610e6661107d565b6000600560008367ffffffffffffffff1667ffffffffffffffff16815260200190815260200160002060006101000a81548160ff02191690831515021790555050565b60007f0000000000000000000000000000000000000000000000000000000000000000905090565b6000610edb61107d565b6000610ee98484600061110d565b905060003073ffffffffffffffffffffffffffffffffffffffff1663b0f479a16040518163ffffffff1660e01b8152600401602060405180830381865afa158015610f38573d6000803e3d6000fd5b505050506040513d601f19601f82011682018060405250810190610f5c9190611b67565b905060008173ffffffffffffffffffffffffffffffffffffffff166320487ded88856040518363ffffffff1660e01b8152600401610f9b929190611da9565b602060405180830381865afa158015610fb8573d6000803e3d6000fd5b505050506040513d601f19601f82011682018060405250810190610fdc9190611dee565b90508173ffffffffffffffffffffffffffffffffffffffff166396f4e9f98289866040518463ffffffff1660e01b815260040161101a929190611da9565b60206040518083038185885af1158015611038573d6000803e3d6000fd5b50505050506040513d601f19601f8201168201806040525081019061105d9190611ed8565b93505050509392505050565b61107161107d565b61107a81611254565b50565b60008054906101000a900473ffffffffffffffffffffffffffffffffffffffff1673ffffffffffffffffffffffffffffffffffffffff163373ffffffffffffffffffffffffffffffffffffffff161461110b576040517f08c379a0000000000000000000000000000000000000000000000000000000008152600401611102906122e4565b60405180910390fd5b565b6111156113ff565b60006040518060a00160405280866040516020016111339190611b37565b60405160208183030381529060405281526020018560405160200161115891906124f6565b6040516020818303038152906040528152602001600067ffffffffffffffff811115611187576111866115f7565b5b6040519080825280602002602001820160405280156111c057816020015b6111ad611444565b8152602001906001900390816111a55790505b5081526020018473ffffffffffffffffffffffffffffffffffffffff16815260200161120560405180604001604052806206ddd0815260200160001515815250611380565b8152509050809150509392505050565b806000015160028190555080606001518060200190518101906112389190611e7f565b600360006101000a81548160ff02191690831515021790555050565b3373ffffffffffffffffffffffffffffffffffffffff168173ffffffffffffffffffffffffffffffffffffffff16036112c2576040517f08c379a00000000000000000000000000000000000000000000000000000000081526004016112b99061255e565b60405180910390fd5b80600160006101000a81548173ffffffffffffffffffffffffffffffffffffffff021916908373ffffffffffffffffffffffffffffffffffffffff1602179055508073ffffffffffffffffffffffffffffffffffffffff1660008054906101000a900473ffffffffffffffffffffffffffffffffffffffff1673ffffffffffffffffffffffffffffffffffffffff167fed8889f560326eb138920d842192f0eb3dd22b4f139c87a2c57538e05bae127860405160405180910390a350565b60606397a657c960e01b8260405160240161139b91906125bc565b604051602081830303815290604052907bffffffffffffffffffffffffffffffffffffffffffffffffffffffff19166020820180517bffffffffffffffffffffffffffffffffffffffffffffffffffffffff83818316178352505050509050919050565b6040518060a00160405280606081526020016060815260200160608152602001600073ffffffffffffffffffffffffffffffffffffffff168152602001606081525090565b6040518060400160405280600073ffffffffffffffffffffffffffffffffffffffff168152602001600081525090565b6000604051905090565b600080fd5b600080fd5b60007fffffffff0000000000000000000000000000000000000000000000000000000082169050919050565b6114bd81611488565b81146114c857600080fd5b50565b6000813590506114da816114b4565b92915050565b6000602082840312156114f6576114f561147e565b5b6000611504848285016114cb565b91505092915050565b60008115159050919050565b6115228161150d565b82525050565b600060208201905061153d6000830184611519565b92915050565b600067ffffffffffffffff82169050919050565b61156081611543565b811461156b57600080fd5b50565b60008135905061157d81611557565b92915050565b600073ffffffffffffffffffffffffffffffffffffffff82169050919050565b60006115ae82611583565b9050919050565b6115be816115a3565b81146115c957600080fd5b50565b6000813590506115db816115b5565b92915050565b600080fd5b6000601f19601f8301169050919050565b7f4e487b7100000000000000000000000000000000000000000000000000000000600052604160045260246000fd5b61162f826115e6565b810181811067ffffffffffffffff8211171561164e5761164d6115f7565b5b80604052505050565b6000611661611474565b905061166d8282611626565b919050565b600080fd5b6000819050919050565b61168a81611677565b811461169557600080fd5b50565b6000813590506116a781611681565b92915050565b6000604082840312156116c3576116c26115e1565b5b6116cd6040611657565b905060006116dd84828501611698565b60008301525060206116f184828501611698565b60208301525092915050565b600080fd5b600067ffffffffffffffff82111561171d5761171c6115f7565b5b602082029050919050565b600080fd5b600061174061173b84611702565b611657565b9050806020840283018581111561175a57611759611728565b5b835b81811015611783578061176f8882611698565b84526020840193505060208101905061175c565b5050509392505050565b600082601f8301126117a2576117a16116fd565b5b60026117af84828561172d565b91505092915050565b6000608082840312156117ce576117cd6115e1565b5b6117d86040611657565b905060006117e88482850161178d565b60008301525060406117fc8482850161178d565b60208301525092915050565b6000610100828403121561181f5761181e6115e1565b5b6118296060611657565b90506000611839848285016116ad565b600083015250604061184d848285016117b8565b60208301525060c0611861848285016116ad565b60408301525092915050565b600067ffffffffffffffff821115611888576118876115f7565b5b602082029050919050565b60006118a66118a18461186d565b611657565b905080602084028301858111156118c0576118bf611728565b5b835b818110156118e957806118d58882611698565b8452602084019350506020810190506118c2565b5050509392505050565b600082601f830112611908576119076116fd565b5b6001611915848285611893565b91505092915050565b60006101208284031215611935576119346115e1565b5b61193f6040611657565b9050600061194f84828501611808565b600083015250610100611964848285016118f3565b60208301525092915050565b6000806000610160848603121561198a5761198961147e565b5b60006119988682870161156e565b93505060206119a9868287016115cc565b92505060406119ba8682870161191e565b9150509250925092565b6000819050919050565b6119d7816119c4565b82525050565b60006020820190506119f260008301846119ce565b92915050565b6000604082019050611a0d60008301856119ce565b611a1a6020830184611519565b9392505050565b600060208284031215611a3757611a3661147e565b5b6000611a45848285016115cc565b91505092915050565b60008060408385031215611a6557611a6461147e565b5b6000611a73858286016115cc565b9250506020611a84858286016115cc565b9150509250929050565b600060208284031215611aa457611aa361147e565b5b6000611ab28482850161156e565b91505092915050565b600080fd5b600060a08284031215611ad657611ad5611abb565b5b81905092915050565b600060208284031215611af557611af461147e565b5b600082013567ffffffffffffffff811115611b1357611b12611483565b5b611b1f84828501611ac0565b91505092915050565b611b31816115a3565b82525050565b6000602082019050611b4c6000830184611b28565b92915050565b600081519050611b61816115b5565b92915050565b600060208284031215611b7d57611b7c61147e565b5b6000611b8b84828501611b52565b91505092915050565b611b9d81611543565b82525050565b600081519050919050565b600082825260208201905092915050565b60005b83811015611bdd578082015181840152602081019050611bc2565b60008484015250505050565b6000611bf482611ba3565b611bfe8185611bae565b9350611c0e818560208601611bbf565b611c17816115e6565b840191505092915050565b600081519050919050565b600082825260208201905092915050565b6000819050602082019050919050565b611c57816115a3565b82525050565b611c6681611677565b82525050565b604082016000820151611c826000850182611c4e565b506020820151611c956020850182611c5d565b50505050565b6000611ca78383611c6c565b60408301905092915050565b6000602082019050919050565b6000611ccb82611c22565b611cd58185611c2d565b9350611ce083611c3e565b8060005b83811015611d11578151611cf88882611c9b565b9750611d0383611cb3565b925050600181019050611ce4565b5085935050505092915050565b600060a0830160008301518482036000860152611d3b8282611be9565b91505060208301518482036020860152611d558282611be9565b91505060408301518482036040860152611d6f8282611cc0565b9150506060830151611d846060860182611c4e565b5060808301518482036080860152611d9c8282611be9565b9150508091505092915050565b6000604082019050611dbe6000830185611b94565b8181036020830152611dd08184611d1e565b90509392505050565b600081519050611de881611681565b92915050565b600060208284031215611e0457611e0361147e565b5b6000611e1284828501611dd9565b91505092915050565b611e2481611677565b82525050565b6000604082019050611e3f6000830185611b28565b611e4c6020830184611e1b565b9392505050565b611e5c8161150d565b8114611e6757600080fd5b50565b600081519050611e7981611e53565b92915050565b600060208284031215611e9557611e9461147e565b5b6000611ea384828501611e6a565b91505092915050565b611eb5816119c4565b8114611ec057600080fd5b50565b600081519050611ed281611eac565b92915050565b600060208284031215611eee57611eed61147e565b5b6000611efc84828501611ec3565b91505092915050565b600081905092915050565b50565b6000611f20600083611f05565b9150611f2b82611f10565b600082019050919050565b6000611f4182611f13565b9150819050919050565b600082825260208201905092915050565b7f4d7573742062652070726f706f736564206f776e657200000000000000000000600082015250565b6000611f92601683611f4b565b9150611f9d82611f5c565b602082019050919050565b60006020820190508181036000830152611fc181611f85565b9050919050565b600081359050611fd781611eac565b92915050565b600080fd5b600067ffffffffffffffff821115611ffd57611ffc6115f7565b5b612006826115e6565b9050602081019050919050565b82818337600083830152505050565b600061203561203084611fe2565b611657565b90508281526020810184848401111561205157612050611fdd565b5b61205c848285612013565b509392505050565b600082601f830112612079576120786116fd565b5b8135612089848260208601612022565b91505092915050565b600067ffffffffffffffff8211156120ad576120ac6115f7565b5b602082029050602081019050919050565b6000604082840312156120d4576120d36115e1565b5b6120de6040611657565b905060006120ee848285016115cc565b600083015250602061210284828501611698565b60208301525092915050565b600061212161211c84612092565b611657565b9050808382526020820190506040840283018581111561214457612143611728565b5b835b8181101561216d578061215988826120be565b845260208401935050604081019050612146565b5050509392505050565b600082601f83011261218c5761218b6116fd565b5b813561219c84826020860161210e565b91505092915050565b600060a082840312156121bb576121ba6115e1565b5b6121c560a0611657565b905060006121d584828501611fc8565b60008301525060206121e98482850161156e565b602083015250604082013567ffffffffffffffff81111561220d5761220c611672565b5b61221984828501612064565b604083015250606082013567ffffffffffffffff81111561223d5761223c611672565b5b61224984828501612064565b606083015250608082013567ffffffffffffffff81111561226d5761226c611672565b5b61227984828501612177565b60808301525092915050565b600061229136836121a5565b9050919050565b7f4f6e6c792063616c6c61626c65206279206f776e657200000000000000000000600082015250565b60006122ce601683611f4b565b91506122d982612298565b602082019050919050565b600060208201905081810360008301526122fd816122c1565b9050919050565b60408201600082015161231a6000850182611c5d565b50602082015161232d6020850182611c5d565b50505050565b600060029050919050565b600081905092915050565b6000819050919050565b600061235f8383611c5d565b60208301905092915050565b6000602082019050919050565b61238181612333565b61238b818461233e565b925061239682612349565b8060005b838110156123c75781516123ae8782612353565b96506123b98361236b565b92505060018101905061239a565b505050505050565b6080820160008201516123e56000850182612378565b5060208201516123f86040850182612378565b50505050565b610100820160008201516124156000850182612304565b50602082015161242860408501826123cf565b50604082015161243b60c0850182612304565b50505050565b600060019050919050565b600081905092915050565b6000819050919050565b6000602082019050919050565b61247781612441565b612481818461244c565b925061248c82612457565b8060005b838110156124bd5781516124a48782612353565b96506124af83612461565b925050600181019050612490565b505050505050565b610120820160008201516124dc60008501826123fe565b5060208201516124f061010085018261246e565b50505050565b60006101208201905061250c60008301846124c5565b92915050565b7f43616e6e6f74207472616e7366657220746f2073656c66000000000000000000600082015250565b6000612548601783611f4b565b915061255382612512565b602082019050919050565b600060208201905081810360008301526125778161253b565b9050919050565b6125878161150d565b82525050565b6040820160008201516125a36000850182611c5d565b5060208201516125b6602085018261257e565b50505050565b60006040820190506125d1600083018461258d565b9291505056fea26469706673582212208796c430ed46815109148b8219eb3d5d857e03ca97865d3f0fc56a907c21df6564736f6c63430008130033",
					"opcodes": "PUSH1 0xA0 PUSH1 0x40 MSTORE CALLVALUE DUP1 ISZERO PUSH3 0x11 JUMPI PUSH1 0x0 DUP1 REVERT JUMPDEST POP PUSH1 0x40 MLOAD PUSH3 0x2B5E CODESIZE SUB DUP1 PUSH3 0x2B5E DUP4 CODECOPY DUP2 DUP2 ADD PUSH1 0x40 MSTORE DUP2 ADD SWAP1 PUSH3 0x37 SWAP2 SWAP1 PUSH3 0x3C4 JUMP JUMPDEST CALLER DUP1 PUSH1 0x0 DUP5 PUSH1 0x0 PUSH20 0xFFFFFFFFFFFFFFFFFFFFFFFFFFFFFFFFFFFFFFFF AND DUP2 PUSH20 0xFFFFFFFFFFFFFFFFFFFFFFFFFFFFFFFFFFFFFFFF AND SUB PUSH3 0xB1 JUMPI PUSH1 0x0 PUSH1 0x40 MLOAD PUSH32 0xD7F7333400000000000000000000000000000000000000000000000000000000 DUP2 MSTORE PUSH1 0x4 ADD PUSH3 0xA8 SWAP2 SWAP1 PUSH3 0x41C JUMP JUMPDEST PUSH1 0x40 MLOAD DUP1 SWAP2 SUB SWAP1 REVERT JUMPDEST DUP1 PUSH20 0xFFFFFFFFFFFFFFFFFFFFFFFFFFFFFFFFFFFFFFFF AND PUSH1 0x80 DUP2 PUSH20 0xFFFFFFFFFFFFFFFFFFFFFFFFFFFFFFFFFFFFFFFF AND DUP2 MSTORE POP POP POP PUSH1 0x0 PUSH20 0xFFFFFFFFFFFFFFFFFFFFFFFFFFFFFFFFFFFFFFFF AND DUP3 PUSH20 0xFFFFFFFFFFFFFFFFFFFFFFFFFFFFFFFFFFFFFFFF AND SUB PUSH3 0x158 JUMPI PUSH1 0x40 MLOAD PUSH32 0x8C379A000000000000000000000000000000000000000000000000000000000 DUP2 MSTORE PUSH1 0x4 ADD PUSH3 0x14F SWAP1 PUSH3 0x49A JUMP JUMPDEST PUSH1 0x40 MLOAD DUP1 SWAP2 SUB SWAP1 REVERT JUMPDEST DUP2 PUSH1 0x0 DUP1 PUSH2 0x100 EXP DUP2 SLOAD DUP2 PUSH20 0xFFFFFFFFFFFFFFFFFFFFFFFFFFFFFFFFFFFFFFFF MUL NOT AND SWAP1 DUP4 PUSH20 0xFFFFFFFFFFFFFFFFFFFFFFFFFFFFFFFFFFFFFFFF AND MUL OR SWAP1 SSTORE POP PUSH1 0x0 PUSH20 0xFFFFFFFFFFFFFFFFFFFFFFFFFFFFFFFFFFFFFFFF AND DUP2 PUSH20 0xFFFFFFFFFFFFFFFFFFFFFFFFFFFFFFFFFFFFFFFF AND EQ PUSH3 0x1DF JUMPI PUSH3 0x1DE DUP2 PUSH3 0x22B PUSH1 0x20 SHL PUSH1 0x20 SHR JUMP JUMPDEST JUMPDEST POP POP POP DUP1 PUSH1 0x7 PUSH1 0x0 PUSH2 0x100 EXP DUP2 SLOAD DUP2 PUSH20 0xFFFFFFFFFFFFFFFFFFFFFFFFFFFFFFFFFFFFFFFF MUL NOT AND SWAP1 DUP4 PUSH20 0xFFFFFFFFFFFFFFFFFFFFFFFFFFFFFFFFFFFFFFFF AND MUL OR SWAP1 SSTORE POP POP POP PUSH3 0x52E JUMP JUMPDEST CALLER PUSH20 0xFFFFFFFFFFFFFFFFFFFFFFFFFFFFFFFFFFFFFFFF AND DUP2 PUSH20 0xFFFFFFFFFFFFFFFFFFFFFFFFFFFFFFFFFFFFFFFF AND SUB PUSH3 0x29C JUMPI PUSH1 0x40 MLOAD PUSH32 0x8C379A000000000000000000000000000000000000000000000000000000000 DUP2 MSTORE PUSH1 0x4 ADD PUSH3 0x293 SWAP1 PUSH3 0x50C JUMP JUMPDEST PUSH1 0x40 MLOAD DUP1 SWAP2 SUB SWAP1 REVERT JUMPDEST DUP1 PUSH1 0x1 PUSH1 0x0 PUSH2 0x100 EXP DUP2 SLOAD DUP2 PUSH20 0xFFFFFFFFFFFFFFFFFFFFFFFFFFFFFFFFFFFFFFFF MUL NOT AND SWAP1 DUP4 PUSH20 0xFFFFFFFFFFFFFFFFFFFFFFFFFFFFFFFFFFFFFFFF AND MUL OR SWAP1 SSTORE POP DUP1 PUSH20 0xFFFFFFFFFFFFFFFFFFFFFFFFFFFFFFFFFFFFFFFF AND PUSH1 0x0 DUP1 SLOAD SWAP1 PUSH2 0x100 EXP SWAP1 DIV PUSH20 0xFFFFFFFFFFFFFFFFFFFFFFFFFFFFFFFFFFFFFFFF AND PUSH20 0xFFFFFFFFFFFFFFFFFFFFFFFFFFFFFFFFFFFFFFFF AND PUSH32 0xED8889F560326EB138920D842192F0EB3DD22B4F139C87A2C57538E05BAE1278 PUSH1 0x40 MLOAD PUSH1 0x40 MLOAD DUP1 SWAP2 SUB SWAP1 LOG3 POP JUMP JUMPDEST PUSH1 0x0 DUP1 REVERT JUMPDEST PUSH1 0x0 PUSH20 0xFFFFFFFFFFFFFFFFFFFFFFFFFFFFFFFFFFFFFFFF DUP3 AND SWAP1 POP SWAP2 SWAP1 POP JUMP JUMPDEST PUSH1 0x0 PUSH3 0x38C DUP3 PUSH3 0x35F JUMP JUMPDEST SWAP1 POP SWAP2 SWAP1 POP JUMP JUMPDEST PUSH3 0x39E DUP2 PUSH3 0x37F JUMP JUMPDEST DUP2 EQ PUSH3 0x3AA JUMPI PUSH1 0x0 DUP1 REVERT JUMPDEST POP JUMP JUMPDEST PUSH1 0x0 DUP2 MLOAD SWAP1 POP PUSH3 0x3BE DUP2 PUSH3 0x393 JUMP JUMPDEST SWAP3 SWAP2 POP POP JUMP JUMPDEST PUSH1 0x0 DUP1 PUSH1 0x40 DUP4 DUP6 SUB SLT ISZERO PUSH3 0x3DE JUMPI PUSH3 0x3DD PUSH3 0x35A JUMP JUMPDEST JUMPDEST PUSH1 0x0 PUSH3 0x3EE DUP6 DUP3 DUP7 ADD PUSH3 0x3AD JUMP JUMPDEST SWAP3 POP POP PUSH1 0x20 PUSH3 0x401 DUP6 DUP3 DUP7 ADD PUSH3 0x3AD JUMP JUMPDEST SWAP2 POP POP SWAP3 POP SWAP3 SWAP1 POP JUMP JUMPDEST PUSH3 0x416 DUP2 PUSH3 0x37F JUMP JUMPDEST DUP3 MSTORE POP POP JUMP JUMPDEST PUSH1 0x0 PUSH1 0x20 DUP3 ADD SWAP1 POP PUSH3 0x433 PUSH1 0x0 DUP4 ADD DUP5 PUSH3 0x40B JUMP JUMPDEST SWAP3 SWAP2 POP POP JUMP JUMPDEST PUSH1 0x0 DUP3 DUP3 MSTORE PUSH1 0x20 DUP3 ADD SWAP1 POP SWAP3 SWAP2 POP POP JUMP JUMPDEST PUSH32 0x43616E6E6F7420736574206F776E657220746F207A65726F0000000000000000 PUSH1 0x0 DUP3 ADD MSTORE POP JUMP JUMPDEST PUSH1 0x0 PUSH3 0x482 PUSH1 0x18 DUP4 PUSH3 0x439 JUMP JUMPDEST SWAP2 POP PUSH3 0x48F DUP3 PUSH3 0x44A JUMP JUMPDEST PUSH1 0x20 DUP3 ADD SWAP1 POP SWAP2 SWAP1 POP JUMP JUMPDEST PUSH1 0x0 PUSH1 0x20 DUP3 ADD SWAP1 POP DUP2 DUP2 SUB PUSH1 0x0 DUP4 ADD MSTORE PUSH3 0x4B5 DUP2 PUSH3 0x473 JUMP JUMPDEST SWAP1 POP SWAP2 SWAP1 POP JUMP JUMPDEST PUSH32 0x43616E6E6F74207472616E7366657220746F2073656C66000000000000000000 PUSH1 0x0 DUP3 ADD MSTORE POP JUMP JUMPDEST PUSH1 0x0 PUSH3 0x4F4 PUSH1 0x17 DUP4 PUSH3 0x439 JUMP JUMPDEST SWAP2 POP PUSH3 0x501 DUP3 PUSH3 0x4BC JUMP JUMPDEST PUSH1 0x20 DUP3 ADD SWAP1 POP SWAP2 SWAP1 POP JUMP JUMPDEST PUSH1 0x0 PUSH1 0x20 DUP3 ADD SWAP1 POP DUP2 DUP2 SUB PUSH1 0x0 DUP4 ADD MSTORE PUSH3 0x527 DUP2 PUSH3 0x4E5 JUMP JUMPDEST SWAP1 POP SWAP2 SWAP1 POP JUMP JUMPDEST PUSH1 0x80 MLOAD PUSH2 0x260D PUSH3 0x551 PUSH1 0x0 CODECOPY PUSH1 0x0 DUP2 DUP2 PUSH2 0xD2F ADD MSTORE PUSH2 0xEAD ADD MSTORE PUSH2 0x260D PUSH1 0x0 RETURN INVALID PUSH1 0x80 PUSH1 0x40 MSTORE PUSH1 0x4 CALLDATASIZE LT PUSH2 0x12E JUMPI PUSH1 0x0 CALLDATALOAD PUSH1 0xE0 SHR DUP1 PUSH4 0x7898D184 GT PUSH2 0xAB JUMPI DUP1 PUSH4 0x8DA5CB5B GT PUSH2 0x6F JUMPI DUP1 PUSH4 0x8DA5CB5B EQ PUSH2 0x3F8 JUMPI DUP1 PUSH4 0x92A8C1FE EQ PUSH2 0x423 JUMPI DUP1 PUSH4 0xA32BA7EC EQ PUSH2 0x44C JUMPI DUP1 PUSH4 0xB0F479A1 EQ PUSH2 0x475 JUMPI DUP1 PUSH4 0xBF565170 EQ PUSH2 0x4A0 JUMPI DUP1 PUSH4 0xF2FDE38B EQ PUSH2 0x4DD JUMPI PUSH2 0x135 JUMP JUMPDEST DUP1 PUSH4 0x7898D184 EQ PUSH2 0x315 JUMPI DUP1 PUSH4 0x79BA5097 EQ PUSH2 0x33E JUMPI DUP1 PUSH4 0x7DC91A02 EQ PUSH2 0x355 JUMPI DUP1 PUSH4 0x835B347C EQ PUSH2 0x392 JUMPI DUP1 PUSH4 0x85572FFB EQ PUSH2 0x3CF JUMPI PUSH2 0x135 JUMP JUMPDEST DUP1 PUSH4 0x3AEAC4E1 GT PUSH2 0xF2 JUMPI DUP1 PUSH4 0x3AEAC4E1 EQ PUSH2 0x246 JUMPI DUP1 PUSH4 0x47569EDF EQ PUSH2 0x26F JUMPI DUP1 PUSH4 0x51CFF8D9 EQ PUSH2 0x29A JUMPI DUP1 PUSH4 0x73645CFF EQ PUSH2 0x2C3 JUMPI DUP1 PUSH4 0x7736035B EQ PUSH2 0x2EC JUMPI PUSH2 0x135 JUMP JUMPDEST DUP1 PUSH4 0x1FFC9A7 EQ PUSH2 0x13A JUMPI DUP1 PUSH4 0x21B76408 EQ PUSH2 0x177 JUMPI DUP1 PUSH4 0x263596A5 EQ PUSH2 0x1B4 JUMPI DUP1 PUSH4 0x272EFC69 EQ PUSH2 0x1E0 JUMPI DUP1 PUSH4 0x2F10A6C6 EQ PUSH2 0x21D JUMPI PUSH2 0x135 JUMP JUMPDEST CALLDATASIZE PUSH2 0x135 JUMPI STOP JUMPDEST PUSH1 0x0 DUP1 REVERT JUMPDEST CALLVALUE DUP1 ISZERO PUSH2 0x146 JUMPI PUSH1 0x0 DUP1 REVERT JUMPDEST POP PUSH2 0x161 PUSH1 0x4 DUP1 CALLDATASIZE SUB DUP2 ADD SWAP1 PUSH2 0x15C SWAP2 SWAP1 PUSH2 0x14E0 JUMP JUMPDEST PUSH2 0x506 JUMP JUMPDEST PUSH1 0x40 MLOAD PUSH2 0x16E SWAP2 SWAP1 PUSH2 0x1528 JUMP JUMPDEST PUSH1 0x40 MLOAD DUP1 SWAP2 SUB SWAP1 RETURN JUMPDEST CALLVALUE DUP1 ISZERO PUSH2 0x183 JUMPI PUSH1 0x0 DUP1 REVERT JUMPDEST POP PUSH2 0x19E PUSH1 0x4 DUP1 CALLDATASIZE SUB DUP2 ADD SWAP1 PUSH2 0x199 SWAP2 SWAP1 PUSH2 0x1970 JUMP JUMPDEST PUSH2 0x5D8 JUMP JUMPDEST PUSH1 0x40 MLOAD PUSH2 0x1AB SWAP2 SWAP1 PUSH2 0x19DD JUMP JUMPDEST PUSH1 0x40 MLOAD DUP1 SWAP2 SUB SWAP1 RETURN JUMPDEST CALLVALUE DUP1 ISZERO PUSH2 0x1C0 JUMPI PUSH1 0x0 DUP1 REVERT JUMPDEST POP PUSH2 0x1C9 PUSH2 0x831 JUMP JUMPDEST PUSH1 0x40 MLOAD PUSH2 0x1D7 SWAP3 SWAP2 SWAP1 PUSH2 0x19F8 JUMP JUMPDEST PUSH1 0x40 MLOAD DUP1 SWAP2 SUB SWAP1 RETURN JUMPDEST CALLVALUE DUP1 ISZERO PUSH2 0x1EC JUMPI PUSH1 0x0 DUP1 REVERT JUMPDEST POP PUSH2 0x207 PUSH1 0x4 DUP1 CALLDATASIZE SUB DUP2 ADD SWAP1 PUSH2 0x202 SWAP2 SWAP1 PUSH2 0x1A21 JUMP JUMPDEST PUSH2 0x84F JUMP JUMPDEST PUSH1 0x40 MLOAD PUSH2 0x214 SWAP2 SWAP1 PUSH2 0x1528 JUMP JUMPDEST PUSH1 0x40 MLOAD DUP1 SWAP2 SUB SWAP1 RETURN JUMPDEST CALLVALUE DUP1 ISZERO PUSH2 0x229 JUMPI PUSH1 0x0 DUP1 REVERT JUMPDEST POP PUSH2 0x244 PUSH1 0x4 DUP1 CALLDATASIZE SUB DUP2 ADD SWAP1 PUSH2 0x23F SWAP2 SWAP1 PUSH2 0x1A21 JUMP JUMPDEST PUSH2 0x86F JUMP JUMPDEST STOP JUMPDEST CALLVALUE DUP1 ISZERO PUSH2 0x252 JUMPI PUSH1 0x0 DUP1 REVERT JUMPDEST POP PUSH2 0x26D PUSH1 0x4 DUP1 CALLDATASIZE SUB DUP2 ADD SWAP1 PUSH2 0x268 SWAP2 SWAP1 PUSH2 0x1A4E JUMP JUMPDEST PUSH2 0x8D2 JUMP JUMPDEST STOP JUMPDEST CALLVALUE DUP1 ISZERO PUSH2 0x27B JUMPI PUSH1 0x0 DUP1 REVERT JUMPDEST POP PUSH2 0x284 PUSH2 0x9DC JUMP JUMPDEST PUSH1 0x40 MLOAD PUSH2 0x291 SWAP2 SWAP1 PUSH2 0x1528 JUMP JUMPDEST PUSH1 0x40 MLOAD DUP1 SWAP2 SUB SWAP1 RETURN JUMPDEST CALLVALUE DUP1 ISZERO PUSH2 0x2A6 JUMPI PUSH1 0x0 DUP1 REVERT JUMPDEST POP PUSH2 0x2C1 PUSH1 0x4 DUP1 CALLDATASIZE SUB DUP2 ADD SWAP1 PUSH2 0x2BC SWAP2 SWAP1 PUSH2 0x1A21 JUMP JUMPDEST PUSH2 0x9EF JUMP JUMPDEST STOP JUMPDEST CALLVALUE DUP1 ISZERO PUSH2 0x2CF JUMPI PUSH1 0x0 DUP1 REVERT JUMPDEST POP PUSH2 0x2EA PUSH1 0x4 DUP1 CALLDATASIZE SUB DUP2 ADD SWAP1 PUSH2 0x2E5 SWAP2 SWAP1 PUSH2 0x1A8E JUMP JUMPDEST PUSH2 0xA77 JUMP JUMPDEST STOP JUMPDEST CALLVALUE DUP1 ISZERO PUSH2 0x2F8 JUMPI PUSH1 0x0 DUP1 REVERT JUMPDEST POP PUSH2 0x313 PUSH1 0x4 DUP1 CALLDATASIZE SUB DUP2 ADD SWAP1 PUSH2 0x30E SWAP2 SWAP1 PUSH2 0x1A8E JUMP JUMPDEST PUSH2 0xAC2 JUMP JUMPDEST STOP JUMPDEST CALLVALUE DUP1 ISZERO PUSH2 0x321 JUMPI PUSH1 0x0 DUP1 REVERT JUMPDEST POP PUSH2 0x33C PUSH1 0x4 DUP1 CALLDATASIZE SUB DUP2 ADD SWAP1 PUSH2 0x337 SWAP2 SWAP1 PUSH2 0x1A8E JUMP JUMPDEST PUSH2 0xB0D JUMP JUMPDEST STOP JUMPDEST CALLVALUE DUP1 ISZERO PUSH2 0x34A JUMPI PUSH1 0x0 DUP1 REVERT JUMPDEST POP PUSH2 0x353 PUSH2 0xB58 JUMP JUMPDEST STOP JUMPDEST CALLVALUE DUP1 ISZERO PUSH2 0x361 JUMPI PUSH1 0x0 DUP1 REVERT JUMPDEST POP PUSH2 0x37C PUSH1 0x4 DUP1 CALLDATASIZE SUB DUP2 ADD SWAP1 PUSH2 0x377 SWAP2 SWAP1 PUSH2 0x1A8E JUMP JUMPDEST PUSH2 0xCED JUMP JUMPDEST PUSH1 0x40 MLOAD PUSH2 0x389 SWAP2 SWAP1 PUSH2 0x1528 JUMP JUMPDEST PUSH1 0x40 MLOAD DUP1 SWAP2 SUB SWAP1 RETURN JUMPDEST CALLVALUE DUP1 ISZERO PUSH2 0x39E JUMPI PUSH1 0x0 DUP1 REVERT JUMPDEST POP PUSH2 0x3B9 PUSH1 0x4 DUP1 CALLDATASIZE SUB DUP2 ADD SWAP1 PUSH2 0x3B4 SWAP2 SWAP1 PUSH2 0x1A8E JUMP JUMPDEST PUSH2 0xD0D JUMP JUMPDEST PUSH1 0x40 MLOAD PUSH2 0x3C6 SWAP2 SWAP1 PUSH2 0x1528 JUMP JUMPDEST PUSH1 0x40 MLOAD DUP1 SWAP2 SUB SWAP1 RETURN JUMPDEST CALLVALUE DUP1 ISZERO PUSH2 0x3DB JUMPI PUSH1 0x0 DUP1 REVERT JUMPDEST POP PUSH2 0x3F6 PUSH1 0x4 DUP1 CALLDATASIZE SUB DUP2 ADD SWAP1 PUSH2 0x3F1 SWAP2 SWAP1 PUSH2 0x1ADF JUMP JUMPDEST PUSH2 0xD2D JUMP JUMPDEST STOP JUMPDEST CALLVALUE DUP1 ISZERO PUSH2 0x404 JUMPI PUSH1 0x0 DUP1 REVERT JUMPDEST POP PUSH2 0x40D PUSH2 0xDD2 JUMP JUMPDEST PUSH1 0x40 MLOAD PUSH2 0x41A SWAP2 SWAP1 PUSH2 0x1B37 JUMP JUMPDEST PUSH1 0x40 MLOAD DUP1 SWAP2 SUB SWAP1 RETURN JUMPDEST CALLVALUE DUP1 ISZERO PUSH2 0x42F JUMPI PUSH1 0x0 DUP1 REVERT JUMPDEST POP PUSH2 0x44A PUSH1 0x4 DUP1 CALLDATASIZE SUB DUP2 ADD SWAP1 PUSH2 0x445 SWAP2 SWAP1 PUSH2 0x1A21 JUMP JUMPDEST PUSH2 0xDFB JUMP JUMPDEST STOP JUMPDEST CALLVALUE DUP1 ISZERO PUSH2 0x458 JUMPI PUSH1 0x0 DUP1 REVERT JUMPDEST POP PUSH2 0x473 PUSH1 0x4 DUP1 CALLDATASIZE SUB DUP2 ADD SWAP1 PUSH2 0x46E SWAP2 SWAP1 PUSH2 0x1A8E JUMP JUMPDEST PUSH2 0xE5E JUMP JUMPDEST STOP JUMPDEST CALLVALUE DUP1 ISZERO PUSH2 0x481 JUMPI PUSH1 0x0 DUP1 REVERT JUMPDEST POP PUSH2 0x48A PUSH2 0xEA9 JUMP JUMPDEST PUSH1 0x40 MLOAD PUSH2 0x497 SWAP2 SWAP1 PUSH2 0x1B37 JUMP JUMPDEST PUSH1 0x40 MLOAD DUP1 SWAP2 SUB SWAP1 RETURN JUMPDEST CALLVALUE DUP1 ISZERO PUSH2 0x4AC JUMPI PUSH1 0x0 DUP1 REVERT JUMPDEST POP PUSH2 0x4C7 PUSH1 0x4 DUP1 CALLDATASIZE SUB DUP2 ADD SWAP1 PUSH2 0x4C2 SWAP2 SWAP1 PUSH2 0x1970 JUMP JUMPDEST PUSH2 0xED1 JUMP JUMPDEST PUSH1 0x40 MLOAD PUSH2 0x4D4 SWAP2 SWAP1 PUSH2 0x19DD JUMP JUMPDEST PUSH1 0x40 MLOAD DUP1 SWAP2 SUB SWAP1 RETURN JUMPDEST CALLVALUE DUP1 ISZERO PUSH2 0x4E9 JUMPI PUSH1 0x0 DUP1 REVERT JUMPDEST POP PUSH2 0x504 PUSH1 0x4 DUP1 CALLDATASIZE SUB DUP2 ADD SWAP1 PUSH2 0x4FF SWAP2 SWAP1 PUSH2 0x1A21 JUMP JUMPDEST PUSH2 0x1069 JUMP JUMPDEST STOP JUMPDEST PUSH1 0x0 PUSH32 0x85572FFB00000000000000000000000000000000000000000000000000000000 PUSH28 0xFFFFFFFFFFFFFFFFFFFFFFFFFFFFFFFFFFFFFFFFFFFFFFFFFFFFFFFF NOT AND DUP3 PUSH28 0xFFFFFFFFFFFFFFFFFFFFFFFFFFFFFFFFFFFFFFFFFFFFFFFFFFFFFFFF NOT AND EQ DUP1 PUSH2 0x5D1 JUMPI POP PUSH32 0x1FFC9A700000000000000000000000000000000000000000000000000000000 PUSH28 0xFFFFFFFFFFFFFFFFFFFFFFFFFFFFFFFFFFFFFFFFFFFFFFFFFFFFFFFF NOT AND DUP3 PUSH28 0xFFFFFFFFFFFFFFFFFFFFFFFFFFFFFFFFFFFFFFFFFFFFFFFFFFFFFFFF NOT AND EQ JUMPDEST SWAP1 POP SWAP2 SWAP1 POP JUMP JUMPDEST PUSH1 0x0 PUSH2 0x5E2 PUSH2 0x107D JUMP JUMPDEST PUSH1 0x0 PUSH2 0x611 DUP5 DUP5 PUSH1 0x7 PUSH1 0x0 SWAP1 SLOAD SWAP1 PUSH2 0x100 EXP SWAP1 DIV PUSH20 0xFFFFFFFFFFFFFFFFFFFFFFFFFFFFFFFFFFFFFFFF AND PUSH2 0x110D JUMP JUMPDEST SWAP1 POP PUSH1 0x0 ADDRESS PUSH20 0xFFFFFFFFFFFFFFFFFFFFFFFFFFFFFFFFFFFFFFFF AND PUSH4 0xB0F479A1 PUSH1 0x40 MLOAD DUP2 PUSH4 0xFFFFFFFF AND PUSH1 0xE0 SHL DUP2 MSTORE PUSH1 0x4 ADD PUSH1 0x20 PUSH1 0x40 MLOAD DUP1 DUP4 SUB DUP2 DUP7 GAS STATICCALL ISZERO DUP1 ISZERO PUSH2 0x660 JUMPI RETURNDATASIZE PUSH1 0x0 DUP1 RETURNDATACOPY RETURNDATASIZE PUSH1 0x0 REVERT JUMPDEST POP POP POP POP PUSH1 0x40 MLOAD RETURNDATASIZE PUSH1 0x1F NOT PUSH1 0x1F DUP3 ADD AND DUP3 ADD DUP1 PUSH1 0x40 MSTORE POP DUP2 ADD SWAP1 PUSH2 0x684 SWAP2 SWAP1 PUSH2 0x1B67 JUMP JUMPDEST SWAP1 POP PUSH1 0x0 DUP2 PUSH20 0xFFFFFFFFFFFFFFFFFFFFFFFFFFFFFFFFFFFFFFFF AND PUSH4 0x20487DED DUP9 DUP6 PUSH1 0x40 MLOAD DUP4 PUSH4 0xFFFFFFFF AND PUSH1 0xE0 SHL DUP2 MSTORE PUSH1 0x4 ADD PUSH2 0x6C3 SWAP3 SWAP2 SWAP1 PUSH2 0x1DA9 JUMP JUMPDEST PUSH1 0x20 PUSH1 0x40 MLOAD DUP1 DUP4 SUB DUP2 DUP7 GAS STATICCALL ISZERO DUP1 ISZERO PUSH2 0x6E0 JUMPI RETURNDATASIZE PUSH1 0x0 DUP1 RETURNDATACOPY RETURNDATASIZE PUSH1 0x0 REVERT JUMPDEST POP POP POP POP PUSH1 0x40 MLOAD RETURNDATASIZE PUSH1 0x1F NOT PUSH1 0x1F DUP3 ADD AND DUP3 ADD DUP1 PUSH1 0x40 MSTORE POP DUP2 ADD SWAP1 PUSH2 0x704 SWAP2 SWAP1 PUSH2 0x1DEE JUMP JUMPDEST SWAP1 POP PUSH1 0x7 PUSH1 0x0 SWAP1 SLOAD SWAP1 PUSH2 0x100 EXP SWAP1 DIV PUSH20 0xFFFFFFFFFFFFFFFFFFFFFFFFFFFFFFFFFFFFFFFF AND PUSH20 0xFFFFFFFFFFFFFFFFFFFFFFFFFFFFFFFFFFFFFFFF AND PUSH4 0x95EA7B3 DUP4 DUP4 PUSH1 0x40 MLOAD DUP4 PUSH4 0xFFFFFFFF AND PUSH1 0xE0 SHL DUP2 MSTORE PUSH1 0x4 ADD PUSH2 0x763 SWAP3 SWAP2 SWAP1 PUSH2 0x1E2A JUMP JUMPDEST PUSH1 0x20 PUSH1 0x40 MLOAD DUP1 DUP4 SUB DUP2 PUSH1 0x0 DUP8 GAS CALL ISZERO DUP1 ISZERO PUSH2 0x782 JUMPI RETURNDATASIZE PUSH1 0x0 DUP1 RETURNDATACOPY RETURNDATASIZE PUSH1 0x0 REVERT JUMPDEST POP POP POP POP PUSH1 0x40 MLOAD RETURNDATASIZE PUSH1 0x1F NOT PUSH1 0x1F DUP3 ADD AND DUP3 ADD DUP1 PUSH1 0x40 MSTORE POP DUP2 ADD SWAP1 PUSH2 0x7A6 SWAP2 SWAP1 PUSH2 0x1E7F JUMP JUMPDEST POP DUP2 PUSH20 0xFFFFFFFFFFFFFFFFFFFFFFFFFFFFFFFFFFFFFFFF AND PUSH4 0x96F4E9F9 DUP9 DUP6 PUSH1 0x40 MLOAD DUP4 PUSH4 0xFFFFFFFF AND PUSH1 0xE0 SHL DUP2 MSTORE PUSH1 0x4 ADD PUSH2 0x7E2 SWAP3 SWAP2 SWAP1 PUSH2 0x1DA9 JUMP JUMPDEST PUSH1 0x20 PUSH1 0x40 MLOAD DUP1 DUP4 SUB DUP2 PUSH1 0x0 DUP8 GAS CALL ISZERO DUP1 ISZERO PUSH2 0x801 JUMPI RETURNDATASIZE PUSH1 0x0 DUP1 RETURNDATACOPY RETURNDATASIZE PUSH1 0x0 REVERT JUMPDEST POP POP POP POP PUSH1 0x40 MLOAD RETURNDATASIZE PUSH1 0x1F NOT PUSH1 0x1F DUP3 ADD AND DUP3 ADD DUP1 PUSH1 0x40 MSTORE POP DUP2 ADD SWAP1 PUSH2 0x825 SWAP2 SWAP1 PUSH2 0x1ED8 JUMP JUMPDEST SWAP4 POP POP POP POP SWAP4 SWAP3 POP POP POP JUMP JUMPDEST PUSH1 0x0 DUP1 PUSH1 0x2 SLOAD PUSH1 0x3 PUSH1 0x0 SWAP1 SLOAD SWAP1 PUSH2 0x100 EXP SWAP1 DIV PUSH1 0xFF AND SWAP2 POP SWAP2 POP SWAP1 SWAP2 JUMP JUMPDEST PUSH1 0x6 PUSH1 0x20 MSTORE DUP1 PUSH1 0x0 MSTORE PUSH1 0x40 PUSH1 0x0 KECCAK256 PUSH1 0x0 SWAP2 POP SLOAD SWAP1 PUSH2 0x100 EXP SWAP1 DIV PUSH1 0xFF AND DUP2 JUMP JUMPDEST PUSH2 0x877 PUSH2 0x107D JUMP JUMPDEST PUSH1 0x1 PUSH1 0x6 PUSH1 0x0 DUP4 PUSH20 0xFFFFFFFFFFFFFFFFFFFFFFFFFFFFFFFFFFFFFFFF AND PUSH20 0xFFFFFFFFFFFFFFFFFFFFFFFFFFFFFFFFFFFFFFFF AND DUP2 MSTORE PUSH1 0x20 ADD SWAP1 DUP2 MSTORE PUSH1 0x20 ADD PUSH1 0x0 KECCAK256 PUSH1 0x0 PUSH2 0x100 EXP DUP2 SLOAD DUP2 PUSH1 0xFF MUL NOT AND SWAP1 DUP4 ISZERO ISZERO MUL OR SWAP1 SSTORE POP POP JUMP JUMPDEST PUSH2 0x8DA PUSH2 0x107D JUMP JUMPDEST PUSH1 0x0 DUP2 PUSH20 0xFFFFFFFFFFFFFFFFFFFFFFFFFFFFFFFFFFFFFFFF AND PUSH4 0x70A08231 ADDRESS PUSH1 0x40 MLOAD DUP3 PUSH4 0xFFFFFFFF AND PUSH1 0xE0 SHL DUP2 MSTORE PUSH1 0x4 ADD PUSH2 0x915 SWAP2 SWAP1 PUSH2 0x1B37 JUMP JUMPDEST PUSH1 0x20 PUSH1 0x40 MLOAD DUP1 DUP4 SUB DUP2 DUP7 GAS STATICCALL ISZERO DUP1 ISZERO PUSH2 0x932 JUMPI RETURNDATASIZE PUSH1 0x0 DUP1 RETURNDATACOPY RETURNDATASIZE PUSH1 0x0 REVERT JUMPDEST POP POP POP POP PUSH1 0x40 MLOAD RETURNDATASIZE PUSH1 0x1F NOT PUSH1 0x1F DUP3 ADD AND DUP3 ADD DUP1 PUSH1 0x40 MSTORE POP DUP2 ADD SWAP1 PUSH2 0x956 SWAP2 SWAP1 PUSH2 0x1DEE JUMP JUMPDEST SWAP1 POP DUP2 PUSH20 0xFFFFFFFFFFFFFFFFFFFFFFFFFFFFFFFFFFFFFFFF AND PUSH4 0xA9059CBB DUP5 DUP4 PUSH1 0x40 MLOAD DUP4 PUSH4 0xFFFFFFFF AND PUSH1 0xE0 SHL DUP2 MSTORE PUSH1 0x4 ADD PUSH2 0x993 SWAP3 SWAP2 SWAP1 PUSH2 0x1E2A JUMP JUMPDEST PUSH1 0x20 PUSH1 0x40 MLOAD DUP1 DUP4 SUB DUP2 PUSH1 0x0 DUP8 GAS CALL ISZERO DUP1 ISZERO PUSH2 0x9B2 JUMPI RETURNDATASIZE PUSH1 0x0 DUP1 RETURNDATACOPY RETURNDATASIZE PUSH1 0x0 REVERT JUMPDEST POP POP POP POP PUSH1 0x40 MLOAD RETURNDATASIZE PUSH1 0x1F NOT PUSH1 0x1F DUP3 ADD AND DUP3 ADD DUP1 PUSH1 0x40 MSTORE POP DUP2 ADD SWAP1 PUSH2 0x9D6 SWAP2 SWAP1 PUSH2 0x1E7F JUMP JUMPDEST POP POP POP POP JUMP JUMPDEST PUSH1 0x3 PUSH1 0x0 SWAP1 SLOAD SWAP1 PUSH2 0x100 EXP SWAP1 DIV PUSH1 0xFF AND DUP2 JUMP JUMPDEST PUSH2 0x9F7 PUSH2 0x107D JUMP JUMPDEST PUSH1 0x0 SELFBALANCE SWAP1 POP PUSH1 0x0 DUP3 PUSH20 0xFFFFFFFFFFFFFFFFFFFFFFFFFFFFFFFFFFFFFFFF AND DUP3 PUSH1 0x40 MLOAD PUSH2 0xA22 SWAP1 PUSH2 0x1F36 JUMP JUMPDEST PUSH1 0x0 PUSH1 0x40 MLOAD DUP1 DUP4 SUB DUP2 DUP6 DUP8 GAS CALL SWAP3 POP POP POP RETURNDATASIZE DUP1 PUSH1 0x0 DUP2 EQ PUSH2 0xA5F JUMPI PUSH1 0x40 MLOAD SWAP2 POP PUSH1 0x1F NOT PUSH1 0x3F RETURNDATASIZE ADD AND DUP3 ADD PUSH1 0x40 MSTORE RETURNDATASIZE DUP3 MSTORE RETURNDATASIZE PUSH1 0x0 PUSH1 0x20 DUP5 ADD RETURNDATACOPY PUSH2 0xA64 JUMP JUMPDEST PUSH1 0x60 SWAP2 POP JUMPDEST POP POP SWAP1 POP DUP1 PUSH2 0xA72 JUMPI PUSH1 0x0 DUP1 REVERT JUMPDEST POP POP POP JUMP JUMPDEST PUSH2 0xA7F PUSH2 0x107D JUMP JUMPDEST PUSH1 0x0 PUSH1 0x4 PUSH1 0x0 DUP4 PUSH8 0xFFFFFFFFFFFFFFFF AND PUSH8 0xFFFFFFFFFFFFFFFF AND DUP2 MSTORE PUSH1 0x20 ADD SWAP1 DUP2 MSTORE PUSH1 0x20 ADD PUSH1 0x0 KECCAK256 PUSH1 0x0 PUSH2 0x100 EXP DUP2 SLOAD DUP2 PUSH1 0xFF MUL NOT AND SWAP1 DUP4 ISZERO ISZERO MUL OR SWAP1 SSTORE POP POP JUMP JUMPDEST PUSH2 0xACA PUSH2 0x107D JUMP JUMPDEST PUSH1 0x1 PUSH1 0x5 PUSH1 0x0 DUP4 PUSH8 0xFFFFFFFFFFFFFFFF AND PUSH8 0xFFFFFFFFFFFFFFFF AND DUP2 MSTORE PUSH1 0x20 ADD SWAP1 DUP2 MSTORE PUSH1 0x20 ADD PUSH1 0x0 KECCAK256 PUSH1 0x0 PUSH2 0x100 EXP DUP2 SLOAD DUP2 PUSH1 0xFF MUL NOT AND SWAP1 DUP4 ISZERO ISZERO MUL OR SWAP1 SSTORE POP POP JUMP JUMPDEST PUSH2 0xB15 PUSH2 0x107D JUMP JUMPDEST PUSH1 0x1 PUSH1 0x4 PUSH1 0x0 DUP4 PUSH8 0xFFFFFFFFFFFFFFFF AND PUSH8 0xFFFFFFFFFFFFFFFF AND DUP2 MSTORE PUSH1 0x20 ADD SWAP1 DUP2 MSTORE PUSH1 0x20 ADD PUSH1 0x0 KECCAK256 PUSH1 0x0 PUSH2 0x100 EXP DUP2 SLOAD DUP2 PUSH1 0xFF MUL NOT AND SWAP1 DUP4 ISZERO ISZERO MUL OR SWAP1 SSTORE POP POP JUMP JUMPDEST PUSH1 0x1 PUSH1 0x0 SWAP1 SLOAD SWAP1 PUSH2 0x100 EXP SWAP1 DIV PUSH20 0xFFFFFFFFFFFFFFFFFFFFFFFFFFFFFFFFFFFFFFFF AND PUSH20 0xFFFFFFFFFFFFFFFFFFFFFFFFFFFFFFFFFFFFFFFF AND CALLER PUSH20 0xFFFFFFFFFFFFFFFFFFFFFFFFFFFFFFFFFFFFFFFF AND EQ PUSH2 0xBE8 JUMPI PUSH1 0x40 MLOAD PUSH32 0x8C379A000000000000000000000000000000000000000000000000000000000 DUP2 MSTORE PUSH1 0x4 ADD PUSH2 0xBDF SWAP1 PUSH2 0x1FA8 JUMP JUMPDEST PUSH1 0x40 MLOAD DUP1 SWAP2 SUB SWAP1 REVERT JUMPDEST PUSH1 0x0 DUP1 PUSH1 0x0 SWAP1 SLOAD SWAP1 PUSH2 0x100 EXP SWAP1 DIV PUSH20 0xFFFFFFFFFFFFFFFFFFFFFFFFFFFFFFFFFFFFFFFF AND SWAP1 POP CALLER PUSH1 0x0 DUP1 PUSH2 0x100 EXP DUP2 SLOAD DUP2 PUSH20 0xFFFFFFFFFFFFFFFFFFFFFFFFFFFFFFFFFFFFFFFF MUL NOT AND SWAP1 DUP4 PUSH20 0xFFFFFFFFFFFFFFFFFFFFFFFFFFFFFFFFFFFFFFFF AND MUL OR SWAP1 SSTORE POP PUSH1 0x0 PUSH1 0x1 PUSH1 0x0 PUSH2 0x100 EXP DUP2 SLOAD DUP2 PUSH20 0xFFFFFFFFFFFFFFFFFFFFFFFFFFFFFFFFFFFFFFFF MUL NOT AND SWAP1 DUP4 PUSH20 0xFFFFFFFFFFFFFFFFFFFFFFFFFFFFFFFFFFFFFFFF AND MUL OR SWAP1 SSTORE POP CALLER PUSH20 0xFFFFFFFFFFFFFFFFFFFFFFFFFFFFFFFFFFFFFFFF AND DUP2 PUSH20 0xFFFFFFFFFFFFFFFFFFFFFFFFFFFFFFFFFFFFFFFF AND PUSH32 0x8BE0079C531659141344CD1FD0A4F28419497F9722A3DAAFE3B4186F6B6457E0 PUSH1 0x40 MLOAD PUSH1 0x40 MLOAD DUP1 SWAP2 SUB SWAP1 LOG3 POP JUMP JUMPDEST PUSH1 0x5 PUSH1 0x20 MSTORE DUP1 PUSH1 0x0 MSTORE PUSH1 0x40 PUSH1 0x0 KECCAK256 PUSH1 0x0 SWAP2 POP SLOAD SWAP1 PUSH2 0x100 EXP SWAP1 DIV PUSH1 0xFF AND DUP2 JUMP JUMPDEST PUSH1 0x4 PUSH1 0x20 MSTORE DUP1 PUSH1 0x0 MSTORE PUSH1 0x40 PUSH1 0x0 KECCAK256 PUSH1 0x0 SWAP2 POP SLOAD SWAP1 PUSH2 0x100 EXP SWAP1 DIV PUSH1 0xFF AND DUP2 JUMP JUMPDEST PUSH32 0x0 PUSH20 0xFFFFFFFFFFFFFFFFFFFFFFFFFFFFFFFFFFFFFFFF AND CALLER PUSH20 0xFFFFFFFFFFFFFFFFFFFFFFFFFFFFFFFFFFFFFFFF AND EQ PUSH2 0xDBD JUMPI CALLER PUSH1 0x40 MLOAD PUSH32 0xD7F7333400000000000000000000000000000000000000000000000000000000 DUP2 MSTORE PUSH1 0x4 ADD PUSH2 0xDB4 SWAP2 SWAP1 PUSH2 0x1B37 JUMP JUMPDEST PUSH1 0x40 MLOAD DUP1 SWAP2 SUB SWAP1 REVERT JUMPDEST PUSH2 0xDCF DUP2 PUSH2 0xDCA SWAP1 PUSH2 0x2285 JUMP JUMPDEST PUSH2 0x1215 JUMP JUMPDEST POP JUMP JUMPDEST PUSH1 0x0 DUP1 PUSH1 0x0 SWAP1 SLOAD SWAP1 PUSH2 0x100 EXP SWAP1 DIV PUSH20 0xFFFFFFFFFFFFFFFFFFFFFFFFFFFFFFFFFFFFFFFF AND SWAP1 POP SWAP1 JUMP JUMPDEST PUSH2 0xE03 PUSH2 0x107D JUMP JUMPDEST PUSH1 0x0 PUSH1 0x6 PUSH1 0x0 DUP4 PUSH20 0xFFFFFFFFFFFFFFFFFFFFFFFFFFFFFFFFFFFFFFFF AND PUSH20 0xFFFFFFFFFFFFFFFFFFFFFFFFFFFFFFFFFFFFFFFF AND DUP2 MSTORE PUSH1 0x20 ADD SWAP1 DUP2 MSTORE PUSH1 0x20 ADD PUSH1 0x0 KECCAK256 PUSH1 0x0 PUSH2 0x100 EXP DUP2 SLOAD DUP2 PUSH1 0xFF MUL NOT AND SWAP1 DUP4 ISZERO ISZERO MUL OR SWAP1 SSTORE POP POP JUMP JUMPDEST PUSH2 0xE66 PUSH2 0x107D JUMP JUMPDEST PUSH1 0x0 PUSH1 0x5 PUSH1 0x0 DUP4 PUSH8 0xFFFFFFFFFFFFFFFF AND PUSH8 0xFFFFFFFFFFFFFFFF AND DUP2 MSTORE PUSH1 0x20 ADD SWAP1 DUP2 MSTORE PUSH1 0x20 ADD PUSH1 0x0 KECCAK256 PUSH1 0x0 PUSH2 0x100 EXP DUP2 SLOAD DUP2 PUSH1 0xFF MUL NOT AND SWAP1 DUP4 ISZERO ISZERO MUL OR SWAP1 SSTORE POP POP JUMP JUMPDEST PUSH1 0x0 PUSH32 0x0 SWAP1 POP SWAP1 JUMP JUMPDEST PUSH1 0x0 PUSH2 0xEDB PUSH2 0x107D JUMP JUMPDEST PUSH1 0x0 PUSH2 0xEE9 DUP5 DUP5 PUSH1 0x0 PUSH2 0x110D JUMP JUMPDEST SWAP1 POP PUSH1 0x0 ADDRESS PUSH20 0xFFFFFFFFFFFFFFFFFFFFFFFFFFFFFFFFFFFFFFFF AND PUSH4 0xB0F479A1 PUSH1 0x40 MLOAD DUP2 PUSH4 0xFFFFFFFF AND PUSH1 0xE0 SHL DUP2 MSTORE PUSH1 0x4 ADD PUSH1 0x20 PUSH1 0x40 MLOAD DUP1 DUP4 SUB DUP2 DUP7 GAS STATICCALL ISZERO DUP1 ISZERO PUSH2 0xF38 JUMPI RETURNDATASIZE PUSH1 0x0 DUP1 RETURNDATACOPY RETURNDATASIZE PUSH1 0x0 REVERT JUMPDEST POP POP POP POP PUSH1 0x40 MLOAD RETURNDATASIZE PUSH1 0x1F NOT PUSH1 0x1F DUP3 ADD AND DUP3 ADD DUP1 PUSH1 0x40 MSTORE POP DUP2 ADD SWAP1 PUSH2 0xF5C SWAP2 SWAP1 PUSH2 0x1B67 JUMP JUMPDEST SWAP1 POP PUSH1 0x0 DUP2 PUSH20 0xFFFFFFFFFFFFFFFFFFFFFFFFFFFFFFFFFFFFFFFF AND PUSH4 0x20487DED DUP9 DUP6 PUSH1 0x40 MLOAD DUP4 PUSH4 0xFFFFFFFF AND PUSH1 0xE0 SHL DUP2 MSTORE PUSH1 0x4 ADD PUSH2 0xF9B SWAP3 SWAP2 SWAP1 PUSH2 0x1DA9 JUMP JUMPDEST PUSH1 0x20 PUSH1 0x40 MLOAD DUP1 DUP4 SUB DUP2 DUP7 GAS STATICCALL ISZERO DUP1 ISZERO PUSH2 0xFB8 JUMPI RETURNDATASIZE PUSH1 0x0 DUP1 RETURNDATACOPY RETURNDATASIZE PUSH1 0x0 REVERT JUMPDEST POP POP POP POP PUSH1 0x40 MLOAD RETURNDATASIZE PUSH1 0x1F NOT PUSH1 0x1F DUP3 ADD AND DUP3 ADD DUP1 PUSH1 0x40 MSTORE POP DUP2 ADD SWAP1 PUSH2 0xFDC SWAP2 SWAP1 PUSH2 0x1DEE JUMP JUMPDEST SWAP1 POP DUP2 PUSH20 0xFFFFFFFFFFFFFFFFFFFFFFFFFFFFFFFFFFFFFFFF AND PUSH4 0x96F4E9F9 DUP3 DUP10 DUP7 PUSH1 0x40 MLOAD DUP5 PUSH4 0xFFFFFFFF AND PUSH1 0xE0 SHL DUP2 MSTORE PUSH1 0x4 ADD PUSH2 0x101A SWAP3 SWAP2 SWAP1 PUSH2 0x1DA9 JUMP JUMPDEST PUSH1 0x20 PUSH1 0x40 MLOAD DUP1 DUP4 SUB DUP2 DUP6 DUP9 GAS CALL ISZERO DUP1 ISZERO PUSH2 0x1038 JUMPI RETURNDATASIZE PUSH1 0x0 DUP1 RETURNDATACOPY RETURNDATASIZE PUSH1 0x0 REVERT JUMPDEST POP POP POP POP POP PUSH1 0x40 MLOAD RETURNDATASIZE PUSH1 0x1F NOT PUSH1 0x1F DUP3 ADD AND DUP3 ADD DUP1 PUSH1 0x40 MSTORE POP DUP2 ADD SWAP1 PUSH2 0x105D SWAP2 SWAP1 PUSH2 0x1ED8 JUMP JUMPDEST SWAP4 POP POP POP POP SWAP4 SWAP3 POP POP POP JUMP JUMPDEST PUSH2 0x1071 PUSH2 0x107D JUMP JUMPDEST PUSH2 0x107A DUP2 PUSH2 0x1254 JUMP JUMPDEST POP JUMP JUMPDEST PUSH1 0x0 DUP1 SLOAD SWAP1 PUSH2 0x100 EXP SWAP1 DIV PUSH20 0xFFFFFFFFFFFFFFFFFFFFFFFFFFFFFFFFFFFFFFFF AND PUSH20 0xFFFFFFFFFFFFFFFFFFFFFFFFFFFFFFFFFFFFFFFF AND CALLER PUSH20 0xFFFFFFFFFFFFFFFFFFFFFFFFFFFFFFFFFFFFFFFF AND EQ PUSH2 0x110B JUMPI PUSH1 0x40 MLOAD PUSH32 0x8C379A000000000000000000000000000000000000000000000000000000000 DUP2 MSTORE PUSH1 0x4 ADD PUSH2 0x1102 SWAP1 PUSH2 0x22E4 JUMP JUMPDEST PUSH1 0x40 MLOAD DUP1 SWAP2 SUB SWAP1 REVERT JUMPDEST JUMP JUMPDEST PUSH2 0x1115 PUSH2 0x13FF JUMP JUMPDEST PUSH1 0x0 PUSH1 0x40 MLOAD DUP1 PUSH1 0xA0 ADD PUSH1 0x40 MSTORE DUP1 DUP7 PUSH1 0x40 MLOAD PUSH1 0x20 ADD PUSH2 0x1133 SWAP2 SWAP1 PUSH2 0x1B37 JUMP JUMPDEST PUSH1 0x40 MLOAD PUSH1 0x20 DUP2 DUP4 SUB SUB DUP2 MSTORE SWAP1 PUSH1 0x40 MSTORE DUP2 MSTORE PUSH1 0x20 ADD DUP6 PUSH1 0x40 MLOAD PUSH1 0x20 ADD PUSH2 0x1158 SWAP2 SWAP1 PUSH2 0x24F6 JUMP JUMPDEST PUSH1 0x40 MLOAD PUSH1 0x20 DUP2 DUP4 SUB SUB DUP2 MSTORE SWAP1 PUSH1 0x40 MSTORE DUP2 MSTORE PUSH1 0x20 ADD PUSH1 0x0 PUSH8 0xFFFFFFFFFFFFFFFF DUP2 GT ISZERO PUSH2 0x1187 JUMPI PUSH2 0x1186 PUSH2 0x15F7 JUMP JUMPDEST JUMPDEST PUSH1 0x40 MLOAD SWAP1 DUP1 DUP3 MSTORE DUP1 PUSH1 0x20 MUL PUSH1 0x20 ADD DUP3 ADD PUSH1 0x40 MSTORE DUP1 ISZERO PUSH2 0x11C0 JUMPI DUP2 PUSH1 0x20 ADD JUMPDEST PUSH2 0x11AD PUSH2 0x1444 JUMP JUMPDEST DUP2 MSTORE PUSH1 0x20 ADD SWAP1 PUSH1 0x1 SWAP1 SUB SWAP1 DUP2 PUSH2 0x11A5 JUMPI SWAP1 POP JUMPDEST POP DUP2 MSTORE PUSH1 0x20 ADD DUP5 PUSH20 0xFFFFFFFFFFFFFFFFFFFFFFFFFFFFFFFFFFFFFFFF AND DUP2 MSTORE PUSH1 0x20 ADD PUSH2 0x1205 PUSH1 0x40 MLOAD DUP1 PUSH1 0x40 ADD PUSH1 0x40 MSTORE DUP1 PUSH3 0x6DDD0 DUP2 MSTORE PUSH1 0x20 ADD PUSH1 0x0 ISZERO ISZERO DUP2 MSTORE POP PUSH2 0x1380 JUMP JUMPDEST DUP2 MSTORE POP SWAP1 POP DUP1 SWAP2 POP POP SWAP4 SWAP3 POP POP POP JUMP JUMPDEST DUP1 PUSH1 0x0 ADD MLOAD PUSH1 0x2 DUP2 SWAP1 SSTORE POP DUP1 PUSH1 0x60 ADD MLOAD DUP1 PUSH1 0x20 ADD SWAP1 MLOAD DUP2 ADD SWAP1 PUSH2 0x1238 SWAP2 SWAP1 PUSH2 0x1E7F JUMP JUMPDEST PUSH1 0x3 PUSH1 0x0 PUSH2 0x100 EXP DUP2 SLOAD DUP2 PUSH1 0xFF MUL NOT AND SWAP1 DUP4 ISZERO ISZERO MUL OR SWAP1 SSTORE POP POP JUMP JUMPDEST CALLER PUSH20 0xFFFFFFFFFFFFFFFFFFFFFFFFFFFFFFFFFFFFFFFF AND DUP2 PUSH20 0xFFFFFFFFFFFFFFFFFFFFFFFFFFFFFFFFFFFFFFFF AND SUB PUSH2 0x12C2 JUMPI PUSH1 0x40 MLOAD PUSH32 0x8C379A000000000000000000000000000000000000000000000000000000000 DUP2 MSTORE PUSH1 0x4 ADD PUSH2 0x12B9 SWAP1 PUSH2 0x255E JUMP JUMPDEST PUSH1 0x40 MLOAD DUP1 SWAP2 SUB SWAP1 REVERT JUMPDEST DUP1 PUSH1 0x1 PUSH1 0x0 PUSH2 0x100 EXP DUP2 SLOAD DUP2 PUSH20 0xFFFFFFFFFFFFFFFFFFFFFFFFFFFFFFFFFFFFFFFF MUL NOT AND SWAP1 DUP4 PUSH20 0xFFFFFFFFFFFFFFFFFFFFFFFFFFFFFFFFFFFFFFFF AND MUL OR SWAP1 SSTORE POP DUP1 PUSH20 0xFFFFFFFFFFFFFFFFFFFFFFFFFFFFFFFFFFFFFFFF AND PUSH1 0x0 DUP1 SLOAD SWAP1 PUSH2 0x100 EXP SWAP1 DIV PUSH20 0xFFFFFFFFFFFFFFFFFFFFFFFFFFFFFFFFFFFFFFFF AND PUSH20 0xFFFFFFFFFFFFFFFFFFFFFFFFFFFFFFFFFFFFFFFF AND PUSH32 0xED8889F560326EB138920D842192F0EB3DD22B4F139C87A2C57538E05BAE1278 PUSH1 0x40 MLOAD PUSH1 0x40 MLOAD DUP1 SWAP2 SUB SWAP1 LOG3 POP JUMP JUMPDEST PUSH1 0x60 PUSH4 0x97A657C9 PUSH1 0xE0 SHL DUP3 PUSH1 0x40 MLOAD PUSH1 0x24 ADD PUSH2 0x139B SWAP2 SWAP1 PUSH2 0x25BC JUMP JUMPDEST PUSH1 0x40 MLOAD PUSH1 0x20 DUP2 DUP4 SUB SUB DUP2 MSTORE SWAP1 PUSH1 0x40 MSTORE SWAP1 PUSH28 0xFFFFFFFFFFFFFFFFFFFFFFFFFFFFFFFFFFFFFFFFFFFFFFFFFFFFFFFF NOT AND PUSH1 0x20 DUP3 ADD DUP1 MLOAD PUSH28 0xFFFFFFFFFFFFFFFFFFFFFFFFFFFFFFFFFFFFFFFFFFFFFFFFFFFFFFFF DUP4 DUP2 DUP4 AND OR DUP4 MSTORE POP POP POP POP SWAP1 POP SWAP2 SWAP1 POP JUMP JUMPDEST PUSH1 0x40 MLOAD DUP1 PUSH1 0xA0 ADD PUSH1 0x40 MSTORE DUP1 PUSH1 0x60 DUP2 MSTORE PUSH1 0x20 ADD PUSH1 0x60 DUP2 MSTORE PUSH1 0x20 ADD PUSH1 0x60 DUP2 MSTORE PUSH1 0x20 ADD PUSH1 0x0 PUSH20 0xFFFFFFFFFFFFFFFFFFFFFFFFFFFFFFFFFFFFFFFF AND DUP2 MSTORE PUSH1 0x20 ADD PUSH1 0x60 DUP2 MSTORE POP SWAP1 JUMP JUMPDEST PUSH1 0x40 MLOAD DUP1 PUSH1 0x40 ADD PUSH1 0x40 MSTORE DUP1 PUSH1 0x0 PUSH20 0xFFFFFFFFFFFFFFFFFFFFFFFFFFFFFFFFFFFFFFFF AND DUP2 MSTORE PUSH1 0x20 ADD PUSH1 0x0 DUP2 MSTORE POP SWAP1 JUMP JUMPDEST PUSH1 0x0 PUSH1 0x40 MLOAD SWAP1 POP SWAP1 JUMP JUMPDEST PUSH1 0x0 DUP1 REVERT JUMPDEST PUSH1 0x0 DUP1 REVERT JUMPDEST PUSH1 0x0 PUSH32 0xFFFFFFFF00000000000000000000000000000000000000000000000000000000 DUP3 AND SWAP1 POP SWAP2 SWAP1 POP JUMP JUMPDEST PUSH2 0x14BD DUP2 PUSH2 0x1488 JUMP JUMPDEST DUP2 EQ PUSH2 0x14C8 JUMPI PUSH1 0x0 DUP1 REVERT JUMPDEST POP JUMP JUMPDEST PUSH1 0x0 DUP2 CALLDATALOAD SWAP1 POP PUSH2 0x14DA DUP2 PUSH2 0x14B4 JUMP JUMPDEST SWAP3 SWAP2 POP POP JUMP JUMPDEST PUSH1 0x0 PUSH1 0x20 DUP3 DUP5 SUB SLT ISZERO PUSH2 0x14F6 JUMPI PUSH2 0x14F5 PUSH2 0x147E JUMP JUMPDEST JUMPDEST PUSH1 0x0 PUSH2 0x1504 DUP5 DUP3 DUP6 ADD PUSH2 0x14CB JUMP JUMPDEST SWAP2 POP POP SWAP3 SWAP2 POP POP JUMP JUMPDEST PUSH1 0x0 DUP2 ISZERO ISZERO SWAP1 POP SWAP2 SWAP1 POP JUMP JUMPDEST PUSH2 0x1522 DUP2 PUSH2 0x150D JUMP JUMPDEST DUP3 MSTORE POP POP JUMP JUMPDEST PUSH1 0x0 PUSH1 0x20 DUP3 ADD SWAP1 POP PUSH2 0x153D PUSH1 0x0 DUP4 ADD DUP5 PUSH2 0x1519 JUMP JUMPDEST SWAP3 SWAP2 POP POP JUMP JUMPDEST PUSH1 0x0 PUSH8 0xFFFFFFFFFFFFFFFF DUP3 AND SWAP1 POP SWAP2 SWAP1 POP JUMP JUMPDEST PUSH2 0x1560 DUP2 PUSH2 0x1543 JUMP JUMPDEST DUP2 EQ PUSH2 0x156B JUMPI PUSH1 0x0 DUP1 REVERT JUMPDEST POP JUMP JUMPDEST PUSH1 0x0 DUP2 CALLDATALOAD SWAP1 POP PUSH2 0x157D DUP2 PUSH2 0x1557 JUMP JUMPDEST SWAP3 SWAP2 POP POP JUMP JUMPDEST PUSH1 0x0 PUSH20 0xFFFFFFFFFFFFFFFFFFFFFFFFFFFFFFFFFFFFFFFF DUP3 AND SWAP1 POP SWAP2 SWAP1 POP JUMP JUMPDEST PUSH1 0x0 PUSH2 0x15AE DUP3 PUSH2 0x1583 JUMP JUMPDEST SWAP1 POP SWAP2 SWAP1 POP JUMP JUMPDEST PUSH2 0x15BE DUP2 PUSH2 0x15A3 JUMP JUMPDEST DUP2 EQ PUSH2 0x15C9 JUMPI PUSH1 0x0 DUP1 REVERT JUMPDEST POP JUMP JUMPDEST PUSH1 0x0 DUP2 CALLDATALOAD SWAP1 POP PUSH2 0x15DB DUP2 PUSH2 0x15B5 JUMP JUMPDEST SWAP3 SWAP2 POP POP JUMP JUMPDEST PUSH1 0x0 DUP1 REVERT JUMPDEST PUSH1 0x0 PUSH1 0x1F NOT PUSH1 0x1F DUP4 ADD AND SWAP1 POP SWAP2 SWAP1 POP JUMP JUMPDEST PUSH32 0x4E487B7100000000000000000000000000000000000000000000000000000000 PUSH1 0x0 MSTORE PUSH1 0x41 PUSH1 0x4 MSTORE PUSH1 0x24 PUSH1 0x0 REVERT JUMPDEST PUSH2 0x162F DUP3 PUSH2 0x15E6 JUMP JUMPDEST DUP2 ADD DUP2 DUP2 LT PUSH8 0xFFFFFFFFFFFFFFFF DUP3 GT OR ISZERO PUSH2 0x164E JUMPI PUSH2 0x164D PUSH2 0x15F7 JUMP JUMPDEST JUMPDEST DUP1 PUSH1 0x40 MSTORE POP POP POP JUMP JUMPDEST PUSH1 0x0 PUSH2 0x1661 PUSH2 0x1474 JUMP JUMPDEST SWAP1 POP PUSH2 0x166D DUP3 DUP3 PUSH2 0x1626 JUMP JUMPDEST SWAP2 SWAP1 POP JUMP JUMPDEST PUSH1 0x0 DUP1 REVERT JUMPDEST PUSH1 0x0 DUP2 SWAP1 POP SWAP2 SWAP1 POP JUMP JUMPDEST PUSH2 0x168A DUP2 PUSH2 0x1677 JUMP JUMPDEST DUP2 EQ PUSH2 0x1695 JUMPI PUSH1 0x0 DUP1 REVERT JUMPDEST POP JUMP JUMPDEST PUSH1 0x0 DUP2 CALLDATALOAD SWAP1 POP PUSH2 0x16A7 DUP2 PUSH2 0x1681 JUMP JUMPDEST SWAP3 SWAP2 POP POP JUMP JUMPDEST PUSH1 0x0 PUSH1 0x40 DUP3 DUP5 SUB SLT ISZERO PUSH2 0x16C3 JUMPI PUSH2 0x16C2 PUSH2 0x15E1 JUMP JUMPDEST JUMPDEST PUSH2 0x16CD PUSH1 0x40 PUSH2 0x1657 JUMP JUMPDEST SWAP1 POP PUSH1 0x0 PUSH2 0x16DD DUP5 DUP3 DUP6 ADD PUSH2 0x1698 JUMP JUMPDEST PUSH1 0x0 DUP4 ADD MSTORE POP PUSH1 0x20 PUSH2 0x16F1 DUP5 DUP3 DUP6 ADD PUSH2 0x1698 JUMP JUMPDEST PUSH1 0x20 DUP4 ADD MSTORE POP SWAP3 SWAP2 POP POP JUMP JUMPDEST PUSH1 0x0 DUP1 REVERT JUMPDEST PUSH1 0x0 PUSH8 0xFFFFFFFFFFFFFFFF DUP3 GT ISZERO PUSH2 0x171D JUMPI PUSH2 0x171C PUSH2 0x15F7 JUMP JUMPDEST JUMPDEST PUSH1 0x20 DUP3 MUL SWAP1 POP SWAP2 SWAP1 POP JUMP JUMPDEST PUSH1 0x0 DUP1 REVERT JUMPDEST PUSH1 0x0 PUSH2 0x1740 PUSH2 0x173B DUP5 PUSH2 0x1702 JUMP JUMPDEST PUSH2 0x1657 JUMP JUMPDEST SWAP1 POP DUP1 PUSH1 0x20 DUP5 MUL DUP4 ADD DUP6 DUP2 GT ISZERO PUSH2 0x175A JUMPI PUSH2 0x1759 PUSH2 0x1728 JUMP JUMPDEST JUMPDEST DUP4 JUMPDEST DUP2 DUP2 LT ISZERO PUSH2 0x1783 JUMPI DUP1 PUSH2 0x176F DUP9 DUP3 PUSH2 0x1698 JUMP JUMPDEST DUP5 MSTORE PUSH1 0x20 DUP5 ADD SWAP4 POP POP PUSH1 0x20 DUP2 ADD SWAP1 POP PUSH2 0x175C JUMP JUMPDEST POP POP POP SWAP4 SWAP3 POP POP POP JUMP JUMPDEST PUSH1 0x0 DUP3 PUSH1 0x1F DUP4 ADD SLT PUSH2 0x17A2 JUMPI PUSH2 0x17A1 PUSH2 0x16FD JUMP JUMPDEST JUMPDEST PUSH1 0x2 PUSH2 0x17AF DUP5 DUP3 DUP6 PUSH2 0x172D JUMP JUMPDEST SWAP2 POP POP SWAP3 SWAP2 POP POP JUMP JUMPDEST PUSH1 0x0 PUSH1 0x80 DUP3 DUP5 SUB SLT ISZERO PUSH2 0x17CE JUMPI PUSH2 0x17CD PUSH2 0x15E1 JUMP JUMPDEST JUMPDEST PUSH2 0x17D8 PUSH1 0x40 PUSH2 0x1657 JUMP JUMPDEST SWAP1 POP PUSH1 0x0 PUSH2 0x17E8 DUP5 DUP3 DUP6 ADD PUSH2 0x178D JUMP JUMPDEST PUSH1 0x0 DUP4 ADD MSTORE POP PUSH1 0x40 PUSH2 0x17FC DUP5 DUP3 DUP6 ADD PUSH2 0x178D JUMP JUMPDEST PUSH1 0x20 DUP4 ADD MSTORE POP SWAP3 SWAP2 POP POP JUMP JUMPDEST PUSH1 0x0 PUSH2 0x100 DUP3 DUP5 SUB SLT ISZERO PUSH2 0x181F JUMPI PUSH2 0x181E PUSH2 0x15E1 JUMP JUMPDEST JUMPDEST PUSH2 0x1829 PUSH1 0x60 PUSH2 0x1657 JUMP JUMPDEST SWAP1 POP PUSH1 0x0 PUSH2 0x1839 DUP5 DUP3 DUP6 ADD PUSH2 0x16AD JUMP JUMPDEST PUSH1 0x0 DUP4 ADD MSTORE POP PUSH1 0x40 PUSH2 0x184D DUP5 DUP3 DUP6 ADD PUSH2 0x17B8 JUMP JUMPDEST PUSH1 0x20 DUP4 ADD MSTORE POP PUSH1 0xC0 PUSH2 0x1861 DUP5 DUP3 DUP6 ADD PUSH2 0x16AD JUMP JUMPDEST PUSH1 0x40 DUP4 ADD MSTORE POP SWAP3 SWAP2 POP POP JUMP JUMPDEST PUSH1 0x0 PUSH8 0xFFFFFFFFFFFFFFFF DUP3 GT ISZERO PUSH2 0x1888 JUMPI PUSH2 0x1887 PUSH2 0x15F7 JUMP JUMPDEST JUMPDEST PUSH1 0x20 DUP3 MUL SWAP1 POP SWAP2 SWAP1 POP JUMP JUMPDEST PUSH1 0x0 PUSH2 0x18A6 PUSH2 0x18A1 DUP5 PUSH2 0x186D JUMP JUMPDEST PUSH2 0x1657 JUMP JUMPDEST SWAP1 POP DUP1 PUSH1 0x20 DUP5 MUL DUP4 ADD DUP6 DUP2 GT ISZERO PUSH2 0x18C0 JUMPI PUSH2 0x18BF PUSH2 0x1728 JUMP JUMPDEST JUMPDEST DUP4 JUMPDEST DUP2 DUP2 LT ISZERO PUSH2 0x18E9 JUMPI DUP1 PUSH2 0x18D5 DUP9 DUP3 PUSH2 0x1698 JUMP JUMPDEST DUP5 MSTORE PUSH1 0x20 DUP5 ADD SWAP4 POP POP PUSH1 0x20 DUP2 ADD SWAP1 POP PUSH2 0x18C2 JUMP JUMPDEST POP POP POP SWAP4 SWAP3 POP POP POP JUMP JUMPDEST PUSH1 0x0 DUP3 PUSH1 0x1F DUP4 ADD SLT PUSH2 0x1908 JUMPI PUSH2 0x1907 PUSH2 0x16FD JUMP JUMPDEST JUMPDEST PUSH1 0x1 PUSH2 0x1915 DUP5 DUP3 DUP6 PUSH2 0x1893 JUMP JUMPDEST SWAP2 POP POP SWAP3 SWAP2 POP POP JUMP JUMPDEST PUSH1 0x0 PUSH2 0x120 DUP3 DUP5 SUB SLT ISZERO PUSH2 0x1935 JUMPI PUSH2 0x1934 PUSH2 0x15E1 JUMP JUMPDEST JUMPDEST PUSH2 0x193F PUSH1 0x40 PUSH2 0x1657 JUMP JUMPDEST SWAP1 POP PUSH1 0x0 PUSH2 0x194F DUP5 DUP3 DUP6 ADD PUSH2 0x1808 JUMP JUMPDEST PUSH1 0x0 DUP4 ADD MSTORE POP PUSH2 0x100 PUSH2 0x1964 DUP5 DUP3 DUP6 ADD PUSH2 0x18F3 JUMP JUMPDEST PUSH1 0x20 DUP4 ADD MSTORE POP SWAP3 SWAP2 POP POP JUMP JUMPDEST PUSH1 0x0 DUP1 PUSH1 0x0 PUSH2 0x160 DUP5 DUP7 SUB SLT ISZERO PUSH2 0x198A JUMPI PUSH2 0x1989 PUSH2 0x147E JUMP JUMPDEST JUMPDEST PUSH1 0x0 PUSH2 0x1998 DUP7 DUP3 DUP8 ADD PUSH2 0x156E JUMP JUMPDEST SWAP4 POP POP PUSH1 0x20 PUSH2 0x19A9 DUP7 DUP3 DUP8 ADD PUSH2 0x15CC JUMP JUMPDEST SWAP3 POP POP PUSH1 0x40 PUSH2 0x19BA DUP7 DUP3 DUP8 ADD PUSH2 0x191E JUMP JUMPDEST SWAP2 POP POP SWAP3 POP SWAP3 POP SWAP3 JUMP JUMPDEST PUSH1 0x0 DUP2 SWAP1 POP SWAP2 SWAP1 POP JUMP JUMPDEST PUSH2 0x19D7 DUP2 PUSH2 0x19C4 JUMP JUMPDEST DUP3 MSTORE POP POP JUMP JUMPDEST PUSH1 0x0 PUSH1 0x20 DUP3 ADD SWAP1 POP PUSH2 0x19F2 PUSH1 0x0 DUP4 ADD DUP5 PUSH2 0x19CE JUMP JUMPDEST SWAP3 SWAP2 POP POP JUMP JUMPDEST PUSH1 0x0 PUSH1 0x40 DUP3 ADD SWAP1 POP PUSH2 0x1A0D PUSH1 0x0 DUP4 ADD DUP6 PUSH2 0x19CE JUMP JUMPDEST PUSH2 0x1A1A PUSH1 0x20 DUP4 ADD DUP5 PUSH2 0x1519 JUMP JUMPDEST SWAP4 SWAP3 POP POP POP JUMP JUMPDEST PUSH1 0x0 PUSH1 0x20 DUP3 DUP5 SUB SLT ISZERO PUSH2 0x1A37 JUMPI PUSH2 0x1A36 PUSH2 0x147E JUMP JUMPDEST JUMPDEST PUSH1 0x0 PUSH2 0x1A45 DUP5 DUP3 DUP6 ADD PUSH2 0x15CC JUMP JUMPDEST SWAP2 POP POP SWAP3 SWAP2 POP POP JUMP JUMPDEST PUSH1 0x0 DUP1 PUSH1 0x40 DUP4 DUP6 SUB SLT ISZERO PUSH2 0x1A65 JUMPI PUSH2 0x1A64 PUSH2 0x147E JUMP JUMPDEST JUMPDEST PUSH1 0x0 PUSH2 0x1A73 DUP6 DUP3 DUP7 ADD PUSH2 0x15CC JUMP JUMPDEST SWAP3 POP POP PUSH1 0x20 PUSH2 0x1A84 DUP6 DUP3 DUP7 ADD PUSH2 0x15CC JUMP JUMPDEST SWAP2 POP POP SWAP3 POP SWAP3 SWAP1 POP JUMP JUMPDEST PUSH1 0x0 PUSH1 0x20 DUP3 DUP5 SUB SLT ISZERO PUSH2 0x1AA4 JUMPI PUSH2 0x1AA3 PUSH2 0x147E JUMP JUMPDEST JUMPDEST PUSH1 0x0 PUSH2 0x1AB2 DUP5 DUP3 DUP6 ADD PUSH2 0x156E JUMP JUMPDEST SWAP2 POP POP SWAP3 SWAP2 POP POP JUMP JUMPDEST PUSH1 0x0 DUP1 REVERT JUMPDEST PUSH1 0x0 PUSH1 0xA0 DUP3 DUP5 SUB SLT ISZERO PUSH2 0x1AD6 JUMPI PUSH2 0x1AD5 PUSH2 0x1ABB JUMP JUMPDEST JUMPDEST DUP2 SWAP1 POP SWAP3 SWAP2 POP POP JUMP JUMPDEST PUSH1 0x0 PUSH1 0x20 DUP3 DUP5 SUB SLT ISZERO PUSH2 0x1AF5 JUMPI PUSH2 0x1AF4 PUSH2 0x147E JUMP JUMPDEST JUMPDEST PUSH1 0x0 DUP3 ADD CALLDATALOAD PUSH8 0xFFFFFFFFFFFFFFFF DUP2 GT ISZERO PUSH2 0x1B13 JUMPI PUSH2 0x1B12 PUSH2 0x1483 JUMP JUMPDEST JUMPDEST PUSH2 0x1B1F DUP5 DUP3 DUP6 ADD PUSH2 0x1AC0 JUMP JUMPDEST SWAP2 POP POP SWAP3 SWAP2 POP POP JUMP JUMPDEST PUSH2 0x1B31 DUP2 PUSH2 0x15A3 JUMP JUMPDEST DUP3 MSTORE POP POP JUMP JUMPDEST PUSH1 0x0 PUSH1 0x20 DUP3 ADD SWAP1 POP PUSH2 0x1B4C PUSH1 0x0 DUP4 ADD DUP5 PUSH2 0x1B28 JUMP JUMPDEST SWAP3 SWAP2 POP POP JUMP JUMPDEST PUSH1 0x0 DUP2 MLOAD SWAP1 POP PUSH2 0x1B61 DUP2 PUSH2 0x15B5 JUMP JUMPDEST SWAP3 SWAP2 POP POP JUMP JUMPDEST PUSH1 0x0 PUSH1 0x20 DUP3 DUP5 SUB SLT ISZERO PUSH2 0x1B7D JUMPI PUSH2 0x1B7C PUSH2 0x147E JUMP JUMPDEST JUMPDEST PUSH1 0x0 PUSH2 0x1B8B DUP5 DUP3 DUP6 ADD PUSH2 0x1B52 JUMP JUMPDEST SWAP2 POP POP SWAP3 SWAP2 POP POP JUMP JUMPDEST PUSH2 0x1B9D DUP2 PUSH2 0x1543 JUMP JUMPDEST DUP3 MSTORE POP POP JUMP JUMPDEST PUSH1 0x0 DUP2 MLOAD SWAP1 POP SWAP2 SWAP1 POP JUMP JUMPDEST PUSH1 0x0 DUP3 DUP3 MSTORE PUSH1 0x20 DUP3 ADD SWAP1 POP SWAP3 SWAP2 POP POP JUMP JUMPDEST PUSH1 0x0 JUMPDEST DUP4 DUP2 LT ISZERO PUSH2 0x1BDD JUMPI DUP1 DUP3 ADD MLOAD DUP2 DUP5 ADD MSTORE PUSH1 0x20 DUP2 ADD SWAP1 POP PUSH2 0x1BC2 JUMP JUMPDEST PUSH1 0x0 DUP5 DUP5 ADD MSTORE POP POP POP POP JUMP JUMPDEST PUSH1 0x0 PUSH2 0x1BF4 DUP3 PUSH2 0x1BA3 JUMP JUMPDEST PUSH2 0x1BFE DUP2 DUP6 PUSH2 0x1BAE JUMP JUMPDEST SWAP4 POP PUSH2 0x1C0E DUP2 DUP6 PUSH1 0x20 DUP7 ADD PUSH2 0x1BBF JUMP JUMPDEST PUSH2 0x1C17 DUP2 PUSH2 0x15E6 JUMP JUMPDEST DUP5 ADD SWAP2 POP POP SWAP3 SWAP2 POP POP JUMP JUMPDEST PUSH1 0x0 DUP2 MLOAD SWAP1 POP SWAP2 SWAP1 POP JUMP JUMPDEST PUSH1 0x0 DUP3 DUP3 MSTORE PUSH1 0x20 DUP3 ADD SWAP1 POP SWAP3 SWAP2 POP POP JUMP JUMPDEST PUSH1 0x0 DUP2 SWAP1 POP PUSH1 0x20 DUP3 ADD SWAP1 POP SWAP2 SWAP1 POP JUMP JUMPDEST PUSH2 0x1C57 DUP2 PUSH2 0x15A3 JUMP JUMPDEST DUP3 MSTORE POP POP JUMP JUMPDEST PUSH2 0x1C66 DUP2 PUSH2 0x1677 JUMP JUMPDEST DUP3 MSTORE POP POP JUMP JUMPDEST PUSH1 0x40 DUP3 ADD PUSH1 0x0 DUP3 ADD MLOAD PUSH2 0x1C82 PUSH1 0x0 DUP6 ADD DUP3 PUSH2 0x1C4E JUMP JUMPDEST POP PUSH1 0x20 DUP3 ADD MLOAD PUSH2 0x1C95 PUSH1 0x20 DUP6 ADD DUP3 PUSH2 0x1C5D JUMP JUMPDEST POP POP POP POP JUMP JUMPDEST PUSH1 0x0 PUSH2 0x1CA7 DUP4 DUP4 PUSH2 0x1C6C JUMP JUMPDEST PUSH1 0x40 DUP4 ADD SWAP1 POP SWAP3 SWAP2 POP POP JUMP JUMPDEST PUSH1 0x0 PUSH1 0x20 DUP3 ADD SWAP1 POP SWAP2 SWAP1 POP JUMP JUMPDEST PUSH1 0x0 PUSH2 0x1CCB DUP3 PUSH2 0x1C22 JUMP JUMPDEST PUSH2 0x1CD5 DUP2 DUP6 PUSH2 0x1C2D JUMP JUMPDEST SWAP4 POP PUSH2 0x1CE0 DUP4 PUSH2 0x1C3E JUMP JUMPDEST DUP1 PUSH1 0x0 JUMPDEST DUP4 DUP2 LT ISZERO PUSH2 0x1D11 JUMPI DUP2 MLOAD PUSH2 0x1CF8 DUP9 DUP3 PUSH2 0x1C9B JUMP JUMPDEST SWAP8 POP PUSH2 0x1D03 DUP4 PUSH2 0x1CB3 JUMP JUMPDEST SWAP3 POP POP PUSH1 0x1 DUP2 ADD SWAP1 POP PUSH2 0x1CE4 JUMP JUMPDEST POP DUP6 SWAP4 POP POP POP POP SWAP3 SWAP2 POP POP JUMP JUMPDEST PUSH1 0x0 PUSH1 0xA0 DUP4 ADD PUSH1 0x0 DUP4 ADD MLOAD DUP5 DUP3 SUB PUSH1 0x0 DUP7 ADD MSTORE PUSH2 0x1D3B DUP3 DUP3 PUSH2 0x1BE9 JUMP JUMPDEST SWAP2 POP POP PUSH1 0x20 DUP4 ADD MLOAD DUP5 DUP3 SUB PUSH1 0x20 DUP7 ADD MSTORE PUSH2 0x1D55 DUP3 DUP3 PUSH2 0x1BE9 JUMP JUMPDEST SWAP2 POP POP PUSH1 0x40 DUP4 ADD MLOAD DUP5 DUP3 SUB PUSH1 0x40 DUP7 ADD MSTORE PUSH2 0x1D6F DUP3 DUP3 PUSH2 0x1CC0 JUMP JUMPDEST SWAP2 POP POP PUSH1 0x60 DUP4 ADD MLOAD PUSH2 0x1D84 PUSH1 0x60 DUP7 ADD DUP3 PUSH2 0x1C4E JUMP JUMPDEST POP PUSH1 0x80 DUP4 ADD MLOAD DUP5 DUP3 SUB PUSH1 0x80 DUP7 ADD MSTORE PUSH2 0x1D9C DUP3 DUP3 PUSH2 0x1BE9 JUMP JUMPDEST SWAP2 POP POP DUP1 SWAP2 POP POP SWAP3 SWAP2 POP POP JUMP JUMPDEST PUSH1 0x0 PUSH1 0x40 DUP3 ADD SWAP1 POP PUSH2 0x1DBE PUSH1 0x0 DUP4 ADD DUP6 PUSH2 0x1B94 JUMP JUMPDEST DUP2 DUP2 SUB PUSH1 0x20 DUP4 ADD MSTORE PUSH2 0x1DD0 DUP2 DUP5 PUSH2 0x1D1E JUMP JUMPDEST SWAP1 POP SWAP4 SWAP3 POP POP POP JUMP JUMPDEST PUSH1 0x0 DUP2 MLOAD SWAP1 POP PUSH2 0x1DE8 DUP2 PUSH2 0x1681 JUMP JUMPDEST SWAP3 SWAP2 POP POP JUMP JUMPDEST PUSH1 0x0 PUSH1 0x20 DUP3 DUP5 SUB SLT ISZERO PUSH2 0x1E04 JUMPI PUSH2 0x1E03 PUSH2 0x147E JUMP JUMPDEST JUMPDEST PUSH1 0x0 PUSH2 0x1E12 DUP5 DUP3 DUP6 ADD PUSH2 0x1DD9 JUMP JUMPDEST SWAP2 POP POP SWAP3 SWAP2 POP POP JUMP JUMPDEST PUSH2 0x1E24 DUP2 PUSH2 0x1677 JUMP JUMPDEST DUP3 MSTORE POP POP JUMP JUMPDEST PUSH1 0x0 PUSH1 0x40 DUP3 ADD SWAP1 POP PUSH2 0x1E3F PUSH1 0x0 DUP4 ADD DUP6 PUSH2 0x1B28 JUMP JUMPDEST PUSH2 0x1E4C PUSH1 0x20 DUP4 ADD DUP5 PUSH2 0x1E1B JUMP JUMPDEST SWAP4 SWAP3 POP POP POP JUMP JUMPDEST PUSH2 0x1E5C DUP2 PUSH2 0x150D JUMP JUMPDEST DUP2 EQ PUSH2 0x1E67 JUMPI PUSH1 0x0 DUP1 REVERT JUMPDEST POP JUMP JUMPDEST PUSH1 0x0 DUP2 MLOAD SWAP1 POP PUSH2 0x1E79 DUP2 PUSH2 0x1E53 JUMP JUMPDEST SWAP3 SWAP2 POP POP JUMP JUMPDEST PUSH1 0x0 PUSH1 0x20 DUP3 DUP5 SUB SLT ISZERO PUSH2 0x1E95 JUMPI PUSH2 0x1E94 PUSH2 0x147E JUMP JUMPDEST JUMPDEST PUSH1 0x0 PUSH2 0x1EA3 DUP5 DUP3 DUP6 ADD PUSH2 0x1E6A JUMP JUMPDEST SWAP2 POP POP SWAP3 SWAP2 POP POP JUMP JUMPDEST PUSH2 0x1EB5 DUP2 PUSH2 0x19C4 JUMP JUMPDEST DUP2 EQ PUSH2 0x1EC0 JUMPI PUSH1 0x0 DUP1 REVERT JUMPDEST POP JUMP JUMPDEST PUSH1 0x0 DUP2 MLOAD SWAP1 POP PUSH2 0x1ED2 DUP2 PUSH2 0x1EAC JUMP JUMPDEST SWAP3 SWAP2 POP POP JUMP JUMPDEST PUSH1 0x0 PUSH1 0x20 DUP3 DUP5 SUB SLT ISZERO PUSH2 0x1EEE JUMPI PUSH2 0x1EED PUSH2 0x147E JUMP JUMPDEST JUMPDEST PUSH1 0x0 PUSH2 0x1EFC DUP5 DUP3 DUP6 ADD PUSH2 0x1EC3 JUMP JUMPDEST SWAP2 POP POP SWAP3 SWAP2 POP POP JUMP JUMPDEST PUSH1 0x0 DUP2 SWAP1 POP SWAP3 SWAP2 POP POP JUMP JUMPDEST POP JUMP JUMPDEST PUSH1 0x0 PUSH2 0x1F20 PUSH1 0x0 DUP4 PUSH2 0x1F05 JUMP JUMPDEST SWAP2 POP PUSH2 0x1F2B DUP3 PUSH2 0x1F10 JUMP JUMPDEST PUSH1 0x0 DUP3 ADD SWAP1 POP SWAP2 SWAP1 POP JUMP JUMPDEST PUSH1 0x0 PUSH2 0x1F41 DUP3 PUSH2 0x1F13 JUMP JUMPDEST SWAP2 POP DUP2 SWAP1 POP SWAP2 SWAP1 POP JUMP JUMPDEST PUSH1 0x0 DUP3 DUP3 MSTORE PUSH1 0x20 DUP3 ADD SWAP1 POP SWAP3 SWAP2 POP POP JUMP JUMPDEST PUSH32 0x4D7573742062652070726F706F736564206F776E657200000000000000000000 PUSH1 0x0 DUP3 ADD MSTORE POP JUMP JUMPDEST PUSH1 0x0 PUSH2 0x1F92 PUSH1 0x16 DUP4 PUSH2 0x1F4B JUMP JUMPDEST SWAP2 POP PUSH2 0x1F9D DUP3 PUSH2 0x1F5C JUMP JUMPDEST PUSH1 0x20 DUP3 ADD SWAP1 POP SWAP2 SWAP1 POP JUMP JUMPDEST PUSH1 0x0 PUSH1 0x20 DUP3 ADD SWAP1 POP DUP2 DUP2 SUB PUSH1 0x0 DUP4 ADD MSTORE PUSH2 0x1FC1 DUP2 PUSH2 0x1F85 JUMP JUMPDEST SWAP1 POP SWAP2 SWAP1 POP JUMP JUMPDEST PUSH1 0x0 DUP2 CALLDATALOAD SWAP1 POP PUSH2 0x1FD7 DUP2 PUSH2 0x1EAC JUMP JUMPDEST SWAP3 SWAP2 POP POP JUMP JUMPDEST PUSH1 0x0 DUP1 REVERT JUMPDEST PUSH1 0x0 PUSH8 0xFFFFFFFFFFFFFFFF DUP3 GT ISZERO PUSH2 0x1FFD JUMPI PUSH2 0x1FFC PUSH2 0x15F7 JUMP JUMPDEST JUMPDEST PUSH2 0x2006 DUP3 PUSH2 0x15E6 JUMP JUMPDEST SWAP1 POP PUSH1 0x20 DUP2 ADD SWAP1 POP SWAP2 SWAP1 POP JUMP JUMPDEST DUP3 DUP2 DUP4 CALLDATACOPY PUSH1 0x0 DUP4 DUP4 ADD MSTORE POP POP POP JUMP JUMPDEST PUSH1 0x0 PUSH2 0x2035 PUSH2 0x2030 DUP5 PUSH2 0x1FE2 JUMP JUMPDEST PUSH2 0x1657 JUMP JUMPDEST SWAP1 POP DUP3 DUP2 MSTORE PUSH1 0x20 DUP2 ADD DUP5 DUP5 DUP5 ADD GT ISZERO PUSH2 0x2051 JUMPI PUSH2 0x2050 PUSH2 0x1FDD JUMP JUMPDEST JUMPDEST PUSH2 0x205C DUP5 DUP3 DUP6 PUSH2 0x2013 JUMP JUMPDEST POP SWAP4 SWAP3 POP POP POP JUMP JUMPDEST PUSH1 0x0 DUP3 PUSH1 0x1F DUP4 ADD SLT PUSH2 0x2079 JUMPI PUSH2 0x2078 PUSH2 0x16FD JUMP JUMPDEST JUMPDEST DUP2 CALLDATALOAD PUSH2 0x2089 DUP5 DUP3 PUSH1 0x20 DUP7 ADD PUSH2 0x2022 JUMP JUMPDEST SWAP2 POP POP SWAP3 SWAP2 POP POP JUMP JUMPDEST PUSH1 0x0 PUSH8 0xFFFFFFFFFFFFFFFF DUP3 GT ISZERO PUSH2 0x20AD JUMPI PUSH2 0x20AC PUSH2 0x15F7 JUMP JUMPDEST JUMPDEST PUSH1 0x20 DUP3 MUL SWAP1 POP PUSH1 0x20 DUP2 ADD SWAP1 POP SWAP2 SWAP1 POP JUMP JUMPDEST PUSH1 0x0 PUSH1 0x40 DUP3 DUP5 SUB SLT ISZERO PUSH2 0x20D4 JUMPI PUSH2 0x20D3 PUSH2 0x15E1 JUMP JUMPDEST JUMPDEST PUSH2 0x20DE PUSH1 0x40 PUSH2 0x1657 JUMP JUMPDEST SWAP1 POP PUSH1 0x0 PUSH2 0x20EE DUP5 DUP3 DUP6 ADD PUSH2 0x15CC JUMP JUMPDEST PUSH1 0x0 DUP4 ADD MSTORE POP PUSH1 0x20 PUSH2 0x2102 DUP5 DUP3 DUP6 ADD PUSH2 0x1698 JUMP JUMPDEST PUSH1 0x20 DUP4 ADD MSTORE POP SWAP3 SWAP2 POP POP JUMP JUMPDEST PUSH1 0x0 PUSH2 0x2121 PUSH2 0x211C DUP5 PUSH2 0x2092 JUMP JUMPDEST PUSH2 0x1657 JUMP JUMPDEST SWAP1 POP DUP1 DUP4 DUP3 MSTORE PUSH1 0x20 DUP3 ADD SWAP1 POP PUSH1 0x40 DUP5 MUL DUP4 ADD DUP6 DUP2 GT ISZERO PUSH2 0x2144 JUMPI PUSH2 0x2143 PUSH2 0x1728 JUMP JUMPDEST JUMPDEST DUP4 JUMPDEST DUP2 DUP2 LT ISZERO PUSH2 0x216D JUMPI DUP1 PUSH2 0x2159 DUP9 DUP3 PUSH2 0x20BE JUMP JUMPDEST DUP5 MSTORE PUSH1 0x20 DUP5 ADD SWAP4 POP POP PUSH1 0x40 DUP2 ADD SWAP1 POP PUSH2 0x2146 JUMP JUMPDEST POP POP POP SWAP4 SWAP3 POP POP POP JUMP JUMPDEST PUSH1 0x0 DUP3 PUSH1 0x1F DUP4 ADD SLT PUSH2 0x218C JUMPI PUSH2 0x218B PUSH2 0x16FD JUMP JUMPDEST JUMPDEST DUP2 CALLDATALOAD PUSH2 0x219C DUP5 DUP3 PUSH1 0x20 DUP7 ADD PUSH2 0x210E JUMP JUMPDEST SWAP2 POP POP SWAP3 SWAP2 POP POP JUMP JUMPDEST PUSH1 0x0 PUSH1 0xA0 DUP3 DUP5 SUB SLT ISZERO PUSH2 0x21BB JUMPI PUSH2 0x21BA PUSH2 0x15E1 JUMP JUMPDEST JUMPDEST PUSH2 0x21C5 PUSH1 0xA0 PUSH2 0x1657 JUMP JUMPDEST SWAP1 POP PUSH1 0x0 PUSH2 0x21D5 DUP5 DUP3 DUP6 ADD PUSH2 0x1FC8 JUMP JUMPDEST PUSH1 0x0 DUP4 ADD MSTORE POP PUSH1 0x20 PUSH2 0x21E9 DUP5 DUP3 DUP6 ADD PUSH2 0x156E JUMP JUMPDEST PUSH1 0x20 DUP4 ADD MSTORE POP PUSH1 0x40 DUP3 ADD CALLDATALOAD PUSH8 0xFFFFFFFFFFFFFFFF DUP2 GT ISZERO PUSH2 0x220D JUMPI PUSH2 0x220C PUSH2 0x1672 JUMP JUMPDEST JUMPDEST PUSH2 0x2219 DUP5 DUP3 DUP6 ADD PUSH2 0x2064 JUMP JUMPDEST PUSH1 0x40 DUP4 ADD MSTORE POP PUSH1 0x60 DUP3 ADD CALLDATALOAD PUSH8 0xFFFFFFFFFFFFFFFF DUP2 GT ISZERO PUSH2 0x223D JUMPI PUSH2 0x223C PUSH2 0x1672 JUMP JUMPDEST JUMPDEST PUSH2 0x2249 DUP5 DUP3 DUP6 ADD PUSH2 0x2064 JUMP JUMPDEST PUSH1 0x60 DUP4 ADD MSTORE POP PUSH1 0x80 DUP3 ADD CALLDATALOAD PUSH8 0xFFFFFFFFFFFFFFFF DUP2 GT ISZERO PUSH2 0x226D JUMPI PUSH2 0x226C PUSH2 0x1672 JUMP JUMPDEST JUMPDEST PUSH2 0x2279 DUP5 DUP3 DUP6 ADD PUSH2 0x2177 JUMP JUMPDEST PUSH1 0x80 DUP4 ADD MSTORE POP SWAP3 SWAP2 POP POP JUMP JUMPDEST PUSH1 0x0 PUSH2 0x2291 CALLDATASIZE DUP4 PUSH2 0x21A5 JUMP JUMPDEST SWAP1 POP SWAP2 SWAP1 POP JUMP JUMPDEST PUSH32 0x4F6E6C792063616C6C61626C65206279206F776E657200000000000000000000 PUSH1 0x0 DUP3 ADD MSTORE POP JUMP JUMPDEST PUSH1 0x0 PUSH2 0x22CE PUSH1 0x16 DUP4 PUSH2 0x1F4B JUMP JUMPDEST SWAP2 POP PUSH2 0x22D9 DUP3 PUSH2 0x2298 JUMP JUMPDEST PUSH1 0x20 DUP3 ADD SWAP1 POP SWAP2 SWAP1 POP JUMP JUMPDEST PUSH1 0x0 PUSH1 0x20 DUP3 ADD SWAP1 POP DUP2 DUP2 SUB PUSH1 0x0 DUP4 ADD MSTORE PUSH2 0x22FD DUP2 PUSH2 0x22C1 JUMP JUMPDEST SWAP1 POP SWAP2 SWAP1 POP JUMP JUMPDEST PUSH1 0x40 DUP3 ADD PUSH1 0x0 DUP3 ADD MLOAD PUSH2 0x231A PUSH1 0x0 DUP6 ADD DUP3 PUSH2 0x1C5D JUMP JUMPDEST POP PUSH1 0x20 DUP3 ADD MLOAD PUSH2 0x232D PUSH1 0x20 DUP6 ADD DUP3 PUSH2 0x1C5D JUMP JUMPDEST POP POP POP POP JUMP JUMPDEST PUSH1 0x0 PUSH1 0x2 SWAP1 POP SWAP2 SWAP1 POP JUMP JUMPDEST PUSH1 0x0 DUP2 SWAP1 POP SWAP3 SWAP2 POP POP JUMP JUMPDEST PUSH1 0x0 DUP2 SWAP1 POP SWAP2 SWAP1 POP JUMP JUMPDEST PUSH1 0x0 PUSH2 0x235F DUP4 DUP4 PUSH2 0x1C5D JUMP JUMPDEST PUSH1 0x20 DUP4 ADD SWAP1 POP SWAP3 SWAP2 POP POP JUMP JUMPDEST PUSH1 0x0 PUSH1 0x20 DUP3 ADD SWAP1 POP SWAP2 SWAP1 POP JUMP JUMPDEST PUSH2 0x2381 DUP2 PUSH2 0x2333 JUMP JUMPDEST PUSH2 0x238B DUP2 DUP5 PUSH2 0x233E JUMP JUMPDEST SWAP3 POP PUSH2 0x2396 DUP3 PUSH2 0x2349 JUMP JUMPDEST DUP1 PUSH1 0x0 JUMPDEST DUP4 DUP2 LT ISZERO PUSH2 0x23C7 JUMPI DUP2 MLOAD PUSH2 0x23AE DUP8 DUP3 PUSH2 0x2353 JUMP JUMPDEST SWAP7 POP PUSH2 0x23B9 DUP4 PUSH2 0x236B JUMP JUMPDEST SWAP3 POP POP PUSH1 0x1 DUP2 ADD SWAP1 POP PUSH2 0x239A JUMP JUMPDEST POP POP POP POP POP POP JUMP JUMPDEST PUSH1 0x80 DUP3 ADD PUSH1 0x0 DUP3 ADD MLOAD PUSH2 0x23E5 PUSH1 0x0 DUP6 ADD DUP3 PUSH2 0x2378 JUMP JUMPDEST POP PUSH1 0x20 DUP3 ADD MLOAD PUSH2 0x23F8 PUSH1 0x40 DUP6 ADD DUP3 PUSH2 0x2378 JUMP JUMPDEST POP POP POP POP JUMP JUMPDEST PUSH2 0x100 DUP3 ADD PUSH1 0x0 DUP3 ADD MLOAD PUSH2 0x2415 PUSH1 0x0 DUP6 ADD DUP3 PUSH2 0x2304 JUMP JUMPDEST POP PUSH1 0x20 DUP3 ADD MLOAD PUSH2 0x2428 PUSH1 0x40 DUP6 ADD DUP3 PUSH2 0x23CF JUMP JUMPDEST POP PUSH1 0x40 DUP3 ADD MLOAD PUSH2 0x243B PUSH1 0xC0 DUP6 ADD DUP3 PUSH2 0x2304 JUMP JUMPDEST POP POP POP POP JUMP JUMPDEST PUSH1 0x0 PUSH1 0x1 SWAP1 POP SWAP2 SWAP1 POP JUMP JUMPDEST PUSH1 0x0 DUP2 SWAP1 POP SWAP3 SWAP2 POP POP JUMP JUMPDEST PUSH1 0x0 DUP2 SWAP1 POP SWAP2 SWAP1 POP JUMP JUMPDEST PUSH1 0x0 PUSH1 0x20 DUP3 ADD SWAP1 POP SWAP2 SWAP1 POP JUMP JUMPDEST PUSH2 0x2477 DUP2 PUSH2 0x2441 JUMP JUMPDEST PUSH2 0x2481 DUP2 DUP5 PUSH2 0x244C JUMP JUMPDEST SWAP3 POP PUSH2 0x248C DUP3 PUSH2 0x2457 JUMP JUMPDEST DUP1 PUSH1 0x0 JUMPDEST DUP4 DUP2 LT ISZERO PUSH2 0x24BD JUMPI DUP2 MLOAD PUSH2 0x24A4 DUP8 DUP3 PUSH2 0x2353 JUMP JUMPDEST SWAP7 POP PUSH2 0x24AF DUP4 PUSH2 0x2461 JUMP JUMPDEST SWAP3 POP POP PUSH1 0x1 DUP2 ADD SWAP1 POP PUSH2 0x2490 JUMP JUMPDEST POP POP POP POP POP POP JUMP JUMPDEST PUSH2 0x120 DUP3 ADD PUSH1 0x0 DUP3 ADD MLOAD PUSH2 0x24DC PUSH1 0x0 DUP6 ADD DUP3 PUSH2 0x23FE JUMP JUMPDEST POP PUSH1 0x20 DUP3 ADD MLOAD PUSH2 0x24F0 PUSH2 0x100 DUP6 ADD DUP3 PUSH2 0x246E JUMP JUMPDEST POP POP POP POP JUMP JUMPDEST PUSH1 0x0 PUSH2 0x120 DUP3 ADD SWAP1 POP PUSH2 0x250C PUSH1 0x0 DUP4 ADD DUP5 PUSH2 0x24C5 JUMP JUMPDEST SWAP3 SWAP2 POP POP JUMP JUMPDEST PUSH32 0x43616E6E6F74207472616E7366657220746F2073656C66000000000000000000 PUSH1 0x0 DUP3 ADD MSTORE POP JUMP JUMPDEST PUSH1 0x0 PUSH2 0x2548 PUSH1 0x17 DUP4 PUSH2 0x1F4B JUMP JUMPDEST SWAP2 POP PUSH2 0x2553 DUP3 PUSH2 0x2512 JUMP JUMPDEST PUSH1 0x20 DUP3 ADD SWAP1 POP SWAP2 SWAP1 POP JUMP JUMPDEST PUSH1 0x0 PUSH1 0x20 DUP3 ADD SWAP1 POP DUP2 DUP2 SUB PUSH1 0x0 DUP4 ADD MSTORE PUSH2 0x2577 DUP2 PUSH2 0x253B JUMP JUMPDEST SWAP1 POP SWAP2 SWAP1 POP JUMP JUMPDEST PUSH2 0x2587 DUP2 PUSH2 0x150D JUMP JUMPDEST DUP3 MSTORE POP POP JUMP JUMPDEST PUSH1 0x40 DUP3 ADD PUSH1 0x0 DUP3 ADD MLOAD PUSH2 0x25A3 PUSH1 0x0 DUP6 ADD DUP3 PUSH2 0x1C5D JUMP JUMPDEST POP PUSH1 0x20 DUP3 ADD MLOAD PUSH2 0x25B6 PUSH1 0x20 DUP6 ADD DUP3 PUSH2 0x257E JUMP JUMPDEST POP POP POP POP JUMP JUMPDEST PUSH1 0x0 PUSH1 0x40 DUP3 ADD SWAP1 POP PUSH2 0x25D1 PUSH1 0x0 DUP4 ADD DUP5 PUSH2 0x258D JUMP JUMPDEST SWAP3 SWAP2 POP POP JUMP INVALID LOG2 PUSH5 0x6970667358 0x22 SLT KECCAK256 DUP8 SWAP7 0xC4 ADDRESS 0xED CHAINID DUP2 MLOAD MULMOD EQ DUP12 DUP3 NOT 0xEB RETURNDATASIZE 0x5D DUP6 PUSH31 0x3CA97865D3F0FC56A907C21DF6564736F6C63430008130033000000000000 "
				},
				"gasEstimates": {
					"creation": {
						"codeDepositCost": "1948200",
						"executionCost": "infinite",
						"totalCost": "infinite"
					},
					"external": {
						"acceptOwnership()": "54585",
						"ccipReceive((bytes32,uint64,bytes,bytes,(address,uint256)[]))": "infinite",
						"denySender(address)": "27047",
						"denylistDestinationChain(uint64)": "27049",
						"denylistSourceChain(uint64)": "27026",
						"getLastReceivedMessageDetails()": "4761",
						"getRouter()": "infinite",
						"lastReceivedResult()": "2516",
						"owner()": "2544",
						"sendMessagePayLINK(uint64,address,(((uint256,uint256),(uint256[2],uint256[2]),(uint256,uint256)),uint256[1]))": "infinite",
						"sendMessagePayNative(uint64,address,(((uint256,uint256),(uint256[2],uint256[2]),(uint256,uint256)),uint256[1]))": "infinite",
						"supportsInterface(bytes4)": "708",
						"transferOwnership(address)": "30786",
						"whitelistDestinationChain(uint64)": "26983",
						"whitelistSender(address)": "27115",
						"whitelistSourceChain(uint64)": "27071",
						"whitelistedDestinationChains(uint64)": "2891",
						"whitelistedSenders(address)": "2935",
						"whitelistedSourceChains(uint64)": "2869",
						"withdraw(address)": "infinite",
						"withdrawToken(address,address)": "infinite"
					},
					"internal": {
						"_buildCCIPMessage(address,struct Messenger.ZKMessage memory,address)": "infinite",
						"_ccipReceive(struct Client.Any2EVMMessage memory)": "infinite"
					}
				},
				"methodIdentifiers": {
					"acceptOwnership()": "79ba5097",
					"ccipReceive((bytes32,uint64,bytes,bytes,(address,uint256)[]))": "85572ffb",
					"denySender(address)": "92a8c1fe",
					"denylistDestinationChain(uint64)": "73645cff",
					"denylistSourceChain(uint64)": "a32ba7ec",
					"getLastReceivedMessageDetails()": "263596a5",
					"getRouter()": "b0f479a1",
					"lastReceivedResult()": "47569edf",
					"owner()": "8da5cb5b",
					"sendMessagePayLINK(uint64,address,(((uint256,uint256),(uint256[2],uint256[2]),(uint256,uint256)),uint256[1]))": "21b76408",
					"sendMessagePayNative(uint64,address,(((uint256,uint256),(uint256[2],uint256[2]),(uint256,uint256)),uint256[1]))": "bf565170",
					"supportsInterface(bytes4)": "01ffc9a7",
					"transferOwnership(address)": "f2fde38b",
					"whitelistDestinationChain(uint64)": "7898d184",
					"whitelistSender(address)": "2f10a6c6",
					"whitelistSourceChain(uint64)": "7736035b",
					"whitelistedDestinationChains(uint64)": "835b347c",
					"whitelistedSenders(address)": "272efc69",
					"whitelistedSourceChains(uint64)": "7dc91a02",
					"withdraw(address)": "51cff8d9",
					"withdrawToken(address,address)": "3aeac4e1"
				}
			},
			"storageLayout": {
				"storage": [
					{
						"astId": 27,
						"contract": "contracts/ProofSenderSepolia.sol:Messenger",
						"label": "s_owner",
						"offset": 0,
						"slot": "0",
						"type": "t_address"
					},
					{
						"astId": 29,
						"contract": "contracts/ProofSenderSepolia.sol:Messenger",
						"label": "s_pendingOwner",
						"offset": 0,
						"slot": "1",
						"type": "t_address"
					},
					{
						"astId": 664,
						"contract": "contracts/ProofSenderSepolia.sol:Messenger",
						"label": "lastReceivedMessageId",
						"offset": 0,
						"slot": "2",
						"type": "t_bytes32"
					},
					{
						"astId": 666,
						"contract": "contracts/ProofSenderSepolia.sol:Messenger",
						"label": "lastReceivedResult",
						"offset": 0,
						"slot": "3",
						"type": "t_bool"
					},
					{
						"astId": 670,
						"contract": "contracts/ProofSenderSepolia.sol:Messenger",
						"label": "whitelistedDestinationChains",
						"offset": 0,
						"slot": "4",
						"type": "t_mapping(t_uint64,t_bool)"
					},
					{
						"astId": 674,
						"contract": "contracts/ProofSenderSepolia.sol:Messenger",
						"label": "whitelistedSourceChains",
						"offset": 0,
						"slot": "5",
						"type": "t_mapping(t_uint64,t_bool)"
					},
					{
						"astId": 678,
						"contract": "contracts/ProofSenderSepolia.sol:Messenger",
						"label": "whitelistedSenders",
						"offset": 0,
						"slot": "6",
						"type": "t_mapping(t_address,t_bool)"
					},
					{
						"astId": 699,
						"contract": "contracts/ProofSenderSepolia.sol:Messenger",
						"label": "linkToken",
						"offset": 0,
						"slot": "7",
						"type": "t_contract(LinkTokenInterface)640"
					}
				],
				"types": {
					"t_address": {
						"encoding": "inplace",
						"label": "address",
						"numberOfBytes": "20"
					},
					"t_bool": {
						"encoding": "inplace",
						"label": "bool",
						"numberOfBytes": "1"
					},
					"t_bytes32": {
						"encoding": "inplace",
						"label": "bytes32",
						"numberOfBytes": "32"
					},
					"t_contract(LinkTokenInterface)640": {
						"encoding": "inplace",
						"label": "contract LinkTokenInterface",
						"numberOfBytes": "20"
					},
					"t_mapping(t_address,t_bool)": {
						"encoding": "mapping",
						"key": "t_address",
						"label": "mapping(address => bool)",
						"numberOfBytes": "32",
						"value": "t_bool"
					},
					"t_mapping(t_uint64,t_bool)": {
						"encoding": "mapping",
						"key": "t_uint64",
						"label": "mapping(uint64 => bool)",
						"numberOfBytes": "32",
						"value": "t_bool"
					},
					"t_uint64": {
						"encoding": "inplace",
						"label": "uint64",
						"numberOfBytes": "8"
					}
				}
			},
			"userdoc": {
				"kind": "user",
				"methods": {
					"acceptOwnership()": {
						"notice": "Allows an ownership transfer to be completed by the recipient."
					},
					"ccipReceive((bytes32,uint64,bytes,bytes,(address,uint256)[]))": {
						"notice": "Called by the Router to deliver a message. If this reverts, any token transfers also revert. The message will move to a FAILED state and become available for manual execution."
					},
					"constructor": {
						"notice": "Constructor initializes the contract with the router address."
					},
					"denySender(address)": {
						"notice": "This function can only be called by the owner."
					},
					"denylistDestinationChain(uint64)": {
						"notice": "This function can only be called by the owner."
					},
					"denylistSourceChain(uint64)": {
						"notice": "This function can only be called by the owner."
					},
					"getRouter()": {
						"notice": "Return the current router"
					},
					"owner()": {
						"notice": "Get the current owner"
					},
					"supportsInterface(bytes4)": {
						"notice": "IERC165 supports an interfaceId"
					},
					"transferOwnership(address)": {
						"notice": "Allows an owner to begin transferring ownership to a new address, pending."
					},
					"whitelistDestinationChain(uint64)": {
						"notice": "This function can only be called by the owner."
					},
					"whitelistSender(address)": {
						"notice": "This function can only be called by the owner."
					},
					"whitelistSourceChain(uint64)": {
						"notice": "This function can only be called by the owner."
					},
					"withdraw(address)": {
						"notice": "Allows the contract owner to withdraw the entire balance of Ether from the contract."
					},
					"withdrawToken(address,address)": {
						"notice": "Allows the owner of the contract to withdraw all tokens of a specific ERC20 token."
					}
				},
				"version": 1
			}
		}
	}
}