{
	"data": {
		"bytecode": {
			"linkReferences": {},
			"object": "6101e06040523480156200001257600080fd5b506040516200696f3803806200696f833981810160405281019062000038919062000b26565b6040518060400160405280600881526020017f43727970746f58520000000000000000000000000000000000000000000000008152506040518060400160405280600381526020017f58524200000000000000000000000000000000000000000000000000000000008152506012826040518060400160405280600181526020017f3100000000000000000000000000000000000000000000000000000000000000815250620000ee826200055760201b60201c565b60808181525050818051906020012060a0818152505062000115816200055760201b60201c565b60c08181525050808051906020012060e081815250506200013b6200056e60201b60201c565b61010081815250504661012081815250505050600083905060008390506000825190506000825190506200018462000178620005cd60201b60201c565b620005e460201b60201c565b80602010826020101715620001bd577fb11b2ad80000000000000000000000000000000000000000000000000000000060005260046000fd5b83620001c99062000ba1565b610140818152505082620001dd9062000ba1565b6101808181525050816101608181525050806101a081815250508460ff166101c08160ff16815250505050505050505060006200021f620005cd60201b60201c565b6003019050620002567330b7f99664f5449629d06549fd0510086141b9156b033b2e3c9fd0803ce80000006200066560201b60201c565b620002877355d5a6809034a21b9677f418b994cad4fc9d7b016acecb8f27f4200f3a0000006200066560201b60201c565b620002b8733765ecc3a3466c94e3926dcc644779102f3bd74b6a52b7d2dcc80cd2e40000006200066560201b60201c565b620002e9734b7fbe5581da3c7783e185d7083a12ec779947706a295be96e640669720000006200066560201b60201c565b6200031a73246f9ece9be9f59b17176c059064433e700798276a52b7d2dcc80cd2e40000006200066560201b60201c565b6200034b735b6e8cb706302af605fbdb36154ece068662d30e6a295be96e640669720000006200066560201b60201c565b6200037c73f12338660ff6c3b5b982e52eb72521499a44c6db6a295be96e640669720000006200066560201b60201c565b6200038d33620007b760201b60201c565b620003d3620003c7620003a56200089660201b60201c565b73ffffffffffffffffffffffffffffffffffffffff166200089e60201b60201c565b620008fa60201b60201c565b60648160000160016101000a81548161ffff021916908361ffff16021790555060968160000160036101000a81548161ffff021916908361ffff16021790555060008160000160056101000a81548161ffff021916908361ffff160217905550600081600001600f6101000a81548161ffff021916908361ffff16021790555061270f8160000160116101000a81548161ffff021916908361ffff16021790555060405180606001604052808373ffffffffffffffffffffffffffffffffffffffff1673ffffffffffffffffffffffffffffffffffffffff1681526020018373ffffffffffffffffffffffffffffffffffffffff1673ffffffffffffffffffffffffffffffffffffffff1681526020018373ffffffffffffffffffffffffffffffffffffffff1673ffffffffffffffffffffffffffffffffffffffff16815250816001019060036200052792919062000a1b565b506200054f8273ffffffffffffffffffffffffffffffffffffffff166200092760201b60201c565b505062000d99565b6000601f600183510310601f830151029050919050565b60007f8b73c3c69bb8fe3d512ecc4cf759cc79239f7b179b0ffacaa9a75d522b39400f60001b60a05160e0514630604051602001620005b295949392919062000c4e565b60405160208183030381529060405280519060200120905090565b6000620005df6200096160201b60201c565b905090565b600081600701905060008060008073ffffffffffffffffffffffffffffffffffffffff7f0f7e96853a48444354344a7326458ae903e52bb86d9bb0f30c69ffffffffffff60301c16935083600052600085016020526040600020915061ffff600f1b925081549050826001600f1b1683198216179050808255505050505050565b600062000677620005cd60201b60201c565b9050818160010160148282829054906101000a90046bffffffffffffffffffffffff16620006a6919062000cf2565b92506101000a8154816bffffffffffffffffffffffff02191690836bffffffffffffffffffffffff16021790555081620006fc8473ffffffffffffffffffffffffffffffffffffffff166200089e60201b60201c565b60000160148282829054906101000a90046bffffffffffffffffffffffff160192506101000a8154816bffffffffffffffffffffffff02191690836bffffffffffffffffffffffff1602179055508273ffffffffffffffffffffffffffffffffffffffff16600073ffffffffffffffffffffffffffffffffffffffff167fddf252ad1be2c89b69c2b068fc378daa952ba7f163c4a11628f55a4df523b3ef84604051620007aa919062000d7c565b60405180910390a3505050565b6000620007c9620005cd60201b60201c565b905060008160010160009054906101000a900473ffffffffffffffffffffffffffffffffffffffff169050828260010160006101000a81548173ffffffffffffffffffffffffffffffffffffffff021916908373ffffffffffffffffffffffffffffffffffffffff1602179055508273ffffffffffffffffffffffffffffffffffffffff168173ffffffffffffffffffffffffffffffffffffffff167f8be0079c531659141344cd1fd0a4f28419497f9722a3daafe3b4186f6b6457e060405160405180910390a3505050565b600033905090565b6000620008b06200096160201b60201c565b60070160000160008373ffffffffffffffffffffffffffffffffffffffff1673ffffffffffffffffffffffffffffffffffffffff1681526020019081526020016000209050919050565b62000913600e6001836200098e60201b9092919060201c565b6200092481620009ff60201b60201c565b50565b6200095e620009528273ffffffffffffffffffffffffffffffffffffffff166200089e60201b60201c565b620009ff60201b60201c565b50565b6000807fcf0f5a17ff929f1db01c46f651a261919d57ba1ff3775e726349a0087188892490508091505090565b80620009bb578160ff166001901b198360000160009054906101000a900461ffff1661ffff1616620009dc565b8160ff166001901b8360000160009054906101000a900461ffff1661ffff16175b8360000160006101000a81548161ffff021916908361ffff160217905550505050565b62000a18600b6001836200098e60201b9092919060201c565b50565b826003810192821562000a8a579160200282015b8281111562000a895782518260006101000a81548173ffffffffffffffffffffffffffffffffffffffff021916908373ffffffffffffffffffffffffffffffffffffffff1602179055509160200191906001019062000a2f565b5b50905062000a99919062000a9d565b5090565b5b8082111562000ab857600081600090555060010162000a9e565b5090565b600080fd5b600073ffffffffffffffffffffffffffffffffffffffff82169050919050565b600062000aee8262000ac1565b9050919050565b62000b008162000ae1565b811462000b0c57600080fd5b50565b60008151905062000b208162000af5565b92915050565b60006020828403121562000b3f5762000b3e62000abc565b5b600062000b4f8482850162000b0f565b91505092915050565b600081519050919050565b6000819050602082019050919050565b6000819050919050565b600062000b8b825162000b73565b80915050919050565b600082821b905092915050565b600062000bae8262000b58565b8262000bba8462000b63565b905062000bc78162000b7d565b9250602082101562000c0a5762000c057fffffffffffffffffffffffffffffffffffffffffffffffffffffffffffffffff8360200360080262000b94565b831692505b5050919050565b62000c1c8162000b73565b82525050565b6000819050919050565b62000c378162000c22565b82525050565b62000c488162000ae1565b82525050565b600060a08201905062000c65600083018862000c11565b62000c74602083018762000c11565b62000c83604083018662000c11565b62000c92606083018562000c2c565b62000ca1608083018462000c3d565b9695505050505050565b60006bffffffffffffffffffffffff82169050919050565b7f4e487b7100000000000000000000000000000000000000000000000000000000600052601160045260246000fd5b600062000cff8262000cab565b915062000d0c8362000cab565b925082820190506bffffffffffffffffffffffff81111562000d335762000d3262000cc3565b5b92915050565b6000819050919050565b600062000d6462000d5e62000d588462000cab565b62000d39565b62000c22565b9050919050565b62000d768162000d43565b82525050565b600060208201905062000d93600083018462000d6b565b92915050565b60805160a05160c05160e05161010051610120516101405161016051610180516101a0516101c051615b4f62000e206000396000610c650152600061196b0152600061194601526000610ac401526000610a9f01526000610ca301526000610cd701526000612b390152600061182b01526000612b18015260006118020152615b4f6000f3fe6080604052600436106102605760003560e01c80636e2ad758116101445780638da5cb5b116100b6578063a9059cbb1161007a578063a9059cbb14610967578063c3342e56146109a4578063d505accf146109e1578063dd62ed3e14610a0a578063ea75581214610a47578063f2fde38b14610a7057610267565b80638da5cb5b1461089257806395d89b41146108bd5780639e78fb4f146108e8578063a457c2d7146108ff578063a7a4c5d31461093c57610267565b80637c03b9b4116101085780637c03b9b41461077a5780637ecebe00146107a35780637f2b6791146107e057806384b0196e1461080b57806385f2aef21461083c5780638ac27f5f1461086757610267565b80636e2ad7581461067f57806370a08231146106bc578063715018a6146106f9578063728f8eea1461071057806373b9aa911461073d57610267565b806339509351116101dd578063573fb1ba116101a1578063573fb1ba146105495780635dab24201461058657806360593100146105b15780636bfdf8a0146105ee5780636cb07772146106055780636d84249b1461064257610267565b8063395093511461043c5780633c477f91146104795780634a97c9c0146104a45780634c2babef146104e15780634cf088d91461051e57610267565b80632d3e474a116102245780632d3e474a1461036557806330adf81f14610390578063313ce567146103bb57806332fe7b26146103e65780633644e5151461041157610267565b806306fdde031461026c578063095ea7b31461029757806317f4b70c146102d457806318160ddd146102fd57806323b872dd1461032857610267565b3661026757005b600080fd5b34801561027857600080fd5b50610281610a99565b60405161028e919061473d565b60405180910390f35b3480156102a357600080fd5b506102be60048036038101906102b99190614807565b610aff565b6040516102cb9190614862565b60405180910390f35b3480156102e057600080fd5b506102fb60048036038101906102f6919061487d565b610b16565b005b34801561030957600080fd5b50610312610b48565b60405161031f91906148b9565b60405180910390f35b34801561033457600080fd5b5061034f600480360381019061034a91906148d4565b610b81565b60405161035c9190614862565b60405180910390f35b34801561037157600080fd5b5061037a610c24565b6040516103879190614936565b60405180910390f35b34801561039c57600080fd5b506103a5610c3c565b6040516103b2919061496a565b60405180910390f35b3480156103c757600080fd5b506103d0610c63565b6040516103dd91906149a1565b60405180910390f35b3480156103f257600080fd5b506103fb610c87565b6040516104089190614a1b565b60405180910390f35b34801561041d57600080fd5b50610426610c9f565b604051610433919061496a565b60405180910390f35b34801561044857600080fd5b50610463600480360381019061045e9190614807565b610cfc565b6040516104709190614862565b60405180910390f35b34801561048557600080fd5b5061048e610d33565b60405161049b9190614936565b60405180910390f35b3480156104b057600080fd5b506104cb60048036038101906104c69190614a70565b610d4b565b6040516104d89190614862565b60405180910390f35b3480156104ed57600080fd5b5061050860048036038101906105039190614aeb565b610d7e565b6040516105159190614862565b60405180910390f35b34801561052a57600080fd5b50610533610d95565b6040516105409190614936565b60405180910390f35b34801561055557600080fd5b50610570600480360381019061056b9190614b18565b610dad565b60405161057d91906148b9565b60405180910390f35b34801561059257600080fd5b5061059b610f04565b6040516105a89190614c3a565b60405180910390f35b3480156105bd57600080fd5b506105d860048036038101906105d3919061487d565b610f1a565b6040516105e59190614862565b60405180910390f35b3480156105fa57600080fd5b50610603611073565b005b34801561061157600080fd5b5061062c60048036038101906106279190614d8a565b611347565b6040516106399190614862565b60405180910390f35b34801561064e57600080fd5b5061066960048036038101906106649190614dd3565b611359565b6040516106769190614862565b60405180910390f35b34801561068b57600080fd5b506106a660048036038101906106a19190614e2c565b61136f565b6040516106b39190614862565b60405180910390f35b3480156106c857600080fd5b506106e360048036038101906106de919061487d565b61138d565b6040516106f091906148b9565b60405180910390f35b34801561070557600080fd5b5061070e6113df565b005b34801561071c57600080fd5b506107256113f3565b60405161073493929190614e68565b60405180910390f35b34801561074957600080fd5b50610764600480360381019061075f919061487d565b611606565b6040516107719190614c3a565b60405180910390f35b34801561078657600080fd5b506107a1600480360381019061079c919061487d565b61175d565b005b3480156107af57600080fd5b506107ca60048036038101906107c5919061487d565b61178f565b6040516107d791906148b9565b60405180910390f35b3480156107ec57600080fd5b506107f56117d9565b6040516108029190614936565b60405180910390f35b34801561081757600080fd5b506108206117f1565b6040516108339796959493929190614f98565b60405180910390f35b34801561084857600080fd5b506108516118dd565b60405161085e9190614936565b60405180910390f35b34801561087357600080fd5b5061087c6118f5565b6040516108899190614936565b60405180910390f35b34801561089e57600080fd5b506108a761190d565b6040516108b49190614936565b60405180910390f35b3480156108c957600080fd5b506108d2611940565b6040516108df919061473d565b60405180910390f35b3480156108f457600080fd5b506108fd6119a6565b005b34801561090b57600080fd5b5061092660048036038101906109219190614807565b611c75565b6040516109339190614862565b60405180910390f35b34801561094857600080fd5b50610951611cf2565b60405161095e9190614936565b60405180910390f35b34801561097357600080fd5b5061098e60048036038101906109899190614807565b611d0a565b60405161099b9190614862565b60405180910390f35b3480156109b057600080fd5b506109cb60048036038101906109c6919061505a565b611d29565b6040516109d89190614862565b60405180910390f35b3480156109ed57600080fd5b50610a086004803603810190610a0391906150df565b611d43565b005b348015610a1657600080fd5b50610a316004803603810190610a2c9190615181565b611fcd565b604051610a3e91906148b9565b60405180910390f35b348015610a5357600080fd5b50610a6e6004803603810190610a6991906151ff565b611fe1565b005b348015610a7c57600080fd5b50610a976004803603810190610a92919061487d565b6122f4565b005b606060007f0000000000000000000000000000000000000000000000000000000000000000905060007f00000000000000000000000000000000000000000000000000000000000000009050604051925060408301604052808352816020840152505090565b6000610b0c33848461237a565b6001905092915050565b610b1e61238c565b610b45610b408273ffffffffffffffffffffffffffffffffffffffff16612413565b612467565b50565b6000610b52612481565b60010160149054906101000a90046bffffffffffffffffffffffff166bffffffffffffffffffffffff16905090565b600080610b8c612490565b9050610b9781612498565b610ba757610ba68582856124e6565b5b610bb285858561257a565b508373ffffffffffffffffffffffffffffffffffffffff168573ffffffffffffffffffffffffffffffffffffffff167fddf252ad1be2c89b69c2b068fc378daa952ba7f163c4a11628f55a4df523b3ef85604051610c1091906148b9565b60405180910390a360019150509392505050565b734b7fbe5581da3c7783e185d7083a12ec7799477081565b7f6e71edae12b1b97f4d1f60370fef10105fa2faae0126114a169c64845d6126c960001b81565b7f000000000000000000000000000000000000000000000000000000000000000081565b7310ed43c718714eb63d5aa57b78b54704e256024e81565b60007f00000000000000000000000000000000000000000000000000000000000000004614610cd557610cd0612af0565b610cf7565b7f00000000000000000000000000000000000000000000000000000000000000005b905090565b600080610d07612490565b9050610d28818585610d198589612b89565b610d23919061525b565b61237a565b600191505092915050565b7330b7f99664f5449629d06549fd0510086141b91581565b6000610d76828473ffffffffffffffffffffffffffffffffffffffff16612c1c90919063ffffffff16565b905092915050565b6000610d8e8262ffffff16612c9e565b9050919050565b73f12338660ff6c3b5b982e52eb72521499a44c6db81565b600080610dd6610dbb612490565b73ffffffffffffffffffffffffffffffffffffffff16612413565b9050600081600001600a9054906101000a900469ffffffffffffffffffff1669ffffffffffffffffffff1603610e9057610e0e612481565b600201600081819054906101000a900469ffffffffffffffffffff1680929190610e379061528f565b91906101000a81548169ffffffffffffffffffff021916908369ffffffffffffffffffff16021790555081600001600a6101000a81548169ffffffffffffffffffff021916908369ffffffffffffffffffff1602179055505b8281600001600a9054906101000a900469ffffffffffffffffffff1669ffffffffffffffffffff163373ffffffffffffffffffffffffffffffffffffffff167f7d842667f749a5ac61180c742c62d621c78c94d961bfa60567a499ee28ffa4ab60405160405180910390a482915050919050565b610f0c614640565b610f1533611606565b905090565b600061106c610f3e8373ffffffffffffffffffffffffffffffffffffffff16612413565b6040518060a00160405290816000820160009054906101000a900461ffff1661ffff1661ffff1681526020016000820160029054906101000a900467ffffffffffffffff1667ffffffffffffffff1667ffffffffffffffff16815260200160008201600a9054906101000a900469ffffffffffffffffffff1669ffffffffffffffffffff1669ffffffffffffffffffff1681526020016000820160149054906101000a90046bffffffffffffffffffffffff166bffffffffffffffffffffffff166bffffffffffffffffffffffff1681526020016001820160009054906101000a900473ffffffffffffffffffffffffffffffffffffffff1673ffffffffffffffffffffffffffffffffffffffff1673ffffffffffffffffffffffffffffffffffffffff1681525050612d1e565b9050919050565b600061107d612481565b600301604051806101800160405290816000820160009054906101000a900460ff161515151581526020016000820160019054906101000a900461ffff1661ffff1661ffff1681526020016000820160039054906101000a900461ffff1661ffff1661ffff1681526020016000820160059054906101000a900461ffff1661ffff1661ffff1681526020016000820160079054906101000a900461ffff1661ffff1661ffff1681526020016000820160099054906101000a900461ffff1661ffff1661ffff16815260200160008201600b9054906101000a900461ffff1661ffff1661ffff16815260200160008201600d9054906101000a900461ffff1661ffff1661ffff16815260200160008201600f9054906101000a900461ffff1661ffff1661ffff1681526020016000820160119054906101000a900461ffff1661ffff1661ffff1681526020016000820160139054906101000a900462ffffff1662ffffff1662ffffff1681526020016001820160038060200260405190810160405280929190826003801561125c576020028201915b8160009054906101000a900473ffffffffffffffffffffffffffffffffffffffff1673ffffffffffffffffffffffffffffffffffffffff1681526020019060010190808311611212575b505050505081525050905060004790506000826101600151600060038110611287576112866152c1565b5b602002015173ffffffffffffffffffffffffffffffffffffffff168284610140015162ffffff16906040516112bb90615321565b600060405180830381858888f193505050503d80600081146112f9576040519150601f19603f3d011682016040523d82523d6000602084013e6112fe565b606091505b5050905080611342576040517f08c379a000000000000000000000000000000000000000000000000000000000815260040161133990615382565b60405180910390fd5b505050565b600061135282612d3b565b9050919050565b60006113688261ffff16612dc8565b9050919050565b60006113868269ffffffffffffffffffff16612e47565b9050919050565b60006113ae8273ffffffffffffffffffffffffffffffffffffffff16612413565b60000160149054906101000a90046bffffffffffffffffffffffff166bffffffffffffffffffffffff169050919050565b6113e761238c565b6113f16000612f6e565b565b600080600080611401612481565b600301604051806101800160405290816000820160009054906101000a900460ff161515151581526020016000820160019054906101000a900461ffff1661ffff1661ffff1681526020016000820160039054906101000a900461ffff1661ffff1661ffff1681526020016000820160059054906101000a900461ffff1661ffff1661ffff1681526020016000820160079054906101000a900461ffff1661ffff1661ffff1681526020016000820160099054906101000a900461ffff1661ffff1661ffff16815260200160008201600b9054906101000a900461ffff1661ffff1661ffff16815260200160008201600d9054906101000a900461ffff1661ffff1661ffff16815260200160008201600f9054906101000a900461ffff1661ffff1661ffff1681526020016000820160119054906101000a900461ffff1661ffff1661ffff1681526020016000820160139054906101000a900462ffffff1662ffffff1662ffffff168152602001600182016003806020026040519081016040528092919082600380156115e0576020028201915b8160009054906101000a900473ffffffffffffffffffffffffffffffffffffffff1673ffffffffffffffffffffffffffffffffffffffff1681526020019060010190808311611596575b505050505081525050905080602001518160400151826060015193509350935050909192565b61160e614640565b61162d8273ffffffffffffffffffffffffffffffffffffffff16612413565b6040518060a00160405290816000820160009054906101000a900461ffff1661ffff1661ffff1681526020016000820160029054906101000a900467ffffffffffffffff1667ffffffffffffffff1667ffffffffffffffff16815260200160008201600a9054906101000a900469ffffffffffffffffffff1669ffffffffffffffffffff1669ffffffffffffffffffff1681526020016000820160149054906101000a90046bffffffffffffffffffffffff166bffffffffffffffffffffffff166bffffffffffffffffffffffff1681526020016001820160009054906101000a900473ffffffffffffffffffffffffffffffffffffffff1673ffffffffffffffffffffffffffffffffffffffff1673ffffffffffffffffffffffffffffffffffffffff16815250509050919050565b61176561238c565b61178c6117878273ffffffffffffffffffffffffffffffffffffffff16612413565b613045565b50565b60006117b08273ffffffffffffffffffffffffffffffffffffffff16612413565b60000160029054906101000a900467ffffffffffffffff1667ffffffffffffffff169050919050565b7355d5a6809034a21b9677f418b994cad4fc9d7b0181565b6000606080600080600060606118267f000000000000000000000000000000000000000000000000000000000000000061305f565b61184f7f000000000000000000000000000000000000000000000000000000000000000061305f565b46306000801b600067ffffffffffffffff8111156118705761186f614c5f565b5b60405190808252806020026020018201604052801561189e5781602001602082028036833780820191505090505b507f0f00000000000000000000000000000000000000000000000000000000000000959493929190965096509650965096509650965090919293949596565b733765ecc3a3466c94e3926dcc644779102f3bd74b81565b73246f9ece9be9f59b17176c059064433e7007982781565b6000611917612481565b60010160009054906101000a900473ffffffffffffffffffffffffffffffffffffffff16905090565b606060007f0000000000000000000000000000000000000000000000000000000000000000905060007f00000000000000000000000000000000000000000000000000000000000000009050604051925060408301604052808352816020840152505090565b6119ae61238c565b60006119b8612481565b90507310ed43c718714eb63d5aa57b78b54704e256024e73ffffffffffffffffffffffffffffffffffffffff1663c45a01556040518163ffffffff1660e01b8152600401602060405180830381865afa158015611a19573d6000803e3d6000fd5b505050506040513d601f19601f82011682018060405250810190611a3d91906153b7565b73ffffffffffffffffffffffffffffffffffffffff1663c9c65396307310ed43c718714eb63d5aa57b78b54704e256024e73ffffffffffffffffffffffffffffffffffffffff1663ad5c46486040518163ffffffff1660e01b8152600401602060405180830381865afa158015611ab8573d6000803e3d6000fd5b505050506040513d601f19601f82011682018060405250810190611adc91906153b7565b6040518363ffffffff1660e01b8152600401611af99291906153e4565b6020604051808303816000875af1158015611b18573d6000803e3d6000fd5b505050506040513d601f19601f82011682018060405250810190611b3c91906153b7565b8160000160006101000a81548173ffffffffffffffffffffffffffffffffffffffff021916908373ffffffffffffffffffffffffffffffffffffffff160217905550611bbf307310ed43c718714eb63d5aa57b78b54704e256024e7fffffffffffffffffffffffffffffffffffffffffffffffffffffffffffffffff6000613086565b611bec30307fffffffffffffffffffffffffffffffffffffffffffffffffffffffffffffffff6000613086565b611c27611c227310ed43c718714eb63d5aa57b78b54704e256024e73ffffffffffffffffffffffffffffffffffffffff16612413565b612467565b611c72611c6d8260000160009054906101000a900473ffffffffffffffffffffffffffffffffffffffff1673ffffffffffffffffffffffffffffffffffffffff16612413565b612467565b50565b600080611c80612490565b90506000611c8e8286612b89565b905083811015611cd9578481856040517ff8e06db2000000000000000000000000000000000000000000000000000000008152600401611cd09392919061540d565b60405180910390fd5b611ce6828686840361237a565b60019250505092915050565b735b6e8cb706302af605fbdb36154ece068662d30e81565b6000611d1e611d17612490565b848461257a565b506001905092915050565b6000611d3c8265ffffffffffff16613185565b9050919050565b83421115611d7d576040517f1a15a3cc00000000000000000000000000000000000000000000000000000000815260040160405180910390fd5b60006001611de57f6e71edae12b1b97f4d1f60370fef10105fa2faae0126114a169c64845d6126c960001b8a8a8a611db48e613280565b8b604051602001611dca96959493929190615444565b6040516020818303038152906040528051906020012061335e565b85858560405160008152602001604052604051611e0594939291906154a5565b6020604051602081039080840390855afa158015611e27573d6000803e3d6000fd5b505050602060405103519050600073ffffffffffffffffffffffffffffffffffffffff168173ffffffffffffffffffffffffffffffffffffffff161480611e9a57508773ffffffffffffffffffffffffffffffffffffffff168173ffffffffffffffffffffffffffffffffffffffff1614155b15611ed1576040517f815e1d6400000000000000000000000000000000000000000000000000000000815260040160405180910390fd5b85611eda612481565b60070160010160008373ffffffffffffffffffffffffffffffffffffffff1673ffffffffffffffffffffffffffffffffffffffff16815260200190815260200160002060008973ffffffffffffffffffffffffffffffffffffffff1673ffffffffffffffffffffffffffffffffffffffff16815260200190815260200160002081905550508573ffffffffffffffffffffffffffffffffffffffff168773ffffffffffffffffffffffffffffffffffffffff167f8c5be1e5ebec7d5bd14f71427d1e84f3dd0314c0f7b2291e5b200ac8c7c3b92587604051611fbc91906148b9565b60405180910390a350505050505050565b6000611fd98383612b89565b905092915050565b6000611feb612481565b600301604051806101800160405290816000820160009054906101000a900460ff161515151581526020016000820160019054906101000a900461ffff1661ffff1661ffff1681526020016000820160039054906101000a900461ffff1661ffff1661ffff1681526020016000820160059054906101000a900461ffff1661ffff1661ffff1681526020016000820160079054906101000a900461ffff1661ffff1661ffff1681526020016000820160099054906101000a900461ffff1661ffff1661ffff16815260200160008201600b9054906101000a900461ffff1661ffff1661ffff16815260200160008201600d9054906101000a900461ffff1661ffff1661ffff16815260200160008201600f9054906101000a900461ffff1661ffff1661ffff1681526020016000820160119054906101000a900461ffff1661ffff1661ffff1681526020016000820160139054906101000a900462ffffff1662ffffff1662ffffff168152602001600182016003806020026040519081016040528092919082600380156121ca576020028201915b8160009054906101000a900473ffffffffffffffffffffffffffffffffffffffff1673ffffffffffffffffffffffffffffffffffffffff1681526020019060010190808311612180575b505050505081525050905060008273ffffffffffffffffffffffffffffffffffffffff166370a08231306040518263ffffffff1660e01b81526004016122109190614936565b602060405180830381865afa15801561222d573d6000803e3d6000fd5b505050506040513d601f19601f8201168201806040525081019061225191906154ff565b90508273ffffffffffffffffffffffffffffffffffffffff1663a9059cbb836101600151600060038110612288576122876152c1565b5b6020020151836040518363ffffffff1660e01b81526004016122ab92919061552c565b6020604051808303816000875af11580156122ca573d6000803e3d6000fd5b505050506040513d601f19601f820116820180604052508101906122ee9190615581565b50505050565b6122fc61238c565b600073ffffffffffffffffffffffffffffffffffffffff168173ffffffffffffffffffffffffffffffffffffffff160361236e5760006040517f1e4fbdf70000000000000000000000000000000000000000000000000000000081526004016123659190614936565b60405180910390fd5b61237781612f6e565b50565b6123878383836001613086565b505050565b612394612490565b73ffffffffffffffffffffffffffffffffffffffff166123b261190d565b73ffffffffffffffffffffffffffffffffffffffff1614612411576123d5612490565b6040517f118cdaa70000000000000000000000000000000000000000000000000000000081526004016124089190614936565b60405180910390fd5b565b600061241d613397565b60070160000160008373ffffffffffffffffffffffffffffffffffffffff1673ffffffffffffffffffffffffffffffffffffffff1681526020019081526020016000209050919050565b61247e600a6001836133c49092919063ffffffff16565b50565b600061248b613397565b905090565b600033905090565b60006124b98273ffffffffffffffffffffffffffffffffffffffff16613433565b806124df57506124de8273ffffffffffffffffffffffffffffffffffffffff1661358c565b5b9050919050565b60006124f28484612b89565b90507fffffffffffffffffffffffffffffffffffffffffffffffffffffffffffffffff81146125745781811015612564578281836040517f192b9e4e00000000000000000000000000000000000000000000000000000000815260040161255b9392919061540d565b60405180910390fd5b61257384848484036000613086565b5b50505050565b60008073ffffffffffffffffffffffffffffffffffffffff168473ffffffffffffffffffffffffffffffffffffffff16036125ed5760006040517f4c14f64c0000000000000000000000000000000000000000000000000000000081526004016125e49190614936565b60405180910390fd5b600073ffffffffffffffffffffffffffffffffffffffff168373ffffffffffffffffffffffffffffffffffffffff160361265f5760006040517f9cfea5830000000000000000000000000000000000000000000000000000000081526004016126569190614936565b60405180910390fd5b6000612669612481565b9050600061268c8673ffffffffffffffffffffffffffffffffffffffff16612413565b905060006126af8673ffffffffffffffffffffffffffffffffffffffff16612413565b9050600073ffffffffffffffffffffffffffffffffffffffff168260010160009054906101000a900473ffffffffffffffffffffffffffffffffffffffff1673ffffffffffffffffffffffffffffffffffffffff160361274d57868260010160006101000a81548173ffffffffffffffffffffffffffffffffffffffff021916908373ffffffffffffffffffffffffffffffffffffffff1602179055505b600073ffffffffffffffffffffffffffffffffffffffff168160010160009054906101000a900473ffffffffffffffffffffffffffffffffffffffff1673ffffffffffffffffffffffffffffffffffffffff16036127e957858160010160006101000a81548173ffffffffffffffffffffffffffffffffffffffff021916908373ffffffffffffffffffffffffffffffffffffffff1602179055505b6000806000612a57856040518060a00160405290816000820160009054906101000a900461ffff1661ffff1661ffff1681526020016000820160029054906101000a900467ffffffffffffffff1667ffffffffffffffff1667ffffffffffffffff16815260200160008201600a9054906101000a900469ffffffffffffffffffff1669ffffffffffffffffffff1669ffffffffffffffffffff1681526020016000820160149054906101000a90046bffffffffffffffffffffffff166bffffffffffffffffffffffff166bffffffffffffffffffffffff1681526020016001820160009054906101000a900473ffffffffffffffffffffffffffffffffffffffff1673ffffffffffffffffffffffffffffffffffffffff1673ffffffffffffffffffffffffffffffffffffffff1681525050856040518060a00160405290816000820160009054906101000a900461ffff1661ffff1661ffff1681526020016000820160029054906101000a900467ffffffffffffffff1667ffffffffffffffff1667ffffffffffffffff16815260200160008201600a9054906101000a900469ffffffffffffffffffff1669ffffffffffffffffffff1669ffffffffffffffffffff1681526020016000820160149054906101000a90046bffffffffffffffffffffffff166bffffffffffffffffffffffff166bffffffffffffffffffffffff1681526020016001820160009054906101000a900473ffffffffffffffffffffffffffffffffffffffff1673ffffffffffffffffffffffffffffffffffffffff1673ffffffffffffffffffffffffffffffffffffffff16815250508a896136e5909392919063ffffffff16565b9250925092506000836bffffffffffffffffffffffff1603612a8d57612a7e85858a6138d1565b60019650505050505050612ae9565b612ab685612ab03073ffffffffffffffffffffffffffffffffffffffff16612413565b856138d1565b6000816bffffffffffffffffffffffff161115612ad757612ad681613ae4565b5b612ae28585846138d1565b5050505050505b9392505050565b60007f8b73c3c69bb8fe3d512ecc4cf759cc79239f7b179b0ffacaa9a75d522b39400f60001b7f00000000000000000000000000000000000000000000000000000000000000007f00000000000000000000000000000000000000000000000000000000000000004630604051602001612b6e9594939291906155ae565b60405160208183030381529060405280519060200120905090565b6000612b93612481565b60070160010160008473ffffffffffffffffffffffffffffffffffffffff1673ffffffffffffffffffffffffffffffffffffffff16815260200190815260200160002060008373ffffffffffffffffffffffffffffffffffffffff1673ffffffffffffffffffffffffffffffffffffffff16815260200190815260200160002054905092915050565b600080612c27613397565b6007019050336000526000810160205260406000205461ffff81166001600f1b81166001600e1b82161715612c9157620100008510612c6557600080fd5b85600052600083016020526040600020805461ffff60001b808860001b16811983161791508183555050505b6001935050505092915050565b600080612ca9613397565b60030190506000612cb8613397565b6007019050336000526000810160205260406000205461ffff81166001600f1b81166001600e1b82161715612d115762e4e1c18610612cf657600080fd5b835461ffff60981b808860981b168119831617915081865550505b6001945050505050919050565b6000612d34600a8361444d90919063ffffffff16565b9050919050565b600080612d46613397565b60030190506000612d55613397565b6007019050336000526000810160205260406000205461ffff81166001600f1b81166001600e1b82161715612dbb57602086015160408701516060880151801582158415171715612da557600080fd5b8260018801558160028801558060038801555050505b6001945050505050919050565b600080612dd3613397565b60030190506000612de2613397565b6007019050336000526000810160205260406000205461ffff81166001600f1b81166001600e1b82161715612e3a576127118610612e1f57600080fd5b835461ffff60881b808860881b168119831617915081865550505b6001945050505050919050565b600080612e52613397565b60030190506000612e61613397565b6007019050336000526000810160205260406000205461ffff81166001600f1b81166001600e1b82161715612f61578560401c61ffff8760301c1661ffff8860201c1661ffff8960101c1661ffff8a168082848688010101016127108114612ec857600080fd5b895460005b6005811015612f555761ffff601082026038011b60008260008114612f115760018114612f195760028114612f215760038114612f295760048114612f3157612f35565b8a9150612f35565b899150612f35565b889150612f35565b879150612f35565b8691505b508181601085026038011b16821985161793505050600181019050612ecd565b50808b55505050505050505b6001945050505050919050565b6000612f78612481565b905060008160010160009054906101000a900473ffffffffffffffffffffffffffffffffffffffff169050828260010160006101000a81548173ffffffffffffffffffffffffffffffffffffffff021916908373ffffffffffffffffffffffffffffffffffffffff1602179055508273ffffffffffffffffffffffffffffffffffffffff168173ffffffffffffffffffffffffffffffffffffffff167f8be0079c531659141344cd1fd0a4f28419497f9722a3daafe3b4186f6b6457e060405160405180910390a3505050565b61305c600b6001836133c49092919063ffffffff16565b50565b60606040519050604081016040526000815281601f82015260008151602083010152919050565b8161308f612481565b60070160010160008673ffffffffffffffffffffffffffffffffffffffff1673ffffffffffffffffffffffffffffffffffffffff16815260200190815260200160002060008573ffffffffffffffffffffffffffffffffffffffff1673ffffffffffffffffffffffffffffffffffffffff16815260200190815260200160002081905550801561317f578273ffffffffffffffffffffffffffffffffffffffff168473ffffffffffffffffffffffffffffffffffffffff167f8c5be1e5ebec7d5bd14f71427d1e84f3dd0314c0f7b2291e5b200ac8c7c3b9258460405161317691906148b9565b60405180910390a35b50505050565b600080613190613397565b6003019050600061319f613397565b6007019050336000526000810160205260406000205461ffff81166001600f1b81166001600e1b82161715613273578560201c61ffff8760101c1661ffff88166103e98110156103e98310156103e98510151717156131fd57600080fd5b865460005b600381101561326a5761ffff601082026008011b60008260008114613236576001811461323e57600281146132465761324a565b87915061324a565b86915061324a565b8591505b508181601085026008011b16821985161793505050600181019050613202565b50808855505050505b6001945050505050919050565b6000806132a28373ffffffffffffffffffffffffffffffffffffffff16612413565b905067ffffffffffffffff80168160000160029054906101000a900467ffffffffffffffff1667ffffffffffffffff16106133045760008160000160026101000a81548167ffffffffffffffff021916908367ffffffffffffffff1602179055505b80600001600281819054906101000a900467ffffffffffffffff168092919060010191906101000a81548167ffffffffffffffff021916908367ffffffffffffffff16021790555067ffffffffffffffff16915050919050565b6000613368610c9f565b8260405160200161337a929190615679565b604051602081830303815290604052805190602001209050919050565b6000807fcf0f5a17ff929f1db01c46f651a261919d57ba1ff3775e726349a0087188892490508091505090565b806133ef578160ff166001901b198360000160009054906101000a900461ffff1661ffff1616613410565b8160ff166001901b8360000160009054906101000a900461ffff1661ffff16175b8360000160006101000a81548161ffff021916908361ffff160217905550505050565b60006135856134578373ffffffffffffffffffffffffffffffffffffffff16612413565b6040518060a00160405290816000820160009054906101000a900461ffff1661ffff1661ffff1681526020016000820160029054906101000a900467ffffffffffffffff1667ffffffffffffffff1667ffffffffffffffff16815260200160008201600a9054906101000a900469ffffffffffffffffffff1669ffffffffffffffffffff1669ffffffffffffffffffff1681526020016000820160149054906101000a90046bffffffffffffffffffffffff166bffffffffffffffffffffffff166bffffffffffffffffffffffff1681526020016001820160009054906101000a900473ffffffffffffffffffffffffffffffffffffffff1673ffffffffffffffffffffffffffffffffffffffff1673ffffffffffffffffffffffffffffffffffffffff168152505061446f565b9050919050565b60006136de6135b08373ffffffffffffffffffffffffffffffffffffffff16612413565b6040518060a00160405290816000820160009054906101000a900461ffff1661ffff1661ffff1681526020016000820160029054906101000a900467ffffffffffffffff1667ffffffffffffffff1667ffffffffffffffff16815260200160008201600a9054906101000a900469ffffffffffffffffffff1669ffffffffffffffffffff1669ffffffffffffffffffff1681526020016000820160149054906101000a90046bffffffffffffffffffffffff166bffffffffffffffffffffffff166bffffffffffffffffffffffff1681526020016001820160009054906101000a900473ffffffffffffffffffffffffffffffffffffffff1673ffffffffffffffffffffffffffffffffffffffff1673ffffffffffffffffffffffffffffffffffffffff168152505061448c565b9050919050565b60008060006136f3866144a9565b806137035750613702856144a9565b5b8061371c575086600201600a9054906101000a900460ff165b156137315760008460009250925092506138c7565b61373a85612d1e565b6137a45761271061ffff1661374e87612d1e565b61376d578760030160000160059054906101000a900461ffff16613784565b8760030160000160019054906101000a900461ffff165b61ffff168561379391906156b0565b61379d919061571c565b92506138b8565b61271061ffff168760030160000160039054906101000a900461ffff1661ffff16856137d091906156b0565b6137da919061571c565b925060008760030160000160119054906101000a900461ffff1661ffff1611613862578660070160000160003073ffffffffffffffffffffffffffffffffffffffff1673ffffffffffffffffffffffffffffffffffffffff16815260200190815260200160002060000160149054906101000a90046bffffffffffffffffffffffff166138b5565b61271061ffff168760030160000160119054906101000a900461ffff1661ffff168860010160149054906101000a90046bffffffffffffffffffffffff166138aa91906156b0565b6138b4919061571c565b5b90505b82846138c4919061574d565b91505b9450945094915050565b8260000160149054906101000a90046bffffffffffffffffffffffff166bffffffffffffffffffffffff16816bffffffffffffffffffffffff161115613992578260010160009054906101000a900473ffffffffffffffffffffffffffffffffffffffff168360000160149054906101000a90046bffffffffffffffffffffffff16826040517fdb42144d000000000000000000000000000000000000000000000000000000008152600401613989939291906157be565b60405180910390fd5b808360000160148282829054906101000a90046bffffffffffffffffffffffff160392506101000a8154816bffffffffffffffffffffffff02191690836bffffffffffffffffffffffff160217905550808260000160148282829054906101000a90046bffffffffffffffffffffffff160192506101000a8154816bffffffffffffffffffffffff02191690836bffffffffffffffffffffffff1602179055508160010160009054906101000a900473ffffffffffffffffffffffffffffffffffffffff1673ffffffffffffffffffffffffffffffffffffffff168360010160009054906101000a900473ffffffffffffffffffffffffffffffffffffffff1673ffffffffffffffffffffffffffffffffffffffff167fddf252ad1be2c89b69c2b068fc378daa952ba7f163c4a11628f55a4df523b3ef83604051613ad791906157f5565b60405180910390a3505050565b6001613aee612481565b600201600a6101000a81548160ff0219169083151502179055506000613b12612481565b600301604051806101800160405290816000820160009054906101000a900460ff161515151581526020016000820160019054906101000a900461ffff1661ffff1661ffff1681526020016000820160039054906101000a900461ffff1661ffff1661ffff1681526020016000820160059054906101000a900461ffff1661ffff1661ffff1681526020016000820160079054906101000a900461ffff1661ffff1661ffff1681526020016000820160099054906101000a900461ffff1661ffff1661ffff16815260200160008201600b9054906101000a900461ffff1661ffff1661ffff16815260200160008201600d9054906101000a900461ffff1661ffff1661ffff16815260200160008201600f9054906101000a900461ffff1661ffff1661ffff1681526020016000820160119054906101000a900461ffff1661ffff1661ffff1681526020016000820160139054906101000a900462ffffff1662ffffff1662ffffff16815260200160018201600380602002604051908101604052809291908260038015613cf1576020028201915b8160009054906101000a900473ffffffffffffffffffffffffffffffffffffffff1673ffffffffffffffffffffffffffffffffffffffff1681526020019060010190808311613ca7575b50505050508152505090506000600267ffffffffffffffff811115613d1957613d18614c5f565b5b604051908082528060200260200182016040528015613d475781602001602082028036833780820191505090505b5090503081600081518110613d5f57613d5e6152c1565b5b602002602001019073ffffffffffffffffffffffffffffffffffffffff16908173ffffffffffffffffffffffffffffffffffffffff16815250507310ed43c718714eb63d5aa57b78b54704e256024e73ffffffffffffffffffffffffffffffffffffffff1663ad5c46486040518163ffffffff1660e01b8152600401602060405180830381865afa158015613df8573d6000803e3d6000fd5b505050506040513d601f19601f82011682018060405250810190613e1c91906153b7565b81600181518110613e3057613e2f6152c1565b5b602002602001019073ffffffffffffffffffffffffffffffffffffffff16908173ffffffffffffffffffffffffffffffffffffffff16815250506000806127109050600084610100015161ffff161115613ef85760028161ffff1685610100015161ffff1687026bffffffffffffffffffffffff1681613eb357613eb26156ed565b5b046bffffffffffffffffffffffff1681613ed057613ecf6156ed565b5b0491508185039450600284610100015161ffff1681613ef257613ef16156ed565b5b04810390505b60004790507310ed43c718714eb63d5aa57b78b54704e256024e73ffffffffffffffffffffffffffffffffffffffff166318cbafe58760008730426040518663ffffffff1660e01b8152600401613f539594939291906158fa565b6000604051808303816000875af1158015613f72573d6000803e3d6000fd5b505050506040513d6000823e3d601f19601f82011682018060405250810190613f9b9190615a1c565b50600080824703905060008060008060008b6080015161ffff161115613feb578761ffff168b6080015161ffff1686026bffffffffffffffffffffffff1681613fe757613fe66156ed565b5b0493505b60008b60a0015161ffff16111561402c578761ffff168b60a0015161ffff1686026bffffffffffffffffffffffff1681614028576140276156ed565b5b0492505b60008b60c0015161ffff16111561406d578761ffff168b60c0015161ffff1686026bffffffffffffffffffffffff1681614069576140686156ed565b5b0491505b60008b60e0015161ffff1611156140ae578761ffff168b60e0015161ffff1686026bffffffffffffffffffffffff16816140aa576140a96156ed565b5b0490505b6000846bffffffffffffffffffffffff1611156140d0576140cf30856144c6565b5b6000816bffffffffffffffffffffffff16111561418c578a6101600151600060038110614100576140ff6152c1565b5b602002015173ffffffffffffffffffffffffffffffffffffffff16816bffffffffffffffffffffffff168c610140015162ffffff169060405161414290615321565b600060405180830381858888f193505050503d8060008114614180576040519150601f19603f3d011682016040523d82523d6000602084013e614185565b606091505b5050809650505b6000826bffffffffffffffffffffffff161115614248578a61016001516001600381106141bc576141bb6152c1565b5b602002015173ffffffffffffffffffffffffffffffffffffffff16826bffffffffffffffffffffffff168c610140015162ffffff16906040516141fe90615321565b600060405180830381858888f193505050503d806000811461423c576040519150601f19603f3d011682016040523d82523d6000602084013e614241565b606091505b5050809650505b6000836bffffffffffffffffffffffff161115614304578a6101600151600260038110614278576142776152c1565b5b602002015173ffffffffffffffffffffffffffffffffffffffff16836bffffffffffffffffffffffff168c610140015162ffffff16906040516142ba90615321565b600060405180830381858888f193505050503d80600081146142f8576040519150601f19603f3d011682016040523d82523d6000602084013e6142fd565b606091505b5050809650505b6000896bffffffffffffffffffffffff16111561441b57600060028961ffff168d610100015161ffff1688026bffffffffffffffffffffffff168161434c5761434b6156ed565b5b046bffffffffffffffffffffffff1681614369576143686156ed565b5b0490507310ed43c718714eb63d5aa57b78b54704e256024e73ffffffffffffffffffffffffffffffffffffffff1663f305d719826bffffffffffffffffffffffff16308d60008030426040518863ffffffff1660e01b81526004016143d396959493929190615a65565b60606040518083038185885af11580156143f1573d6000803e3d6000fd5b50505050506040513d601f19601f820116820180604052508101906144169190615ac6565b505050505b50505050505050505050506000614430612481565b600201600a6101000a81548160ff02191690831515021790555050565b60006001808360ff16856000015161ffff16901c1661ffff1614905092915050565b6000614485600d8361444d90919063ffffffff16565b9050919050565b60006144a2600e8361444d90919063ffffffff16565b9050919050565b60006144bf600b8361444d90919063ffffffff16565b9050919050565b60006144e78373ffffffffffffffffffffffffffffffffffffffff16612413565b90508060000160149054906101000a90046bffffffffffffffffffffffff166bffffffffffffffffffffffff16826bffffffffffffffffffffffff16111561452e57600080fd5b818160000160148282829054906101000a90046bffffffffffffffffffffffff160392506101000a8154816bffffffffffffffffffffffff02191690836bffffffffffffffffffffffff16021790555081614587612481565b60010160148282829054906101000a90046bffffffffffffffffffffffff160392506101000a8154816bffffffffffffffffffffffff02191690836bffffffffffffffffffffffff160217905550600073ffffffffffffffffffffffffffffffffffffffff168373ffffffffffffffffffffffffffffffffffffffff167fddf252ad1be2c89b69c2b068fc378daa952ba7f163c4a11628f55a4df523b3ef8460405161463391906157f5565b60405180910390a3505050565b6040518060a00160405280600061ffff168152602001600067ffffffffffffffff168152602001600069ffffffffffffffffffff16815260200160006bffffffffffffffffffffffff168152602001600073ffffffffffffffffffffffffffffffffffffffff1681525090565b600081519050919050565b600082825260208201905092915050565b60005b838110156146e75780820151818401526020810190506146cc565b60008484015250505050565b6000601f19601f8301169050919050565b600061470f826146ad565b61471981856146b8565b93506147298185602086016146c9565b614732816146f3565b840191505092915050565b600060208201905081810360008301526147578184614704565b905092915050565b6000604051905090565b600080fd5b600080fd5b600073ffffffffffffffffffffffffffffffffffffffff82169050919050565b600061479e82614773565b9050919050565b6147ae81614793565b81146147b957600080fd5b50565b6000813590506147cb816147a5565b92915050565b6000819050919050565b6147e4816147d1565b81146147ef57600080fd5b50565b600081359050614801816147db565b92915050565b6000806040838503121561481e5761481d614769565b5b600061482c858286016147bc565b925050602061483d858286016147f2565b9150509250929050565b60008115159050919050565b61485c81614847565b82525050565b60006020820190506148776000830184614853565b92915050565b60006020828403121561489357614892614769565b5b60006148a1848285016147bc565b91505092915050565b6148b3816147d1565b82525050565b60006020820190506148ce60008301846148aa565b92915050565b6000806000606084860312156148ed576148ec614769565b5b60006148fb868287016147bc565b935050602061490c868287016147bc565b925050604061491d868287016147f2565b9150509250925092565b61493081614793565b82525050565b600060208201905061494b6000830184614927565b92915050565b6000819050919050565b61496481614951565b82525050565b600060208201905061497f600083018461495b565b92915050565b600060ff82169050919050565b61499b81614985565b82525050565b60006020820190506149b66000830184614992565b92915050565b6000819050919050565b60006149e16149dc6149d784614773565b6149bc565b614773565b9050919050565b60006149f3826149c6565b9050919050565b6000614a05826149e8565b9050919050565b614a15816149fa565b82525050565b6000602082019050614a306000830184614a0c565b92915050565b600061ffff82169050919050565b614a4d81614a36565b8114614a5857600080fd5b50565b600081359050614a6a81614a44565b92915050565b60008060408385031215614a8757614a86614769565b5b6000614a95858286016147bc565b9250506020614aa685828601614a5b565b9150509250929050565b600062ffffff82169050919050565b614ac881614ab0565b8114614ad357600080fd5b50565b600081359050614ae581614abf565b92915050565b600060208284031215614b0157614b00614769565b5b6000614b0f84828501614ad6565b91505092915050565b600060208284031215614b2e57614b2d614769565b5b6000614b3c848285016147f2565b91505092915050565b614b4e81614a36565b82525050565b600067ffffffffffffffff82169050919050565b614b7181614b54565b82525050565b600069ffffffffffffffffffff82169050919050565b614b9681614b77565b82525050565b60006bffffffffffffffffffffffff82169050919050565b614bbd81614b9c565b82525050565b614bcc81614793565b82525050565b60a082016000820151614be86000850182614b45565b506020820151614bfb6020850182614b68565b506040820151614c0e6040850182614b8d565b506060820151614c216060850182614bb4565b506080820151614c346080850182614bc3565b50505050565b600060a082019050614c4f6000830184614bd2565b92915050565b600080fd5b600080fd5b7f4e487b7100000000000000000000000000000000000000000000000000000000600052604160045260246000fd5b614c97826146f3565b810181811067ffffffffffffffff82111715614cb657614cb5614c5f565b5b80604052505050565b6000614cc961475f565b9050614cd58282614c8e565b919050565b600067ffffffffffffffff821115614cf557614cf4614c5f565b5b614cfe826146f3565b9050602081019050919050565b82818337600083830152505050565b6000614d2d614d2884614cda565b614cbf565b905082815260208101848484011115614d4957614d48614c5a565b5b614d54848285614d0b565b509392505050565b600082601f830112614d7157614d70614c55565b5b8135614d81848260208601614d1a565b91505092915050565b600060208284031215614da057614d9f614769565b5b600082013567ffffffffffffffff811115614dbe57614dbd61476e565b5b614dca84828501614d5c565b91505092915050565b600060208284031215614de957614de8614769565b5b6000614df784828501614a5b565b91505092915050565b614e0981614b77565b8114614e1457600080fd5b50565b600081359050614e2681614e00565b92915050565b600060208284031215614e4257614e41614769565b5b6000614e5084828501614e17565b91505092915050565b614e6281614a36565b82525050565b6000606082019050614e7d6000830186614e59565b614e8a6020830185614e59565b614e976040830184614e59565b949350505050565b60007fff0000000000000000000000000000000000000000000000000000000000000082169050919050565b614ed481614e9f565b82525050565b600081519050919050565b600082825260208201905092915050565b6000819050602082019050919050565b614f0f816147d1565b82525050565b6000614f218383614f06565b60208301905092915050565b6000602082019050919050565b6000614f4582614eda565b614f4f8185614ee5565b9350614f5a83614ef6565b8060005b83811015614f8b578151614f728882614f15565b9750614f7d83614f2d565b925050600181019050614f5e565b5085935050505092915050565b600060e082019050614fad600083018a614ecb565b8181036020830152614fbf8189614704565b90508181036040830152614fd38188614704565b9050614fe260608301876148aa565b614fef6080830186614927565b614ffc60a083018561495b565b81810360c083015261500e8184614f3a565b905098975050505050505050565b600065ffffffffffff82169050919050565b6150378161501c565b811461504257600080fd5b50565b6000813590506150548161502e565b92915050565b6000602082840312156150705761506f614769565b5b600061507e84828501615045565b91505092915050565b61509081614985565b811461509b57600080fd5b50565b6000813590506150ad81615087565b92915050565b6150bc81614951565b81146150c757600080fd5b50565b6000813590506150d9816150b3565b92915050565b600080600080600080600060e0888a0312156150fe576150fd614769565b5b600061510c8a828b016147bc565b975050602061511d8a828b016147bc565b965050604061512e8a828b016147f2565b955050606061513f8a828b016147f2565b94505060806151508a828b0161509e565b93505060a06151618a828b016150ca565b92505060c06151728a828b016150ca565b91505092959891949750929550565b6000806040838503121561519857615197614769565b5b60006151a6858286016147bc565b92505060206151b7858286016147bc565b9150509250929050565b60006151cc82614793565b9050919050565b6151dc816151c1565b81146151e757600080fd5b50565b6000813590506151f9816151d3565b92915050565b60006020828403121561521557615214614769565b5b6000615223848285016151ea565b91505092915050565b7f4e487b7100000000000000000000000000000000000000000000000000000000600052601160045260246000fd5b6000615266826147d1565b9150615271836147d1565b92508282019050808211156152895761528861522c565b5b92915050565b600061529a82614b77565b915069ffffffffffffffffffff82036152b6576152b561522c565b5b600182019050919050565b7f4e487b7100000000000000000000000000000000000000000000000000000000600052603260045260246000fd5b600081905092915050565b50565b600061530b6000836152f0565b9150615316826152fb565b600082019050919050565b600061532c826152fe565b9150819050919050565b7f5478206661696c65640000000000000000000000000000000000000000000000600082015250565b600061536c6009836146b8565b915061537782615336565b602082019050919050565b6000602082019050818103600083015261539b8161535f565b9050919050565b6000815190506153b1816147a5565b92915050565b6000602082840312156153cd576153cc614769565b5b60006153db848285016153a2565b91505092915050565b60006040820190506153f96000830185614927565b6154066020830184614927565b9392505050565b60006060820190506154226000830186614927565b61542f60208301856148aa565b61543c60408301846148aa565b949350505050565b600060c082019050615459600083018961495b565b6154666020830188614927565b6154736040830187614927565b61548060608301866148aa565b61548d60808301856148aa565b61549a60a08301846148aa565b979650505050505050565b60006080820190506154ba600083018761495b565b6154c76020830186614992565b6154d4604083018561495b565b6154e1606083018461495b565b95945050505050565b6000815190506154f9816147db565b92915050565b60006020828403121561551557615514614769565b5b6000615523848285016154ea565b91505092915050565b60006040820190506155416000830185614927565b61554e60208301846148aa565b9392505050565b61555e81614847565b811461556957600080fd5b50565b60008151905061557b81615555565b92915050565b60006020828403121561559757615596614769565b5b60006155a58482850161556c565b91505092915050565b600060a0820190506155c3600083018861495b565b6155d0602083018761495b565b6155dd604083018661495b565b6155ea60608301856148aa565b6155f76080830184614927565b9695505050505050565b600081905092915050565b7f1901000000000000000000000000000000000000000000000000000000000000600082015250565b6000615642600283615601565b915061564d8261560c565b600282019050919050565b6000819050919050565b61567361566e82614951565b615658565b82525050565b600061568482615635565b91506156908285615662565b6020820191506156a08284615662565b6020820191508190509392505050565b60006156bb82614b9c565b91506156c683614b9c565b92508282026156d481614b9c565b91508082146156e6576156e561522c565b5b5092915050565b7f4e487b7100000000000000000000000000000000000000000000000000000000600052601260045260246000fd5b600061572782614b9c565b915061573283614b9c565b925082615742576157416156ed565b5b828204905092915050565b600061575882614b9c565b915061576383614b9c565b925082820390506bffffffffffffffffffffffff8111156157875761578661522c565b5b92915050565b60006157a86157a361579e84614b9c565b6149bc565b6147d1565b9050919050565b6157b88161578d565b82525050565b60006060820190506157d36000830186614927565b6157e060208301856157af565b6157ed60408301846157af565b949350505050565b600060208201905061580a60008301846157af565b92915050565b6000819050919050565b600061583561583061582b84615810565b6149bc565b6147d1565b9050919050565b6158458161581a565b82525050565b600081519050919050565b600082825260208201905092915050565b6000819050602082019050919050565b60006158838383614bc3565b60208301905092915050565b6000602082019050919050565b60006158a78261584b565b6158b18185615856565b93506158bc83615867565b8060005b838110156158ed5781516158d48882615877565b97506158df8361588f565b9250506001810190506158c0565b5085935050505092915050565b600060a08201905061590f60008301886157af565b61591c602083018761583c565b818103604083015261592e818661589c565b905061593d6060830185614927565b61594a60808301846148aa565b9695505050505050565b600067ffffffffffffffff82111561596f5761596e614c5f565b5b602082029050602081019050919050565b600080fd5b600061599861599384615954565b614cbf565b905080838252602082019050602084028301858111156159bb576159ba615980565b5b835b818110156159e457806159d088826154ea565b8452602084019350506020810190506159bd565b5050509392505050565b600082601f830112615a0357615a02614c55565b5b8151615a13848260208601615985565b91505092915050565b600060208284031215615a3257615a31614769565b5b600082015167ffffffffffffffff811115615a5057615a4f61476e565b5b615a5c848285016159ee565b91505092915050565b600060c082019050615a7a6000830189614927565b615a8760208301886157af565b615a94604083018761583c565b615aa1606083018661583c565b615aae6080830185614927565b615abb60a08301846148aa565b979650505050505050565b600080600060608486031215615adf57615ade614769565b5b6000615aed868287016154ea565b9350506020615afe868287016154ea565b9250506040615b0f868287016154ea565b915050925092509256fea2646970667358221220ef48dc05f045d9a51c90ed54c94997541a5ed7eda8be34bcbef9ff3898cf590964736f6c63430008130033",
			"opcodes": "PUSH2 0x1E0 PUSH1 0x40 MSTORE CALLVALUE DUP1 ISZERO PUSH3 0x12 JUMPI PUSH1 0x0 DUP1 REVERT JUMPDEST POP PUSH1 0x40 MLOAD PUSH3 0x696F CODESIZE SUB DUP1 PUSH3 0x696F DUP4 CODECOPY DUP2 DUP2 ADD PUSH1 0x40 MSTORE DUP2 ADD SWAP1 PUSH3 0x38 SWAP2 SWAP1 PUSH3 0xB26 JUMP JUMPDEST PUSH1 0x40 MLOAD DUP1 PUSH1 0x40 ADD PUSH1 0x40 MSTORE DUP1 PUSH1 0x8 DUP2 MSTORE PUSH1 0x20 ADD PUSH32 0x43727970746F5852000000000000000000000000000000000000000000000000 DUP2 MSTORE POP PUSH1 0x40 MLOAD DUP1 PUSH1 0x40 ADD PUSH1 0x40 MSTORE DUP1 PUSH1 0x3 DUP2 MSTORE PUSH1 0x20 ADD PUSH32 0x5852420000000000000000000000000000000000000000000000000000000000 DUP2 MSTORE POP PUSH1 0x12 DUP3 PUSH1 0x40 MLOAD DUP1 PUSH1 0x40 ADD PUSH1 0x40 MSTORE DUP1 PUSH1 0x1 DUP2 MSTORE PUSH1 0x20 ADD PUSH32 0x3100000000000000000000000000000000000000000000000000000000000000 DUP2 MSTORE POP PUSH3 0xEE DUP3 PUSH3 0x557 PUSH1 0x20 SHL PUSH1 0x20 SHR JUMP JUMPDEST PUSH1 0x80 DUP2 DUP2 MSTORE POP POP DUP2 DUP1 MLOAD SWAP1 PUSH1 0x20 ADD KECCAK256 PUSH1 0xA0 DUP2 DUP2 MSTORE POP POP PUSH3 0x115 DUP2 PUSH3 0x557 PUSH1 0x20 SHL PUSH1 0x20 SHR JUMP JUMPDEST PUSH1 0xC0 DUP2 DUP2 MSTORE POP POP DUP1 DUP1 MLOAD SWAP1 PUSH1 0x20 ADD KECCAK256 PUSH1 0xE0 DUP2 DUP2 MSTORE POP POP PUSH3 0x13B PUSH3 0x56E PUSH1 0x20 SHL PUSH1 0x20 SHR JUMP JUMPDEST PUSH2 0x100 DUP2 DUP2 MSTORE POP POP CHAINID PUSH2 0x120 DUP2 DUP2 MSTORE POP POP POP POP PUSH1 0x0 DUP4 SWAP1 POP PUSH1 0x0 DUP4 SWAP1 POP PUSH1 0x0 DUP3 MLOAD SWAP1 POP PUSH1 0x0 DUP3 MLOAD SWAP1 POP PUSH3 0x184 PUSH3 0x178 PUSH3 0x5CD PUSH1 0x20 SHL PUSH1 0x20 SHR JUMP JUMPDEST PUSH3 0x5E4 PUSH1 0x20 SHL PUSH1 0x20 SHR JUMP JUMPDEST DUP1 PUSH1 0x20 LT DUP3 PUSH1 0x20 LT OR ISZERO PUSH3 0x1BD JUMPI PUSH32 0xB11B2AD800000000000000000000000000000000000000000000000000000000 PUSH1 0x0 MSTORE PUSH1 0x4 PUSH1 0x0 REVERT JUMPDEST DUP4 PUSH3 0x1C9 SWAP1 PUSH3 0xBA1 JUMP JUMPDEST PUSH2 0x140 DUP2 DUP2 MSTORE POP POP DUP3 PUSH3 0x1DD SWAP1 PUSH3 0xBA1 JUMP JUMPDEST PUSH2 0x180 DUP2 DUP2 MSTORE POP POP DUP2 PUSH2 0x160 DUP2 DUP2 MSTORE POP POP DUP1 PUSH2 0x1A0 DUP2 DUP2 MSTORE POP POP DUP5 PUSH1 0xFF AND PUSH2 0x1C0 DUP2 PUSH1 0xFF AND DUP2 MSTORE POP POP POP POP POP POP POP POP POP PUSH1 0x0 PUSH3 0x21F PUSH3 0x5CD PUSH1 0x20 SHL PUSH1 0x20 SHR JUMP JUMPDEST PUSH1 0x3 ADD SWAP1 POP PUSH3 0x256 PUSH20 0x30B7F99664F5449629D06549FD0510086141B915 PUSH12 0x33B2E3C9FD0803CE8000000 PUSH3 0x665 PUSH1 0x20 SHL PUSH1 0x20 SHR JUMP JUMPDEST PUSH3 0x287 PUSH20 0x55D5A6809034A21B9677F418B994CAD4FC9D7B01 PUSH11 0xCECB8F27F4200F3A000000 PUSH3 0x665 PUSH1 0x20 SHL PUSH1 0x20 SHR JUMP JUMPDEST PUSH3 0x2B8 PUSH20 0x3765ECC3A3466C94E3926DCC644779102F3BD74B PUSH11 0x52B7D2DCC80CD2E4000000 PUSH3 0x665 PUSH1 0x20 SHL PUSH1 0x20 SHR JUMP JUMPDEST PUSH3 0x2E9 PUSH20 0x4B7FBE5581DA3C7783E185D7083A12EC77994770 PUSH11 0x295BE96E64066972000000 PUSH3 0x665 PUSH1 0x20 SHL PUSH1 0x20 SHR JUMP JUMPDEST PUSH3 0x31A PUSH20 0x246F9ECE9BE9F59B17176C059064433E70079827 PUSH11 0x52B7D2DCC80CD2E4000000 PUSH3 0x665 PUSH1 0x20 SHL PUSH1 0x20 SHR JUMP JUMPDEST PUSH3 0x34B PUSH20 0x5B6E8CB706302AF605FBDB36154ECE068662D30E PUSH11 0x295BE96E64066972000000 PUSH3 0x665 PUSH1 0x20 SHL PUSH1 0x20 SHR JUMP JUMPDEST PUSH3 0x37C PUSH20 0xF12338660FF6C3B5B982E52EB72521499A44C6DB PUSH11 0x295BE96E64066972000000 PUSH3 0x665 PUSH1 0x20 SHL PUSH1 0x20 SHR JUMP JUMPDEST PUSH3 0x38D CALLER PUSH3 0x7B7 PUSH1 0x20 SHL PUSH1 0x20 SHR JUMP JUMPDEST PUSH3 0x3D3 PUSH3 0x3C7 PUSH3 0x3A5 PUSH3 0x896 PUSH1 0x20 SHL PUSH1 0x20 SHR JUMP JUMPDEST PUSH20 0xFFFFFFFFFFFFFFFFFFFFFFFFFFFFFFFFFFFFFFFF AND PUSH3 0x89E PUSH1 0x20 SHL PUSH1 0x20 SHR JUMP JUMPDEST PUSH3 0x8FA PUSH1 0x20 SHL PUSH1 0x20 SHR JUMP JUMPDEST PUSH1 0x64 DUP2 PUSH1 0x0 ADD PUSH1 0x1 PUSH2 0x100 EXP DUP2 SLOAD DUP2 PUSH2 0xFFFF MUL NOT AND SWAP1 DUP4 PUSH2 0xFFFF AND MUL OR SWAP1 SSTORE POP PUSH1 0x96 DUP2 PUSH1 0x0 ADD PUSH1 0x3 PUSH2 0x100 EXP DUP2 SLOAD DUP2 PUSH2 0xFFFF MUL NOT AND SWAP1 DUP4 PUSH2 0xFFFF AND MUL OR SWAP1 SSTORE POP PUSH1 0x0 DUP2 PUSH1 0x0 ADD PUSH1 0x5 PUSH2 0x100 EXP DUP2 SLOAD DUP2 PUSH2 0xFFFF MUL NOT AND SWAP1 DUP4 PUSH2 0xFFFF AND MUL OR SWAP1 SSTORE POP PUSH1 0x0 DUP2 PUSH1 0x0 ADD PUSH1 0xF PUSH2 0x100 EXP DUP2 SLOAD DUP2 PUSH2 0xFFFF MUL NOT AND SWAP1 DUP4 PUSH2 0xFFFF AND MUL OR SWAP1 SSTORE POP PUSH2 0x270F DUP2 PUSH1 0x0 ADD PUSH1 0x11 PUSH2 0x100 EXP DUP2 SLOAD DUP2 PUSH2 0xFFFF MUL NOT AND SWAP1 DUP4 PUSH2 0xFFFF AND MUL OR SWAP1 SSTORE POP PUSH1 0x40 MLOAD DUP1 PUSH1 0x60 ADD PUSH1 0x40 MSTORE DUP1 DUP4 PUSH20 0xFFFFFFFFFFFFFFFFFFFFFFFFFFFFFFFFFFFFFFFF AND PUSH20 0xFFFFFFFFFFFFFFFFFFFFFFFFFFFFFFFFFFFFFFFF AND DUP2 MSTORE PUSH1 0x20 ADD DUP4 PUSH20 0xFFFFFFFFFFFFFFFFFFFFFFFFFFFFFFFFFFFFFFFF AND PUSH20 0xFFFFFFFFFFFFFFFFFFFFFFFFFFFFFFFFFFFFFFFF AND DUP2 MSTORE PUSH1 0x20 ADD DUP4 PUSH20 0xFFFFFFFFFFFFFFFFFFFFFFFFFFFFFFFFFFFFFFFF AND PUSH20 0xFFFFFFFFFFFFFFFFFFFFFFFFFFFFFFFFFFFFFFFF AND DUP2 MSTORE POP DUP2 PUSH1 0x1 ADD SWAP1 PUSH1 0x3 PUSH3 0x527 SWAP3 SWAP2 SWAP1 PUSH3 0xA1B JUMP JUMPDEST POP PUSH3 0x54F DUP3 PUSH20 0xFFFFFFFFFFFFFFFFFFFFFFFFFFFFFFFFFFFFFFFF AND PUSH3 0x927 PUSH1 0x20 SHL PUSH1 0x20 SHR JUMP JUMPDEST POP POP PUSH3 0xD99 JUMP JUMPDEST PUSH1 0x0 PUSH1 0x1F PUSH1 0x1 DUP4 MLOAD SUB LT PUSH1 0x1F DUP4 ADD MLOAD MUL SWAP1 POP SWAP2 SWAP1 POP JUMP JUMPDEST PUSH1 0x0 PUSH32 0x8B73C3C69BB8FE3D512ECC4CF759CC79239F7B179B0FFACAA9A75D522B39400F PUSH1 0x0 SHL PUSH1 0xA0 MLOAD PUSH1 0xE0 MLOAD CHAINID ADDRESS PUSH1 0x40 MLOAD PUSH1 0x20 ADD PUSH3 0x5B2 SWAP6 SWAP5 SWAP4 SWAP3 SWAP2 SWAP1 PUSH3 0xC4E JUMP JUMPDEST PUSH1 0x40 MLOAD PUSH1 0x20 DUP2 DUP4 SUB SUB DUP2 MSTORE SWAP1 PUSH1 0x40 MSTORE DUP1 MLOAD SWAP1 PUSH1 0x20 ADD KECCAK256 SWAP1 POP SWAP1 JUMP JUMPDEST PUSH1 0x0 PUSH3 0x5DF PUSH3 0x961 PUSH1 0x20 SHL PUSH1 0x20 SHR JUMP JUMPDEST SWAP1 POP SWAP1 JUMP JUMPDEST PUSH1 0x0 DUP2 PUSH1 0x7 ADD SWAP1 POP PUSH1 0x0 DUP1 PUSH1 0x0 DUP1 PUSH20 0xFFFFFFFFFFFFFFFFFFFFFFFFFFFFFFFFFFFFFFFF PUSH32 0xF7E96853A48444354344A7326458AE903E52BB86D9BB0F30C69FFFFFFFFFFFF PUSH1 0x30 SHR AND SWAP4 POP DUP4 PUSH1 0x0 MSTORE PUSH1 0x0 DUP6 ADD PUSH1 0x20 MSTORE PUSH1 0x40 PUSH1 0x0 KECCAK256 SWAP2 POP PUSH2 0xFFFF PUSH1 0xF SHL SWAP3 POP DUP2 SLOAD SWAP1 POP DUP3 PUSH1 0x1 PUSH1 0xF SHL AND DUP4 NOT DUP3 AND OR SWAP1 POP DUP1 DUP3 SSTORE POP POP POP POP POP POP JUMP JUMPDEST PUSH1 0x0 PUSH3 0x677 PUSH3 0x5CD PUSH1 0x20 SHL PUSH1 0x20 SHR JUMP JUMPDEST SWAP1 POP DUP2 DUP2 PUSH1 0x1 ADD PUSH1 0x14 DUP3 DUP3 DUP3 SWAP1 SLOAD SWAP1 PUSH2 0x100 EXP SWAP1 DIV PUSH12 0xFFFFFFFFFFFFFFFFFFFFFFFF AND PUSH3 0x6A6 SWAP2 SWAP1 PUSH3 0xCF2 JUMP JUMPDEST SWAP3 POP PUSH2 0x100 EXP DUP2 SLOAD DUP2 PUSH12 0xFFFFFFFFFFFFFFFFFFFFFFFF MUL NOT AND SWAP1 DUP4 PUSH12 0xFFFFFFFFFFFFFFFFFFFFFFFF AND MUL OR SWAP1 SSTORE POP DUP2 PUSH3 0x6FC DUP5 PUSH20 0xFFFFFFFFFFFFFFFFFFFFFFFFFFFFFFFFFFFFFFFF AND PUSH3 0x89E PUSH1 0x20 SHL PUSH1 0x20 SHR JUMP JUMPDEST PUSH1 0x0 ADD PUSH1 0x14 DUP3 DUP3 DUP3 SWAP1 SLOAD SWAP1 PUSH2 0x100 EXP SWAP1 DIV PUSH12 0xFFFFFFFFFFFFFFFFFFFFFFFF AND ADD SWAP3 POP PUSH2 0x100 EXP DUP2 SLOAD DUP2 PUSH12 0xFFFFFFFFFFFFFFFFFFFFFFFF MUL NOT AND SWAP1 DUP4 PUSH12 0xFFFFFFFFFFFFFFFFFFFFFFFF AND MUL OR SWAP1 SSTORE POP DUP3 PUSH20 0xFFFFFFFFFFFFFFFFFFFFFFFFFFFFFFFFFFFFFFFF AND PUSH1 0x0 PUSH20 0xFFFFFFFFFFFFFFFFFFFFFFFFFFFFFFFFFFFFFFFF AND PUSH32 0xDDF252AD1BE2C89B69C2B068FC378DAA952BA7F163C4A11628F55A4DF523B3EF DUP5 PUSH1 0x40 MLOAD PUSH3 0x7AA SWAP2 SWAP1 PUSH3 0xD7C JUMP JUMPDEST PUSH1 0x40 MLOAD DUP1 SWAP2 SUB SWAP1 LOG3 POP POP POP JUMP JUMPDEST PUSH1 0x0 PUSH3 0x7C9 PUSH3 0x5CD PUSH1 0x20 SHL PUSH1 0x20 SHR JUMP JUMPDEST SWAP1 POP PUSH1 0x0 DUP2 PUSH1 0x1 ADD PUSH1 0x0 SWAP1 SLOAD SWAP1 PUSH2 0x100 EXP SWAP1 DIV PUSH20 0xFFFFFFFFFFFFFFFFFFFFFFFFFFFFFFFFFFFFFFFF AND SWAP1 POP DUP3 DUP3 PUSH1 0x1 ADD PUSH1 0x0 PUSH2 0x100 EXP DUP2 SLOAD DUP2 PUSH20 0xFFFFFFFFFFFFFFFFFFFFFFFFFFFFFFFFFFFFFFFF MUL NOT AND SWAP1 DUP4 PUSH20 0xFFFFFFFFFFFFFFFFFFFFFFFFFFFFFFFFFFFFFFFF AND MUL OR SWAP1 SSTORE POP DUP3 PUSH20 0xFFFFFFFFFFFFFFFFFFFFFFFFFFFFFFFFFFFFFFFF AND DUP2 PUSH20 0xFFFFFFFFFFFFFFFFFFFFFFFFFFFFFFFFFFFFFFFF AND PUSH32 0x8BE0079C531659141344CD1FD0A4F28419497F9722A3DAAFE3B4186F6B6457E0 PUSH1 0x40 MLOAD PUSH1 0x40 MLOAD DUP1 SWAP2 SUB SWAP1 LOG3 POP POP POP JUMP JUMPDEST PUSH1 0x0 CALLER SWAP1 POP SWAP1 JUMP JUMPDEST PUSH1 0x0 PUSH3 0x8B0 PUSH3 0x961 PUSH1 0x20 SHL PUSH1 0x20 SHR JUMP JUMPDEST PUSH1 0x7 ADD PUSH1 0x0 ADD PUSH1 0x0 DUP4 PUSH20 0xFFFFFFFFFFFFFFFFFFFFFFFFFFFFFFFFFFFFFFFF AND PUSH20 0xFFFFFFFFFFFFFFFFFFFFFFFFFFFFFFFFFFFFFFFF AND DUP2 MSTORE PUSH1 0x20 ADD SWAP1 DUP2 MSTORE PUSH1 0x20 ADD PUSH1 0x0 KECCAK256 SWAP1 POP SWAP2 SWAP1 POP JUMP JUMPDEST PUSH3 0x913 PUSH1 0xE PUSH1 0x1 DUP4 PUSH3 0x98E PUSH1 0x20 SHL SWAP1 SWAP3 SWAP2 SWAP1 PUSH1 0x20 SHR JUMP JUMPDEST PUSH3 0x924 DUP2 PUSH3 0x9FF PUSH1 0x20 SHL PUSH1 0x20 SHR JUMP JUMPDEST POP JUMP JUMPDEST PUSH3 0x95E PUSH3 0x952 DUP3 PUSH20 0xFFFFFFFFFFFFFFFFFFFFFFFFFFFFFFFFFFFFFFFF AND PUSH3 0x89E PUSH1 0x20 SHL PUSH1 0x20 SHR JUMP JUMPDEST PUSH3 0x9FF PUSH1 0x20 SHL PUSH1 0x20 SHR JUMP JUMPDEST POP JUMP JUMPDEST PUSH1 0x0 DUP1 PUSH32 0xCF0F5A17FF929F1DB01C46F651A261919D57BA1FF3775E726349A00871888924 SWAP1 POP DUP1 SWAP2 POP POP SWAP1 JUMP JUMPDEST DUP1 PUSH3 0x9BB JUMPI DUP2 PUSH1 0xFF AND PUSH1 0x1 SWAP1 SHL NOT DUP4 PUSH1 0x0 ADD PUSH1 0x0 SWAP1 SLOAD SWAP1 PUSH2 0x100 EXP SWAP1 DIV PUSH2 0xFFFF AND PUSH2 0xFFFF AND AND PUSH3 0x9DC JUMP JUMPDEST DUP2 PUSH1 0xFF AND PUSH1 0x1 SWAP1 SHL DUP4 PUSH1 0x0 ADD PUSH1 0x0 SWAP1 SLOAD SWAP1 PUSH2 0x100 EXP SWAP1 DIV PUSH2 0xFFFF AND PUSH2 0xFFFF AND OR JUMPDEST DUP4 PUSH1 0x0 ADD PUSH1 0x0 PUSH2 0x100 EXP DUP2 SLOAD DUP2 PUSH2 0xFFFF MUL NOT AND SWAP1 DUP4 PUSH2 0xFFFF AND MUL OR SWAP1 SSTORE POP POP POP POP JUMP JUMPDEST PUSH3 0xA18 PUSH1 0xB PUSH1 0x1 DUP4 PUSH3 0x98E PUSH1 0x20 SHL SWAP1 SWAP3 SWAP2 SWAP1 PUSH1 0x20 SHR JUMP JUMPDEST POP JUMP JUMPDEST DUP3 PUSH1 0x3 DUP2 ADD SWAP3 DUP3 ISZERO PUSH3 0xA8A JUMPI SWAP2 PUSH1 0x20 MUL DUP3 ADD JUMPDEST DUP3 DUP2 GT ISZERO PUSH3 0xA89 JUMPI DUP3 MLOAD DUP3 PUSH1 0x0 PUSH2 0x100 EXP DUP2 SLOAD DUP2 PUSH20 0xFFFFFFFFFFFFFFFFFFFFFFFFFFFFFFFFFFFFFFFF MUL NOT AND SWAP1 DUP4 PUSH20 0xFFFFFFFFFFFFFFFFFFFFFFFFFFFFFFFFFFFFFFFF AND MUL OR SWAP1 SSTORE POP SWAP2 PUSH1 0x20 ADD SWAP2 SWAP1 PUSH1 0x1 ADD SWAP1 PUSH3 0xA2F JUMP JUMPDEST JUMPDEST POP SWAP1 POP PUSH3 0xA99 SWAP2 SWAP1 PUSH3 0xA9D JUMP JUMPDEST POP SWAP1 JUMP JUMPDEST JUMPDEST DUP1 DUP3 GT ISZERO PUSH3 0xAB8 JUMPI PUSH1 0x0 DUP2 PUSH1 0x0 SWAP1 SSTORE POP PUSH1 0x1 ADD PUSH3 0xA9E JUMP JUMPDEST POP SWAP1 JUMP JUMPDEST PUSH1 0x0 DUP1 REVERT JUMPDEST PUSH1 0x0 PUSH20 0xFFFFFFFFFFFFFFFFFFFFFFFFFFFFFFFFFFFFFFFF DUP3 AND SWAP1 POP SWAP2 SWAP1 POP JUMP JUMPDEST PUSH1 0x0 PUSH3 0xAEE DUP3 PUSH3 0xAC1 JUMP JUMPDEST SWAP1 POP SWAP2 SWAP1 POP JUMP JUMPDEST PUSH3 0xB00 DUP2 PUSH3 0xAE1 JUMP JUMPDEST DUP2 EQ PUSH3 0xB0C JUMPI PUSH1 0x0 DUP1 REVERT JUMPDEST POP JUMP JUMPDEST PUSH1 0x0 DUP2 MLOAD SWAP1 POP PUSH3 0xB20 DUP2 PUSH3 0xAF5 JUMP JUMPDEST SWAP3 SWAP2 POP POP JUMP JUMPDEST PUSH1 0x0 PUSH1 0x20 DUP3 DUP5 SUB SLT ISZERO PUSH3 0xB3F JUMPI PUSH3 0xB3E PUSH3 0xABC JUMP JUMPDEST JUMPDEST PUSH1 0x0 PUSH3 0xB4F DUP5 DUP3 DUP6 ADD PUSH3 0xB0F JUMP JUMPDEST SWAP2 POP POP SWAP3 SWAP2 POP POP JUMP JUMPDEST PUSH1 0x0 DUP2 MLOAD SWAP1 POP SWAP2 SWAP1 POP JUMP JUMPDEST PUSH1 0x0 DUP2 SWAP1 POP PUSH1 0x20 DUP3 ADD SWAP1 POP SWAP2 SWAP1 POP JUMP JUMPDEST PUSH1 0x0 DUP2 SWAP1 POP SWAP2 SWAP1 POP JUMP JUMPDEST PUSH1 0x0 PUSH3 0xB8B DUP3 MLOAD PUSH3 0xB73 JUMP JUMPDEST DUP1 SWAP2 POP POP SWAP2 SWAP1 POP JUMP JUMPDEST PUSH1 0x0 DUP3 DUP3 SHL SWAP1 POP SWAP3 SWAP2 POP POP JUMP JUMPDEST PUSH1 0x0 PUSH3 0xBAE DUP3 PUSH3 0xB58 JUMP JUMPDEST DUP3 PUSH3 0xBBA DUP5 PUSH3 0xB63 JUMP JUMPDEST SWAP1 POP PUSH3 0xBC7 DUP2 PUSH3 0xB7D JUMP JUMPDEST SWAP3 POP PUSH1 0x20 DUP3 LT ISZERO PUSH3 0xC0A JUMPI PUSH3 0xC05 PUSH32 0xFFFFFFFFFFFFFFFFFFFFFFFFFFFFFFFFFFFFFFFFFFFFFFFFFFFFFFFFFFFFFFFF DUP4 PUSH1 0x20 SUB PUSH1 0x8 MUL PUSH3 0xB94 JUMP JUMPDEST DUP4 AND SWAP3 POP JUMPDEST POP POP SWAP2 SWAP1 POP JUMP JUMPDEST PUSH3 0xC1C DUP2 PUSH3 0xB73 JUMP JUMPDEST DUP3 MSTORE POP POP JUMP JUMPDEST PUSH1 0x0 DUP2 SWAP1 POP SWAP2 SWAP1 POP JUMP JUMPDEST PUSH3 0xC37 DUP2 PUSH3 0xC22 JUMP JUMPDEST DUP3 MSTORE POP POP JUMP JUMPDEST PUSH3 0xC48 DUP2 PUSH3 0xAE1 JUMP JUMPDEST DUP3 MSTORE POP POP JUMP JUMPDEST PUSH1 0x0 PUSH1 0xA0 DUP3 ADD SWAP1 POP PUSH3 0xC65 PUSH1 0x0 DUP4 ADD DUP9 PUSH3 0xC11 JUMP JUMPDEST PUSH3 0xC74 PUSH1 0x20 DUP4 ADD DUP8 PUSH3 0xC11 JUMP JUMPDEST PUSH3 0xC83 PUSH1 0x40 DUP4 ADD DUP7 PUSH3 0xC11 JUMP JUMPDEST PUSH3 0xC92 PUSH1 0x60 DUP4 ADD DUP6 PUSH3 0xC2C JUMP JUMPDEST PUSH3 0xCA1 PUSH1 0x80 DUP4 ADD DUP5 PUSH3 0xC3D JUMP JUMPDEST SWAP7 SWAP6 POP POP POP POP POP POP JUMP JUMPDEST PUSH1 0x0 PUSH12 0xFFFFFFFFFFFFFFFFFFFFFFFF DUP3 AND SWAP1 POP SWAP2 SWAP1 POP JUMP JUMPDEST PUSH32 0x4E487B7100000000000000000000000000000000000000000000000000000000 PUSH1 0x0 MSTORE PUSH1 0x11 PUSH1 0x4 MSTORE PUSH1 0x24 PUSH1 0x0 REVERT JUMPDEST PUSH1 0x0 PUSH3 0xCFF DUP3 PUSH3 0xCAB JUMP JUMPDEST SWAP2 POP PUSH3 0xD0C DUP4 PUSH3 0xCAB JUMP JUMPDEST SWAP3 POP DUP3 DUP3 ADD SWAP1 POP PUSH12 0xFFFFFFFFFFFFFFFFFFFFFFFF DUP2 GT ISZERO PUSH3 0xD33 JUMPI PUSH3 0xD32 PUSH3 0xCC3 JUMP JUMPDEST JUMPDEST SWAP3 SWAP2 POP POP JUMP JUMPDEST PUSH1 0x0 DUP2 SWAP1 POP SWAP2 SWAP1 POP JUMP JUMPDEST PUSH1 0x0 PUSH3 0xD64 PUSH3 0xD5E PUSH3 0xD58 DUP5 PUSH3 0xCAB JUMP JUMPDEST PUSH3 0xD39 JUMP JUMPDEST PUSH3 0xC22 JUMP JUMPDEST SWAP1 POP SWAP2 SWAP1 POP JUMP JUMPDEST PUSH3 0xD76 DUP2 PUSH3 0xD43 JUMP JUMPDEST DUP3 MSTORE POP POP JUMP JUMPDEST PUSH1 0x0 PUSH1 0x20 DUP3 ADD SWAP1 POP PUSH3 0xD93 PUSH1 0x0 DUP4 ADD DUP5 PUSH3 0xD6B JUMP JUMPDEST SWAP3 SWAP2 POP POP JUMP JUMPDEST PUSH1 0x80 MLOAD PUSH1 0xA0 MLOAD PUSH1 0xC0 MLOAD PUSH1 0xE0 MLOAD PUSH2 0x100 MLOAD PUSH2 0x120 MLOAD PUSH2 0x140 MLOAD PUSH2 0x160 MLOAD PUSH2 0x180 MLOAD PUSH2 0x1A0 MLOAD PUSH2 0x1C0 MLOAD PUSH2 0x5B4F PUSH3 0xE20 PUSH1 0x0 CODECOPY PUSH1 0x0 PUSH2 0xC65 ADD MSTORE PUSH1 0x0 PUSH2 0x196B ADD MSTORE PUSH1 0x0 PUSH2 0x1946 ADD MSTORE PUSH1 0x0 PUSH2 0xAC4 ADD MSTORE PUSH1 0x0 PUSH2 0xA9F ADD MSTORE PUSH1 0x0 PUSH2 0xCA3 ADD MSTORE PUSH1 0x0 PUSH2 0xCD7 ADD MSTORE PUSH1 0x0 PUSH2 0x2B39 ADD MSTORE PUSH1 0x0 PUSH2 0x182B ADD MSTORE PUSH1 0x0 PUSH2 0x2B18 ADD MSTORE PUSH1 0x0 PUSH2 0x1802 ADD MSTORE PUSH2 0x5B4F PUSH1 0x0 RETURN INVALID PUSH1 0x80 PUSH1 0x40 MSTORE PUSH1 0x4 CALLDATASIZE LT PUSH2 0x260 JUMPI PUSH1 0x0 CALLDATALOAD PUSH1 0xE0 SHR DUP1 PUSH4 0x6E2AD758 GT PUSH2 0x144 JUMPI DUP1 PUSH4 0x8DA5CB5B GT PUSH2 0xB6 JUMPI DUP1 PUSH4 0xA9059CBB GT PUSH2 0x7A JUMPI DUP1 PUSH4 0xA9059CBB EQ PUSH2 0x967 JUMPI DUP1 PUSH4 0xC3342E56 EQ PUSH2 0x9A4 JUMPI DUP1 PUSH4 0xD505ACCF EQ PUSH2 0x9E1 JUMPI DUP1 PUSH4 0xDD62ED3E EQ PUSH2 0xA0A JUMPI DUP1 PUSH4 0xEA755812 EQ PUSH2 0xA47 JUMPI DUP1 PUSH4 0xF2FDE38B EQ PUSH2 0xA70 JUMPI PUSH2 0x267 JUMP JUMPDEST DUP1 PUSH4 0x8DA5CB5B EQ PUSH2 0x892 JUMPI DUP1 PUSH4 0x95D89B41 EQ PUSH2 0x8BD JUMPI DUP1 PUSH4 0x9E78FB4F EQ PUSH2 0x8E8 JUMPI DUP1 PUSH4 0xA457C2D7 EQ PUSH2 0x8FF JUMPI DUP1 PUSH4 0xA7A4C5D3 EQ PUSH2 0x93C JUMPI PUSH2 0x267 JUMP JUMPDEST DUP1 PUSH4 0x7C03B9B4 GT PUSH2 0x108 JUMPI DUP1 PUSH4 0x7C03B9B4 EQ PUSH2 0x77A JUMPI DUP1 PUSH4 0x7ECEBE00 EQ PUSH2 0x7A3 JUMPI DUP1 PUSH4 0x7F2B6791 EQ PUSH2 0x7E0 JUMPI DUP1 PUSH4 0x84B0196E EQ PUSH2 0x80B JUMPI DUP1 PUSH4 0x85F2AEF2 EQ PUSH2 0x83C JUMPI DUP1 PUSH4 0x8AC27F5F EQ PUSH2 0x867 JUMPI PUSH2 0x267 JUMP JUMPDEST DUP1 PUSH4 0x6E2AD758 EQ PUSH2 0x67F JUMPI DUP1 PUSH4 0x70A08231 EQ PUSH2 0x6BC JUMPI DUP1 PUSH4 0x715018A6 EQ PUSH2 0x6F9 JUMPI DUP1 PUSH4 0x728F8EEA EQ PUSH2 0x710 JUMPI DUP1 PUSH4 0x73B9AA91 EQ PUSH2 0x73D JUMPI PUSH2 0x267 JUMP JUMPDEST DUP1 PUSH4 0x39509351 GT PUSH2 0x1DD JUMPI DUP1 PUSH4 0x573FB1BA GT PUSH2 0x1A1 JUMPI DUP1 PUSH4 0x573FB1BA EQ PUSH2 0x549 JUMPI DUP1 PUSH4 0x5DAB2420 EQ PUSH2 0x586 JUMPI DUP1 PUSH4 0x60593100 EQ PUSH2 0x5B1 JUMPI DUP1 PUSH4 0x6BFDF8A0 EQ PUSH2 0x5EE JUMPI DUP1 PUSH4 0x6CB07772 EQ PUSH2 0x605 JUMPI DUP1 PUSH4 0x6D84249B EQ PUSH2 0x642 JUMPI PUSH2 0x267 JUMP JUMPDEST DUP1 PUSH4 0x39509351 EQ PUSH2 0x43C JUMPI DUP1 PUSH4 0x3C477F91 EQ PUSH2 0x479 JUMPI DUP1 PUSH4 0x4A97C9C0 EQ PUSH2 0x4A4 JUMPI DUP1 PUSH4 0x4C2BABEF EQ PUSH2 0x4E1 JUMPI DUP1 PUSH4 0x4CF088D9 EQ PUSH2 0x51E JUMPI PUSH2 0x267 JUMP JUMPDEST DUP1 PUSH4 0x2D3E474A GT PUSH2 0x224 JUMPI DUP1 PUSH4 0x2D3E474A EQ PUSH2 0x365 JUMPI DUP1 PUSH4 0x30ADF81F EQ PUSH2 0x390 JUMPI DUP1 PUSH4 0x313CE567 EQ PUSH2 0x3BB JUMPI DUP1 PUSH4 0x32FE7B26 EQ PUSH2 0x3E6 JUMPI DUP1 PUSH4 0x3644E515 EQ PUSH2 0x411 JUMPI PUSH2 0x267 JUMP JUMPDEST DUP1 PUSH4 0x6FDDE03 EQ PUSH2 0x26C JUMPI DUP1 PUSH4 0x95EA7B3 EQ PUSH2 0x297 JUMPI DUP1 PUSH4 0x17F4B70C EQ PUSH2 0x2D4 JUMPI DUP1 PUSH4 0x18160DDD EQ PUSH2 0x2FD JUMPI DUP1 PUSH4 0x23B872DD EQ PUSH2 0x328 JUMPI PUSH2 0x267 JUMP JUMPDEST CALLDATASIZE PUSH2 0x267 JUMPI STOP JUMPDEST PUSH1 0x0 DUP1 REVERT JUMPDEST CALLVALUE DUP1 ISZERO PUSH2 0x278 JUMPI PUSH1 0x0 DUP1 REVERT JUMPDEST POP PUSH2 0x281 PUSH2 0xA99 JUMP JUMPDEST PUSH1 0x40 MLOAD PUSH2 0x28E SWAP2 SWAP1 PUSH2 0x473D JUMP JUMPDEST PUSH1 0x40 MLOAD DUP1 SWAP2 SUB SWAP1 RETURN JUMPDEST CALLVALUE DUP1 ISZERO PUSH2 0x2A3 JUMPI PUSH1 0x0 DUP1 REVERT JUMPDEST POP PUSH2 0x2BE PUSH1 0x4 DUP1 CALLDATASIZE SUB DUP2 ADD SWAP1 PUSH2 0x2B9 SWAP2 SWAP1 PUSH2 0x4807 JUMP JUMPDEST PUSH2 0xAFF JUMP JUMPDEST PUSH1 0x40 MLOAD PUSH2 0x2CB SWAP2 SWAP1 PUSH2 0x4862 JUMP JUMPDEST PUSH1 0x40 MLOAD DUP1 SWAP2 SUB SWAP1 RETURN JUMPDEST CALLVALUE DUP1 ISZERO PUSH2 0x2E0 JUMPI PUSH1 0x0 DUP1 REVERT JUMPDEST POP PUSH2 0x2FB PUSH1 0x4 DUP1 CALLDATASIZE SUB DUP2 ADD SWAP1 PUSH2 0x2F6 SWAP2 SWAP1 PUSH2 0x487D JUMP JUMPDEST PUSH2 0xB16 JUMP JUMPDEST STOP JUMPDEST CALLVALUE DUP1 ISZERO PUSH2 0x309 JUMPI PUSH1 0x0 DUP1 REVERT JUMPDEST POP PUSH2 0x312 PUSH2 0xB48 JUMP JUMPDEST PUSH1 0x40 MLOAD PUSH2 0x31F SWAP2 SWAP1 PUSH2 0x48B9 JUMP JUMPDEST PUSH1 0x40 MLOAD DUP1 SWAP2 SUB SWAP1 RETURN JUMPDEST CALLVALUE DUP1 ISZERO PUSH2 0x334 JUMPI PUSH1 0x0 DUP1 REVERT JUMPDEST POP PUSH2 0x34F PUSH1 0x4 DUP1 CALLDATASIZE SUB DUP2 ADD SWAP1 PUSH2 0x34A SWAP2 SWAP1 PUSH2 0x48D4 JUMP JUMPDEST PUSH2 0xB81 JUMP JUMPDEST PUSH1 0x40 MLOAD PUSH2 0x35C SWAP2 SWAP1 PUSH2 0x4862 JUMP JUMPDEST PUSH1 0x40 MLOAD DUP1 SWAP2 SUB SWAP1 RETURN JUMPDEST CALLVALUE DUP1 ISZERO PUSH2 0x371 JUMPI PUSH1 0x0 DUP1 REVERT JUMPDEST POP PUSH2 0x37A PUSH2 0xC24 JUMP JUMPDEST PUSH1 0x40 MLOAD PUSH2 0x387 SWAP2 SWAP1 PUSH2 0x4936 JUMP JUMPDEST PUSH1 0x40 MLOAD DUP1 SWAP2 SUB SWAP1 RETURN JUMPDEST CALLVALUE DUP1 ISZERO PUSH2 0x39C JUMPI PUSH1 0x0 DUP1 REVERT JUMPDEST POP PUSH2 0x3A5 PUSH2 0xC3C JUMP JUMPDEST PUSH1 0x40 MLOAD PUSH2 0x3B2 SWAP2 SWAP1 PUSH2 0x496A JUMP JUMPDEST PUSH1 0x40 MLOAD DUP1 SWAP2 SUB SWAP1 RETURN JUMPDEST CALLVALUE DUP1 ISZERO PUSH2 0x3C7 JUMPI PUSH1 0x0 DUP1 REVERT JUMPDEST POP PUSH2 0x3D0 PUSH2 0xC63 JUMP JUMPDEST PUSH1 0x40 MLOAD PUSH2 0x3DD SWAP2 SWAP1 PUSH2 0x49A1 JUMP JUMPDEST PUSH1 0x40 MLOAD DUP1 SWAP2 SUB SWAP1 RETURN JUMPDEST CALLVALUE DUP1 ISZERO PUSH2 0x3F2 JUMPI PUSH1 0x0 DUP1 REVERT JUMPDEST POP PUSH2 0x3FB PUSH2 0xC87 JUMP JUMPDEST PUSH1 0x40 MLOAD PUSH2 0x408 SWAP2 SWAP1 PUSH2 0x4A1B JUMP JUMPDEST PUSH1 0x40 MLOAD DUP1 SWAP2 SUB SWAP1 RETURN JUMPDEST CALLVALUE DUP1 ISZERO PUSH2 0x41D JUMPI PUSH1 0x0 DUP1 REVERT JUMPDEST POP PUSH2 0x426 PUSH2 0xC9F JUMP JUMPDEST PUSH1 0x40 MLOAD PUSH2 0x433 SWAP2 SWAP1 PUSH2 0x496A JUMP JUMPDEST PUSH1 0x40 MLOAD DUP1 SWAP2 SUB SWAP1 RETURN JUMPDEST CALLVALUE DUP1 ISZERO PUSH2 0x448 JUMPI PUSH1 0x0 DUP1 REVERT JUMPDEST POP PUSH2 0x463 PUSH1 0x4 DUP1 CALLDATASIZE SUB DUP2 ADD SWAP1 PUSH2 0x45E SWAP2 SWAP1 PUSH2 0x4807 JUMP JUMPDEST PUSH2 0xCFC JUMP JUMPDEST PUSH1 0x40 MLOAD PUSH2 0x470 SWAP2 SWAP1 PUSH2 0x4862 JUMP JUMPDEST PUSH1 0x40 MLOAD DUP1 SWAP2 SUB SWAP1 RETURN JUMPDEST CALLVALUE DUP1 ISZERO PUSH2 0x485 JUMPI PUSH1 0x0 DUP1 REVERT JUMPDEST POP PUSH2 0x48E PUSH2 0xD33 JUMP JUMPDEST PUSH1 0x40 MLOAD PUSH2 0x49B SWAP2 SWAP1 PUSH2 0x4936 JUMP JUMPDEST PUSH1 0x40 MLOAD DUP1 SWAP2 SUB SWAP1 RETURN JUMPDEST CALLVALUE DUP1 ISZERO PUSH2 0x4B0 JUMPI PUSH1 0x0 DUP1 REVERT JUMPDEST POP PUSH2 0x4CB PUSH1 0x4 DUP1 CALLDATASIZE SUB DUP2 ADD SWAP1 PUSH2 0x4C6 SWAP2 SWAP1 PUSH2 0x4A70 JUMP JUMPDEST PUSH2 0xD4B JUMP JUMPDEST PUSH1 0x40 MLOAD PUSH2 0x4D8 SWAP2 SWAP1 PUSH2 0x4862 JUMP JUMPDEST PUSH1 0x40 MLOAD DUP1 SWAP2 SUB SWAP1 RETURN JUMPDEST CALLVALUE DUP1 ISZERO PUSH2 0x4ED JUMPI PUSH1 0x0 DUP1 REVERT JUMPDEST POP PUSH2 0x508 PUSH1 0x4 DUP1 CALLDATASIZE SUB DUP2 ADD SWAP1 PUSH2 0x503 SWAP2 SWAP1 PUSH2 0x4AEB JUMP JUMPDEST PUSH2 0xD7E JUMP JUMPDEST PUSH1 0x40 MLOAD PUSH2 0x515 SWAP2 SWAP1 PUSH2 0x4862 JUMP JUMPDEST PUSH1 0x40 MLOAD DUP1 SWAP2 SUB SWAP1 RETURN JUMPDEST CALLVALUE DUP1 ISZERO PUSH2 0x52A JUMPI PUSH1 0x0 DUP1 REVERT JUMPDEST POP PUSH2 0x533 PUSH2 0xD95 JUMP JUMPDEST PUSH1 0x40 MLOAD PUSH2 0x540 SWAP2 SWAP1 PUSH2 0x4936 JUMP JUMPDEST PUSH1 0x40 MLOAD DUP1 SWAP2 SUB SWAP1 RETURN JUMPDEST CALLVALUE DUP1 ISZERO PUSH2 0x555 JUMPI PUSH1 0x0 DUP1 REVERT JUMPDEST POP PUSH2 0x570 PUSH1 0x4 DUP1 CALLDATASIZE SUB DUP2 ADD SWAP1 PUSH2 0x56B SWAP2 SWAP1 PUSH2 0x4B18 JUMP JUMPDEST PUSH2 0xDAD JUMP JUMPDEST PUSH1 0x40 MLOAD PUSH2 0x57D SWAP2 SWAP1 PUSH2 0x48B9 JUMP JUMPDEST PUSH1 0x40 MLOAD DUP1 SWAP2 SUB SWAP1 RETURN JUMPDEST CALLVALUE DUP1 ISZERO PUSH2 0x592 JUMPI PUSH1 0x0 DUP1 REVERT JUMPDEST POP PUSH2 0x59B PUSH2 0xF04 JUMP JUMPDEST PUSH1 0x40 MLOAD PUSH2 0x5A8 SWAP2 SWAP1 PUSH2 0x4C3A JUMP JUMPDEST PUSH1 0x40 MLOAD DUP1 SWAP2 SUB SWAP1 RETURN JUMPDEST CALLVALUE DUP1 ISZERO PUSH2 0x5BD JUMPI PUSH1 0x0 DUP1 REVERT JUMPDEST POP PUSH2 0x5D8 PUSH1 0x4 DUP1 CALLDATASIZE SUB DUP2 ADD SWAP1 PUSH2 0x5D3 SWAP2 SWAP1 PUSH2 0x487D JUMP JUMPDEST PUSH2 0xF1A JUMP JUMPDEST PUSH1 0x40 MLOAD PUSH2 0x5E5 SWAP2 SWAP1 PUSH2 0x4862 JUMP JUMPDEST PUSH1 0x40 MLOAD DUP1 SWAP2 SUB SWAP1 RETURN JUMPDEST CALLVALUE DUP1 ISZERO PUSH2 0x5FA JUMPI PUSH1 0x0 DUP1 REVERT JUMPDEST POP PUSH2 0x603 PUSH2 0x1073 JUMP JUMPDEST STOP JUMPDEST CALLVALUE DUP1 ISZERO PUSH2 0x611 JUMPI PUSH1 0x0 DUP1 REVERT JUMPDEST POP PUSH2 0x62C PUSH1 0x4 DUP1 CALLDATASIZE SUB DUP2 ADD SWAP1 PUSH2 0x627 SWAP2 SWAP1 PUSH2 0x4D8A JUMP JUMPDEST PUSH2 0x1347 JUMP JUMPDEST PUSH1 0x40 MLOAD PUSH2 0x639 SWAP2 SWAP1 PUSH2 0x4862 JUMP JUMPDEST PUSH1 0x40 MLOAD DUP1 SWAP2 SUB SWAP1 RETURN JUMPDEST CALLVALUE DUP1 ISZERO PUSH2 0x64E JUMPI PUSH1 0x0 DUP1 REVERT JUMPDEST POP PUSH2 0x669 PUSH1 0x4 DUP1 CALLDATASIZE SUB DUP2 ADD SWAP1 PUSH2 0x664 SWAP2 SWAP1 PUSH2 0x4DD3 JUMP JUMPDEST PUSH2 0x1359 JUMP JUMPDEST PUSH1 0x40 MLOAD PUSH2 0x676 SWAP2 SWAP1 PUSH2 0x4862 JUMP JUMPDEST PUSH1 0x40 MLOAD DUP1 SWAP2 SUB SWAP1 RETURN JUMPDEST CALLVALUE DUP1 ISZERO PUSH2 0x68B JUMPI PUSH1 0x0 DUP1 REVERT JUMPDEST POP PUSH2 0x6A6 PUSH1 0x4 DUP1 CALLDATASIZE SUB DUP2 ADD SWAP1 PUSH2 0x6A1 SWAP2 SWAP1 PUSH2 0x4E2C JUMP JUMPDEST PUSH2 0x136F JUMP JUMPDEST PUSH1 0x40 MLOAD PUSH2 0x6B3 SWAP2 SWAP1 PUSH2 0x4862 JUMP JUMPDEST PUSH1 0x40 MLOAD DUP1 SWAP2 SUB SWAP1 RETURN JUMPDEST CALLVALUE DUP1 ISZERO PUSH2 0x6C8 JUMPI PUSH1 0x0 DUP1 REVERT JUMPDEST POP PUSH2 0x6E3 PUSH1 0x4 DUP1 CALLDATASIZE SUB DUP2 ADD SWAP1 PUSH2 0x6DE SWAP2 SWAP1 PUSH2 0x487D JUMP JUMPDEST PUSH2 0x138D JUMP JUMPDEST PUSH1 0x40 MLOAD PUSH2 0x6F0 SWAP2 SWAP1 PUSH2 0x48B9 JUMP JUMPDEST PUSH1 0x40 MLOAD DUP1 SWAP2 SUB SWAP1 RETURN JUMPDEST CALLVALUE DUP1 ISZERO PUSH2 0x705 JUMPI PUSH1 0x0 DUP1 REVERT JUMPDEST POP PUSH2 0x70E PUSH2 0x13DF JUMP JUMPDEST STOP JUMPDEST CALLVALUE DUP1 ISZERO PUSH2 0x71C JUMPI PUSH1 0x0 DUP1 REVERT JUMPDEST POP PUSH2 0x725 PUSH2 0x13F3 JUMP JUMPDEST PUSH1 0x40 MLOAD PUSH2 0x734 SWAP4 SWAP3 SWAP2 SWAP1 PUSH2 0x4E68 JUMP JUMPDEST PUSH1 0x40 MLOAD DUP1 SWAP2 SUB SWAP1 RETURN JUMPDEST CALLVALUE DUP1 ISZERO PUSH2 0x749 JUMPI PUSH1 0x0 DUP1 REVERT JUMPDEST POP PUSH2 0x764 PUSH1 0x4 DUP1 CALLDATASIZE SUB DUP2 ADD SWAP1 PUSH2 0x75F SWAP2 SWAP1 PUSH2 0x487D JUMP JUMPDEST PUSH2 0x1606 JUMP JUMPDEST PUSH1 0x40 MLOAD PUSH2 0x771 SWAP2 SWAP1 PUSH2 0x4C3A JUMP JUMPDEST PUSH1 0x40 MLOAD DUP1 SWAP2 SUB SWAP1 RETURN JUMPDEST CALLVALUE DUP1 ISZERO PUSH2 0x786 JUMPI PUSH1 0x0 DUP1 REVERT JUMPDEST POP PUSH2 0x7A1 PUSH1 0x4 DUP1 CALLDATASIZE SUB DUP2 ADD SWAP1 PUSH2 0x79C SWAP2 SWAP1 PUSH2 0x487D JUMP JUMPDEST PUSH2 0x175D JUMP JUMPDEST STOP JUMPDEST CALLVALUE DUP1 ISZERO PUSH2 0x7AF JUMPI PUSH1 0x0 DUP1 REVERT JUMPDEST POP PUSH2 0x7CA PUSH1 0x4 DUP1 CALLDATASIZE SUB DUP2 ADD SWAP1 PUSH2 0x7C5 SWAP2 SWAP1 PUSH2 0x487D JUMP JUMPDEST PUSH2 0x178F JUMP JUMPDEST PUSH1 0x40 MLOAD PUSH2 0x7D7 SWAP2 SWAP1 PUSH2 0x48B9 JUMP JUMPDEST PUSH1 0x40 MLOAD DUP1 SWAP2 SUB SWAP1 RETURN JUMPDEST CALLVALUE DUP1 ISZERO PUSH2 0x7EC JUMPI PUSH1 0x0 DUP1 REVERT JUMPDEST POP PUSH2 0x7F5 PUSH2 0x17D9 JUMP JUMPDEST PUSH1 0x40 MLOAD PUSH2 0x802 SWAP2 SWAP1 PUSH2 0x4936 JUMP JUMPDEST PUSH1 0x40 MLOAD DUP1 SWAP2 SUB SWAP1 RETURN JUMPDEST CALLVALUE DUP1 ISZERO PUSH2 0x817 JUMPI PUSH1 0x0 DUP1 REVERT JUMPDEST POP PUSH2 0x820 PUSH2 0x17F1 JUMP JUMPDEST PUSH1 0x40 MLOAD PUSH2 0x833 SWAP8 SWAP7 SWAP6 SWAP5 SWAP4 SWAP3 SWAP2 SWAP1 PUSH2 0x4F98 JUMP JUMPDEST PUSH1 0x40 MLOAD DUP1 SWAP2 SUB SWAP1 RETURN JUMPDEST CALLVALUE DUP1 ISZERO PUSH2 0x848 JUMPI PUSH1 0x0 DUP1 REVERT JUMPDEST POP PUSH2 0x851 PUSH2 0x18DD JUMP JUMPDEST PUSH1 0x40 MLOAD PUSH2 0x85E SWAP2 SWAP1 PUSH2 0x4936 JUMP JUMPDEST PUSH1 0x40 MLOAD DUP1 SWAP2 SUB SWAP1 RETURN JUMPDEST CALLVALUE DUP1 ISZERO PUSH2 0x873 JUMPI PUSH1 0x0 DUP1 REVERT JUMPDEST POP PUSH2 0x87C PUSH2 0x18F5 JUMP JUMPDEST PUSH1 0x40 MLOAD PUSH2 0x889 SWAP2 SWAP1 PUSH2 0x4936 JUMP JUMPDEST PUSH1 0x40 MLOAD DUP1 SWAP2 SUB SWAP1 RETURN JUMPDEST CALLVALUE DUP1 ISZERO PUSH2 0x89E JUMPI PUSH1 0x0 DUP1 REVERT JUMPDEST POP PUSH2 0x8A7 PUSH2 0x190D JUMP JUMPDEST PUSH1 0x40 MLOAD PUSH2 0x8B4 SWAP2 SWAP1 PUSH2 0x4936 JUMP JUMPDEST PUSH1 0x40 MLOAD DUP1 SWAP2 SUB SWAP1 RETURN JUMPDEST CALLVALUE DUP1 ISZERO PUSH2 0x8C9 JUMPI PUSH1 0x0 DUP1 REVERT JUMPDEST POP PUSH2 0x8D2 PUSH2 0x1940 JUMP JUMPDEST PUSH1 0x40 MLOAD PUSH2 0x8DF SWAP2 SWAP1 PUSH2 0x473D JUMP JUMPDEST PUSH1 0x40 MLOAD DUP1 SWAP2 SUB SWAP1 RETURN JUMPDEST CALLVALUE DUP1 ISZERO PUSH2 0x8F4 JUMPI PUSH1 0x0 DUP1 REVERT JUMPDEST POP PUSH2 0x8FD PUSH2 0x19A6 JUMP JUMPDEST STOP JUMPDEST CALLVALUE DUP1 ISZERO PUSH2 0x90B JUMPI PUSH1 0x0 DUP1 REVERT JUMPDEST POP PUSH2 0x926 PUSH1 0x4 DUP1 CALLDATASIZE SUB DUP2 ADD SWAP1 PUSH2 0x921 SWAP2 SWAP1 PUSH2 0x4807 JUMP JUMPDEST PUSH2 0x1C75 JUMP JUMPDEST PUSH1 0x40 MLOAD PUSH2 0x933 SWAP2 SWAP1 PUSH2 0x4862 JUMP JUMPDEST PUSH1 0x40 MLOAD DUP1 SWAP2 SUB SWAP1 RETURN JUMPDEST CALLVALUE DUP1 ISZERO PUSH2 0x948 JUMPI PUSH1 0x0 DUP1 REVERT JUMPDEST POP PUSH2 0x951 PUSH2 0x1CF2 JUMP JUMPDEST PUSH1 0x40 MLOAD PUSH2 0x95E SWAP2 SWAP1 PUSH2 0x4936 JUMP JUMPDEST PUSH1 0x40 MLOAD DUP1 SWAP2 SUB SWAP1 RETURN JUMPDEST CALLVALUE DUP1 ISZERO PUSH2 0x973 JUMPI PUSH1 0x0 DUP1 REVERT JUMPDEST POP PUSH2 0x98E PUSH1 0x4 DUP1 CALLDATASIZE SUB DUP2 ADD SWAP1 PUSH2 0x989 SWAP2 SWAP1 PUSH2 0x4807 JUMP JUMPDEST PUSH2 0x1D0A JUMP JUMPDEST PUSH1 0x40 MLOAD PUSH2 0x99B SWAP2 SWAP1 PUSH2 0x4862 JUMP JUMPDEST PUSH1 0x40 MLOAD DUP1 SWAP2 SUB SWAP1 RETURN JUMPDEST CALLVALUE DUP1 ISZERO PUSH2 0x9B0 JUMPI PUSH1 0x0 DUP1 REVERT JUMPDEST POP PUSH2 0x9CB PUSH1 0x4 DUP1 CALLDATASIZE SUB DUP2 ADD SWAP1 PUSH2 0x9C6 SWAP2 SWAP1 PUSH2 0x505A JUMP JUMPDEST PUSH2 0x1D29 JUMP JUMPDEST PUSH1 0x40 MLOAD PUSH2 0x9D8 SWAP2 SWAP1 PUSH2 0x4862 JUMP JUMPDEST PUSH1 0x40 MLOAD DUP1 SWAP2 SUB SWAP1 RETURN JUMPDEST CALLVALUE DUP1 ISZERO PUSH2 0x9ED JUMPI PUSH1 0x0 DUP1 REVERT JUMPDEST POP PUSH2 0xA08 PUSH1 0x4 DUP1 CALLDATASIZE SUB DUP2 ADD SWAP1 PUSH2 0xA03 SWAP2 SWAP1 PUSH2 0x50DF JUMP JUMPDEST PUSH2 0x1D43 JUMP JUMPDEST STOP JUMPDEST CALLVALUE DUP1 ISZERO PUSH2 0xA16 JUMPI PUSH1 0x0 DUP1 REVERT JUMPDEST POP PUSH2 0xA31 PUSH1 0x4 DUP1 CALLDATASIZE SUB DUP2 ADD SWAP1 PUSH2 0xA2C SWAP2 SWAP1 PUSH2 0x5181 JUMP JUMPDEST PUSH2 0x1FCD JUMP JUMPDEST PUSH1 0x40 MLOAD PUSH2 0xA3E SWAP2 SWAP1 PUSH2 0x48B9 JUMP JUMPDEST PUSH1 0x40 MLOAD DUP1 SWAP2 SUB SWAP1 RETURN JUMPDEST CALLVALUE DUP1 ISZERO PUSH2 0xA53 JUMPI PUSH1 0x0 DUP1 REVERT JUMPDEST POP PUSH2 0xA6E PUSH1 0x4 DUP1 CALLDATASIZE SUB DUP2 ADD SWAP1 PUSH2 0xA69 SWAP2 SWAP1 PUSH2 0x51FF JUMP JUMPDEST PUSH2 0x1FE1 JUMP JUMPDEST STOP JUMPDEST CALLVALUE DUP1 ISZERO PUSH2 0xA7C JUMPI PUSH1 0x0 DUP1 REVERT JUMPDEST POP PUSH2 0xA97 PUSH1 0x4 DUP1 CALLDATASIZE SUB DUP2 ADD SWAP1 PUSH2 0xA92 SWAP2 SWAP1 PUSH2 0x487D JUMP JUMPDEST PUSH2 0x22F4 JUMP JUMPDEST STOP JUMPDEST PUSH1 0x60 PUSH1 0x0 PUSH32 0x0 SWAP1 POP PUSH1 0x0 PUSH32 0x0 SWAP1 POP PUSH1 0x40 MLOAD SWAP3 POP PUSH1 0x40 DUP4 ADD PUSH1 0x40 MSTORE DUP1 DUP4 MSTORE DUP2 PUSH1 0x20 DUP5 ADD MSTORE POP POP SWAP1 JUMP JUMPDEST PUSH1 0x0 PUSH2 0xB0C CALLER DUP5 DUP5 PUSH2 0x237A JUMP JUMPDEST PUSH1 0x1 SWAP1 POP SWAP3 SWAP2 POP POP JUMP JUMPDEST PUSH2 0xB1E PUSH2 0x238C JUMP JUMPDEST PUSH2 0xB45 PUSH2 0xB40 DUP3 PUSH20 0xFFFFFFFFFFFFFFFFFFFFFFFFFFFFFFFFFFFFFFFF AND PUSH2 0x2413 JUMP JUMPDEST PUSH2 0x2467 JUMP JUMPDEST POP JUMP JUMPDEST PUSH1 0x0 PUSH2 0xB52 PUSH2 0x2481 JUMP JUMPDEST PUSH1 0x1 ADD PUSH1 0x14 SWAP1 SLOAD SWAP1 PUSH2 0x100 EXP SWAP1 DIV PUSH12 0xFFFFFFFFFFFFFFFFFFFFFFFF AND PUSH12 0xFFFFFFFFFFFFFFFFFFFFFFFF AND SWAP1 POP SWAP1 JUMP JUMPDEST PUSH1 0x0 DUP1 PUSH2 0xB8C PUSH2 0x2490 JUMP JUMPDEST SWAP1 POP PUSH2 0xB97 DUP2 PUSH2 0x2498 JUMP JUMPDEST PUSH2 0xBA7 JUMPI PUSH2 0xBA6 DUP6 DUP3 DUP6 PUSH2 0x24E6 JUMP JUMPDEST JUMPDEST PUSH2 0xBB2 DUP6 DUP6 DUP6 PUSH2 0x257A JUMP JUMPDEST POP DUP4 PUSH20 0xFFFFFFFFFFFFFFFFFFFFFFFFFFFFFFFFFFFFFFFF AND DUP6 PUSH20 0xFFFFFFFFFFFFFFFFFFFFFFFFFFFFFFFFFFFFFFFF AND PUSH32 0xDDF252AD1BE2C89B69C2B068FC378DAA952BA7F163C4A11628F55A4DF523B3EF DUP6 PUSH1 0x40 MLOAD PUSH2 0xC10 SWAP2 SWAP1 PUSH2 0x48B9 JUMP JUMPDEST PUSH1 0x40 MLOAD DUP1 SWAP2 SUB SWAP1 LOG3 PUSH1 0x1 SWAP2 POP POP SWAP4 SWAP3 POP POP POP JUMP JUMPDEST PUSH20 0x4B7FBE5581DA3C7783E185D7083A12EC77994770 DUP2 JUMP JUMPDEST PUSH32 0x6E71EDAE12B1B97F4D1F60370FEF10105FA2FAAE0126114A169C64845D6126C9 PUSH1 0x0 SHL DUP2 JUMP JUMPDEST PUSH32 0x0 DUP2 JUMP JUMPDEST PUSH20 0x10ED43C718714EB63D5AA57B78B54704E256024E DUP2 JUMP JUMPDEST PUSH1 0x0 PUSH32 0x0 CHAINID EQ PUSH2 0xCD5 JUMPI PUSH2 0xCD0 PUSH2 0x2AF0 JUMP JUMPDEST PUSH2 0xCF7 JUMP JUMPDEST PUSH32 0x0 JUMPDEST SWAP1 POP SWAP1 JUMP JUMPDEST PUSH1 0x0 DUP1 PUSH2 0xD07 PUSH2 0x2490 JUMP JUMPDEST SWAP1 POP PUSH2 0xD28 DUP2 DUP6 DUP6 PUSH2 0xD19 DUP6 DUP10 PUSH2 0x2B89 JUMP JUMPDEST PUSH2 0xD23 SWAP2 SWAP1 PUSH2 0x525B JUMP JUMPDEST PUSH2 0x237A JUMP JUMPDEST PUSH1 0x1 SWAP2 POP POP SWAP3 SWAP2 POP POP JUMP JUMPDEST PUSH20 0x30B7F99664F5449629D06549FD0510086141B915 DUP2 JUMP JUMPDEST PUSH1 0x0 PUSH2 0xD76 DUP3 DUP5 PUSH20 0xFFFFFFFFFFFFFFFFFFFFFFFFFFFFFFFFFFFFFFFF AND PUSH2 0x2C1C SWAP1 SWAP2 SWAP1 PUSH4 0xFFFFFFFF AND JUMP JUMPDEST SWAP1 POP SWAP3 SWAP2 POP POP JUMP JUMPDEST PUSH1 0x0 PUSH2 0xD8E DUP3 PUSH3 0xFFFFFF AND PUSH2 0x2C9E JUMP JUMPDEST SWAP1 POP SWAP2 SWAP1 POP JUMP JUMPDEST PUSH20 0xF12338660FF6C3B5B982E52EB72521499A44C6DB DUP2 JUMP JUMPDEST PUSH1 0x0 DUP1 PUSH2 0xDD6 PUSH2 0xDBB PUSH2 0x2490 JUMP JUMPDEST PUSH20 0xFFFFFFFFFFFFFFFFFFFFFFFFFFFFFFFFFFFFFFFF AND PUSH2 0x2413 JUMP JUMPDEST SWAP1 POP PUSH1 0x0 DUP2 PUSH1 0x0 ADD PUSH1 0xA SWAP1 SLOAD SWAP1 PUSH2 0x100 EXP SWAP1 DIV PUSH10 0xFFFFFFFFFFFFFFFFFFFF AND PUSH10 0xFFFFFFFFFFFFFFFFFFFF AND SUB PUSH2 0xE90 JUMPI PUSH2 0xE0E PUSH2 0x2481 JUMP JUMPDEST PUSH1 0x2 ADD PUSH1 0x0 DUP2 DUP2 SWAP1 SLOAD SWAP1 PUSH2 0x100 EXP SWAP1 DIV PUSH10 0xFFFFFFFFFFFFFFFFFFFF AND DUP1 SWAP3 SWAP2 SWAP1 PUSH2 0xE37 SWAP1 PUSH2 0x528F JUMP JUMPDEST SWAP2 SWAP1 PUSH2 0x100 EXP DUP2 SLOAD DUP2 PUSH10 0xFFFFFFFFFFFFFFFFFFFF MUL NOT AND SWAP1 DUP4 PUSH10 0xFFFFFFFFFFFFFFFFFFFF AND MUL OR SWAP1 SSTORE POP DUP2 PUSH1 0x0 ADD PUSH1 0xA PUSH2 0x100 EXP DUP2 SLOAD DUP2 PUSH10 0xFFFFFFFFFFFFFFFFFFFF MUL NOT AND SWAP1 DUP4 PUSH10 0xFFFFFFFFFFFFFFFFFFFF AND MUL OR SWAP1 SSTORE POP JUMPDEST DUP3 DUP2 PUSH1 0x0 ADD PUSH1 0xA SWAP1 SLOAD SWAP1 PUSH2 0x100 EXP SWAP1 DIV PUSH10 0xFFFFFFFFFFFFFFFFFFFF AND PUSH10 0xFFFFFFFFFFFFFFFFFFFF AND CALLER PUSH20 0xFFFFFFFFFFFFFFFFFFFFFFFFFFFFFFFFFFFFFFFF AND PUSH32 0x7D842667F749A5AC61180C742C62D621C78C94D961BFA60567A499EE28FFA4AB PUSH1 0x40 MLOAD PUSH1 0x40 MLOAD DUP1 SWAP2 SUB SWAP1 LOG4 DUP3 SWAP2 POP POP SWAP2 SWAP1 POP JUMP JUMPDEST PUSH2 0xF0C PUSH2 0x4640 JUMP JUMPDEST PUSH2 0xF15 CALLER PUSH2 0x1606 JUMP JUMPDEST SWAP1 POP SWAP1 JUMP JUMPDEST PUSH1 0x0 PUSH2 0x106C PUSH2 0xF3E DUP4 PUSH20 0xFFFFFFFFFFFFFFFFFFFFFFFFFFFFFFFFFFFFFFFF AND PUSH2 0x2413 JUMP JUMPDEST PUSH1 0x40 MLOAD DUP1 PUSH1 0xA0 ADD PUSH1 0x40 MSTORE SWAP1 DUP2 PUSH1 0x0 DUP3 ADD PUSH1 0x0 SWAP1 SLOAD SWAP1 PUSH2 0x100 EXP SWAP1 DIV PUSH2 0xFFFF AND PUSH2 0xFFFF AND PUSH2 0xFFFF AND DUP2 MSTORE PUSH1 0x20 ADD PUSH1 0x0 DUP3 ADD PUSH1 0x2 SWAP1 SLOAD SWAP1 PUSH2 0x100 EXP SWAP1 DIV PUSH8 0xFFFFFFFFFFFFFFFF AND PUSH8 0xFFFFFFFFFFFFFFFF AND PUSH8 0xFFFFFFFFFFFFFFFF AND DUP2 MSTORE PUSH1 0x20 ADD PUSH1 0x0 DUP3 ADD PUSH1 0xA SWAP1 SLOAD SWAP1 PUSH2 0x100 EXP SWAP1 DIV PUSH10 0xFFFFFFFFFFFFFFFFFFFF AND PUSH10 0xFFFFFFFFFFFFFFFFFFFF AND PUSH10 0xFFFFFFFFFFFFFFFFFFFF AND DUP2 MSTORE PUSH1 0x20 ADD PUSH1 0x0 DUP3 ADD PUSH1 0x14 SWAP1 SLOAD SWAP1 PUSH2 0x100 EXP SWAP1 DIV PUSH12 0xFFFFFFFFFFFFFFFFFFFFFFFF AND PUSH12 0xFFFFFFFFFFFFFFFFFFFFFFFF AND PUSH12 0xFFFFFFFFFFFFFFFFFFFFFFFF AND DUP2 MSTORE PUSH1 0x20 ADD PUSH1 0x1 DUP3 ADD PUSH1 0x0 SWAP1 SLOAD SWAP1 PUSH2 0x100 EXP SWAP1 DIV PUSH20 0xFFFFFFFFFFFFFFFFFFFFFFFFFFFFFFFFFFFFFFFF AND PUSH20 0xFFFFFFFFFFFFFFFFFFFFFFFFFFFFFFFFFFFFFFFF AND PUSH20 0xFFFFFFFFFFFFFFFFFFFFFFFFFFFFFFFFFFFFFFFF AND DUP2 MSTORE POP POP PUSH2 0x2D1E JUMP JUMPDEST SWAP1 POP SWAP2 SWAP1 POP JUMP JUMPDEST PUSH1 0x0 PUSH2 0x107D PUSH2 0x2481 JUMP JUMPDEST PUSH1 0x3 ADD PUSH1 0x40 MLOAD DUP1 PUSH2 0x180 ADD PUSH1 0x40 MSTORE SWAP1 DUP2 PUSH1 0x0 DUP3 ADD PUSH1 0x0 SWAP1 SLOAD SWAP1 PUSH2 0x100 EXP SWAP1 DIV PUSH1 0xFF AND ISZERO ISZERO ISZERO ISZERO DUP2 MSTORE PUSH1 0x20 ADD PUSH1 0x0 DUP3 ADD PUSH1 0x1 SWAP1 SLOAD SWAP1 PUSH2 0x100 EXP SWAP1 DIV PUSH2 0xFFFF AND PUSH2 0xFFFF AND PUSH2 0xFFFF AND DUP2 MSTORE PUSH1 0x20 ADD PUSH1 0x0 DUP3 ADD PUSH1 0x3 SWAP1 SLOAD SWAP1 PUSH2 0x100 EXP SWAP1 DIV PUSH2 0xFFFF AND PUSH2 0xFFFF AND PUSH2 0xFFFF AND DUP2 MSTORE PUSH1 0x20 ADD PUSH1 0x0 DUP3 ADD PUSH1 0x5 SWAP1 SLOAD SWAP1 PUSH2 0x100 EXP SWAP1 DIV PUSH2 0xFFFF AND PUSH2 0xFFFF AND PUSH2 0xFFFF AND DUP2 MSTORE PUSH1 0x20 ADD PUSH1 0x0 DUP3 ADD PUSH1 0x7 SWAP1 SLOAD SWAP1 PUSH2 0x100 EXP SWAP1 DIV PUSH2 0xFFFF AND PUSH2 0xFFFF AND PUSH2 0xFFFF AND DUP2 MSTORE PUSH1 0x20 ADD PUSH1 0x0 DUP3 ADD PUSH1 0x9 SWAP1 SLOAD SWAP1 PUSH2 0x100 EXP SWAP1 DIV PUSH2 0xFFFF AND PUSH2 0xFFFF AND PUSH2 0xFFFF AND DUP2 MSTORE PUSH1 0x20 ADD PUSH1 0x0 DUP3 ADD PUSH1 0xB SWAP1 SLOAD SWAP1 PUSH2 0x100 EXP SWAP1 DIV PUSH2 0xFFFF AND PUSH2 0xFFFF AND PUSH2 0xFFFF AND DUP2 MSTORE PUSH1 0x20 ADD PUSH1 0x0 DUP3 ADD PUSH1 0xD SWAP1 SLOAD SWAP1 PUSH2 0x100 EXP SWAP1 DIV PUSH2 0xFFFF AND PUSH2 0xFFFF AND PUSH2 0xFFFF AND DUP2 MSTORE PUSH1 0x20 ADD PUSH1 0x0 DUP3 ADD PUSH1 0xF SWAP1 SLOAD SWAP1 PUSH2 0x100 EXP SWAP1 DIV PUSH2 0xFFFF AND PUSH2 0xFFFF AND PUSH2 0xFFFF AND DUP2 MSTORE PUSH1 0x20 ADD PUSH1 0x0 DUP3 ADD PUSH1 0x11 SWAP1 SLOAD SWAP1 PUSH2 0x100 EXP SWAP1 DIV PUSH2 0xFFFF AND PUSH2 0xFFFF AND PUSH2 0xFFFF AND DUP2 MSTORE PUSH1 0x20 ADD PUSH1 0x0 DUP3 ADD PUSH1 0x13 SWAP1 SLOAD SWAP1 PUSH2 0x100 EXP SWAP1 DIV PUSH3 0xFFFFFF AND PUSH3 0xFFFFFF AND PUSH3 0xFFFFFF AND DUP2 MSTORE PUSH1 0x20 ADD PUSH1 0x1 DUP3 ADD PUSH1 0x3 DUP1 PUSH1 0x20 MUL PUSH1 0x40 MLOAD SWAP1 DUP2 ADD PUSH1 0x40 MSTORE DUP1 SWAP3 SWAP2 SWAP1 DUP3 PUSH1 0x3 DUP1 ISZERO PUSH2 0x125C JUMPI PUSH1 0x20 MUL DUP3 ADD SWAP2 JUMPDEST DUP2 PUSH1 0x0 SWAP1 SLOAD SWAP1 PUSH2 0x100 EXP SWAP1 DIV PUSH20 0xFFFFFFFFFFFFFFFFFFFFFFFFFFFFFFFFFFFFFFFF AND PUSH20 0xFFFFFFFFFFFFFFFFFFFFFFFFFFFFFFFFFFFFFFFF AND DUP2 MSTORE PUSH1 0x20 ADD SWAP1 PUSH1 0x1 ADD SWAP1 DUP1 DUP4 GT PUSH2 0x1212 JUMPI JUMPDEST POP POP POP POP POP DUP2 MSTORE POP POP SWAP1 POP PUSH1 0x0 SELFBALANCE SWAP1 POP PUSH1 0x0 DUP3 PUSH2 0x160 ADD MLOAD PUSH1 0x0 PUSH1 0x3 DUP2 LT PUSH2 0x1287 JUMPI PUSH2 0x1286 PUSH2 0x52C1 JUMP JUMPDEST JUMPDEST PUSH1 0x20 MUL ADD MLOAD PUSH20 0xFFFFFFFFFFFFFFFFFFFFFFFFFFFFFFFFFFFFFFFF AND DUP3 DUP5 PUSH2 0x140 ADD MLOAD PUSH3 0xFFFFFF AND SWAP1 PUSH1 0x40 MLOAD PUSH2 0x12BB SWAP1 PUSH2 0x5321 JUMP JUMPDEST PUSH1 0x0 PUSH1 0x40 MLOAD DUP1 DUP4 SUB DUP2 DUP6 DUP9 DUP9 CALL SWAP4 POP POP POP POP RETURNDATASIZE DUP1 PUSH1 0x0 DUP2 EQ PUSH2 0x12F9 JUMPI PUSH1 0x40 MLOAD SWAP2 POP PUSH1 0x1F NOT PUSH1 0x3F RETURNDATASIZE ADD AND DUP3 ADD PUSH1 0x40 MSTORE RETURNDATASIZE DUP3 MSTORE RETURNDATASIZE PUSH1 0x0 PUSH1 0x20 DUP5 ADD RETURNDATACOPY PUSH2 0x12FE JUMP JUMPDEST PUSH1 0x60 SWAP2 POP JUMPDEST POP POP SWAP1 POP DUP1 PUSH2 0x1342 JUMPI PUSH1 0x40 MLOAD PUSH32 0x8C379A000000000000000000000000000000000000000000000000000000000 DUP2 MSTORE PUSH1 0x4 ADD PUSH2 0x1339 SWAP1 PUSH2 0x5382 JUMP JUMPDEST PUSH1 0x40 MLOAD DUP1 SWAP2 SUB SWAP1 REVERT JUMPDEST POP POP POP JUMP JUMPDEST PUSH1 0x0 PUSH2 0x1352 DUP3 PUSH2 0x2D3B JUMP JUMPDEST SWAP1 POP SWAP2 SWAP1 POP JUMP JUMPDEST PUSH1 0x0 PUSH2 0x1368 DUP3 PUSH2 0xFFFF AND PUSH2 0x2DC8 JUMP JUMPDEST SWAP1 POP SWAP2 SWAP1 POP JUMP JUMPDEST PUSH1 0x0 PUSH2 0x1386 DUP3 PUSH10 0xFFFFFFFFFFFFFFFFFFFF AND PUSH2 0x2E47 JUMP JUMPDEST SWAP1 POP SWAP2 SWAP1 POP JUMP JUMPDEST PUSH1 0x0 PUSH2 0x13AE DUP3 PUSH20 0xFFFFFFFFFFFFFFFFFFFFFFFFFFFFFFFFFFFFFFFF AND PUSH2 0x2413 JUMP JUMPDEST PUSH1 0x0 ADD PUSH1 0x14 SWAP1 SLOAD SWAP1 PUSH2 0x100 EXP SWAP1 DIV PUSH12 0xFFFFFFFFFFFFFFFFFFFFFFFF AND PUSH12 0xFFFFFFFFFFFFFFFFFFFFFFFF AND SWAP1 POP SWAP2 SWAP1 POP JUMP JUMPDEST PUSH2 0x13E7 PUSH2 0x238C JUMP JUMPDEST PUSH2 0x13F1 PUSH1 0x0 PUSH2 0x2F6E JUMP JUMPDEST JUMP JUMPDEST PUSH1 0x0 DUP1 PUSH1 0x0 DUP1 PUSH2 0x1401 PUSH2 0x2481 JUMP JUMPDEST PUSH1 0x3 ADD PUSH1 0x40 MLOAD DUP1 PUSH2 0x180 ADD PUSH1 0x40 MSTORE SWAP1 DUP2 PUSH1 0x0 DUP3 ADD PUSH1 0x0 SWAP1 SLOAD SWAP1 PUSH2 0x100 EXP SWAP1 DIV PUSH1 0xFF AND ISZERO ISZERO ISZERO ISZERO DUP2 MSTORE PUSH1 0x20 ADD PUSH1 0x0 DUP3 ADD PUSH1 0x1 SWAP1 SLOAD SWAP1 PUSH2 0x100 EXP SWAP1 DIV PUSH2 0xFFFF AND PUSH2 0xFFFF AND PUSH2 0xFFFF AND DUP2 MSTORE PUSH1 0x20 ADD PUSH1 0x0 DUP3 ADD PUSH1 0x3 SWAP1 SLOAD SWAP1 PUSH2 0x100 EXP SWAP1 DIV PUSH2 0xFFFF AND PUSH2 0xFFFF AND PUSH2 0xFFFF AND DUP2 MSTORE PUSH1 0x20 ADD PUSH1 0x0 DUP3 ADD PUSH1 0x5 SWAP1 SLOAD SWAP1 PUSH2 0x100 EXP SWAP1 DIV PUSH2 0xFFFF AND PUSH2 0xFFFF AND PUSH2 0xFFFF AND DUP2 MSTORE PUSH1 0x20 ADD PUSH1 0x0 DUP3 ADD PUSH1 0x7 SWAP1 SLOAD SWAP1 PUSH2 0x100 EXP SWAP1 DIV PUSH2 0xFFFF AND PUSH2 0xFFFF AND PUSH2 0xFFFF AND DUP2 MSTORE PUSH1 0x20 ADD PUSH1 0x0 DUP3 ADD PUSH1 0x9 SWAP1 SLOAD SWAP1 PUSH2 0x100 EXP SWAP1 DIV PUSH2 0xFFFF AND PUSH2 0xFFFF AND PUSH2 0xFFFF AND DUP2 MSTORE PUSH1 0x20 ADD PUSH1 0x0 DUP3 ADD PUSH1 0xB SWAP1 SLOAD SWAP1 PUSH2 0x100 EXP SWAP1 DIV PUSH2 0xFFFF AND PUSH2 0xFFFF AND PUSH2 0xFFFF AND DUP2 MSTORE PUSH1 0x20 ADD PUSH1 0x0 DUP3 ADD PUSH1 0xD SWAP1 SLOAD SWAP1 PUSH2 0x100 EXP SWAP1 DIV PUSH2 0xFFFF AND PUSH2 0xFFFF AND PUSH2 0xFFFF AND DUP2 MSTORE PUSH1 0x20 ADD PUSH1 0x0 DUP3 ADD PUSH1 0xF SWAP1 SLOAD SWAP1 PUSH2 0x100 EXP SWAP1 DIV PUSH2 0xFFFF AND PUSH2 0xFFFF AND PUSH2 0xFFFF AND DUP2 MSTORE PUSH1 0x20 ADD PUSH1 0x0 DUP3 ADD PUSH1 0x11 SWAP1 SLOAD SWAP1 PUSH2 0x100 EXP SWAP1 DIV PUSH2 0xFFFF AND PUSH2 0xFFFF AND PUSH2 0xFFFF AND DUP2 MSTORE PUSH1 0x20 ADD PUSH1 0x0 DUP3 ADD PUSH1 0x13 SWAP1 SLOAD SWAP1 PUSH2 0x100 EXP SWAP1 DIV PUSH3 0xFFFFFF AND PUSH3 0xFFFFFF AND PUSH3 0xFFFFFF AND DUP2 MSTORE PUSH1 0x20 ADD PUSH1 0x1 DUP3 ADD PUSH1 0x3 DUP1 PUSH1 0x20 MUL PUSH1 0x40 MLOAD SWAP1 DUP2 ADD PUSH1 0x40 MSTORE DUP1 SWAP3 SWAP2 SWAP1 DUP3 PUSH1 0x3 DUP1 ISZERO PUSH2 0x15E0 JUMPI PUSH1 0x20 MUL DUP3 ADD SWAP2 JUMPDEST DUP2 PUSH1 0x0 SWAP1 SLOAD SWAP1 PUSH2 0x100 EXP SWAP1 DIV PUSH20 0xFFFFFFFFFFFFFFFFFFFFFFFFFFFFFFFFFFFFFFFF AND PUSH20 0xFFFFFFFFFFFFFFFFFFFFFFFFFFFFFFFFFFFFFFFF AND DUP2 MSTORE PUSH1 0x20 ADD SWAP1 PUSH1 0x1 ADD SWAP1 DUP1 DUP4 GT PUSH2 0x1596 JUMPI JUMPDEST POP POP POP POP POP DUP2 MSTORE POP POP SWAP1 POP DUP1 PUSH1 0x20 ADD MLOAD DUP2 PUSH1 0x40 ADD MLOAD DUP3 PUSH1 0x60 ADD MLOAD SWAP4 POP SWAP4 POP SWAP4 POP POP SWAP1 SWAP2 SWAP3 JUMP JUMPDEST PUSH2 0x160E PUSH2 0x4640 JUMP JUMPDEST PUSH2 0x162D DUP3 PUSH20 0xFFFFFFFFFFFFFFFFFFFFFFFFFFFFFFFFFFFFFFFF AND PUSH2 0x2413 JUMP JUMPDEST PUSH1 0x40 MLOAD DUP1 PUSH1 0xA0 ADD PUSH1 0x40 MSTORE SWAP1 DUP2 PUSH1 0x0 DUP3 ADD PUSH1 0x0 SWAP1 SLOAD SWAP1 PUSH2 0x100 EXP SWAP1 DIV PUSH2 0xFFFF AND PUSH2 0xFFFF AND PUSH2 0xFFFF AND DUP2 MSTORE PUSH1 0x20 ADD PUSH1 0x0 DUP3 ADD PUSH1 0x2 SWAP1 SLOAD SWAP1 PUSH2 0x100 EXP SWAP1 DIV PUSH8 0xFFFFFFFFFFFFFFFF AND PUSH8 0xFFFFFFFFFFFFFFFF AND PUSH8 0xFFFFFFFFFFFFFFFF AND DUP2 MSTORE PUSH1 0x20 ADD PUSH1 0x0 DUP3 ADD PUSH1 0xA SWAP1 SLOAD SWAP1 PUSH2 0x100 EXP SWAP1 DIV PUSH10 0xFFFFFFFFFFFFFFFFFFFF AND PUSH10 0xFFFFFFFFFFFFFFFFFFFF AND PUSH10 0xFFFFFFFFFFFFFFFFFFFF AND DUP2 MSTORE PUSH1 0x20 ADD PUSH1 0x0 DUP3 ADD PUSH1 0x14 SWAP1 SLOAD SWAP1 PUSH2 0x100 EXP SWAP1 DIV PUSH12 0xFFFFFFFFFFFFFFFFFFFFFFFF AND PUSH12 0xFFFFFFFFFFFFFFFFFFFFFFFF AND PUSH12 0xFFFFFFFFFFFFFFFFFFFFFFFF AND DUP2 MSTORE PUSH1 0x20 ADD PUSH1 0x1 DUP3 ADD PUSH1 0x0 SWAP1 SLOAD SWAP1 PUSH2 0x100 EXP SWAP1 DIV PUSH20 0xFFFFFFFFFFFFFFFFFFFFFFFFFFFFFFFFFFFFFFFF AND PUSH20 0xFFFFFFFFFFFFFFFFFFFFFFFFFFFFFFFFFFFFFFFF AND PUSH20 0xFFFFFFFFFFFFFFFFFFFFFFFFFFFFFFFFFFFFFFFF AND DUP2 MSTORE POP POP SWAP1 POP SWAP2 SWAP1 POP JUMP JUMPDEST PUSH2 0x1765 PUSH2 0x238C JUMP JUMPDEST PUSH2 0x178C PUSH2 0x1787 DUP3 PUSH20 0xFFFFFFFFFFFFFFFFFFFFFFFFFFFFFFFFFFFFFFFF AND PUSH2 0x2413 JUMP JUMPDEST PUSH2 0x3045 JUMP JUMPDEST POP JUMP JUMPDEST PUSH1 0x0 PUSH2 0x17B0 DUP3 PUSH20 0xFFFFFFFFFFFFFFFFFFFFFFFFFFFFFFFFFFFFFFFF AND PUSH2 0x2413 JUMP JUMPDEST PUSH1 0x0 ADD PUSH1 0x2 SWAP1 SLOAD SWAP1 PUSH2 0x100 EXP SWAP1 DIV PUSH8 0xFFFFFFFFFFFFFFFF AND PUSH8 0xFFFFFFFFFFFFFFFF AND SWAP1 POP SWAP2 SWAP1 POP JUMP JUMPDEST PUSH20 0x55D5A6809034A21B9677F418B994CAD4FC9D7B01 DUP2 JUMP JUMPDEST PUSH1 0x0 PUSH1 0x60 DUP1 PUSH1 0x0 DUP1 PUSH1 0x0 PUSH1 0x60 PUSH2 0x1826 PUSH32 0x0 PUSH2 0x305F JUMP JUMPDEST PUSH2 0x184F PUSH32 0x0 PUSH2 0x305F JUMP JUMPDEST CHAINID ADDRESS PUSH1 0x0 DUP1 SHL PUSH1 0x0 PUSH8 0xFFFFFFFFFFFFFFFF DUP2 GT ISZERO PUSH2 0x1870 JUMPI PUSH2 0x186F PUSH2 0x4C5F JUMP JUMPDEST JUMPDEST PUSH1 0x40 MLOAD SWAP1 DUP1 DUP3 MSTORE DUP1 PUSH1 0x20 MUL PUSH1 0x20 ADD DUP3 ADD PUSH1 0x40 MSTORE DUP1 ISZERO PUSH2 0x189E JUMPI DUP2 PUSH1 0x20 ADD PUSH1 0x20 DUP3 MUL DUP1 CALLDATASIZE DUP4 CALLDATACOPY DUP1 DUP3 ADD SWAP2 POP POP SWAP1 POP JUMPDEST POP PUSH32 0xF00000000000000000000000000000000000000000000000000000000000000 SWAP6 SWAP5 SWAP4 SWAP3 SWAP2 SWAP1 SWAP7 POP SWAP7 POP SWAP7 POP SWAP7 POP SWAP7 POP SWAP7 POP SWAP7 POP SWAP1 SWAP2 SWAP3 SWAP4 SWAP5 SWAP6 SWAP7 JUMP JUMPDEST PUSH20 0x3765ECC3A3466C94E3926DCC644779102F3BD74B DUP2 JUMP JUMPDEST PUSH20 0x246F9ECE9BE9F59B17176C059064433E70079827 DUP2 JUMP JUMPDEST PUSH1 0x0 PUSH2 0x1917 PUSH2 0x2481 JUMP JUMPDEST PUSH1 0x1 ADD PUSH1 0x0 SWAP1 SLOAD SWAP1 PUSH2 0x100 EXP SWAP1 DIV PUSH20 0xFFFFFFFFFFFFFFFFFFFFFFFFFFFFFFFFFFFFFFFF AND SWAP1 POP SWAP1 JUMP JUMPDEST PUSH1 0x60 PUSH1 0x0 PUSH32 0x0 SWAP1 POP PUSH1 0x0 PUSH32 0x0 SWAP1 POP PUSH1 0x40 MLOAD SWAP3 POP PUSH1 0x40 DUP4 ADD PUSH1 0x40 MSTORE DUP1 DUP4 MSTORE DUP2 PUSH1 0x20 DUP5 ADD MSTORE POP POP SWAP1 JUMP JUMPDEST PUSH2 0x19AE PUSH2 0x238C JUMP JUMPDEST PUSH1 0x0 PUSH2 0x19B8 PUSH2 0x2481 JUMP JUMPDEST SWAP1 POP PUSH20 0x10ED43C718714EB63D5AA57B78B54704E256024E PUSH20 0xFFFFFFFFFFFFFFFFFFFFFFFFFFFFFFFFFFFFFFFF AND PUSH4 0xC45A0155 PUSH1 0x40 MLOAD DUP2 PUSH4 0xFFFFFFFF AND PUSH1 0xE0 SHL DUP2 MSTORE PUSH1 0x4 ADD PUSH1 0x20 PUSH1 0x40 MLOAD DUP1 DUP4 SUB DUP2 DUP7 GAS STATICCALL ISZERO DUP1 ISZERO PUSH2 0x1A19 JUMPI RETURNDATASIZE PUSH1 0x0 DUP1 RETURNDATACOPY RETURNDATASIZE PUSH1 0x0 REVERT JUMPDEST POP POP POP POP PUSH1 0x40 MLOAD RETURNDATASIZE PUSH1 0x1F NOT PUSH1 0x1F DUP3 ADD AND DUP3 ADD DUP1 PUSH1 0x40 MSTORE POP DUP2 ADD SWAP1 PUSH2 0x1A3D SWAP2 SWAP1 PUSH2 0x53B7 JUMP JUMPDEST PUSH20 0xFFFFFFFFFFFFFFFFFFFFFFFFFFFFFFFFFFFFFFFF AND PUSH4 0xC9C65396 ADDRESS PUSH20 0x10ED43C718714EB63D5AA57B78B54704E256024E PUSH20 0xFFFFFFFFFFFFFFFFFFFFFFFFFFFFFFFFFFFFFFFF AND PUSH4 0xAD5C4648 PUSH1 0x40 MLOAD DUP2 PUSH4 0xFFFFFFFF AND PUSH1 0xE0 SHL DUP2 MSTORE PUSH1 0x4 ADD PUSH1 0x20 PUSH1 0x40 MLOAD DUP1 DUP4 SUB DUP2 DUP7 GAS STATICCALL ISZERO DUP1 ISZERO PUSH2 0x1AB8 JUMPI RETURNDATASIZE PUSH1 0x0 DUP1 RETURNDATACOPY RETURNDATASIZE PUSH1 0x0 REVERT JUMPDEST POP POP POP POP PUSH1 0x40 MLOAD RETURNDATASIZE PUSH1 0x1F NOT PUSH1 0x1F DUP3 ADD AND DUP3 ADD DUP1 PUSH1 0x40 MSTORE POP DUP2 ADD SWAP1 PUSH2 0x1ADC SWAP2 SWAP1 PUSH2 0x53B7 JUMP JUMPDEST PUSH1 0x40 MLOAD DUP4 PUSH4 0xFFFFFFFF AND PUSH1 0xE0 SHL DUP2 MSTORE PUSH1 0x4 ADD PUSH2 0x1AF9 SWAP3 SWAP2 SWAP1 PUSH2 0x53E4 JUMP JUMPDEST PUSH1 0x20 PUSH1 0x40 MLOAD DUP1 DUP4 SUB DUP2 PUSH1 0x0 DUP8 GAS CALL ISZERO DUP1 ISZERO PUSH2 0x1B18 JUMPI RETURNDATASIZE PUSH1 0x0 DUP1 RETURNDATACOPY RETURNDATASIZE PUSH1 0x0 REVERT JUMPDEST POP POP POP POP PUSH1 0x40 MLOAD RETURNDATASIZE PUSH1 0x1F NOT PUSH1 0x1F DUP3 ADD AND DUP3 ADD DUP1 PUSH1 0x40 MSTORE POP DUP2 ADD SWAP1 PUSH2 0x1B3C SWAP2 SWAP1 PUSH2 0x53B7 JUMP JUMPDEST DUP2 PUSH1 0x0 ADD PUSH1 0x0 PUSH2 0x100 EXP DUP2 SLOAD DUP2 PUSH20 0xFFFFFFFFFFFFFFFFFFFFFFFFFFFFFFFFFFFFFFFF MUL NOT AND SWAP1 DUP4 PUSH20 0xFFFFFFFFFFFFFFFFFFFFFFFFFFFFFFFFFFFFFFFF AND MUL OR SWAP1 SSTORE POP PUSH2 0x1BBF ADDRESS PUSH20 0x10ED43C718714EB63D5AA57B78B54704E256024E PUSH32 0xFFFFFFFFFFFFFFFFFFFFFFFFFFFFFFFFFFFFFFFFFFFFFFFFFFFFFFFFFFFFFFFF PUSH1 0x0 PUSH2 0x3086 JUMP JUMPDEST PUSH2 0x1BEC ADDRESS ADDRESS PUSH32 0xFFFFFFFFFFFFFFFFFFFFFFFFFFFFFFFFFFFFFFFFFFFFFFFFFFFFFFFFFFFFFFFF PUSH1 0x0 PUSH2 0x3086 JUMP JUMPDEST PUSH2 0x1C27 PUSH2 0x1C22 PUSH20 0x10ED43C718714EB63D5AA57B78B54704E256024E PUSH20 0xFFFFFFFFFFFFFFFFFFFFFFFFFFFFFFFFFFFFFFFF AND PUSH2 0x2413 JUMP JUMPDEST PUSH2 0x2467 JUMP JUMPDEST PUSH2 0x1C72 PUSH2 0x1C6D DUP3 PUSH1 0x0 ADD PUSH1 0x0 SWAP1 SLOAD SWAP1 PUSH2 0x100 EXP SWAP1 DIV PUSH20 0xFFFFFFFFFFFFFFFFFFFFFFFFFFFFFFFFFFFFFFFF AND PUSH20 0xFFFFFFFFFFFFFFFFFFFFFFFFFFFFFFFFFFFFFFFF AND PUSH2 0x2413 JUMP JUMPDEST PUSH2 0x2467 JUMP JUMPDEST POP JUMP JUMPDEST PUSH1 0x0 DUP1 PUSH2 0x1C80 PUSH2 0x2490 JUMP JUMPDEST SWAP1 POP PUSH1 0x0 PUSH2 0x1C8E DUP3 DUP7 PUSH2 0x2B89 JUMP JUMPDEST SWAP1 POP DUP4 DUP2 LT ISZERO PUSH2 0x1CD9 JUMPI DUP5 DUP2 DUP6 PUSH1 0x40 MLOAD PUSH32 0xF8E06DB200000000000000000000000000000000000000000000000000000000 DUP2 MSTORE PUSH1 0x4 ADD PUSH2 0x1CD0 SWAP4 SWAP3 SWAP2 SWAP1 PUSH2 0x540D JUMP JUMPDEST PUSH1 0x40 MLOAD DUP1 SWAP2 SUB SWAP1 REVERT JUMPDEST PUSH2 0x1CE6 DUP3 DUP7 DUP7 DUP5 SUB PUSH2 0x237A JUMP JUMPDEST PUSH1 0x1 SWAP3 POP POP POP SWAP3 SWAP2 POP POP JUMP JUMPDEST PUSH20 0x5B6E8CB706302AF605FBDB36154ECE068662D30E DUP2 JUMP JUMPDEST PUSH1 0x0 PUSH2 0x1D1E PUSH2 0x1D17 PUSH2 0x2490 JUMP JUMPDEST DUP5 DUP5 PUSH2 0x257A JUMP JUMPDEST POP PUSH1 0x1 SWAP1 POP SWAP3 SWAP2 POP POP JUMP JUMPDEST PUSH1 0x0 PUSH2 0x1D3C DUP3 PUSH6 0xFFFFFFFFFFFF AND PUSH2 0x3185 JUMP JUMPDEST SWAP1 POP SWAP2 SWAP1 POP JUMP JUMPDEST DUP4 TIMESTAMP GT ISZERO PUSH2 0x1D7D JUMPI PUSH1 0x40 MLOAD PUSH32 0x1A15A3CC00000000000000000000000000000000000000000000000000000000 DUP2 MSTORE PUSH1 0x4 ADD PUSH1 0x40 MLOAD DUP1 SWAP2 SUB SWAP1 REVERT JUMPDEST PUSH1 0x0 PUSH1 0x1 PUSH2 0x1DE5 PUSH32 0x6E71EDAE12B1B97F4D1F60370FEF10105FA2FAAE0126114A169C64845D6126C9 PUSH1 0x0 SHL DUP11 DUP11 DUP11 PUSH2 0x1DB4 DUP15 PUSH2 0x3280 JUMP JUMPDEST DUP12 PUSH1 0x40 MLOAD PUSH1 0x20 ADD PUSH2 0x1DCA SWAP7 SWAP6 SWAP5 SWAP4 SWAP3 SWAP2 SWAP1 PUSH2 0x5444 JUMP JUMPDEST PUSH1 0x40 MLOAD PUSH1 0x20 DUP2 DUP4 SUB SUB DUP2 MSTORE SWAP1 PUSH1 0x40 MSTORE DUP1 MLOAD SWAP1 PUSH1 0x20 ADD KECCAK256 PUSH2 0x335E JUMP JUMPDEST DUP6 DUP6 DUP6 PUSH1 0x40 MLOAD PUSH1 0x0 DUP2 MSTORE PUSH1 0x20 ADD PUSH1 0x40 MSTORE PUSH1 0x40 MLOAD PUSH2 0x1E05 SWAP5 SWAP4 SWAP3 SWAP2 SWAP1 PUSH2 0x54A5 JUMP JUMPDEST PUSH1 0x20 PUSH1 0x40 MLOAD PUSH1 0x20 DUP2 SUB SWAP1 DUP1 DUP5 SUB SWAP1 DUP6 GAS STATICCALL ISZERO DUP1 ISZERO PUSH2 0x1E27 JUMPI RETURNDATASIZE PUSH1 0x0 DUP1 RETURNDATACOPY RETURNDATASIZE PUSH1 0x0 REVERT JUMPDEST POP POP POP PUSH1 0x20 PUSH1 0x40 MLOAD SUB MLOAD SWAP1 POP PUSH1 0x0 PUSH20 0xFFFFFFFFFFFFFFFFFFFFFFFFFFFFFFFFFFFFFFFF AND DUP2 PUSH20 0xFFFFFFFFFFFFFFFFFFFFFFFFFFFFFFFFFFFFFFFF AND EQ DUP1 PUSH2 0x1E9A JUMPI POP DUP8 PUSH20 0xFFFFFFFFFFFFFFFFFFFFFFFFFFFFFFFFFFFFFFFF AND DUP2 PUSH20 0xFFFFFFFFFFFFFFFFFFFFFFFFFFFFFFFFFFFFFFFF AND EQ ISZERO JUMPDEST ISZERO PUSH2 0x1ED1 JUMPI PUSH1 0x40 MLOAD PUSH32 0x815E1D6400000000000000000000000000000000000000000000000000000000 DUP2 MSTORE PUSH1 0x4 ADD PUSH1 0x40 MLOAD DUP1 SWAP2 SUB SWAP1 REVERT JUMPDEST DUP6 PUSH2 0x1EDA PUSH2 0x2481 JUMP JUMPDEST PUSH1 0x7 ADD PUSH1 0x1 ADD PUSH1 0x0 DUP4 PUSH20 0xFFFFFFFFFFFFFFFFFFFFFFFFFFFFFFFFFFFFFFFF AND PUSH20 0xFFFFFFFFFFFFFFFFFFFFFFFFFFFFFFFFFFFFFFFF AND DUP2 MSTORE PUSH1 0x20 ADD SWAP1 DUP2 MSTORE PUSH1 0x20 ADD PUSH1 0x0 KECCAK256 PUSH1 0x0 DUP10 PUSH20 0xFFFFFFFFFFFFFFFFFFFFFFFFFFFFFFFFFFFFFFFF AND PUSH20 0xFFFFFFFFFFFFFFFFFFFFFFFFFFFFFFFFFFFFFFFF AND DUP2 MSTORE PUSH1 0x20 ADD SWAP1 DUP2 MSTORE PUSH1 0x20 ADD PUSH1 0x0 KECCAK256 DUP2 SWAP1 SSTORE POP POP DUP6 PUSH20 0xFFFFFFFFFFFFFFFFFFFFFFFFFFFFFFFFFFFFFFFF AND DUP8 PUSH20 0xFFFFFFFFFFFFFFFFFFFFFFFFFFFFFFFFFFFFFFFF AND PUSH32 0x8C5BE1E5EBEC7D5BD14F71427D1E84F3DD0314C0F7B2291E5B200AC8C7C3B925 DUP8 PUSH1 0x40 MLOAD PUSH2 0x1FBC SWAP2 SWAP1 PUSH2 0x48B9 JUMP JUMPDEST PUSH1 0x40 MLOAD DUP1 SWAP2 SUB SWAP1 LOG3 POP POP POP POP POP POP POP JUMP JUMPDEST PUSH1 0x0 PUSH2 0x1FD9 DUP4 DUP4 PUSH2 0x2B89 JUMP JUMPDEST SWAP1 POP SWAP3 SWAP2 POP POP JUMP JUMPDEST PUSH1 0x0 PUSH2 0x1FEB PUSH2 0x2481 JUMP JUMPDEST PUSH1 0x3 ADD PUSH1 0x40 MLOAD DUP1 PUSH2 0x180 ADD PUSH1 0x40 MSTORE SWAP1 DUP2 PUSH1 0x0 DUP3 ADD PUSH1 0x0 SWAP1 SLOAD SWAP1 PUSH2 0x100 EXP SWAP1 DIV PUSH1 0xFF AND ISZERO ISZERO ISZERO ISZERO DUP2 MSTORE PUSH1 0x20 ADD PUSH1 0x0 DUP3 ADD PUSH1 0x1 SWAP1 SLOAD SWAP1 PUSH2 0x100 EXP SWAP1 DIV PUSH2 0xFFFF AND PUSH2 0xFFFF AND PUSH2 0xFFFF AND DUP2 MSTORE PUSH1 0x20 ADD PUSH1 0x0 DUP3 ADD PUSH1 0x3 SWAP1 SLOAD SWAP1 PUSH2 0x100 EXP SWAP1 DIV PUSH2 0xFFFF AND PUSH2 0xFFFF AND PUSH2 0xFFFF AND DUP2 MSTORE PUSH1 0x20 ADD PUSH1 0x0 DUP3 ADD PUSH1 0x5 SWAP1 SLOAD SWAP1 PUSH2 0x100 EXP SWAP1 DIV PUSH2 0xFFFF AND PUSH2 0xFFFF AND PUSH2 0xFFFF AND DUP2 MSTORE PUSH1 0x20 ADD PUSH1 0x0 DUP3 ADD PUSH1 0x7 SWAP1 SLOAD SWAP1 PUSH2 0x100 EXP SWAP1 DIV PUSH2 0xFFFF AND PUSH2 0xFFFF AND PUSH2 0xFFFF AND DUP2 MSTORE PUSH1 0x20 ADD PUSH1 0x0 DUP3 ADD PUSH1 0x9 SWAP1 SLOAD SWAP1 PUSH2 0x100 EXP SWAP1 DIV PUSH2 0xFFFF AND PUSH2 0xFFFF AND PUSH2 0xFFFF AND DUP2 MSTORE PUSH1 0x20 ADD PUSH1 0x0 DUP3 ADD PUSH1 0xB SWAP1 SLOAD SWAP1 PUSH2 0x100 EXP SWAP1 DIV PUSH2 0xFFFF AND PUSH2 0xFFFF AND PUSH2 0xFFFF AND DUP2 MSTORE PUSH1 0x20 ADD PUSH1 0x0 DUP3 ADD PUSH1 0xD SWAP1 SLOAD SWAP1 PUSH2 0x100 EXP SWAP1 DIV PUSH2 0xFFFF AND PUSH2 0xFFFF AND PUSH2 0xFFFF AND DUP2 MSTORE PUSH1 0x20 ADD PUSH1 0x0 DUP3 ADD PUSH1 0xF SWAP1 SLOAD SWAP1 PUSH2 0x100 EXP SWAP1 DIV PUSH2 0xFFFF AND PUSH2 0xFFFF AND PUSH2 0xFFFF AND DUP2 MSTORE PUSH1 0x20 ADD PUSH1 0x0 DUP3 ADD PUSH1 0x11 SWAP1 SLOAD SWAP1 PUSH2 0x100 EXP SWAP1 DIV PUSH2 0xFFFF AND PUSH2 0xFFFF AND PUSH2 0xFFFF AND DUP2 MSTORE PUSH1 0x20 ADD PUSH1 0x0 DUP3 ADD PUSH1 0x13 SWAP1 SLOAD SWAP1 PUSH2 0x100 EXP SWAP1 DIV PUSH3 0xFFFFFF AND PUSH3 0xFFFFFF AND PUSH3 0xFFFFFF AND DUP2 MSTORE PUSH1 0x20 ADD PUSH1 0x1 DUP3 ADD PUSH1 0x3 DUP1 PUSH1 0x20 MUL PUSH1 0x40 MLOAD SWAP1 DUP2 ADD PUSH1 0x40 MSTORE DUP1 SWAP3 SWAP2 SWAP1 DUP3 PUSH1 0x3 DUP1 ISZERO PUSH2 0x21CA JUMPI PUSH1 0x20 MUL DUP3 ADD SWAP2 JUMPDEST DUP2 PUSH1 0x0 SWAP1 SLOAD SWAP1 PUSH2 0x100 EXP SWAP1 DIV PUSH20 0xFFFFFFFFFFFFFFFFFFFFFFFFFFFFFFFFFFFFFFFF AND PUSH20 0xFFFFFFFFFFFFFFFFFFFFFFFFFFFFFFFFFFFFFFFF AND DUP2 MSTORE PUSH1 0x20 ADD SWAP1 PUSH1 0x1 ADD SWAP1 DUP1 DUP4 GT PUSH2 0x2180 JUMPI JUMPDEST POP POP POP POP POP DUP2 MSTORE POP POP SWAP1 POP PUSH1 0x0 DUP3 PUSH20 0xFFFFFFFFFFFFFFFFFFFFFFFFFFFFFFFFFFFFFFFF AND PUSH4 0x70A08231 ADDRESS PUSH1 0x40 MLOAD DUP3 PUSH4 0xFFFFFFFF AND PUSH1 0xE0 SHL DUP2 MSTORE PUSH1 0x4 ADD PUSH2 0x2210 SWAP2 SWAP1 PUSH2 0x4936 JUMP JUMPDEST PUSH1 0x20 PUSH1 0x40 MLOAD DUP1 DUP4 SUB DUP2 DUP7 GAS STATICCALL ISZERO DUP1 ISZERO PUSH2 0x222D JUMPI RETURNDATASIZE PUSH1 0x0 DUP1 RETURNDATACOPY RETURNDATASIZE PUSH1 0x0 REVERT JUMPDEST POP POP POP POP PUSH1 0x40 MLOAD RETURNDATASIZE PUSH1 0x1F NOT PUSH1 0x1F DUP3 ADD AND DUP3 ADD DUP1 PUSH1 0x40 MSTORE POP DUP2 ADD SWAP1 PUSH2 0x2251 SWAP2 SWAP1 PUSH2 0x54FF JUMP JUMPDEST SWAP1 POP DUP3 PUSH20 0xFFFFFFFFFFFFFFFFFFFFFFFFFFFFFFFFFFFFFFFF AND PUSH4 0xA9059CBB DUP4 PUSH2 0x160 ADD MLOAD PUSH1 0x0 PUSH1 0x3 DUP2 LT PUSH2 0x2288 JUMPI PUSH2 0x2287 PUSH2 0x52C1 JUMP JUMPDEST JUMPDEST PUSH1 0x20 MUL ADD MLOAD DUP4 PUSH1 0x40 MLOAD DUP4 PUSH4 0xFFFFFFFF AND PUSH1 0xE0 SHL DUP2 MSTORE PUSH1 0x4 ADD PUSH2 0x22AB SWAP3 SWAP2 SWAP1 PUSH2 0x552C JUMP JUMPDEST PUSH1 0x20 PUSH1 0x40 MLOAD DUP1 DUP4 SUB DUP2 PUSH1 0x0 DUP8 GAS CALL ISZERO DUP1 ISZERO PUSH2 0x22CA JUMPI RETURNDATASIZE PUSH1 0x0 DUP1 RETURNDATACOPY RETURNDATASIZE PUSH1 0x0 REVERT JUMPDEST POP POP POP POP PUSH1 0x40 MLOAD RETURNDATASIZE PUSH1 0x1F NOT PUSH1 0x1F DUP3 ADD AND DUP3 ADD DUP1 PUSH1 0x40 MSTORE POP DUP2 ADD SWAP1 PUSH2 0x22EE SWAP2 SWAP1 PUSH2 0x5581 JUMP JUMPDEST POP POP POP POP JUMP JUMPDEST PUSH2 0x22FC PUSH2 0x238C JUMP JUMPDEST PUSH1 0x0 PUSH20 0xFFFFFFFFFFFFFFFFFFFFFFFFFFFFFFFFFFFFFFFF AND DUP2 PUSH20 0xFFFFFFFFFFFFFFFFFFFFFFFFFFFFFFFFFFFFFFFF AND SUB PUSH2 0x236E JUMPI PUSH1 0x0 PUSH1 0x40 MLOAD PUSH32 0x1E4FBDF700000000000000000000000000000000000000000000000000000000 DUP2 MSTORE PUSH1 0x4 ADD PUSH2 0x2365 SWAP2 SWAP1 PUSH2 0x4936 JUMP JUMPDEST PUSH1 0x40 MLOAD DUP1 SWAP2 SUB SWAP1 REVERT JUMPDEST PUSH2 0x2377 DUP2 PUSH2 0x2F6E JUMP JUMPDEST POP JUMP JUMPDEST PUSH2 0x2387 DUP4 DUP4 DUP4 PUSH1 0x1 PUSH2 0x3086 JUMP JUMPDEST POP POP POP JUMP JUMPDEST PUSH2 0x2394 PUSH2 0x2490 JUMP JUMPDEST PUSH20 0xFFFFFFFFFFFFFFFFFFFFFFFFFFFFFFFFFFFFFFFF AND PUSH2 0x23B2 PUSH2 0x190D JUMP JUMPDEST PUSH20 0xFFFFFFFFFFFFFFFFFFFFFFFFFFFFFFFFFFFFFFFF AND EQ PUSH2 0x2411 JUMPI PUSH2 0x23D5 PUSH2 0x2490 JUMP JUMPDEST PUSH1 0x40 MLOAD PUSH32 0x118CDAA700000000000000000000000000000000000000000000000000000000 DUP2 MSTORE PUSH1 0x4 ADD PUSH2 0x2408 SWAP2 SWAP1 PUSH2 0x4936 JUMP JUMPDEST PUSH1 0x40 MLOAD DUP1 SWAP2 SUB SWAP1 REVERT JUMPDEST JUMP JUMPDEST PUSH1 0x0 PUSH2 0x241D PUSH2 0x3397 JUMP JUMPDEST PUSH1 0x7 ADD PUSH1 0x0 ADD PUSH1 0x0 DUP4 PUSH20 0xFFFFFFFFFFFFFFFFFFFFFFFFFFFFFFFFFFFFFFFF AND PUSH20 0xFFFFFFFFFFFFFFFFFFFFFFFFFFFFFFFFFFFFFFFF AND DUP2 MSTORE PUSH1 0x20 ADD SWAP1 DUP2 MSTORE PUSH1 0x20 ADD PUSH1 0x0 KECCAK256 SWAP1 POP SWAP2 SWAP1 POP JUMP JUMPDEST PUSH2 0x247E PUSH1 0xA PUSH1 0x1 DUP4 PUSH2 0x33C4 SWAP1 SWAP3 SWAP2 SWAP1 PUSH4 0xFFFFFFFF AND JUMP JUMPDEST POP JUMP JUMPDEST PUSH1 0x0 PUSH2 0x248B PUSH2 0x3397 JUMP JUMPDEST SWAP1 POP SWAP1 JUMP JUMPDEST PUSH1 0x0 CALLER SWAP1 POP SWAP1 JUMP JUMPDEST PUSH1 0x0 PUSH2 0x24B9 DUP3 PUSH20 0xFFFFFFFFFFFFFFFFFFFFFFFFFFFFFFFFFFFFFFFF AND PUSH2 0x3433 JUMP JUMPDEST DUP1 PUSH2 0x24DF JUMPI POP PUSH2 0x24DE DUP3 PUSH20 0xFFFFFFFFFFFFFFFFFFFFFFFFFFFFFFFFFFFFFFFF AND PUSH2 0x358C JUMP JUMPDEST JUMPDEST SWAP1 POP SWAP2 SWAP1 POP JUMP JUMPDEST PUSH1 0x0 PUSH2 0x24F2 DUP5 DUP5 PUSH2 0x2B89 JUMP JUMPDEST SWAP1 POP PUSH32 0xFFFFFFFFFFFFFFFFFFFFFFFFFFFFFFFFFFFFFFFFFFFFFFFFFFFFFFFFFFFFFFFF DUP2 EQ PUSH2 0x2574 JUMPI DUP2 DUP2 LT ISZERO PUSH2 0x2564 JUMPI DUP3 DUP2 DUP4 PUSH1 0x40 MLOAD PUSH32 0x192B9E4E00000000000000000000000000000000000000000000000000000000 DUP2 MSTORE PUSH1 0x4 ADD PUSH2 0x255B SWAP4 SWAP3 SWAP2 SWAP1 PUSH2 0x540D JUMP JUMPDEST PUSH1 0x40 MLOAD DUP1 SWAP2 SUB SWAP1 REVERT JUMPDEST PUSH2 0x2573 DUP5 DUP5 DUP5 DUP5 SUB PUSH1 0x0 PUSH2 0x3086 JUMP JUMPDEST JUMPDEST POP POP POP POP JUMP JUMPDEST PUSH1 0x0 DUP1 PUSH20 0xFFFFFFFFFFFFFFFFFFFFFFFFFFFFFFFFFFFFFFFF AND DUP5 PUSH20 0xFFFFFFFFFFFFFFFFFFFFFFFFFFFFFFFFFFFFFFFF AND SUB PUSH2 0x25ED JUMPI PUSH1 0x0 PUSH1 0x40 MLOAD PUSH32 0x4C14F64C00000000000000000000000000000000000000000000000000000000 DUP2 MSTORE PUSH1 0x4 ADD PUSH2 0x25E4 SWAP2 SWAP1 PUSH2 0x4936 JUMP JUMPDEST PUSH1 0x40 MLOAD DUP1 SWAP2 SUB SWAP1 REVERT JUMPDEST PUSH1 0x0 PUSH20 0xFFFFFFFFFFFFFFFFFFFFFFFFFFFFFFFFFFFFFFFF AND DUP4 PUSH20 0xFFFFFFFFFFFFFFFFFFFFFFFFFFFFFFFFFFFFFFFF AND SUB PUSH2 0x265F JUMPI PUSH1 0x0 PUSH1 0x40 MLOAD PUSH32 0x9CFEA58300000000000000000000000000000000000000000000000000000000 DUP2 MSTORE PUSH1 0x4 ADD PUSH2 0x2656 SWAP2 SWAP1 PUSH2 0x4936 JUMP JUMPDEST PUSH1 0x40 MLOAD DUP1 SWAP2 SUB SWAP1 REVERT JUMPDEST PUSH1 0x0 PUSH2 0x2669 PUSH2 0x2481 JUMP JUMPDEST SWAP1 POP PUSH1 0x0 PUSH2 0x268C DUP7 PUSH20 0xFFFFFFFFFFFFFFFFFFFFFFFFFFFFFFFFFFFFFFFF AND PUSH2 0x2413 JUMP JUMPDEST SWAP1 POP PUSH1 0x0 PUSH2 0x26AF DUP7 PUSH20 0xFFFFFFFFFFFFFFFFFFFFFFFFFFFFFFFFFFFFFFFF AND PUSH2 0x2413 JUMP JUMPDEST SWAP1 POP PUSH1 0x0 PUSH20 0xFFFFFFFFFFFFFFFFFFFFFFFFFFFFFFFFFFFFFFFF AND DUP3 PUSH1 0x1 ADD PUSH1 0x0 SWAP1 SLOAD SWAP1 PUSH2 0x100 EXP SWAP1 DIV PUSH20 0xFFFFFFFFFFFFFFFFFFFFFFFFFFFFFFFFFFFFFFFF AND PUSH20 0xFFFFFFFFFFFFFFFFFFFFFFFFFFFFFFFFFFFFFFFF AND SUB PUSH2 0x274D JUMPI DUP7 DUP3 PUSH1 0x1 ADD PUSH1 0x0 PUSH2 0x100 EXP DUP2 SLOAD DUP2 PUSH20 0xFFFFFFFFFFFFFFFFFFFFFFFFFFFFFFFFFFFFFFFF MUL NOT AND SWAP1 DUP4 PUSH20 0xFFFFFFFFFFFFFFFFFFFFFFFFFFFFFFFFFFFFFFFF AND MUL OR SWAP1 SSTORE POP JUMPDEST PUSH1 0x0 PUSH20 0xFFFFFFFFFFFFFFFFFFFFFFFFFFFFFFFFFFFFFFFF AND DUP2 PUSH1 0x1 ADD PUSH1 0x0 SWAP1 SLOAD SWAP1 PUSH2 0x100 EXP SWAP1 DIV PUSH20 0xFFFFFFFFFFFFFFFFFFFFFFFFFFFFFFFFFFFFFFFF AND PUSH20 0xFFFFFFFFFFFFFFFFFFFFFFFFFFFFFFFFFFFFFFFF AND SUB PUSH2 0x27E9 JUMPI DUP6 DUP2 PUSH1 0x1 ADD PUSH1 0x0 PUSH2 0x100 EXP DUP2 SLOAD DUP2 PUSH20 0xFFFFFFFFFFFFFFFFFFFFFFFFFFFFFFFFFFFFFFFF MUL NOT AND SWAP1 DUP4 PUSH20 0xFFFFFFFFFFFFFFFFFFFFFFFFFFFFFFFFFFFFFFFF AND MUL OR SWAP1 SSTORE POP JUMPDEST PUSH1 0x0 DUP1 PUSH1 0x0 PUSH2 0x2A57 DUP6 PUSH1 0x40 MLOAD DUP1 PUSH1 0xA0 ADD PUSH1 0x40 MSTORE SWAP1 DUP2 PUSH1 0x0 DUP3 ADD PUSH1 0x0 SWAP1 SLOAD SWAP1 PUSH2 0x100 EXP SWAP1 DIV PUSH2 0xFFFF AND PUSH2 0xFFFF AND PUSH2 0xFFFF AND DUP2 MSTORE PUSH1 0x20 ADD PUSH1 0x0 DUP3 ADD PUSH1 0x2 SWAP1 SLOAD SWAP1 PUSH2 0x100 EXP SWAP1 DIV PUSH8 0xFFFFFFFFFFFFFFFF AND PUSH8 0xFFFFFFFFFFFFFFFF AND PUSH8 0xFFFFFFFFFFFFFFFF AND DUP2 MSTORE PUSH1 0x20 ADD PUSH1 0x0 DUP3 ADD PUSH1 0xA SWAP1 SLOAD SWAP1 PUSH2 0x100 EXP SWAP1 DIV PUSH10 0xFFFFFFFFFFFFFFFFFFFF AND PUSH10 0xFFFFFFFFFFFFFFFFFFFF AND PUSH10 0xFFFFFFFFFFFFFFFFFFFF AND DUP2 MSTORE PUSH1 0x20 ADD PUSH1 0x0 DUP3 ADD PUSH1 0x14 SWAP1 SLOAD SWAP1 PUSH2 0x100 EXP SWAP1 DIV PUSH12 0xFFFFFFFFFFFFFFFFFFFFFFFF AND PUSH12 0xFFFFFFFFFFFFFFFFFFFFFFFF AND PUSH12 0xFFFFFFFFFFFFFFFFFFFFFFFF AND DUP2 MSTORE PUSH1 0x20 ADD PUSH1 0x1 DUP3 ADD PUSH1 0x0 SWAP1 SLOAD SWAP1 PUSH2 0x100 EXP SWAP1 DIV PUSH20 0xFFFFFFFFFFFFFFFFFFFFFFFFFFFFFFFFFFFFFFFF AND PUSH20 0xFFFFFFFFFFFFFFFFFFFFFFFFFFFFFFFFFFFFFFFF AND PUSH20 0xFFFFFFFFFFFFFFFFFFFFFFFFFFFFFFFFFFFFFFFF AND DUP2 MSTORE POP POP DUP6 PUSH1 0x40 MLOAD DUP1 PUSH1 0xA0 ADD PUSH1 0x40 MSTORE SWAP1 DUP2 PUSH1 0x0 DUP3 ADD PUSH1 0x0 SWAP1 SLOAD SWAP1 PUSH2 0x100 EXP SWAP1 DIV PUSH2 0xFFFF AND PUSH2 0xFFFF AND PUSH2 0xFFFF AND DUP2 MSTORE PUSH1 0x20 ADD PUSH1 0x0 DUP3 ADD PUSH1 0x2 SWAP1 SLOAD SWAP1 PUSH2 0x100 EXP SWAP1 DIV PUSH8 0xFFFFFFFFFFFFFFFF AND PUSH8 0xFFFFFFFFFFFFFFFF AND PUSH8 0xFFFFFFFFFFFFFFFF AND DUP2 MSTORE PUSH1 0x20 ADD PUSH1 0x0 DUP3 ADD PUSH1 0xA SWAP1 SLOAD SWAP1 PUSH2 0x100 EXP SWAP1 DIV PUSH10 0xFFFFFFFFFFFFFFFFFFFF AND PUSH10 0xFFFFFFFFFFFFFFFFFFFF AND PUSH10 0xFFFFFFFFFFFFFFFFFFFF AND DUP2 MSTORE PUSH1 0x20 ADD PUSH1 0x0 DUP3 ADD PUSH1 0x14 SWAP1 SLOAD SWAP1 PUSH2 0x100 EXP SWAP1 DIV PUSH12 0xFFFFFFFFFFFFFFFFFFFFFFFF AND PUSH12 0xFFFFFFFFFFFFFFFFFFFFFFFF AND PUSH12 0xFFFFFFFFFFFFFFFFFFFFFFFF AND DUP2 MSTORE PUSH1 0x20 ADD PUSH1 0x1 DUP3 ADD PUSH1 0x0 SWAP1 SLOAD SWAP1 PUSH2 0x100 EXP SWAP1 DIV PUSH20 0xFFFFFFFFFFFFFFFFFFFFFFFFFFFFFFFFFFFFFFFF AND PUSH20 0xFFFFFFFFFFFFFFFFFFFFFFFFFFFFFFFFFFFFFFFF AND PUSH20 0xFFFFFFFFFFFFFFFFFFFFFFFFFFFFFFFFFFFFFFFF AND DUP2 MSTORE POP POP DUP11 DUP10 PUSH2 0x36E5 SWAP1 SWAP4 SWAP3 SWAP2 SWAP1 PUSH4 0xFFFFFFFF AND JUMP JUMPDEST SWAP3 POP SWAP3 POP SWAP3 POP PUSH1 0x0 DUP4 PUSH12 0xFFFFFFFFFFFFFFFFFFFFFFFF AND SUB PUSH2 0x2A8D JUMPI PUSH2 0x2A7E DUP6 DUP6 DUP11 PUSH2 0x38D1 JUMP JUMPDEST PUSH1 0x1 SWAP7 POP POP POP POP POP POP POP PUSH2 0x2AE9 JUMP JUMPDEST PUSH2 0x2AB6 DUP6 PUSH2 0x2AB0 ADDRESS PUSH20 0xFFFFFFFFFFFFFFFFFFFFFFFFFFFFFFFFFFFFFFFF AND PUSH2 0x2413 JUMP JUMPDEST DUP6 PUSH2 0x38D1 JUMP JUMPDEST PUSH1 0x0 DUP2 PUSH12 0xFFFFFFFFFFFFFFFFFFFFFFFF AND GT ISZERO PUSH2 0x2AD7 JUMPI PUSH2 0x2AD6 DUP2 PUSH2 0x3AE4 JUMP JUMPDEST JUMPDEST PUSH2 0x2AE2 DUP6 DUP6 DUP5 PUSH2 0x38D1 JUMP JUMPDEST POP POP POP POP POP POP JUMPDEST SWAP4 SWAP3 POP POP POP JUMP JUMPDEST PUSH1 0x0 PUSH32 0x8B73C3C69BB8FE3D512ECC4CF759CC79239F7B179B0FFACAA9A75D522B39400F PUSH1 0x0 SHL PUSH32 0x0 PUSH32 0x0 CHAINID ADDRESS PUSH1 0x40 MLOAD PUSH1 0x20 ADD PUSH2 0x2B6E SWAP6 SWAP5 SWAP4 SWAP3 SWAP2 SWAP1 PUSH2 0x55AE JUMP JUMPDEST PUSH1 0x40 MLOAD PUSH1 0x20 DUP2 DUP4 SUB SUB DUP2 MSTORE SWAP1 PUSH1 0x40 MSTORE DUP1 MLOAD SWAP1 PUSH1 0x20 ADD KECCAK256 SWAP1 POP SWAP1 JUMP JUMPDEST PUSH1 0x0 PUSH2 0x2B93 PUSH2 0x2481 JUMP JUMPDEST PUSH1 0x7 ADD PUSH1 0x1 ADD PUSH1 0x0 DUP5 PUSH20 0xFFFFFFFFFFFFFFFFFFFFFFFFFFFFFFFFFFFFFFFF AND PUSH20 0xFFFFFFFFFFFFFFFFFFFFFFFFFFFFFFFFFFFFFFFF AND DUP2 MSTORE PUSH1 0x20 ADD SWAP1 DUP2 MSTORE PUSH1 0x20 ADD PUSH1 0x0 KECCAK256 PUSH1 0x0 DUP4 PUSH20 0xFFFFFFFFFFFFFFFFFFFFFFFFFFFFFFFFFFFFFFFF AND PUSH20 0xFFFFFFFFFFFFFFFFFFFFFFFFFFFFFFFFFFFFFFFF AND DUP2 MSTORE PUSH1 0x20 ADD SWAP1 DUP2 MSTORE PUSH1 0x20 ADD PUSH1 0x0 KECCAK256 SLOAD SWAP1 POP SWAP3 SWAP2 POP POP JUMP JUMPDEST PUSH1 0x0 DUP1 PUSH2 0x2C27 PUSH2 0x3397 JUMP JUMPDEST PUSH1 0x7 ADD SWAP1 POP CALLER PUSH1 0x0 MSTORE PUSH1 0x0 DUP2 ADD PUSH1 0x20 MSTORE PUSH1 0x40 PUSH1 0x0 KECCAK256 SLOAD PUSH2 0xFFFF DUP2 AND PUSH1 0x1 PUSH1 0xF SHL DUP2 AND PUSH1 0x1 PUSH1 0xE SHL DUP3 AND OR ISZERO PUSH2 0x2C91 JUMPI PUSH3 0x10000 DUP6 LT PUSH2 0x2C65 JUMPI PUSH1 0x0 DUP1 REVERT JUMPDEST DUP6 PUSH1 0x0 MSTORE PUSH1 0x0 DUP4 ADD PUSH1 0x20 MSTORE PUSH1 0x40 PUSH1 0x0 KECCAK256 DUP1 SLOAD PUSH2 0xFFFF PUSH1 0x0 SHL DUP1 DUP9 PUSH1 0x0 SHL AND DUP2 NOT DUP4 AND OR SWAP2 POP DUP2 DUP4 SSTORE POP POP POP JUMPDEST PUSH1 0x1 SWAP4 POP POP POP POP SWAP3 SWAP2 POP POP JUMP JUMPDEST PUSH1 0x0 DUP1 PUSH2 0x2CA9 PUSH2 0x3397 JUMP JUMPDEST PUSH1 0x3 ADD SWAP1 POP PUSH1 0x0 PUSH2 0x2CB8 PUSH2 0x3397 JUMP JUMPDEST PUSH1 0x7 ADD SWAP1 POP CALLER PUSH1 0x0 MSTORE PUSH1 0x0 DUP2 ADD PUSH1 0x20 MSTORE PUSH1 0x40 PUSH1 0x0 KECCAK256 SLOAD PUSH2 0xFFFF DUP2 AND PUSH1 0x1 PUSH1 0xF SHL DUP2 AND PUSH1 0x1 PUSH1 0xE SHL DUP3 AND OR ISZERO PUSH2 0x2D11 JUMPI PUSH3 0xE4E1C1 DUP7 LT PUSH2 0x2CF6 JUMPI PUSH1 0x0 DUP1 REVERT JUMPDEST DUP4 SLOAD PUSH2 0xFFFF PUSH1 0x98 SHL DUP1 DUP9 PUSH1 0x98 SHL AND DUP2 NOT DUP4 AND OR SWAP2 POP DUP2 DUP7 SSTORE POP POP JUMPDEST PUSH1 0x1 SWAP5 POP POP POP POP POP SWAP2 SWAP1 POP JUMP JUMPDEST PUSH1 0x0 PUSH2 0x2D34 PUSH1 0xA DUP4 PUSH2 0x444D SWAP1 SWAP2 SWAP1 PUSH4 0xFFFFFFFF AND JUMP JUMPDEST SWAP1 POP SWAP2 SWAP1 POP JUMP JUMPDEST PUSH1 0x0 DUP1 PUSH2 0x2D46 PUSH2 0x3397 JUMP JUMPDEST PUSH1 0x3 ADD SWAP1 POP PUSH1 0x0 PUSH2 0x2D55 PUSH2 0x3397 JUMP JUMPDEST PUSH1 0x7 ADD SWAP1 POP CALLER PUSH1 0x0 MSTORE PUSH1 0x0 DUP2 ADD PUSH1 0x20 MSTORE PUSH1 0x40 PUSH1 0x0 KECCAK256 SLOAD PUSH2 0xFFFF DUP2 AND PUSH1 0x1 PUSH1 0xF SHL DUP2 AND PUSH1 0x1 PUSH1 0xE SHL DUP3 AND OR ISZERO PUSH2 0x2DBB JUMPI PUSH1 0x20 DUP7 ADD MLOAD PUSH1 0x40 DUP8 ADD MLOAD PUSH1 0x60 DUP9 ADD MLOAD DUP1 ISZERO DUP3 ISZERO DUP5 ISZERO OR OR ISZERO PUSH2 0x2DA5 JUMPI PUSH1 0x0 DUP1 REVERT JUMPDEST DUP3 PUSH1 0x1 DUP9 ADD SSTORE DUP2 PUSH1 0x2 DUP9 ADD SSTORE DUP1 PUSH1 0x3 DUP9 ADD SSTORE POP POP POP JUMPDEST PUSH1 0x1 SWAP5 POP POP POP POP POP SWAP2 SWAP1 POP JUMP JUMPDEST PUSH1 0x0 DUP1 PUSH2 0x2DD3 PUSH2 0x3397 JUMP JUMPDEST PUSH1 0x3 ADD SWAP1 POP PUSH1 0x0 PUSH2 0x2DE2 PUSH2 0x3397 JUMP JUMPDEST PUSH1 0x7 ADD SWAP1 POP CALLER PUSH1 0x0 MSTORE PUSH1 0x0 DUP2 ADD PUSH1 0x20 MSTORE PUSH1 0x40 PUSH1 0x0 KECCAK256 SLOAD PUSH2 0xFFFF DUP2 AND PUSH1 0x1 PUSH1 0xF SHL DUP2 AND PUSH1 0x1 PUSH1 0xE SHL DUP3 AND OR ISZERO PUSH2 0x2E3A JUMPI PUSH2 0x2711 DUP7 LT PUSH2 0x2E1F JUMPI PUSH1 0x0 DUP1 REVERT JUMPDEST DUP4 SLOAD PUSH2 0xFFFF PUSH1 0x88 SHL DUP1 DUP9 PUSH1 0x88 SHL AND DUP2 NOT DUP4 AND OR SWAP2 POP DUP2 DUP7 SSTORE POP POP JUMPDEST PUSH1 0x1 SWAP5 POP POP POP POP POP SWAP2 SWAP1 POP JUMP JUMPDEST PUSH1 0x0 DUP1 PUSH2 0x2E52 PUSH2 0x3397 JUMP JUMPDEST PUSH1 0x3 ADD SWAP1 POP PUSH1 0x0 PUSH2 0x2E61 PUSH2 0x3397 JUMP JUMPDEST PUSH1 0x7 ADD SWAP1 POP CALLER PUSH1 0x0 MSTORE PUSH1 0x0 DUP2 ADD PUSH1 0x20 MSTORE PUSH1 0x40 PUSH1 0x0 KECCAK256 SLOAD PUSH2 0xFFFF DUP2 AND PUSH1 0x1 PUSH1 0xF SHL DUP2 AND PUSH1 0x1 PUSH1 0xE SHL DUP3 AND OR ISZERO PUSH2 0x2F61 JUMPI DUP6 PUSH1 0x40 SHR PUSH2 0xFFFF DUP8 PUSH1 0x30 SHR AND PUSH2 0xFFFF DUP9 PUSH1 0x20 SHR AND PUSH2 0xFFFF DUP10 PUSH1 0x10 SHR AND PUSH2 0xFFFF DUP11 AND DUP1 DUP3 DUP5 DUP7 DUP9 ADD ADD ADD ADD PUSH2 0x2710 DUP2 EQ PUSH2 0x2EC8 JUMPI PUSH1 0x0 DUP1 REVERT JUMPDEST DUP10 SLOAD PUSH1 0x0 JUMPDEST PUSH1 0x5 DUP2 LT ISZERO PUSH2 0x2F55 JUMPI PUSH2 0xFFFF PUSH1 0x10 DUP3 MUL PUSH1 0x38 ADD SHL PUSH1 0x0 DUP3 PUSH1 0x0 DUP2 EQ PUSH2 0x2F11 JUMPI PUSH1 0x1 DUP2 EQ PUSH2 0x2F19 JUMPI PUSH1 0x2 DUP2 EQ PUSH2 0x2F21 JUMPI PUSH1 0x3 DUP2 EQ PUSH2 0x2F29 JUMPI PUSH1 0x4 DUP2 EQ PUSH2 0x2F31 JUMPI PUSH2 0x2F35 JUMP JUMPDEST DUP11 SWAP2 POP PUSH2 0x2F35 JUMP JUMPDEST DUP10 SWAP2 POP PUSH2 0x2F35 JUMP JUMPDEST DUP9 SWAP2 POP PUSH2 0x2F35 JUMP JUMPDEST DUP8 SWAP2 POP PUSH2 0x2F35 JUMP JUMPDEST DUP7 SWAP2 POP JUMPDEST POP DUP2 DUP2 PUSH1 0x10 DUP6 MUL PUSH1 0x38 ADD SHL AND DUP3 NOT DUP6 AND OR SWAP4 POP POP POP PUSH1 0x1 DUP2 ADD SWAP1 POP PUSH2 0x2ECD JUMP JUMPDEST POP DUP1 DUP12 SSTORE POP POP POP POP POP POP POP JUMPDEST PUSH1 0x1 SWAP5 POP POP POP POP POP SWAP2 SWAP1 POP JUMP JUMPDEST PUSH1 0x0 PUSH2 0x2F78 PUSH2 0x2481 JUMP JUMPDEST SWAP1 POP PUSH1 0x0 DUP2 PUSH1 0x1 ADD PUSH1 0x0 SWAP1 SLOAD SWAP1 PUSH2 0x100 EXP SWAP1 DIV PUSH20 0xFFFFFFFFFFFFFFFFFFFFFFFFFFFFFFFFFFFFFFFF AND SWAP1 POP DUP3 DUP3 PUSH1 0x1 ADD PUSH1 0x0 PUSH2 0x100 EXP DUP2 SLOAD DUP2 PUSH20 0xFFFFFFFFFFFFFFFFFFFFFFFFFFFFFFFFFFFFFFFF MUL NOT AND SWAP1 DUP4 PUSH20 0xFFFFFFFFFFFFFFFFFFFFFFFFFFFFFFFFFFFFFFFF AND MUL OR SWAP1 SSTORE POP DUP3 PUSH20 0xFFFFFFFFFFFFFFFFFFFFFFFFFFFFFFFFFFFFFFFF AND DUP2 PUSH20 0xFFFFFFFFFFFFFFFFFFFFFFFFFFFFFFFFFFFFFFFF AND PUSH32 0x8BE0079C531659141344CD1FD0A4F28419497F9722A3DAAFE3B4186F6B6457E0 PUSH1 0x40 MLOAD PUSH1 0x40 MLOAD DUP1 SWAP2 SUB SWAP1 LOG3 POP POP POP JUMP JUMPDEST PUSH2 0x305C PUSH1 0xB PUSH1 0x1 DUP4 PUSH2 0x33C4 SWAP1 SWAP3 SWAP2 SWAP1 PUSH4 0xFFFFFFFF AND JUMP JUMPDEST POP JUMP JUMPDEST PUSH1 0x60 PUSH1 0x40 MLOAD SWAP1 POP PUSH1 0x40 DUP2 ADD PUSH1 0x40 MSTORE PUSH1 0x0 DUP2 MSTORE DUP2 PUSH1 0x1F DUP3 ADD MSTORE PUSH1 0x0 DUP2 MLOAD PUSH1 0x20 DUP4 ADD ADD MSTORE SWAP2 SWAP1 POP JUMP JUMPDEST DUP2 PUSH2 0x308F PUSH2 0x2481 JUMP JUMPDEST PUSH1 0x7 ADD PUSH1 0x1 ADD PUSH1 0x0 DUP7 PUSH20 0xFFFFFFFFFFFFFFFFFFFFFFFFFFFFFFFFFFFFFFFF AND PUSH20 0xFFFFFFFFFFFFFFFFFFFFFFFFFFFFFFFFFFFFFFFF AND DUP2 MSTORE PUSH1 0x20 ADD SWAP1 DUP2 MSTORE PUSH1 0x20 ADD PUSH1 0x0 KECCAK256 PUSH1 0x0 DUP6 PUSH20 0xFFFFFFFFFFFFFFFFFFFFFFFFFFFFFFFFFFFFFFFF AND PUSH20 0xFFFFFFFFFFFFFFFFFFFFFFFFFFFFFFFFFFFFFFFF AND DUP2 MSTORE PUSH1 0x20 ADD SWAP1 DUP2 MSTORE PUSH1 0x20 ADD PUSH1 0x0 KECCAK256 DUP2 SWAP1 SSTORE POP DUP1 ISZERO PUSH2 0x317F JUMPI DUP3 PUSH20 0xFFFFFFFFFFFFFFFFFFFFFFFFFFFFFFFFFFFFFFFF AND DUP5 PUSH20 0xFFFFFFFFFFFFFFFFFFFFFFFFFFFFFFFFFFFFFFFF AND PUSH32 0x8C5BE1E5EBEC7D5BD14F71427D1E84F3DD0314C0F7B2291E5B200AC8C7C3B925 DUP5 PUSH1 0x40 MLOAD PUSH2 0x3176 SWAP2 SWAP1 PUSH2 0x48B9 JUMP JUMPDEST PUSH1 0x40 MLOAD DUP1 SWAP2 SUB SWAP1 LOG3 JUMPDEST POP POP POP POP JUMP JUMPDEST PUSH1 0x0 DUP1 PUSH2 0x3190 PUSH2 0x3397 JUMP JUMPDEST PUSH1 0x3 ADD SWAP1 POP PUSH1 0x0 PUSH2 0x319F PUSH2 0x3397 JUMP JUMPDEST PUSH1 0x7 ADD SWAP1 POP CALLER PUSH1 0x0 MSTORE PUSH1 0x0 DUP2 ADD PUSH1 0x20 MSTORE PUSH1 0x40 PUSH1 0x0 KECCAK256 SLOAD PUSH2 0xFFFF DUP2 AND PUSH1 0x1 PUSH1 0xF SHL DUP2 AND PUSH1 0x1 PUSH1 0xE SHL DUP3 AND OR ISZERO PUSH2 0x3273 JUMPI DUP6 PUSH1 0x20 SHR PUSH2 0xFFFF DUP8 PUSH1 0x10 SHR AND PUSH2 0xFFFF DUP9 AND PUSH2 0x3E9 DUP2 LT ISZERO PUSH2 0x3E9 DUP4 LT ISZERO PUSH2 0x3E9 DUP6 LT ISZERO OR OR ISZERO PUSH2 0x31FD JUMPI PUSH1 0x0 DUP1 REVERT JUMPDEST DUP7 SLOAD PUSH1 0x0 JUMPDEST PUSH1 0x3 DUP2 LT ISZERO PUSH2 0x326A JUMPI PUSH2 0xFFFF PUSH1 0x10 DUP3 MUL PUSH1 0x8 ADD SHL PUSH1 0x0 DUP3 PUSH1 0x0 DUP2 EQ PUSH2 0x3236 JUMPI PUSH1 0x1 DUP2 EQ PUSH2 0x323E JUMPI PUSH1 0x2 DUP2 EQ PUSH2 0x3246 JUMPI PUSH2 0x324A JUMP JUMPDEST DUP8 SWAP2 POP PUSH2 0x324A JUMP JUMPDEST DUP7 SWAP2 POP PUSH2 0x324A JUMP JUMPDEST DUP6 SWAP2 POP JUMPDEST POP DUP2 DUP2 PUSH1 0x10 DUP6 MUL PUSH1 0x8 ADD SHL AND DUP3 NOT DUP6 AND OR SWAP4 POP POP POP PUSH1 0x1 DUP2 ADD SWAP1 POP PUSH2 0x3202 JUMP JUMPDEST POP DUP1 DUP9 SSTORE POP POP POP POP JUMPDEST PUSH1 0x1 SWAP5 POP POP POP POP POP SWAP2 SWAP1 POP JUMP JUMPDEST PUSH1 0x0 DUP1 PUSH2 0x32A2 DUP4 PUSH20 0xFFFFFFFFFFFFFFFFFFFFFFFFFFFFFFFFFFFFFFFF AND PUSH2 0x2413 JUMP JUMPDEST SWAP1 POP PUSH8 0xFFFFFFFFFFFFFFFF DUP1 AND DUP2 PUSH1 0x0 ADD PUSH1 0x2 SWAP1 SLOAD SWAP1 PUSH2 0x100 EXP SWAP1 DIV PUSH8 0xFFFFFFFFFFFFFFFF AND PUSH8 0xFFFFFFFFFFFFFFFF AND LT PUSH2 0x3304 JUMPI PUSH1 0x0 DUP2 PUSH1 0x0 ADD PUSH1 0x2 PUSH2 0x100 EXP DUP2 SLOAD DUP2 PUSH8 0xFFFFFFFFFFFFFFFF MUL NOT AND SWAP1 DUP4 PUSH8 0xFFFFFFFFFFFFFFFF AND MUL OR SWAP1 SSTORE POP JUMPDEST DUP1 PUSH1 0x0 ADD PUSH1 0x2 DUP2 DUP2 SWAP1 SLOAD SWAP1 PUSH2 0x100 EXP SWAP1 DIV PUSH8 0xFFFFFFFFFFFFFFFF AND DUP1 SWAP3 SWAP2 SWAP1 PUSH1 0x1 ADD SWAP2 SWAP1 PUSH2 0x100 EXP DUP2 SLOAD DUP2 PUSH8 0xFFFFFFFFFFFFFFFF MUL NOT AND SWAP1 DUP4 PUSH8 0xFFFFFFFFFFFFFFFF AND MUL OR SWAP1 SSTORE POP PUSH8 0xFFFFFFFFFFFFFFFF AND SWAP2 POP POP SWAP2 SWAP1 POP JUMP JUMPDEST PUSH1 0x0 PUSH2 0x3368 PUSH2 0xC9F JUMP JUMPDEST DUP3 PUSH1 0x40 MLOAD PUSH1 0x20 ADD PUSH2 0x337A SWAP3 SWAP2 SWAP1 PUSH2 0x5679 JUMP JUMPDEST PUSH1 0x40 MLOAD PUSH1 0x20 DUP2 DUP4 SUB SUB DUP2 MSTORE SWAP1 PUSH1 0x40 MSTORE DUP1 MLOAD SWAP1 PUSH1 0x20 ADD KECCAK256 SWAP1 POP SWAP2 SWAP1 POP JUMP JUMPDEST PUSH1 0x0 DUP1 PUSH32 0xCF0F5A17FF929F1DB01C46F651A261919D57BA1FF3775E726349A00871888924 SWAP1 POP DUP1 SWAP2 POP POP SWAP1 JUMP JUMPDEST DUP1 PUSH2 0x33EF JUMPI DUP2 PUSH1 0xFF AND PUSH1 0x1 SWAP1 SHL NOT DUP4 PUSH1 0x0 ADD PUSH1 0x0 SWAP1 SLOAD SWAP1 PUSH2 0x100 EXP SWAP1 DIV PUSH2 0xFFFF AND PUSH2 0xFFFF AND AND PUSH2 0x3410 JUMP JUMPDEST DUP2 PUSH1 0xFF AND PUSH1 0x1 SWAP1 SHL DUP4 PUSH1 0x0 ADD PUSH1 0x0 SWAP1 SLOAD SWAP1 PUSH2 0x100 EXP SWAP1 DIV PUSH2 0xFFFF AND PUSH2 0xFFFF AND OR JUMPDEST DUP4 PUSH1 0x0 ADD PUSH1 0x0 PUSH2 0x100 EXP DUP2 SLOAD DUP2 PUSH2 0xFFFF MUL NOT AND SWAP1 DUP4 PUSH2 0xFFFF AND MUL OR SWAP1 SSTORE POP POP POP POP JUMP JUMPDEST PUSH1 0x0 PUSH2 0x3585 PUSH2 0x3457 DUP4 PUSH20 0xFFFFFFFFFFFFFFFFFFFFFFFFFFFFFFFFFFFFFFFF AND PUSH2 0x2413 JUMP JUMPDEST PUSH1 0x40 MLOAD DUP1 PUSH1 0xA0 ADD PUSH1 0x40 MSTORE SWAP1 DUP2 PUSH1 0x0 DUP3 ADD PUSH1 0x0 SWAP1 SLOAD SWAP1 PUSH2 0x100 EXP SWAP1 DIV PUSH2 0xFFFF AND PUSH2 0xFFFF AND PUSH2 0xFFFF AND DUP2 MSTORE PUSH1 0x20 ADD PUSH1 0x0 DUP3 ADD PUSH1 0x2 SWAP1 SLOAD SWAP1 PUSH2 0x100 EXP SWAP1 DIV PUSH8 0xFFFFFFFFFFFFFFFF AND PUSH8 0xFFFFFFFFFFFFFFFF AND PUSH8 0xFFFFFFFFFFFFFFFF AND DUP2 MSTORE PUSH1 0x20 ADD PUSH1 0x0 DUP3 ADD PUSH1 0xA SWAP1 SLOAD SWAP1 PUSH2 0x100 EXP SWAP1 DIV PUSH10 0xFFFFFFFFFFFFFFFFFFFF AND PUSH10 0xFFFFFFFFFFFFFFFFFFFF AND PUSH10 0xFFFFFFFFFFFFFFFFFFFF AND DUP2 MSTORE PUSH1 0x20 ADD PUSH1 0x0 DUP3 ADD PUSH1 0x14 SWAP1 SLOAD SWAP1 PUSH2 0x100 EXP SWAP1 DIV PUSH12 0xFFFFFFFFFFFFFFFFFFFFFFFF AND PUSH12 0xFFFFFFFFFFFFFFFFFFFFFFFF AND PUSH12 0xFFFFFFFFFFFFFFFFFFFFFFFF AND DUP2 MSTORE PUSH1 0x20 ADD PUSH1 0x1 DUP3 ADD PUSH1 0x0 SWAP1 SLOAD SWAP1 PUSH2 0x100 EXP SWAP1 DIV PUSH20 0xFFFFFFFFFFFFFFFFFFFFFFFFFFFFFFFFFFFFFFFF AND PUSH20 0xFFFFFFFFFFFFFFFFFFFFFFFFFFFFFFFFFFFFFFFF AND PUSH20 0xFFFFFFFFFFFFFFFFFFFFFFFFFFFFFFFFFFFFFFFF AND DUP2 MSTORE POP POP PUSH2 0x446F JUMP JUMPDEST SWAP1 POP SWAP2 SWAP1 POP JUMP JUMPDEST PUSH1 0x0 PUSH2 0x36DE PUSH2 0x35B0 DUP4 PUSH20 0xFFFFFFFFFFFFFFFFFFFFFFFFFFFFFFFFFFFFFFFF AND PUSH2 0x2413 JUMP JUMPDEST PUSH1 0x40 MLOAD DUP1 PUSH1 0xA0 ADD PUSH1 0x40 MSTORE SWAP1 DUP2 PUSH1 0x0 DUP3 ADD PUSH1 0x0 SWAP1 SLOAD SWAP1 PUSH2 0x100 EXP SWAP1 DIV PUSH2 0xFFFF AND PUSH2 0xFFFF AND PUSH2 0xFFFF AND DUP2 MSTORE PUSH1 0x20 ADD PUSH1 0x0 DUP3 ADD PUSH1 0x2 SWAP1 SLOAD SWAP1 PUSH2 0x100 EXP SWAP1 DIV PUSH8 0xFFFFFFFFFFFFFFFF AND PUSH8 0xFFFFFFFFFFFFFFFF AND PUSH8 0xFFFFFFFFFFFFFFFF AND DUP2 MSTORE PUSH1 0x20 ADD PUSH1 0x0 DUP3 ADD PUSH1 0xA SWAP1 SLOAD SWAP1 PUSH2 0x100 EXP SWAP1 DIV PUSH10 0xFFFFFFFFFFFFFFFFFFFF AND PUSH10 0xFFFFFFFFFFFFFFFFFFFF AND PUSH10 0xFFFFFFFFFFFFFFFFFFFF AND DUP2 MSTORE PUSH1 0x20 ADD PUSH1 0x0 DUP3 ADD PUSH1 0x14 SWAP1 SLOAD SWAP1 PUSH2 0x100 EXP SWAP1 DIV PUSH12 0xFFFFFFFFFFFFFFFFFFFFFFFF AND PUSH12 0xFFFFFFFFFFFFFFFFFFFFFFFF AND PUSH12 0xFFFFFFFFFFFFFFFFFFFFFFFF AND DUP2 MSTORE PUSH1 0x20 ADD PUSH1 0x1 DUP3 ADD PUSH1 0x0 SWAP1 SLOAD SWAP1 PUSH2 0x100 EXP SWAP1 DIV PUSH20 0xFFFFFFFFFFFFFFFFFFFFFFFFFFFFFFFFFFFFFFFF AND PUSH20 0xFFFFFFFFFFFFFFFFFFFFFFFFFFFFFFFFFFFFFFFF AND PUSH20 0xFFFFFFFFFFFFFFFFFFFFFFFFFFFFFFFFFFFFFFFF AND DUP2 MSTORE POP POP PUSH2 0x448C JUMP JUMPDEST SWAP1 POP SWAP2 SWAP1 POP JUMP JUMPDEST PUSH1 0x0 DUP1 PUSH1 0x0 PUSH2 0x36F3 DUP7 PUSH2 0x44A9 JUMP JUMPDEST DUP1 PUSH2 0x3703 JUMPI POP PUSH2 0x3702 DUP6 PUSH2 0x44A9 JUMP JUMPDEST JUMPDEST DUP1 PUSH2 0x371C JUMPI POP DUP7 PUSH1 0x2 ADD PUSH1 0xA SWAP1 SLOAD SWAP1 PUSH2 0x100 EXP SWAP1 DIV PUSH1 0xFF AND JUMPDEST ISZERO PUSH2 0x3731 JUMPI PUSH1 0x0 DUP5 PUSH1 0x0 SWAP3 POP SWAP3 POP SWAP3 POP PUSH2 0x38C7 JUMP JUMPDEST PUSH2 0x373A DUP6 PUSH2 0x2D1E JUMP JUMPDEST PUSH2 0x37A4 JUMPI PUSH2 0x2710 PUSH2 0xFFFF AND PUSH2 0x374E DUP8 PUSH2 0x2D1E JUMP JUMPDEST PUSH2 0x376D JUMPI DUP8 PUSH1 0x3 ADD PUSH1 0x0 ADD PUSH1 0x5 SWAP1 SLOAD SWAP1 PUSH2 0x100 EXP SWAP1 DIV PUSH2 0xFFFF AND PUSH2 0x3784 JUMP JUMPDEST DUP8 PUSH1 0x3 ADD PUSH1 0x0 ADD PUSH1 0x1 SWAP1 SLOAD SWAP1 PUSH2 0x100 EXP SWAP1 DIV PUSH2 0xFFFF AND JUMPDEST PUSH2 0xFFFF AND DUP6 PUSH2 0x3793 SWAP2 SWAP1 PUSH2 0x56B0 JUMP JUMPDEST PUSH2 0x379D SWAP2 SWAP1 PUSH2 0x571C JUMP JUMPDEST SWAP3 POP PUSH2 0x38B8 JUMP JUMPDEST PUSH2 0x2710 PUSH2 0xFFFF AND DUP8 PUSH1 0x3 ADD PUSH1 0x0 ADD PUSH1 0x3 SWAP1 SLOAD SWAP1 PUSH2 0x100 EXP SWAP1 DIV PUSH2 0xFFFF AND PUSH2 0xFFFF AND DUP6 PUSH2 0x37D0 SWAP2 SWAP1 PUSH2 0x56B0 JUMP JUMPDEST PUSH2 0x37DA SWAP2 SWAP1 PUSH2 0x571C JUMP JUMPDEST SWAP3 POP PUSH1 0x0 DUP8 PUSH1 0x3 ADD PUSH1 0x0 ADD PUSH1 0x11 SWAP1 SLOAD SWAP1 PUSH2 0x100 EXP SWAP1 DIV PUSH2 0xFFFF AND PUSH2 0xFFFF AND GT PUSH2 0x3862 JUMPI DUP7 PUSH1 0x7 ADD PUSH1 0x0 ADD PUSH1 0x0 ADDRESS PUSH20 0xFFFFFFFFFFFFFFFFFFFFFFFFFFFFFFFFFFFFFFFF AND PUSH20 0xFFFFFFFFFFFFFFFFFFFFFFFFFFFFFFFFFFFFFFFF AND DUP2 MSTORE PUSH1 0x20 ADD SWAP1 DUP2 MSTORE PUSH1 0x20 ADD PUSH1 0x0 KECCAK256 PUSH1 0x0 ADD PUSH1 0x14 SWAP1 SLOAD SWAP1 PUSH2 0x100 EXP SWAP1 DIV PUSH12 0xFFFFFFFFFFFFFFFFFFFFFFFF AND PUSH2 0x38B5 JUMP JUMPDEST PUSH2 0x2710 PUSH2 0xFFFF AND DUP8 PUSH1 0x3 ADD PUSH1 0x0 ADD PUSH1 0x11 SWAP1 SLOAD SWAP1 PUSH2 0x100 EXP SWAP1 DIV PUSH2 0xFFFF AND PUSH2 0xFFFF AND DUP9 PUSH1 0x1 ADD PUSH1 0x14 SWAP1 SLOAD SWAP1 PUSH2 0x100 EXP SWAP1 DIV PUSH12 0xFFFFFFFFFFFFFFFFFFFFFFFF AND PUSH2 0x38AA SWAP2 SWAP1 PUSH2 0x56B0 JUMP JUMPDEST PUSH2 0x38B4 SWAP2 SWAP1 PUSH2 0x571C JUMP JUMPDEST JUMPDEST SWAP1 POP JUMPDEST DUP3 DUP5 PUSH2 0x38C4 SWAP2 SWAP1 PUSH2 0x574D JUMP JUMPDEST SWAP2 POP JUMPDEST SWAP5 POP SWAP5 POP SWAP5 SWAP2 POP POP JUMP JUMPDEST DUP3 PUSH1 0x0 ADD PUSH1 0x14 SWAP1 SLOAD SWAP1 PUSH2 0x100 EXP SWAP1 DIV PUSH12 0xFFFFFFFFFFFFFFFFFFFFFFFF AND PUSH12 0xFFFFFFFFFFFFFFFFFFFFFFFF AND DUP2 PUSH12 0xFFFFFFFFFFFFFFFFFFFFFFFF AND GT ISZERO PUSH2 0x3992 JUMPI DUP3 PUSH1 0x1 ADD PUSH1 0x0 SWAP1 SLOAD SWAP1 PUSH2 0x100 EXP SWAP1 DIV PUSH20 0xFFFFFFFFFFFFFFFFFFFFFFFFFFFFFFFFFFFFFFFF AND DUP4 PUSH1 0x0 ADD PUSH1 0x14 SWAP1 SLOAD SWAP1 PUSH2 0x100 EXP SWAP1 DIV PUSH12 0xFFFFFFFFFFFFFFFFFFFFFFFF AND DUP3 PUSH1 0x40 MLOAD PUSH32 0xDB42144D00000000000000000000000000000000000000000000000000000000 DUP2 MSTORE PUSH1 0x4 ADD PUSH2 0x3989 SWAP4 SWAP3 SWAP2 SWAP1 PUSH2 0x57BE JUMP JUMPDEST PUSH1 0x40 MLOAD DUP1 SWAP2 SUB SWAP1 REVERT JUMPDEST DUP1 DUP4 PUSH1 0x0 ADD PUSH1 0x14 DUP3 DUP3 DUP3 SWAP1 SLOAD SWAP1 PUSH2 0x100 EXP SWAP1 DIV PUSH12 0xFFFFFFFFFFFFFFFFFFFFFFFF AND SUB SWAP3 POP PUSH2 0x100 EXP DUP2 SLOAD DUP2 PUSH12 0xFFFFFFFFFFFFFFFFFFFFFFFF MUL NOT AND SWAP1 DUP4 PUSH12 0xFFFFFFFFFFFFFFFFFFFFFFFF AND MUL OR SWAP1 SSTORE POP DUP1 DUP3 PUSH1 0x0 ADD PUSH1 0x14 DUP3 DUP3 DUP3 SWAP1 SLOAD SWAP1 PUSH2 0x100 EXP SWAP1 DIV PUSH12 0xFFFFFFFFFFFFFFFFFFFFFFFF AND ADD SWAP3 POP PUSH2 0x100 EXP DUP2 SLOAD DUP2 PUSH12 0xFFFFFFFFFFFFFFFFFFFFFFFF MUL NOT AND SWAP1 DUP4 PUSH12 0xFFFFFFFFFFFFFFFFFFFFFFFF AND MUL OR SWAP1 SSTORE POP DUP2 PUSH1 0x1 ADD PUSH1 0x0 SWAP1 SLOAD SWAP1 PUSH2 0x100 EXP SWAP1 DIV PUSH20 0xFFFFFFFFFFFFFFFFFFFFFFFFFFFFFFFFFFFFFFFF AND PUSH20 0xFFFFFFFFFFFFFFFFFFFFFFFFFFFFFFFFFFFFFFFF AND DUP4 PUSH1 0x1 ADD PUSH1 0x0 SWAP1 SLOAD SWAP1 PUSH2 0x100 EXP SWAP1 DIV PUSH20 0xFFFFFFFFFFFFFFFFFFFFFFFFFFFFFFFFFFFFFFFF AND PUSH20 0xFFFFFFFFFFFFFFFFFFFFFFFFFFFFFFFFFFFFFFFF AND PUSH32 0xDDF252AD1BE2C89B69C2B068FC378DAA952BA7F163C4A11628F55A4DF523B3EF DUP4 PUSH1 0x40 MLOAD PUSH2 0x3AD7 SWAP2 SWAP1 PUSH2 0x57F5 JUMP JUMPDEST PUSH1 0x40 MLOAD DUP1 SWAP2 SUB SWAP1 LOG3 POP POP POP JUMP JUMPDEST PUSH1 0x1 PUSH2 0x3AEE PUSH2 0x2481 JUMP JUMPDEST PUSH1 0x2 ADD PUSH1 0xA PUSH2 0x100 EXP DUP2 SLOAD DUP2 PUSH1 0xFF MUL NOT AND SWAP1 DUP4 ISZERO ISZERO MUL OR SWAP1 SSTORE POP PUSH1 0x0 PUSH2 0x3B12 PUSH2 0x2481 JUMP JUMPDEST PUSH1 0x3 ADD PUSH1 0x40 MLOAD DUP1 PUSH2 0x180 ADD PUSH1 0x40 MSTORE SWAP1 DUP2 PUSH1 0x0 DUP3 ADD PUSH1 0x0 SWAP1 SLOAD SWAP1 PUSH2 0x100 EXP SWAP1 DIV PUSH1 0xFF AND ISZERO ISZERO ISZERO ISZERO DUP2 MSTORE PUSH1 0x20 ADD PUSH1 0x0 DUP3 ADD PUSH1 0x1 SWAP1 SLOAD SWAP1 PUSH2 0x100 EXP SWAP1 DIV PUSH2 0xFFFF AND PUSH2 0xFFFF AND PUSH2 0xFFFF AND DUP2 MSTORE PUSH1 0x20 ADD PUSH1 0x0 DUP3 ADD PUSH1 0x3 SWAP1 SLOAD SWAP1 PUSH2 0x100 EXP SWAP1 DIV PUSH2 0xFFFF AND PUSH2 0xFFFF AND PUSH2 0xFFFF AND DUP2 MSTORE PUSH1 0x20 ADD PUSH1 0x0 DUP3 ADD PUSH1 0x5 SWAP1 SLOAD SWAP1 PUSH2 0x100 EXP SWAP1 DIV PUSH2 0xFFFF AND PUSH2 0xFFFF AND PUSH2 0xFFFF AND DUP2 MSTORE PUSH1 0x20 ADD PUSH1 0x0 DUP3 ADD PUSH1 0x7 SWAP1 SLOAD SWAP1 PUSH2 0x100 EXP SWAP1 DIV PUSH2 0xFFFF AND PUSH2 0xFFFF AND PUSH2 0xFFFF AND DUP2 MSTORE PUSH1 0x20 ADD PUSH1 0x0 DUP3 ADD PUSH1 0x9 SWAP1 SLOAD SWAP1 PUSH2 0x100 EXP SWAP1 DIV PUSH2 0xFFFF AND PUSH2 0xFFFF AND PUSH2 0xFFFF AND DUP2 MSTORE PUSH1 0x20 ADD PUSH1 0x0 DUP3 ADD PUSH1 0xB SWAP1 SLOAD SWAP1 PUSH2 0x100 EXP SWAP1 DIV PUSH2 0xFFFF AND PUSH2 0xFFFF AND PUSH2 0xFFFF AND DUP2 MSTORE PUSH1 0x20 ADD PUSH1 0x0 DUP3 ADD PUSH1 0xD SWAP1 SLOAD SWAP1 PUSH2 0x100 EXP SWAP1 DIV PUSH2 0xFFFF AND PUSH2 0xFFFF AND PUSH2 0xFFFF AND DUP2 MSTORE PUSH1 0x20 ADD PUSH1 0x0 DUP3 ADD PUSH1 0xF SWAP1 SLOAD SWAP1 PUSH2 0x100 EXP SWAP1 DIV PUSH2 0xFFFF AND PUSH2 0xFFFF AND PUSH2 0xFFFF AND DUP2 MSTORE PUSH1 0x20 ADD PUSH1 0x0 DUP3 ADD PUSH1 0x11 SWAP1 SLOAD SWAP1 PUSH2 0x100 EXP SWAP1 DIV PUSH2 0xFFFF AND PUSH2 0xFFFF AND PUSH2 0xFFFF AND DUP2 MSTORE PUSH1 0x20 ADD PUSH1 0x0 DUP3 ADD PUSH1 0x13 SWAP1 SLOAD SWAP1 PUSH2 0x100 EXP SWAP1 DIV PUSH3 0xFFFFFF AND PUSH3 0xFFFFFF AND PUSH3 0xFFFFFF AND DUP2 MSTORE PUSH1 0x20 ADD PUSH1 0x1 DUP3 ADD PUSH1 0x3 DUP1 PUSH1 0x20 MUL PUSH1 0x40 MLOAD SWAP1 DUP2 ADD PUSH1 0x40 MSTORE DUP1 SWAP3 SWAP2 SWAP1 DUP3 PUSH1 0x3 DUP1 ISZERO PUSH2 0x3CF1 JUMPI PUSH1 0x20 MUL DUP3 ADD SWAP2 JUMPDEST DUP2 PUSH1 0x0 SWAP1 SLOAD SWAP1 PUSH2 0x100 EXP SWAP1 DIV PUSH20 0xFFFFFFFFFFFFFFFFFFFFFFFFFFFFFFFFFFFFFFFF AND PUSH20 0xFFFFFFFFFFFFFFFFFFFFFFFFFFFFFFFFFFFFFFFF AND DUP2 MSTORE PUSH1 0x20 ADD SWAP1 PUSH1 0x1 ADD SWAP1 DUP1 DUP4 GT PUSH2 0x3CA7 JUMPI JUMPDEST POP POP POP POP POP DUP2 MSTORE POP POP SWAP1 POP PUSH1 0x0 PUSH1 0x2 PUSH8 0xFFFFFFFFFFFFFFFF DUP2 GT ISZERO PUSH2 0x3D19 JUMPI PUSH2 0x3D18 PUSH2 0x4C5F JUMP JUMPDEST JUMPDEST PUSH1 0x40 MLOAD SWAP1 DUP1 DUP3 MSTORE DUP1 PUSH1 0x20 MUL PUSH1 0x20 ADD DUP3 ADD PUSH1 0x40 MSTORE DUP1 ISZERO PUSH2 0x3D47 JUMPI DUP2 PUSH1 0x20 ADD PUSH1 0x20 DUP3 MUL DUP1 CALLDATASIZE DUP4 CALLDATACOPY DUP1 DUP3 ADD SWAP2 POP POP SWAP1 POP JUMPDEST POP SWAP1 POP ADDRESS DUP2 PUSH1 0x0 DUP2 MLOAD DUP2 LT PUSH2 0x3D5F JUMPI PUSH2 0x3D5E PUSH2 0x52C1 JUMP JUMPDEST JUMPDEST PUSH1 0x20 MUL PUSH1 0x20 ADD ADD SWAP1 PUSH20 0xFFFFFFFFFFFFFFFFFFFFFFFFFFFFFFFFFFFFFFFF AND SWAP1 DUP2 PUSH20 0xFFFFFFFFFFFFFFFFFFFFFFFFFFFFFFFFFFFFFFFF AND DUP2 MSTORE POP POP PUSH20 0x10ED43C718714EB63D5AA57B78B54704E256024E PUSH20 0xFFFFFFFFFFFFFFFFFFFFFFFFFFFFFFFFFFFFFFFF AND PUSH4 0xAD5C4648 PUSH1 0x40 MLOAD DUP2 PUSH4 0xFFFFFFFF AND PUSH1 0xE0 SHL DUP2 MSTORE PUSH1 0x4 ADD PUSH1 0x20 PUSH1 0x40 MLOAD DUP1 DUP4 SUB DUP2 DUP7 GAS STATICCALL ISZERO DUP1 ISZERO PUSH2 0x3DF8 JUMPI RETURNDATASIZE PUSH1 0x0 DUP1 RETURNDATACOPY RETURNDATASIZE PUSH1 0x0 REVERT JUMPDEST POP POP POP POP PUSH1 0x40 MLOAD RETURNDATASIZE PUSH1 0x1F NOT PUSH1 0x1F DUP3 ADD AND DUP3 ADD DUP1 PUSH1 0x40 MSTORE POP DUP2 ADD SWAP1 PUSH2 0x3E1C SWAP2 SWAP1 PUSH2 0x53B7 JUMP JUMPDEST DUP2 PUSH1 0x1 DUP2 MLOAD DUP2 LT PUSH2 0x3E30 JUMPI PUSH2 0x3E2F PUSH2 0x52C1 JUMP JUMPDEST JUMPDEST PUSH1 0x20 MUL PUSH1 0x20 ADD ADD SWAP1 PUSH20 0xFFFFFFFFFFFFFFFFFFFFFFFFFFFFFFFFFFFFFFFF AND SWAP1 DUP2 PUSH20 0xFFFFFFFFFFFFFFFFFFFFFFFFFFFFFFFFFFFFFFFF AND DUP2 MSTORE POP POP PUSH1 0x0 DUP1 PUSH2 0x2710 SWAP1 POP PUSH1 0x0 DUP5 PUSH2 0x100 ADD MLOAD PUSH2 0xFFFF AND GT ISZERO PUSH2 0x3EF8 JUMPI PUSH1 0x2 DUP2 PUSH2 0xFFFF AND DUP6 PUSH2 0x100 ADD MLOAD PUSH2 0xFFFF AND DUP8 MUL PUSH12 0xFFFFFFFFFFFFFFFFFFFFFFFF AND DUP2 PUSH2 0x3EB3 JUMPI PUSH2 0x3EB2 PUSH2 0x56ED JUMP JUMPDEST JUMPDEST DIV PUSH12 0xFFFFFFFFFFFFFFFFFFFFFFFF AND DUP2 PUSH2 0x3ED0 JUMPI PUSH2 0x3ECF PUSH2 0x56ED JUMP JUMPDEST JUMPDEST DIV SWAP2 POP DUP2 DUP6 SUB SWAP5 POP PUSH1 0x2 DUP5 PUSH2 0x100 ADD MLOAD PUSH2 0xFFFF AND DUP2 PUSH2 0x3EF2 JUMPI PUSH2 0x3EF1 PUSH2 0x56ED JUMP JUMPDEST JUMPDEST DIV DUP2 SUB SWAP1 POP JUMPDEST PUSH1 0x0 SELFBALANCE SWAP1 POP PUSH20 0x10ED43C718714EB63D5AA57B78B54704E256024E PUSH20 0xFFFFFFFFFFFFFFFFFFFFFFFFFFFFFFFFFFFFFFFF AND PUSH4 0x18CBAFE5 DUP8 PUSH1 0x0 DUP8 ADDRESS TIMESTAMP PUSH1 0x40 MLOAD DUP7 PUSH4 0xFFFFFFFF AND PUSH1 0xE0 SHL DUP2 MSTORE PUSH1 0x4 ADD PUSH2 0x3F53 SWAP6 SWAP5 SWAP4 SWAP3 SWAP2 SWAP1 PUSH2 0x58FA JUMP JUMPDEST PUSH1 0x0 PUSH1 0x40 MLOAD DUP1 DUP4 SUB DUP2 PUSH1 0x0 DUP8 GAS CALL ISZERO DUP1 ISZERO PUSH2 0x3F72 JUMPI RETURNDATASIZE PUSH1 0x0 DUP1 RETURNDATACOPY RETURNDATASIZE PUSH1 0x0 REVERT JUMPDEST POP POP POP POP PUSH1 0x40 MLOAD RETURNDATASIZE PUSH1 0x0 DUP3 RETURNDATACOPY RETURNDATASIZE PUSH1 0x1F NOT PUSH1 0x1F DUP3 ADD AND DUP3 ADD DUP1 PUSH1 0x40 MSTORE POP DUP2 ADD SWAP1 PUSH2 0x3F9B SWAP2 SWAP1 PUSH2 0x5A1C JUMP JUMPDEST POP PUSH1 0x0 DUP1 DUP3 SELFBALANCE SUB SWAP1 POP PUSH1 0x0 DUP1 PUSH1 0x0 DUP1 PUSH1 0x0 DUP12 PUSH1 0x80 ADD MLOAD PUSH2 0xFFFF AND GT ISZERO PUSH2 0x3FEB JUMPI DUP8 PUSH2 0xFFFF AND DUP12 PUSH1 0x80 ADD MLOAD PUSH2 0xFFFF AND DUP7 MUL PUSH12 0xFFFFFFFFFFFFFFFFFFFFFFFF AND DUP2 PUSH2 0x3FE7 JUMPI PUSH2 0x3FE6 PUSH2 0x56ED JUMP JUMPDEST JUMPDEST DIV SWAP4 POP JUMPDEST PUSH1 0x0 DUP12 PUSH1 0xA0 ADD MLOAD PUSH2 0xFFFF AND GT ISZERO PUSH2 0x402C JUMPI DUP8 PUSH2 0xFFFF AND DUP12 PUSH1 0xA0 ADD MLOAD PUSH2 0xFFFF AND DUP7 MUL PUSH12 0xFFFFFFFFFFFFFFFFFFFFFFFF AND DUP2 PUSH2 0x4028 JUMPI PUSH2 0x4027 PUSH2 0x56ED JUMP JUMPDEST JUMPDEST DIV SWAP3 POP JUMPDEST PUSH1 0x0 DUP12 PUSH1 0xC0 ADD MLOAD PUSH2 0xFFFF AND GT ISZERO PUSH2 0x406D JUMPI DUP8 PUSH2 0xFFFF AND DUP12 PUSH1 0xC0 ADD MLOAD PUSH2 0xFFFF AND DUP7 MUL PUSH12 0xFFFFFFFFFFFFFFFFFFFFFFFF AND DUP2 PUSH2 0x4069 JUMPI PUSH2 0x4068 PUSH2 0x56ED JUMP JUMPDEST JUMPDEST DIV SWAP2 POP JUMPDEST PUSH1 0x0 DUP12 PUSH1 0xE0 ADD MLOAD PUSH2 0xFFFF AND GT ISZERO PUSH2 0x40AE JUMPI DUP8 PUSH2 0xFFFF AND DUP12 PUSH1 0xE0 ADD MLOAD PUSH2 0xFFFF AND DUP7 MUL PUSH12 0xFFFFFFFFFFFFFFFFFFFFFFFF AND DUP2 PUSH2 0x40AA JUMPI PUSH2 0x40A9 PUSH2 0x56ED JUMP JUMPDEST JUMPDEST DIV SWAP1 POP JUMPDEST PUSH1 0x0 DUP5 PUSH12 0xFFFFFFFFFFFFFFFFFFFFFFFF AND GT ISZERO PUSH2 0x40D0 JUMPI PUSH2 0x40CF ADDRESS DUP6 PUSH2 0x44C6 JUMP JUMPDEST JUMPDEST PUSH1 0x0 DUP2 PUSH12 0xFFFFFFFFFFFFFFFFFFFFFFFF AND GT ISZERO PUSH2 0x418C JUMPI DUP11 PUSH2 0x160 ADD MLOAD PUSH1 0x0 PUSH1 0x3 DUP2 LT PUSH2 0x4100 JUMPI PUSH2 0x40FF PUSH2 0x52C1 JUMP JUMPDEST JUMPDEST PUSH1 0x20 MUL ADD MLOAD PUSH20 0xFFFFFFFFFFFFFFFFFFFFFFFFFFFFFFFFFFFFFFFF AND DUP2 PUSH12 0xFFFFFFFFFFFFFFFFFFFFFFFF AND DUP13 PUSH2 0x140 ADD MLOAD PUSH3 0xFFFFFF AND SWAP1 PUSH1 0x40 MLOAD PUSH2 0x4142 SWAP1 PUSH2 0x5321 JUMP JUMPDEST PUSH1 0x0 PUSH1 0x40 MLOAD DUP1 DUP4 SUB DUP2 DUP6 DUP9 DUP9 CALL SWAP4 POP POP POP POP RETURNDATASIZE DUP1 PUSH1 0x0 DUP2 EQ PUSH2 0x4180 JUMPI PUSH1 0x40 MLOAD SWAP2 POP PUSH1 0x1F NOT PUSH1 0x3F RETURNDATASIZE ADD AND DUP3 ADD PUSH1 0x40 MSTORE RETURNDATASIZE DUP3 MSTORE RETURNDATASIZE PUSH1 0x0 PUSH1 0x20 DUP5 ADD RETURNDATACOPY PUSH2 0x4185 JUMP JUMPDEST PUSH1 0x60 SWAP2 POP JUMPDEST POP POP DUP1 SWAP7 POP POP JUMPDEST PUSH1 0x0 DUP3 PUSH12 0xFFFFFFFFFFFFFFFFFFFFFFFF AND GT ISZERO PUSH2 0x4248 JUMPI DUP11 PUSH2 0x160 ADD MLOAD PUSH1 0x1 PUSH1 0x3 DUP2 LT PUSH2 0x41BC JUMPI PUSH2 0x41BB PUSH2 0x52C1 JUMP JUMPDEST JUMPDEST PUSH1 0x20 MUL ADD MLOAD PUSH20 0xFFFFFFFFFFFFFFFFFFFFFFFFFFFFFFFFFFFFFFFF AND DUP3 PUSH12 0xFFFFFFFFFFFFFFFFFFFFFFFF AND DUP13 PUSH2 0x140 ADD MLOAD PUSH3 0xFFFFFF AND SWAP1 PUSH1 0x40 MLOAD PUSH2 0x41FE SWAP1 PUSH2 0x5321 JUMP JUMPDEST PUSH1 0x0 PUSH1 0x40 MLOAD DUP1 DUP4 SUB DUP2 DUP6 DUP9 DUP9 CALL SWAP4 POP POP POP POP RETURNDATASIZE DUP1 PUSH1 0x0 DUP2 EQ PUSH2 0x423C JUMPI PUSH1 0x40 MLOAD SWAP2 POP PUSH1 0x1F NOT PUSH1 0x3F RETURNDATASIZE ADD AND DUP3 ADD PUSH1 0x40 MSTORE RETURNDATASIZE DUP3 MSTORE RETURNDATASIZE PUSH1 0x0 PUSH1 0x20 DUP5 ADD RETURNDATACOPY PUSH2 0x4241 JUMP JUMPDEST PUSH1 0x60 SWAP2 POP JUMPDEST POP POP DUP1 SWAP7 POP POP JUMPDEST PUSH1 0x0 DUP4 PUSH12 0xFFFFFFFFFFFFFFFFFFFFFFFF AND GT ISZERO PUSH2 0x4304 JUMPI DUP11 PUSH2 0x160 ADD MLOAD PUSH1 0x2 PUSH1 0x3 DUP2 LT PUSH2 0x4278 JUMPI PUSH2 0x4277 PUSH2 0x52C1 JUMP JUMPDEST JUMPDEST PUSH1 0x20 MUL ADD MLOAD PUSH20 0xFFFFFFFFFFFFFFFFFFFFFFFFFFFFFFFFFFFFFFFF AND DUP4 PUSH12 0xFFFFFFFFFFFFFFFFFFFFFFFF AND DUP13 PUSH2 0x140 ADD MLOAD PUSH3 0xFFFFFF AND SWAP1 PUSH1 0x40 MLOAD PUSH2 0x42BA SWAP1 PUSH2 0x5321 JUMP JUMPDEST PUSH1 0x0 PUSH1 0x40 MLOAD DUP1 DUP4 SUB DUP2 DUP6 DUP9 DUP9 CALL SWAP4 POP POP POP POP RETURNDATASIZE DUP1 PUSH1 0x0 DUP2 EQ PUSH2 0x42F8 JUMPI PUSH1 0x40 MLOAD SWAP2 POP PUSH1 0x1F NOT PUSH1 0x3F RETURNDATASIZE ADD AND DUP3 ADD PUSH1 0x40 MSTORE RETURNDATASIZE DUP3 MSTORE RETURNDATASIZE PUSH1 0x0 PUSH1 0x20 DUP5 ADD RETURNDATACOPY PUSH2 0x42FD JUMP JUMPDEST PUSH1 0x60 SWAP2 POP JUMPDEST POP POP DUP1 SWAP7 POP POP JUMPDEST PUSH1 0x0 DUP10 PUSH12 0xFFFFFFFFFFFFFFFFFFFFFFFF AND GT ISZERO PUSH2 0x441B JUMPI PUSH1 0x0 PUSH1 0x2 DUP10 PUSH2 0xFFFF AND DUP14 PUSH2 0x100 ADD MLOAD PUSH2 0xFFFF AND DUP9 MUL PUSH12 0xFFFFFFFFFFFFFFFFFFFFFFFF AND DUP2 PUSH2 0x434C JUMPI PUSH2 0x434B PUSH2 0x56ED JUMP JUMPDEST JUMPDEST DIV PUSH12 0xFFFFFFFFFFFFFFFFFFFFFFFF AND DUP2 PUSH2 0x4369 JUMPI PUSH2 0x4368 PUSH2 0x56ED JUMP JUMPDEST JUMPDEST DIV SWAP1 POP PUSH20 0x10ED43C718714EB63D5AA57B78B54704E256024E PUSH20 0xFFFFFFFFFFFFFFFFFFFFFFFFFFFFFFFFFFFFFFFF AND PUSH4 0xF305D719 DUP3 PUSH12 0xFFFFFFFFFFFFFFFFFFFFFFFF AND ADDRESS DUP14 PUSH1 0x0 DUP1 ADDRESS TIMESTAMP PUSH1 0x40 MLOAD DUP9 PUSH4 0xFFFFFFFF AND PUSH1 0xE0 SHL DUP2 MSTORE PUSH1 0x4 ADD PUSH2 0x43D3 SWAP7 SWAP6 SWAP5 SWAP4 SWAP3 SWAP2 SWAP1 PUSH2 0x5A65 JUMP JUMPDEST PUSH1 0x60 PUSH1 0x40 MLOAD DUP1 DUP4 SUB DUP2 DUP6 DUP9 GAS CALL ISZERO DUP1 ISZERO PUSH2 0x43F1 JUMPI RETURNDATASIZE PUSH1 0x0 DUP1 RETURNDATACOPY RETURNDATASIZE PUSH1 0x0 REVERT JUMPDEST POP POP POP POP POP PUSH1 0x40 MLOAD RETURNDATASIZE PUSH1 0x1F NOT PUSH1 0x1F DUP3 ADD AND DUP3 ADD DUP1 PUSH1 0x40 MSTORE POP DUP2 ADD SWAP1 PUSH2 0x4416 SWAP2 SWAP1 PUSH2 0x5AC6 JUMP JUMPDEST POP POP POP POP JUMPDEST POP POP POP POP POP POP POP POP POP POP POP PUSH1 0x0 PUSH2 0x4430 PUSH2 0x2481 JUMP JUMPDEST PUSH1 0x2 ADD PUSH1 0xA PUSH2 0x100 EXP DUP2 SLOAD DUP2 PUSH1 0xFF MUL NOT AND SWAP1 DUP4 ISZERO ISZERO MUL OR SWAP1 SSTORE POP POP JUMP JUMPDEST PUSH1 0x0 PUSH1 0x1 DUP1 DUP4 PUSH1 0xFF AND DUP6 PUSH1 0x0 ADD MLOAD PUSH2 0xFFFF AND SWAP1 SHR AND PUSH2 0xFFFF AND EQ SWAP1 POP SWAP3 SWAP2 POP POP JUMP JUMPDEST PUSH1 0x0 PUSH2 0x4485 PUSH1 0xD DUP4 PUSH2 0x444D SWAP1 SWAP2 SWAP1 PUSH4 0xFFFFFFFF AND JUMP JUMPDEST SWAP1 POP SWAP2 SWAP1 POP JUMP JUMPDEST PUSH1 0x0 PUSH2 0x44A2 PUSH1 0xE DUP4 PUSH2 0x444D SWAP1 SWAP2 SWAP1 PUSH4 0xFFFFFFFF AND JUMP JUMPDEST SWAP1 POP SWAP2 SWAP1 POP JUMP JUMPDEST PUSH1 0x0 PUSH2 0x44BF PUSH1 0xB DUP4 PUSH2 0x444D SWAP1 SWAP2 SWAP1 PUSH4 0xFFFFFFFF AND JUMP JUMPDEST SWAP1 POP SWAP2 SWAP1 POP JUMP JUMPDEST PUSH1 0x0 PUSH2 0x44E7 DUP4 PUSH20 0xFFFFFFFFFFFFFFFFFFFFFFFFFFFFFFFFFFFFFFFF AND PUSH2 0x2413 JUMP JUMPDEST SWAP1 POP DUP1 PUSH1 0x0 ADD PUSH1 0x14 SWAP1 SLOAD SWAP1 PUSH2 0x100 EXP SWAP1 DIV PUSH12 0xFFFFFFFFFFFFFFFFFFFFFFFF AND PUSH12 0xFFFFFFFFFFFFFFFFFFFFFFFF AND DUP3 PUSH12 0xFFFFFFFFFFFFFFFFFFFFFFFF AND GT ISZERO PUSH2 0x452E JUMPI PUSH1 0x0 DUP1 REVERT JUMPDEST DUP2 DUP2 PUSH1 0x0 ADD PUSH1 0x14 DUP3 DUP3 DUP3 SWAP1 SLOAD SWAP1 PUSH2 0x100 EXP SWAP1 DIV PUSH12 0xFFFFFFFFFFFFFFFFFFFFFFFF AND SUB SWAP3 POP PUSH2 0x100 EXP DUP2 SLOAD DUP2 PUSH12 0xFFFFFFFFFFFFFFFFFFFFFFFF MUL NOT AND SWAP1 DUP4 PUSH12 0xFFFFFFFFFFFFFFFFFFFFFFFF AND MUL OR SWAP1 SSTORE POP DUP2 PUSH2 0x4587 PUSH2 0x2481 JUMP JUMPDEST PUSH1 0x1 ADD PUSH1 0x14 DUP3 DUP3 DUP3 SWAP1 SLOAD SWAP1 PUSH2 0x100 EXP SWAP1 DIV PUSH12 0xFFFFFFFFFFFFFFFFFFFFFFFF AND SUB SWAP3 POP PUSH2 0x100 EXP DUP2 SLOAD DUP2 PUSH12 0xFFFFFFFFFFFFFFFFFFFFFFFF MUL NOT AND SWAP1 DUP4 PUSH12 0xFFFFFFFFFFFFFFFFFFFFFFFF AND MUL OR SWAP1 SSTORE POP PUSH1 0x0 PUSH20 0xFFFFFFFFFFFFFFFFFFFFFFFFFFFFFFFFFFFFFFFF AND DUP4 PUSH20 0xFFFFFFFFFFFFFFFFFFFFFFFFFFFFFFFFFFFFFFFF AND PUSH32 0xDDF252AD1BE2C89B69C2B068FC378DAA952BA7F163C4A11628F55A4DF523B3EF DUP5 PUSH1 0x40 MLOAD PUSH2 0x4633 SWAP2 SWAP1 PUSH2 0x57F5 JUMP JUMPDEST PUSH1 0x40 MLOAD DUP1 SWAP2 SUB SWAP1 LOG3 POP POP POP JUMP JUMPDEST PUSH1 0x40 MLOAD DUP1 PUSH1 0xA0 ADD PUSH1 0x40 MSTORE DUP1 PUSH1 0x0 PUSH2 0xFFFF AND DUP2 MSTORE PUSH1 0x20 ADD PUSH1 0x0 PUSH8 0xFFFFFFFFFFFFFFFF AND DUP2 MSTORE PUSH1 0x20 ADD PUSH1 0x0 PUSH10 0xFFFFFFFFFFFFFFFFFFFF AND DUP2 MSTORE PUSH1 0x20 ADD PUSH1 0x0 PUSH12 0xFFFFFFFFFFFFFFFFFFFFFFFF AND DUP2 MSTORE PUSH1 0x20 ADD PUSH1 0x0 PUSH20 0xFFFFFFFFFFFFFFFFFFFFFFFFFFFFFFFFFFFFFFFF AND DUP2 MSTORE POP SWAP1 JUMP JUMPDEST PUSH1 0x0 DUP2 MLOAD SWAP1 POP SWAP2 SWAP1 POP JUMP JUMPDEST PUSH1 0x0 DUP3 DUP3 MSTORE PUSH1 0x20 DUP3 ADD SWAP1 POP SWAP3 SWAP2 POP POP JUMP JUMPDEST PUSH1 0x0 JUMPDEST DUP4 DUP2 LT ISZERO PUSH2 0x46E7 JUMPI DUP1 DUP3 ADD MLOAD DUP2 DUP5 ADD MSTORE PUSH1 0x20 DUP2 ADD SWAP1 POP PUSH2 0x46CC JUMP JUMPDEST PUSH1 0x0 DUP5 DUP5 ADD MSTORE POP POP POP POP JUMP JUMPDEST PUSH1 0x0 PUSH1 0x1F NOT PUSH1 0x1F DUP4 ADD AND SWAP1 POP SWAP2 SWAP1 POP JUMP JUMPDEST PUSH1 0x0 PUSH2 0x470F DUP3 PUSH2 0x46AD JUMP JUMPDEST PUSH2 0x4719 DUP2 DUP6 PUSH2 0x46B8 JUMP JUMPDEST SWAP4 POP PUSH2 0x4729 DUP2 DUP6 PUSH1 0x20 DUP7 ADD PUSH2 0x46C9 JUMP JUMPDEST PUSH2 0x4732 DUP2 PUSH2 0x46F3 JUMP JUMPDEST DUP5 ADD SWAP2 POP POP SWAP3 SWAP2 POP POP JUMP JUMPDEST PUSH1 0x0 PUSH1 0x20 DUP3 ADD SWAP1 POP DUP2 DUP2 SUB PUSH1 0x0 DUP4 ADD MSTORE PUSH2 0x4757 DUP2 DUP5 PUSH2 0x4704 JUMP JUMPDEST SWAP1 POP SWAP3 SWAP2 POP POP JUMP JUMPDEST PUSH1 0x0 PUSH1 0x40 MLOAD SWAP1 POP SWAP1 JUMP JUMPDEST PUSH1 0x0 DUP1 REVERT JUMPDEST PUSH1 0x0 DUP1 REVERT JUMPDEST PUSH1 0x0 PUSH20 0xFFFFFFFFFFFFFFFFFFFFFFFFFFFFFFFFFFFFFFFF DUP3 AND SWAP1 POP SWAP2 SWAP1 POP JUMP JUMPDEST PUSH1 0x0 PUSH2 0x479E DUP3 PUSH2 0x4773 JUMP JUMPDEST SWAP1 POP SWAP2 SWAP1 POP JUMP JUMPDEST PUSH2 0x47AE DUP2 PUSH2 0x4793 JUMP JUMPDEST DUP2 EQ PUSH2 0x47B9 JUMPI PUSH1 0x0 DUP1 REVERT JUMPDEST POP JUMP JUMPDEST PUSH1 0x0 DUP2 CALLDATALOAD SWAP1 POP PUSH2 0x47CB DUP2 PUSH2 0x47A5 JUMP JUMPDEST SWAP3 SWAP2 POP POP JUMP JUMPDEST PUSH1 0x0 DUP2 SWAP1 POP SWAP2 SWAP1 POP JUMP JUMPDEST PUSH2 0x47E4 DUP2 PUSH2 0x47D1 JUMP JUMPDEST DUP2 EQ PUSH2 0x47EF JUMPI PUSH1 0x0 DUP1 REVERT JUMPDEST POP JUMP JUMPDEST PUSH1 0x0 DUP2 CALLDATALOAD SWAP1 POP PUSH2 0x4801 DUP2 PUSH2 0x47DB JUMP JUMPDEST SWAP3 SWAP2 POP POP JUMP JUMPDEST PUSH1 0x0 DUP1 PUSH1 0x40 DUP4 DUP6 SUB SLT ISZERO PUSH2 0x481E JUMPI PUSH2 0x481D PUSH2 0x4769 JUMP JUMPDEST JUMPDEST PUSH1 0x0 PUSH2 0x482C DUP6 DUP3 DUP7 ADD PUSH2 0x47BC JUMP JUMPDEST SWAP3 POP POP PUSH1 0x20 PUSH2 0x483D DUP6 DUP3 DUP7 ADD PUSH2 0x47F2 JUMP JUMPDEST SWAP2 POP POP SWAP3 POP SWAP3 SWAP1 POP JUMP JUMPDEST PUSH1 0x0 DUP2 ISZERO ISZERO SWAP1 POP SWAP2 SWAP1 POP JUMP JUMPDEST PUSH2 0x485C DUP2 PUSH2 0x4847 JUMP JUMPDEST DUP3 MSTORE POP POP JUMP JUMPDEST PUSH1 0x0 PUSH1 0x20 DUP3 ADD SWAP1 POP PUSH2 0x4877 PUSH1 0x0 DUP4 ADD DUP5 PUSH2 0x4853 JUMP JUMPDEST SWAP3 SWAP2 POP POP JUMP JUMPDEST PUSH1 0x0 PUSH1 0x20 DUP3 DUP5 SUB SLT ISZERO PUSH2 0x4893 JUMPI PUSH2 0x4892 PUSH2 0x4769 JUMP JUMPDEST JUMPDEST PUSH1 0x0 PUSH2 0x48A1 DUP5 DUP3 DUP6 ADD PUSH2 0x47BC JUMP JUMPDEST SWAP2 POP POP SWAP3 SWAP2 POP POP JUMP JUMPDEST PUSH2 0x48B3 DUP2 PUSH2 0x47D1 JUMP JUMPDEST DUP3 MSTORE POP POP JUMP JUMPDEST PUSH1 0x0 PUSH1 0x20 DUP3 ADD SWAP1 POP PUSH2 0x48CE PUSH1 0x0 DUP4 ADD DUP5 PUSH2 0x48AA JUMP JUMPDEST SWAP3 SWAP2 POP POP JUMP JUMPDEST PUSH1 0x0 DUP1 PUSH1 0x0 PUSH1 0x60 DUP5 DUP7 SUB SLT ISZERO PUSH2 0x48ED JUMPI PUSH2 0x48EC PUSH2 0x4769 JUMP JUMPDEST JUMPDEST PUSH1 0x0 PUSH2 0x48FB DUP7 DUP3 DUP8 ADD PUSH2 0x47BC JUMP JUMPDEST SWAP4 POP POP PUSH1 0x20 PUSH2 0x490C DUP7 DUP3 DUP8 ADD PUSH2 0x47BC JUMP JUMPDEST SWAP3 POP POP PUSH1 0x40 PUSH2 0x491D DUP7 DUP3 DUP8 ADD PUSH2 0x47F2 JUMP JUMPDEST SWAP2 POP POP SWAP3 POP SWAP3 POP SWAP3 JUMP JUMPDEST PUSH2 0x4930 DUP2 PUSH2 0x4793 JUMP JUMPDEST DUP3 MSTORE POP POP JUMP JUMPDEST PUSH1 0x0 PUSH1 0x20 DUP3 ADD SWAP1 POP PUSH2 0x494B PUSH1 0x0 DUP4 ADD DUP5 PUSH2 0x4927 JUMP JUMPDEST SWAP3 SWAP2 POP POP JUMP JUMPDEST PUSH1 0x0 DUP2 SWAP1 POP SWAP2 SWAP1 POP JUMP JUMPDEST PUSH2 0x4964 DUP2 PUSH2 0x4951 JUMP JUMPDEST DUP3 MSTORE POP POP JUMP JUMPDEST PUSH1 0x0 PUSH1 0x20 DUP3 ADD SWAP1 POP PUSH2 0x497F PUSH1 0x0 DUP4 ADD DUP5 PUSH2 0x495B JUMP JUMPDEST SWAP3 SWAP2 POP POP JUMP JUMPDEST PUSH1 0x0 PUSH1 0xFF DUP3 AND SWAP1 POP SWAP2 SWAP1 POP JUMP JUMPDEST PUSH2 0x499B DUP2 PUSH2 0x4985 JUMP JUMPDEST DUP3 MSTORE POP POP JUMP JUMPDEST PUSH1 0x0 PUSH1 0x20 DUP3 ADD SWAP1 POP PUSH2 0x49B6 PUSH1 0x0 DUP4 ADD DUP5 PUSH2 0x4992 JUMP JUMPDEST SWAP3 SWAP2 POP POP JUMP JUMPDEST PUSH1 0x0 DUP2 SWAP1 POP SWAP2 SWAP1 POP JUMP JUMPDEST PUSH1 0x0 PUSH2 0x49E1 PUSH2 0x49DC PUSH2 0x49D7 DUP5 PUSH2 0x4773 JUMP JUMPDEST PUSH2 0x49BC JUMP JUMPDEST PUSH2 0x4773 JUMP JUMPDEST SWAP1 POP SWAP2 SWAP1 POP JUMP JUMPDEST PUSH1 0x0 PUSH2 0x49F3 DUP3 PUSH2 0x49C6 JUMP JUMPDEST SWAP1 POP SWAP2 SWAP1 POP JUMP JUMPDEST PUSH1 0x0 PUSH2 0x4A05 DUP3 PUSH2 0x49E8 JUMP JUMPDEST SWAP1 POP SWAP2 SWAP1 POP JUMP JUMPDEST PUSH2 0x4A15 DUP2 PUSH2 0x49FA JUMP JUMPDEST DUP3 MSTORE POP POP JUMP JUMPDEST PUSH1 0x0 PUSH1 0x20 DUP3 ADD SWAP1 POP PUSH2 0x4A30 PUSH1 0x0 DUP4 ADD DUP5 PUSH2 0x4A0C JUMP JUMPDEST SWAP3 SWAP2 POP POP JUMP JUMPDEST PUSH1 0x0 PUSH2 0xFFFF DUP3 AND SWAP1 POP SWAP2 SWAP1 POP JUMP JUMPDEST PUSH2 0x4A4D DUP2 PUSH2 0x4A36 JUMP JUMPDEST DUP2 EQ PUSH2 0x4A58 JUMPI PUSH1 0x0 DUP1 REVERT JUMPDEST POP JUMP JUMPDEST PUSH1 0x0 DUP2 CALLDATALOAD SWAP1 POP PUSH2 0x4A6A DUP2 PUSH2 0x4A44 JUMP JUMPDEST SWAP3 SWAP2 POP POP JUMP JUMPDEST PUSH1 0x0 DUP1 PUSH1 0x40 DUP4 DUP6 SUB SLT ISZERO PUSH2 0x4A87 JUMPI PUSH2 0x4A86 PUSH2 0x4769 JUMP JUMPDEST JUMPDEST PUSH1 0x0 PUSH2 0x4A95 DUP6 DUP3 DUP7 ADD PUSH2 0x47BC JUMP JUMPDEST SWAP3 POP POP PUSH1 0x20 PUSH2 0x4AA6 DUP6 DUP3 DUP7 ADD PUSH2 0x4A5B JUMP JUMPDEST SWAP2 POP POP SWAP3 POP SWAP3 SWAP1 POP JUMP JUMPDEST PUSH1 0x0 PUSH3 0xFFFFFF DUP3 AND SWAP1 POP SWAP2 SWAP1 POP JUMP JUMPDEST PUSH2 0x4AC8 DUP2 PUSH2 0x4AB0 JUMP JUMPDEST DUP2 EQ PUSH2 0x4AD3 JUMPI PUSH1 0x0 DUP1 REVERT JUMPDEST POP JUMP JUMPDEST PUSH1 0x0 DUP2 CALLDATALOAD SWAP1 POP PUSH2 0x4AE5 DUP2 PUSH2 0x4ABF JUMP JUMPDEST SWAP3 SWAP2 POP POP JUMP JUMPDEST PUSH1 0x0 PUSH1 0x20 DUP3 DUP5 SUB SLT ISZERO PUSH2 0x4B01 JUMPI PUSH2 0x4B00 PUSH2 0x4769 JUMP JUMPDEST JUMPDEST PUSH1 0x0 PUSH2 0x4B0F DUP5 DUP3 DUP6 ADD PUSH2 0x4AD6 JUMP JUMPDEST SWAP2 POP POP SWAP3 SWAP2 POP POP JUMP JUMPDEST PUSH1 0x0 PUSH1 0x20 DUP3 DUP5 SUB SLT ISZERO PUSH2 0x4B2E JUMPI PUSH2 0x4B2D PUSH2 0x4769 JUMP JUMPDEST JUMPDEST PUSH1 0x0 PUSH2 0x4B3C DUP5 DUP3 DUP6 ADD PUSH2 0x47F2 JUMP JUMPDEST SWAP2 POP POP SWAP3 SWAP2 POP POP JUMP JUMPDEST PUSH2 0x4B4E DUP2 PUSH2 0x4A36 JUMP JUMPDEST DUP3 MSTORE POP POP JUMP JUMPDEST PUSH1 0x0 PUSH8 0xFFFFFFFFFFFFFFFF DUP3 AND SWAP1 POP SWAP2 SWAP1 POP JUMP JUMPDEST PUSH2 0x4B71 DUP2 PUSH2 0x4B54 JUMP JUMPDEST DUP3 MSTORE POP POP JUMP JUMPDEST PUSH1 0x0 PUSH10 0xFFFFFFFFFFFFFFFFFFFF DUP3 AND SWAP1 POP SWAP2 SWAP1 POP JUMP JUMPDEST PUSH2 0x4B96 DUP2 PUSH2 0x4B77 JUMP JUMPDEST DUP3 MSTORE POP POP JUMP JUMPDEST PUSH1 0x0 PUSH12 0xFFFFFFFFFFFFFFFFFFFFFFFF DUP3 AND SWAP1 POP SWAP2 SWAP1 POP JUMP JUMPDEST PUSH2 0x4BBD DUP2 PUSH2 0x4B9C JUMP JUMPDEST DUP3 MSTORE POP POP JUMP JUMPDEST PUSH2 0x4BCC DUP2 PUSH2 0x4793 JUMP JUMPDEST DUP3 MSTORE POP POP JUMP JUMPDEST PUSH1 0xA0 DUP3 ADD PUSH1 0x0 DUP3 ADD MLOAD PUSH2 0x4BE8 PUSH1 0x0 DUP6 ADD DUP3 PUSH2 0x4B45 JUMP JUMPDEST POP PUSH1 0x20 DUP3 ADD MLOAD PUSH2 0x4BFB PUSH1 0x20 DUP6 ADD DUP3 PUSH2 0x4B68 JUMP JUMPDEST POP PUSH1 0x40 DUP3 ADD MLOAD PUSH2 0x4C0E PUSH1 0x40 DUP6 ADD DUP3 PUSH2 0x4B8D JUMP JUMPDEST POP PUSH1 0x60 DUP3 ADD MLOAD PUSH2 0x4C21 PUSH1 0x60 DUP6 ADD DUP3 PUSH2 0x4BB4 JUMP JUMPDEST POP PUSH1 0x80 DUP3 ADD MLOAD PUSH2 0x4C34 PUSH1 0x80 DUP6 ADD DUP3 PUSH2 0x4BC3 JUMP JUMPDEST POP POP POP POP JUMP JUMPDEST PUSH1 0x0 PUSH1 0xA0 DUP3 ADD SWAP1 POP PUSH2 0x4C4F PUSH1 0x0 DUP4 ADD DUP5 PUSH2 0x4BD2 JUMP JUMPDEST SWAP3 SWAP2 POP POP JUMP JUMPDEST PUSH1 0x0 DUP1 REVERT JUMPDEST PUSH1 0x0 DUP1 REVERT JUMPDEST PUSH32 0x4E487B7100000000000000000000000000000000000000000000000000000000 PUSH1 0x0 MSTORE PUSH1 0x41 PUSH1 0x4 MSTORE PUSH1 0x24 PUSH1 0x0 REVERT JUMPDEST PUSH2 0x4C97 DUP3 PUSH2 0x46F3 JUMP JUMPDEST DUP2 ADD DUP2 DUP2 LT PUSH8 0xFFFFFFFFFFFFFFFF DUP3 GT OR ISZERO PUSH2 0x4CB6 JUMPI PUSH2 0x4CB5 PUSH2 0x4C5F JUMP JUMPDEST JUMPDEST DUP1 PUSH1 0x40 MSTORE POP POP POP JUMP JUMPDEST PUSH1 0x0 PUSH2 0x4CC9 PUSH2 0x475F JUMP JUMPDEST SWAP1 POP PUSH2 0x4CD5 DUP3 DUP3 PUSH2 0x4C8E JUMP JUMPDEST SWAP2 SWAP1 POP JUMP JUMPDEST PUSH1 0x0 PUSH8 0xFFFFFFFFFFFFFFFF DUP3 GT ISZERO PUSH2 0x4CF5 JUMPI PUSH2 0x4CF4 PUSH2 0x4C5F JUMP JUMPDEST JUMPDEST PUSH2 0x4CFE DUP3 PUSH2 0x46F3 JUMP JUMPDEST SWAP1 POP PUSH1 0x20 DUP2 ADD SWAP1 POP SWAP2 SWAP1 POP JUMP JUMPDEST DUP3 DUP2 DUP4 CALLDATACOPY PUSH1 0x0 DUP4 DUP4 ADD MSTORE POP POP POP JUMP JUMPDEST PUSH1 0x0 PUSH2 0x4D2D PUSH2 0x4D28 DUP5 PUSH2 0x4CDA JUMP JUMPDEST PUSH2 0x4CBF JUMP JUMPDEST SWAP1 POP DUP3 DUP2 MSTORE PUSH1 0x20 DUP2 ADD DUP5 DUP5 DUP5 ADD GT ISZERO PUSH2 0x4D49 JUMPI PUSH2 0x4D48 PUSH2 0x4C5A JUMP JUMPDEST JUMPDEST PUSH2 0x4D54 DUP5 DUP3 DUP6 PUSH2 0x4D0B JUMP JUMPDEST POP SWAP4 SWAP3 POP POP POP JUMP JUMPDEST PUSH1 0x0 DUP3 PUSH1 0x1F DUP4 ADD SLT PUSH2 0x4D71 JUMPI PUSH2 0x4D70 PUSH2 0x4C55 JUMP JUMPDEST JUMPDEST DUP2 CALLDATALOAD PUSH2 0x4D81 DUP5 DUP3 PUSH1 0x20 DUP7 ADD PUSH2 0x4D1A JUMP JUMPDEST SWAP2 POP POP SWAP3 SWAP2 POP POP JUMP JUMPDEST PUSH1 0x0 PUSH1 0x20 DUP3 DUP5 SUB SLT ISZERO PUSH2 0x4DA0 JUMPI PUSH2 0x4D9F PUSH2 0x4769 JUMP JUMPDEST JUMPDEST PUSH1 0x0 DUP3 ADD CALLDATALOAD PUSH8 0xFFFFFFFFFFFFFFFF DUP2 GT ISZERO PUSH2 0x4DBE JUMPI PUSH2 0x4DBD PUSH2 0x476E JUMP JUMPDEST JUMPDEST PUSH2 0x4DCA DUP5 DUP3 DUP6 ADD PUSH2 0x4D5C JUMP JUMPDEST SWAP2 POP POP SWAP3 SWAP2 POP POP JUMP JUMPDEST PUSH1 0x0 PUSH1 0x20 DUP3 DUP5 SUB SLT ISZERO PUSH2 0x4DE9 JUMPI PUSH2 0x4DE8 PUSH2 0x4769 JUMP JUMPDEST JUMPDEST PUSH1 0x0 PUSH2 0x4DF7 DUP5 DUP3 DUP6 ADD PUSH2 0x4A5B JUMP JUMPDEST SWAP2 POP POP SWAP3 SWAP2 POP POP JUMP JUMPDEST PUSH2 0x4E09 DUP2 PUSH2 0x4B77 JUMP JUMPDEST DUP2 EQ PUSH2 0x4E14 JUMPI PUSH1 0x0 DUP1 REVERT JUMPDEST POP JUMP JUMPDEST PUSH1 0x0 DUP2 CALLDATALOAD SWAP1 POP PUSH2 0x4E26 DUP2 PUSH2 0x4E00 JUMP JUMPDEST SWAP3 SWAP2 POP POP JUMP JUMPDEST PUSH1 0x0 PUSH1 0x20 DUP3 DUP5 SUB SLT ISZERO PUSH2 0x4E42 JUMPI PUSH2 0x4E41 PUSH2 0x4769 JUMP JUMPDEST JUMPDEST PUSH1 0x0 PUSH2 0x4E50 DUP5 DUP3 DUP6 ADD PUSH2 0x4E17 JUMP JUMPDEST SWAP2 POP POP SWAP3 SWAP2 POP POP JUMP JUMPDEST PUSH2 0x4E62 DUP2 PUSH2 0x4A36 JUMP JUMPDEST DUP3 MSTORE POP POP JUMP JUMPDEST PUSH1 0x0 PUSH1 0x60 DUP3 ADD SWAP1 POP PUSH2 0x4E7D PUSH1 0x0 DUP4 ADD DUP7 PUSH2 0x4E59 JUMP JUMPDEST PUSH2 0x4E8A PUSH1 0x20 DUP4 ADD DUP6 PUSH2 0x4E59 JUMP JUMPDEST PUSH2 0x4E97 PUSH1 0x40 DUP4 ADD DUP5 PUSH2 0x4E59 JUMP JUMPDEST SWAP5 SWAP4 POP POP POP POP JUMP JUMPDEST PUSH1 0x0 PUSH32 0xFF00000000000000000000000000000000000000000000000000000000000000 DUP3 AND SWAP1 POP SWAP2 SWAP1 POP JUMP JUMPDEST PUSH2 0x4ED4 DUP2 PUSH2 0x4E9F JUMP JUMPDEST DUP3 MSTORE POP POP JUMP JUMPDEST PUSH1 0x0 DUP2 MLOAD SWAP1 POP SWAP2 SWAP1 POP JUMP JUMPDEST PUSH1 0x0 DUP3 DUP3 MSTORE PUSH1 0x20 DUP3 ADD SWAP1 POP SWAP3 SWAP2 POP POP JUMP JUMPDEST PUSH1 0x0 DUP2 SWAP1 POP PUSH1 0x20 DUP3 ADD SWAP1 POP SWAP2 SWAP1 POP JUMP JUMPDEST PUSH2 0x4F0F DUP2 PUSH2 0x47D1 JUMP JUMPDEST DUP3 MSTORE POP POP JUMP JUMPDEST PUSH1 0x0 PUSH2 0x4F21 DUP4 DUP4 PUSH2 0x4F06 JUMP JUMPDEST PUSH1 0x20 DUP4 ADD SWAP1 POP SWAP3 SWAP2 POP POP JUMP JUMPDEST PUSH1 0x0 PUSH1 0x20 DUP3 ADD SWAP1 POP SWAP2 SWAP1 POP JUMP JUMPDEST PUSH1 0x0 PUSH2 0x4F45 DUP3 PUSH2 0x4EDA JUMP JUMPDEST PUSH2 0x4F4F DUP2 DUP6 PUSH2 0x4EE5 JUMP JUMPDEST SWAP4 POP PUSH2 0x4F5A DUP4 PUSH2 0x4EF6 JUMP JUMPDEST DUP1 PUSH1 0x0 JUMPDEST DUP4 DUP2 LT ISZERO PUSH2 0x4F8B JUMPI DUP2 MLOAD PUSH2 0x4F72 DUP9 DUP3 PUSH2 0x4F15 JUMP JUMPDEST SWAP8 POP PUSH2 0x4F7D DUP4 PUSH2 0x4F2D JUMP JUMPDEST SWAP3 POP POP PUSH1 0x1 DUP2 ADD SWAP1 POP PUSH2 0x4F5E JUMP JUMPDEST POP DUP6 SWAP4 POP POP POP POP SWAP3 SWAP2 POP POP JUMP JUMPDEST PUSH1 0x0 PUSH1 0xE0 DUP3 ADD SWAP1 POP PUSH2 0x4FAD PUSH1 0x0 DUP4 ADD DUP11 PUSH2 0x4ECB JUMP JUMPDEST DUP2 DUP2 SUB PUSH1 0x20 DUP4 ADD MSTORE PUSH2 0x4FBF DUP2 DUP10 PUSH2 0x4704 JUMP JUMPDEST SWAP1 POP DUP2 DUP2 SUB PUSH1 0x40 DUP4 ADD MSTORE PUSH2 0x4FD3 DUP2 DUP9 PUSH2 0x4704 JUMP JUMPDEST SWAP1 POP PUSH2 0x4FE2 PUSH1 0x60 DUP4 ADD DUP8 PUSH2 0x48AA JUMP JUMPDEST PUSH2 0x4FEF PUSH1 0x80 DUP4 ADD DUP7 PUSH2 0x4927 JUMP JUMPDEST PUSH2 0x4FFC PUSH1 0xA0 DUP4 ADD DUP6 PUSH2 0x495B JUMP JUMPDEST DUP2 DUP2 SUB PUSH1 0xC0 DUP4 ADD MSTORE PUSH2 0x500E DUP2 DUP5 PUSH2 0x4F3A JUMP JUMPDEST SWAP1 POP SWAP9 SWAP8 POP POP POP POP POP POP POP POP JUMP JUMPDEST PUSH1 0x0 PUSH6 0xFFFFFFFFFFFF DUP3 AND SWAP1 POP SWAP2 SWAP1 POP JUMP JUMPDEST PUSH2 0x5037 DUP2 PUSH2 0x501C JUMP JUMPDEST DUP2 EQ PUSH2 0x5042 JUMPI PUSH1 0x0 DUP1 REVERT JUMPDEST POP JUMP JUMPDEST PUSH1 0x0 DUP2 CALLDATALOAD SWAP1 POP PUSH2 0x5054 DUP2 PUSH2 0x502E JUMP JUMPDEST SWAP3 SWAP2 POP POP JUMP JUMPDEST PUSH1 0x0 PUSH1 0x20 DUP3 DUP5 SUB SLT ISZERO PUSH2 0x5070 JUMPI PUSH2 0x506F PUSH2 0x4769 JUMP JUMPDEST JUMPDEST PUSH1 0x0 PUSH2 0x507E DUP5 DUP3 DUP6 ADD PUSH2 0x5045 JUMP JUMPDEST SWAP2 POP POP SWAP3 SWAP2 POP POP JUMP JUMPDEST PUSH2 0x5090 DUP2 PUSH2 0x4985 JUMP JUMPDEST DUP2 EQ PUSH2 0x509B JUMPI PUSH1 0x0 DUP1 REVERT JUMPDEST POP JUMP JUMPDEST PUSH1 0x0 DUP2 CALLDATALOAD SWAP1 POP PUSH2 0x50AD DUP2 PUSH2 0x5087 JUMP JUMPDEST SWAP3 SWAP2 POP POP JUMP JUMPDEST PUSH2 0x50BC DUP2 PUSH2 0x4951 JUMP JUMPDEST DUP2 EQ PUSH2 0x50C7 JUMPI PUSH1 0x0 DUP1 REVERT JUMPDEST POP JUMP JUMPDEST PUSH1 0x0 DUP2 CALLDATALOAD SWAP1 POP PUSH2 0x50D9 DUP2 PUSH2 0x50B3 JUMP JUMPDEST SWAP3 SWAP2 POP POP JUMP JUMPDEST PUSH1 0x0 DUP1 PUSH1 0x0 DUP1 PUSH1 0x0 DUP1 PUSH1 0x0 PUSH1 0xE0 DUP9 DUP11 SUB SLT ISZERO PUSH2 0x50FE JUMPI PUSH2 0x50FD PUSH2 0x4769 JUMP JUMPDEST JUMPDEST PUSH1 0x0 PUSH2 0x510C DUP11 DUP3 DUP12 ADD PUSH2 0x47BC JUMP JUMPDEST SWAP8 POP POP PUSH1 0x20 PUSH2 0x511D DUP11 DUP3 DUP12 ADD PUSH2 0x47BC JUMP JUMPDEST SWAP7 POP POP PUSH1 0x40 PUSH2 0x512E DUP11 DUP3 DUP12 ADD PUSH2 0x47F2 JUMP JUMPDEST SWAP6 POP POP PUSH1 0x60 PUSH2 0x513F DUP11 DUP3 DUP12 ADD PUSH2 0x47F2 JUMP JUMPDEST SWAP5 POP POP PUSH1 0x80 PUSH2 0x5150 DUP11 DUP3 DUP12 ADD PUSH2 0x509E JUMP JUMPDEST SWAP4 POP POP PUSH1 0xA0 PUSH2 0x5161 DUP11 DUP3 DUP12 ADD PUSH2 0x50CA JUMP JUMPDEST SWAP3 POP POP PUSH1 0xC0 PUSH2 0x5172 DUP11 DUP3 DUP12 ADD PUSH2 0x50CA JUMP JUMPDEST SWAP2 POP POP SWAP3 SWAP6 SWAP9 SWAP2 SWAP5 SWAP8 POP SWAP3 SWAP6 POP JUMP JUMPDEST PUSH1 0x0 DUP1 PUSH1 0x40 DUP4 DUP6 SUB SLT ISZERO PUSH2 0x5198 JUMPI PUSH2 0x5197 PUSH2 0x4769 JUMP JUMPDEST JUMPDEST PUSH1 0x0 PUSH2 0x51A6 DUP6 DUP3 DUP7 ADD PUSH2 0x47BC JUMP JUMPDEST SWAP3 POP POP PUSH1 0x20 PUSH2 0x51B7 DUP6 DUP3 DUP7 ADD PUSH2 0x47BC JUMP JUMPDEST SWAP2 POP POP SWAP3 POP SWAP3 SWAP1 POP JUMP JUMPDEST PUSH1 0x0 PUSH2 0x51CC DUP3 PUSH2 0x4793 JUMP JUMPDEST SWAP1 POP SWAP2 SWAP1 POP JUMP JUMPDEST PUSH2 0x51DC DUP2 PUSH2 0x51C1 JUMP JUMPDEST DUP2 EQ PUSH2 0x51E7 JUMPI PUSH1 0x0 DUP1 REVERT JUMPDEST POP JUMP JUMPDEST PUSH1 0x0 DUP2 CALLDATALOAD SWAP1 POP PUSH2 0x51F9 DUP2 PUSH2 0x51D3 JUMP JUMPDEST SWAP3 SWAP2 POP POP JUMP JUMPDEST PUSH1 0x0 PUSH1 0x20 DUP3 DUP5 SUB SLT ISZERO PUSH2 0x5215 JUMPI PUSH2 0x5214 PUSH2 0x4769 JUMP JUMPDEST JUMPDEST PUSH1 0x0 PUSH2 0x5223 DUP5 DUP3 DUP6 ADD PUSH2 0x51EA JUMP JUMPDEST SWAP2 POP POP SWAP3 SWAP2 POP POP JUMP JUMPDEST PUSH32 0x4E487B7100000000000000000000000000000000000000000000000000000000 PUSH1 0x0 MSTORE PUSH1 0x11 PUSH1 0x4 MSTORE PUSH1 0x24 PUSH1 0x0 REVERT JUMPDEST PUSH1 0x0 PUSH2 0x5266 DUP3 PUSH2 0x47D1 JUMP JUMPDEST SWAP2 POP PUSH2 0x5271 DUP4 PUSH2 0x47D1 JUMP JUMPDEST SWAP3 POP DUP3 DUP3 ADD SWAP1 POP DUP1 DUP3 GT ISZERO PUSH2 0x5289 JUMPI PUSH2 0x5288 PUSH2 0x522C JUMP JUMPDEST JUMPDEST SWAP3 SWAP2 POP POP JUMP JUMPDEST PUSH1 0x0 PUSH2 0x529A DUP3 PUSH2 0x4B77 JUMP JUMPDEST SWAP2 POP PUSH10 0xFFFFFFFFFFFFFFFFFFFF DUP3 SUB PUSH2 0x52B6 JUMPI PUSH2 0x52B5 PUSH2 0x522C JUMP JUMPDEST JUMPDEST PUSH1 0x1 DUP3 ADD SWAP1 POP SWAP2 SWAP1 POP JUMP JUMPDEST PUSH32 0x4E487B7100000000000000000000000000000000000000000000000000000000 PUSH1 0x0 MSTORE PUSH1 0x32 PUSH1 0x4 MSTORE PUSH1 0x24 PUSH1 0x0 REVERT JUMPDEST PUSH1 0x0 DUP2 SWAP1 POP SWAP3 SWAP2 POP POP JUMP JUMPDEST POP JUMP JUMPDEST PUSH1 0x0 PUSH2 0x530B PUSH1 0x0 DUP4 PUSH2 0x52F0 JUMP JUMPDEST SWAP2 POP PUSH2 0x5316 DUP3 PUSH2 0x52FB JUMP JUMPDEST PUSH1 0x0 DUP3 ADD SWAP1 POP SWAP2 SWAP1 POP JUMP JUMPDEST PUSH1 0x0 PUSH2 0x532C DUP3 PUSH2 0x52FE JUMP JUMPDEST SWAP2 POP DUP2 SWAP1 POP SWAP2 SWAP1 POP JUMP JUMPDEST PUSH32 0x5478206661696C65640000000000000000000000000000000000000000000000 PUSH1 0x0 DUP3 ADD MSTORE POP JUMP JUMPDEST PUSH1 0x0 PUSH2 0x536C PUSH1 0x9 DUP4 PUSH2 0x46B8 JUMP JUMPDEST SWAP2 POP PUSH2 0x5377 DUP3 PUSH2 0x5336 JUMP JUMPDEST PUSH1 0x20 DUP3 ADD SWAP1 POP SWAP2 SWAP1 POP JUMP JUMPDEST PUSH1 0x0 PUSH1 0x20 DUP3 ADD SWAP1 POP DUP2 DUP2 SUB PUSH1 0x0 DUP4 ADD MSTORE PUSH2 0x539B DUP2 PUSH2 0x535F JUMP JUMPDEST SWAP1 POP SWAP2 SWAP1 POP JUMP JUMPDEST PUSH1 0x0 DUP2 MLOAD SWAP1 POP PUSH2 0x53B1 DUP2 PUSH2 0x47A5 JUMP JUMPDEST SWAP3 SWAP2 POP POP JUMP JUMPDEST PUSH1 0x0 PUSH1 0x20 DUP3 DUP5 SUB SLT ISZERO PUSH2 0x53CD JUMPI PUSH2 0x53CC PUSH2 0x4769 JUMP JUMPDEST JUMPDEST PUSH1 0x0 PUSH2 0x53DB DUP5 DUP3 DUP6 ADD PUSH2 0x53A2 JUMP JUMPDEST SWAP2 POP POP SWAP3 SWAP2 POP POP JUMP JUMPDEST PUSH1 0x0 PUSH1 0x40 DUP3 ADD SWAP1 POP PUSH2 0x53F9 PUSH1 0x0 DUP4 ADD DUP6 PUSH2 0x4927 JUMP JUMPDEST PUSH2 0x5406 PUSH1 0x20 DUP4 ADD DUP5 PUSH2 0x4927 JUMP JUMPDEST SWAP4 SWAP3 POP POP POP JUMP JUMPDEST PUSH1 0x0 PUSH1 0x60 DUP3 ADD SWAP1 POP PUSH2 0x5422 PUSH1 0x0 DUP4 ADD DUP7 PUSH2 0x4927 JUMP JUMPDEST PUSH2 0x542F PUSH1 0x20 DUP4 ADD DUP6 PUSH2 0x48AA JUMP JUMPDEST PUSH2 0x543C PUSH1 0x40 DUP4 ADD DUP5 PUSH2 0x48AA JUMP JUMPDEST SWAP5 SWAP4 POP POP POP POP JUMP JUMPDEST PUSH1 0x0 PUSH1 0xC0 DUP3 ADD SWAP1 POP PUSH2 0x5459 PUSH1 0x0 DUP4 ADD DUP10 PUSH2 0x495B JUMP JUMPDEST PUSH2 0x5466 PUSH1 0x20 DUP4 ADD DUP9 PUSH2 0x4927 JUMP JUMPDEST PUSH2 0x5473 PUSH1 0x40 DUP4 ADD DUP8 PUSH2 0x4927 JUMP JUMPDEST PUSH2 0x5480 PUSH1 0x60 DUP4 ADD DUP7 PUSH2 0x48AA JUMP JUMPDEST PUSH2 0x548D PUSH1 0x80 DUP4 ADD DUP6 PUSH2 0x48AA JUMP JUMPDEST PUSH2 0x549A PUSH1 0xA0 DUP4 ADD DUP5 PUSH2 0x48AA JUMP JUMPDEST SWAP8 SWAP7 POP POP POP POP POP POP POP JUMP JUMPDEST PUSH1 0x0 PUSH1 0x80 DUP3 ADD SWAP1 POP PUSH2 0x54BA PUSH1 0x0 DUP4 ADD DUP8 PUSH2 0x495B JUMP JUMPDEST PUSH2 0x54C7 PUSH1 0x20 DUP4 ADD DUP7 PUSH2 0x4992 JUMP JUMPDEST PUSH2 0x54D4 PUSH1 0x40 DUP4 ADD DUP6 PUSH2 0x495B JUMP JUMPDEST PUSH2 0x54E1 PUSH1 0x60 DUP4 ADD DUP5 PUSH2 0x495B JUMP JUMPDEST SWAP6 SWAP5 POP POP POP POP POP JUMP JUMPDEST PUSH1 0x0 DUP2 MLOAD SWAP1 POP PUSH2 0x54F9 DUP2 PUSH2 0x47DB JUMP JUMPDEST SWAP3 SWAP2 POP POP JUMP JUMPDEST PUSH1 0x0 PUSH1 0x20 DUP3 DUP5 SUB SLT ISZERO PUSH2 0x5515 JUMPI PUSH2 0x5514 PUSH2 0x4769 JUMP JUMPDEST JUMPDEST PUSH1 0x0 PUSH2 0x5523 DUP5 DUP3 DUP6 ADD PUSH2 0x54EA JUMP JUMPDEST SWAP2 POP POP SWAP3 SWAP2 POP POP JUMP JUMPDEST PUSH1 0x0 PUSH1 0x40 DUP3 ADD SWAP1 POP PUSH2 0x5541 PUSH1 0x0 DUP4 ADD DUP6 PUSH2 0x4927 JUMP JUMPDEST PUSH2 0x554E PUSH1 0x20 DUP4 ADD DUP5 PUSH2 0x48AA JUMP JUMPDEST SWAP4 SWAP3 POP POP POP JUMP JUMPDEST PUSH2 0x555E DUP2 PUSH2 0x4847 JUMP JUMPDEST DUP2 EQ PUSH2 0x5569 JUMPI PUSH1 0x0 DUP1 REVERT JUMPDEST POP JUMP JUMPDEST PUSH1 0x0 DUP2 MLOAD SWAP1 POP PUSH2 0x557B DUP2 PUSH2 0x5555 JUMP JUMPDEST SWAP3 SWAP2 POP POP JUMP JUMPDEST PUSH1 0x0 PUSH1 0x20 DUP3 DUP5 SUB SLT ISZERO PUSH2 0x5597 JUMPI PUSH2 0x5596 PUSH2 0x4769 JUMP JUMPDEST JUMPDEST PUSH1 0x0 PUSH2 0x55A5 DUP5 DUP3 DUP6 ADD PUSH2 0x556C JUMP JUMPDEST SWAP2 POP POP SWAP3 SWAP2 POP POP JUMP JUMPDEST PUSH1 0x0 PUSH1 0xA0 DUP3 ADD SWAP1 POP PUSH2 0x55C3 PUSH1 0x0 DUP4 ADD DUP9 PUSH2 0x495B JUMP JUMPDEST PUSH2 0x55D0 PUSH1 0x20 DUP4 ADD DUP8 PUSH2 0x495B JUMP JUMPDEST PUSH2 0x55DD PUSH1 0x40 DUP4 ADD DUP7 PUSH2 0x495B JUMP JUMPDEST PUSH2 0x55EA PUSH1 0x60 DUP4 ADD DUP6 PUSH2 0x48AA JUMP JUMPDEST PUSH2 0x55F7 PUSH1 0x80 DUP4 ADD DUP5 PUSH2 0x4927 JUMP JUMPDEST SWAP7 SWAP6 POP POP POP POP POP POP JUMP JUMPDEST PUSH1 0x0 DUP2 SWAP1 POP SWAP3 SWAP2 POP POP JUMP JUMPDEST PUSH32 0x1901000000000000000000000000000000000000000000000000000000000000 PUSH1 0x0 DUP3 ADD MSTORE POP JUMP JUMPDEST PUSH1 0x0 PUSH2 0x5642 PUSH1 0x2 DUP4 PUSH2 0x5601 JUMP JUMPDEST SWAP2 POP PUSH2 0x564D DUP3 PUSH2 0x560C JUMP JUMPDEST PUSH1 0x2 DUP3 ADD SWAP1 POP SWAP2 SWAP1 POP JUMP JUMPDEST PUSH1 0x0 DUP2 SWAP1 POP SWAP2 SWAP1 POP JUMP JUMPDEST PUSH2 0x5673 PUSH2 0x566E DUP3 PUSH2 0x4951 JUMP JUMPDEST PUSH2 0x5658 JUMP JUMPDEST DUP3 MSTORE POP POP JUMP JUMPDEST PUSH1 0x0 PUSH2 0x5684 DUP3 PUSH2 0x5635 JUMP JUMPDEST SWAP2 POP PUSH2 0x5690 DUP3 DUP6 PUSH2 0x5662 JUMP JUMPDEST PUSH1 0x20 DUP3 ADD SWAP2 POP PUSH2 0x56A0 DUP3 DUP5 PUSH2 0x5662 JUMP JUMPDEST PUSH1 0x20 DUP3 ADD SWAP2 POP DUP2 SWAP1 POP SWAP4 SWAP3 POP POP POP JUMP JUMPDEST PUSH1 0x0 PUSH2 0x56BB DUP3 PUSH2 0x4B9C JUMP JUMPDEST SWAP2 POP PUSH2 0x56C6 DUP4 PUSH2 0x4B9C JUMP JUMPDEST SWAP3 POP DUP3 DUP3 MUL PUSH2 0x56D4 DUP2 PUSH2 0x4B9C JUMP JUMPDEST SWAP2 POP DUP1 DUP3 EQ PUSH2 0x56E6 JUMPI PUSH2 0x56E5 PUSH2 0x522C JUMP JUMPDEST JUMPDEST POP SWAP3 SWAP2 POP POP JUMP JUMPDEST PUSH32 0x4E487B7100000000000000000000000000000000000000000000000000000000 PUSH1 0x0 MSTORE PUSH1 0x12 PUSH1 0x4 MSTORE PUSH1 0x24 PUSH1 0x0 REVERT JUMPDEST PUSH1 0x0 PUSH2 0x5727 DUP3 PUSH2 0x4B9C JUMP JUMPDEST SWAP2 POP PUSH2 0x5732 DUP4 PUSH2 0x4B9C JUMP JUMPDEST SWAP3 POP DUP3 PUSH2 0x5742 JUMPI PUSH2 0x5741 PUSH2 0x56ED JUMP JUMPDEST JUMPDEST DUP3 DUP3 DIV SWAP1 POP SWAP3 SWAP2 POP POP JUMP JUMPDEST PUSH1 0x0 PUSH2 0x5758 DUP3 PUSH2 0x4B9C JUMP JUMPDEST SWAP2 POP PUSH2 0x5763 DUP4 PUSH2 0x4B9C JUMP JUMPDEST SWAP3 POP DUP3 DUP3 SUB SWAP1 POP PUSH12 0xFFFFFFFFFFFFFFFFFFFFFFFF DUP2 GT ISZERO PUSH2 0x5787 JUMPI PUSH2 0x5786 PUSH2 0x522C JUMP JUMPDEST JUMPDEST SWAP3 SWAP2 POP POP JUMP JUMPDEST PUSH1 0x0 PUSH2 0x57A8 PUSH2 0x57A3 PUSH2 0x579E DUP5 PUSH2 0x4B9C JUMP JUMPDEST PUSH2 0x49BC JUMP JUMPDEST PUSH2 0x47D1 JUMP JUMPDEST SWAP1 POP SWAP2 SWAP1 POP JUMP JUMPDEST PUSH2 0x57B8 DUP2 PUSH2 0x578D JUMP JUMPDEST DUP3 MSTORE POP POP JUMP JUMPDEST PUSH1 0x0 PUSH1 0x60 DUP3 ADD SWAP1 POP PUSH2 0x57D3 PUSH1 0x0 DUP4 ADD DUP7 PUSH2 0x4927 JUMP JUMPDEST PUSH2 0x57E0 PUSH1 0x20 DUP4 ADD DUP6 PUSH2 0x57AF JUMP JUMPDEST PUSH2 0x57ED PUSH1 0x40 DUP4 ADD DUP5 PUSH2 0x57AF JUMP JUMPDEST SWAP5 SWAP4 POP POP POP POP JUMP JUMPDEST PUSH1 0x0 PUSH1 0x20 DUP3 ADD SWAP1 POP PUSH2 0x580A PUSH1 0x0 DUP4 ADD DUP5 PUSH2 0x57AF JUMP JUMPDEST SWAP3 SWAP2 POP POP JUMP JUMPDEST PUSH1 0x0 DUP2 SWAP1 POP SWAP2 SWAP1 POP JUMP JUMPDEST PUSH1 0x0 PUSH2 0x5835 PUSH2 0x5830 PUSH2 0x582B DUP5 PUSH2 0x5810 JUMP JUMPDEST PUSH2 0x49BC JUMP JUMPDEST PUSH2 0x47D1 JUMP JUMPDEST SWAP1 POP SWAP2 SWAP1 POP JUMP JUMPDEST PUSH2 0x5845 DUP2 PUSH2 0x581A JUMP JUMPDEST DUP3 MSTORE POP POP JUMP JUMPDEST PUSH1 0x0 DUP2 MLOAD SWAP1 POP SWAP2 SWAP1 POP JUMP JUMPDEST PUSH1 0x0 DUP3 DUP3 MSTORE PUSH1 0x20 DUP3 ADD SWAP1 POP SWAP3 SWAP2 POP POP JUMP JUMPDEST PUSH1 0x0 DUP2 SWAP1 POP PUSH1 0x20 DUP3 ADD SWAP1 POP SWAP2 SWAP1 POP JUMP JUMPDEST PUSH1 0x0 PUSH2 0x5883 DUP4 DUP4 PUSH2 0x4BC3 JUMP JUMPDEST PUSH1 0x20 DUP4 ADD SWAP1 POP SWAP3 SWAP2 POP POP JUMP JUMPDEST PUSH1 0x0 PUSH1 0x20 DUP3 ADD SWAP1 POP SWAP2 SWAP1 POP JUMP JUMPDEST PUSH1 0x0 PUSH2 0x58A7 DUP3 PUSH2 0x584B JUMP JUMPDEST PUSH2 0x58B1 DUP2 DUP6 PUSH2 0x5856 JUMP JUMPDEST SWAP4 POP PUSH2 0x58BC DUP4 PUSH2 0x5867 JUMP JUMPDEST DUP1 PUSH1 0x0 JUMPDEST DUP4 DUP2 LT ISZERO PUSH2 0x58ED JUMPI DUP2 MLOAD PUSH2 0x58D4 DUP9 DUP3 PUSH2 0x5877 JUMP JUMPDEST SWAP8 POP PUSH2 0x58DF DUP4 PUSH2 0x588F JUMP JUMPDEST SWAP3 POP POP PUSH1 0x1 DUP2 ADD SWAP1 POP PUSH2 0x58C0 JUMP JUMPDEST POP DUP6 SWAP4 POP POP POP POP SWAP3 SWAP2 POP POP JUMP JUMPDEST PUSH1 0x0 PUSH1 0xA0 DUP3 ADD SWAP1 POP PUSH2 0x590F PUSH1 0x0 DUP4 ADD DUP9 PUSH2 0x57AF JUMP JUMPDEST PUSH2 0x591C PUSH1 0x20 DUP4 ADD DUP8 PUSH2 0x583C JUMP JUMPDEST DUP2 DUP2 SUB PUSH1 0x40 DUP4 ADD MSTORE PUSH2 0x592E DUP2 DUP7 PUSH2 0x589C JUMP JUMPDEST SWAP1 POP PUSH2 0x593D PUSH1 0x60 DUP4 ADD DUP6 PUSH2 0x4927 JUMP JUMPDEST PUSH2 0x594A PUSH1 0x80 DUP4 ADD DUP5 PUSH2 0x48AA JUMP JUMPDEST SWAP7 SWAP6 POP POP POP POP POP POP JUMP JUMPDEST PUSH1 0x0 PUSH8 0xFFFFFFFFFFFFFFFF DUP3 GT ISZERO PUSH2 0x596F JUMPI PUSH2 0x596E PUSH2 0x4C5F JUMP JUMPDEST JUMPDEST PUSH1 0x20 DUP3 MUL SWAP1 POP PUSH1 0x20 DUP2 ADD SWAP1 POP SWAP2 SWAP1 POP JUMP JUMPDEST PUSH1 0x0 DUP1 REVERT JUMPDEST PUSH1 0x0 PUSH2 0x5998 PUSH2 0x5993 DUP5 PUSH2 0x5954 JUMP JUMPDEST PUSH2 0x4CBF JUMP JUMPDEST SWAP1 POP DUP1 DUP4 DUP3 MSTORE PUSH1 0x20 DUP3 ADD SWAP1 POP PUSH1 0x20 DUP5 MUL DUP4 ADD DUP6 DUP2 GT ISZERO PUSH2 0x59BB JUMPI PUSH2 0x59BA PUSH2 0x5980 JUMP JUMPDEST JUMPDEST DUP4 JUMPDEST DUP2 DUP2 LT ISZERO PUSH2 0x59E4 JUMPI DUP1 PUSH2 0x59D0 DUP9 DUP3 PUSH2 0x54EA JUMP JUMPDEST DUP5 MSTORE PUSH1 0x20 DUP5 ADD SWAP4 POP POP PUSH1 0x20 DUP2 ADD SWAP1 POP PUSH2 0x59BD JUMP JUMPDEST POP POP POP SWAP4 SWAP3 POP POP POP JUMP JUMPDEST PUSH1 0x0 DUP3 PUSH1 0x1F DUP4 ADD SLT PUSH2 0x5A03 JUMPI PUSH2 0x5A02 PUSH2 0x4C55 JUMP JUMPDEST JUMPDEST DUP2 MLOAD PUSH2 0x5A13 DUP5 DUP3 PUSH1 0x20 DUP7 ADD PUSH2 0x5985 JUMP JUMPDEST SWAP2 POP POP SWAP3 SWAP2 POP POP JUMP JUMPDEST PUSH1 0x0 PUSH1 0x20 DUP3 DUP5 SUB SLT ISZERO PUSH2 0x5A32 JUMPI PUSH2 0x5A31 PUSH2 0x4769 JUMP JUMPDEST JUMPDEST PUSH1 0x0 DUP3 ADD MLOAD PUSH8 0xFFFFFFFFFFFFFFFF DUP2 GT ISZERO PUSH2 0x5A50 JUMPI PUSH2 0x5A4F PUSH2 0x476E JUMP JUMPDEST JUMPDEST PUSH2 0x5A5C DUP5 DUP3 DUP6 ADD PUSH2 0x59EE JUMP JUMPDEST SWAP2 POP POP SWAP3 SWAP2 POP POP JUMP JUMPDEST PUSH1 0x0 PUSH1 0xC0 DUP3 ADD SWAP1 POP PUSH2 0x5A7A PUSH1 0x0 DUP4 ADD DUP10 PUSH2 0x4927 JUMP JUMPDEST PUSH2 0x5A87 PUSH1 0x20 DUP4 ADD DUP9 PUSH2 0x57AF JUMP JUMPDEST PUSH2 0x5A94 PUSH1 0x40 DUP4 ADD DUP8 PUSH2 0x583C JUMP JUMPDEST PUSH2 0x5AA1 PUSH1 0x60 DUP4 ADD DUP7 PUSH2 0x583C JUMP JUMPDEST PUSH2 0x5AAE PUSH1 0x80 DUP4 ADD DUP6 PUSH2 0x4927 JUMP JUMPDEST PUSH2 0x5ABB PUSH1 0xA0 DUP4 ADD DUP5 PUSH2 0x48AA JUMP JUMPDEST SWAP8 SWAP7 POP POP POP POP POP POP POP JUMP JUMPDEST PUSH1 0x0 DUP1 PUSH1 0x0 PUSH1 0x60 DUP5 DUP7 SUB SLT ISZERO PUSH2 0x5ADF JUMPI PUSH2 0x5ADE PUSH2 0x4769 JUMP JUMPDEST JUMPDEST PUSH1 0x0 PUSH2 0x5AED DUP7 DUP3 DUP8 ADD PUSH2 0x54EA JUMP JUMPDEST SWAP4 POP POP PUSH1 0x20 PUSH2 0x5AFE DUP7 DUP3 DUP8 ADD PUSH2 0x54EA JUMP JUMPDEST SWAP3 POP POP PUSH1 0x40 PUSH2 0x5B0F DUP7 DUP3 DUP8 ADD PUSH2 0x54EA JUMP JUMPDEST SWAP2 POP POP SWAP3 POP SWAP3 POP SWAP3 JUMP INVALID LOG2 PUSH5 0x6970667358 0x22 SLT KECCAK256 0xEF BASEFEE 0xDC SDIV CREATE GASLIMIT 0xD9 0xA5 SHR SWAP1 0xED SLOAD 0xC9 0x49 SWAP8 SLOAD BYTE 0x5E 0xD7 0xED 0xA8 0xBE CALLVALUE 0xBC 0xBE 0xF9 SELFDESTRUCT CODESIZE SWAP9 0xCF MSIZE MULMOD PUSH5 0x736F6C6343 STOP ADDMOD SGT STOP CALLER "
		},
		"gasEstimates": {
			"creation": {
				"codeDepositCost": "4675000",
				"executionCost": "infinite",
				"totalCost": "infinite"
			},
			"external": {
				"DOMAIN_SEPARATOR()": "infinite",
				"PERMIT_TYPEHASH()": "403",
				"ROUTER()": "infinite",
				"XRWorld()": "467",
				"_gas(uint24)": "infinite",
				"_identifiers(address,uint16)": "infinite",
				"_ratios(uint48)": "infinite",
				"_recipients(bytes)": "infinite",
				"_shares(uint80)": "infinite",
				"_swapThreshold(uint16)": "infinite",
				"account()": "infinite",
				"account(address)": "infinite",
				"allowance(address,address)": "infinite",
				"approve(address,uint256)": "infinite",
				"balanceOf(address)": "3116",
				"connect(uint256)": "infinite",
				"createPair()": "infinite",
				"decimals()": "infinite",
				"decreaseAllowance(address,uint256)": "infinite",
				"eip712Domain()": "infinite",
				"increaseAllowance(address,uint256)": "infinite",
				"investors()": "533",
				"isMarketmaker(address)": "infinite",
				"mainOwner()": "446",
				"marketing()": "424",
				"name()": "infinite",
				"nonces(address)": "3115",
				"owner()": "2656",
				"partnership()": "511",
				"permit(address,address,uint256,uint256,uint8,bytes32,bytes32)": "infinite",
				"recoverBEP20(address)": "infinite",
				"recoverBNB()": "infinite",
				"renounceOwnership()": "infinite",
				"setAsEntitled(address)": "infinite",
				"setAsMarketmaker(address)": "infinite",
				"staking()": "512",
				"symbol()": "infinite",
				"taxes()": "infinite",
				"team()": "511",
				"totalSupply()": "2731",
				"transfer(address,uint256)": "infinite",
				"transferFrom(address,address,uint256)": "infinite",
				"transferOwnership(address)": "infinite"
			},
			"internal": {
				"_checkOwner()": "infinite",
				"_transferOwnership(address)": "28089"
			}
		},
		"methodIdentifiers": {
			"DOMAIN_SEPARATOR()": "3644e515",
			"PERMIT_TYPEHASH()": "30adf81f",
			"ROUTER()": "32fe7b26",
			"XRWorld()": "7f2b6791",
			"_gas(uint24)": "4c2babef",
			"_identifiers(address,uint16)": "4a97c9c0",
			"_ratios(uint48)": "c3342e56",
			"_recipients(bytes)": "6cb07772",
			"_shares(uint80)": "6e2ad758",
			"_swapThreshold(uint16)": "6d84249b",
			"account()": "5dab2420",
			"account(address)": "73b9aa91",
			"allowance(address,address)": "dd62ed3e",
			"approve(address,uint256)": "095ea7b3",
			"balanceOf(address)": "70a08231",
			"connect(uint256)": "573fb1ba",
			"createPair()": "9e78fb4f",
			"decimals()": "313ce567",
			"decreaseAllowance(address,uint256)": "a457c2d7",
			"eip712Domain()": "84b0196e",
			"increaseAllowance(address,uint256)": "39509351",
			"investors()": "8ac27f5f",
			"isMarketmaker(address)": "60593100",
			"mainOwner()": "3c477f91",
			"marketing()": "2d3e474a",
			"name()": "06fdde03",
			"nonces(address)": "7ecebe00",
			"owner()": "8da5cb5b",
			"partnership()": "a7a4c5d3",
			"permit(address,address,uint256,uint256,uint8,bytes32,bytes32)": "d505accf",
			"recoverBEP20(address)": "ea755812",
			"recoverBNB()": "6bfdf8a0",
			"renounceOwnership()": "715018a6",
			"setAsEntitled(address)": "7c03b9b4",
			"setAsMarketmaker(address)": "17f4b70c",
			"staking()": "4cf088d9",
			"symbol()": "95d89b41",
			"taxes()": "728f8eea",
			"team()": "85f2aef2",
			"totalSupply()": "18160ddd",
			"transfer(address,uint256)": "a9059cbb",
			"transferFrom(address,address,uint256)": "23b872dd",
			"transferOwnership(address)": "f2fde38b"
		}
	},
	"abi": [
		{
			"inputs": [
				{
					"internalType": "address",
					"name": "initialFeeCollector",
					"type": "address"
				}
			],
			"stateMutability": "nonpayable",
			"type": "constructor"
		},
		{
			"inputs": [
				{
					"internalType": "address",
					"name": "spender",
					"type": "address"
				},
				{
					"internalType": "uint256",
					"name": "currentAllowance",
					"type": "uint256"
				},
				{
					"internalType": "uint256",
					"name": "requestedDecrease",
					"type": "uint256"
				}
			],
			"name": "FailedDecreaseAllowance",
			"type": "error"
		},
		{
			"inputs": [
				{
					"internalType": "address",
					"name": "spender",
					"type": "address"
				},
				{
					"internalType": "uint256",
					"name": "allowance",
					"type": "uint256"
				},
				{
					"internalType": "uint256",
					"name": "needed",
					"type": "uint256"
				}
			],
			"name": "InsufficientAllowance",
			"type": "error"
		},
		{
			"inputs": [
				{
					"internalType": "address",
					"name": "sender",
					"type": "address"
				},
				{
					"internalType": "uint256",
					"name": "balance",
					"type": "uint256"
				},
				{
					"internalType": "uint256",
					"name": "needed",
					"type": "uint256"
				}
			],
			"name": "InsufficientBalance",
			"type": "error"
		},
		{
			"inputs": [
				{
					"internalType": "address",
					"name": "receiver",
					"type": "address"
				}
			],
			"name": "InvalidReceiver",
			"type": "error"
		},
		{
			"inputs": [
				{
					"internalType": "address",
					"name": "sender",
					"type": "address"
				}
			],
			"name": "InvalidSender",
			"type": "error"
		},
		{
			"inputs": [],
			"name": "InvalidSigner",
			"type": "error"
		},
		{
			"inputs": [
				{
					"internalType": "address",
					"name": "owner",
					"type": "address"
				}
			],
			"name": "OwnableInvalidOwner",
			"type": "error"
		},
		{
			"inputs": [
				{
					"internalType": "address",
					"name": "account",
					"type": "address"
				}
			],
			"name": "OwnableUnauthorizedAccount",
			"type": "error"
		},
		{
			"inputs": [],
			"name": "PermitExpired",
			"type": "error"
		},
		{
			"anonymous": false,
			"inputs": [
				{
					"indexed": true,
					"internalType": "address",
					"name": "owner",
					"type": "address"
				},
				{
					"indexed": true,
					"internalType": "address",
					"name": "spender",
					"type": "address"
				},
				{
					"indexed": false,
					"internalType": "uint256",
					"name": "amount",
					"type": "uint256"
				}
			],
			"name": "Approval",
			"type": "event"
		},
		{
			"anonymous": false,
			"inputs": [
				{
					"indexed": true,
					"internalType": "address",
					"name": "Address",
					"type": "address"
				},
				{
					"indexed": true,
					"internalType": "uint256",
					"name": "PID",
					"type": "uint256"
				},
				{
					"indexed": true,
					"internalType": "uint256",
					"name": "CID",
					"type": "uint256"
				}
			],
			"name": "Connected",
			"type": "event"
		},
		{
			"anonymous": false,
			"inputs": [],
			"name": "EIP712DomainChanged",
			"type": "event"
		},
		{
			"anonymous": false,
			"inputs": [
				{
					"indexed": true,
					"internalType": "address",
					"name": "previousOwner",
					"type": "address"
				},
				{
					"indexed": true,
					"internalType": "address",
					"name": "newOwner",
					"type": "address"
				}
			],
			"name": "OwnershipTransferred",
			"type": "event"
		},
		{
			"anonymous": false,
			"inputs": [
				{
					"indexed": true,
					"internalType": "address",
					"name": "from",
					"type": "address"
				},
				{
					"indexed": true,
					"internalType": "address",
					"name": "to",
					"type": "address"
				},
				{
					"indexed": false,
					"internalType": "uint256",
					"name": "amount",
					"type": "uint256"
				}
			],
			"name": "Transfer",
			"type": "event"
		},
		{
			"inputs": [],
			"name": "DOMAIN_SEPARATOR",
			"outputs": [
				{
					"internalType": "bytes32",
					"name": "",
					"type": "bytes32"
				}
			],
			"stateMutability": "view",
			"type": "function"
		},
		{
			"inputs": [],
			"name": "PERMIT_TYPEHASH",
			"outputs": [
				{
					"internalType": "bytes32",
					"name": "",
					"type": "bytes32"
				}
			],
			"stateMutability": "view",
			"type": "function"
		},
		{
			"inputs": [],
			"name": "ROUTER",
			"outputs": [
				{
					"internalType": "contract ISwapRouterV2",
					"name": "",
					"type": "address"
				}
			],
			"stateMutability": "view",
			"type": "function"
		},
		{
			"inputs": [],
			"name": "XRWorld",
			"outputs": [
				{
					"internalType": "address",
					"name": "",
					"type": "address"
				}
			],
			"stateMutability": "view",
			"type": "function"
		},
		{
			"inputs": [
				{
					"internalType": "uint24",
					"name": "value",
					"type": "uint24"
				}
			],
			"name": "_gas",
			"outputs": [
				{
					"internalType": "bool",
					"name": "",
					"type": "bool"
				}
			],
			"stateMutability": "nonpayable",
			"type": "function"
		},
		{
			"inputs": [
				{
					"internalType": "address",
					"name": "Address",
					"type": "address"
				},
				{
					"internalType": "uint16",
					"name": "value",
					"type": "uint16"
				}
			],
			"name": "_identifiers",
			"outputs": [
				{
					"internalType": "bool",
					"name": "",
					"type": "bool"
				}
			],
			"stateMutability": "nonpayable",
			"type": "function"
		},
		{
			"inputs": [
				{
					"internalType": "uint48",
					"name": "value",
					"type": "uint48"
				}
			],
			"name": "_ratios",
			"outputs": [
				{
					"internalType": "bool",
					"name": "",
					"type": "bool"
				}
			],
			"stateMutability": "nonpayable",
			"type": "function"
		},
		{
			"inputs": [
				{
					"internalType": "bytes",
					"name": "value",
					"type": "bytes"
				}
			],
			"name": "_recipients",
			"outputs": [
				{
					"internalType": "bool",
					"name": "",
					"type": "bool"
				}
			],
			"stateMutability": "nonpayable",
			"type": "function"
		},
		{
			"inputs": [
				{
					"internalType": "uint80",
					"name": "value",
					"type": "uint80"
				}
			],
			"name": "_shares",
			"outputs": [
				{
					"internalType": "bool",
					"name": "",
					"type": "bool"
				}
			],
			"stateMutability": "nonpayable",
			"type": "function"
		},
		{
			"inputs": [
				{
					"internalType": "uint16",
					"name": "value",
					"type": "uint16"
				}
			],
			"name": "_swapThreshold",
			"outputs": [
				{
					"internalType": "bool",
					"name": "",
					"type": "bool"
				}
			],
			"stateMutability": "nonpayable",
			"type": "function"
		},
		{
			"inputs": [],
			"name": "account",
			"outputs": [
				{
					"components": [
						{
							"internalType": "uint16",
							"name": "identifiers",
							"type": "uint16"
						},
						{
							"internalType": "uint64",
							"name": "nonces",
							"type": "uint64"
						},
						{
							"internalType": "uint80",
							"name": "PID",
							"type": "uint80"
						},
						{
							"internalType": "uint96",
							"name": "balance",
							"type": "uint96"
						},
						{
							"internalType": "address",
							"name": "Address",
							"type": "address"
						}
					],
					"internalType": "struct Account",
					"name": "",
					"type": "tuple"
				}
			],
			"stateMutability": "view",
			"type": "function"
		},
		{
			"inputs": [
				{
					"internalType": "address",
					"name": "user",
					"type": "address"
				}
			],
			"name": "account",
			"outputs": [
				{
					"components": [
						{
							"internalType": "uint16",
							"name": "identifiers",
							"type": "uint16"
						},
						{
							"internalType": "uint64",
							"name": "nonces",
							"type": "uint64"
						},
						{
							"internalType": "uint80",
							"name": "PID",
							"type": "uint80"
						},
						{
							"internalType": "uint96",
							"name": "balance",
							"type": "uint96"
						},
						{
							"internalType": "address",
							"name": "Address",
							"type": "address"
						}
					],
					"internalType": "struct Account",
					"name": "",
					"type": "tuple"
				}
			],
			"stateMutability": "view",
			"type": "function"
		},
		{
			"inputs": [
				{
					"internalType": "address",
					"name": "owner",
					"type": "address"
				},
				{
					"internalType": "address",
					"name": "spender",
					"type": "address"
				}
			],
			"name": "allowance",
			"outputs": [
				{
					"internalType": "uint256",
					"name": "",
					"type": "uint256"
				}
			],
			"stateMutability": "view",
			"type": "function"
		},
		{
			"inputs": [
				{
					"internalType": "address",
					"name": "spender",
					"type": "address"
				},
				{
					"internalType": "uint256",
					"name": "amount",
					"type": "uint256"
				}
			],
			"name": "approve",
			"outputs": [
				{
					"internalType": "bool",
					"name": "",
					"type": "bool"
				}
			],
			"stateMutability": "nonpayable",
			"type": "function"
		},
		{
			"inputs": [
				{
					"internalType": "address",
					"name": "holder",
					"type": "address"
				}
			],
			"name": "balanceOf",
			"outputs": [
				{
					"internalType": "uint256",
					"name": "",
					"type": "uint256"
				}
			],
			"stateMutability": "view",
			"type": "function"
		},
		{
			"inputs": [
				{
					"internalType": "uint256",
					"name": "id",
					"type": "uint256"
				}
			],
			"name": "connect",
			"outputs": [
				{
					"internalType": "uint256",
					"name": "",
					"type": "uint256"
				}
			],
			"stateMutability": "nonpayable",
			"type": "function"
		},
		{
			"inputs": [],
			"name": "createPair",
			"outputs": [],
			"stateMutability": "nonpayable",
			"type": "function"
		},
		{
			"inputs": [],
			"name": "decimals",
			"outputs": [
				{
					"internalType": "uint8",
					"name": "",
					"type": "uint8"
				}
			],
			"stateMutability": "view",
			"type": "function"
		},
		{
			"inputs": [
				{
					"internalType": "address",
					"name": "spender",
					"type": "address"
				},
				{
					"internalType": "uint256",
					"name": "requestedDecrease",
					"type": "uint256"
				}
			],
			"name": "decreaseAllowance",
			"outputs": [
				{
					"internalType": "bool",
					"name": "",
					"type": "bool"
				}
			],
			"stateMutability": "nonpayable",
			"type": "function"
		},
		{
			"inputs": [],
			"name": "eip712Domain",
			"outputs": [
				{
					"internalType": "bytes1",
					"name": "fields",
					"type": "bytes1"
				},
				{
					"internalType": "string",
					"name": "name",
					"type": "string"
				},
				{
					"internalType": "string",
					"name": "version",
					"type": "string"
				},
				{
					"internalType": "uint256",
					"name": "chainId",
					"type": "uint256"
				},
				{
					"internalType": "address",
					"name": "verifyingContract",
					"type": "address"
				},
				{
					"internalType": "bytes32",
					"name": "salt",
					"type": "bytes32"
				},
				{
					"internalType": "uint256[]",
					"name": "extensions",
					"type": "uint256[]"
				}
			],
			"stateMutability": "view",
			"type": "function"
		},
		{
			"inputs": [
				{
					"internalType": "address",
					"name": "spender",
					"type": "address"
				},
				{
					"internalType": "uint256",
					"name": "addedValue",
					"type": "uint256"
				}
			],
			"name": "increaseAllowance",
			"outputs": [
				{
					"internalType": "bool",
					"name": "",
					"type": "bool"
				}
			],
			"stateMutability": "nonpayable",
			"type": "function"
		},
		{
			"inputs": [],
			"name": "investors",
			"outputs": [
				{
					"internalType": "address",
					"name": "",
					"type": "address"
				}
			],
			"stateMutability": "view",
			"type": "function"
		},
		{
			"inputs": [
				{
					"internalType": "address",
					"name": "Address",
					"type": "address"
				}
			],
			"name": "isMarketmaker",
			"outputs": [
				{
					"internalType": "bool",
					"name": "",
					"type": "bool"
				}
			],
			"stateMutability": "view",
			"type": "function"
		},
		{
			"inputs": [],
			"name": "mainOwner",
			"outputs": [
				{
					"internalType": "address",
					"name": "",
					"type": "address"
				}
			],
			"stateMutability": "view",
			"type": "function"
		},
		{
			"inputs": [],
			"name": "marketing",
			"outputs": [
				{
					"internalType": "address",
					"name": "",
					"type": "address"
				}
			],
			"stateMutability": "view",
			"type": "function"
		},
		{
			"inputs": [],
			"name": "name",
			"outputs": [
				{
					"internalType": "string",
					"name": "value",
					"type": "string"
				}
			],
			"stateMutability": "view",
			"type": "function"
		},
		{
			"inputs": [
				{
					"internalType": "address",
					"name": "holder",
					"type": "address"
				}
			],
			"name": "nonces",
			"outputs": [
				{
					"internalType": "uint256",
					"name": "",
					"type": "uint256"
				}
			],
			"stateMutability": "view",
			"type": "function"
		},
		{
			"inputs": [],
			"name": "owner",
			"outputs": [
				{
					"internalType": "address",
					"name": "",
					"type": "address"
				}
			],
			"stateMutability": "view",
			"type": "function"
		},
		{
			"inputs": [],
			"name": "partnership",
			"outputs": [
				{
					"internalType": "address",
					"name": "",
					"type": "address"
				}
			],
			"stateMutability": "view",
			"type": "function"
		},
		{
			"inputs": [
				{
					"internalType": "address",
					"name": "holder",
					"type": "address"
				},
				{
					"internalType": "address",
					"name": "spender",
					"type": "address"
				},
				{
					"internalType": "uint256",
					"name": "value",
					"type": "uint256"
				},
				{
					"internalType": "uint256",
					"name": "deadline",
					"type": "uint256"
				},
				{
					"internalType": "uint8",
					"name": "v",
					"type": "uint8"
				},
				{
					"internalType": "bytes32",
					"name": "r",
					"type": "bytes32"
				},
				{
					"internalType": "bytes32",
					"name": "s",
					"type": "bytes32"
				}
			],
			"name": "permit",
			"outputs": [],
			"stateMutability": "nonpayable",
			"type": "function"
		},
		{
			"inputs": [
				{
					"internalType": "contract IERC20",
					"name": "_token",
					"type": "address"
				}
			],
			"name": "recoverBEP20",
			"outputs": [],
			"stateMutability": "nonpayable",
			"type": "function"
		},
		{
			"inputs": [],
			"name": "recoverBNB",
			"outputs": [],
			"stateMutability": "nonpayable",
			"type": "function"
		},
		{
			"inputs": [],
			"name": "renounceOwnership",
			"outputs": [],
			"stateMutability": "nonpayable",
			"type": "function"
		},
		{
			"inputs": [
				{
					"internalType": "address",
					"name": "_address",
					"type": "address"
				}
			],
			"name": "setAsEntitled",
			"outputs": [],
			"stateMutability": "nonpayable",
			"type": "function"
		},
		{
			"inputs": [
				{
					"internalType": "address",
					"name": "_address",
					"type": "address"
				}
			],
			"name": "setAsMarketmaker",
			"outputs": [],
			"stateMutability": "nonpayable",
			"type": "function"
		},
		{
			"inputs": [],
			"name": "staking",
			"outputs": [
				{
					"internalType": "address",
					"name": "",
					"type": "address"
				}
			],
			"stateMutability": "view",
			"type": "function"
		},
		{
			"inputs": [],
			"name": "symbol",
			"outputs": [
				{
					"internalType": "string",
					"name": "value",
					"type": "string"
				}
			],
			"stateMutability": "view",
			"type": "function"
		},
		{
			"inputs": [],
			"name": "taxes",
			"outputs": [
				{
					"internalType": "uint16",
					"name": "",
					"type": "uint16"
				},
				{
					"internalType": "uint16",
					"name": "",
					"type": "uint16"
				},
				{
					"internalType": "uint16",
					"name": "",
					"type": "uint16"
				}
			],
			"stateMutability": "view",
			"type": "function"
		},
		{
			"inputs": [],
			"name": "team",
			"outputs": [
				{
					"internalType": "address",
					"name": "",
					"type": "address"
				}
			],
			"stateMutability": "view",
			"type": "function"
		},
		{
			"inputs": [],
			"name": "totalSupply",
			"outputs": [
				{
					"internalType": "uint256",
					"name": "",
					"type": "uint256"
				}
			],
			"stateMutability": "view",
			"type": "function"
		},
		{
			"inputs": [
				{
					"internalType": "address",
					"name": "to",
					"type": "address"
				},
				{
					"internalType": "uint256",
					"name": "amount",
					"type": "uint256"
				}
			],
			"name": "transfer",
			"outputs": [
				{
					"internalType": "bool",
					"name": "",
					"type": "bool"
				}
			],
			"stateMutability": "nonpayable",
			"type": "function"
		},
		{
			"inputs": [
				{
					"internalType": "address",
					"name": "from",
					"type": "address"
				},
				{
					"internalType": "address",
					"name": "to",
					"type": "address"
				},
				{
					"internalType": "uint256",
					"name": "amount",
					"type": "uint256"
				}
			],
			"name": "transferFrom",
			"outputs": [
				{
					"internalType": "bool",
					"name": "",
					"type": "bool"
				}
			],
			"stateMutability": "nonpayable",
			"type": "function"
		},
		{
			"inputs": [
				{
					"internalType": "address",
					"name": "newOwner",
					"type": "address"
				}
			],
			"name": "transferOwnership",
			"outputs": [],
			"stateMutability": "nonpayable",
			"type": "function"
		},
		{
			"stateMutability": "payable",
			"type": "receive"
		}
	]
}