{
	"data": {
		"bytecode": {
			"linkReferences": {},
			"object": "6101e06040523480156200001257600080fd5b50604051620066c6380380620066c6833981810160405281019062000038919062000a9f565b6040518060400160405280600881526020017f43727970746f58520000000000000000000000000000000000000000000000008152506040518060400160405280600381526020017f58524200000000000000000000000000000000000000000000000000000000008152506012826040518060400160405280600181526020017f3100000000000000000000000000000000000000000000000000000000000000815250620000ee82620004d060201b60201c565b60808181525050818051906020012060a081815250506200011581620004d060201b60201c565b60c08181525050808051906020012060e081815250506200013b620004e760201b60201c565b610100818152505046610120818152505050506000839050600083905060008251905060008251905062000184620001786200054660201b60201c565b6200055d60201b60201c565b80602010826020101715620001bd577fb11b2ad80000000000000000000000000000000000000000000000000000000060005260046000fd5b83620001c99062000b1a565b610140818152505082620001dd9062000b1a565b6101808181525050816101608181525050806101a081815250508460ff166101c08160ff16815250505050505050505060006200021f6200054660201b60201c565b60030190506200025162000238620005de60201b60201c565b6b033b2e3c9fd0803ce8000000620005e660201b60201c565b62000262336200073860201b60201c565b620002a86200029c6200027a620005de60201b60201c565b73ffffffffffffffffffffffffffffffffffffffff166200081760201b60201c565b6200087360201b60201c565b60648160000160016101000a81548161ffff021916908361ffff16021790555060968160000160036101000a81548161ffff021916908361ffff16021790555060008160000160056101000a81548161ffff021916908361ffff16021790555060008160000160076101000a81548161ffff021916908361ffff16021790555060008160000160096101000a81548161ffff021916908361ffff16021790555061271081600001600b6101000a81548161ffff021916908361ffff160217905550600081600001600d6101000a81548161ffff021916908361ffff160217905550600081600001600f6101000a81548161ffff021916908361ffff16021790555060008160000160116101000a81548161ffff021916908361ffff160217905550622dc6c08160000160136101000a81548162ffffff021916908362ffffff16021790555060405180606001604052808373ffffffffffffffffffffffffffffffffffffffff1673ffffffffffffffffffffffffffffffffffffffff1681526020018373ffffffffffffffffffffffffffffffffffffffff1673ffffffffffffffffffffffffffffffffffffffff1681526020018373ffffffffffffffffffffffffffffffffffffffff1673ffffffffffffffffffffffffffffffffffffffff1681525081600101906003620004a092919062000994565b50620004c88273ffffffffffffffffffffffffffffffffffffffff16620008a060201b60201c565b505062000d12565b6000601f600183510310601f830151029050919050565b60007f8b73c3c69bb8fe3d512ecc4cf759cc79239f7b179b0ffacaa9a75d522b39400f60001b60a05160e05146306040516020016200052b95949392919062000bc7565b60405160208183030381529060405280519060200120905090565b600062000558620008da60201b60201c565b905090565b600081600701905060008060008073ffffffffffffffffffffffffffffffffffffffff7f0f7e96853a48444354344a7326458ae903e52bb86d9bb0f30c69ffffffffffff60301c16935083600052600085016020526040600020915061ffff600f1b925081549050826001600f1b1683198216179050808255505050505050565b600033905090565b6000620005f86200054660201b60201c565b9050818160010160148282829054906101000a90046bffffffffffffffffffffffff1662000627919062000c6b565b92506101000a8154816bffffffffffffffffffffffff02191690836bffffffffffffffffffffffff160217905550816200067d8473ffffffffffffffffffffffffffffffffffffffff166200081760201b60201c565b60000160148282829054906101000a90046bffffffffffffffffffffffff160192506101000a8154816bffffffffffffffffffffffff02191690836bffffffffffffffffffffffff1602179055508273ffffffffffffffffffffffffffffffffffffffff16600073ffffffffffffffffffffffffffffffffffffffff167fddf252ad1be2c89b69c2b068fc378daa952ba7f163c4a11628f55a4df523b3ef846040516200072b919062000cf5565b60405180910390a3505050565b60006200074a6200054660201b60201c565b905060008160010160009054906101000a900473ffffffffffffffffffffffffffffffffffffffff169050828260010160006101000a81548173ffffffffffffffffffffffffffffffffffffffff021916908373ffffffffffffffffffffffffffffffffffffffff1602179055508273ffffffffffffffffffffffffffffffffffffffff168173ffffffffffffffffffffffffffffffffffffffff167f8be0079c531659141344cd1fd0a4f28419497f9722a3daafe3b4186f6b6457e060405160405180910390a3505050565b600062000829620008da60201b60201c565b60070160000160008373ffffffffffffffffffffffffffffffffffffffff1673ffffffffffffffffffffffffffffffffffffffff1681526020019081526020016000209050919050565b6200088c600e6001836200090760201b9092919060201c565b6200089d816200097860201b60201c565b50565b620008d7620008cb8273ffffffffffffffffffffffffffffffffffffffff166200081760201b60201c565b6200097860201b60201c565b50565b6000807fcf0f5a17ff929f1db01c46f651a261919d57ba1ff3775e726349a0087188892490508091505090565b8062000934578160ff166001901b198360000160009054906101000a900461ffff1661ffff161662000955565b8160ff166001901b8360000160009054906101000a900461ffff1661ffff16175b8360000160006101000a81548161ffff021916908361ffff160217905550505050565b62000991600b6001836200090760201b9092919060201c565b50565b826003810192821562000a03579160200282015b8281111562000a025782518260006101000a81548173ffffffffffffffffffffffffffffffffffffffff021916908373ffffffffffffffffffffffffffffffffffffffff16021790555091602001919060010190620009a8565b5b50905062000a12919062000a16565b5090565b5b8082111562000a3157600081600090555060010162000a17565b5090565b600080fd5b600073ffffffffffffffffffffffffffffffffffffffff82169050919050565b600062000a678262000a3a565b9050919050565b62000a798162000a5a565b811462000a8557600080fd5b50565b60008151905062000a998162000a6e565b92915050565b60006020828403121562000ab85762000ab762000a35565b5b600062000ac88482850162000a88565b91505092915050565b600081519050919050565b6000819050602082019050919050565b6000819050919050565b600062000b04825162000aec565b80915050919050565b600082821b905092915050565b600062000b278262000ad1565b8262000b338462000adc565b905062000b408162000af6565b9250602082101562000b835762000b7e7fffffffffffffffffffffffffffffffffffffffffffffffffffffffffffffffff8360200360080262000b0d565b831692505b5050919050565b62000b958162000aec565b82525050565b6000819050919050565b62000bb08162000b9b565b82525050565b62000bc18162000a5a565b82525050565b600060a08201905062000bde600083018862000b8a565b62000bed602083018762000b8a565b62000bfc604083018662000b8a565b62000c0b606083018562000ba5565b62000c1a608083018462000bb6565b9695505050505050565b60006bffffffffffffffffffffffff82169050919050565b7f4e487b7100000000000000000000000000000000000000000000000000000000600052601160045260246000fd5b600062000c788262000c24565b915062000c858362000c24565b925082820190506bffffffffffffffffffffffff81111562000cac5762000cab62000c3c565b5b92915050565b6000819050919050565b600062000cdd62000cd762000cd18462000c24565b62000cb2565b62000b9b565b9050919050565b62000cef8162000cbc565b82525050565b600060208201905062000d0c600083018462000ce4565b92915050565b60805160a05160c05160e05161010051610120516101405161016051610180516101a0516101c05161592d62000d996000396000610ad3015260006117610152600061173c0152600061094a0152600061092501526000610b1101526000610b450152600061291701526000611651015260006128f601526000611628015261592d6000f3fe6080604052600436106102135760003560e01c80636e2ad7581161011857806395d89b41116100a0578063c3342e561161006f578063c3342e561461082a578063d505accf14610867578063dd62ed3e14610890578063ea755812146108cd578063f2fde38b146108f65761021a565b806395d89b411461076e5780639e78fb4f14610799578063a457c2d7146107b0578063a9059cbb146107ed5761021a565b806373b9aa91116100e757806373b9aa911461066f5780637c03b9b4146106ac5780637ecebe00146106d557806384b0196e146107125780638da5cb5b146107435761021a565b80636e2ad758146105b157806370a08231146105ee578063715018a61461062b578063728f8eea146106425761021a565b8063395093511161019b5780635dab24201161016a5780635dab2420146104b857806360593100146104e35780636bfdf8a0146105205780636cb07772146105375780636d84249b146105745761021a565b806339509351146103c45780634a97c9c0146104015780634c2babef1461043e578063573fb1ba1461047b5761021a565b806323b872dd116101e257806323b872dd146102db57806330adf81f14610318578063313ce5671461034357806332fe7b261461036e5780633644e515146103995761021a565b806306fdde031461021f578063095ea7b31461024a57806317f4b70c1461028757806318160ddd146102b05761021a565b3661021a57005b600080fd5b34801561022b57600080fd5b5061023461091f565b604051610241919061451b565b60405180910390f35b34801561025657600080fd5b50610271600480360381019061026c91906145e5565b610985565b60405161027e9190614640565b60405180910390f35b34801561029357600080fd5b506102ae60048036038101906102a9919061465b565b61099c565b005b3480156102bc57600080fd5b506102c56109ce565b6040516102d29190614697565b60405180910390f35b3480156102e757600080fd5b5061030260048036038101906102fd91906146b2565b610a07565b60405161030f9190614640565b60405180910390f35b34801561032457600080fd5b5061032d610aaa565b60405161033a919061471e565b60405180910390f35b34801561034f57600080fd5b50610358610ad1565b6040516103659190614755565b60405180910390f35b34801561037a57600080fd5b50610383610af5565b60405161039091906147cf565b60405180910390f35b3480156103a557600080fd5b506103ae610b0d565b6040516103bb919061471e565b60405180910390f35b3480156103d057600080fd5b506103eb60048036038101906103e691906145e5565b610b6a565b6040516103f89190614640565b60405180910390f35b34801561040d57600080fd5b5061042860048036038101906104239190614824565b610ba1565b6040516104359190614640565b60405180910390f35b34801561044a57600080fd5b506104656004803603810190610460919061489f565b610bd4565b6040516104729190614640565b60405180910390f35b34801561048757600080fd5b506104a2600480360381019061049d91906148cc565b610beb565b6040516104af9190614697565b60405180910390f35b3480156104c457600080fd5b506104cd610d42565b6040516104da91906149ee565b60405180910390f35b3480156104ef57600080fd5b5061050a6004803603810190610505919061465b565b610d58565b6040516105179190614640565b60405180910390f35b34801561052c57600080fd5b50610535610eb1565b005b34801561054357600080fd5b5061055e60048036038101906105599190614b3e565b611185565b60405161056b9190614640565b60405180910390f35b34801561058057600080fd5b5061059b60048036038101906105969190614b87565b611197565b6040516105a89190614640565b60405180910390f35b3480156105bd57600080fd5b506105d860048036038101906105d39190614be0565b6111ad565b6040516105e59190614640565b60405180910390f35b3480156105fa57600080fd5b506106156004803603810190610610919061465b565b6111cb565b6040516106229190614697565b60405180910390f35b34801561063757600080fd5b5061064061121d565b005b34801561064e57600080fd5b50610657611231565b60405161066693929190614c1c565b60405180910390f35b34801561067b57600080fd5b506106966004803603810190610691919061465b565b611444565b6040516106a391906149ee565b60405180910390f35b3480156106b857600080fd5b506106d360048036038101906106ce919061465b565b61159b565b005b3480156106e157600080fd5b506106fc60048036038101906106f7919061465b565b6115cd565b6040516107099190614697565b60405180910390f35b34801561071e57600080fd5b50610727611617565b60405161073a9796959493929190614d5b565b60405180910390f35b34801561074f57600080fd5b50610758611703565b6040516107659190614ddf565b60405180910390f35b34801561077a57600080fd5b50610783611736565b604051610790919061451b565b60405180910390f35b3480156107a557600080fd5b506107ae61179c565b005b3480156107bc57600080fd5b506107d760048036038101906107d291906145e5565b611a6b565b6040516107e49190614640565b60405180910390f35b3480156107f957600080fd5b50610814600480360381019061080f91906145e5565b611ae8565b6040516108219190614640565b60405180910390f35b34801561083657600080fd5b50610851600480360381019061084c9190614e38565b611b07565b60405161085e9190614640565b60405180910390f35b34801561087357600080fd5b5061088e60048036038101906108899190614ebd565b611b21565b005b34801561089c57600080fd5b506108b760048036038101906108b29190614f5f565b611dab565b6040516108c49190614697565b60405180910390f35b3480156108d957600080fd5b506108f460048036038101906108ef9190614fdd565b611dbf565b005b34801561090257600080fd5b5061091d6004803603810190610918919061465b565b6120d2565b005b606060007f0000000000000000000000000000000000000000000000000000000000000000905060007f00000000000000000000000000000000000000000000000000000000000000009050604051925060408301604052808352816020840152505090565b6000610992338484612158565b6001905092915050565b6109a461216a565b6109cb6109c68273ffffffffffffffffffffffffffffffffffffffff166121f1565b612245565b50565b60006109d861225f565b60010160149054906101000a90046bffffffffffffffffffffffff166bffffffffffffffffffffffff16905090565b600080610a1261226e565b9050610a1d81612276565b610a2d57610a2c8582856122c4565b5b610a38858585612358565b508373ffffffffffffffffffffffffffffffffffffffff168573ffffffffffffffffffffffffffffffffffffffff167fddf252ad1be2c89b69c2b068fc378daa952ba7f163c4a11628f55a4df523b3ef85604051610a969190614697565b60405180910390a360019150509392505050565b7f6e71edae12b1b97f4d1f60370fef10105fa2faae0126114a169c64845d6126c960001b81565b7f000000000000000000000000000000000000000000000000000000000000000081565b7310ed43c718714eb63d5aa57b78b54704e256024e81565b60007f00000000000000000000000000000000000000000000000000000000000000004614610b4357610b3e6128ce565b610b65565b7f00000000000000000000000000000000000000000000000000000000000000005b905090565b600080610b7561226e565b9050610b96818585610b878589612967565b610b919190615039565b612158565b600191505092915050565b6000610bcc828473ffffffffffffffffffffffffffffffffffffffff166129fa90919063ffffffff16565b905092915050565b6000610be48262ffffff16612a7c565b9050919050565b600080610c14610bf961226e565b73ffffffffffffffffffffffffffffffffffffffff166121f1565b9050600081600001600a9054906101000a900469ffffffffffffffffffff1669ffffffffffffffffffff1603610cce57610c4c61225f565b600201600081819054906101000a900469ffffffffffffffffffff1680929190610c759061506d565b91906101000a81548169ffffffffffffffffffff021916908369ffffffffffffffffffff16021790555081600001600a6101000a81548169ffffffffffffffffffff021916908369ffffffffffffffffffff1602179055505b8281600001600a9054906101000a900469ffffffffffffffffffff1669ffffffffffffffffffff163373ffffffffffffffffffffffffffffffffffffffff167f7d842667f749a5ac61180c742c62d621c78c94d961bfa60567a499ee28ffa4ab60405160405180910390a482915050919050565b610d4a61441e565b610d5333611444565b905090565b6000610eaa610d7c8373ffffffffffffffffffffffffffffffffffffffff166121f1565b6040518060a00160405290816000820160009054906101000a900461ffff1661ffff1661ffff1681526020016000820160029054906101000a900467ffffffffffffffff1667ffffffffffffffff1667ffffffffffffffff16815260200160008201600a9054906101000a900469ffffffffffffffffffff1669ffffffffffffffffffff1669ffffffffffffffffffff1681526020016000820160149054906101000a90046bffffffffffffffffffffffff166bffffffffffffffffffffffff166bffffffffffffffffffffffff1681526020016001820160009054906101000a900473ffffffffffffffffffffffffffffffffffffffff1673ffffffffffffffffffffffffffffffffffffffff1673ffffffffffffffffffffffffffffffffffffffff1681525050612afc565b9050919050565b6000610ebb61225f565b600301604051806101800160405290816000820160009054906101000a900460ff161515151581526020016000820160019054906101000a900461ffff1661ffff1661ffff1681526020016000820160039054906101000a900461ffff1661ffff1661ffff1681526020016000820160059054906101000a900461ffff1661ffff1661ffff1681526020016000820160079054906101000a900461ffff1661ffff1661ffff1681526020016000820160099054906101000a900461ffff1661ffff1661ffff16815260200160008201600b9054906101000a900461ffff1661ffff1661ffff16815260200160008201600d9054906101000a900461ffff1661ffff1661ffff16815260200160008201600f9054906101000a900461ffff1661ffff1661ffff1681526020016000820160119054906101000a900461ffff1661ffff1661ffff1681526020016000820160139054906101000a900462ffffff1662ffffff1662ffffff1681526020016001820160038060200260405190810160405280929190826003801561109a576020028201915b8160009054906101000a900473ffffffffffffffffffffffffffffffffffffffff1673ffffffffffffffffffffffffffffffffffffffff1681526020019060010190808311611050575b5050505050815250509050600047905060008261016001516000600381106110c5576110c461509f565b5b602002015173ffffffffffffffffffffffffffffffffffffffff168284610140015162ffffff16906040516110f9906150ff565b600060405180830381858888f193505050503d8060008114611137576040519150601f19603f3d011682016040523d82523d6000602084013e61113c565b606091505b5050905080611180576040517f08c379a000000000000000000000000000000000000000000000000000000000815260040161117790615160565b60405180910390fd5b505050565b600061119082612b19565b9050919050565b60006111a68261ffff16612ba6565b9050919050565b60006111c48269ffffffffffffffffffff16612c25565b9050919050565b60006111ec8273ffffffffffffffffffffffffffffffffffffffff166121f1565b60000160149054906101000a90046bffffffffffffffffffffffff166bffffffffffffffffffffffff169050919050565b61122561216a565b61122f6000612d4c565b565b60008060008061123f61225f565b600301604051806101800160405290816000820160009054906101000a900460ff161515151581526020016000820160019054906101000a900461ffff1661ffff1661ffff1681526020016000820160039054906101000a900461ffff1661ffff1661ffff1681526020016000820160059054906101000a900461ffff1661ffff1661ffff1681526020016000820160079054906101000a900461ffff1661ffff1661ffff1681526020016000820160099054906101000a900461ffff1661ffff1661ffff16815260200160008201600b9054906101000a900461ffff1661ffff1661ffff16815260200160008201600d9054906101000a900461ffff1661ffff1661ffff16815260200160008201600f9054906101000a900461ffff1661ffff1661ffff1681526020016000820160119054906101000a900461ffff1661ffff1661ffff1681526020016000820160139054906101000a900462ffffff1662ffffff1662ffffff1681526020016001820160038060200260405190810160405280929190826003801561141e576020028201915b8160009054906101000a900473ffffffffffffffffffffffffffffffffffffffff1673ffffffffffffffffffffffffffffffffffffffff16815260200190600101908083116113d4575b505050505081525050905080602001518160400151826060015193509350935050909192565b61144c61441e565b61146b8273ffffffffffffffffffffffffffffffffffffffff166121f1565b6040518060a00160405290816000820160009054906101000a900461ffff1661ffff1661ffff1681526020016000820160029054906101000a900467ffffffffffffffff1667ffffffffffffffff1667ffffffffffffffff16815260200160008201600a9054906101000a900469ffffffffffffffffffff1669ffffffffffffffffffff1669ffffffffffffffffffff1681526020016000820160149054906101000a90046bffffffffffffffffffffffff166bffffffffffffffffffffffff166bffffffffffffffffffffffff1681526020016001820160009054906101000a900473ffffffffffffffffffffffffffffffffffffffff1673ffffffffffffffffffffffffffffffffffffffff1673ffffffffffffffffffffffffffffffffffffffff16815250509050919050565b6115a361216a565b6115ca6115c58273ffffffffffffffffffffffffffffffffffffffff166121f1565b612e23565b50565b60006115ee8273ffffffffffffffffffffffffffffffffffffffff166121f1565b60000160029054906101000a900467ffffffffffffffff1667ffffffffffffffff169050919050565b60006060806000806000606061164c7f0000000000000000000000000000000000000000000000000000000000000000612e3d565b6116757f0000000000000000000000000000000000000000000000000000000000000000612e3d565b46306000801b600067ffffffffffffffff81111561169657611695614a13565b5b6040519080825280602002602001820160405280156116c45781602001602082028036833780820191505090505b507f0f00000000000000000000000000000000000000000000000000000000000000959493929190965096509650965096509650965090919293949596565b600061170d61225f565b60010160009054906101000a900473ffffffffffffffffffffffffffffffffffffffff16905090565b606060007f0000000000000000000000000000000000000000000000000000000000000000905060007f00000000000000000000000000000000000000000000000000000000000000009050604051925060408301604052808352816020840152505090565b6117a461216a565b60006117ae61225f565b90507310ed43c718714eb63d5aa57b78b54704e256024e73ffffffffffffffffffffffffffffffffffffffff1663c45a01556040518163ffffffff1660e01b8152600401602060405180830381865afa15801561180f573d6000803e3d6000fd5b505050506040513d601f19601f820116820180604052508101906118339190615195565b73ffffffffffffffffffffffffffffffffffffffff1663c9c65396307310ed43c718714eb63d5aa57b78b54704e256024e73ffffffffffffffffffffffffffffffffffffffff1663ad5c46486040518163ffffffff1660e01b8152600401602060405180830381865afa1580156118ae573d6000803e3d6000fd5b505050506040513d601f19601f820116820180604052508101906118d29190615195565b6040518363ffffffff1660e01b81526004016118ef9291906151c2565b6020604051808303816000875af115801561190e573d6000803e3d6000fd5b505050506040513d601f19601f820116820180604052508101906119329190615195565b8160000160006101000a81548173ffffffffffffffffffffffffffffffffffffffff021916908373ffffffffffffffffffffffffffffffffffffffff1602179055506119b5307310ed43c718714eb63d5aa57b78b54704e256024e7fffffffffffffffffffffffffffffffffffffffffffffffffffffffffffffffff6000612e64565b6119e230307fffffffffffffffffffffffffffffffffffffffffffffffffffffffffffffffff6000612e64565b611a1d611a187310ed43c718714eb63d5aa57b78b54704e256024e73ffffffffffffffffffffffffffffffffffffffff166121f1565b612245565b611a68611a638260000160009054906101000a900473ffffffffffffffffffffffffffffffffffffffff1673ffffffffffffffffffffffffffffffffffffffff166121f1565b612245565b50565b600080611a7661226e565b90506000611a848286612967565b905083811015611acf578481856040517ff8e06db2000000000000000000000000000000000000000000000000000000008152600401611ac6939291906151eb565b60405180910390fd5b611adc8286868403612158565b60019250505092915050565b6000611afc611af561226e565b8484612358565b506001905092915050565b6000611b1a8265ffffffffffff16612f63565b9050919050565b83421115611b5b576040517f1a15a3cc00000000000000000000000000000000000000000000000000000000815260040160405180910390fd5b60006001611bc37f6e71edae12b1b97f4d1f60370fef10105fa2faae0126114a169c64845d6126c960001b8a8a8a611b928e61305e565b8b604051602001611ba896959493929190615222565b6040516020818303038152906040528051906020012061313c565b85858560405160008152602001604052604051611be39493929190615283565b6020604051602081039080840390855afa158015611c05573d6000803e3d6000fd5b505050602060405103519050600073ffffffffffffffffffffffffffffffffffffffff168173ffffffffffffffffffffffffffffffffffffffff161480611c7857508773ffffffffffffffffffffffffffffffffffffffff168173ffffffffffffffffffffffffffffffffffffffff1614155b15611caf576040517f815e1d6400000000000000000000000000000000000000000000000000000000815260040160405180910390fd5b85611cb861225f565b60070160010160008373ffffffffffffffffffffffffffffffffffffffff1673ffffffffffffffffffffffffffffffffffffffff16815260200190815260200160002060008973ffffffffffffffffffffffffffffffffffffffff1673ffffffffffffffffffffffffffffffffffffffff16815260200190815260200160002081905550508573ffffffffffffffffffffffffffffffffffffffff168773ffffffffffffffffffffffffffffffffffffffff167f8c5be1e5ebec7d5bd14f71427d1e84f3dd0314c0f7b2291e5b200ac8c7c3b92587604051611d9a9190614697565b60405180910390a350505050505050565b6000611db78383612967565b905092915050565b6000611dc961225f565b600301604051806101800160405290816000820160009054906101000a900460ff161515151581526020016000820160019054906101000a900461ffff1661ffff1661ffff1681526020016000820160039054906101000a900461ffff1661ffff1661ffff1681526020016000820160059054906101000a900461ffff1661ffff1661ffff1681526020016000820160079054906101000a900461ffff1661ffff1661ffff1681526020016000820160099054906101000a900461ffff1661ffff1661ffff16815260200160008201600b9054906101000a900461ffff1661ffff1661ffff16815260200160008201600d9054906101000a900461ffff1661ffff1661ffff16815260200160008201600f9054906101000a900461ffff1661ffff1661ffff1681526020016000820160119054906101000a900461ffff1661ffff1661ffff1681526020016000820160139054906101000a900462ffffff1662ffffff1662ffffff16815260200160018201600380602002604051908101604052809291908260038015611fa8576020028201915b8160009054906101000a900473ffffffffffffffffffffffffffffffffffffffff1673ffffffffffffffffffffffffffffffffffffffff1681526020019060010190808311611f5e575b505050505081525050905060008273ffffffffffffffffffffffffffffffffffffffff166370a08231306040518263ffffffff1660e01b8152600401611fee9190614ddf565b602060405180830381865afa15801561200b573d6000803e3d6000fd5b505050506040513d601f19601f8201168201806040525081019061202f91906152dd565b90508273ffffffffffffffffffffffffffffffffffffffff1663a9059cbb8361016001516000600381106120665761206561509f565b5b6020020151836040518363ffffffff1660e01b815260040161208992919061530a565b6020604051808303816000875af11580156120a8573d6000803e3d6000fd5b505050506040513d601f19601f820116820180604052508101906120cc919061535f565b50505050565b6120da61216a565b600073ffffffffffffffffffffffffffffffffffffffff168173ffffffffffffffffffffffffffffffffffffffff160361214c5760006040517f1e4fbdf70000000000000000000000000000000000000000000000000000000081526004016121439190614ddf565b60405180910390fd5b61215581612d4c565b50565b6121658383836001612e64565b505050565b61217261226e565b73ffffffffffffffffffffffffffffffffffffffff16612190611703565b73ffffffffffffffffffffffffffffffffffffffff16146121ef576121b361226e565b6040517f118cdaa70000000000000000000000000000000000000000000000000000000081526004016121e69190614ddf565b60405180910390fd5b565b60006121fb613175565b60070160000160008373ffffffffffffffffffffffffffffffffffffffff1673ffffffffffffffffffffffffffffffffffffffff1681526020019081526020016000209050919050565b61225c600a6001836131a29092919063ffffffff16565b50565b6000612269613175565b905090565b600033905090565b60006122978273ffffffffffffffffffffffffffffffffffffffff16613211565b806122bd57506122bc8273ffffffffffffffffffffffffffffffffffffffff1661336a565b5b9050919050565b60006122d08484612967565b90507fffffffffffffffffffffffffffffffffffffffffffffffffffffffffffffffff81146123525781811015612342578281836040517f192b9e4e000000000000000000000000000000000000000000000000000000008152600401612339939291906151eb565b60405180910390fd5b61235184848484036000612e64565b5b50505050565b60008073ffffffffffffffffffffffffffffffffffffffff168473ffffffffffffffffffffffffffffffffffffffff16036123cb5760006040517f4c14f64c0000000000000000000000000000000000000000000000000000000081526004016123c29190614ddf565b60405180910390fd5b600073ffffffffffffffffffffffffffffffffffffffff168373ffffffffffffffffffffffffffffffffffffffff160361243d5760006040517f9cfea5830000000000000000000000000000000000000000000000000000000081526004016124349190614ddf565b60405180910390fd5b600061244761225f565b9050600061246a8673ffffffffffffffffffffffffffffffffffffffff166121f1565b9050600061248d8673ffffffffffffffffffffffffffffffffffffffff166121f1565b9050600073ffffffffffffffffffffffffffffffffffffffff168260010160009054906101000a900473ffffffffffffffffffffffffffffffffffffffff1673ffffffffffffffffffffffffffffffffffffffff160361252b57868260010160006101000a81548173ffffffffffffffffffffffffffffffffffffffff021916908373ffffffffffffffffffffffffffffffffffffffff1602179055505b600073ffffffffffffffffffffffffffffffffffffffff168160010160009054906101000a900473ffffffffffffffffffffffffffffffffffffffff1673ffffffffffffffffffffffffffffffffffffffff16036125c757858160010160006101000a81548173ffffffffffffffffffffffffffffffffffffffff021916908373ffffffffffffffffffffffffffffffffffffffff1602179055505b6000806000612835856040518060a00160405290816000820160009054906101000a900461ffff1661ffff1661ffff1681526020016000820160029054906101000a900467ffffffffffffffff1667ffffffffffffffff1667ffffffffffffffff16815260200160008201600a9054906101000a900469ffffffffffffffffffff1669ffffffffffffffffffff1669ffffffffffffffffffff1681526020016000820160149054906101000a90046bffffffffffffffffffffffff166bffffffffffffffffffffffff166bffffffffffffffffffffffff1681526020016001820160009054906101000a900473ffffffffffffffffffffffffffffffffffffffff1673ffffffffffffffffffffffffffffffffffffffff1673ffffffffffffffffffffffffffffffffffffffff1681525050856040518060a00160405290816000820160009054906101000a900461ffff1661ffff1661ffff1681526020016000820160029054906101000a900467ffffffffffffffff1667ffffffffffffffff1667ffffffffffffffff16815260200160008201600a9054906101000a900469ffffffffffffffffffff1669ffffffffffffffffffff1669ffffffffffffffffffff1681526020016000820160149054906101000a90046bffffffffffffffffffffffff166bffffffffffffffffffffffff166bffffffffffffffffffffffff1681526020016001820160009054906101000a900473ffffffffffffffffffffffffffffffffffffffff1673ffffffffffffffffffffffffffffffffffffffff1673ffffffffffffffffffffffffffffffffffffffff16815250508a896134c3909392919063ffffffff16565b9250925092506000836bffffffffffffffffffffffff160361286b5761285c85858a6136af565b600196505050505050506128c7565b6128948561288e3073ffffffffffffffffffffffffffffffffffffffff166121f1565b856136af565b6000816bffffffffffffffffffffffff1611156128b5576128b4816138c2565b5b6128c08585846136af565b5050505050505b9392505050565b60007f8b73c3c69bb8fe3d512ecc4cf759cc79239f7b179b0ffacaa9a75d522b39400f60001b7f00000000000000000000000000000000000000000000000000000000000000007f0000000000000000000000000000000000000000000000000000000000000000463060405160200161294c95949392919061538c565b60405160208183030381529060405280519060200120905090565b600061297161225f565b60070160010160008473ffffffffffffffffffffffffffffffffffffffff1673ffffffffffffffffffffffffffffffffffffffff16815260200190815260200160002060008373ffffffffffffffffffffffffffffffffffffffff1673ffffffffffffffffffffffffffffffffffffffff16815260200190815260200160002054905092915050565b600080612a05613175565b6007019050336000526000810160205260406000205461ffff81166001600f1b81166001600e1b82161715612a6f57620100008510612a4357600080fd5b85600052600083016020526040600020805461ffff60001b808860001b16811983161791508183555050505b6001935050505092915050565b600080612a87613175565b60030190506000612a96613175565b6007019050336000526000810160205260406000205461ffff81166001600f1b81166001600e1b82161715612aef5762e4e1c18610612ad457600080fd5b835461ffff60981b808860981b168119831617915081865550505b6001945050505050919050565b6000612b12600a8361422b90919063ffffffff16565b9050919050565b600080612b24613175565b60030190506000612b33613175565b6007019050336000526000810160205260406000205461ffff81166001600f1b81166001600e1b82161715612b9957602086015160408701516060880151801582158415171715612b8357600080fd5b8260018801558160028801558060038801555050505b6001945050505050919050565b600080612bb1613175565b60030190506000612bc0613175565b6007019050336000526000810160205260406000205461ffff81166001600f1b81166001600e1b82161715612c18576127118610612bfd57600080fd5b835461ffff60881b808860881b168119831617915081865550505b6001945050505050919050565b600080612c30613175565b60030190506000612c3f613175565b6007019050336000526000810160205260406000205461ffff81166001600f1b81166001600e1b82161715612d3f578560401c61ffff8760301c1661ffff8860201c1661ffff8960101c1661ffff8a168082848688010101016127108114612ca657600080fd5b895460005b6005811015612d335761ffff601082026038011b60008260008114612cef5760018114612cf75760028114612cff5760038114612d075760048114612d0f57612d13565b8a9150612d13565b899150612d13565b889150612d13565b879150612d13565b8691505b508181601085026038011b16821985161793505050600181019050612cab565b50808b55505050505050505b6001945050505050919050565b6000612d5661225f565b905060008160010160009054906101000a900473ffffffffffffffffffffffffffffffffffffffff169050828260010160006101000a81548173ffffffffffffffffffffffffffffffffffffffff021916908373ffffffffffffffffffffffffffffffffffffffff1602179055508273ffffffffffffffffffffffffffffffffffffffff168173ffffffffffffffffffffffffffffffffffffffff167f8be0079c531659141344cd1fd0a4f28419497f9722a3daafe3b4186f6b6457e060405160405180910390a3505050565b612e3a600b6001836131a29092919063ffffffff16565b50565b60606040519050604081016040526000815281601f82015260008151602083010152919050565b81612e6d61225f565b60070160010160008673ffffffffffffffffffffffffffffffffffffffff1673ffffffffffffffffffffffffffffffffffffffff16815260200190815260200160002060008573ffffffffffffffffffffffffffffffffffffffff1673ffffffffffffffffffffffffffffffffffffffff168152602001908152602001600020819055508015612f5d578273ffffffffffffffffffffffffffffffffffffffff168473ffffffffffffffffffffffffffffffffffffffff167f8c5be1e5ebec7d5bd14f71427d1e84f3dd0314c0f7b2291e5b200ac8c7c3b92584604051612f549190614697565b60405180910390a35b50505050565b600080612f6e613175565b60030190506000612f7d613175565b6007019050336000526000810160205260406000205461ffff81166001600f1b81166001600e1b82161715613051578560201c61ffff8760101c1661ffff88166103e98110156103e98310156103e9851015171715612fdb57600080fd5b865460005b60038110156130485761ffff601082026008011b60008260008114613014576001811461301c576002811461302457613028565b879150613028565b869150613028565b8591505b508181601085026008011b16821985161793505050600181019050612fe0565b50808855505050505b6001945050505050919050565b6000806130808373ffffffffffffffffffffffffffffffffffffffff166121f1565b905067ffffffffffffffff80168160000160029054906101000a900467ffffffffffffffff1667ffffffffffffffff16106130e25760008160000160026101000a81548167ffffffffffffffff021916908367ffffffffffffffff1602179055505b80600001600281819054906101000a900467ffffffffffffffff168092919060010191906101000a81548167ffffffffffffffff021916908367ffffffffffffffff16021790555067ffffffffffffffff16915050919050565b6000613146610b0d565b82604051602001613158929190615457565b604051602081830303815290604052805190602001209050919050565b6000807fcf0f5a17ff929f1db01c46f651a261919d57ba1ff3775e726349a0087188892490508091505090565b806131cd578160ff166001901b198360000160009054906101000a900461ffff1661ffff16166131ee565b8160ff166001901b8360000160009054906101000a900461ffff1661ffff16175b8360000160006101000a81548161ffff021916908361ffff160217905550505050565b60006133636132358373ffffffffffffffffffffffffffffffffffffffff166121f1565b6040518060a00160405290816000820160009054906101000a900461ffff1661ffff1661ffff1681526020016000820160029054906101000a900467ffffffffffffffff1667ffffffffffffffff1667ffffffffffffffff16815260200160008201600a9054906101000a900469ffffffffffffffffffff1669ffffffffffffffffffff1669ffffffffffffffffffff1681526020016000820160149054906101000a90046bffffffffffffffffffffffff166bffffffffffffffffffffffff166bffffffffffffffffffffffff1681526020016001820160009054906101000a900473ffffffffffffffffffffffffffffffffffffffff1673ffffffffffffffffffffffffffffffffffffffff1673ffffffffffffffffffffffffffffffffffffffff168152505061424d565b9050919050565b60006134bc61338e8373ffffffffffffffffffffffffffffffffffffffff166121f1565b6040518060a00160405290816000820160009054906101000a900461ffff1661ffff1661ffff1681526020016000820160029054906101000a900467ffffffffffffffff1667ffffffffffffffff1667ffffffffffffffff16815260200160008201600a9054906101000a900469ffffffffffffffffffff1669ffffffffffffffffffff1669ffffffffffffffffffff1681526020016000820160149054906101000a90046bffffffffffffffffffffffff166bffffffffffffffffffffffff166bffffffffffffffffffffffff1681526020016001820160009054906101000a900473ffffffffffffffffffffffffffffffffffffffff1673ffffffffffffffffffffffffffffffffffffffff1673ffffffffffffffffffffffffffffffffffffffff168152505061426a565b9050919050565b60008060006134d186614287565b806134e157506134e085614287565b5b806134fa575086600201600a9054906101000a900460ff165b1561350f5760008460009250925092506136a5565b61351885612afc565b6135825761271061ffff1661352c87612afc565b61354b578760030160000160059054906101000a900461ffff16613562565b8760030160000160019054906101000a900461ffff165b61ffff1685613571919061548e565b61357b91906154fa565b9250613696565b61271061ffff168760030160000160039054906101000a900461ffff1661ffff16856135ae919061548e565b6135b891906154fa565b925060008760030160000160119054906101000a900461ffff1661ffff1611613640578660070160000160003073ffffffffffffffffffffffffffffffffffffffff1673ffffffffffffffffffffffffffffffffffffffff16815260200190815260200160002060000160149054906101000a90046bffffffffffffffffffffffff16613693565b61271061ffff168760030160000160119054906101000a900461ffff1661ffff168860010160149054906101000a90046bffffffffffffffffffffffff16613688919061548e565b61369291906154fa565b5b90505b82846136a2919061552b565b91505b9450945094915050565b8260000160149054906101000a90046bffffffffffffffffffffffff166bffffffffffffffffffffffff16816bffffffffffffffffffffffff161115613770578260010160009054906101000a900473ffffffffffffffffffffffffffffffffffffffff168360000160149054906101000a90046bffffffffffffffffffffffff16826040517fdb42144d0000000000000000000000000000000000000000000000000000000081526004016137679392919061559c565b60405180910390fd5b808360000160148282829054906101000a90046bffffffffffffffffffffffff160392506101000a8154816bffffffffffffffffffffffff02191690836bffffffffffffffffffffffff160217905550808260000160148282829054906101000a90046bffffffffffffffffffffffff160192506101000a8154816bffffffffffffffffffffffff02191690836bffffffffffffffffffffffff1602179055508160010160009054906101000a900473ffffffffffffffffffffffffffffffffffffffff1673ffffffffffffffffffffffffffffffffffffffff168360010160009054906101000a900473ffffffffffffffffffffffffffffffffffffffff1673ffffffffffffffffffffffffffffffffffffffff167fddf252ad1be2c89b69c2b068fc378daa952ba7f163c4a11628f55a4df523b3ef836040516138b591906155d3565b60405180910390a3505050565b60016138cc61225f565b600201600a6101000a81548160ff02191690831515021790555060006138f061225f565b600301604051806101800160405290816000820160009054906101000a900460ff161515151581526020016000820160019054906101000a900461ffff1661ffff1661ffff1681526020016000820160039054906101000a900461ffff1661ffff1661ffff1681526020016000820160059054906101000a900461ffff1661ffff1661ffff1681526020016000820160079054906101000a900461ffff1661ffff1661ffff1681526020016000820160099054906101000a900461ffff1661ffff1661ffff16815260200160008201600b9054906101000a900461ffff1661ffff1661ffff16815260200160008201600d9054906101000a900461ffff1661ffff1661ffff16815260200160008201600f9054906101000a900461ffff1661ffff1661ffff1681526020016000820160119054906101000a900461ffff1661ffff1661ffff1681526020016000820160139054906101000a900462ffffff1662ffffff1662ffffff16815260200160018201600380602002604051908101604052809291908260038015613acf576020028201915b8160009054906101000a900473ffffffffffffffffffffffffffffffffffffffff1673ffffffffffffffffffffffffffffffffffffffff1681526020019060010190808311613a85575b50505050508152505090506000600267ffffffffffffffff811115613af757613af6614a13565b5b604051908082528060200260200182016040528015613b255781602001602082028036833780820191505090505b5090503081600081518110613b3d57613b3c61509f565b5b602002602001019073ffffffffffffffffffffffffffffffffffffffff16908173ffffffffffffffffffffffffffffffffffffffff16815250507310ed43c718714eb63d5aa57b78b54704e256024e73ffffffffffffffffffffffffffffffffffffffff1663ad5c46486040518163ffffffff1660e01b8152600401602060405180830381865afa158015613bd6573d6000803e3d6000fd5b505050506040513d601f19601f82011682018060405250810190613bfa9190615195565b81600181518110613c0e57613c0d61509f565b5b602002602001019073ffffffffffffffffffffffffffffffffffffffff16908173ffffffffffffffffffffffffffffffffffffffff16815250506000806127109050600084610100015161ffff161115613cd65760028161ffff1685610100015161ffff1687026bffffffffffffffffffffffff1681613c9157613c906154cb565b5b046bffffffffffffffffffffffff1681613cae57613cad6154cb565b5b0491508185039450600284610100015161ffff1681613cd057613ccf6154cb565b5b04810390505b60004790507310ed43c718714eb63d5aa57b78b54704e256024e73ffffffffffffffffffffffffffffffffffffffff166318cbafe58760008730426040518663ffffffff1660e01b8152600401613d319594939291906156d8565b6000604051808303816000875af1158015613d50573d6000803e3d6000fd5b505050506040513d6000823e3d601f19601f82011682018060405250810190613d7991906157fa565b50600080824703905060008060008060008b6080015161ffff161115613dc9578761ffff168b6080015161ffff1686026bffffffffffffffffffffffff1681613dc557613dc46154cb565b5b0493505b60008b60a0015161ffff161115613e0a578761ffff168b60a0015161ffff1686026bffffffffffffffffffffffff1681613e0657613e056154cb565b5b0492505b60008b60c0015161ffff161115613e4b578761ffff168b60c0015161ffff1686026bffffffffffffffffffffffff1681613e4757613e466154cb565b5b0491505b60008b60e0015161ffff161115613e8c578761ffff168b60e0015161ffff1686026bffffffffffffffffffffffff1681613e8857613e876154cb565b5b0490505b6000846bffffffffffffffffffffffff161115613eae57613ead30856142a4565b5b6000816bffffffffffffffffffffffff161115613f6a578a6101600151600060038110613ede57613edd61509f565b5b602002015173ffffffffffffffffffffffffffffffffffffffff16816bffffffffffffffffffffffff168c610140015162ffffff1690604051613f20906150ff565b600060405180830381858888f193505050503d8060008114613f5e576040519150601f19603f3d011682016040523d82523d6000602084013e613f63565b606091505b5050809650505b6000826bffffffffffffffffffffffff161115614026578a6101600151600160038110613f9a57613f9961509f565b5b602002015173ffffffffffffffffffffffffffffffffffffffff16826bffffffffffffffffffffffff168c610140015162ffffff1690604051613fdc906150ff565b600060405180830381858888f193505050503d806000811461401a576040519150601f19603f3d011682016040523d82523d6000602084013e61401f565b606091505b5050809650505b6000836bffffffffffffffffffffffff1611156140e2578a61016001516002600381106140565761405561509f565b5b602002015173ffffffffffffffffffffffffffffffffffffffff16836bffffffffffffffffffffffff168c610140015162ffffff1690604051614098906150ff565b600060405180830381858888f193505050503d80600081146140d6576040519150601f19603f3d011682016040523d82523d6000602084013e6140db565b606091505b5050809650505b6000896bffffffffffffffffffffffff1611156141f957600060028961ffff168d610100015161ffff1688026bffffffffffffffffffffffff168161412a576141296154cb565b5b046bffffffffffffffffffffffff1681614147576141466154cb565b5b0490507310ed43c718714eb63d5aa57b78b54704e256024e73ffffffffffffffffffffffffffffffffffffffff1663f305d719826bffffffffffffffffffffffff16308d60008030426040518863ffffffff1660e01b81526004016141b196959493929190615843565b60606040518083038185885af11580156141cf573d6000803e3d6000fd5b50505050506040513d601f19601f820116820180604052508101906141f491906158a4565b505050505b5050505050505050505050600061420e61225f565b600201600a6101000a81548160ff02191690831515021790555050565b60006001808360ff16856000015161ffff16901c1661ffff1614905092915050565b6000614263600d8361422b90919063ffffffff16565b9050919050565b6000614280600e8361422b90919063ffffffff16565b9050919050565b600061429d600b8361422b90919063ffffffff16565b9050919050565b60006142c58373ffffffffffffffffffffffffffffffffffffffff166121f1565b90508060000160149054906101000a90046bffffffffffffffffffffffff166bffffffffffffffffffffffff16826bffffffffffffffffffffffff16111561430c57600080fd5b818160000160148282829054906101000a90046bffffffffffffffffffffffff160392506101000a8154816bffffffffffffffffffffffff02191690836bffffffffffffffffffffffff1602179055508161436561225f565b60010160148282829054906101000a90046bffffffffffffffffffffffff160392506101000a8154816bffffffffffffffffffffffff02191690836bffffffffffffffffffffffff160217905550600073ffffffffffffffffffffffffffffffffffffffff168373ffffffffffffffffffffffffffffffffffffffff167fddf252ad1be2c89b69c2b068fc378daa952ba7f163c4a11628f55a4df523b3ef8460405161441191906155d3565b60405180910390a3505050565b6040518060a00160405280600061ffff168152602001600067ffffffffffffffff168152602001600069ffffffffffffffffffff16815260200160006bffffffffffffffffffffffff168152602001600073ffffffffffffffffffffffffffffffffffffffff1681525090565b600081519050919050565b600082825260208201905092915050565b60005b838110156144c55780820151818401526020810190506144aa565b60008484015250505050565b6000601f19601f8301169050919050565b60006144ed8261448b565b6144f78185614496565b93506145078185602086016144a7565b614510816144d1565b840191505092915050565b6000602082019050818103600083015261453581846144e2565b905092915050565b6000604051905090565b600080fd5b600080fd5b600073ffffffffffffffffffffffffffffffffffffffff82169050919050565b600061457c82614551565b9050919050565b61458c81614571565b811461459757600080fd5b50565b6000813590506145a981614583565b92915050565b6000819050919050565b6145c2816145af565b81146145cd57600080fd5b50565b6000813590506145df816145b9565b92915050565b600080604083850312156145fc576145fb614547565b5b600061460a8582860161459a565b925050602061461b858286016145d0565b9150509250929050565b60008115159050919050565b61463a81614625565b82525050565b60006020820190506146556000830184614631565b92915050565b60006020828403121561467157614670614547565b5b600061467f8482850161459a565b91505092915050565b614691816145af565b82525050565b60006020820190506146ac6000830184614688565b92915050565b6000806000606084860312156146cb576146ca614547565b5b60006146d98682870161459a565b93505060206146ea8682870161459a565b92505060406146fb868287016145d0565b9150509250925092565b6000819050919050565b61471881614705565b82525050565b6000602082019050614733600083018461470f565b92915050565b600060ff82169050919050565b61474f81614739565b82525050565b600060208201905061476a6000830184614746565b92915050565b6000819050919050565b600061479561479061478b84614551565b614770565b614551565b9050919050565b60006147a78261477a565b9050919050565b60006147b98261479c565b9050919050565b6147c9816147ae565b82525050565b60006020820190506147e460008301846147c0565b92915050565b600061ffff82169050919050565b614801816147ea565b811461480c57600080fd5b50565b60008135905061481e816147f8565b92915050565b6000806040838503121561483b5761483a614547565b5b60006148498582860161459a565b925050602061485a8582860161480f565b9150509250929050565b600062ffffff82169050919050565b61487c81614864565b811461488757600080fd5b50565b60008135905061489981614873565b92915050565b6000602082840312156148b5576148b4614547565b5b60006148c38482850161488a565b91505092915050565b6000602082840312156148e2576148e1614547565b5b60006148f0848285016145d0565b91505092915050565b614902816147ea565b82525050565b600067ffffffffffffffff82169050919050565b61492581614908565b82525050565b600069ffffffffffffffffffff82169050919050565b61494a8161492b565b82525050565b60006bffffffffffffffffffffffff82169050919050565b61497181614950565b82525050565b61498081614571565b82525050565b60a08201600082015161499c60008501826148f9565b5060208201516149af602085018261491c565b5060408201516149c26040850182614941565b5060608201516149d56060850182614968565b5060808201516149e86080850182614977565b50505050565b600060a082019050614a036000830184614986565b92915050565b600080fd5b600080fd5b7f4e487b7100000000000000000000000000000000000000000000000000000000600052604160045260246000fd5b614a4b826144d1565b810181811067ffffffffffffffff82111715614a6a57614a69614a13565b5b80604052505050565b6000614a7d61453d565b9050614a898282614a42565b919050565b600067ffffffffffffffff821115614aa957614aa8614a13565b5b614ab2826144d1565b9050602081019050919050565b82818337600083830152505050565b6000614ae1614adc84614a8e565b614a73565b905082815260208101848484011115614afd57614afc614a0e565b5b614b08848285614abf565b509392505050565b600082601f830112614b2557614b24614a09565b5b8135614b35848260208601614ace565b91505092915050565b600060208284031215614b5457614b53614547565b5b600082013567ffffffffffffffff811115614b7257614b7161454c565b5b614b7e84828501614b10565b91505092915050565b600060208284031215614b9d57614b9c614547565b5b6000614bab8482850161480f565b91505092915050565b614bbd8161492b565b8114614bc857600080fd5b50565b600081359050614bda81614bb4565b92915050565b600060208284031215614bf657614bf5614547565b5b6000614c0484828501614bcb565b91505092915050565b614c16816147ea565b82525050565b6000606082019050614c316000830186614c0d565b614c3e6020830185614c0d565b614c4b6040830184614c0d565b949350505050565b60007fff0000000000000000000000000000000000000000000000000000000000000082169050919050565b614c8881614c53565b82525050565b614c9781614571565b82525050565b600081519050919050565b600082825260208201905092915050565b6000819050602082019050919050565b614cd2816145af565b82525050565b6000614ce48383614cc9565b60208301905092915050565b6000602082019050919050565b6000614d0882614c9d565b614d128185614ca8565b9350614d1d83614cb9565b8060005b83811015614d4e578151614d358882614cd8565b9750614d4083614cf0565b925050600181019050614d21565b5085935050505092915050565b600060e082019050614d70600083018a614c7f565b8181036020830152614d8281896144e2565b90508181036040830152614d9681886144e2565b9050614da56060830187614688565b614db26080830186614c8e565b614dbf60a083018561470f565b81810360c0830152614dd18184614cfd565b905098975050505050505050565b6000602082019050614df46000830184614c8e565b92915050565b600065ffffffffffff82169050919050565b614e1581614dfa565b8114614e2057600080fd5b50565b600081359050614e3281614e0c565b92915050565b600060208284031215614e4e57614e4d614547565b5b6000614e5c84828501614e23565b91505092915050565b614e6e81614739565b8114614e7957600080fd5b50565b600081359050614e8b81614e65565b92915050565b614e9a81614705565b8114614ea557600080fd5b50565b600081359050614eb781614e91565b92915050565b600080600080600080600060e0888a031215614edc57614edb614547565b5b6000614eea8a828b0161459a565b9750506020614efb8a828b0161459a565b9650506040614f0c8a828b016145d0565b9550506060614f1d8a828b016145d0565b9450506080614f2e8a828b01614e7c565b93505060a0614f3f8a828b01614ea8565b92505060c0614f508a828b01614ea8565b91505092959891949750929550565b60008060408385031215614f7657614f75614547565b5b6000614f848582860161459a565b9250506020614f958582860161459a565b9150509250929050565b6000614faa82614571565b9050919050565b614fba81614f9f565b8114614fc557600080fd5b50565b600081359050614fd781614fb1565b92915050565b600060208284031215614ff357614ff2614547565b5b600061500184828501614fc8565b91505092915050565b7f4e487b7100000000000000000000000000000000000000000000000000000000600052601160045260246000fd5b6000615044826145af565b915061504f836145af565b92508282019050808211156150675761506661500a565b5b92915050565b60006150788261492b565b915069ffffffffffffffffffff82036150945761509361500a565b5b600182019050919050565b7f4e487b7100000000000000000000000000000000000000000000000000000000600052603260045260246000fd5b600081905092915050565b50565b60006150e96000836150ce565b91506150f4826150d9565b600082019050919050565b600061510a826150dc565b9150819050919050565b7f5478206661696c65640000000000000000000000000000000000000000000000600082015250565b600061514a600983614496565b915061515582615114565b602082019050919050565b600060208201905081810360008301526151798161513d565b9050919050565b60008151905061518f81614583565b92915050565b6000602082840312156151ab576151aa614547565b5b60006151b984828501615180565b91505092915050565b60006040820190506151d76000830185614c8e565b6151e46020830184614c8e565b9392505050565b60006060820190506152006000830186614c8e565b61520d6020830185614688565b61521a6040830184614688565b949350505050565b600060c082019050615237600083018961470f565b6152446020830188614c8e565b6152516040830187614c8e565b61525e6060830186614688565b61526b6080830185614688565b61527860a0830184614688565b979650505050505050565b6000608082019050615298600083018761470f565b6152a56020830186614746565b6152b2604083018561470f565b6152bf606083018461470f565b95945050505050565b6000815190506152d7816145b9565b92915050565b6000602082840312156152f3576152f2614547565b5b6000615301848285016152c8565b91505092915050565b600060408201905061531f6000830185614c8e565b61532c6020830184614688565b9392505050565b61533c81614625565b811461534757600080fd5b50565b60008151905061535981615333565b92915050565b60006020828403121561537557615374614547565b5b60006153838482850161534a565b91505092915050565b600060a0820190506153a1600083018861470f565b6153ae602083018761470f565b6153bb604083018661470f565b6153c86060830185614688565b6153d56080830184614c8e565b9695505050505050565b600081905092915050565b7f1901000000000000000000000000000000000000000000000000000000000000600082015250565b60006154206002836153df565b915061542b826153ea565b600282019050919050565b6000819050919050565b61545161544c82614705565b615436565b82525050565b600061546282615413565b915061546e8285615440565b60208201915061547e8284615440565b6020820191508190509392505050565b600061549982614950565b91506154a483614950565b92508282026154b281614950565b91508082146154c4576154c361500a565b5b5092915050565b7f4e487b7100000000000000000000000000000000000000000000000000000000600052601260045260246000fd5b600061550582614950565b915061551083614950565b9250826155205761551f6154cb565b5b828204905092915050565b600061553682614950565b915061554183614950565b925082820390506bffffffffffffffffffffffff8111156155655761556461500a565b5b92915050565b600061558661558161557c84614950565b614770565b6145af565b9050919050565b6155968161556b565b82525050565b60006060820190506155b16000830186614c8e565b6155be602083018561558d565b6155cb604083018461558d565b949350505050565b60006020820190506155e8600083018461558d565b92915050565b6000819050919050565b600061561361560e615609846155ee565b614770565b6145af565b9050919050565b615623816155f8565b82525050565b600081519050919050565b600082825260208201905092915050565b6000819050602082019050919050565b60006156618383614977565b60208301905092915050565b6000602082019050919050565b600061568582615629565b61568f8185615634565b935061569a83615645565b8060005b838110156156cb5781516156b28882615655565b97506156bd8361566d565b92505060018101905061569e565b5085935050505092915050565b600060a0820190506156ed600083018861558d565b6156fa602083018761561a565b818103604083015261570c818661567a565b905061571b6060830185614c8e565b6157286080830184614688565b9695505050505050565b600067ffffffffffffffff82111561574d5761574c614a13565b5b602082029050602081019050919050565b600080fd5b600061577661577184615732565b614a73565b905080838252602082019050602084028301858111156157995761579861575e565b5b835b818110156157c257806157ae88826152c8565b84526020840193505060208101905061579b565b5050509392505050565b600082601f8301126157e1576157e0614a09565b5b81516157f1848260208601615763565b91505092915050565b6000602082840312156158105761580f614547565b5b600082015167ffffffffffffffff81111561582e5761582d61454c565b5b61583a848285016157cc565b91505092915050565b600060c0820190506158586000830189614c8e565b615865602083018861558d565b615872604083018761561a565b61587f606083018661561a565b61588c6080830185614c8e565b61589960a0830184614688565b979650505050505050565b6000806000606084860312156158bd576158bc614547565b5b60006158cb868287016152c8565b93505060206158dc868287016152c8565b92505060406158ed868287016152c8565b915050925092509256fea2646970667358221220e956299e8e5e270a1910553ccb361bb1dec0a996bd88165d7282b30afac9310864736f6c63430008130033",
			"opcodes": "PUSH2 0x1E0 PUSH1 0x40 MSTORE CALLVALUE DUP1 ISZERO PUSH3 0x12 JUMPI PUSH1 0x0 DUP1 REVERT JUMPDEST POP PUSH1 0x40 MLOAD PUSH3 0x66C6 CODESIZE SUB DUP1 PUSH3 0x66C6 DUP4 CODECOPY DUP2 DUP2 ADD PUSH1 0x40 MSTORE DUP2 ADD SWAP1 PUSH3 0x38 SWAP2 SWAP1 PUSH3 0xA9F JUMP JUMPDEST PUSH1 0x40 MLOAD DUP1 PUSH1 0x40 ADD PUSH1 0x40 MSTORE DUP1 PUSH1 0x8 DUP2 MSTORE PUSH1 0x20 ADD PUSH32 0x43727970746F5852000000000000000000000000000000000000000000000000 DUP2 MSTORE POP PUSH1 0x40 MLOAD DUP1 PUSH1 0x40 ADD PUSH1 0x40 MSTORE DUP1 PUSH1 0x3 DUP2 MSTORE PUSH1 0x20 ADD PUSH32 0x5852420000000000000000000000000000000000000000000000000000000000 DUP2 MSTORE POP PUSH1 0x12 DUP3 PUSH1 0x40 MLOAD DUP1 PUSH1 0x40 ADD PUSH1 0x40 MSTORE DUP1 PUSH1 0x1 DUP2 MSTORE PUSH1 0x20 ADD PUSH32 0x3100000000000000000000000000000000000000000000000000000000000000 DUP2 MSTORE POP PUSH3 0xEE DUP3 PUSH3 0x4D0 PUSH1 0x20 SHL PUSH1 0x20 SHR JUMP JUMPDEST PUSH1 0x80 DUP2 DUP2 MSTORE POP POP DUP2 DUP1 MLOAD SWAP1 PUSH1 0x20 ADD KECCAK256 PUSH1 0xA0 DUP2 DUP2 MSTORE POP POP PUSH3 0x115 DUP2 PUSH3 0x4D0 PUSH1 0x20 SHL PUSH1 0x20 SHR JUMP JUMPDEST PUSH1 0xC0 DUP2 DUP2 MSTORE POP POP DUP1 DUP1 MLOAD SWAP1 PUSH1 0x20 ADD KECCAK256 PUSH1 0xE0 DUP2 DUP2 MSTORE POP POP PUSH3 0x13B PUSH3 0x4E7 PUSH1 0x20 SHL PUSH1 0x20 SHR JUMP JUMPDEST PUSH2 0x100 DUP2 DUP2 MSTORE POP POP CHAINID PUSH2 0x120 DUP2 DUP2 MSTORE POP POP POP POP PUSH1 0x0 DUP4 SWAP1 POP PUSH1 0x0 DUP4 SWAP1 POP PUSH1 0x0 DUP3 MLOAD SWAP1 POP PUSH1 0x0 DUP3 MLOAD SWAP1 POP PUSH3 0x184 PUSH3 0x178 PUSH3 0x546 PUSH1 0x20 SHL PUSH1 0x20 SHR JUMP JUMPDEST PUSH3 0x55D PUSH1 0x20 SHL PUSH1 0x20 SHR JUMP JUMPDEST DUP1 PUSH1 0x20 LT DUP3 PUSH1 0x20 LT OR ISZERO PUSH3 0x1BD JUMPI PUSH32 0xB11B2AD800000000000000000000000000000000000000000000000000000000 PUSH1 0x0 MSTORE PUSH1 0x4 PUSH1 0x0 REVERT JUMPDEST DUP4 PUSH3 0x1C9 SWAP1 PUSH3 0xB1A JUMP JUMPDEST PUSH2 0x140 DUP2 DUP2 MSTORE POP POP DUP3 PUSH3 0x1DD SWAP1 PUSH3 0xB1A JUMP JUMPDEST PUSH2 0x180 DUP2 DUP2 MSTORE POP POP DUP2 PUSH2 0x160 DUP2 DUP2 MSTORE POP POP DUP1 PUSH2 0x1A0 DUP2 DUP2 MSTORE POP POP DUP5 PUSH1 0xFF AND PUSH2 0x1C0 DUP2 PUSH1 0xFF AND DUP2 MSTORE POP POP POP POP POP POP POP POP POP PUSH1 0x0 PUSH3 0x21F PUSH3 0x546 PUSH1 0x20 SHL PUSH1 0x20 SHR JUMP JUMPDEST PUSH1 0x3 ADD SWAP1 POP PUSH3 0x251 PUSH3 0x238 PUSH3 0x5DE PUSH1 0x20 SHL PUSH1 0x20 SHR JUMP JUMPDEST PUSH12 0x33B2E3C9FD0803CE8000000 PUSH3 0x5E6 PUSH1 0x20 SHL PUSH1 0x20 SHR JUMP JUMPDEST PUSH3 0x262 CALLER PUSH3 0x738 PUSH1 0x20 SHL PUSH1 0x20 SHR JUMP JUMPDEST PUSH3 0x2A8 PUSH3 0x29C PUSH3 0x27A PUSH3 0x5DE PUSH1 0x20 SHL PUSH1 0x20 SHR JUMP JUMPDEST PUSH20 0xFFFFFFFFFFFFFFFFFFFFFFFFFFFFFFFFFFFFFFFF AND PUSH3 0x817 PUSH1 0x20 SHL PUSH1 0x20 SHR JUMP JUMPDEST PUSH3 0x873 PUSH1 0x20 SHL PUSH1 0x20 SHR JUMP JUMPDEST PUSH1 0x64 DUP2 PUSH1 0x0 ADD PUSH1 0x1 PUSH2 0x100 EXP DUP2 SLOAD DUP2 PUSH2 0xFFFF MUL NOT AND SWAP1 DUP4 PUSH2 0xFFFF AND MUL OR SWAP1 SSTORE POP PUSH1 0x96 DUP2 PUSH1 0x0 ADD PUSH1 0x3 PUSH2 0x100 EXP DUP2 SLOAD DUP2 PUSH2 0xFFFF MUL NOT AND SWAP1 DUP4 PUSH2 0xFFFF AND MUL OR SWAP1 SSTORE POP PUSH1 0x0 DUP2 PUSH1 0x0 ADD PUSH1 0x5 PUSH2 0x100 EXP DUP2 SLOAD DUP2 PUSH2 0xFFFF MUL NOT AND SWAP1 DUP4 PUSH2 0xFFFF AND MUL OR SWAP1 SSTORE POP PUSH1 0x0 DUP2 PUSH1 0x0 ADD PUSH1 0x7 PUSH2 0x100 EXP DUP2 SLOAD DUP2 PUSH2 0xFFFF MUL NOT AND SWAP1 DUP4 PUSH2 0xFFFF AND MUL OR SWAP1 SSTORE POP PUSH1 0x0 DUP2 PUSH1 0x0 ADD PUSH1 0x9 PUSH2 0x100 EXP DUP2 SLOAD DUP2 PUSH2 0xFFFF MUL NOT AND SWAP1 DUP4 PUSH2 0xFFFF AND MUL OR SWAP1 SSTORE POP PUSH2 0x2710 DUP2 PUSH1 0x0 ADD PUSH1 0xB PUSH2 0x100 EXP DUP2 SLOAD DUP2 PUSH2 0xFFFF MUL NOT AND SWAP1 DUP4 PUSH2 0xFFFF AND MUL OR SWAP1 SSTORE POP PUSH1 0x0 DUP2 PUSH1 0x0 ADD PUSH1 0xD PUSH2 0x100 EXP DUP2 SLOAD DUP2 PUSH2 0xFFFF MUL NOT AND SWAP1 DUP4 PUSH2 0xFFFF AND MUL OR SWAP1 SSTORE POP PUSH1 0x0 DUP2 PUSH1 0x0 ADD PUSH1 0xF PUSH2 0x100 EXP DUP2 SLOAD DUP2 PUSH2 0xFFFF MUL NOT AND SWAP1 DUP4 PUSH2 0xFFFF AND MUL OR SWAP1 SSTORE POP PUSH1 0x0 DUP2 PUSH1 0x0 ADD PUSH1 0x11 PUSH2 0x100 EXP DUP2 SLOAD DUP2 PUSH2 0xFFFF MUL NOT AND SWAP1 DUP4 PUSH2 0xFFFF AND MUL OR SWAP1 SSTORE POP PUSH3 0x2DC6C0 DUP2 PUSH1 0x0 ADD PUSH1 0x13 PUSH2 0x100 EXP DUP2 SLOAD DUP2 PUSH3 0xFFFFFF MUL NOT AND SWAP1 DUP4 PUSH3 0xFFFFFF AND MUL OR SWAP1 SSTORE POP PUSH1 0x40 MLOAD DUP1 PUSH1 0x60 ADD PUSH1 0x40 MSTORE DUP1 DUP4 PUSH20 0xFFFFFFFFFFFFFFFFFFFFFFFFFFFFFFFFFFFFFFFF AND PUSH20 0xFFFFFFFFFFFFFFFFFFFFFFFFFFFFFFFFFFFFFFFF AND DUP2 MSTORE PUSH1 0x20 ADD DUP4 PUSH20 0xFFFFFFFFFFFFFFFFFFFFFFFFFFFFFFFFFFFFFFFF AND PUSH20 0xFFFFFFFFFFFFFFFFFFFFFFFFFFFFFFFFFFFFFFFF AND DUP2 MSTORE PUSH1 0x20 ADD DUP4 PUSH20 0xFFFFFFFFFFFFFFFFFFFFFFFFFFFFFFFFFFFFFFFF AND PUSH20 0xFFFFFFFFFFFFFFFFFFFFFFFFFFFFFFFFFFFFFFFF AND DUP2 MSTORE POP DUP2 PUSH1 0x1 ADD SWAP1 PUSH1 0x3 PUSH3 0x4A0 SWAP3 SWAP2 SWAP1 PUSH3 0x994 JUMP JUMPDEST POP PUSH3 0x4C8 DUP3 PUSH20 0xFFFFFFFFFFFFFFFFFFFFFFFFFFFFFFFFFFFFFFFF AND PUSH3 0x8A0 PUSH1 0x20 SHL PUSH1 0x20 SHR JUMP JUMPDEST POP POP PUSH3 0xD12 JUMP JUMPDEST PUSH1 0x0 PUSH1 0x1F PUSH1 0x1 DUP4 MLOAD SUB LT PUSH1 0x1F DUP4 ADD MLOAD MUL SWAP1 POP SWAP2 SWAP1 POP JUMP JUMPDEST PUSH1 0x0 PUSH32 0x8B73C3C69BB8FE3D512ECC4CF759CC79239F7B179B0FFACAA9A75D522B39400F PUSH1 0x0 SHL PUSH1 0xA0 MLOAD PUSH1 0xE0 MLOAD CHAINID ADDRESS PUSH1 0x40 MLOAD PUSH1 0x20 ADD PUSH3 0x52B SWAP6 SWAP5 SWAP4 SWAP3 SWAP2 SWAP1 PUSH3 0xBC7 JUMP JUMPDEST PUSH1 0x40 MLOAD PUSH1 0x20 DUP2 DUP4 SUB SUB DUP2 MSTORE SWAP1 PUSH1 0x40 MSTORE DUP1 MLOAD SWAP1 PUSH1 0x20 ADD KECCAK256 SWAP1 POP SWAP1 JUMP JUMPDEST PUSH1 0x0 PUSH3 0x558 PUSH3 0x8DA PUSH1 0x20 SHL PUSH1 0x20 SHR JUMP JUMPDEST SWAP1 POP SWAP1 JUMP JUMPDEST PUSH1 0x0 DUP2 PUSH1 0x7 ADD SWAP1 POP PUSH1 0x0 DUP1 PUSH1 0x0 DUP1 PUSH20 0xFFFFFFFFFFFFFFFFFFFFFFFFFFFFFFFFFFFFFFFF PUSH32 0xF7E96853A48444354344A7326458AE903E52BB86D9BB0F30C69FFFFFFFFFFFF PUSH1 0x30 SHR AND SWAP4 POP DUP4 PUSH1 0x0 MSTORE PUSH1 0x0 DUP6 ADD PUSH1 0x20 MSTORE PUSH1 0x40 PUSH1 0x0 KECCAK256 SWAP2 POP PUSH2 0xFFFF PUSH1 0xF SHL SWAP3 POP DUP2 SLOAD SWAP1 POP DUP3 PUSH1 0x1 PUSH1 0xF SHL AND DUP4 NOT DUP3 AND OR SWAP1 POP DUP1 DUP3 SSTORE POP POP POP POP POP POP JUMP JUMPDEST PUSH1 0x0 CALLER SWAP1 POP SWAP1 JUMP JUMPDEST PUSH1 0x0 PUSH3 0x5F8 PUSH3 0x546 PUSH1 0x20 SHL PUSH1 0x20 SHR JUMP JUMPDEST SWAP1 POP DUP2 DUP2 PUSH1 0x1 ADD PUSH1 0x14 DUP3 DUP3 DUP3 SWAP1 SLOAD SWAP1 PUSH2 0x100 EXP SWAP1 DIV PUSH12 0xFFFFFFFFFFFFFFFFFFFFFFFF AND PUSH3 0x627 SWAP2 SWAP1 PUSH3 0xC6B JUMP JUMPDEST SWAP3 POP PUSH2 0x100 EXP DUP2 SLOAD DUP2 PUSH12 0xFFFFFFFFFFFFFFFFFFFFFFFF MUL NOT AND SWAP1 DUP4 PUSH12 0xFFFFFFFFFFFFFFFFFFFFFFFF AND MUL OR SWAP1 SSTORE POP DUP2 PUSH3 0x67D DUP5 PUSH20 0xFFFFFFFFFFFFFFFFFFFFFFFFFFFFFFFFFFFFFFFF AND PUSH3 0x817 PUSH1 0x20 SHL PUSH1 0x20 SHR JUMP JUMPDEST PUSH1 0x0 ADD PUSH1 0x14 DUP3 DUP3 DUP3 SWAP1 SLOAD SWAP1 PUSH2 0x100 EXP SWAP1 DIV PUSH12 0xFFFFFFFFFFFFFFFFFFFFFFFF AND ADD SWAP3 POP PUSH2 0x100 EXP DUP2 SLOAD DUP2 PUSH12 0xFFFFFFFFFFFFFFFFFFFFFFFF MUL NOT AND SWAP1 DUP4 PUSH12 0xFFFFFFFFFFFFFFFFFFFFFFFF AND MUL OR SWAP1 SSTORE POP DUP3 PUSH20 0xFFFFFFFFFFFFFFFFFFFFFFFFFFFFFFFFFFFFFFFF AND PUSH1 0x0 PUSH20 0xFFFFFFFFFFFFFFFFFFFFFFFFFFFFFFFFFFFFFFFF AND PUSH32 0xDDF252AD1BE2C89B69C2B068FC378DAA952BA7F163C4A11628F55A4DF523B3EF DUP5 PUSH1 0x40 MLOAD PUSH3 0x72B SWAP2 SWAP1 PUSH3 0xCF5 JUMP JUMPDEST PUSH1 0x40 MLOAD DUP1 SWAP2 SUB SWAP1 LOG3 POP POP POP JUMP JUMPDEST PUSH1 0x0 PUSH3 0x74A PUSH3 0x546 PUSH1 0x20 SHL PUSH1 0x20 SHR JUMP JUMPDEST SWAP1 POP PUSH1 0x0 DUP2 PUSH1 0x1 ADD PUSH1 0x0 SWAP1 SLOAD SWAP1 PUSH2 0x100 EXP SWAP1 DIV PUSH20 0xFFFFFFFFFFFFFFFFFFFFFFFFFFFFFFFFFFFFFFFF AND SWAP1 POP DUP3 DUP3 PUSH1 0x1 ADD PUSH1 0x0 PUSH2 0x100 EXP DUP2 SLOAD DUP2 PUSH20 0xFFFFFFFFFFFFFFFFFFFFFFFFFFFFFFFFFFFFFFFF MUL NOT AND SWAP1 DUP4 PUSH20 0xFFFFFFFFFFFFFFFFFFFFFFFFFFFFFFFFFFFFFFFF AND MUL OR SWAP1 SSTORE POP DUP3 PUSH20 0xFFFFFFFFFFFFFFFFFFFFFFFFFFFFFFFFFFFFFFFF AND DUP2 PUSH20 0xFFFFFFFFFFFFFFFFFFFFFFFFFFFFFFFFFFFFFFFF AND PUSH32 0x8BE0079C531659141344CD1FD0A4F28419497F9722A3DAAFE3B4186F6B6457E0 PUSH1 0x40 MLOAD PUSH1 0x40 MLOAD DUP1 SWAP2 SUB SWAP1 LOG3 POP POP POP JUMP JUMPDEST PUSH1 0x0 PUSH3 0x829 PUSH3 0x8DA PUSH1 0x20 SHL PUSH1 0x20 SHR JUMP JUMPDEST PUSH1 0x7 ADD PUSH1 0x0 ADD PUSH1 0x0 DUP4 PUSH20 0xFFFFFFFFFFFFFFFFFFFFFFFFFFFFFFFFFFFFFFFF AND PUSH20 0xFFFFFFFFFFFFFFFFFFFFFFFFFFFFFFFFFFFFFFFF AND DUP2 MSTORE PUSH1 0x20 ADD SWAP1 DUP2 MSTORE PUSH1 0x20 ADD PUSH1 0x0 KECCAK256 SWAP1 POP SWAP2 SWAP1 POP JUMP JUMPDEST PUSH3 0x88C PUSH1 0xE PUSH1 0x1 DUP4 PUSH3 0x907 PUSH1 0x20 SHL SWAP1 SWAP3 SWAP2 SWAP1 PUSH1 0x20 SHR JUMP JUMPDEST PUSH3 0x89D DUP2 PUSH3 0x978 PUSH1 0x20 SHL PUSH1 0x20 SHR JUMP JUMPDEST POP JUMP JUMPDEST PUSH3 0x8D7 PUSH3 0x8CB DUP3 PUSH20 0xFFFFFFFFFFFFFFFFFFFFFFFFFFFFFFFFFFFFFFFF AND PUSH3 0x817 PUSH1 0x20 SHL PUSH1 0x20 SHR JUMP JUMPDEST PUSH3 0x978 PUSH1 0x20 SHL PUSH1 0x20 SHR JUMP JUMPDEST POP JUMP JUMPDEST PUSH1 0x0 DUP1 PUSH32 0xCF0F5A17FF929F1DB01C46F651A261919D57BA1FF3775E726349A00871888924 SWAP1 POP DUP1 SWAP2 POP POP SWAP1 JUMP JUMPDEST DUP1 PUSH3 0x934 JUMPI DUP2 PUSH1 0xFF AND PUSH1 0x1 SWAP1 SHL NOT DUP4 PUSH1 0x0 ADD PUSH1 0x0 SWAP1 SLOAD SWAP1 PUSH2 0x100 EXP SWAP1 DIV PUSH2 0xFFFF AND PUSH2 0xFFFF AND AND PUSH3 0x955 JUMP JUMPDEST DUP2 PUSH1 0xFF AND PUSH1 0x1 SWAP1 SHL DUP4 PUSH1 0x0 ADD PUSH1 0x0 SWAP1 SLOAD SWAP1 PUSH2 0x100 EXP SWAP1 DIV PUSH2 0xFFFF AND PUSH2 0xFFFF AND OR JUMPDEST DUP4 PUSH1 0x0 ADD PUSH1 0x0 PUSH2 0x100 EXP DUP2 SLOAD DUP2 PUSH2 0xFFFF MUL NOT AND SWAP1 DUP4 PUSH2 0xFFFF AND MUL OR SWAP1 SSTORE POP POP POP POP JUMP JUMPDEST PUSH3 0x991 PUSH1 0xB PUSH1 0x1 DUP4 PUSH3 0x907 PUSH1 0x20 SHL SWAP1 SWAP3 SWAP2 SWAP1 PUSH1 0x20 SHR JUMP JUMPDEST POP JUMP JUMPDEST DUP3 PUSH1 0x3 DUP2 ADD SWAP3 DUP3 ISZERO PUSH3 0xA03 JUMPI SWAP2 PUSH1 0x20 MUL DUP3 ADD JUMPDEST DUP3 DUP2 GT ISZERO PUSH3 0xA02 JUMPI DUP3 MLOAD DUP3 PUSH1 0x0 PUSH2 0x100 EXP DUP2 SLOAD DUP2 PUSH20 0xFFFFFFFFFFFFFFFFFFFFFFFFFFFFFFFFFFFFFFFF MUL NOT AND SWAP1 DUP4 PUSH20 0xFFFFFFFFFFFFFFFFFFFFFFFFFFFFFFFFFFFFFFFF AND MUL OR SWAP1 SSTORE POP SWAP2 PUSH1 0x20 ADD SWAP2 SWAP1 PUSH1 0x1 ADD SWAP1 PUSH3 0x9A8 JUMP JUMPDEST JUMPDEST POP SWAP1 POP PUSH3 0xA12 SWAP2 SWAP1 PUSH3 0xA16 JUMP JUMPDEST POP SWAP1 JUMP JUMPDEST JUMPDEST DUP1 DUP3 GT ISZERO PUSH3 0xA31 JUMPI PUSH1 0x0 DUP2 PUSH1 0x0 SWAP1 SSTORE POP PUSH1 0x1 ADD PUSH3 0xA17 JUMP JUMPDEST POP SWAP1 JUMP JUMPDEST PUSH1 0x0 DUP1 REVERT JUMPDEST PUSH1 0x0 PUSH20 0xFFFFFFFFFFFFFFFFFFFFFFFFFFFFFFFFFFFFFFFF DUP3 AND SWAP1 POP SWAP2 SWAP1 POP JUMP JUMPDEST PUSH1 0x0 PUSH3 0xA67 DUP3 PUSH3 0xA3A JUMP JUMPDEST SWAP1 POP SWAP2 SWAP1 POP JUMP JUMPDEST PUSH3 0xA79 DUP2 PUSH3 0xA5A JUMP JUMPDEST DUP2 EQ PUSH3 0xA85 JUMPI PUSH1 0x0 DUP1 REVERT JUMPDEST POP JUMP JUMPDEST PUSH1 0x0 DUP2 MLOAD SWAP1 POP PUSH3 0xA99 DUP2 PUSH3 0xA6E JUMP JUMPDEST SWAP3 SWAP2 POP POP JUMP JUMPDEST PUSH1 0x0 PUSH1 0x20 DUP3 DUP5 SUB SLT ISZERO PUSH3 0xAB8 JUMPI PUSH3 0xAB7 PUSH3 0xA35 JUMP JUMPDEST JUMPDEST PUSH1 0x0 PUSH3 0xAC8 DUP5 DUP3 DUP6 ADD PUSH3 0xA88 JUMP JUMPDEST SWAP2 POP POP SWAP3 SWAP2 POP POP JUMP JUMPDEST PUSH1 0x0 DUP2 MLOAD SWAP1 POP SWAP2 SWAP1 POP JUMP JUMPDEST PUSH1 0x0 DUP2 SWAP1 POP PUSH1 0x20 DUP3 ADD SWAP1 POP SWAP2 SWAP1 POP JUMP JUMPDEST PUSH1 0x0 DUP2 SWAP1 POP SWAP2 SWAP1 POP JUMP JUMPDEST PUSH1 0x0 PUSH3 0xB04 DUP3 MLOAD PUSH3 0xAEC JUMP JUMPDEST DUP1 SWAP2 POP POP SWAP2 SWAP1 POP JUMP JUMPDEST PUSH1 0x0 DUP3 DUP3 SHL SWAP1 POP SWAP3 SWAP2 POP POP JUMP JUMPDEST PUSH1 0x0 PUSH3 0xB27 DUP3 PUSH3 0xAD1 JUMP JUMPDEST DUP3 PUSH3 0xB33 DUP5 PUSH3 0xADC JUMP JUMPDEST SWAP1 POP PUSH3 0xB40 DUP2 PUSH3 0xAF6 JUMP JUMPDEST SWAP3 POP PUSH1 0x20 DUP3 LT ISZERO PUSH3 0xB83 JUMPI PUSH3 0xB7E PUSH32 0xFFFFFFFFFFFFFFFFFFFFFFFFFFFFFFFFFFFFFFFFFFFFFFFFFFFFFFFFFFFFFFFF DUP4 PUSH1 0x20 SUB PUSH1 0x8 MUL PUSH3 0xB0D JUMP JUMPDEST DUP4 AND SWAP3 POP JUMPDEST POP POP SWAP2 SWAP1 POP JUMP JUMPDEST PUSH3 0xB95 DUP2 PUSH3 0xAEC JUMP JUMPDEST DUP3 MSTORE POP POP JUMP JUMPDEST PUSH1 0x0 DUP2 SWAP1 POP SWAP2 SWAP1 POP JUMP JUMPDEST PUSH3 0xBB0 DUP2 PUSH3 0xB9B JUMP JUMPDEST DUP3 MSTORE POP POP JUMP JUMPDEST PUSH3 0xBC1 DUP2 PUSH3 0xA5A JUMP JUMPDEST DUP3 MSTORE POP POP JUMP JUMPDEST PUSH1 0x0 PUSH1 0xA0 DUP3 ADD SWAP1 POP PUSH3 0xBDE PUSH1 0x0 DUP4 ADD DUP9 PUSH3 0xB8A JUMP JUMPDEST PUSH3 0xBED PUSH1 0x20 DUP4 ADD DUP8 PUSH3 0xB8A JUMP JUMPDEST PUSH3 0xBFC PUSH1 0x40 DUP4 ADD DUP7 PUSH3 0xB8A JUMP JUMPDEST PUSH3 0xC0B PUSH1 0x60 DUP4 ADD DUP6 PUSH3 0xBA5 JUMP JUMPDEST PUSH3 0xC1A PUSH1 0x80 DUP4 ADD DUP5 PUSH3 0xBB6 JUMP JUMPDEST SWAP7 SWAP6 POP POP POP POP POP POP JUMP JUMPDEST PUSH1 0x0 PUSH12 0xFFFFFFFFFFFFFFFFFFFFFFFF DUP3 AND SWAP1 POP SWAP2 SWAP1 POP JUMP JUMPDEST PUSH32 0x4E487B7100000000000000000000000000000000000000000000000000000000 PUSH1 0x0 MSTORE PUSH1 0x11 PUSH1 0x4 MSTORE PUSH1 0x24 PUSH1 0x0 REVERT JUMPDEST PUSH1 0x0 PUSH3 0xC78 DUP3 PUSH3 0xC24 JUMP JUMPDEST SWAP2 POP PUSH3 0xC85 DUP4 PUSH3 0xC24 JUMP JUMPDEST SWAP3 POP DUP3 DUP3 ADD SWAP1 POP PUSH12 0xFFFFFFFFFFFFFFFFFFFFFFFF DUP2 GT ISZERO PUSH3 0xCAC JUMPI PUSH3 0xCAB PUSH3 0xC3C JUMP JUMPDEST JUMPDEST SWAP3 SWAP2 POP POP JUMP JUMPDEST PUSH1 0x0 DUP2 SWAP1 POP SWAP2 SWAP1 POP JUMP JUMPDEST PUSH1 0x0 PUSH3 0xCDD PUSH3 0xCD7 PUSH3 0xCD1 DUP5 PUSH3 0xC24 JUMP JUMPDEST PUSH3 0xCB2 JUMP JUMPDEST PUSH3 0xB9B JUMP JUMPDEST SWAP1 POP SWAP2 SWAP1 POP JUMP JUMPDEST PUSH3 0xCEF DUP2 PUSH3 0xCBC JUMP JUMPDEST DUP3 MSTORE POP POP JUMP JUMPDEST PUSH1 0x0 PUSH1 0x20 DUP3 ADD SWAP1 POP PUSH3 0xD0C PUSH1 0x0 DUP4 ADD DUP5 PUSH3 0xCE4 JUMP JUMPDEST SWAP3 SWAP2 POP POP JUMP JUMPDEST PUSH1 0x80 MLOAD PUSH1 0xA0 MLOAD PUSH1 0xC0 MLOAD PUSH1 0xE0 MLOAD PUSH2 0x100 MLOAD PUSH2 0x120 MLOAD PUSH2 0x140 MLOAD PUSH2 0x160 MLOAD PUSH2 0x180 MLOAD PUSH2 0x1A0 MLOAD PUSH2 0x1C0 MLOAD PUSH2 0x592D PUSH3 0xD99 PUSH1 0x0 CODECOPY PUSH1 0x0 PUSH2 0xAD3 ADD MSTORE PUSH1 0x0 PUSH2 0x1761 ADD MSTORE PUSH1 0x0 PUSH2 0x173C ADD MSTORE PUSH1 0x0 PUSH2 0x94A ADD MSTORE PUSH1 0x0 PUSH2 0x925 ADD MSTORE PUSH1 0x0 PUSH2 0xB11 ADD MSTORE PUSH1 0x0 PUSH2 0xB45 ADD MSTORE PUSH1 0x0 PUSH2 0x2917 ADD MSTORE PUSH1 0x0 PUSH2 0x1651 ADD MSTORE PUSH1 0x0 PUSH2 0x28F6 ADD MSTORE PUSH1 0x0 PUSH2 0x1628 ADD MSTORE PUSH2 0x592D PUSH1 0x0 RETURN INVALID PUSH1 0x80 PUSH1 0x40 MSTORE PUSH1 0x4 CALLDATASIZE LT PUSH2 0x213 JUMPI PUSH1 0x0 CALLDATALOAD PUSH1 0xE0 SHR DUP1 PUSH4 0x6E2AD758 GT PUSH2 0x118 JUMPI DUP1 PUSH4 0x95D89B41 GT PUSH2 0xA0 JUMPI DUP1 PUSH4 0xC3342E56 GT PUSH2 0x6F JUMPI DUP1 PUSH4 0xC3342E56 EQ PUSH2 0x82A JUMPI DUP1 PUSH4 0xD505ACCF EQ PUSH2 0x867 JUMPI DUP1 PUSH4 0xDD62ED3E EQ PUSH2 0x890 JUMPI DUP1 PUSH4 0xEA755812 EQ PUSH2 0x8CD JUMPI DUP1 PUSH4 0xF2FDE38B EQ PUSH2 0x8F6 JUMPI PUSH2 0x21A JUMP JUMPDEST DUP1 PUSH4 0x95D89B41 EQ PUSH2 0x76E JUMPI DUP1 PUSH4 0x9E78FB4F EQ PUSH2 0x799 JUMPI DUP1 PUSH4 0xA457C2D7 EQ PUSH2 0x7B0 JUMPI DUP1 PUSH4 0xA9059CBB EQ PUSH2 0x7ED JUMPI PUSH2 0x21A JUMP JUMPDEST DUP1 PUSH4 0x73B9AA91 GT PUSH2 0xE7 JUMPI DUP1 PUSH4 0x73B9AA91 EQ PUSH2 0x66F JUMPI DUP1 PUSH4 0x7C03B9B4 EQ PUSH2 0x6AC JUMPI DUP1 PUSH4 0x7ECEBE00 EQ PUSH2 0x6D5 JUMPI DUP1 PUSH4 0x84B0196E EQ PUSH2 0x712 JUMPI DUP1 PUSH4 0x8DA5CB5B EQ PUSH2 0x743 JUMPI PUSH2 0x21A JUMP JUMPDEST DUP1 PUSH4 0x6E2AD758 EQ PUSH2 0x5B1 JUMPI DUP1 PUSH4 0x70A08231 EQ PUSH2 0x5EE JUMPI DUP1 PUSH4 0x715018A6 EQ PUSH2 0x62B JUMPI DUP1 PUSH4 0x728F8EEA EQ PUSH2 0x642 JUMPI PUSH2 0x21A JUMP JUMPDEST DUP1 PUSH4 0x39509351 GT PUSH2 0x19B JUMPI DUP1 PUSH4 0x5DAB2420 GT PUSH2 0x16A JUMPI DUP1 PUSH4 0x5DAB2420 EQ PUSH2 0x4B8 JUMPI DUP1 PUSH4 0x60593100 EQ PUSH2 0x4E3 JUMPI DUP1 PUSH4 0x6BFDF8A0 EQ PUSH2 0x520 JUMPI DUP1 PUSH4 0x6CB07772 EQ PUSH2 0x537 JUMPI DUP1 PUSH4 0x6D84249B EQ PUSH2 0x574 JUMPI PUSH2 0x21A JUMP JUMPDEST DUP1 PUSH4 0x39509351 EQ PUSH2 0x3C4 JUMPI DUP1 PUSH4 0x4A97C9C0 EQ PUSH2 0x401 JUMPI DUP1 PUSH4 0x4C2BABEF EQ PUSH2 0x43E JUMPI DUP1 PUSH4 0x573FB1BA EQ PUSH2 0x47B JUMPI PUSH2 0x21A JUMP JUMPDEST DUP1 PUSH4 0x23B872DD GT PUSH2 0x1E2 JUMPI DUP1 PUSH4 0x23B872DD EQ PUSH2 0x2DB JUMPI DUP1 PUSH4 0x30ADF81F EQ PUSH2 0x318 JUMPI DUP1 PUSH4 0x313CE567 EQ PUSH2 0x343 JUMPI DUP1 PUSH4 0x32FE7B26 EQ PUSH2 0x36E JUMPI DUP1 PUSH4 0x3644E515 EQ PUSH2 0x399 JUMPI PUSH2 0x21A JUMP JUMPDEST DUP1 PUSH4 0x6FDDE03 EQ PUSH2 0x21F JUMPI DUP1 PUSH4 0x95EA7B3 EQ PUSH2 0x24A JUMPI DUP1 PUSH4 0x17F4B70C EQ PUSH2 0x287 JUMPI DUP1 PUSH4 0x18160DDD EQ PUSH2 0x2B0 JUMPI PUSH2 0x21A JUMP JUMPDEST CALLDATASIZE PUSH2 0x21A JUMPI STOP JUMPDEST PUSH1 0x0 DUP1 REVERT JUMPDEST CALLVALUE DUP1 ISZERO PUSH2 0x22B JUMPI PUSH1 0x0 DUP1 REVERT JUMPDEST POP PUSH2 0x234 PUSH2 0x91F JUMP JUMPDEST PUSH1 0x40 MLOAD PUSH2 0x241 SWAP2 SWAP1 PUSH2 0x451B JUMP JUMPDEST PUSH1 0x40 MLOAD DUP1 SWAP2 SUB SWAP1 RETURN JUMPDEST CALLVALUE DUP1 ISZERO PUSH2 0x256 JUMPI PUSH1 0x0 DUP1 REVERT JUMPDEST POP PUSH2 0x271 PUSH1 0x4 DUP1 CALLDATASIZE SUB DUP2 ADD SWAP1 PUSH2 0x26C SWAP2 SWAP1 PUSH2 0x45E5 JUMP JUMPDEST PUSH2 0x985 JUMP JUMPDEST PUSH1 0x40 MLOAD PUSH2 0x27E SWAP2 SWAP1 PUSH2 0x4640 JUMP JUMPDEST PUSH1 0x40 MLOAD DUP1 SWAP2 SUB SWAP1 RETURN JUMPDEST CALLVALUE DUP1 ISZERO PUSH2 0x293 JUMPI PUSH1 0x0 DUP1 REVERT JUMPDEST POP PUSH2 0x2AE PUSH1 0x4 DUP1 CALLDATASIZE SUB DUP2 ADD SWAP1 PUSH2 0x2A9 SWAP2 SWAP1 PUSH2 0x465B JUMP JUMPDEST PUSH2 0x99C JUMP JUMPDEST STOP JUMPDEST CALLVALUE DUP1 ISZERO PUSH2 0x2BC JUMPI PUSH1 0x0 DUP1 REVERT JUMPDEST POP PUSH2 0x2C5 PUSH2 0x9CE JUMP JUMPDEST PUSH1 0x40 MLOAD PUSH2 0x2D2 SWAP2 SWAP1 PUSH2 0x4697 JUMP JUMPDEST PUSH1 0x40 MLOAD DUP1 SWAP2 SUB SWAP1 RETURN JUMPDEST CALLVALUE DUP1 ISZERO PUSH2 0x2E7 JUMPI PUSH1 0x0 DUP1 REVERT JUMPDEST POP PUSH2 0x302 PUSH1 0x4 DUP1 CALLDATASIZE SUB DUP2 ADD SWAP1 PUSH2 0x2FD SWAP2 SWAP1 PUSH2 0x46B2 JUMP JUMPDEST PUSH2 0xA07 JUMP JUMPDEST PUSH1 0x40 MLOAD PUSH2 0x30F SWAP2 SWAP1 PUSH2 0x4640 JUMP JUMPDEST PUSH1 0x40 MLOAD DUP1 SWAP2 SUB SWAP1 RETURN JUMPDEST CALLVALUE DUP1 ISZERO PUSH2 0x324 JUMPI PUSH1 0x0 DUP1 REVERT JUMPDEST POP PUSH2 0x32D PUSH2 0xAAA JUMP JUMPDEST PUSH1 0x40 MLOAD PUSH2 0x33A SWAP2 SWAP1 PUSH2 0x471E JUMP JUMPDEST PUSH1 0x40 MLOAD DUP1 SWAP2 SUB SWAP1 RETURN JUMPDEST CALLVALUE DUP1 ISZERO PUSH2 0x34F JUMPI PUSH1 0x0 DUP1 REVERT JUMPDEST POP PUSH2 0x358 PUSH2 0xAD1 JUMP JUMPDEST PUSH1 0x40 MLOAD PUSH2 0x365 SWAP2 SWAP1 PUSH2 0x4755 JUMP JUMPDEST PUSH1 0x40 MLOAD DUP1 SWAP2 SUB SWAP1 RETURN JUMPDEST CALLVALUE DUP1 ISZERO PUSH2 0x37A JUMPI PUSH1 0x0 DUP1 REVERT JUMPDEST POP PUSH2 0x383 PUSH2 0xAF5 JUMP JUMPDEST PUSH1 0x40 MLOAD PUSH2 0x390 SWAP2 SWAP1 PUSH2 0x47CF JUMP JUMPDEST PUSH1 0x40 MLOAD DUP1 SWAP2 SUB SWAP1 RETURN JUMPDEST CALLVALUE DUP1 ISZERO PUSH2 0x3A5 JUMPI PUSH1 0x0 DUP1 REVERT JUMPDEST POP PUSH2 0x3AE PUSH2 0xB0D JUMP JUMPDEST PUSH1 0x40 MLOAD PUSH2 0x3BB SWAP2 SWAP1 PUSH2 0x471E JUMP JUMPDEST PUSH1 0x40 MLOAD DUP1 SWAP2 SUB SWAP1 RETURN JUMPDEST CALLVALUE DUP1 ISZERO PUSH2 0x3D0 JUMPI PUSH1 0x0 DUP1 REVERT JUMPDEST POP PUSH2 0x3EB PUSH1 0x4 DUP1 CALLDATASIZE SUB DUP2 ADD SWAP1 PUSH2 0x3E6 SWAP2 SWAP1 PUSH2 0x45E5 JUMP JUMPDEST PUSH2 0xB6A JUMP JUMPDEST PUSH1 0x40 MLOAD PUSH2 0x3F8 SWAP2 SWAP1 PUSH2 0x4640 JUMP JUMPDEST PUSH1 0x40 MLOAD DUP1 SWAP2 SUB SWAP1 RETURN JUMPDEST CALLVALUE DUP1 ISZERO PUSH2 0x40D JUMPI PUSH1 0x0 DUP1 REVERT JUMPDEST POP PUSH2 0x428 PUSH1 0x4 DUP1 CALLDATASIZE SUB DUP2 ADD SWAP1 PUSH2 0x423 SWAP2 SWAP1 PUSH2 0x4824 JUMP JUMPDEST PUSH2 0xBA1 JUMP JUMPDEST PUSH1 0x40 MLOAD PUSH2 0x435 SWAP2 SWAP1 PUSH2 0x4640 JUMP JUMPDEST PUSH1 0x40 MLOAD DUP1 SWAP2 SUB SWAP1 RETURN JUMPDEST CALLVALUE DUP1 ISZERO PUSH2 0x44A JUMPI PUSH1 0x0 DUP1 REVERT JUMPDEST POP PUSH2 0x465 PUSH1 0x4 DUP1 CALLDATASIZE SUB DUP2 ADD SWAP1 PUSH2 0x460 SWAP2 SWAP1 PUSH2 0x489F JUMP JUMPDEST PUSH2 0xBD4 JUMP JUMPDEST PUSH1 0x40 MLOAD PUSH2 0x472 SWAP2 SWAP1 PUSH2 0x4640 JUMP JUMPDEST PUSH1 0x40 MLOAD DUP1 SWAP2 SUB SWAP1 RETURN JUMPDEST CALLVALUE DUP1 ISZERO PUSH2 0x487 JUMPI PUSH1 0x0 DUP1 REVERT JUMPDEST POP PUSH2 0x4A2 PUSH1 0x4 DUP1 CALLDATASIZE SUB DUP2 ADD SWAP1 PUSH2 0x49D SWAP2 SWAP1 PUSH2 0x48CC JUMP JUMPDEST PUSH2 0xBEB JUMP JUMPDEST PUSH1 0x40 MLOAD PUSH2 0x4AF SWAP2 SWAP1 PUSH2 0x4697 JUMP JUMPDEST PUSH1 0x40 MLOAD DUP1 SWAP2 SUB SWAP1 RETURN JUMPDEST CALLVALUE DUP1 ISZERO PUSH2 0x4C4 JUMPI PUSH1 0x0 DUP1 REVERT JUMPDEST POP PUSH2 0x4CD PUSH2 0xD42 JUMP JUMPDEST PUSH1 0x40 MLOAD PUSH2 0x4DA SWAP2 SWAP1 PUSH2 0x49EE JUMP JUMPDEST PUSH1 0x40 MLOAD DUP1 SWAP2 SUB SWAP1 RETURN JUMPDEST CALLVALUE DUP1 ISZERO PUSH2 0x4EF JUMPI PUSH1 0x0 DUP1 REVERT JUMPDEST POP PUSH2 0x50A PUSH1 0x4 DUP1 CALLDATASIZE SUB DUP2 ADD SWAP1 PUSH2 0x505 SWAP2 SWAP1 PUSH2 0x465B JUMP JUMPDEST PUSH2 0xD58 JUMP JUMPDEST PUSH1 0x40 MLOAD PUSH2 0x517 SWAP2 SWAP1 PUSH2 0x4640 JUMP JUMPDEST PUSH1 0x40 MLOAD DUP1 SWAP2 SUB SWAP1 RETURN JUMPDEST CALLVALUE DUP1 ISZERO PUSH2 0x52C JUMPI PUSH1 0x0 DUP1 REVERT JUMPDEST POP PUSH2 0x535 PUSH2 0xEB1 JUMP JUMPDEST STOP JUMPDEST CALLVALUE DUP1 ISZERO PUSH2 0x543 JUMPI PUSH1 0x0 DUP1 REVERT JUMPDEST POP PUSH2 0x55E PUSH1 0x4 DUP1 CALLDATASIZE SUB DUP2 ADD SWAP1 PUSH2 0x559 SWAP2 SWAP1 PUSH2 0x4B3E JUMP JUMPDEST PUSH2 0x1185 JUMP JUMPDEST PUSH1 0x40 MLOAD PUSH2 0x56B SWAP2 SWAP1 PUSH2 0x4640 JUMP JUMPDEST PUSH1 0x40 MLOAD DUP1 SWAP2 SUB SWAP1 RETURN JUMPDEST CALLVALUE DUP1 ISZERO PUSH2 0x580 JUMPI PUSH1 0x0 DUP1 REVERT JUMPDEST POP PUSH2 0x59B PUSH1 0x4 DUP1 CALLDATASIZE SUB DUP2 ADD SWAP1 PUSH2 0x596 SWAP2 SWAP1 PUSH2 0x4B87 JUMP JUMPDEST PUSH2 0x1197 JUMP JUMPDEST PUSH1 0x40 MLOAD PUSH2 0x5A8 SWAP2 SWAP1 PUSH2 0x4640 JUMP JUMPDEST PUSH1 0x40 MLOAD DUP1 SWAP2 SUB SWAP1 RETURN JUMPDEST CALLVALUE DUP1 ISZERO PUSH2 0x5BD JUMPI PUSH1 0x0 DUP1 REVERT JUMPDEST POP PUSH2 0x5D8 PUSH1 0x4 DUP1 CALLDATASIZE SUB DUP2 ADD SWAP1 PUSH2 0x5D3 SWAP2 SWAP1 PUSH2 0x4BE0 JUMP JUMPDEST PUSH2 0x11AD JUMP JUMPDEST PUSH1 0x40 MLOAD PUSH2 0x5E5 SWAP2 SWAP1 PUSH2 0x4640 JUMP JUMPDEST PUSH1 0x40 MLOAD DUP1 SWAP2 SUB SWAP1 RETURN JUMPDEST CALLVALUE DUP1 ISZERO PUSH2 0x5FA JUMPI PUSH1 0x0 DUP1 REVERT JUMPDEST POP PUSH2 0x615 PUSH1 0x4 DUP1 CALLDATASIZE SUB DUP2 ADD SWAP1 PUSH2 0x610 SWAP2 SWAP1 PUSH2 0x465B JUMP JUMPDEST PUSH2 0x11CB JUMP JUMPDEST PUSH1 0x40 MLOAD PUSH2 0x622 SWAP2 SWAP1 PUSH2 0x4697 JUMP JUMPDEST PUSH1 0x40 MLOAD DUP1 SWAP2 SUB SWAP1 RETURN JUMPDEST CALLVALUE DUP1 ISZERO PUSH2 0x637 JUMPI PUSH1 0x0 DUP1 REVERT JUMPDEST POP PUSH2 0x640 PUSH2 0x121D JUMP JUMPDEST STOP JUMPDEST CALLVALUE DUP1 ISZERO PUSH2 0x64E JUMPI PUSH1 0x0 DUP1 REVERT JUMPDEST POP PUSH2 0x657 PUSH2 0x1231 JUMP JUMPDEST PUSH1 0x40 MLOAD PUSH2 0x666 SWAP4 SWAP3 SWAP2 SWAP1 PUSH2 0x4C1C JUMP JUMPDEST PUSH1 0x40 MLOAD DUP1 SWAP2 SUB SWAP1 RETURN JUMPDEST CALLVALUE DUP1 ISZERO PUSH2 0x67B JUMPI PUSH1 0x0 DUP1 REVERT JUMPDEST POP PUSH2 0x696 PUSH1 0x4 DUP1 CALLDATASIZE SUB DUP2 ADD SWAP1 PUSH2 0x691 SWAP2 SWAP1 PUSH2 0x465B JUMP JUMPDEST PUSH2 0x1444 JUMP JUMPDEST PUSH1 0x40 MLOAD PUSH2 0x6A3 SWAP2 SWAP1 PUSH2 0x49EE JUMP JUMPDEST PUSH1 0x40 MLOAD DUP1 SWAP2 SUB SWAP1 RETURN JUMPDEST CALLVALUE DUP1 ISZERO PUSH2 0x6B8 JUMPI PUSH1 0x0 DUP1 REVERT JUMPDEST POP PUSH2 0x6D3 PUSH1 0x4 DUP1 CALLDATASIZE SUB DUP2 ADD SWAP1 PUSH2 0x6CE SWAP2 SWAP1 PUSH2 0x465B JUMP JUMPDEST PUSH2 0x159B JUMP JUMPDEST STOP JUMPDEST CALLVALUE DUP1 ISZERO PUSH2 0x6E1 JUMPI PUSH1 0x0 DUP1 REVERT JUMPDEST POP PUSH2 0x6FC PUSH1 0x4 DUP1 CALLDATASIZE SUB DUP2 ADD SWAP1 PUSH2 0x6F7 SWAP2 SWAP1 PUSH2 0x465B JUMP JUMPDEST PUSH2 0x15CD JUMP JUMPDEST PUSH1 0x40 MLOAD PUSH2 0x709 SWAP2 SWAP1 PUSH2 0x4697 JUMP JUMPDEST PUSH1 0x40 MLOAD DUP1 SWAP2 SUB SWAP1 RETURN JUMPDEST CALLVALUE DUP1 ISZERO PUSH2 0x71E JUMPI PUSH1 0x0 DUP1 REVERT JUMPDEST POP PUSH2 0x727 PUSH2 0x1617 JUMP JUMPDEST PUSH1 0x40 MLOAD PUSH2 0x73A SWAP8 SWAP7 SWAP6 SWAP5 SWAP4 SWAP3 SWAP2 SWAP1 PUSH2 0x4D5B JUMP JUMPDEST PUSH1 0x40 MLOAD DUP1 SWAP2 SUB SWAP1 RETURN JUMPDEST CALLVALUE DUP1 ISZERO PUSH2 0x74F JUMPI PUSH1 0x0 DUP1 REVERT JUMPDEST POP PUSH2 0x758 PUSH2 0x1703 JUMP JUMPDEST PUSH1 0x40 MLOAD PUSH2 0x765 SWAP2 SWAP1 PUSH2 0x4DDF JUMP JUMPDEST PUSH1 0x40 MLOAD DUP1 SWAP2 SUB SWAP1 RETURN JUMPDEST CALLVALUE DUP1 ISZERO PUSH2 0x77A JUMPI PUSH1 0x0 DUP1 REVERT JUMPDEST POP PUSH2 0x783 PUSH2 0x1736 JUMP JUMPDEST PUSH1 0x40 MLOAD PUSH2 0x790 SWAP2 SWAP1 PUSH2 0x451B JUMP JUMPDEST PUSH1 0x40 MLOAD DUP1 SWAP2 SUB SWAP1 RETURN JUMPDEST CALLVALUE DUP1 ISZERO PUSH2 0x7A5 JUMPI PUSH1 0x0 DUP1 REVERT JUMPDEST POP PUSH2 0x7AE PUSH2 0x179C JUMP JUMPDEST STOP JUMPDEST CALLVALUE DUP1 ISZERO PUSH2 0x7BC JUMPI PUSH1 0x0 DUP1 REVERT JUMPDEST POP PUSH2 0x7D7 PUSH1 0x4 DUP1 CALLDATASIZE SUB DUP2 ADD SWAP1 PUSH2 0x7D2 SWAP2 SWAP1 PUSH2 0x45E5 JUMP JUMPDEST PUSH2 0x1A6B JUMP JUMPDEST PUSH1 0x40 MLOAD PUSH2 0x7E4 SWAP2 SWAP1 PUSH2 0x4640 JUMP JUMPDEST PUSH1 0x40 MLOAD DUP1 SWAP2 SUB SWAP1 RETURN JUMPDEST CALLVALUE DUP1 ISZERO PUSH2 0x7F9 JUMPI PUSH1 0x0 DUP1 REVERT JUMPDEST POP PUSH2 0x814 PUSH1 0x4 DUP1 CALLDATASIZE SUB DUP2 ADD SWAP1 PUSH2 0x80F SWAP2 SWAP1 PUSH2 0x45E5 JUMP JUMPDEST PUSH2 0x1AE8 JUMP JUMPDEST PUSH1 0x40 MLOAD PUSH2 0x821 SWAP2 SWAP1 PUSH2 0x4640 JUMP JUMPDEST PUSH1 0x40 MLOAD DUP1 SWAP2 SUB SWAP1 RETURN JUMPDEST CALLVALUE DUP1 ISZERO PUSH2 0x836 JUMPI PUSH1 0x0 DUP1 REVERT JUMPDEST POP PUSH2 0x851 PUSH1 0x4 DUP1 CALLDATASIZE SUB DUP2 ADD SWAP1 PUSH2 0x84C SWAP2 SWAP1 PUSH2 0x4E38 JUMP JUMPDEST PUSH2 0x1B07 JUMP JUMPDEST PUSH1 0x40 MLOAD PUSH2 0x85E SWAP2 SWAP1 PUSH2 0x4640 JUMP JUMPDEST PUSH1 0x40 MLOAD DUP1 SWAP2 SUB SWAP1 RETURN JUMPDEST CALLVALUE DUP1 ISZERO PUSH2 0x873 JUMPI PUSH1 0x0 DUP1 REVERT JUMPDEST POP PUSH2 0x88E PUSH1 0x4 DUP1 CALLDATASIZE SUB DUP2 ADD SWAP1 PUSH2 0x889 SWAP2 SWAP1 PUSH2 0x4EBD JUMP JUMPDEST PUSH2 0x1B21 JUMP JUMPDEST STOP JUMPDEST CALLVALUE DUP1 ISZERO PUSH2 0x89C JUMPI PUSH1 0x0 DUP1 REVERT JUMPDEST POP PUSH2 0x8B7 PUSH1 0x4 DUP1 CALLDATASIZE SUB DUP2 ADD SWAP1 PUSH2 0x8B2 SWAP2 SWAP1 PUSH2 0x4F5F JUMP JUMPDEST PUSH2 0x1DAB JUMP JUMPDEST PUSH1 0x40 MLOAD PUSH2 0x8C4 SWAP2 SWAP1 PUSH2 0x4697 JUMP JUMPDEST PUSH1 0x40 MLOAD DUP1 SWAP2 SUB SWAP1 RETURN JUMPDEST CALLVALUE DUP1 ISZERO PUSH2 0x8D9 JUMPI PUSH1 0x0 DUP1 REVERT JUMPDEST POP PUSH2 0x8F4 PUSH1 0x4 DUP1 CALLDATASIZE SUB DUP2 ADD SWAP1 PUSH2 0x8EF SWAP2 SWAP1 PUSH2 0x4FDD JUMP JUMPDEST PUSH2 0x1DBF JUMP JUMPDEST STOP JUMPDEST CALLVALUE DUP1 ISZERO PUSH2 0x902 JUMPI PUSH1 0x0 DUP1 REVERT JUMPDEST POP PUSH2 0x91D PUSH1 0x4 DUP1 CALLDATASIZE SUB DUP2 ADD SWAP1 PUSH2 0x918 SWAP2 SWAP1 PUSH2 0x465B JUMP JUMPDEST PUSH2 0x20D2 JUMP JUMPDEST STOP JUMPDEST PUSH1 0x60 PUSH1 0x0 PUSH32 0x0 SWAP1 POP PUSH1 0x0 PUSH32 0x0 SWAP1 POP PUSH1 0x40 MLOAD SWAP3 POP PUSH1 0x40 DUP4 ADD PUSH1 0x40 MSTORE DUP1 DUP4 MSTORE DUP2 PUSH1 0x20 DUP5 ADD MSTORE POP POP SWAP1 JUMP JUMPDEST PUSH1 0x0 PUSH2 0x992 CALLER DUP5 DUP5 PUSH2 0x2158 JUMP JUMPDEST PUSH1 0x1 SWAP1 POP SWAP3 SWAP2 POP POP JUMP JUMPDEST PUSH2 0x9A4 PUSH2 0x216A JUMP JUMPDEST PUSH2 0x9CB PUSH2 0x9C6 DUP3 PUSH20 0xFFFFFFFFFFFFFFFFFFFFFFFFFFFFFFFFFFFFFFFF AND PUSH2 0x21F1 JUMP JUMPDEST PUSH2 0x2245 JUMP JUMPDEST POP JUMP JUMPDEST PUSH1 0x0 PUSH2 0x9D8 PUSH2 0x225F JUMP JUMPDEST PUSH1 0x1 ADD PUSH1 0x14 SWAP1 SLOAD SWAP1 PUSH2 0x100 EXP SWAP1 DIV PUSH12 0xFFFFFFFFFFFFFFFFFFFFFFFF AND PUSH12 0xFFFFFFFFFFFFFFFFFFFFFFFF AND SWAP1 POP SWAP1 JUMP JUMPDEST PUSH1 0x0 DUP1 PUSH2 0xA12 PUSH2 0x226E JUMP JUMPDEST SWAP1 POP PUSH2 0xA1D DUP2 PUSH2 0x2276 JUMP JUMPDEST PUSH2 0xA2D JUMPI PUSH2 0xA2C DUP6 DUP3 DUP6 PUSH2 0x22C4 JUMP JUMPDEST JUMPDEST PUSH2 0xA38 DUP6 DUP6 DUP6 PUSH2 0x2358 JUMP JUMPDEST POP DUP4 PUSH20 0xFFFFFFFFFFFFFFFFFFFFFFFFFFFFFFFFFFFFFFFF AND DUP6 PUSH20 0xFFFFFFFFFFFFFFFFFFFFFFFFFFFFFFFFFFFFFFFF AND PUSH32 0xDDF252AD1BE2C89B69C2B068FC378DAA952BA7F163C4A11628F55A4DF523B3EF DUP6 PUSH1 0x40 MLOAD PUSH2 0xA96 SWAP2 SWAP1 PUSH2 0x4697 JUMP JUMPDEST PUSH1 0x40 MLOAD DUP1 SWAP2 SUB SWAP1 LOG3 PUSH1 0x1 SWAP2 POP POP SWAP4 SWAP3 POP POP POP JUMP JUMPDEST PUSH32 0x6E71EDAE12B1B97F4D1F60370FEF10105FA2FAAE0126114A169C64845D6126C9 PUSH1 0x0 SHL DUP2 JUMP JUMPDEST PUSH32 0x0 DUP2 JUMP JUMPDEST PUSH20 0x10ED43C718714EB63D5AA57B78B54704E256024E DUP2 JUMP JUMPDEST PUSH1 0x0 PUSH32 0x0 CHAINID EQ PUSH2 0xB43 JUMPI PUSH2 0xB3E PUSH2 0x28CE JUMP JUMPDEST PUSH2 0xB65 JUMP JUMPDEST PUSH32 0x0 JUMPDEST SWAP1 POP SWAP1 JUMP JUMPDEST PUSH1 0x0 DUP1 PUSH2 0xB75 PUSH2 0x226E JUMP JUMPDEST SWAP1 POP PUSH2 0xB96 DUP2 DUP6 DUP6 PUSH2 0xB87 DUP6 DUP10 PUSH2 0x2967 JUMP JUMPDEST PUSH2 0xB91 SWAP2 SWAP1 PUSH2 0x5039 JUMP JUMPDEST PUSH2 0x2158 JUMP JUMPDEST PUSH1 0x1 SWAP2 POP POP SWAP3 SWAP2 POP POP JUMP JUMPDEST PUSH1 0x0 PUSH2 0xBCC DUP3 DUP5 PUSH20 0xFFFFFFFFFFFFFFFFFFFFFFFFFFFFFFFFFFFFFFFF AND PUSH2 0x29FA SWAP1 SWAP2 SWAP1 PUSH4 0xFFFFFFFF AND JUMP JUMPDEST SWAP1 POP SWAP3 SWAP2 POP POP JUMP JUMPDEST PUSH1 0x0 PUSH2 0xBE4 DUP3 PUSH3 0xFFFFFF AND PUSH2 0x2A7C JUMP JUMPDEST SWAP1 POP SWAP2 SWAP1 POP JUMP JUMPDEST PUSH1 0x0 DUP1 PUSH2 0xC14 PUSH2 0xBF9 PUSH2 0x226E JUMP JUMPDEST PUSH20 0xFFFFFFFFFFFFFFFFFFFFFFFFFFFFFFFFFFFFFFFF AND PUSH2 0x21F1 JUMP JUMPDEST SWAP1 POP PUSH1 0x0 DUP2 PUSH1 0x0 ADD PUSH1 0xA SWAP1 SLOAD SWAP1 PUSH2 0x100 EXP SWAP1 DIV PUSH10 0xFFFFFFFFFFFFFFFFFFFF AND PUSH10 0xFFFFFFFFFFFFFFFFFFFF AND SUB PUSH2 0xCCE JUMPI PUSH2 0xC4C PUSH2 0x225F JUMP JUMPDEST PUSH1 0x2 ADD PUSH1 0x0 DUP2 DUP2 SWAP1 SLOAD SWAP1 PUSH2 0x100 EXP SWAP1 DIV PUSH10 0xFFFFFFFFFFFFFFFFFFFF AND DUP1 SWAP3 SWAP2 SWAP1 PUSH2 0xC75 SWAP1 PUSH2 0x506D JUMP JUMPDEST SWAP2 SWAP1 PUSH2 0x100 EXP DUP2 SLOAD DUP2 PUSH10 0xFFFFFFFFFFFFFFFFFFFF MUL NOT AND SWAP1 DUP4 PUSH10 0xFFFFFFFFFFFFFFFFFFFF AND MUL OR SWAP1 SSTORE POP DUP2 PUSH1 0x0 ADD PUSH1 0xA PUSH2 0x100 EXP DUP2 SLOAD DUP2 PUSH10 0xFFFFFFFFFFFFFFFFFFFF MUL NOT AND SWAP1 DUP4 PUSH10 0xFFFFFFFFFFFFFFFFFFFF AND MUL OR SWAP1 SSTORE POP JUMPDEST DUP3 DUP2 PUSH1 0x0 ADD PUSH1 0xA SWAP1 SLOAD SWAP1 PUSH2 0x100 EXP SWAP1 DIV PUSH10 0xFFFFFFFFFFFFFFFFFFFF AND PUSH10 0xFFFFFFFFFFFFFFFFFFFF AND CALLER PUSH20 0xFFFFFFFFFFFFFFFFFFFFFFFFFFFFFFFFFFFFFFFF AND PUSH32 0x7D842667F749A5AC61180C742C62D621C78C94D961BFA60567A499EE28FFA4AB PUSH1 0x40 MLOAD PUSH1 0x40 MLOAD DUP1 SWAP2 SUB SWAP1 LOG4 DUP3 SWAP2 POP POP SWAP2 SWAP1 POP JUMP JUMPDEST PUSH2 0xD4A PUSH2 0x441E JUMP JUMPDEST PUSH2 0xD53 CALLER PUSH2 0x1444 JUMP JUMPDEST SWAP1 POP SWAP1 JUMP JUMPDEST PUSH1 0x0 PUSH2 0xEAA PUSH2 0xD7C DUP4 PUSH20 0xFFFFFFFFFFFFFFFFFFFFFFFFFFFFFFFFFFFFFFFF AND PUSH2 0x21F1 JUMP JUMPDEST PUSH1 0x40 MLOAD DUP1 PUSH1 0xA0 ADD PUSH1 0x40 MSTORE SWAP1 DUP2 PUSH1 0x0 DUP3 ADD PUSH1 0x0 SWAP1 SLOAD SWAP1 PUSH2 0x100 EXP SWAP1 DIV PUSH2 0xFFFF AND PUSH2 0xFFFF AND PUSH2 0xFFFF AND DUP2 MSTORE PUSH1 0x20 ADD PUSH1 0x0 DUP3 ADD PUSH1 0x2 SWAP1 SLOAD SWAP1 PUSH2 0x100 EXP SWAP1 DIV PUSH8 0xFFFFFFFFFFFFFFFF AND PUSH8 0xFFFFFFFFFFFFFFFF AND PUSH8 0xFFFFFFFFFFFFFFFF AND DUP2 MSTORE PUSH1 0x20 ADD PUSH1 0x0 DUP3 ADD PUSH1 0xA SWAP1 SLOAD SWAP1 PUSH2 0x100 EXP SWAP1 DIV PUSH10 0xFFFFFFFFFFFFFFFFFFFF AND PUSH10 0xFFFFFFFFFFFFFFFFFFFF AND PUSH10 0xFFFFFFFFFFFFFFFFFFFF AND DUP2 MSTORE PUSH1 0x20 ADD PUSH1 0x0 DUP3 ADD PUSH1 0x14 SWAP1 SLOAD SWAP1 PUSH2 0x100 EXP SWAP1 DIV PUSH12 0xFFFFFFFFFFFFFFFFFFFFFFFF AND PUSH12 0xFFFFFFFFFFFFFFFFFFFFFFFF AND PUSH12 0xFFFFFFFFFFFFFFFFFFFFFFFF AND DUP2 MSTORE PUSH1 0x20 ADD PUSH1 0x1 DUP3 ADD PUSH1 0x0 SWAP1 SLOAD SWAP1 PUSH2 0x100 EXP SWAP1 DIV PUSH20 0xFFFFFFFFFFFFFFFFFFFFFFFFFFFFFFFFFFFFFFFF AND PUSH20 0xFFFFFFFFFFFFFFFFFFFFFFFFFFFFFFFFFFFFFFFF AND PUSH20 0xFFFFFFFFFFFFFFFFFFFFFFFFFFFFFFFFFFFFFFFF AND DUP2 MSTORE POP POP PUSH2 0x2AFC JUMP JUMPDEST SWAP1 POP SWAP2 SWAP1 POP JUMP JUMPDEST PUSH1 0x0 PUSH2 0xEBB PUSH2 0x225F JUMP JUMPDEST PUSH1 0x3 ADD PUSH1 0x40 MLOAD DUP1 PUSH2 0x180 ADD PUSH1 0x40 MSTORE SWAP1 DUP2 PUSH1 0x0 DUP3 ADD PUSH1 0x0 SWAP1 SLOAD SWAP1 PUSH2 0x100 EXP SWAP1 DIV PUSH1 0xFF AND ISZERO ISZERO ISZERO ISZERO DUP2 MSTORE PUSH1 0x20 ADD PUSH1 0x0 DUP3 ADD PUSH1 0x1 SWAP1 SLOAD SWAP1 PUSH2 0x100 EXP SWAP1 DIV PUSH2 0xFFFF AND PUSH2 0xFFFF AND PUSH2 0xFFFF AND DUP2 MSTORE PUSH1 0x20 ADD PUSH1 0x0 DUP3 ADD PUSH1 0x3 SWAP1 SLOAD SWAP1 PUSH2 0x100 EXP SWAP1 DIV PUSH2 0xFFFF AND PUSH2 0xFFFF AND PUSH2 0xFFFF AND DUP2 MSTORE PUSH1 0x20 ADD PUSH1 0x0 DUP3 ADD PUSH1 0x5 SWAP1 SLOAD SWAP1 PUSH2 0x100 EXP SWAP1 DIV PUSH2 0xFFFF AND PUSH2 0xFFFF AND PUSH2 0xFFFF AND DUP2 MSTORE PUSH1 0x20 ADD PUSH1 0x0 DUP3 ADD PUSH1 0x7 SWAP1 SLOAD SWAP1 PUSH2 0x100 EXP SWAP1 DIV PUSH2 0xFFFF AND PUSH2 0xFFFF AND PUSH2 0xFFFF AND DUP2 MSTORE PUSH1 0x20 ADD PUSH1 0x0 DUP3 ADD PUSH1 0x9 SWAP1 SLOAD SWAP1 PUSH2 0x100 EXP SWAP1 DIV PUSH2 0xFFFF AND PUSH2 0xFFFF AND PUSH2 0xFFFF AND DUP2 MSTORE PUSH1 0x20 ADD PUSH1 0x0 DUP3 ADD PUSH1 0xB SWAP1 SLOAD SWAP1 PUSH2 0x100 EXP SWAP1 DIV PUSH2 0xFFFF AND PUSH2 0xFFFF AND PUSH2 0xFFFF AND DUP2 MSTORE PUSH1 0x20 ADD PUSH1 0x0 DUP3 ADD PUSH1 0xD SWAP1 SLOAD SWAP1 PUSH2 0x100 EXP SWAP1 DIV PUSH2 0xFFFF AND PUSH2 0xFFFF AND PUSH2 0xFFFF AND DUP2 MSTORE PUSH1 0x20 ADD PUSH1 0x0 DUP3 ADD PUSH1 0xF SWAP1 SLOAD SWAP1 PUSH2 0x100 EXP SWAP1 DIV PUSH2 0xFFFF AND PUSH2 0xFFFF AND PUSH2 0xFFFF AND DUP2 MSTORE PUSH1 0x20 ADD PUSH1 0x0 DUP3 ADD PUSH1 0x11 SWAP1 SLOAD SWAP1 PUSH2 0x100 EXP SWAP1 DIV PUSH2 0xFFFF AND PUSH2 0xFFFF AND PUSH2 0xFFFF AND DUP2 MSTORE PUSH1 0x20 ADD PUSH1 0x0 DUP3 ADD PUSH1 0x13 SWAP1 SLOAD SWAP1 PUSH2 0x100 EXP SWAP1 DIV PUSH3 0xFFFFFF AND PUSH3 0xFFFFFF AND PUSH3 0xFFFFFF AND DUP2 MSTORE PUSH1 0x20 ADD PUSH1 0x1 DUP3 ADD PUSH1 0x3 DUP1 PUSH1 0x20 MUL PUSH1 0x40 MLOAD SWAP1 DUP2 ADD PUSH1 0x40 MSTORE DUP1 SWAP3 SWAP2 SWAP1 DUP3 PUSH1 0x3 DUP1 ISZERO PUSH2 0x109A JUMPI PUSH1 0x20 MUL DUP3 ADD SWAP2 JUMPDEST DUP2 PUSH1 0x0 SWAP1 SLOAD SWAP1 PUSH2 0x100 EXP SWAP1 DIV PUSH20 0xFFFFFFFFFFFFFFFFFFFFFFFFFFFFFFFFFFFFFFFF AND PUSH20 0xFFFFFFFFFFFFFFFFFFFFFFFFFFFFFFFFFFFFFFFF AND DUP2 MSTORE PUSH1 0x20 ADD SWAP1 PUSH1 0x1 ADD SWAP1 DUP1 DUP4 GT PUSH2 0x1050 JUMPI JUMPDEST POP POP POP POP POP DUP2 MSTORE POP POP SWAP1 POP PUSH1 0x0 SELFBALANCE SWAP1 POP PUSH1 0x0 DUP3 PUSH2 0x160 ADD MLOAD PUSH1 0x0 PUSH1 0x3 DUP2 LT PUSH2 0x10C5 JUMPI PUSH2 0x10C4 PUSH2 0x509F JUMP JUMPDEST JUMPDEST PUSH1 0x20 MUL ADD MLOAD PUSH20 0xFFFFFFFFFFFFFFFFFFFFFFFFFFFFFFFFFFFFFFFF AND DUP3 DUP5 PUSH2 0x140 ADD MLOAD PUSH3 0xFFFFFF AND SWAP1 PUSH1 0x40 MLOAD PUSH2 0x10F9 SWAP1 PUSH2 0x50FF JUMP JUMPDEST PUSH1 0x0 PUSH1 0x40 MLOAD DUP1 DUP4 SUB DUP2 DUP6 DUP9 DUP9 CALL SWAP4 POP POP POP POP RETURNDATASIZE DUP1 PUSH1 0x0 DUP2 EQ PUSH2 0x1137 JUMPI PUSH1 0x40 MLOAD SWAP2 POP PUSH1 0x1F NOT PUSH1 0x3F RETURNDATASIZE ADD AND DUP3 ADD PUSH1 0x40 MSTORE RETURNDATASIZE DUP3 MSTORE RETURNDATASIZE PUSH1 0x0 PUSH1 0x20 DUP5 ADD RETURNDATACOPY PUSH2 0x113C JUMP JUMPDEST PUSH1 0x60 SWAP2 POP JUMPDEST POP POP SWAP1 POP DUP1 PUSH2 0x1180 JUMPI PUSH1 0x40 MLOAD PUSH32 0x8C379A000000000000000000000000000000000000000000000000000000000 DUP2 MSTORE PUSH1 0x4 ADD PUSH2 0x1177 SWAP1 PUSH2 0x5160 JUMP JUMPDEST PUSH1 0x40 MLOAD DUP1 SWAP2 SUB SWAP1 REVERT JUMPDEST POP POP POP JUMP JUMPDEST PUSH1 0x0 PUSH2 0x1190 DUP3 PUSH2 0x2B19 JUMP JUMPDEST SWAP1 POP SWAP2 SWAP1 POP JUMP JUMPDEST PUSH1 0x0 PUSH2 0x11A6 DUP3 PUSH2 0xFFFF AND PUSH2 0x2BA6 JUMP JUMPDEST SWAP1 POP SWAP2 SWAP1 POP JUMP JUMPDEST PUSH1 0x0 PUSH2 0x11C4 DUP3 PUSH10 0xFFFFFFFFFFFFFFFFFFFF AND PUSH2 0x2C25 JUMP JUMPDEST SWAP1 POP SWAP2 SWAP1 POP JUMP JUMPDEST PUSH1 0x0 PUSH2 0x11EC DUP3 PUSH20 0xFFFFFFFFFFFFFFFFFFFFFFFFFFFFFFFFFFFFFFFF AND PUSH2 0x21F1 JUMP JUMPDEST PUSH1 0x0 ADD PUSH1 0x14 SWAP1 SLOAD SWAP1 PUSH2 0x100 EXP SWAP1 DIV PUSH12 0xFFFFFFFFFFFFFFFFFFFFFFFF AND PUSH12 0xFFFFFFFFFFFFFFFFFFFFFFFF AND SWAP1 POP SWAP2 SWAP1 POP JUMP JUMPDEST PUSH2 0x1225 PUSH2 0x216A JUMP JUMPDEST PUSH2 0x122F PUSH1 0x0 PUSH2 0x2D4C JUMP JUMPDEST JUMP JUMPDEST PUSH1 0x0 DUP1 PUSH1 0x0 DUP1 PUSH2 0x123F PUSH2 0x225F JUMP JUMPDEST PUSH1 0x3 ADD PUSH1 0x40 MLOAD DUP1 PUSH2 0x180 ADD PUSH1 0x40 MSTORE SWAP1 DUP2 PUSH1 0x0 DUP3 ADD PUSH1 0x0 SWAP1 SLOAD SWAP1 PUSH2 0x100 EXP SWAP1 DIV PUSH1 0xFF AND ISZERO ISZERO ISZERO ISZERO DUP2 MSTORE PUSH1 0x20 ADD PUSH1 0x0 DUP3 ADD PUSH1 0x1 SWAP1 SLOAD SWAP1 PUSH2 0x100 EXP SWAP1 DIV PUSH2 0xFFFF AND PUSH2 0xFFFF AND PUSH2 0xFFFF AND DUP2 MSTORE PUSH1 0x20 ADD PUSH1 0x0 DUP3 ADD PUSH1 0x3 SWAP1 SLOAD SWAP1 PUSH2 0x100 EXP SWAP1 DIV PUSH2 0xFFFF AND PUSH2 0xFFFF AND PUSH2 0xFFFF AND DUP2 MSTORE PUSH1 0x20 ADD PUSH1 0x0 DUP3 ADD PUSH1 0x5 SWAP1 SLOAD SWAP1 PUSH2 0x100 EXP SWAP1 DIV PUSH2 0xFFFF AND PUSH2 0xFFFF AND PUSH2 0xFFFF AND DUP2 MSTORE PUSH1 0x20 ADD PUSH1 0x0 DUP3 ADD PUSH1 0x7 SWAP1 SLOAD SWAP1 PUSH2 0x100 EXP SWAP1 DIV PUSH2 0xFFFF AND PUSH2 0xFFFF AND PUSH2 0xFFFF AND DUP2 MSTORE PUSH1 0x20 ADD PUSH1 0x0 DUP3 ADD PUSH1 0x9 SWAP1 SLOAD SWAP1 PUSH2 0x100 EXP SWAP1 DIV PUSH2 0xFFFF AND PUSH2 0xFFFF AND PUSH2 0xFFFF AND DUP2 MSTORE PUSH1 0x20 ADD PUSH1 0x0 DUP3 ADD PUSH1 0xB SWAP1 SLOAD SWAP1 PUSH2 0x100 EXP SWAP1 DIV PUSH2 0xFFFF AND PUSH2 0xFFFF AND PUSH2 0xFFFF AND DUP2 MSTORE PUSH1 0x20 ADD PUSH1 0x0 DUP3 ADD PUSH1 0xD SWAP1 SLOAD SWAP1 PUSH2 0x100 EXP SWAP1 DIV PUSH2 0xFFFF AND PUSH2 0xFFFF AND PUSH2 0xFFFF AND DUP2 MSTORE PUSH1 0x20 ADD PUSH1 0x0 DUP3 ADD PUSH1 0xF SWAP1 SLOAD SWAP1 PUSH2 0x100 EXP SWAP1 DIV PUSH2 0xFFFF AND PUSH2 0xFFFF AND PUSH2 0xFFFF AND DUP2 MSTORE PUSH1 0x20 ADD PUSH1 0x0 DUP3 ADD PUSH1 0x11 SWAP1 SLOAD SWAP1 PUSH2 0x100 EXP SWAP1 DIV PUSH2 0xFFFF AND PUSH2 0xFFFF AND PUSH2 0xFFFF AND DUP2 MSTORE PUSH1 0x20 ADD PUSH1 0x0 DUP3 ADD PUSH1 0x13 SWAP1 SLOAD SWAP1 PUSH2 0x100 EXP SWAP1 DIV PUSH3 0xFFFFFF AND PUSH3 0xFFFFFF AND PUSH3 0xFFFFFF AND DUP2 MSTORE PUSH1 0x20 ADD PUSH1 0x1 DUP3 ADD PUSH1 0x3 DUP1 PUSH1 0x20 MUL PUSH1 0x40 MLOAD SWAP1 DUP2 ADD PUSH1 0x40 MSTORE DUP1 SWAP3 SWAP2 SWAP1 DUP3 PUSH1 0x3 DUP1 ISZERO PUSH2 0x141E JUMPI PUSH1 0x20 MUL DUP3 ADD SWAP2 JUMPDEST DUP2 PUSH1 0x0 SWAP1 SLOAD SWAP1 PUSH2 0x100 EXP SWAP1 DIV PUSH20 0xFFFFFFFFFFFFFFFFFFFFFFFFFFFFFFFFFFFFFFFF AND PUSH20 0xFFFFFFFFFFFFFFFFFFFFFFFFFFFFFFFFFFFFFFFF AND DUP2 MSTORE PUSH1 0x20 ADD SWAP1 PUSH1 0x1 ADD SWAP1 DUP1 DUP4 GT PUSH2 0x13D4 JUMPI JUMPDEST POP POP POP POP POP DUP2 MSTORE POP POP SWAP1 POP DUP1 PUSH1 0x20 ADD MLOAD DUP2 PUSH1 0x40 ADD MLOAD DUP3 PUSH1 0x60 ADD MLOAD SWAP4 POP SWAP4 POP SWAP4 POP POP SWAP1 SWAP2 SWAP3 JUMP JUMPDEST PUSH2 0x144C PUSH2 0x441E JUMP JUMPDEST PUSH2 0x146B DUP3 PUSH20 0xFFFFFFFFFFFFFFFFFFFFFFFFFFFFFFFFFFFFFFFF AND PUSH2 0x21F1 JUMP JUMPDEST PUSH1 0x40 MLOAD DUP1 PUSH1 0xA0 ADD PUSH1 0x40 MSTORE SWAP1 DUP2 PUSH1 0x0 DUP3 ADD PUSH1 0x0 SWAP1 SLOAD SWAP1 PUSH2 0x100 EXP SWAP1 DIV PUSH2 0xFFFF AND PUSH2 0xFFFF AND PUSH2 0xFFFF AND DUP2 MSTORE PUSH1 0x20 ADD PUSH1 0x0 DUP3 ADD PUSH1 0x2 SWAP1 SLOAD SWAP1 PUSH2 0x100 EXP SWAP1 DIV PUSH8 0xFFFFFFFFFFFFFFFF AND PUSH8 0xFFFFFFFFFFFFFFFF AND PUSH8 0xFFFFFFFFFFFFFFFF AND DUP2 MSTORE PUSH1 0x20 ADD PUSH1 0x0 DUP3 ADD PUSH1 0xA SWAP1 SLOAD SWAP1 PUSH2 0x100 EXP SWAP1 DIV PUSH10 0xFFFFFFFFFFFFFFFFFFFF AND PUSH10 0xFFFFFFFFFFFFFFFFFFFF AND PUSH10 0xFFFFFFFFFFFFFFFFFFFF AND DUP2 MSTORE PUSH1 0x20 ADD PUSH1 0x0 DUP3 ADD PUSH1 0x14 SWAP1 SLOAD SWAP1 PUSH2 0x100 EXP SWAP1 DIV PUSH12 0xFFFFFFFFFFFFFFFFFFFFFFFF AND PUSH12 0xFFFFFFFFFFFFFFFFFFFFFFFF AND PUSH12 0xFFFFFFFFFFFFFFFFFFFFFFFF AND DUP2 MSTORE PUSH1 0x20 ADD PUSH1 0x1 DUP3 ADD PUSH1 0x0 SWAP1 SLOAD SWAP1 PUSH2 0x100 EXP SWAP1 DIV PUSH20 0xFFFFFFFFFFFFFFFFFFFFFFFFFFFFFFFFFFFFFFFF AND PUSH20 0xFFFFFFFFFFFFFFFFFFFFFFFFFFFFFFFFFFFFFFFF AND PUSH20 0xFFFFFFFFFFFFFFFFFFFFFFFFFFFFFFFFFFFFFFFF AND DUP2 MSTORE POP POP SWAP1 POP SWAP2 SWAP1 POP JUMP JUMPDEST PUSH2 0x15A3 PUSH2 0x216A JUMP JUMPDEST PUSH2 0x15CA PUSH2 0x15C5 DUP3 PUSH20 0xFFFFFFFFFFFFFFFFFFFFFFFFFFFFFFFFFFFFFFFF AND PUSH2 0x21F1 JUMP JUMPDEST PUSH2 0x2E23 JUMP JUMPDEST POP JUMP JUMPDEST PUSH1 0x0 PUSH2 0x15EE DUP3 PUSH20 0xFFFFFFFFFFFFFFFFFFFFFFFFFFFFFFFFFFFFFFFF AND PUSH2 0x21F1 JUMP JUMPDEST PUSH1 0x0 ADD PUSH1 0x2 SWAP1 SLOAD SWAP1 PUSH2 0x100 EXP SWAP1 DIV PUSH8 0xFFFFFFFFFFFFFFFF AND PUSH8 0xFFFFFFFFFFFFFFFF AND SWAP1 POP SWAP2 SWAP1 POP JUMP JUMPDEST PUSH1 0x0 PUSH1 0x60 DUP1 PUSH1 0x0 DUP1 PUSH1 0x0 PUSH1 0x60 PUSH2 0x164C PUSH32 0x0 PUSH2 0x2E3D JUMP JUMPDEST PUSH2 0x1675 PUSH32 0x0 PUSH2 0x2E3D JUMP JUMPDEST CHAINID ADDRESS PUSH1 0x0 DUP1 SHL PUSH1 0x0 PUSH8 0xFFFFFFFFFFFFFFFF DUP2 GT ISZERO PUSH2 0x1696 JUMPI PUSH2 0x1695 PUSH2 0x4A13 JUMP JUMPDEST JUMPDEST PUSH1 0x40 MLOAD SWAP1 DUP1 DUP3 MSTORE DUP1 PUSH1 0x20 MUL PUSH1 0x20 ADD DUP3 ADD PUSH1 0x40 MSTORE DUP1 ISZERO PUSH2 0x16C4 JUMPI DUP2 PUSH1 0x20 ADD PUSH1 0x20 DUP3 MUL DUP1 CALLDATASIZE DUP4 CALLDATACOPY DUP1 DUP3 ADD SWAP2 POP POP SWAP1 POP JUMPDEST POP PUSH32 0xF00000000000000000000000000000000000000000000000000000000000000 SWAP6 SWAP5 SWAP4 SWAP3 SWAP2 SWAP1 SWAP7 POP SWAP7 POP SWAP7 POP SWAP7 POP SWAP7 POP SWAP7 POP SWAP7 POP SWAP1 SWAP2 SWAP3 SWAP4 SWAP5 SWAP6 SWAP7 JUMP JUMPDEST PUSH1 0x0 PUSH2 0x170D PUSH2 0x225F JUMP JUMPDEST PUSH1 0x1 ADD PUSH1 0x0 SWAP1 SLOAD SWAP1 PUSH2 0x100 EXP SWAP1 DIV PUSH20 0xFFFFFFFFFFFFFFFFFFFFFFFFFFFFFFFFFFFFFFFF AND SWAP1 POP SWAP1 JUMP JUMPDEST PUSH1 0x60 PUSH1 0x0 PUSH32 0x0 SWAP1 POP PUSH1 0x0 PUSH32 0x0 SWAP1 POP PUSH1 0x40 MLOAD SWAP3 POP PUSH1 0x40 DUP4 ADD PUSH1 0x40 MSTORE DUP1 DUP4 MSTORE DUP2 PUSH1 0x20 DUP5 ADD MSTORE POP POP SWAP1 JUMP JUMPDEST PUSH2 0x17A4 PUSH2 0x216A JUMP JUMPDEST PUSH1 0x0 PUSH2 0x17AE PUSH2 0x225F JUMP JUMPDEST SWAP1 POP PUSH20 0x10ED43C718714EB63D5AA57B78B54704E256024E PUSH20 0xFFFFFFFFFFFFFFFFFFFFFFFFFFFFFFFFFFFFFFFF AND PUSH4 0xC45A0155 PUSH1 0x40 MLOAD DUP2 PUSH4 0xFFFFFFFF AND PUSH1 0xE0 SHL DUP2 MSTORE PUSH1 0x4 ADD PUSH1 0x20 PUSH1 0x40 MLOAD DUP1 DUP4 SUB DUP2 DUP7 GAS STATICCALL ISZERO DUP1 ISZERO PUSH2 0x180F JUMPI RETURNDATASIZE PUSH1 0x0 DUP1 RETURNDATACOPY RETURNDATASIZE PUSH1 0x0 REVERT JUMPDEST POP POP POP POP PUSH1 0x40 MLOAD RETURNDATASIZE PUSH1 0x1F NOT PUSH1 0x1F DUP3 ADD AND DUP3 ADD DUP1 PUSH1 0x40 MSTORE POP DUP2 ADD SWAP1 PUSH2 0x1833 SWAP2 SWAP1 PUSH2 0x5195 JUMP JUMPDEST PUSH20 0xFFFFFFFFFFFFFFFFFFFFFFFFFFFFFFFFFFFFFFFF AND PUSH4 0xC9C65396 ADDRESS PUSH20 0x10ED43C718714EB63D5AA57B78B54704E256024E PUSH20 0xFFFFFFFFFFFFFFFFFFFFFFFFFFFFFFFFFFFFFFFF AND PUSH4 0xAD5C4648 PUSH1 0x40 MLOAD DUP2 PUSH4 0xFFFFFFFF AND PUSH1 0xE0 SHL DUP2 MSTORE PUSH1 0x4 ADD PUSH1 0x20 PUSH1 0x40 MLOAD DUP1 DUP4 SUB DUP2 DUP7 GAS STATICCALL ISZERO DUP1 ISZERO PUSH2 0x18AE JUMPI RETURNDATASIZE PUSH1 0x0 DUP1 RETURNDATACOPY RETURNDATASIZE PUSH1 0x0 REVERT JUMPDEST POP POP POP POP PUSH1 0x40 MLOAD RETURNDATASIZE PUSH1 0x1F NOT PUSH1 0x1F DUP3 ADD AND DUP3 ADD DUP1 PUSH1 0x40 MSTORE POP DUP2 ADD SWAP1 PUSH2 0x18D2 SWAP2 SWAP1 PUSH2 0x5195 JUMP JUMPDEST PUSH1 0x40 MLOAD DUP4 PUSH4 0xFFFFFFFF AND PUSH1 0xE0 SHL DUP2 MSTORE PUSH1 0x4 ADD PUSH2 0x18EF SWAP3 SWAP2 SWAP1 PUSH2 0x51C2 JUMP JUMPDEST PUSH1 0x20 PUSH1 0x40 MLOAD DUP1 DUP4 SUB DUP2 PUSH1 0x0 DUP8 GAS CALL ISZERO DUP1 ISZERO PUSH2 0x190E JUMPI RETURNDATASIZE PUSH1 0x0 DUP1 RETURNDATACOPY RETURNDATASIZE PUSH1 0x0 REVERT JUMPDEST POP POP POP POP PUSH1 0x40 MLOAD RETURNDATASIZE PUSH1 0x1F NOT PUSH1 0x1F DUP3 ADD AND DUP3 ADD DUP1 PUSH1 0x40 MSTORE POP DUP2 ADD SWAP1 PUSH2 0x1932 SWAP2 SWAP1 PUSH2 0x5195 JUMP JUMPDEST DUP2 PUSH1 0x0 ADD PUSH1 0x0 PUSH2 0x100 EXP DUP2 SLOAD DUP2 PUSH20 0xFFFFFFFFFFFFFFFFFFFFFFFFFFFFFFFFFFFFFFFF MUL NOT AND SWAP1 DUP4 PUSH20 0xFFFFFFFFFFFFFFFFFFFFFFFFFFFFFFFFFFFFFFFF AND MUL OR SWAP1 SSTORE POP PUSH2 0x19B5 ADDRESS PUSH20 0x10ED43C718714EB63D5AA57B78B54704E256024E PUSH32 0xFFFFFFFFFFFFFFFFFFFFFFFFFFFFFFFFFFFFFFFFFFFFFFFFFFFFFFFFFFFFFFFF PUSH1 0x0 PUSH2 0x2E64 JUMP JUMPDEST PUSH2 0x19E2 ADDRESS ADDRESS PUSH32 0xFFFFFFFFFFFFFFFFFFFFFFFFFFFFFFFFFFFFFFFFFFFFFFFFFFFFFFFFFFFFFFFF PUSH1 0x0 PUSH2 0x2E64 JUMP JUMPDEST PUSH2 0x1A1D PUSH2 0x1A18 PUSH20 0x10ED43C718714EB63D5AA57B78B54704E256024E PUSH20 0xFFFFFFFFFFFFFFFFFFFFFFFFFFFFFFFFFFFFFFFF AND PUSH2 0x21F1 JUMP JUMPDEST PUSH2 0x2245 JUMP JUMPDEST PUSH2 0x1A68 PUSH2 0x1A63 DUP3 PUSH1 0x0 ADD PUSH1 0x0 SWAP1 SLOAD SWAP1 PUSH2 0x100 EXP SWAP1 DIV PUSH20 0xFFFFFFFFFFFFFFFFFFFFFFFFFFFFFFFFFFFFFFFF AND PUSH20 0xFFFFFFFFFFFFFFFFFFFFFFFFFFFFFFFFFFFFFFFF AND PUSH2 0x21F1 JUMP JUMPDEST PUSH2 0x2245 JUMP JUMPDEST POP JUMP JUMPDEST PUSH1 0x0 DUP1 PUSH2 0x1A76 PUSH2 0x226E JUMP JUMPDEST SWAP1 POP PUSH1 0x0 PUSH2 0x1A84 DUP3 DUP7 PUSH2 0x2967 JUMP JUMPDEST SWAP1 POP DUP4 DUP2 LT ISZERO PUSH2 0x1ACF JUMPI DUP5 DUP2 DUP6 PUSH1 0x40 MLOAD PUSH32 0xF8E06DB200000000000000000000000000000000000000000000000000000000 DUP2 MSTORE PUSH1 0x4 ADD PUSH2 0x1AC6 SWAP4 SWAP3 SWAP2 SWAP1 PUSH2 0x51EB JUMP JUMPDEST PUSH1 0x40 MLOAD DUP1 SWAP2 SUB SWAP1 REVERT JUMPDEST PUSH2 0x1ADC DUP3 DUP7 DUP7 DUP5 SUB PUSH2 0x2158 JUMP JUMPDEST PUSH1 0x1 SWAP3 POP POP POP SWAP3 SWAP2 POP POP JUMP JUMPDEST PUSH1 0x0 PUSH2 0x1AFC PUSH2 0x1AF5 PUSH2 0x226E JUMP JUMPDEST DUP5 DUP5 PUSH2 0x2358 JUMP JUMPDEST POP PUSH1 0x1 SWAP1 POP SWAP3 SWAP2 POP POP JUMP JUMPDEST PUSH1 0x0 PUSH2 0x1B1A DUP3 PUSH6 0xFFFFFFFFFFFF AND PUSH2 0x2F63 JUMP JUMPDEST SWAP1 POP SWAP2 SWAP1 POP JUMP JUMPDEST DUP4 TIMESTAMP GT ISZERO PUSH2 0x1B5B JUMPI PUSH1 0x40 MLOAD PUSH32 0x1A15A3CC00000000000000000000000000000000000000000000000000000000 DUP2 MSTORE PUSH1 0x4 ADD PUSH1 0x40 MLOAD DUP1 SWAP2 SUB SWAP1 REVERT JUMPDEST PUSH1 0x0 PUSH1 0x1 PUSH2 0x1BC3 PUSH32 0x6E71EDAE12B1B97F4D1F60370FEF10105FA2FAAE0126114A169C64845D6126C9 PUSH1 0x0 SHL DUP11 DUP11 DUP11 PUSH2 0x1B92 DUP15 PUSH2 0x305E JUMP JUMPDEST DUP12 PUSH1 0x40 MLOAD PUSH1 0x20 ADD PUSH2 0x1BA8 SWAP7 SWAP6 SWAP5 SWAP4 SWAP3 SWAP2 SWAP1 PUSH2 0x5222 JUMP JUMPDEST PUSH1 0x40 MLOAD PUSH1 0x20 DUP2 DUP4 SUB SUB DUP2 MSTORE SWAP1 PUSH1 0x40 MSTORE DUP1 MLOAD SWAP1 PUSH1 0x20 ADD KECCAK256 PUSH2 0x313C JUMP JUMPDEST DUP6 DUP6 DUP6 PUSH1 0x40 MLOAD PUSH1 0x0 DUP2 MSTORE PUSH1 0x20 ADD PUSH1 0x40 MSTORE PUSH1 0x40 MLOAD PUSH2 0x1BE3 SWAP5 SWAP4 SWAP3 SWAP2 SWAP1 PUSH2 0x5283 JUMP JUMPDEST PUSH1 0x20 PUSH1 0x40 MLOAD PUSH1 0x20 DUP2 SUB SWAP1 DUP1 DUP5 SUB SWAP1 DUP6 GAS STATICCALL ISZERO DUP1 ISZERO PUSH2 0x1C05 JUMPI RETURNDATASIZE PUSH1 0x0 DUP1 RETURNDATACOPY RETURNDATASIZE PUSH1 0x0 REVERT JUMPDEST POP POP POP PUSH1 0x20 PUSH1 0x40 MLOAD SUB MLOAD SWAP1 POP PUSH1 0x0 PUSH20 0xFFFFFFFFFFFFFFFFFFFFFFFFFFFFFFFFFFFFFFFF AND DUP2 PUSH20 0xFFFFFFFFFFFFFFFFFFFFFFFFFFFFFFFFFFFFFFFF AND EQ DUP1 PUSH2 0x1C78 JUMPI POP DUP8 PUSH20 0xFFFFFFFFFFFFFFFFFFFFFFFFFFFFFFFFFFFFFFFF AND DUP2 PUSH20 0xFFFFFFFFFFFFFFFFFFFFFFFFFFFFFFFFFFFFFFFF AND EQ ISZERO JUMPDEST ISZERO PUSH2 0x1CAF JUMPI PUSH1 0x40 MLOAD PUSH32 0x815E1D6400000000000000000000000000000000000000000000000000000000 DUP2 MSTORE PUSH1 0x4 ADD PUSH1 0x40 MLOAD DUP1 SWAP2 SUB SWAP1 REVERT JUMPDEST DUP6 PUSH2 0x1CB8 PUSH2 0x225F JUMP JUMPDEST PUSH1 0x7 ADD PUSH1 0x1 ADD PUSH1 0x0 DUP4 PUSH20 0xFFFFFFFFFFFFFFFFFFFFFFFFFFFFFFFFFFFFFFFF AND PUSH20 0xFFFFFFFFFFFFFFFFFFFFFFFFFFFFFFFFFFFFFFFF AND DUP2 MSTORE PUSH1 0x20 ADD SWAP1 DUP2 MSTORE PUSH1 0x20 ADD PUSH1 0x0 KECCAK256 PUSH1 0x0 DUP10 PUSH20 0xFFFFFFFFFFFFFFFFFFFFFFFFFFFFFFFFFFFFFFFF AND PUSH20 0xFFFFFFFFFFFFFFFFFFFFFFFFFFFFFFFFFFFFFFFF AND DUP2 MSTORE PUSH1 0x20 ADD SWAP1 DUP2 MSTORE PUSH1 0x20 ADD PUSH1 0x0 KECCAK256 DUP2 SWAP1 SSTORE POP POP DUP6 PUSH20 0xFFFFFFFFFFFFFFFFFFFFFFFFFFFFFFFFFFFFFFFF AND DUP8 PUSH20 0xFFFFFFFFFFFFFFFFFFFFFFFFFFFFFFFFFFFFFFFF AND PUSH32 0x8C5BE1E5EBEC7D5BD14F71427D1E84F3DD0314C0F7B2291E5B200AC8C7C3B925 DUP8 PUSH1 0x40 MLOAD PUSH2 0x1D9A SWAP2 SWAP1 PUSH2 0x4697 JUMP JUMPDEST PUSH1 0x40 MLOAD DUP1 SWAP2 SUB SWAP1 LOG3 POP POP POP POP POP POP POP JUMP JUMPDEST PUSH1 0x0 PUSH2 0x1DB7 DUP4 DUP4 PUSH2 0x2967 JUMP JUMPDEST SWAP1 POP SWAP3 SWAP2 POP POP JUMP JUMPDEST PUSH1 0x0 PUSH2 0x1DC9 PUSH2 0x225F JUMP JUMPDEST PUSH1 0x3 ADD PUSH1 0x40 MLOAD DUP1 PUSH2 0x180 ADD PUSH1 0x40 MSTORE SWAP1 DUP2 PUSH1 0x0 DUP3 ADD PUSH1 0x0 SWAP1 SLOAD SWAP1 PUSH2 0x100 EXP SWAP1 DIV PUSH1 0xFF AND ISZERO ISZERO ISZERO ISZERO DUP2 MSTORE PUSH1 0x20 ADD PUSH1 0x0 DUP3 ADD PUSH1 0x1 SWAP1 SLOAD SWAP1 PUSH2 0x100 EXP SWAP1 DIV PUSH2 0xFFFF AND PUSH2 0xFFFF AND PUSH2 0xFFFF AND DUP2 MSTORE PUSH1 0x20 ADD PUSH1 0x0 DUP3 ADD PUSH1 0x3 SWAP1 SLOAD SWAP1 PUSH2 0x100 EXP SWAP1 DIV PUSH2 0xFFFF AND PUSH2 0xFFFF AND PUSH2 0xFFFF AND DUP2 MSTORE PUSH1 0x20 ADD PUSH1 0x0 DUP3 ADD PUSH1 0x5 SWAP1 SLOAD SWAP1 PUSH2 0x100 EXP SWAP1 DIV PUSH2 0xFFFF AND PUSH2 0xFFFF AND PUSH2 0xFFFF AND DUP2 MSTORE PUSH1 0x20 ADD PUSH1 0x0 DUP3 ADD PUSH1 0x7 SWAP1 SLOAD SWAP1 PUSH2 0x100 EXP SWAP1 DIV PUSH2 0xFFFF AND PUSH2 0xFFFF AND PUSH2 0xFFFF AND DUP2 MSTORE PUSH1 0x20 ADD PUSH1 0x0 DUP3 ADD PUSH1 0x9 SWAP1 SLOAD SWAP1 PUSH2 0x100 EXP SWAP1 DIV PUSH2 0xFFFF AND PUSH2 0xFFFF AND PUSH2 0xFFFF AND DUP2 MSTORE PUSH1 0x20 ADD PUSH1 0x0 DUP3 ADD PUSH1 0xB SWAP1 SLOAD SWAP1 PUSH2 0x100 EXP SWAP1 DIV PUSH2 0xFFFF AND PUSH2 0xFFFF AND PUSH2 0xFFFF AND DUP2 MSTORE PUSH1 0x20 ADD PUSH1 0x0 DUP3 ADD PUSH1 0xD SWAP1 SLOAD SWAP1 PUSH2 0x100 EXP SWAP1 DIV PUSH2 0xFFFF AND PUSH2 0xFFFF AND PUSH2 0xFFFF AND DUP2 MSTORE PUSH1 0x20 ADD PUSH1 0x0 DUP3 ADD PUSH1 0xF SWAP1 SLOAD SWAP1 PUSH2 0x100 EXP SWAP1 DIV PUSH2 0xFFFF AND PUSH2 0xFFFF AND PUSH2 0xFFFF AND DUP2 MSTORE PUSH1 0x20 ADD PUSH1 0x0 DUP3 ADD PUSH1 0x11 SWAP1 SLOAD SWAP1 PUSH2 0x100 EXP SWAP1 DIV PUSH2 0xFFFF AND PUSH2 0xFFFF AND PUSH2 0xFFFF AND DUP2 MSTORE PUSH1 0x20 ADD PUSH1 0x0 DUP3 ADD PUSH1 0x13 SWAP1 SLOAD SWAP1 PUSH2 0x100 EXP SWAP1 DIV PUSH3 0xFFFFFF AND PUSH3 0xFFFFFF AND PUSH3 0xFFFFFF AND DUP2 MSTORE PUSH1 0x20 ADD PUSH1 0x1 DUP3 ADD PUSH1 0x3 DUP1 PUSH1 0x20 MUL PUSH1 0x40 MLOAD SWAP1 DUP2 ADD PUSH1 0x40 MSTORE DUP1 SWAP3 SWAP2 SWAP1 DUP3 PUSH1 0x3 DUP1 ISZERO PUSH2 0x1FA8 JUMPI PUSH1 0x20 MUL DUP3 ADD SWAP2 JUMPDEST DUP2 PUSH1 0x0 SWAP1 SLOAD SWAP1 PUSH2 0x100 EXP SWAP1 DIV PUSH20 0xFFFFFFFFFFFFFFFFFFFFFFFFFFFFFFFFFFFFFFFF AND PUSH20 0xFFFFFFFFFFFFFFFFFFFFFFFFFFFFFFFFFFFFFFFF AND DUP2 MSTORE PUSH1 0x20 ADD SWAP1 PUSH1 0x1 ADD SWAP1 DUP1 DUP4 GT PUSH2 0x1F5E JUMPI JUMPDEST POP POP POP POP POP DUP2 MSTORE POP POP SWAP1 POP PUSH1 0x0 DUP3 PUSH20 0xFFFFFFFFFFFFFFFFFFFFFFFFFFFFFFFFFFFFFFFF AND PUSH4 0x70A08231 ADDRESS PUSH1 0x40 MLOAD DUP3 PUSH4 0xFFFFFFFF AND PUSH1 0xE0 SHL DUP2 MSTORE PUSH1 0x4 ADD PUSH2 0x1FEE SWAP2 SWAP1 PUSH2 0x4DDF JUMP JUMPDEST PUSH1 0x20 PUSH1 0x40 MLOAD DUP1 DUP4 SUB DUP2 DUP7 GAS STATICCALL ISZERO DUP1 ISZERO PUSH2 0x200B JUMPI RETURNDATASIZE PUSH1 0x0 DUP1 RETURNDATACOPY RETURNDATASIZE PUSH1 0x0 REVERT JUMPDEST POP POP POP POP PUSH1 0x40 MLOAD RETURNDATASIZE PUSH1 0x1F NOT PUSH1 0x1F DUP3 ADD AND DUP3 ADD DUP1 PUSH1 0x40 MSTORE POP DUP2 ADD SWAP1 PUSH2 0x202F SWAP2 SWAP1 PUSH2 0x52DD JUMP JUMPDEST SWAP1 POP DUP3 PUSH20 0xFFFFFFFFFFFFFFFFFFFFFFFFFFFFFFFFFFFFFFFF AND PUSH4 0xA9059CBB DUP4 PUSH2 0x160 ADD MLOAD PUSH1 0x0 PUSH1 0x3 DUP2 LT PUSH2 0x2066 JUMPI PUSH2 0x2065 PUSH2 0x509F JUMP JUMPDEST JUMPDEST PUSH1 0x20 MUL ADD MLOAD DUP4 PUSH1 0x40 MLOAD DUP4 PUSH4 0xFFFFFFFF AND PUSH1 0xE0 SHL DUP2 MSTORE PUSH1 0x4 ADD PUSH2 0x2089 SWAP3 SWAP2 SWAP1 PUSH2 0x530A JUMP JUMPDEST PUSH1 0x20 PUSH1 0x40 MLOAD DUP1 DUP4 SUB DUP2 PUSH1 0x0 DUP8 GAS CALL ISZERO DUP1 ISZERO PUSH2 0x20A8 JUMPI RETURNDATASIZE PUSH1 0x0 DUP1 RETURNDATACOPY RETURNDATASIZE PUSH1 0x0 REVERT JUMPDEST POP POP POP POP PUSH1 0x40 MLOAD RETURNDATASIZE PUSH1 0x1F NOT PUSH1 0x1F DUP3 ADD AND DUP3 ADD DUP1 PUSH1 0x40 MSTORE POP DUP2 ADD SWAP1 PUSH2 0x20CC SWAP2 SWAP1 PUSH2 0x535F JUMP JUMPDEST POP POP POP POP JUMP JUMPDEST PUSH2 0x20DA PUSH2 0x216A JUMP JUMPDEST PUSH1 0x0 PUSH20 0xFFFFFFFFFFFFFFFFFFFFFFFFFFFFFFFFFFFFFFFF AND DUP2 PUSH20 0xFFFFFFFFFFFFFFFFFFFFFFFFFFFFFFFFFFFFFFFF AND SUB PUSH2 0x214C JUMPI PUSH1 0x0 PUSH1 0x40 MLOAD PUSH32 0x1E4FBDF700000000000000000000000000000000000000000000000000000000 DUP2 MSTORE PUSH1 0x4 ADD PUSH2 0x2143 SWAP2 SWAP1 PUSH2 0x4DDF JUMP JUMPDEST PUSH1 0x40 MLOAD DUP1 SWAP2 SUB SWAP1 REVERT JUMPDEST PUSH2 0x2155 DUP2 PUSH2 0x2D4C JUMP JUMPDEST POP JUMP JUMPDEST PUSH2 0x2165 DUP4 DUP4 DUP4 PUSH1 0x1 PUSH2 0x2E64 JUMP JUMPDEST POP POP POP JUMP JUMPDEST PUSH2 0x2172 PUSH2 0x226E JUMP JUMPDEST PUSH20 0xFFFFFFFFFFFFFFFFFFFFFFFFFFFFFFFFFFFFFFFF AND PUSH2 0x2190 PUSH2 0x1703 JUMP JUMPDEST PUSH20 0xFFFFFFFFFFFFFFFFFFFFFFFFFFFFFFFFFFFFFFFF AND EQ PUSH2 0x21EF JUMPI PUSH2 0x21B3 PUSH2 0x226E JUMP JUMPDEST PUSH1 0x40 MLOAD PUSH32 0x118CDAA700000000000000000000000000000000000000000000000000000000 DUP2 MSTORE PUSH1 0x4 ADD PUSH2 0x21E6 SWAP2 SWAP1 PUSH2 0x4DDF JUMP JUMPDEST PUSH1 0x40 MLOAD DUP1 SWAP2 SUB SWAP1 REVERT JUMPDEST JUMP JUMPDEST PUSH1 0x0 PUSH2 0x21FB PUSH2 0x3175 JUMP JUMPDEST PUSH1 0x7 ADD PUSH1 0x0 ADD PUSH1 0x0 DUP4 PUSH20 0xFFFFFFFFFFFFFFFFFFFFFFFFFFFFFFFFFFFFFFFF AND PUSH20 0xFFFFFFFFFFFFFFFFFFFFFFFFFFFFFFFFFFFFFFFF AND DUP2 MSTORE PUSH1 0x20 ADD SWAP1 DUP2 MSTORE PUSH1 0x20 ADD PUSH1 0x0 KECCAK256 SWAP1 POP SWAP2 SWAP1 POP JUMP JUMPDEST PUSH2 0x225C PUSH1 0xA PUSH1 0x1 DUP4 PUSH2 0x31A2 SWAP1 SWAP3 SWAP2 SWAP1 PUSH4 0xFFFFFFFF AND JUMP JUMPDEST POP JUMP JUMPDEST PUSH1 0x0 PUSH2 0x2269 PUSH2 0x3175 JUMP JUMPDEST SWAP1 POP SWAP1 JUMP JUMPDEST PUSH1 0x0 CALLER SWAP1 POP SWAP1 JUMP JUMPDEST PUSH1 0x0 PUSH2 0x2297 DUP3 PUSH20 0xFFFFFFFFFFFFFFFFFFFFFFFFFFFFFFFFFFFFFFFF AND PUSH2 0x3211 JUMP JUMPDEST DUP1 PUSH2 0x22BD JUMPI POP PUSH2 0x22BC DUP3 PUSH20 0xFFFFFFFFFFFFFFFFFFFFFFFFFFFFFFFFFFFFFFFF AND PUSH2 0x336A JUMP JUMPDEST JUMPDEST SWAP1 POP SWAP2 SWAP1 POP JUMP JUMPDEST PUSH1 0x0 PUSH2 0x22D0 DUP5 DUP5 PUSH2 0x2967 JUMP JUMPDEST SWAP1 POP PUSH32 0xFFFFFFFFFFFFFFFFFFFFFFFFFFFFFFFFFFFFFFFFFFFFFFFFFFFFFFFFFFFFFFFF DUP2 EQ PUSH2 0x2352 JUMPI DUP2 DUP2 LT ISZERO PUSH2 0x2342 JUMPI DUP3 DUP2 DUP4 PUSH1 0x40 MLOAD PUSH32 0x192B9E4E00000000000000000000000000000000000000000000000000000000 DUP2 MSTORE PUSH1 0x4 ADD PUSH2 0x2339 SWAP4 SWAP3 SWAP2 SWAP1 PUSH2 0x51EB JUMP JUMPDEST PUSH1 0x40 MLOAD DUP1 SWAP2 SUB SWAP1 REVERT JUMPDEST PUSH2 0x2351 DUP5 DUP5 DUP5 DUP5 SUB PUSH1 0x0 PUSH2 0x2E64 JUMP JUMPDEST JUMPDEST POP POP POP POP JUMP JUMPDEST PUSH1 0x0 DUP1 PUSH20 0xFFFFFFFFFFFFFFFFFFFFFFFFFFFFFFFFFFFFFFFF AND DUP5 PUSH20 0xFFFFFFFFFFFFFFFFFFFFFFFFFFFFFFFFFFFFFFFF AND SUB PUSH2 0x23CB JUMPI PUSH1 0x0 PUSH1 0x40 MLOAD PUSH32 0x4C14F64C00000000000000000000000000000000000000000000000000000000 DUP2 MSTORE PUSH1 0x4 ADD PUSH2 0x23C2 SWAP2 SWAP1 PUSH2 0x4DDF JUMP JUMPDEST PUSH1 0x40 MLOAD DUP1 SWAP2 SUB SWAP1 REVERT JUMPDEST PUSH1 0x0 PUSH20 0xFFFFFFFFFFFFFFFFFFFFFFFFFFFFFFFFFFFFFFFF AND DUP4 PUSH20 0xFFFFFFFFFFFFFFFFFFFFFFFFFFFFFFFFFFFFFFFF AND SUB PUSH2 0x243D JUMPI PUSH1 0x0 PUSH1 0x40 MLOAD PUSH32 0x9CFEA58300000000000000000000000000000000000000000000000000000000 DUP2 MSTORE PUSH1 0x4 ADD PUSH2 0x2434 SWAP2 SWAP1 PUSH2 0x4DDF JUMP JUMPDEST PUSH1 0x40 MLOAD DUP1 SWAP2 SUB SWAP1 REVERT JUMPDEST PUSH1 0x0 PUSH2 0x2447 PUSH2 0x225F JUMP JUMPDEST SWAP1 POP PUSH1 0x0 PUSH2 0x246A DUP7 PUSH20 0xFFFFFFFFFFFFFFFFFFFFFFFFFFFFFFFFFFFFFFFF AND PUSH2 0x21F1 JUMP JUMPDEST SWAP1 POP PUSH1 0x0 PUSH2 0x248D DUP7 PUSH20 0xFFFFFFFFFFFFFFFFFFFFFFFFFFFFFFFFFFFFFFFF AND PUSH2 0x21F1 JUMP JUMPDEST SWAP1 POP PUSH1 0x0 PUSH20 0xFFFFFFFFFFFFFFFFFFFFFFFFFFFFFFFFFFFFFFFF AND DUP3 PUSH1 0x1 ADD PUSH1 0x0 SWAP1 SLOAD SWAP1 PUSH2 0x100 EXP SWAP1 DIV PUSH20 0xFFFFFFFFFFFFFFFFFFFFFFFFFFFFFFFFFFFFFFFF AND PUSH20 0xFFFFFFFFFFFFFFFFFFFFFFFFFFFFFFFFFFFFFFFF AND SUB PUSH2 0x252B JUMPI DUP7 DUP3 PUSH1 0x1 ADD PUSH1 0x0 PUSH2 0x100 EXP DUP2 SLOAD DUP2 PUSH20 0xFFFFFFFFFFFFFFFFFFFFFFFFFFFFFFFFFFFFFFFF MUL NOT AND SWAP1 DUP4 PUSH20 0xFFFFFFFFFFFFFFFFFFFFFFFFFFFFFFFFFFFFFFFF AND MUL OR SWAP1 SSTORE POP JUMPDEST PUSH1 0x0 PUSH20 0xFFFFFFFFFFFFFFFFFFFFFFFFFFFFFFFFFFFFFFFF AND DUP2 PUSH1 0x1 ADD PUSH1 0x0 SWAP1 SLOAD SWAP1 PUSH2 0x100 EXP SWAP1 DIV PUSH20 0xFFFFFFFFFFFFFFFFFFFFFFFFFFFFFFFFFFFFFFFF AND PUSH20 0xFFFFFFFFFFFFFFFFFFFFFFFFFFFFFFFFFFFFFFFF AND SUB PUSH2 0x25C7 JUMPI DUP6 DUP2 PUSH1 0x1 ADD PUSH1 0x0 PUSH2 0x100 EXP DUP2 SLOAD DUP2 PUSH20 0xFFFFFFFFFFFFFFFFFFFFFFFFFFFFFFFFFFFFFFFF MUL NOT AND SWAP1 DUP4 PUSH20 0xFFFFFFFFFFFFFFFFFFFFFFFFFFFFFFFFFFFFFFFF AND MUL OR SWAP1 SSTORE POP JUMPDEST PUSH1 0x0 DUP1 PUSH1 0x0 PUSH2 0x2835 DUP6 PUSH1 0x40 MLOAD DUP1 PUSH1 0xA0 ADD PUSH1 0x40 MSTORE SWAP1 DUP2 PUSH1 0x0 DUP3 ADD PUSH1 0x0 SWAP1 SLOAD SWAP1 PUSH2 0x100 EXP SWAP1 DIV PUSH2 0xFFFF AND PUSH2 0xFFFF AND PUSH2 0xFFFF AND DUP2 MSTORE PUSH1 0x20 ADD PUSH1 0x0 DUP3 ADD PUSH1 0x2 SWAP1 SLOAD SWAP1 PUSH2 0x100 EXP SWAP1 DIV PUSH8 0xFFFFFFFFFFFFFFFF AND PUSH8 0xFFFFFFFFFFFFFFFF AND PUSH8 0xFFFFFFFFFFFFFFFF AND DUP2 MSTORE PUSH1 0x20 ADD PUSH1 0x0 DUP3 ADD PUSH1 0xA SWAP1 SLOAD SWAP1 PUSH2 0x100 EXP SWAP1 DIV PUSH10 0xFFFFFFFFFFFFFFFFFFFF AND PUSH10 0xFFFFFFFFFFFFFFFFFFFF AND PUSH10 0xFFFFFFFFFFFFFFFFFFFF AND DUP2 MSTORE PUSH1 0x20 ADD PUSH1 0x0 DUP3 ADD PUSH1 0x14 SWAP1 SLOAD SWAP1 PUSH2 0x100 EXP SWAP1 DIV PUSH12 0xFFFFFFFFFFFFFFFFFFFFFFFF AND PUSH12 0xFFFFFFFFFFFFFFFFFFFFFFFF AND PUSH12 0xFFFFFFFFFFFFFFFFFFFFFFFF AND DUP2 MSTORE PUSH1 0x20 ADD PUSH1 0x1 DUP3 ADD PUSH1 0x0 SWAP1 SLOAD SWAP1 PUSH2 0x100 EXP SWAP1 DIV PUSH20 0xFFFFFFFFFFFFFFFFFFFFFFFFFFFFFFFFFFFFFFFF AND PUSH20 0xFFFFFFFFFFFFFFFFFFFFFFFFFFFFFFFFFFFFFFFF AND PUSH20 0xFFFFFFFFFFFFFFFFFFFFFFFFFFFFFFFFFFFFFFFF AND DUP2 MSTORE POP POP DUP6 PUSH1 0x40 MLOAD DUP1 PUSH1 0xA0 ADD PUSH1 0x40 MSTORE SWAP1 DUP2 PUSH1 0x0 DUP3 ADD PUSH1 0x0 SWAP1 SLOAD SWAP1 PUSH2 0x100 EXP SWAP1 DIV PUSH2 0xFFFF AND PUSH2 0xFFFF AND PUSH2 0xFFFF AND DUP2 MSTORE PUSH1 0x20 ADD PUSH1 0x0 DUP3 ADD PUSH1 0x2 SWAP1 SLOAD SWAP1 PUSH2 0x100 EXP SWAP1 DIV PUSH8 0xFFFFFFFFFFFFFFFF AND PUSH8 0xFFFFFFFFFFFFFFFF AND PUSH8 0xFFFFFFFFFFFFFFFF AND DUP2 MSTORE PUSH1 0x20 ADD PUSH1 0x0 DUP3 ADD PUSH1 0xA SWAP1 SLOAD SWAP1 PUSH2 0x100 EXP SWAP1 DIV PUSH10 0xFFFFFFFFFFFFFFFFFFFF AND PUSH10 0xFFFFFFFFFFFFFFFFFFFF AND PUSH10 0xFFFFFFFFFFFFFFFFFFFF AND DUP2 MSTORE PUSH1 0x20 ADD PUSH1 0x0 DUP3 ADD PUSH1 0x14 SWAP1 SLOAD SWAP1 PUSH2 0x100 EXP SWAP1 DIV PUSH12 0xFFFFFFFFFFFFFFFFFFFFFFFF AND PUSH12 0xFFFFFFFFFFFFFFFFFFFFFFFF AND PUSH12 0xFFFFFFFFFFFFFFFFFFFFFFFF AND DUP2 MSTORE PUSH1 0x20 ADD PUSH1 0x1 DUP3 ADD PUSH1 0x0 SWAP1 SLOAD SWAP1 PUSH2 0x100 EXP SWAP1 DIV PUSH20 0xFFFFFFFFFFFFFFFFFFFFFFFFFFFFFFFFFFFFFFFF AND PUSH20 0xFFFFFFFFFFFFFFFFFFFFFFFFFFFFFFFFFFFFFFFF AND PUSH20 0xFFFFFFFFFFFFFFFFFFFFFFFFFFFFFFFFFFFFFFFF AND DUP2 MSTORE POP POP DUP11 DUP10 PUSH2 0x34C3 SWAP1 SWAP4 SWAP3 SWAP2 SWAP1 PUSH4 0xFFFFFFFF AND JUMP JUMPDEST SWAP3 POP SWAP3 POP SWAP3 POP PUSH1 0x0 DUP4 PUSH12 0xFFFFFFFFFFFFFFFFFFFFFFFF AND SUB PUSH2 0x286B JUMPI PUSH2 0x285C DUP6 DUP6 DUP11 PUSH2 0x36AF JUMP JUMPDEST PUSH1 0x1 SWAP7 POP POP POP POP POP POP POP PUSH2 0x28C7 JUMP JUMPDEST PUSH2 0x2894 DUP6 PUSH2 0x288E ADDRESS PUSH20 0xFFFFFFFFFFFFFFFFFFFFFFFFFFFFFFFFFFFFFFFF AND PUSH2 0x21F1 JUMP JUMPDEST DUP6 PUSH2 0x36AF JUMP JUMPDEST PUSH1 0x0 DUP2 PUSH12 0xFFFFFFFFFFFFFFFFFFFFFFFF AND GT ISZERO PUSH2 0x28B5 JUMPI PUSH2 0x28B4 DUP2 PUSH2 0x38C2 JUMP JUMPDEST JUMPDEST PUSH2 0x28C0 DUP6 DUP6 DUP5 PUSH2 0x36AF JUMP JUMPDEST POP POP POP POP POP POP JUMPDEST SWAP4 SWAP3 POP POP POP JUMP JUMPDEST PUSH1 0x0 PUSH32 0x8B73C3C69BB8FE3D512ECC4CF759CC79239F7B179B0FFACAA9A75D522B39400F PUSH1 0x0 SHL PUSH32 0x0 PUSH32 0x0 CHAINID ADDRESS PUSH1 0x40 MLOAD PUSH1 0x20 ADD PUSH2 0x294C SWAP6 SWAP5 SWAP4 SWAP3 SWAP2 SWAP1 PUSH2 0x538C JUMP JUMPDEST PUSH1 0x40 MLOAD PUSH1 0x20 DUP2 DUP4 SUB SUB DUP2 MSTORE SWAP1 PUSH1 0x40 MSTORE DUP1 MLOAD SWAP1 PUSH1 0x20 ADD KECCAK256 SWAP1 POP SWAP1 JUMP JUMPDEST PUSH1 0x0 PUSH2 0x2971 PUSH2 0x225F JUMP JUMPDEST PUSH1 0x7 ADD PUSH1 0x1 ADD PUSH1 0x0 DUP5 PUSH20 0xFFFFFFFFFFFFFFFFFFFFFFFFFFFFFFFFFFFFFFFF AND PUSH20 0xFFFFFFFFFFFFFFFFFFFFFFFFFFFFFFFFFFFFFFFF AND DUP2 MSTORE PUSH1 0x20 ADD SWAP1 DUP2 MSTORE PUSH1 0x20 ADD PUSH1 0x0 KECCAK256 PUSH1 0x0 DUP4 PUSH20 0xFFFFFFFFFFFFFFFFFFFFFFFFFFFFFFFFFFFFFFFF AND PUSH20 0xFFFFFFFFFFFFFFFFFFFFFFFFFFFFFFFFFFFFFFFF AND DUP2 MSTORE PUSH1 0x20 ADD SWAP1 DUP2 MSTORE PUSH1 0x20 ADD PUSH1 0x0 KECCAK256 SLOAD SWAP1 POP SWAP3 SWAP2 POP POP JUMP JUMPDEST PUSH1 0x0 DUP1 PUSH2 0x2A05 PUSH2 0x3175 JUMP JUMPDEST PUSH1 0x7 ADD SWAP1 POP CALLER PUSH1 0x0 MSTORE PUSH1 0x0 DUP2 ADD PUSH1 0x20 MSTORE PUSH1 0x40 PUSH1 0x0 KECCAK256 SLOAD PUSH2 0xFFFF DUP2 AND PUSH1 0x1 PUSH1 0xF SHL DUP2 AND PUSH1 0x1 PUSH1 0xE SHL DUP3 AND OR ISZERO PUSH2 0x2A6F JUMPI PUSH3 0x10000 DUP6 LT PUSH2 0x2A43 JUMPI PUSH1 0x0 DUP1 REVERT JUMPDEST DUP6 PUSH1 0x0 MSTORE PUSH1 0x0 DUP4 ADD PUSH1 0x20 MSTORE PUSH1 0x40 PUSH1 0x0 KECCAK256 DUP1 SLOAD PUSH2 0xFFFF PUSH1 0x0 SHL DUP1 DUP9 PUSH1 0x0 SHL AND DUP2 NOT DUP4 AND OR SWAP2 POP DUP2 DUP4 SSTORE POP POP POP JUMPDEST PUSH1 0x1 SWAP4 POP POP POP POP SWAP3 SWAP2 POP POP JUMP JUMPDEST PUSH1 0x0 DUP1 PUSH2 0x2A87 PUSH2 0x3175 JUMP JUMPDEST PUSH1 0x3 ADD SWAP1 POP PUSH1 0x0 PUSH2 0x2A96 PUSH2 0x3175 JUMP JUMPDEST PUSH1 0x7 ADD SWAP1 POP CALLER PUSH1 0x0 MSTORE PUSH1 0x0 DUP2 ADD PUSH1 0x20 MSTORE PUSH1 0x40 PUSH1 0x0 KECCAK256 SLOAD PUSH2 0xFFFF DUP2 AND PUSH1 0x1 PUSH1 0xF SHL DUP2 AND PUSH1 0x1 PUSH1 0xE SHL DUP3 AND OR ISZERO PUSH2 0x2AEF JUMPI PUSH3 0xE4E1C1 DUP7 LT PUSH2 0x2AD4 JUMPI PUSH1 0x0 DUP1 REVERT JUMPDEST DUP4 SLOAD PUSH2 0xFFFF PUSH1 0x98 SHL DUP1 DUP9 PUSH1 0x98 SHL AND DUP2 NOT DUP4 AND OR SWAP2 POP DUP2 DUP7 SSTORE POP POP JUMPDEST PUSH1 0x1 SWAP5 POP POP POP POP POP SWAP2 SWAP1 POP JUMP JUMPDEST PUSH1 0x0 PUSH2 0x2B12 PUSH1 0xA DUP4 PUSH2 0x422B SWAP1 SWAP2 SWAP1 PUSH4 0xFFFFFFFF AND JUMP JUMPDEST SWAP1 POP SWAP2 SWAP1 POP JUMP JUMPDEST PUSH1 0x0 DUP1 PUSH2 0x2B24 PUSH2 0x3175 JUMP JUMPDEST PUSH1 0x3 ADD SWAP1 POP PUSH1 0x0 PUSH2 0x2B33 PUSH2 0x3175 JUMP JUMPDEST PUSH1 0x7 ADD SWAP1 POP CALLER PUSH1 0x0 MSTORE PUSH1 0x0 DUP2 ADD PUSH1 0x20 MSTORE PUSH1 0x40 PUSH1 0x0 KECCAK256 SLOAD PUSH2 0xFFFF DUP2 AND PUSH1 0x1 PUSH1 0xF SHL DUP2 AND PUSH1 0x1 PUSH1 0xE SHL DUP3 AND OR ISZERO PUSH2 0x2B99 JUMPI PUSH1 0x20 DUP7 ADD MLOAD PUSH1 0x40 DUP8 ADD MLOAD PUSH1 0x60 DUP9 ADD MLOAD DUP1 ISZERO DUP3 ISZERO DUP5 ISZERO OR OR ISZERO PUSH2 0x2B83 JUMPI PUSH1 0x0 DUP1 REVERT JUMPDEST DUP3 PUSH1 0x1 DUP9 ADD SSTORE DUP2 PUSH1 0x2 DUP9 ADD SSTORE DUP1 PUSH1 0x3 DUP9 ADD SSTORE POP POP POP JUMPDEST PUSH1 0x1 SWAP5 POP POP POP POP POP SWAP2 SWAP1 POP JUMP JUMPDEST PUSH1 0x0 DUP1 PUSH2 0x2BB1 PUSH2 0x3175 JUMP JUMPDEST PUSH1 0x3 ADD SWAP1 POP PUSH1 0x0 PUSH2 0x2BC0 PUSH2 0x3175 JUMP JUMPDEST PUSH1 0x7 ADD SWAP1 POP CALLER PUSH1 0x0 MSTORE PUSH1 0x0 DUP2 ADD PUSH1 0x20 MSTORE PUSH1 0x40 PUSH1 0x0 KECCAK256 SLOAD PUSH2 0xFFFF DUP2 AND PUSH1 0x1 PUSH1 0xF SHL DUP2 AND PUSH1 0x1 PUSH1 0xE SHL DUP3 AND OR ISZERO PUSH2 0x2C18 JUMPI PUSH2 0x2711 DUP7 LT PUSH2 0x2BFD JUMPI PUSH1 0x0 DUP1 REVERT JUMPDEST DUP4 SLOAD PUSH2 0xFFFF PUSH1 0x88 SHL DUP1 DUP9 PUSH1 0x88 SHL AND DUP2 NOT DUP4 AND OR SWAP2 POP DUP2 DUP7 SSTORE POP POP JUMPDEST PUSH1 0x1 SWAP5 POP POP POP POP POP SWAP2 SWAP1 POP JUMP JUMPDEST PUSH1 0x0 DUP1 PUSH2 0x2C30 PUSH2 0x3175 JUMP JUMPDEST PUSH1 0x3 ADD SWAP1 POP PUSH1 0x0 PUSH2 0x2C3F PUSH2 0x3175 JUMP JUMPDEST PUSH1 0x7 ADD SWAP1 POP CALLER PUSH1 0x0 MSTORE PUSH1 0x0 DUP2 ADD PUSH1 0x20 MSTORE PUSH1 0x40 PUSH1 0x0 KECCAK256 SLOAD PUSH2 0xFFFF DUP2 AND PUSH1 0x1 PUSH1 0xF SHL DUP2 AND PUSH1 0x1 PUSH1 0xE SHL DUP3 AND OR ISZERO PUSH2 0x2D3F JUMPI DUP6 PUSH1 0x40 SHR PUSH2 0xFFFF DUP8 PUSH1 0x30 SHR AND PUSH2 0xFFFF DUP9 PUSH1 0x20 SHR AND PUSH2 0xFFFF DUP10 PUSH1 0x10 SHR AND PUSH2 0xFFFF DUP11 AND DUP1 DUP3 DUP5 DUP7 DUP9 ADD ADD ADD ADD PUSH2 0x2710 DUP2 EQ PUSH2 0x2CA6 JUMPI PUSH1 0x0 DUP1 REVERT JUMPDEST DUP10 SLOAD PUSH1 0x0 JUMPDEST PUSH1 0x5 DUP2 LT ISZERO PUSH2 0x2D33 JUMPI PUSH2 0xFFFF PUSH1 0x10 DUP3 MUL PUSH1 0x38 ADD SHL PUSH1 0x0 DUP3 PUSH1 0x0 DUP2 EQ PUSH2 0x2CEF JUMPI PUSH1 0x1 DUP2 EQ PUSH2 0x2CF7 JUMPI PUSH1 0x2 DUP2 EQ PUSH2 0x2CFF JUMPI PUSH1 0x3 DUP2 EQ PUSH2 0x2D07 JUMPI PUSH1 0x4 DUP2 EQ PUSH2 0x2D0F JUMPI PUSH2 0x2D13 JUMP JUMPDEST DUP11 SWAP2 POP PUSH2 0x2D13 JUMP JUMPDEST DUP10 SWAP2 POP PUSH2 0x2D13 JUMP JUMPDEST DUP9 SWAP2 POP PUSH2 0x2D13 JUMP JUMPDEST DUP8 SWAP2 POP PUSH2 0x2D13 JUMP JUMPDEST DUP7 SWAP2 POP JUMPDEST POP DUP2 DUP2 PUSH1 0x10 DUP6 MUL PUSH1 0x38 ADD SHL AND DUP3 NOT DUP6 AND OR SWAP4 POP POP POP PUSH1 0x1 DUP2 ADD SWAP1 POP PUSH2 0x2CAB JUMP JUMPDEST POP DUP1 DUP12 SSTORE POP POP POP POP POP POP POP JUMPDEST PUSH1 0x1 SWAP5 POP POP POP POP POP SWAP2 SWAP1 POP JUMP JUMPDEST PUSH1 0x0 PUSH2 0x2D56 PUSH2 0x225F JUMP JUMPDEST SWAP1 POP PUSH1 0x0 DUP2 PUSH1 0x1 ADD PUSH1 0x0 SWAP1 SLOAD SWAP1 PUSH2 0x100 EXP SWAP1 DIV PUSH20 0xFFFFFFFFFFFFFFFFFFFFFFFFFFFFFFFFFFFFFFFF AND SWAP1 POP DUP3 DUP3 PUSH1 0x1 ADD PUSH1 0x0 PUSH2 0x100 EXP DUP2 SLOAD DUP2 PUSH20 0xFFFFFFFFFFFFFFFFFFFFFFFFFFFFFFFFFFFFFFFF MUL NOT AND SWAP1 DUP4 PUSH20 0xFFFFFFFFFFFFFFFFFFFFFFFFFFFFFFFFFFFFFFFF AND MUL OR SWAP1 SSTORE POP DUP3 PUSH20 0xFFFFFFFFFFFFFFFFFFFFFFFFFFFFFFFFFFFFFFFF AND DUP2 PUSH20 0xFFFFFFFFFFFFFFFFFFFFFFFFFFFFFFFFFFFFFFFF AND PUSH32 0x8BE0079C531659141344CD1FD0A4F28419497F9722A3DAAFE3B4186F6B6457E0 PUSH1 0x40 MLOAD PUSH1 0x40 MLOAD DUP1 SWAP2 SUB SWAP1 LOG3 POP POP POP JUMP JUMPDEST PUSH2 0x2E3A PUSH1 0xB PUSH1 0x1 DUP4 PUSH2 0x31A2 SWAP1 SWAP3 SWAP2 SWAP1 PUSH4 0xFFFFFFFF AND JUMP JUMPDEST POP JUMP JUMPDEST PUSH1 0x60 PUSH1 0x40 MLOAD SWAP1 POP PUSH1 0x40 DUP2 ADD PUSH1 0x40 MSTORE PUSH1 0x0 DUP2 MSTORE DUP2 PUSH1 0x1F DUP3 ADD MSTORE PUSH1 0x0 DUP2 MLOAD PUSH1 0x20 DUP4 ADD ADD MSTORE SWAP2 SWAP1 POP JUMP JUMPDEST DUP2 PUSH2 0x2E6D PUSH2 0x225F JUMP JUMPDEST PUSH1 0x7 ADD PUSH1 0x1 ADD PUSH1 0x0 DUP7 PUSH20 0xFFFFFFFFFFFFFFFFFFFFFFFFFFFFFFFFFFFFFFFF AND PUSH20 0xFFFFFFFFFFFFFFFFFFFFFFFFFFFFFFFFFFFFFFFF AND DUP2 MSTORE PUSH1 0x20 ADD SWAP1 DUP2 MSTORE PUSH1 0x20 ADD PUSH1 0x0 KECCAK256 PUSH1 0x0 DUP6 PUSH20 0xFFFFFFFFFFFFFFFFFFFFFFFFFFFFFFFFFFFFFFFF AND PUSH20 0xFFFFFFFFFFFFFFFFFFFFFFFFFFFFFFFFFFFFFFFF AND DUP2 MSTORE PUSH1 0x20 ADD SWAP1 DUP2 MSTORE PUSH1 0x20 ADD PUSH1 0x0 KECCAK256 DUP2 SWAP1 SSTORE POP DUP1 ISZERO PUSH2 0x2F5D JUMPI DUP3 PUSH20 0xFFFFFFFFFFFFFFFFFFFFFFFFFFFFFFFFFFFFFFFF AND DUP5 PUSH20 0xFFFFFFFFFFFFFFFFFFFFFFFFFFFFFFFFFFFFFFFF AND PUSH32 0x8C5BE1E5EBEC7D5BD14F71427D1E84F3DD0314C0F7B2291E5B200AC8C7C3B925 DUP5 PUSH1 0x40 MLOAD PUSH2 0x2F54 SWAP2 SWAP1 PUSH2 0x4697 JUMP JUMPDEST PUSH1 0x40 MLOAD DUP1 SWAP2 SUB SWAP1 LOG3 JUMPDEST POP POP POP POP JUMP JUMPDEST PUSH1 0x0 DUP1 PUSH2 0x2F6E PUSH2 0x3175 JUMP JUMPDEST PUSH1 0x3 ADD SWAP1 POP PUSH1 0x0 PUSH2 0x2F7D PUSH2 0x3175 JUMP JUMPDEST PUSH1 0x7 ADD SWAP1 POP CALLER PUSH1 0x0 MSTORE PUSH1 0x0 DUP2 ADD PUSH1 0x20 MSTORE PUSH1 0x40 PUSH1 0x0 KECCAK256 SLOAD PUSH2 0xFFFF DUP2 AND PUSH1 0x1 PUSH1 0xF SHL DUP2 AND PUSH1 0x1 PUSH1 0xE SHL DUP3 AND OR ISZERO PUSH2 0x3051 JUMPI DUP6 PUSH1 0x20 SHR PUSH2 0xFFFF DUP8 PUSH1 0x10 SHR AND PUSH2 0xFFFF DUP9 AND PUSH2 0x3E9 DUP2 LT ISZERO PUSH2 0x3E9 DUP4 LT ISZERO PUSH2 0x3E9 DUP6 LT ISZERO OR OR ISZERO PUSH2 0x2FDB JUMPI PUSH1 0x0 DUP1 REVERT JUMPDEST DUP7 SLOAD PUSH1 0x0 JUMPDEST PUSH1 0x3 DUP2 LT ISZERO PUSH2 0x3048 JUMPI PUSH2 0xFFFF PUSH1 0x10 DUP3 MUL PUSH1 0x8 ADD SHL PUSH1 0x0 DUP3 PUSH1 0x0 DUP2 EQ PUSH2 0x3014 JUMPI PUSH1 0x1 DUP2 EQ PUSH2 0x301C JUMPI PUSH1 0x2 DUP2 EQ PUSH2 0x3024 JUMPI PUSH2 0x3028 JUMP JUMPDEST DUP8 SWAP2 POP PUSH2 0x3028 JUMP JUMPDEST DUP7 SWAP2 POP PUSH2 0x3028 JUMP JUMPDEST DUP6 SWAP2 POP JUMPDEST POP DUP2 DUP2 PUSH1 0x10 DUP6 MUL PUSH1 0x8 ADD SHL AND DUP3 NOT DUP6 AND OR SWAP4 POP POP POP PUSH1 0x1 DUP2 ADD SWAP1 POP PUSH2 0x2FE0 JUMP JUMPDEST POP DUP1 DUP9 SSTORE POP POP POP POP JUMPDEST PUSH1 0x1 SWAP5 POP POP POP POP POP SWAP2 SWAP1 POP JUMP JUMPDEST PUSH1 0x0 DUP1 PUSH2 0x3080 DUP4 PUSH20 0xFFFFFFFFFFFFFFFFFFFFFFFFFFFFFFFFFFFFFFFF AND PUSH2 0x21F1 JUMP JUMPDEST SWAP1 POP PUSH8 0xFFFFFFFFFFFFFFFF DUP1 AND DUP2 PUSH1 0x0 ADD PUSH1 0x2 SWAP1 SLOAD SWAP1 PUSH2 0x100 EXP SWAP1 DIV PUSH8 0xFFFFFFFFFFFFFFFF AND PUSH8 0xFFFFFFFFFFFFFFFF AND LT PUSH2 0x30E2 JUMPI PUSH1 0x0 DUP2 PUSH1 0x0 ADD PUSH1 0x2 PUSH2 0x100 EXP DUP2 SLOAD DUP2 PUSH8 0xFFFFFFFFFFFFFFFF MUL NOT AND SWAP1 DUP4 PUSH8 0xFFFFFFFFFFFFFFFF AND MUL OR SWAP1 SSTORE POP JUMPDEST DUP1 PUSH1 0x0 ADD PUSH1 0x2 DUP2 DUP2 SWAP1 SLOAD SWAP1 PUSH2 0x100 EXP SWAP1 DIV PUSH8 0xFFFFFFFFFFFFFFFF AND DUP1 SWAP3 SWAP2 SWAP1 PUSH1 0x1 ADD SWAP2 SWAP1 PUSH2 0x100 EXP DUP2 SLOAD DUP2 PUSH8 0xFFFFFFFFFFFFFFFF MUL NOT AND SWAP1 DUP4 PUSH8 0xFFFFFFFFFFFFFFFF AND MUL OR SWAP1 SSTORE POP PUSH8 0xFFFFFFFFFFFFFFFF AND SWAP2 POP POP SWAP2 SWAP1 POP JUMP JUMPDEST PUSH1 0x0 PUSH2 0x3146 PUSH2 0xB0D JUMP JUMPDEST DUP3 PUSH1 0x40 MLOAD PUSH1 0x20 ADD PUSH2 0x3158 SWAP3 SWAP2 SWAP1 PUSH2 0x5457 JUMP JUMPDEST PUSH1 0x40 MLOAD PUSH1 0x20 DUP2 DUP4 SUB SUB DUP2 MSTORE SWAP1 PUSH1 0x40 MSTORE DUP1 MLOAD SWAP1 PUSH1 0x20 ADD KECCAK256 SWAP1 POP SWAP2 SWAP1 POP JUMP JUMPDEST PUSH1 0x0 DUP1 PUSH32 0xCF0F5A17FF929F1DB01C46F651A261919D57BA1FF3775E726349A00871888924 SWAP1 POP DUP1 SWAP2 POP POP SWAP1 JUMP JUMPDEST DUP1 PUSH2 0x31CD JUMPI DUP2 PUSH1 0xFF AND PUSH1 0x1 SWAP1 SHL NOT DUP4 PUSH1 0x0 ADD PUSH1 0x0 SWAP1 SLOAD SWAP1 PUSH2 0x100 EXP SWAP1 DIV PUSH2 0xFFFF AND PUSH2 0xFFFF AND AND PUSH2 0x31EE JUMP JUMPDEST DUP2 PUSH1 0xFF AND PUSH1 0x1 SWAP1 SHL DUP4 PUSH1 0x0 ADD PUSH1 0x0 SWAP1 SLOAD SWAP1 PUSH2 0x100 EXP SWAP1 DIV PUSH2 0xFFFF AND PUSH2 0xFFFF AND OR JUMPDEST DUP4 PUSH1 0x0 ADD PUSH1 0x0 PUSH2 0x100 EXP DUP2 SLOAD DUP2 PUSH2 0xFFFF MUL NOT AND SWAP1 DUP4 PUSH2 0xFFFF AND MUL OR SWAP1 SSTORE POP POP POP POP JUMP JUMPDEST PUSH1 0x0 PUSH2 0x3363 PUSH2 0x3235 DUP4 PUSH20 0xFFFFFFFFFFFFFFFFFFFFFFFFFFFFFFFFFFFFFFFF AND PUSH2 0x21F1 JUMP JUMPDEST PUSH1 0x40 MLOAD DUP1 PUSH1 0xA0 ADD PUSH1 0x40 MSTORE SWAP1 DUP2 PUSH1 0x0 DUP3 ADD PUSH1 0x0 SWAP1 SLOAD SWAP1 PUSH2 0x100 EXP SWAP1 DIV PUSH2 0xFFFF AND PUSH2 0xFFFF AND PUSH2 0xFFFF AND DUP2 MSTORE PUSH1 0x20 ADD PUSH1 0x0 DUP3 ADD PUSH1 0x2 SWAP1 SLOAD SWAP1 PUSH2 0x100 EXP SWAP1 DIV PUSH8 0xFFFFFFFFFFFFFFFF AND PUSH8 0xFFFFFFFFFFFFFFFF AND PUSH8 0xFFFFFFFFFFFFFFFF AND DUP2 MSTORE PUSH1 0x20 ADD PUSH1 0x0 DUP3 ADD PUSH1 0xA SWAP1 SLOAD SWAP1 PUSH2 0x100 EXP SWAP1 DIV PUSH10 0xFFFFFFFFFFFFFFFFFFFF AND PUSH10 0xFFFFFFFFFFFFFFFFFFFF AND PUSH10 0xFFFFFFFFFFFFFFFFFFFF AND DUP2 MSTORE PUSH1 0x20 ADD PUSH1 0x0 DUP3 ADD PUSH1 0x14 SWAP1 SLOAD SWAP1 PUSH2 0x100 EXP SWAP1 DIV PUSH12 0xFFFFFFFFFFFFFFFFFFFFFFFF AND PUSH12 0xFFFFFFFFFFFFFFFFFFFFFFFF AND PUSH12 0xFFFFFFFFFFFFFFFFFFFFFFFF AND DUP2 MSTORE PUSH1 0x20 ADD PUSH1 0x1 DUP3 ADD PUSH1 0x0 SWAP1 SLOAD SWAP1 PUSH2 0x100 EXP SWAP1 DIV PUSH20 0xFFFFFFFFFFFFFFFFFFFFFFFFFFFFFFFFFFFFFFFF AND PUSH20 0xFFFFFFFFFFFFFFFFFFFFFFFFFFFFFFFFFFFFFFFF AND PUSH20 0xFFFFFFFFFFFFFFFFFFFFFFFFFFFFFFFFFFFFFFFF AND DUP2 MSTORE POP POP PUSH2 0x424D JUMP JUMPDEST SWAP1 POP SWAP2 SWAP1 POP JUMP JUMPDEST PUSH1 0x0 PUSH2 0x34BC PUSH2 0x338E DUP4 PUSH20 0xFFFFFFFFFFFFFFFFFFFFFFFFFFFFFFFFFFFFFFFF AND PUSH2 0x21F1 JUMP JUMPDEST PUSH1 0x40 MLOAD DUP1 PUSH1 0xA0 ADD PUSH1 0x40 MSTORE SWAP1 DUP2 PUSH1 0x0 DUP3 ADD PUSH1 0x0 SWAP1 SLOAD SWAP1 PUSH2 0x100 EXP SWAP1 DIV PUSH2 0xFFFF AND PUSH2 0xFFFF AND PUSH2 0xFFFF AND DUP2 MSTORE PUSH1 0x20 ADD PUSH1 0x0 DUP3 ADD PUSH1 0x2 SWAP1 SLOAD SWAP1 PUSH2 0x100 EXP SWAP1 DIV PUSH8 0xFFFFFFFFFFFFFFFF AND PUSH8 0xFFFFFFFFFFFFFFFF AND PUSH8 0xFFFFFFFFFFFFFFFF AND DUP2 MSTORE PUSH1 0x20 ADD PUSH1 0x0 DUP3 ADD PUSH1 0xA SWAP1 SLOAD SWAP1 PUSH2 0x100 EXP SWAP1 DIV PUSH10 0xFFFFFFFFFFFFFFFFFFFF AND PUSH10 0xFFFFFFFFFFFFFFFFFFFF AND PUSH10 0xFFFFFFFFFFFFFFFFFFFF AND DUP2 MSTORE PUSH1 0x20 ADD PUSH1 0x0 DUP3 ADD PUSH1 0x14 SWAP1 SLOAD SWAP1 PUSH2 0x100 EXP SWAP1 DIV PUSH12 0xFFFFFFFFFFFFFFFFFFFFFFFF AND PUSH12 0xFFFFFFFFFFFFFFFFFFFFFFFF AND PUSH12 0xFFFFFFFFFFFFFFFFFFFFFFFF AND DUP2 MSTORE PUSH1 0x20 ADD PUSH1 0x1 DUP3 ADD PUSH1 0x0 SWAP1 SLOAD SWAP1 PUSH2 0x100 EXP SWAP1 DIV PUSH20 0xFFFFFFFFFFFFFFFFFFFFFFFFFFFFFFFFFFFFFFFF AND PUSH20 0xFFFFFFFFFFFFFFFFFFFFFFFFFFFFFFFFFFFFFFFF AND PUSH20 0xFFFFFFFFFFFFFFFFFFFFFFFFFFFFFFFFFFFFFFFF AND DUP2 MSTORE POP POP PUSH2 0x426A JUMP JUMPDEST SWAP1 POP SWAP2 SWAP1 POP JUMP JUMPDEST PUSH1 0x0 DUP1 PUSH1 0x0 PUSH2 0x34D1 DUP7 PUSH2 0x4287 JUMP JUMPDEST DUP1 PUSH2 0x34E1 JUMPI POP PUSH2 0x34E0 DUP6 PUSH2 0x4287 JUMP JUMPDEST JUMPDEST DUP1 PUSH2 0x34FA JUMPI POP DUP7 PUSH1 0x2 ADD PUSH1 0xA SWAP1 SLOAD SWAP1 PUSH2 0x100 EXP SWAP1 DIV PUSH1 0xFF AND JUMPDEST ISZERO PUSH2 0x350F JUMPI PUSH1 0x0 DUP5 PUSH1 0x0 SWAP3 POP SWAP3 POP SWAP3 POP PUSH2 0x36A5 JUMP JUMPDEST PUSH2 0x3518 DUP6 PUSH2 0x2AFC JUMP JUMPDEST PUSH2 0x3582 JUMPI PUSH2 0x2710 PUSH2 0xFFFF AND PUSH2 0x352C DUP8 PUSH2 0x2AFC JUMP JUMPDEST PUSH2 0x354B JUMPI DUP8 PUSH1 0x3 ADD PUSH1 0x0 ADD PUSH1 0x5 SWAP1 SLOAD SWAP1 PUSH2 0x100 EXP SWAP1 DIV PUSH2 0xFFFF AND PUSH2 0x3562 JUMP JUMPDEST DUP8 PUSH1 0x3 ADD PUSH1 0x0 ADD PUSH1 0x1 SWAP1 SLOAD SWAP1 PUSH2 0x100 EXP SWAP1 DIV PUSH2 0xFFFF AND JUMPDEST PUSH2 0xFFFF AND DUP6 PUSH2 0x3571 SWAP2 SWAP1 PUSH2 0x548E JUMP JUMPDEST PUSH2 0x357B SWAP2 SWAP1 PUSH2 0x54FA JUMP JUMPDEST SWAP3 POP PUSH2 0x3696 JUMP JUMPDEST PUSH2 0x2710 PUSH2 0xFFFF AND DUP8 PUSH1 0x3 ADD PUSH1 0x0 ADD PUSH1 0x3 SWAP1 SLOAD SWAP1 PUSH2 0x100 EXP SWAP1 DIV PUSH2 0xFFFF AND PUSH2 0xFFFF AND DUP6 PUSH2 0x35AE SWAP2 SWAP1 PUSH2 0x548E JUMP JUMPDEST PUSH2 0x35B8 SWAP2 SWAP1 PUSH2 0x54FA JUMP JUMPDEST SWAP3 POP PUSH1 0x0 DUP8 PUSH1 0x3 ADD PUSH1 0x0 ADD PUSH1 0x11 SWAP1 SLOAD SWAP1 PUSH2 0x100 EXP SWAP1 DIV PUSH2 0xFFFF AND PUSH2 0xFFFF AND GT PUSH2 0x3640 JUMPI DUP7 PUSH1 0x7 ADD PUSH1 0x0 ADD PUSH1 0x0 ADDRESS PUSH20 0xFFFFFFFFFFFFFFFFFFFFFFFFFFFFFFFFFFFFFFFF AND PUSH20 0xFFFFFFFFFFFFFFFFFFFFFFFFFFFFFFFFFFFFFFFF AND DUP2 MSTORE PUSH1 0x20 ADD SWAP1 DUP2 MSTORE PUSH1 0x20 ADD PUSH1 0x0 KECCAK256 PUSH1 0x0 ADD PUSH1 0x14 SWAP1 SLOAD SWAP1 PUSH2 0x100 EXP SWAP1 DIV PUSH12 0xFFFFFFFFFFFFFFFFFFFFFFFF AND PUSH2 0x3693 JUMP JUMPDEST PUSH2 0x2710 PUSH2 0xFFFF AND DUP8 PUSH1 0x3 ADD PUSH1 0x0 ADD PUSH1 0x11 SWAP1 SLOAD SWAP1 PUSH2 0x100 EXP SWAP1 DIV PUSH2 0xFFFF AND PUSH2 0xFFFF AND DUP9 PUSH1 0x1 ADD PUSH1 0x14 SWAP1 SLOAD SWAP1 PUSH2 0x100 EXP SWAP1 DIV PUSH12 0xFFFFFFFFFFFFFFFFFFFFFFFF AND PUSH2 0x3688 SWAP2 SWAP1 PUSH2 0x548E JUMP JUMPDEST PUSH2 0x3692 SWAP2 SWAP1 PUSH2 0x54FA JUMP JUMPDEST JUMPDEST SWAP1 POP JUMPDEST DUP3 DUP5 PUSH2 0x36A2 SWAP2 SWAP1 PUSH2 0x552B JUMP JUMPDEST SWAP2 POP JUMPDEST SWAP5 POP SWAP5 POP SWAP5 SWAP2 POP POP JUMP JUMPDEST DUP3 PUSH1 0x0 ADD PUSH1 0x14 SWAP1 SLOAD SWAP1 PUSH2 0x100 EXP SWAP1 DIV PUSH12 0xFFFFFFFFFFFFFFFFFFFFFFFF AND PUSH12 0xFFFFFFFFFFFFFFFFFFFFFFFF AND DUP2 PUSH12 0xFFFFFFFFFFFFFFFFFFFFFFFF AND GT ISZERO PUSH2 0x3770 JUMPI DUP3 PUSH1 0x1 ADD PUSH1 0x0 SWAP1 SLOAD SWAP1 PUSH2 0x100 EXP SWAP1 DIV PUSH20 0xFFFFFFFFFFFFFFFFFFFFFFFFFFFFFFFFFFFFFFFF AND DUP4 PUSH1 0x0 ADD PUSH1 0x14 SWAP1 SLOAD SWAP1 PUSH2 0x100 EXP SWAP1 DIV PUSH12 0xFFFFFFFFFFFFFFFFFFFFFFFF AND DUP3 PUSH1 0x40 MLOAD PUSH32 0xDB42144D00000000000000000000000000000000000000000000000000000000 DUP2 MSTORE PUSH1 0x4 ADD PUSH2 0x3767 SWAP4 SWAP3 SWAP2 SWAP1 PUSH2 0x559C JUMP JUMPDEST PUSH1 0x40 MLOAD DUP1 SWAP2 SUB SWAP1 REVERT JUMPDEST DUP1 DUP4 PUSH1 0x0 ADD PUSH1 0x14 DUP3 DUP3 DUP3 SWAP1 SLOAD SWAP1 PUSH2 0x100 EXP SWAP1 DIV PUSH12 0xFFFFFFFFFFFFFFFFFFFFFFFF AND SUB SWAP3 POP PUSH2 0x100 EXP DUP2 SLOAD DUP2 PUSH12 0xFFFFFFFFFFFFFFFFFFFFFFFF MUL NOT AND SWAP1 DUP4 PUSH12 0xFFFFFFFFFFFFFFFFFFFFFFFF AND MUL OR SWAP1 SSTORE POP DUP1 DUP3 PUSH1 0x0 ADD PUSH1 0x14 DUP3 DUP3 DUP3 SWAP1 SLOAD SWAP1 PUSH2 0x100 EXP SWAP1 DIV PUSH12 0xFFFFFFFFFFFFFFFFFFFFFFFF AND ADD SWAP3 POP PUSH2 0x100 EXP DUP2 SLOAD DUP2 PUSH12 0xFFFFFFFFFFFFFFFFFFFFFFFF MUL NOT AND SWAP1 DUP4 PUSH12 0xFFFFFFFFFFFFFFFFFFFFFFFF AND MUL OR SWAP1 SSTORE POP DUP2 PUSH1 0x1 ADD PUSH1 0x0 SWAP1 SLOAD SWAP1 PUSH2 0x100 EXP SWAP1 DIV PUSH20 0xFFFFFFFFFFFFFFFFFFFFFFFFFFFFFFFFFFFFFFFF AND PUSH20 0xFFFFFFFFFFFFFFFFFFFFFFFFFFFFFFFFFFFFFFFF AND DUP4 PUSH1 0x1 ADD PUSH1 0x0 SWAP1 SLOAD SWAP1 PUSH2 0x100 EXP SWAP1 DIV PUSH20 0xFFFFFFFFFFFFFFFFFFFFFFFFFFFFFFFFFFFFFFFF AND PUSH20 0xFFFFFFFFFFFFFFFFFFFFFFFFFFFFFFFFFFFFFFFF AND PUSH32 0xDDF252AD1BE2C89B69C2B068FC378DAA952BA7F163C4A11628F55A4DF523B3EF DUP4 PUSH1 0x40 MLOAD PUSH2 0x38B5 SWAP2 SWAP1 PUSH2 0x55D3 JUMP JUMPDEST PUSH1 0x40 MLOAD DUP1 SWAP2 SUB SWAP1 LOG3 POP POP POP JUMP JUMPDEST PUSH1 0x1 PUSH2 0x38CC PUSH2 0x225F JUMP JUMPDEST PUSH1 0x2 ADD PUSH1 0xA PUSH2 0x100 EXP DUP2 SLOAD DUP2 PUSH1 0xFF MUL NOT AND SWAP1 DUP4 ISZERO ISZERO MUL OR SWAP1 SSTORE POP PUSH1 0x0 PUSH2 0x38F0 PUSH2 0x225F JUMP JUMPDEST PUSH1 0x3 ADD PUSH1 0x40 MLOAD DUP1 PUSH2 0x180 ADD PUSH1 0x40 MSTORE SWAP1 DUP2 PUSH1 0x0 DUP3 ADD PUSH1 0x0 SWAP1 SLOAD SWAP1 PUSH2 0x100 EXP SWAP1 DIV PUSH1 0xFF AND ISZERO ISZERO ISZERO ISZERO DUP2 MSTORE PUSH1 0x20 ADD PUSH1 0x0 DUP3 ADD PUSH1 0x1 SWAP1 SLOAD SWAP1 PUSH2 0x100 EXP SWAP1 DIV PUSH2 0xFFFF AND PUSH2 0xFFFF AND PUSH2 0xFFFF AND DUP2 MSTORE PUSH1 0x20 ADD PUSH1 0x0 DUP3 ADD PUSH1 0x3 SWAP1 SLOAD SWAP1 PUSH2 0x100 EXP SWAP1 DIV PUSH2 0xFFFF AND PUSH2 0xFFFF AND PUSH2 0xFFFF AND DUP2 MSTORE PUSH1 0x20 ADD PUSH1 0x0 DUP3 ADD PUSH1 0x5 SWAP1 SLOAD SWAP1 PUSH2 0x100 EXP SWAP1 DIV PUSH2 0xFFFF AND PUSH2 0xFFFF AND PUSH2 0xFFFF AND DUP2 MSTORE PUSH1 0x20 ADD PUSH1 0x0 DUP3 ADD PUSH1 0x7 SWAP1 SLOAD SWAP1 PUSH2 0x100 EXP SWAP1 DIV PUSH2 0xFFFF AND PUSH2 0xFFFF AND PUSH2 0xFFFF AND DUP2 MSTORE PUSH1 0x20 ADD PUSH1 0x0 DUP3 ADD PUSH1 0x9 SWAP1 SLOAD SWAP1 PUSH2 0x100 EXP SWAP1 DIV PUSH2 0xFFFF AND PUSH2 0xFFFF AND PUSH2 0xFFFF AND DUP2 MSTORE PUSH1 0x20 ADD PUSH1 0x0 DUP3 ADD PUSH1 0xB SWAP1 SLOAD SWAP1 PUSH2 0x100 EXP SWAP1 DIV PUSH2 0xFFFF AND PUSH2 0xFFFF AND PUSH2 0xFFFF AND DUP2 MSTORE PUSH1 0x20 ADD PUSH1 0x0 DUP3 ADD PUSH1 0xD SWAP1 SLOAD SWAP1 PUSH2 0x100 EXP SWAP1 DIV PUSH2 0xFFFF AND PUSH2 0xFFFF AND PUSH2 0xFFFF AND DUP2 MSTORE PUSH1 0x20 ADD PUSH1 0x0 DUP3 ADD PUSH1 0xF SWAP1 SLOAD SWAP1 PUSH2 0x100 EXP SWAP1 DIV PUSH2 0xFFFF AND PUSH2 0xFFFF AND PUSH2 0xFFFF AND DUP2 MSTORE PUSH1 0x20 ADD PUSH1 0x0 DUP3 ADD PUSH1 0x11 SWAP1 SLOAD SWAP1 PUSH2 0x100 EXP SWAP1 DIV PUSH2 0xFFFF AND PUSH2 0xFFFF AND PUSH2 0xFFFF AND DUP2 MSTORE PUSH1 0x20 ADD PUSH1 0x0 DUP3 ADD PUSH1 0x13 SWAP1 SLOAD SWAP1 PUSH2 0x100 EXP SWAP1 DIV PUSH3 0xFFFFFF AND PUSH3 0xFFFFFF AND PUSH3 0xFFFFFF AND DUP2 MSTORE PUSH1 0x20 ADD PUSH1 0x1 DUP3 ADD PUSH1 0x3 DUP1 PUSH1 0x20 MUL PUSH1 0x40 MLOAD SWAP1 DUP2 ADD PUSH1 0x40 MSTORE DUP1 SWAP3 SWAP2 SWAP1 DUP3 PUSH1 0x3 DUP1 ISZERO PUSH2 0x3ACF JUMPI PUSH1 0x20 MUL DUP3 ADD SWAP2 JUMPDEST DUP2 PUSH1 0x0 SWAP1 SLOAD SWAP1 PUSH2 0x100 EXP SWAP1 DIV PUSH20 0xFFFFFFFFFFFFFFFFFFFFFFFFFFFFFFFFFFFFFFFF AND PUSH20 0xFFFFFFFFFFFFFFFFFFFFFFFFFFFFFFFFFFFFFFFF AND DUP2 MSTORE PUSH1 0x20 ADD SWAP1 PUSH1 0x1 ADD SWAP1 DUP1 DUP4 GT PUSH2 0x3A85 JUMPI JUMPDEST POP POP POP POP POP DUP2 MSTORE POP POP SWAP1 POP PUSH1 0x0 PUSH1 0x2 PUSH8 0xFFFFFFFFFFFFFFFF DUP2 GT ISZERO PUSH2 0x3AF7 JUMPI PUSH2 0x3AF6 PUSH2 0x4A13 JUMP JUMPDEST JUMPDEST PUSH1 0x40 MLOAD SWAP1 DUP1 DUP3 MSTORE DUP1 PUSH1 0x20 MUL PUSH1 0x20 ADD DUP3 ADD PUSH1 0x40 MSTORE DUP1 ISZERO PUSH2 0x3B25 JUMPI DUP2 PUSH1 0x20 ADD PUSH1 0x20 DUP3 MUL DUP1 CALLDATASIZE DUP4 CALLDATACOPY DUP1 DUP3 ADD SWAP2 POP POP SWAP1 POP JUMPDEST POP SWAP1 POP ADDRESS DUP2 PUSH1 0x0 DUP2 MLOAD DUP2 LT PUSH2 0x3B3D JUMPI PUSH2 0x3B3C PUSH2 0x509F JUMP JUMPDEST JUMPDEST PUSH1 0x20 MUL PUSH1 0x20 ADD ADD SWAP1 PUSH20 0xFFFFFFFFFFFFFFFFFFFFFFFFFFFFFFFFFFFFFFFF AND SWAP1 DUP2 PUSH20 0xFFFFFFFFFFFFFFFFFFFFFFFFFFFFFFFFFFFFFFFF AND DUP2 MSTORE POP POP PUSH20 0x10ED43C718714EB63D5AA57B78B54704E256024E PUSH20 0xFFFFFFFFFFFFFFFFFFFFFFFFFFFFFFFFFFFFFFFF AND PUSH4 0xAD5C4648 PUSH1 0x40 MLOAD DUP2 PUSH4 0xFFFFFFFF AND PUSH1 0xE0 SHL DUP2 MSTORE PUSH1 0x4 ADD PUSH1 0x20 PUSH1 0x40 MLOAD DUP1 DUP4 SUB DUP2 DUP7 GAS STATICCALL ISZERO DUP1 ISZERO PUSH2 0x3BD6 JUMPI RETURNDATASIZE PUSH1 0x0 DUP1 RETURNDATACOPY RETURNDATASIZE PUSH1 0x0 REVERT JUMPDEST POP POP POP POP PUSH1 0x40 MLOAD RETURNDATASIZE PUSH1 0x1F NOT PUSH1 0x1F DUP3 ADD AND DUP3 ADD DUP1 PUSH1 0x40 MSTORE POP DUP2 ADD SWAP1 PUSH2 0x3BFA SWAP2 SWAP1 PUSH2 0x5195 JUMP JUMPDEST DUP2 PUSH1 0x1 DUP2 MLOAD DUP2 LT PUSH2 0x3C0E JUMPI PUSH2 0x3C0D PUSH2 0x509F JUMP JUMPDEST JUMPDEST PUSH1 0x20 MUL PUSH1 0x20 ADD ADD SWAP1 PUSH20 0xFFFFFFFFFFFFFFFFFFFFFFFFFFFFFFFFFFFFFFFF AND SWAP1 DUP2 PUSH20 0xFFFFFFFFFFFFFFFFFFFFFFFFFFFFFFFFFFFFFFFF AND DUP2 MSTORE POP POP PUSH1 0x0 DUP1 PUSH2 0x2710 SWAP1 POP PUSH1 0x0 DUP5 PUSH2 0x100 ADD MLOAD PUSH2 0xFFFF AND GT ISZERO PUSH2 0x3CD6 JUMPI PUSH1 0x2 DUP2 PUSH2 0xFFFF AND DUP6 PUSH2 0x100 ADD MLOAD PUSH2 0xFFFF AND DUP8 MUL PUSH12 0xFFFFFFFFFFFFFFFFFFFFFFFF AND DUP2 PUSH2 0x3C91 JUMPI PUSH2 0x3C90 PUSH2 0x54CB JUMP JUMPDEST JUMPDEST DIV PUSH12 0xFFFFFFFFFFFFFFFFFFFFFFFF AND DUP2 PUSH2 0x3CAE JUMPI PUSH2 0x3CAD PUSH2 0x54CB JUMP JUMPDEST JUMPDEST DIV SWAP2 POP DUP2 DUP6 SUB SWAP5 POP PUSH1 0x2 DUP5 PUSH2 0x100 ADD MLOAD PUSH2 0xFFFF AND DUP2 PUSH2 0x3CD0 JUMPI PUSH2 0x3CCF PUSH2 0x54CB JUMP JUMPDEST JUMPDEST DIV DUP2 SUB SWAP1 POP JUMPDEST PUSH1 0x0 SELFBALANCE SWAP1 POP PUSH20 0x10ED43C718714EB63D5AA57B78B54704E256024E PUSH20 0xFFFFFFFFFFFFFFFFFFFFFFFFFFFFFFFFFFFFFFFF AND PUSH4 0x18CBAFE5 DUP8 PUSH1 0x0 DUP8 ADDRESS TIMESTAMP PUSH1 0x40 MLOAD DUP7 PUSH4 0xFFFFFFFF AND PUSH1 0xE0 SHL DUP2 MSTORE PUSH1 0x4 ADD PUSH2 0x3D31 SWAP6 SWAP5 SWAP4 SWAP3 SWAP2 SWAP1 PUSH2 0x56D8 JUMP JUMPDEST PUSH1 0x0 PUSH1 0x40 MLOAD DUP1 DUP4 SUB DUP2 PUSH1 0x0 DUP8 GAS CALL ISZERO DUP1 ISZERO PUSH2 0x3D50 JUMPI RETURNDATASIZE PUSH1 0x0 DUP1 RETURNDATACOPY RETURNDATASIZE PUSH1 0x0 REVERT JUMPDEST POP POP POP POP PUSH1 0x40 MLOAD RETURNDATASIZE PUSH1 0x0 DUP3 RETURNDATACOPY RETURNDATASIZE PUSH1 0x1F NOT PUSH1 0x1F DUP3 ADD AND DUP3 ADD DUP1 PUSH1 0x40 MSTORE POP DUP2 ADD SWAP1 PUSH2 0x3D79 SWAP2 SWAP1 PUSH2 0x57FA JUMP JUMPDEST POP PUSH1 0x0 DUP1 DUP3 SELFBALANCE SUB SWAP1 POP PUSH1 0x0 DUP1 PUSH1 0x0 DUP1 PUSH1 0x0 DUP12 PUSH1 0x80 ADD MLOAD PUSH2 0xFFFF AND GT ISZERO PUSH2 0x3DC9 JUMPI DUP8 PUSH2 0xFFFF AND DUP12 PUSH1 0x80 ADD MLOAD PUSH2 0xFFFF AND DUP7 MUL PUSH12 0xFFFFFFFFFFFFFFFFFFFFFFFF AND DUP2 PUSH2 0x3DC5 JUMPI PUSH2 0x3DC4 PUSH2 0x54CB JUMP JUMPDEST JUMPDEST DIV SWAP4 POP JUMPDEST PUSH1 0x0 DUP12 PUSH1 0xA0 ADD MLOAD PUSH2 0xFFFF AND GT ISZERO PUSH2 0x3E0A JUMPI DUP8 PUSH2 0xFFFF AND DUP12 PUSH1 0xA0 ADD MLOAD PUSH2 0xFFFF AND DUP7 MUL PUSH12 0xFFFFFFFFFFFFFFFFFFFFFFFF AND DUP2 PUSH2 0x3E06 JUMPI PUSH2 0x3E05 PUSH2 0x54CB JUMP JUMPDEST JUMPDEST DIV SWAP3 POP JUMPDEST PUSH1 0x0 DUP12 PUSH1 0xC0 ADD MLOAD PUSH2 0xFFFF AND GT ISZERO PUSH2 0x3E4B JUMPI DUP8 PUSH2 0xFFFF AND DUP12 PUSH1 0xC0 ADD MLOAD PUSH2 0xFFFF AND DUP7 MUL PUSH12 0xFFFFFFFFFFFFFFFFFFFFFFFF AND DUP2 PUSH2 0x3E47 JUMPI PUSH2 0x3E46 PUSH2 0x54CB JUMP JUMPDEST JUMPDEST DIV SWAP2 POP JUMPDEST PUSH1 0x0 DUP12 PUSH1 0xE0 ADD MLOAD PUSH2 0xFFFF AND GT ISZERO PUSH2 0x3E8C JUMPI DUP8 PUSH2 0xFFFF AND DUP12 PUSH1 0xE0 ADD MLOAD PUSH2 0xFFFF AND DUP7 MUL PUSH12 0xFFFFFFFFFFFFFFFFFFFFFFFF AND DUP2 PUSH2 0x3E88 JUMPI PUSH2 0x3E87 PUSH2 0x54CB JUMP JUMPDEST JUMPDEST DIV SWAP1 POP JUMPDEST PUSH1 0x0 DUP5 PUSH12 0xFFFFFFFFFFFFFFFFFFFFFFFF AND GT ISZERO PUSH2 0x3EAE JUMPI PUSH2 0x3EAD ADDRESS DUP6 PUSH2 0x42A4 JUMP JUMPDEST JUMPDEST PUSH1 0x0 DUP2 PUSH12 0xFFFFFFFFFFFFFFFFFFFFFFFF AND GT ISZERO PUSH2 0x3F6A JUMPI DUP11 PUSH2 0x160 ADD MLOAD PUSH1 0x0 PUSH1 0x3 DUP2 LT PUSH2 0x3EDE JUMPI PUSH2 0x3EDD PUSH2 0x509F JUMP JUMPDEST JUMPDEST PUSH1 0x20 MUL ADD MLOAD PUSH20 0xFFFFFFFFFFFFFFFFFFFFFFFFFFFFFFFFFFFFFFFF AND DUP2 PUSH12 0xFFFFFFFFFFFFFFFFFFFFFFFF AND DUP13 PUSH2 0x140 ADD MLOAD PUSH3 0xFFFFFF AND SWAP1 PUSH1 0x40 MLOAD PUSH2 0x3F20 SWAP1 PUSH2 0x50FF JUMP JUMPDEST PUSH1 0x0 PUSH1 0x40 MLOAD DUP1 DUP4 SUB DUP2 DUP6 DUP9 DUP9 CALL SWAP4 POP POP POP POP RETURNDATASIZE DUP1 PUSH1 0x0 DUP2 EQ PUSH2 0x3F5E JUMPI PUSH1 0x40 MLOAD SWAP2 POP PUSH1 0x1F NOT PUSH1 0x3F RETURNDATASIZE ADD AND DUP3 ADD PUSH1 0x40 MSTORE RETURNDATASIZE DUP3 MSTORE RETURNDATASIZE PUSH1 0x0 PUSH1 0x20 DUP5 ADD RETURNDATACOPY PUSH2 0x3F63 JUMP JUMPDEST PUSH1 0x60 SWAP2 POP JUMPDEST POP POP DUP1 SWAP7 POP POP JUMPDEST PUSH1 0x0 DUP3 PUSH12 0xFFFFFFFFFFFFFFFFFFFFFFFF AND GT ISZERO PUSH2 0x4026 JUMPI DUP11 PUSH2 0x160 ADD MLOAD PUSH1 0x1 PUSH1 0x3 DUP2 LT PUSH2 0x3F9A JUMPI PUSH2 0x3F99 PUSH2 0x509F JUMP JUMPDEST JUMPDEST PUSH1 0x20 MUL ADD MLOAD PUSH20 0xFFFFFFFFFFFFFFFFFFFFFFFFFFFFFFFFFFFFFFFF AND DUP3 PUSH12 0xFFFFFFFFFFFFFFFFFFFFFFFF AND DUP13 PUSH2 0x140 ADD MLOAD PUSH3 0xFFFFFF AND SWAP1 PUSH1 0x40 MLOAD PUSH2 0x3FDC SWAP1 PUSH2 0x50FF JUMP JUMPDEST PUSH1 0x0 PUSH1 0x40 MLOAD DUP1 DUP4 SUB DUP2 DUP6 DUP9 DUP9 CALL SWAP4 POP POP POP POP RETURNDATASIZE DUP1 PUSH1 0x0 DUP2 EQ PUSH2 0x401A JUMPI PUSH1 0x40 MLOAD SWAP2 POP PUSH1 0x1F NOT PUSH1 0x3F RETURNDATASIZE ADD AND DUP3 ADD PUSH1 0x40 MSTORE RETURNDATASIZE DUP3 MSTORE RETURNDATASIZE PUSH1 0x0 PUSH1 0x20 DUP5 ADD RETURNDATACOPY PUSH2 0x401F JUMP JUMPDEST PUSH1 0x60 SWAP2 POP JUMPDEST POP POP DUP1 SWAP7 POP POP JUMPDEST PUSH1 0x0 DUP4 PUSH12 0xFFFFFFFFFFFFFFFFFFFFFFFF AND GT ISZERO PUSH2 0x40E2 JUMPI DUP11 PUSH2 0x160 ADD MLOAD PUSH1 0x2 PUSH1 0x3 DUP2 LT PUSH2 0x4056 JUMPI PUSH2 0x4055 PUSH2 0x509F JUMP JUMPDEST JUMPDEST PUSH1 0x20 MUL ADD MLOAD PUSH20 0xFFFFFFFFFFFFFFFFFFFFFFFFFFFFFFFFFFFFFFFF AND DUP4 PUSH12 0xFFFFFFFFFFFFFFFFFFFFFFFF AND DUP13 PUSH2 0x140 ADD MLOAD PUSH3 0xFFFFFF AND SWAP1 PUSH1 0x40 MLOAD PUSH2 0x4098 SWAP1 PUSH2 0x50FF JUMP JUMPDEST PUSH1 0x0 PUSH1 0x40 MLOAD DUP1 DUP4 SUB DUP2 DUP6 DUP9 DUP9 CALL SWAP4 POP POP POP POP RETURNDATASIZE DUP1 PUSH1 0x0 DUP2 EQ PUSH2 0x40D6 JUMPI PUSH1 0x40 MLOAD SWAP2 POP PUSH1 0x1F NOT PUSH1 0x3F RETURNDATASIZE ADD AND DUP3 ADD PUSH1 0x40 MSTORE RETURNDATASIZE DUP3 MSTORE RETURNDATASIZE PUSH1 0x0 PUSH1 0x20 DUP5 ADD RETURNDATACOPY PUSH2 0x40DB JUMP JUMPDEST PUSH1 0x60 SWAP2 POP JUMPDEST POP POP DUP1 SWAP7 POP POP JUMPDEST PUSH1 0x0 DUP10 PUSH12 0xFFFFFFFFFFFFFFFFFFFFFFFF AND GT ISZERO PUSH2 0x41F9 JUMPI PUSH1 0x0 PUSH1 0x2 DUP10 PUSH2 0xFFFF AND DUP14 PUSH2 0x100 ADD MLOAD PUSH2 0xFFFF AND DUP9 MUL PUSH12 0xFFFFFFFFFFFFFFFFFFFFFFFF AND DUP2 PUSH2 0x412A JUMPI PUSH2 0x4129 PUSH2 0x54CB JUMP JUMPDEST JUMPDEST DIV PUSH12 0xFFFFFFFFFFFFFFFFFFFFFFFF AND DUP2 PUSH2 0x4147 JUMPI PUSH2 0x4146 PUSH2 0x54CB JUMP JUMPDEST JUMPDEST DIV SWAP1 POP PUSH20 0x10ED43C718714EB63D5AA57B78B54704E256024E PUSH20 0xFFFFFFFFFFFFFFFFFFFFFFFFFFFFFFFFFFFFFFFF AND PUSH4 0xF305D719 DUP3 PUSH12 0xFFFFFFFFFFFFFFFFFFFFFFFF AND ADDRESS DUP14 PUSH1 0x0 DUP1 ADDRESS TIMESTAMP PUSH1 0x40 MLOAD DUP9 PUSH4 0xFFFFFFFF AND PUSH1 0xE0 SHL DUP2 MSTORE PUSH1 0x4 ADD PUSH2 0x41B1 SWAP7 SWAP6 SWAP5 SWAP4 SWAP3 SWAP2 SWAP1 PUSH2 0x5843 JUMP JUMPDEST PUSH1 0x60 PUSH1 0x40 MLOAD DUP1 DUP4 SUB DUP2 DUP6 DUP9 GAS CALL ISZERO DUP1 ISZERO PUSH2 0x41CF JUMPI RETURNDATASIZE PUSH1 0x0 DUP1 RETURNDATACOPY RETURNDATASIZE PUSH1 0x0 REVERT JUMPDEST POP POP POP POP POP PUSH1 0x40 MLOAD RETURNDATASIZE PUSH1 0x1F NOT PUSH1 0x1F DUP3 ADD AND DUP3 ADD DUP1 PUSH1 0x40 MSTORE POP DUP2 ADD SWAP1 PUSH2 0x41F4 SWAP2 SWAP1 PUSH2 0x58A4 JUMP JUMPDEST POP POP POP POP JUMPDEST POP POP POP POP POP POP POP POP POP POP POP PUSH1 0x0 PUSH2 0x420E PUSH2 0x225F JUMP JUMPDEST PUSH1 0x2 ADD PUSH1 0xA PUSH2 0x100 EXP DUP2 SLOAD DUP2 PUSH1 0xFF MUL NOT AND SWAP1 DUP4 ISZERO ISZERO MUL OR SWAP1 SSTORE POP POP JUMP JUMPDEST PUSH1 0x0 PUSH1 0x1 DUP1 DUP4 PUSH1 0xFF AND DUP6 PUSH1 0x0 ADD MLOAD PUSH2 0xFFFF AND SWAP1 SHR AND PUSH2 0xFFFF AND EQ SWAP1 POP SWAP3 SWAP2 POP POP JUMP JUMPDEST PUSH1 0x0 PUSH2 0x4263 PUSH1 0xD DUP4 PUSH2 0x422B SWAP1 SWAP2 SWAP1 PUSH4 0xFFFFFFFF AND JUMP JUMPDEST SWAP1 POP SWAP2 SWAP1 POP JUMP JUMPDEST PUSH1 0x0 PUSH2 0x4280 PUSH1 0xE DUP4 PUSH2 0x422B SWAP1 SWAP2 SWAP1 PUSH4 0xFFFFFFFF AND JUMP JUMPDEST SWAP1 POP SWAP2 SWAP1 POP JUMP JUMPDEST PUSH1 0x0 PUSH2 0x429D PUSH1 0xB DUP4 PUSH2 0x422B SWAP1 SWAP2 SWAP1 PUSH4 0xFFFFFFFF AND JUMP JUMPDEST SWAP1 POP SWAP2 SWAP1 POP JUMP JUMPDEST PUSH1 0x0 PUSH2 0x42C5 DUP4 PUSH20 0xFFFFFFFFFFFFFFFFFFFFFFFFFFFFFFFFFFFFFFFF AND PUSH2 0x21F1 JUMP JUMPDEST SWAP1 POP DUP1 PUSH1 0x0 ADD PUSH1 0x14 SWAP1 SLOAD SWAP1 PUSH2 0x100 EXP SWAP1 DIV PUSH12 0xFFFFFFFFFFFFFFFFFFFFFFFF AND PUSH12 0xFFFFFFFFFFFFFFFFFFFFFFFF AND DUP3 PUSH12 0xFFFFFFFFFFFFFFFFFFFFFFFF AND GT ISZERO PUSH2 0x430C JUMPI PUSH1 0x0 DUP1 REVERT JUMPDEST DUP2 DUP2 PUSH1 0x0 ADD PUSH1 0x14 DUP3 DUP3 DUP3 SWAP1 SLOAD SWAP1 PUSH2 0x100 EXP SWAP1 DIV PUSH12 0xFFFFFFFFFFFFFFFFFFFFFFFF AND SUB SWAP3 POP PUSH2 0x100 EXP DUP2 SLOAD DUP2 PUSH12 0xFFFFFFFFFFFFFFFFFFFFFFFF MUL NOT AND SWAP1 DUP4 PUSH12 0xFFFFFFFFFFFFFFFFFFFFFFFF AND MUL OR SWAP1 SSTORE POP DUP2 PUSH2 0x4365 PUSH2 0x225F JUMP JUMPDEST PUSH1 0x1 ADD PUSH1 0x14 DUP3 DUP3 DUP3 SWAP1 SLOAD SWAP1 PUSH2 0x100 EXP SWAP1 DIV PUSH12 0xFFFFFFFFFFFFFFFFFFFFFFFF AND SUB SWAP3 POP PUSH2 0x100 EXP DUP2 SLOAD DUP2 PUSH12 0xFFFFFFFFFFFFFFFFFFFFFFFF MUL NOT AND SWAP1 DUP4 PUSH12 0xFFFFFFFFFFFFFFFFFFFFFFFF AND MUL OR SWAP1 SSTORE POP PUSH1 0x0 PUSH20 0xFFFFFFFFFFFFFFFFFFFFFFFFFFFFFFFFFFFFFFFF AND DUP4 PUSH20 0xFFFFFFFFFFFFFFFFFFFFFFFFFFFFFFFFFFFFFFFF AND PUSH32 0xDDF252AD1BE2C89B69C2B068FC378DAA952BA7F163C4A11628F55A4DF523B3EF DUP5 PUSH1 0x40 MLOAD PUSH2 0x4411 SWAP2 SWAP1 PUSH2 0x55D3 JUMP JUMPDEST PUSH1 0x40 MLOAD DUP1 SWAP2 SUB SWAP1 LOG3 POP POP POP JUMP JUMPDEST PUSH1 0x40 MLOAD DUP1 PUSH1 0xA0 ADD PUSH1 0x40 MSTORE DUP1 PUSH1 0x0 PUSH2 0xFFFF AND DUP2 MSTORE PUSH1 0x20 ADD PUSH1 0x0 PUSH8 0xFFFFFFFFFFFFFFFF AND DUP2 MSTORE PUSH1 0x20 ADD PUSH1 0x0 PUSH10 0xFFFFFFFFFFFFFFFFFFFF AND DUP2 MSTORE PUSH1 0x20 ADD PUSH1 0x0 PUSH12 0xFFFFFFFFFFFFFFFFFFFFFFFF AND DUP2 MSTORE PUSH1 0x20 ADD PUSH1 0x0 PUSH20 0xFFFFFFFFFFFFFFFFFFFFFFFFFFFFFFFFFFFFFFFF AND DUP2 MSTORE POP SWAP1 JUMP JUMPDEST PUSH1 0x0 DUP2 MLOAD SWAP1 POP SWAP2 SWAP1 POP JUMP JUMPDEST PUSH1 0x0 DUP3 DUP3 MSTORE PUSH1 0x20 DUP3 ADD SWAP1 POP SWAP3 SWAP2 POP POP JUMP JUMPDEST PUSH1 0x0 JUMPDEST DUP4 DUP2 LT ISZERO PUSH2 0x44C5 JUMPI DUP1 DUP3 ADD MLOAD DUP2 DUP5 ADD MSTORE PUSH1 0x20 DUP2 ADD SWAP1 POP PUSH2 0x44AA JUMP JUMPDEST PUSH1 0x0 DUP5 DUP5 ADD MSTORE POP POP POP POP JUMP JUMPDEST PUSH1 0x0 PUSH1 0x1F NOT PUSH1 0x1F DUP4 ADD AND SWAP1 POP SWAP2 SWAP1 POP JUMP JUMPDEST PUSH1 0x0 PUSH2 0x44ED DUP3 PUSH2 0x448B JUMP JUMPDEST PUSH2 0x44F7 DUP2 DUP6 PUSH2 0x4496 JUMP JUMPDEST SWAP4 POP PUSH2 0x4507 DUP2 DUP6 PUSH1 0x20 DUP7 ADD PUSH2 0x44A7 JUMP JUMPDEST PUSH2 0x4510 DUP2 PUSH2 0x44D1 JUMP JUMPDEST DUP5 ADD SWAP2 POP POP SWAP3 SWAP2 POP POP JUMP JUMPDEST PUSH1 0x0 PUSH1 0x20 DUP3 ADD SWAP1 POP DUP2 DUP2 SUB PUSH1 0x0 DUP4 ADD MSTORE PUSH2 0x4535 DUP2 DUP5 PUSH2 0x44E2 JUMP JUMPDEST SWAP1 POP SWAP3 SWAP2 POP POP JUMP JUMPDEST PUSH1 0x0 PUSH1 0x40 MLOAD SWAP1 POP SWAP1 JUMP JUMPDEST PUSH1 0x0 DUP1 REVERT JUMPDEST PUSH1 0x0 DUP1 REVERT JUMPDEST PUSH1 0x0 PUSH20 0xFFFFFFFFFFFFFFFFFFFFFFFFFFFFFFFFFFFFFFFF DUP3 AND SWAP1 POP SWAP2 SWAP1 POP JUMP JUMPDEST PUSH1 0x0 PUSH2 0x457C DUP3 PUSH2 0x4551 JUMP JUMPDEST SWAP1 POP SWAP2 SWAP1 POP JUMP JUMPDEST PUSH2 0x458C DUP2 PUSH2 0x4571 JUMP JUMPDEST DUP2 EQ PUSH2 0x4597 JUMPI PUSH1 0x0 DUP1 REVERT JUMPDEST POP JUMP JUMPDEST PUSH1 0x0 DUP2 CALLDATALOAD SWAP1 POP PUSH2 0x45A9 DUP2 PUSH2 0x4583 JUMP JUMPDEST SWAP3 SWAP2 POP POP JUMP JUMPDEST PUSH1 0x0 DUP2 SWAP1 POP SWAP2 SWAP1 POP JUMP JUMPDEST PUSH2 0x45C2 DUP2 PUSH2 0x45AF JUMP JUMPDEST DUP2 EQ PUSH2 0x45CD JUMPI PUSH1 0x0 DUP1 REVERT JUMPDEST POP JUMP JUMPDEST PUSH1 0x0 DUP2 CALLDATALOAD SWAP1 POP PUSH2 0x45DF DUP2 PUSH2 0x45B9 JUMP JUMPDEST SWAP3 SWAP2 POP POP JUMP JUMPDEST PUSH1 0x0 DUP1 PUSH1 0x40 DUP4 DUP6 SUB SLT ISZERO PUSH2 0x45FC JUMPI PUSH2 0x45FB PUSH2 0x4547 JUMP JUMPDEST JUMPDEST PUSH1 0x0 PUSH2 0x460A DUP6 DUP3 DUP7 ADD PUSH2 0x459A JUMP JUMPDEST SWAP3 POP POP PUSH1 0x20 PUSH2 0x461B DUP6 DUP3 DUP7 ADD PUSH2 0x45D0 JUMP JUMPDEST SWAP2 POP POP SWAP3 POP SWAP3 SWAP1 POP JUMP JUMPDEST PUSH1 0x0 DUP2 ISZERO ISZERO SWAP1 POP SWAP2 SWAP1 POP JUMP JUMPDEST PUSH2 0x463A DUP2 PUSH2 0x4625 JUMP JUMPDEST DUP3 MSTORE POP POP JUMP JUMPDEST PUSH1 0x0 PUSH1 0x20 DUP3 ADD SWAP1 POP PUSH2 0x4655 PUSH1 0x0 DUP4 ADD DUP5 PUSH2 0x4631 JUMP JUMPDEST SWAP3 SWAP2 POP POP JUMP JUMPDEST PUSH1 0x0 PUSH1 0x20 DUP3 DUP5 SUB SLT ISZERO PUSH2 0x4671 JUMPI PUSH2 0x4670 PUSH2 0x4547 JUMP JUMPDEST JUMPDEST PUSH1 0x0 PUSH2 0x467F DUP5 DUP3 DUP6 ADD PUSH2 0x459A JUMP JUMPDEST SWAP2 POP POP SWAP3 SWAP2 POP POP JUMP JUMPDEST PUSH2 0x4691 DUP2 PUSH2 0x45AF JUMP JUMPDEST DUP3 MSTORE POP POP JUMP JUMPDEST PUSH1 0x0 PUSH1 0x20 DUP3 ADD SWAP1 POP PUSH2 0x46AC PUSH1 0x0 DUP4 ADD DUP5 PUSH2 0x4688 JUMP JUMPDEST SWAP3 SWAP2 POP POP JUMP JUMPDEST PUSH1 0x0 DUP1 PUSH1 0x0 PUSH1 0x60 DUP5 DUP7 SUB SLT ISZERO PUSH2 0x46CB JUMPI PUSH2 0x46CA PUSH2 0x4547 JUMP JUMPDEST JUMPDEST PUSH1 0x0 PUSH2 0x46D9 DUP7 DUP3 DUP8 ADD PUSH2 0x459A JUMP JUMPDEST SWAP4 POP POP PUSH1 0x20 PUSH2 0x46EA DUP7 DUP3 DUP8 ADD PUSH2 0x459A JUMP JUMPDEST SWAP3 POP POP PUSH1 0x40 PUSH2 0x46FB DUP7 DUP3 DUP8 ADD PUSH2 0x45D0 JUMP JUMPDEST SWAP2 POP POP SWAP3 POP SWAP3 POP SWAP3 JUMP JUMPDEST PUSH1 0x0 DUP2 SWAP1 POP SWAP2 SWAP1 POP JUMP JUMPDEST PUSH2 0x4718 DUP2 PUSH2 0x4705 JUMP JUMPDEST DUP3 MSTORE POP POP JUMP JUMPDEST PUSH1 0x0 PUSH1 0x20 DUP3 ADD SWAP1 POP PUSH2 0x4733 PUSH1 0x0 DUP4 ADD DUP5 PUSH2 0x470F JUMP JUMPDEST SWAP3 SWAP2 POP POP JUMP JUMPDEST PUSH1 0x0 PUSH1 0xFF DUP3 AND SWAP1 POP SWAP2 SWAP1 POP JUMP JUMPDEST PUSH2 0x474F DUP2 PUSH2 0x4739 JUMP JUMPDEST DUP3 MSTORE POP POP JUMP JUMPDEST PUSH1 0x0 PUSH1 0x20 DUP3 ADD SWAP1 POP PUSH2 0x476A PUSH1 0x0 DUP4 ADD DUP5 PUSH2 0x4746 JUMP JUMPDEST SWAP3 SWAP2 POP POP JUMP JUMPDEST PUSH1 0x0 DUP2 SWAP1 POP SWAP2 SWAP1 POP JUMP JUMPDEST PUSH1 0x0 PUSH2 0x4795 PUSH2 0x4790 PUSH2 0x478B DUP5 PUSH2 0x4551 JUMP JUMPDEST PUSH2 0x4770 JUMP JUMPDEST PUSH2 0x4551 JUMP JUMPDEST SWAP1 POP SWAP2 SWAP1 POP JUMP JUMPDEST PUSH1 0x0 PUSH2 0x47A7 DUP3 PUSH2 0x477A JUMP JUMPDEST SWAP1 POP SWAP2 SWAP1 POP JUMP JUMPDEST PUSH1 0x0 PUSH2 0x47B9 DUP3 PUSH2 0x479C JUMP JUMPDEST SWAP1 POP SWAP2 SWAP1 POP JUMP JUMPDEST PUSH2 0x47C9 DUP2 PUSH2 0x47AE JUMP JUMPDEST DUP3 MSTORE POP POP JUMP JUMPDEST PUSH1 0x0 PUSH1 0x20 DUP3 ADD SWAP1 POP PUSH2 0x47E4 PUSH1 0x0 DUP4 ADD DUP5 PUSH2 0x47C0 JUMP JUMPDEST SWAP3 SWAP2 POP POP JUMP JUMPDEST PUSH1 0x0 PUSH2 0xFFFF DUP3 AND SWAP1 POP SWAP2 SWAP1 POP JUMP JUMPDEST PUSH2 0x4801 DUP2 PUSH2 0x47EA JUMP JUMPDEST DUP2 EQ PUSH2 0x480C JUMPI PUSH1 0x0 DUP1 REVERT JUMPDEST POP JUMP JUMPDEST PUSH1 0x0 DUP2 CALLDATALOAD SWAP1 POP PUSH2 0x481E DUP2 PUSH2 0x47F8 JUMP JUMPDEST SWAP3 SWAP2 POP POP JUMP JUMPDEST PUSH1 0x0 DUP1 PUSH1 0x40 DUP4 DUP6 SUB SLT ISZERO PUSH2 0x483B JUMPI PUSH2 0x483A PUSH2 0x4547 JUMP JUMPDEST JUMPDEST PUSH1 0x0 PUSH2 0x4849 DUP6 DUP3 DUP7 ADD PUSH2 0x459A JUMP JUMPDEST SWAP3 POP POP PUSH1 0x20 PUSH2 0x485A DUP6 DUP3 DUP7 ADD PUSH2 0x480F JUMP JUMPDEST SWAP2 POP POP SWAP3 POP SWAP3 SWAP1 POP JUMP JUMPDEST PUSH1 0x0 PUSH3 0xFFFFFF DUP3 AND SWAP1 POP SWAP2 SWAP1 POP JUMP JUMPDEST PUSH2 0x487C DUP2 PUSH2 0x4864 JUMP JUMPDEST DUP2 EQ PUSH2 0x4887 JUMPI PUSH1 0x0 DUP1 REVERT JUMPDEST POP JUMP JUMPDEST PUSH1 0x0 DUP2 CALLDATALOAD SWAP1 POP PUSH2 0x4899 DUP2 PUSH2 0x4873 JUMP JUMPDEST SWAP3 SWAP2 POP POP JUMP JUMPDEST PUSH1 0x0 PUSH1 0x20 DUP3 DUP5 SUB SLT ISZERO PUSH2 0x48B5 JUMPI PUSH2 0x48B4 PUSH2 0x4547 JUMP JUMPDEST JUMPDEST PUSH1 0x0 PUSH2 0x48C3 DUP5 DUP3 DUP6 ADD PUSH2 0x488A JUMP JUMPDEST SWAP2 POP POP SWAP3 SWAP2 POP POP JUMP JUMPDEST PUSH1 0x0 PUSH1 0x20 DUP3 DUP5 SUB SLT ISZERO PUSH2 0x48E2 JUMPI PUSH2 0x48E1 PUSH2 0x4547 JUMP JUMPDEST JUMPDEST PUSH1 0x0 PUSH2 0x48F0 DUP5 DUP3 DUP6 ADD PUSH2 0x45D0 JUMP JUMPDEST SWAP2 POP POP SWAP3 SWAP2 POP POP JUMP JUMPDEST PUSH2 0x4902 DUP2 PUSH2 0x47EA JUMP JUMPDEST DUP3 MSTORE POP POP JUMP JUMPDEST PUSH1 0x0 PUSH8 0xFFFFFFFFFFFFFFFF DUP3 AND SWAP1 POP SWAP2 SWAP1 POP JUMP JUMPDEST PUSH2 0x4925 DUP2 PUSH2 0x4908 JUMP JUMPDEST DUP3 MSTORE POP POP JUMP JUMPDEST PUSH1 0x0 PUSH10 0xFFFFFFFFFFFFFFFFFFFF DUP3 AND SWAP1 POP SWAP2 SWAP1 POP JUMP JUMPDEST PUSH2 0x494A DUP2 PUSH2 0x492B JUMP JUMPDEST DUP3 MSTORE POP POP JUMP JUMPDEST PUSH1 0x0 PUSH12 0xFFFFFFFFFFFFFFFFFFFFFFFF DUP3 AND SWAP1 POP SWAP2 SWAP1 POP JUMP JUMPDEST PUSH2 0x4971 DUP2 PUSH2 0x4950 JUMP JUMPDEST DUP3 MSTORE POP POP JUMP JUMPDEST PUSH2 0x4980 DUP2 PUSH2 0x4571 JUMP JUMPDEST DUP3 MSTORE POP POP JUMP JUMPDEST PUSH1 0xA0 DUP3 ADD PUSH1 0x0 DUP3 ADD MLOAD PUSH2 0x499C PUSH1 0x0 DUP6 ADD DUP3 PUSH2 0x48F9 JUMP JUMPDEST POP PUSH1 0x20 DUP3 ADD MLOAD PUSH2 0x49AF PUSH1 0x20 DUP6 ADD DUP3 PUSH2 0x491C JUMP JUMPDEST POP PUSH1 0x40 DUP3 ADD MLOAD PUSH2 0x49C2 PUSH1 0x40 DUP6 ADD DUP3 PUSH2 0x4941 JUMP JUMPDEST POP PUSH1 0x60 DUP3 ADD MLOAD PUSH2 0x49D5 PUSH1 0x60 DUP6 ADD DUP3 PUSH2 0x4968 JUMP JUMPDEST POP PUSH1 0x80 DUP3 ADD MLOAD PUSH2 0x49E8 PUSH1 0x80 DUP6 ADD DUP3 PUSH2 0x4977 JUMP JUMPDEST POP POP POP POP JUMP JUMPDEST PUSH1 0x0 PUSH1 0xA0 DUP3 ADD SWAP1 POP PUSH2 0x4A03 PUSH1 0x0 DUP4 ADD DUP5 PUSH2 0x4986 JUMP JUMPDEST SWAP3 SWAP2 POP POP JUMP JUMPDEST PUSH1 0x0 DUP1 REVERT JUMPDEST PUSH1 0x0 DUP1 REVERT JUMPDEST PUSH32 0x4E487B7100000000000000000000000000000000000000000000000000000000 PUSH1 0x0 MSTORE PUSH1 0x41 PUSH1 0x4 MSTORE PUSH1 0x24 PUSH1 0x0 REVERT JUMPDEST PUSH2 0x4A4B DUP3 PUSH2 0x44D1 JUMP JUMPDEST DUP2 ADD DUP2 DUP2 LT PUSH8 0xFFFFFFFFFFFFFFFF DUP3 GT OR ISZERO PUSH2 0x4A6A JUMPI PUSH2 0x4A69 PUSH2 0x4A13 JUMP JUMPDEST JUMPDEST DUP1 PUSH1 0x40 MSTORE POP POP POP JUMP JUMPDEST PUSH1 0x0 PUSH2 0x4A7D PUSH2 0x453D JUMP JUMPDEST SWAP1 POP PUSH2 0x4A89 DUP3 DUP3 PUSH2 0x4A42 JUMP JUMPDEST SWAP2 SWAP1 POP JUMP JUMPDEST PUSH1 0x0 PUSH8 0xFFFFFFFFFFFFFFFF DUP3 GT ISZERO PUSH2 0x4AA9 JUMPI PUSH2 0x4AA8 PUSH2 0x4A13 JUMP JUMPDEST JUMPDEST PUSH2 0x4AB2 DUP3 PUSH2 0x44D1 JUMP JUMPDEST SWAP1 POP PUSH1 0x20 DUP2 ADD SWAP1 POP SWAP2 SWAP1 POP JUMP JUMPDEST DUP3 DUP2 DUP4 CALLDATACOPY PUSH1 0x0 DUP4 DUP4 ADD MSTORE POP POP POP JUMP JUMPDEST PUSH1 0x0 PUSH2 0x4AE1 PUSH2 0x4ADC DUP5 PUSH2 0x4A8E JUMP JUMPDEST PUSH2 0x4A73 JUMP JUMPDEST SWAP1 POP DUP3 DUP2 MSTORE PUSH1 0x20 DUP2 ADD DUP5 DUP5 DUP5 ADD GT ISZERO PUSH2 0x4AFD JUMPI PUSH2 0x4AFC PUSH2 0x4A0E JUMP JUMPDEST JUMPDEST PUSH2 0x4B08 DUP5 DUP3 DUP6 PUSH2 0x4ABF JUMP JUMPDEST POP SWAP4 SWAP3 POP POP POP JUMP JUMPDEST PUSH1 0x0 DUP3 PUSH1 0x1F DUP4 ADD SLT PUSH2 0x4B25 JUMPI PUSH2 0x4B24 PUSH2 0x4A09 JUMP JUMPDEST JUMPDEST DUP2 CALLDATALOAD PUSH2 0x4B35 DUP5 DUP3 PUSH1 0x20 DUP7 ADD PUSH2 0x4ACE JUMP JUMPDEST SWAP2 POP POP SWAP3 SWAP2 POP POP JUMP JUMPDEST PUSH1 0x0 PUSH1 0x20 DUP3 DUP5 SUB SLT ISZERO PUSH2 0x4B54 JUMPI PUSH2 0x4B53 PUSH2 0x4547 JUMP JUMPDEST JUMPDEST PUSH1 0x0 DUP3 ADD CALLDATALOAD PUSH8 0xFFFFFFFFFFFFFFFF DUP2 GT ISZERO PUSH2 0x4B72 JUMPI PUSH2 0x4B71 PUSH2 0x454C JUMP JUMPDEST JUMPDEST PUSH2 0x4B7E DUP5 DUP3 DUP6 ADD PUSH2 0x4B10 JUMP JUMPDEST SWAP2 POP POP SWAP3 SWAP2 POP POP JUMP JUMPDEST PUSH1 0x0 PUSH1 0x20 DUP3 DUP5 SUB SLT ISZERO PUSH2 0x4B9D JUMPI PUSH2 0x4B9C PUSH2 0x4547 JUMP JUMPDEST JUMPDEST PUSH1 0x0 PUSH2 0x4BAB DUP5 DUP3 DUP6 ADD PUSH2 0x480F JUMP JUMPDEST SWAP2 POP POP SWAP3 SWAP2 POP POP JUMP JUMPDEST PUSH2 0x4BBD DUP2 PUSH2 0x492B JUMP JUMPDEST DUP2 EQ PUSH2 0x4BC8 JUMPI PUSH1 0x0 DUP1 REVERT JUMPDEST POP JUMP JUMPDEST PUSH1 0x0 DUP2 CALLDATALOAD SWAP1 POP PUSH2 0x4BDA DUP2 PUSH2 0x4BB4 JUMP JUMPDEST SWAP3 SWAP2 POP POP JUMP JUMPDEST PUSH1 0x0 PUSH1 0x20 DUP3 DUP5 SUB SLT ISZERO PUSH2 0x4BF6 JUMPI PUSH2 0x4BF5 PUSH2 0x4547 JUMP JUMPDEST JUMPDEST PUSH1 0x0 PUSH2 0x4C04 DUP5 DUP3 DUP6 ADD PUSH2 0x4BCB JUMP JUMPDEST SWAP2 POP POP SWAP3 SWAP2 POP POP JUMP JUMPDEST PUSH2 0x4C16 DUP2 PUSH2 0x47EA JUMP JUMPDEST DUP3 MSTORE POP POP JUMP JUMPDEST PUSH1 0x0 PUSH1 0x60 DUP3 ADD SWAP1 POP PUSH2 0x4C31 PUSH1 0x0 DUP4 ADD DUP7 PUSH2 0x4C0D JUMP JUMPDEST PUSH2 0x4C3E PUSH1 0x20 DUP4 ADD DUP6 PUSH2 0x4C0D JUMP JUMPDEST PUSH2 0x4C4B PUSH1 0x40 DUP4 ADD DUP5 PUSH2 0x4C0D JUMP JUMPDEST SWAP5 SWAP4 POP POP POP POP JUMP JUMPDEST PUSH1 0x0 PUSH32 0xFF00000000000000000000000000000000000000000000000000000000000000 DUP3 AND SWAP1 POP SWAP2 SWAP1 POP JUMP JUMPDEST PUSH2 0x4C88 DUP2 PUSH2 0x4C53 JUMP JUMPDEST DUP3 MSTORE POP POP JUMP JUMPDEST PUSH2 0x4C97 DUP2 PUSH2 0x4571 JUMP JUMPDEST DUP3 MSTORE POP POP JUMP JUMPDEST PUSH1 0x0 DUP2 MLOAD SWAP1 POP SWAP2 SWAP1 POP JUMP JUMPDEST PUSH1 0x0 DUP3 DUP3 MSTORE PUSH1 0x20 DUP3 ADD SWAP1 POP SWAP3 SWAP2 POP POP JUMP JUMPDEST PUSH1 0x0 DUP2 SWAP1 POP PUSH1 0x20 DUP3 ADD SWAP1 POP SWAP2 SWAP1 POP JUMP JUMPDEST PUSH2 0x4CD2 DUP2 PUSH2 0x45AF JUMP JUMPDEST DUP3 MSTORE POP POP JUMP JUMPDEST PUSH1 0x0 PUSH2 0x4CE4 DUP4 DUP4 PUSH2 0x4CC9 JUMP JUMPDEST PUSH1 0x20 DUP4 ADD SWAP1 POP SWAP3 SWAP2 POP POP JUMP JUMPDEST PUSH1 0x0 PUSH1 0x20 DUP3 ADD SWAP1 POP SWAP2 SWAP1 POP JUMP JUMPDEST PUSH1 0x0 PUSH2 0x4D08 DUP3 PUSH2 0x4C9D JUMP JUMPDEST PUSH2 0x4D12 DUP2 DUP6 PUSH2 0x4CA8 JUMP JUMPDEST SWAP4 POP PUSH2 0x4D1D DUP4 PUSH2 0x4CB9 JUMP JUMPDEST DUP1 PUSH1 0x0 JUMPDEST DUP4 DUP2 LT ISZERO PUSH2 0x4D4E JUMPI DUP2 MLOAD PUSH2 0x4D35 DUP9 DUP3 PUSH2 0x4CD8 JUMP JUMPDEST SWAP8 POP PUSH2 0x4D40 DUP4 PUSH2 0x4CF0 JUMP JUMPDEST SWAP3 POP POP PUSH1 0x1 DUP2 ADD SWAP1 POP PUSH2 0x4D21 JUMP JUMPDEST POP DUP6 SWAP4 POP POP POP POP SWAP3 SWAP2 POP POP JUMP JUMPDEST PUSH1 0x0 PUSH1 0xE0 DUP3 ADD SWAP1 POP PUSH2 0x4D70 PUSH1 0x0 DUP4 ADD DUP11 PUSH2 0x4C7F JUMP JUMPDEST DUP2 DUP2 SUB PUSH1 0x20 DUP4 ADD MSTORE PUSH2 0x4D82 DUP2 DUP10 PUSH2 0x44E2 JUMP JUMPDEST SWAP1 POP DUP2 DUP2 SUB PUSH1 0x40 DUP4 ADD MSTORE PUSH2 0x4D96 DUP2 DUP9 PUSH2 0x44E2 JUMP JUMPDEST SWAP1 POP PUSH2 0x4DA5 PUSH1 0x60 DUP4 ADD DUP8 PUSH2 0x4688 JUMP JUMPDEST PUSH2 0x4DB2 PUSH1 0x80 DUP4 ADD DUP7 PUSH2 0x4C8E JUMP JUMPDEST PUSH2 0x4DBF PUSH1 0xA0 DUP4 ADD DUP6 PUSH2 0x470F JUMP JUMPDEST DUP2 DUP2 SUB PUSH1 0xC0 DUP4 ADD MSTORE PUSH2 0x4DD1 DUP2 DUP5 PUSH2 0x4CFD JUMP JUMPDEST SWAP1 POP SWAP9 SWAP8 POP POP POP POP POP POP POP POP JUMP JUMPDEST PUSH1 0x0 PUSH1 0x20 DUP3 ADD SWAP1 POP PUSH2 0x4DF4 PUSH1 0x0 DUP4 ADD DUP5 PUSH2 0x4C8E JUMP JUMPDEST SWAP3 SWAP2 POP POP JUMP JUMPDEST PUSH1 0x0 PUSH6 0xFFFFFFFFFFFF DUP3 AND SWAP1 POP SWAP2 SWAP1 POP JUMP JUMPDEST PUSH2 0x4E15 DUP2 PUSH2 0x4DFA JUMP JUMPDEST DUP2 EQ PUSH2 0x4E20 JUMPI PUSH1 0x0 DUP1 REVERT JUMPDEST POP JUMP JUMPDEST PUSH1 0x0 DUP2 CALLDATALOAD SWAP1 POP PUSH2 0x4E32 DUP2 PUSH2 0x4E0C JUMP JUMPDEST SWAP3 SWAP2 POP POP JUMP JUMPDEST PUSH1 0x0 PUSH1 0x20 DUP3 DUP5 SUB SLT ISZERO PUSH2 0x4E4E JUMPI PUSH2 0x4E4D PUSH2 0x4547 JUMP JUMPDEST JUMPDEST PUSH1 0x0 PUSH2 0x4E5C DUP5 DUP3 DUP6 ADD PUSH2 0x4E23 JUMP JUMPDEST SWAP2 POP POP SWAP3 SWAP2 POP POP JUMP JUMPDEST PUSH2 0x4E6E DUP2 PUSH2 0x4739 JUMP JUMPDEST DUP2 EQ PUSH2 0x4E79 JUMPI PUSH1 0x0 DUP1 REVERT JUMPDEST POP JUMP JUMPDEST PUSH1 0x0 DUP2 CALLDATALOAD SWAP1 POP PUSH2 0x4E8B DUP2 PUSH2 0x4E65 JUMP JUMPDEST SWAP3 SWAP2 POP POP JUMP JUMPDEST PUSH2 0x4E9A DUP2 PUSH2 0x4705 JUMP JUMPDEST DUP2 EQ PUSH2 0x4EA5 JUMPI PUSH1 0x0 DUP1 REVERT JUMPDEST POP JUMP JUMPDEST PUSH1 0x0 DUP2 CALLDATALOAD SWAP1 POP PUSH2 0x4EB7 DUP2 PUSH2 0x4E91 JUMP JUMPDEST SWAP3 SWAP2 POP POP JUMP JUMPDEST PUSH1 0x0 DUP1 PUSH1 0x0 DUP1 PUSH1 0x0 DUP1 PUSH1 0x0 PUSH1 0xE0 DUP9 DUP11 SUB SLT ISZERO PUSH2 0x4EDC JUMPI PUSH2 0x4EDB PUSH2 0x4547 JUMP JUMPDEST JUMPDEST PUSH1 0x0 PUSH2 0x4EEA DUP11 DUP3 DUP12 ADD PUSH2 0x459A JUMP JUMPDEST SWAP8 POP POP PUSH1 0x20 PUSH2 0x4EFB DUP11 DUP3 DUP12 ADD PUSH2 0x459A JUMP JUMPDEST SWAP7 POP POP PUSH1 0x40 PUSH2 0x4F0C DUP11 DUP3 DUP12 ADD PUSH2 0x45D0 JUMP JUMPDEST SWAP6 POP POP PUSH1 0x60 PUSH2 0x4F1D DUP11 DUP3 DUP12 ADD PUSH2 0x45D0 JUMP JUMPDEST SWAP5 POP POP PUSH1 0x80 PUSH2 0x4F2E DUP11 DUP3 DUP12 ADD PUSH2 0x4E7C JUMP JUMPDEST SWAP4 POP POP PUSH1 0xA0 PUSH2 0x4F3F DUP11 DUP3 DUP12 ADD PUSH2 0x4EA8 JUMP JUMPDEST SWAP3 POP POP PUSH1 0xC0 PUSH2 0x4F50 DUP11 DUP3 DUP12 ADD PUSH2 0x4EA8 JUMP JUMPDEST SWAP2 POP POP SWAP3 SWAP6 SWAP9 SWAP2 SWAP5 SWAP8 POP SWAP3 SWAP6 POP JUMP JUMPDEST PUSH1 0x0 DUP1 PUSH1 0x40 DUP4 DUP6 SUB SLT ISZERO PUSH2 0x4F76 JUMPI PUSH2 0x4F75 PUSH2 0x4547 JUMP JUMPDEST JUMPDEST PUSH1 0x0 PUSH2 0x4F84 DUP6 DUP3 DUP7 ADD PUSH2 0x459A JUMP JUMPDEST SWAP3 POP POP PUSH1 0x20 PUSH2 0x4F95 DUP6 DUP3 DUP7 ADD PUSH2 0x459A JUMP JUMPDEST SWAP2 POP POP SWAP3 POP SWAP3 SWAP1 POP JUMP JUMPDEST PUSH1 0x0 PUSH2 0x4FAA DUP3 PUSH2 0x4571 JUMP JUMPDEST SWAP1 POP SWAP2 SWAP1 POP JUMP JUMPDEST PUSH2 0x4FBA DUP2 PUSH2 0x4F9F JUMP JUMPDEST DUP2 EQ PUSH2 0x4FC5 JUMPI PUSH1 0x0 DUP1 REVERT JUMPDEST POP JUMP JUMPDEST PUSH1 0x0 DUP2 CALLDATALOAD SWAP1 POP PUSH2 0x4FD7 DUP2 PUSH2 0x4FB1 JUMP JUMPDEST SWAP3 SWAP2 POP POP JUMP JUMPDEST PUSH1 0x0 PUSH1 0x20 DUP3 DUP5 SUB SLT ISZERO PUSH2 0x4FF3 JUMPI PUSH2 0x4FF2 PUSH2 0x4547 JUMP JUMPDEST JUMPDEST PUSH1 0x0 PUSH2 0x5001 DUP5 DUP3 DUP6 ADD PUSH2 0x4FC8 JUMP JUMPDEST SWAP2 POP POP SWAP3 SWAP2 POP POP JUMP JUMPDEST PUSH32 0x4E487B7100000000000000000000000000000000000000000000000000000000 PUSH1 0x0 MSTORE PUSH1 0x11 PUSH1 0x4 MSTORE PUSH1 0x24 PUSH1 0x0 REVERT JUMPDEST PUSH1 0x0 PUSH2 0x5044 DUP3 PUSH2 0x45AF JUMP JUMPDEST SWAP2 POP PUSH2 0x504F DUP4 PUSH2 0x45AF JUMP JUMPDEST SWAP3 POP DUP3 DUP3 ADD SWAP1 POP DUP1 DUP3 GT ISZERO PUSH2 0x5067 JUMPI PUSH2 0x5066 PUSH2 0x500A JUMP JUMPDEST JUMPDEST SWAP3 SWAP2 POP POP JUMP JUMPDEST PUSH1 0x0 PUSH2 0x5078 DUP3 PUSH2 0x492B JUMP JUMPDEST SWAP2 POP PUSH10 0xFFFFFFFFFFFFFFFFFFFF DUP3 SUB PUSH2 0x5094 JUMPI PUSH2 0x5093 PUSH2 0x500A JUMP JUMPDEST JUMPDEST PUSH1 0x1 DUP3 ADD SWAP1 POP SWAP2 SWAP1 POP JUMP JUMPDEST PUSH32 0x4E487B7100000000000000000000000000000000000000000000000000000000 PUSH1 0x0 MSTORE PUSH1 0x32 PUSH1 0x4 MSTORE PUSH1 0x24 PUSH1 0x0 REVERT JUMPDEST PUSH1 0x0 DUP2 SWAP1 POP SWAP3 SWAP2 POP POP JUMP JUMPDEST POP JUMP JUMPDEST PUSH1 0x0 PUSH2 0x50E9 PUSH1 0x0 DUP4 PUSH2 0x50CE JUMP JUMPDEST SWAP2 POP PUSH2 0x50F4 DUP3 PUSH2 0x50D9 JUMP JUMPDEST PUSH1 0x0 DUP3 ADD SWAP1 POP SWAP2 SWAP1 POP JUMP JUMPDEST PUSH1 0x0 PUSH2 0x510A DUP3 PUSH2 0x50DC JUMP JUMPDEST SWAP2 POP DUP2 SWAP1 POP SWAP2 SWAP1 POP JUMP JUMPDEST PUSH32 0x5478206661696C65640000000000000000000000000000000000000000000000 PUSH1 0x0 DUP3 ADD MSTORE POP JUMP JUMPDEST PUSH1 0x0 PUSH2 0x514A PUSH1 0x9 DUP4 PUSH2 0x4496 JUMP JUMPDEST SWAP2 POP PUSH2 0x5155 DUP3 PUSH2 0x5114 JUMP JUMPDEST PUSH1 0x20 DUP3 ADD SWAP1 POP SWAP2 SWAP1 POP JUMP JUMPDEST PUSH1 0x0 PUSH1 0x20 DUP3 ADD SWAP1 POP DUP2 DUP2 SUB PUSH1 0x0 DUP4 ADD MSTORE PUSH2 0x5179 DUP2 PUSH2 0x513D JUMP JUMPDEST SWAP1 POP SWAP2 SWAP1 POP JUMP JUMPDEST PUSH1 0x0 DUP2 MLOAD SWAP1 POP PUSH2 0x518F DUP2 PUSH2 0x4583 JUMP JUMPDEST SWAP3 SWAP2 POP POP JUMP JUMPDEST PUSH1 0x0 PUSH1 0x20 DUP3 DUP5 SUB SLT ISZERO PUSH2 0x51AB JUMPI PUSH2 0x51AA PUSH2 0x4547 JUMP JUMPDEST JUMPDEST PUSH1 0x0 PUSH2 0x51B9 DUP5 DUP3 DUP6 ADD PUSH2 0x5180 JUMP JUMPDEST SWAP2 POP POP SWAP3 SWAP2 POP POP JUMP JUMPDEST PUSH1 0x0 PUSH1 0x40 DUP3 ADD SWAP1 POP PUSH2 0x51D7 PUSH1 0x0 DUP4 ADD DUP6 PUSH2 0x4C8E JUMP JUMPDEST PUSH2 0x51E4 PUSH1 0x20 DUP4 ADD DUP5 PUSH2 0x4C8E JUMP JUMPDEST SWAP4 SWAP3 POP POP POP JUMP JUMPDEST PUSH1 0x0 PUSH1 0x60 DUP3 ADD SWAP1 POP PUSH2 0x5200 PUSH1 0x0 DUP4 ADD DUP7 PUSH2 0x4C8E JUMP JUMPDEST PUSH2 0x520D PUSH1 0x20 DUP4 ADD DUP6 PUSH2 0x4688 JUMP JUMPDEST PUSH2 0x521A PUSH1 0x40 DUP4 ADD DUP5 PUSH2 0x4688 JUMP JUMPDEST SWAP5 SWAP4 POP POP POP POP JUMP JUMPDEST PUSH1 0x0 PUSH1 0xC0 DUP3 ADD SWAP1 POP PUSH2 0x5237 PUSH1 0x0 DUP4 ADD DUP10 PUSH2 0x470F JUMP JUMPDEST PUSH2 0x5244 PUSH1 0x20 DUP4 ADD DUP9 PUSH2 0x4C8E JUMP JUMPDEST PUSH2 0x5251 PUSH1 0x40 DUP4 ADD DUP8 PUSH2 0x4C8E JUMP JUMPDEST PUSH2 0x525E PUSH1 0x60 DUP4 ADD DUP7 PUSH2 0x4688 JUMP JUMPDEST PUSH2 0x526B PUSH1 0x80 DUP4 ADD DUP6 PUSH2 0x4688 JUMP JUMPDEST PUSH2 0x5278 PUSH1 0xA0 DUP4 ADD DUP5 PUSH2 0x4688 JUMP JUMPDEST SWAP8 SWAP7 POP POP POP POP POP POP POP JUMP JUMPDEST PUSH1 0x0 PUSH1 0x80 DUP3 ADD SWAP1 POP PUSH2 0x5298 PUSH1 0x0 DUP4 ADD DUP8 PUSH2 0x470F JUMP JUMPDEST PUSH2 0x52A5 PUSH1 0x20 DUP4 ADD DUP7 PUSH2 0x4746 JUMP JUMPDEST PUSH2 0x52B2 PUSH1 0x40 DUP4 ADD DUP6 PUSH2 0x470F JUMP JUMPDEST PUSH2 0x52BF PUSH1 0x60 DUP4 ADD DUP5 PUSH2 0x470F JUMP JUMPDEST SWAP6 SWAP5 POP POP POP POP POP JUMP JUMPDEST PUSH1 0x0 DUP2 MLOAD SWAP1 POP PUSH2 0x52D7 DUP2 PUSH2 0x45B9 JUMP JUMPDEST SWAP3 SWAP2 POP POP JUMP JUMPDEST PUSH1 0x0 PUSH1 0x20 DUP3 DUP5 SUB SLT ISZERO PUSH2 0x52F3 JUMPI PUSH2 0x52F2 PUSH2 0x4547 JUMP JUMPDEST JUMPDEST PUSH1 0x0 PUSH2 0x5301 DUP5 DUP3 DUP6 ADD PUSH2 0x52C8 JUMP JUMPDEST SWAP2 POP POP SWAP3 SWAP2 POP POP JUMP JUMPDEST PUSH1 0x0 PUSH1 0x40 DUP3 ADD SWAP1 POP PUSH2 0x531F PUSH1 0x0 DUP4 ADD DUP6 PUSH2 0x4C8E JUMP JUMPDEST PUSH2 0x532C PUSH1 0x20 DUP4 ADD DUP5 PUSH2 0x4688 JUMP JUMPDEST SWAP4 SWAP3 POP POP POP JUMP JUMPDEST PUSH2 0x533C DUP2 PUSH2 0x4625 JUMP JUMPDEST DUP2 EQ PUSH2 0x5347 JUMPI PUSH1 0x0 DUP1 REVERT JUMPDEST POP JUMP JUMPDEST PUSH1 0x0 DUP2 MLOAD SWAP1 POP PUSH2 0x5359 DUP2 PUSH2 0x5333 JUMP JUMPDEST SWAP3 SWAP2 POP POP JUMP JUMPDEST PUSH1 0x0 PUSH1 0x20 DUP3 DUP5 SUB SLT ISZERO PUSH2 0x5375 JUMPI PUSH2 0x5374 PUSH2 0x4547 JUMP JUMPDEST JUMPDEST PUSH1 0x0 PUSH2 0x5383 DUP5 DUP3 DUP6 ADD PUSH2 0x534A JUMP JUMPDEST SWAP2 POP POP SWAP3 SWAP2 POP POP JUMP JUMPDEST PUSH1 0x0 PUSH1 0xA0 DUP3 ADD SWAP1 POP PUSH2 0x53A1 PUSH1 0x0 DUP4 ADD DUP9 PUSH2 0x470F JUMP JUMPDEST PUSH2 0x53AE PUSH1 0x20 DUP4 ADD DUP8 PUSH2 0x470F JUMP JUMPDEST PUSH2 0x53BB PUSH1 0x40 DUP4 ADD DUP7 PUSH2 0x470F JUMP JUMPDEST PUSH2 0x53C8 PUSH1 0x60 DUP4 ADD DUP6 PUSH2 0x4688 JUMP JUMPDEST PUSH2 0x53D5 PUSH1 0x80 DUP4 ADD DUP5 PUSH2 0x4C8E JUMP JUMPDEST SWAP7 SWAP6 POP POP POP POP POP POP JUMP JUMPDEST PUSH1 0x0 DUP2 SWAP1 POP SWAP3 SWAP2 POP POP JUMP JUMPDEST PUSH32 0x1901000000000000000000000000000000000000000000000000000000000000 PUSH1 0x0 DUP3 ADD MSTORE POP JUMP JUMPDEST PUSH1 0x0 PUSH2 0x5420 PUSH1 0x2 DUP4 PUSH2 0x53DF JUMP JUMPDEST SWAP2 POP PUSH2 0x542B DUP3 PUSH2 0x53EA JUMP JUMPDEST PUSH1 0x2 DUP3 ADD SWAP1 POP SWAP2 SWAP1 POP JUMP JUMPDEST PUSH1 0x0 DUP2 SWAP1 POP SWAP2 SWAP1 POP JUMP JUMPDEST PUSH2 0x5451 PUSH2 0x544C DUP3 PUSH2 0x4705 JUMP JUMPDEST PUSH2 0x5436 JUMP JUMPDEST DUP3 MSTORE POP POP JUMP JUMPDEST PUSH1 0x0 PUSH2 0x5462 DUP3 PUSH2 0x5413 JUMP JUMPDEST SWAP2 POP PUSH2 0x546E DUP3 DUP6 PUSH2 0x5440 JUMP JUMPDEST PUSH1 0x20 DUP3 ADD SWAP2 POP PUSH2 0x547E DUP3 DUP5 PUSH2 0x5440 JUMP JUMPDEST PUSH1 0x20 DUP3 ADD SWAP2 POP DUP2 SWAP1 POP SWAP4 SWAP3 POP POP POP JUMP JUMPDEST PUSH1 0x0 PUSH2 0x5499 DUP3 PUSH2 0x4950 JUMP JUMPDEST SWAP2 POP PUSH2 0x54A4 DUP4 PUSH2 0x4950 JUMP JUMPDEST SWAP3 POP DUP3 DUP3 MUL PUSH2 0x54B2 DUP2 PUSH2 0x4950 JUMP JUMPDEST SWAP2 POP DUP1 DUP3 EQ PUSH2 0x54C4 JUMPI PUSH2 0x54C3 PUSH2 0x500A JUMP JUMPDEST JUMPDEST POP SWAP3 SWAP2 POP POP JUMP JUMPDEST PUSH32 0x4E487B7100000000000000000000000000000000000000000000000000000000 PUSH1 0x0 MSTORE PUSH1 0x12 PUSH1 0x4 MSTORE PUSH1 0x24 PUSH1 0x0 REVERT JUMPDEST PUSH1 0x0 PUSH2 0x5505 DUP3 PUSH2 0x4950 JUMP JUMPDEST SWAP2 POP PUSH2 0x5510 DUP4 PUSH2 0x4950 JUMP JUMPDEST SWAP3 POP DUP3 PUSH2 0x5520 JUMPI PUSH2 0x551F PUSH2 0x54CB JUMP JUMPDEST JUMPDEST DUP3 DUP3 DIV SWAP1 POP SWAP3 SWAP2 POP POP JUMP JUMPDEST PUSH1 0x0 PUSH2 0x5536 DUP3 PUSH2 0x4950 JUMP JUMPDEST SWAP2 POP PUSH2 0x5541 DUP4 PUSH2 0x4950 JUMP JUMPDEST SWAP3 POP DUP3 DUP3 SUB SWAP1 POP PUSH12 0xFFFFFFFFFFFFFFFFFFFFFFFF DUP2 GT ISZERO PUSH2 0x5565 JUMPI PUSH2 0x5564 PUSH2 0x500A JUMP JUMPDEST JUMPDEST SWAP3 SWAP2 POP POP JUMP JUMPDEST PUSH1 0x0 PUSH2 0x5586 PUSH2 0x5581 PUSH2 0x557C DUP5 PUSH2 0x4950 JUMP JUMPDEST PUSH2 0x4770 JUMP JUMPDEST PUSH2 0x45AF JUMP JUMPDEST SWAP1 POP SWAP2 SWAP1 POP JUMP JUMPDEST PUSH2 0x5596 DUP2 PUSH2 0x556B JUMP JUMPDEST DUP3 MSTORE POP POP JUMP JUMPDEST PUSH1 0x0 PUSH1 0x60 DUP3 ADD SWAP1 POP PUSH2 0x55B1 PUSH1 0x0 DUP4 ADD DUP7 PUSH2 0x4C8E JUMP JUMPDEST PUSH2 0x55BE PUSH1 0x20 DUP4 ADD DUP6 PUSH2 0x558D JUMP JUMPDEST PUSH2 0x55CB PUSH1 0x40 DUP4 ADD DUP5 PUSH2 0x558D JUMP JUMPDEST SWAP5 SWAP4 POP POP POP POP JUMP JUMPDEST PUSH1 0x0 PUSH1 0x20 DUP3 ADD SWAP1 POP PUSH2 0x55E8 PUSH1 0x0 DUP4 ADD DUP5 PUSH2 0x558D JUMP JUMPDEST SWAP3 SWAP2 POP POP JUMP JUMPDEST PUSH1 0x0 DUP2 SWAP1 POP SWAP2 SWAP1 POP JUMP JUMPDEST PUSH1 0x0 PUSH2 0x5613 PUSH2 0x560E PUSH2 0x5609 DUP5 PUSH2 0x55EE JUMP JUMPDEST PUSH2 0x4770 JUMP JUMPDEST PUSH2 0x45AF JUMP JUMPDEST SWAP1 POP SWAP2 SWAP1 POP JUMP JUMPDEST PUSH2 0x5623 DUP2 PUSH2 0x55F8 JUMP JUMPDEST DUP3 MSTORE POP POP JUMP JUMPDEST PUSH1 0x0 DUP2 MLOAD SWAP1 POP SWAP2 SWAP1 POP JUMP JUMPDEST PUSH1 0x0 DUP3 DUP3 MSTORE PUSH1 0x20 DUP3 ADD SWAP1 POP SWAP3 SWAP2 POP POP JUMP JUMPDEST PUSH1 0x0 DUP2 SWAP1 POP PUSH1 0x20 DUP3 ADD SWAP1 POP SWAP2 SWAP1 POP JUMP JUMPDEST PUSH1 0x0 PUSH2 0x5661 DUP4 DUP4 PUSH2 0x4977 JUMP JUMPDEST PUSH1 0x20 DUP4 ADD SWAP1 POP SWAP3 SWAP2 POP POP JUMP JUMPDEST PUSH1 0x0 PUSH1 0x20 DUP3 ADD SWAP1 POP SWAP2 SWAP1 POP JUMP JUMPDEST PUSH1 0x0 PUSH2 0x5685 DUP3 PUSH2 0x5629 JUMP JUMPDEST PUSH2 0x568F DUP2 DUP6 PUSH2 0x5634 JUMP JUMPDEST SWAP4 POP PUSH2 0x569A DUP4 PUSH2 0x5645 JUMP JUMPDEST DUP1 PUSH1 0x0 JUMPDEST DUP4 DUP2 LT ISZERO PUSH2 0x56CB JUMPI DUP2 MLOAD PUSH2 0x56B2 DUP9 DUP3 PUSH2 0x5655 JUMP JUMPDEST SWAP8 POP PUSH2 0x56BD DUP4 PUSH2 0x566D JUMP JUMPDEST SWAP3 POP POP PUSH1 0x1 DUP2 ADD SWAP1 POP PUSH2 0x569E JUMP JUMPDEST POP DUP6 SWAP4 POP POP POP POP SWAP3 SWAP2 POP POP JUMP JUMPDEST PUSH1 0x0 PUSH1 0xA0 DUP3 ADD SWAP1 POP PUSH2 0x56ED PUSH1 0x0 DUP4 ADD DUP9 PUSH2 0x558D JUMP JUMPDEST PUSH2 0x56FA PUSH1 0x20 DUP4 ADD DUP8 PUSH2 0x561A JUMP JUMPDEST DUP2 DUP2 SUB PUSH1 0x40 DUP4 ADD MSTORE PUSH2 0x570C DUP2 DUP7 PUSH2 0x567A JUMP JUMPDEST SWAP1 POP PUSH2 0x571B PUSH1 0x60 DUP4 ADD DUP6 PUSH2 0x4C8E JUMP JUMPDEST PUSH2 0x5728 PUSH1 0x80 DUP4 ADD DUP5 PUSH2 0x4688 JUMP JUMPDEST SWAP7 SWAP6 POP POP POP POP POP POP JUMP JUMPDEST PUSH1 0x0 PUSH8 0xFFFFFFFFFFFFFFFF DUP3 GT ISZERO PUSH2 0x574D JUMPI PUSH2 0x574C PUSH2 0x4A13 JUMP JUMPDEST JUMPDEST PUSH1 0x20 DUP3 MUL SWAP1 POP PUSH1 0x20 DUP2 ADD SWAP1 POP SWAP2 SWAP1 POP JUMP JUMPDEST PUSH1 0x0 DUP1 REVERT JUMPDEST PUSH1 0x0 PUSH2 0x5776 PUSH2 0x5771 DUP5 PUSH2 0x5732 JUMP JUMPDEST PUSH2 0x4A73 JUMP JUMPDEST SWAP1 POP DUP1 DUP4 DUP3 MSTORE PUSH1 0x20 DUP3 ADD SWAP1 POP PUSH1 0x20 DUP5 MUL DUP4 ADD DUP6 DUP2 GT ISZERO PUSH2 0x5799 JUMPI PUSH2 0x5798 PUSH2 0x575E JUMP JUMPDEST JUMPDEST DUP4 JUMPDEST DUP2 DUP2 LT ISZERO PUSH2 0x57C2 JUMPI DUP1 PUSH2 0x57AE DUP9 DUP3 PUSH2 0x52C8 JUMP JUMPDEST DUP5 MSTORE PUSH1 0x20 DUP5 ADD SWAP4 POP POP PUSH1 0x20 DUP2 ADD SWAP1 POP PUSH2 0x579B JUMP JUMPDEST POP POP POP SWAP4 SWAP3 POP POP POP JUMP JUMPDEST PUSH1 0x0 DUP3 PUSH1 0x1F DUP4 ADD SLT PUSH2 0x57E1 JUMPI PUSH2 0x57E0 PUSH2 0x4A09 JUMP JUMPDEST JUMPDEST DUP2 MLOAD PUSH2 0x57F1 DUP5 DUP3 PUSH1 0x20 DUP7 ADD PUSH2 0x5763 JUMP JUMPDEST SWAP2 POP POP SWAP3 SWAP2 POP POP JUMP JUMPDEST PUSH1 0x0 PUSH1 0x20 DUP3 DUP5 SUB SLT ISZERO PUSH2 0x5810 JUMPI PUSH2 0x580F PUSH2 0x4547 JUMP JUMPDEST JUMPDEST PUSH1 0x0 DUP3 ADD MLOAD PUSH8 0xFFFFFFFFFFFFFFFF DUP2 GT ISZERO PUSH2 0x582E JUMPI PUSH2 0x582D PUSH2 0x454C JUMP JUMPDEST JUMPDEST PUSH2 0x583A DUP5 DUP3 DUP6 ADD PUSH2 0x57CC JUMP JUMPDEST SWAP2 POP POP SWAP3 SWAP2 POP POP JUMP JUMPDEST PUSH1 0x0 PUSH1 0xC0 DUP3 ADD SWAP1 POP PUSH2 0x5858 PUSH1 0x0 DUP4 ADD DUP10 PUSH2 0x4C8E JUMP JUMPDEST PUSH2 0x5865 PUSH1 0x20 DUP4 ADD DUP9 PUSH2 0x558D JUMP JUMPDEST PUSH2 0x5872 PUSH1 0x40 DUP4 ADD DUP8 PUSH2 0x561A JUMP JUMPDEST PUSH2 0x587F PUSH1 0x60 DUP4 ADD DUP7 PUSH2 0x561A JUMP JUMPDEST PUSH2 0x588C PUSH1 0x80 DUP4 ADD DUP6 PUSH2 0x4C8E JUMP JUMPDEST PUSH2 0x5899 PUSH1 0xA0 DUP4 ADD DUP5 PUSH2 0x4688 JUMP JUMPDEST SWAP8 SWAP7 POP POP POP POP POP POP POP JUMP JUMPDEST PUSH1 0x0 DUP1 PUSH1 0x0 PUSH1 0x60 DUP5 DUP7 SUB SLT ISZERO PUSH2 0x58BD JUMPI PUSH2 0x58BC PUSH2 0x4547 JUMP JUMPDEST JUMPDEST PUSH1 0x0 PUSH2 0x58CB DUP7 DUP3 DUP8 ADD PUSH2 0x52C8 JUMP JUMPDEST SWAP4 POP POP PUSH1 0x20 PUSH2 0x58DC DUP7 DUP3 DUP8 ADD PUSH2 0x52C8 JUMP JUMPDEST SWAP3 POP POP PUSH1 0x40 PUSH2 0x58ED DUP7 DUP3 DUP8 ADD PUSH2 0x52C8 JUMP JUMPDEST SWAP2 POP POP SWAP3 POP SWAP3 POP SWAP3 JUMP INVALID LOG2 PUSH5 0x6970667358 0x22 SLT KECCAK256 0xE9 JUMP 0x29 SWAP15 DUP15 0x5E 0x27 EXP NOT LT SSTORE EXTCODECOPY 0xCB CALLDATASIZE SHL 0xB1 0xDE 0xC0 0xA9 SWAP7 0xBD DUP9 AND 0x5D PUSH19 0x82B30AFAC9310864736F6C6343000813003300 "
		},
		"gasEstimates": {
			"creation": {
				"codeDepositCost": "4565800",
				"executionCost": "infinite",
				"totalCost": "infinite"
			},
			"external": {
				"DOMAIN_SEPARATOR()": "infinite",
				"PERMIT_TYPEHASH()": "403",
				"ROUTER()": "infinite",
				"_gas(uint24)": "infinite",
				"_identifiers(address,uint16)": "infinite",
				"_ratios(uint48)": "infinite",
				"_recipients(bytes)": "infinite",
				"_shares(uint80)": "infinite",
				"_swapThreshold(uint16)": "infinite",
				"account()": "infinite",
				"account(address)": "infinite",
				"allowance(address,address)": "infinite",
				"approve(address,uint256)": "infinite",
				"balanceOf(address)": "3116",
				"connect(uint256)": "infinite",
				"createPair()": "infinite",
				"decimals()": "infinite",
				"decreaseAllowance(address,uint256)": "infinite",
				"eip712Domain()": "infinite",
				"increaseAllowance(address,uint256)": "infinite",
				"isMarketmaker(address)": "infinite",
				"name()": "infinite",
				"nonces(address)": "3137",
				"owner()": "2744",
				"permit(address,address,uint256,uint256,uint8,bytes32,bytes32)": "infinite",
				"recoverBEP20(address)": "infinite",
				"recoverBNB()": "infinite",
				"renounceOwnership()": "infinite",
				"setAsEntitled(address)": "infinite",
				"setAsMarketmaker(address)": "infinite",
				"symbol()": "infinite",
				"taxes()": "infinite",
				"totalSupply()": "2731",
				"transfer(address,uint256)": "infinite",
				"transferFrom(address,address,uint256)": "infinite",
				"transferOwnership(address)": "infinite"
			},
			"internal": {
				"_checkOwner()": "infinite",
				"_transferOwnership(address)": "28089"
			}
		},
		"methodIdentifiers": {
			"DOMAIN_SEPARATOR()": "3644e515",
			"PERMIT_TYPEHASH()": "30adf81f",
			"ROUTER()": "32fe7b26",
			"_gas(uint24)": "4c2babef",
			"_identifiers(address,uint16)": "4a97c9c0",
			"_ratios(uint48)": "c3342e56",
			"_recipients(bytes)": "6cb07772",
			"_shares(uint80)": "6e2ad758",
			"_swapThreshold(uint16)": "6d84249b",
			"account()": "5dab2420",
			"account(address)": "73b9aa91",
			"allowance(address,address)": "dd62ed3e",
			"approve(address,uint256)": "095ea7b3",
			"balanceOf(address)": "70a08231",
			"connect(uint256)": "573fb1ba",
			"createPair()": "9e78fb4f",
			"decimals()": "313ce567",
			"decreaseAllowance(address,uint256)": "a457c2d7",
			"eip712Domain()": "84b0196e",
			"increaseAllowance(address,uint256)": "39509351",
			"isMarketmaker(address)": "60593100",
			"name()": "06fdde03",
			"nonces(address)": "7ecebe00",
			"owner()": "8da5cb5b",
			"permit(address,address,uint256,uint256,uint8,bytes32,bytes32)": "d505accf",
			"recoverBEP20(address)": "ea755812",
			"recoverBNB()": "6bfdf8a0",
			"renounceOwnership()": "715018a6",
			"setAsEntitled(address)": "7c03b9b4",
			"setAsMarketmaker(address)": "17f4b70c",
			"symbol()": "95d89b41",
			"taxes()": "728f8eea",
			"totalSupply()": "18160ddd",
			"transfer(address,uint256)": "a9059cbb",
			"transferFrom(address,address,uint256)": "23b872dd",
			"transferOwnership(address)": "f2fde38b"
		}
	},
	"abi": [
		{
			"inputs": [
				{
					"internalType": "address",
					"name": "initialFeeCollector",
					"type": "address"
				}
			],
			"stateMutability": "nonpayable",
			"type": "constructor"
		},
		{
			"inputs": [
				{
					"internalType": "address",
					"name": "spender",
					"type": "address"
				},
				{
					"internalType": "uint256",
					"name": "currentAllowance",
					"type": "uint256"
				},
				{
					"internalType": "uint256",
					"name": "requestedDecrease",
					"type": "uint256"
				}
			],
			"name": "FailedDecreaseAllowance",
			"type": "error"
		},
		{
			"inputs": [
				{
					"internalType": "address",
					"name": "spender",
					"type": "address"
				},
				{
					"internalType": "uint256",
					"name": "allowance",
					"type": "uint256"
				},
				{
					"internalType": "uint256",
					"name": "needed",
					"type": "uint256"
				}
			],
			"name": "InsufficientAllowance",
			"type": "error"
		},
		{
			"inputs": [
				{
					"internalType": "address",
					"name": "sender",
					"type": "address"
				},
				{
					"internalType": "uint256",
					"name": "balance",
					"type": "uint256"
				},
				{
					"internalType": "uint256",
					"name": "needed",
					"type": "uint256"
				}
			],
			"name": "InsufficientBalance",
			"type": "error"
		},
		{
			"inputs": [
				{
					"internalType": "address",
					"name": "receiver",
					"type": "address"
				}
			],
			"name": "InvalidReceiver",
			"type": "error"
		},
		{
			"inputs": [
				{
					"internalType": "address",
					"name": "sender",
					"type": "address"
				}
			],
			"name": "InvalidSender",
			"type": "error"
		},
		{
			"inputs": [],
			"name": "InvalidSigner",
			"type": "error"
		},
		{
			"inputs": [
				{
					"internalType": "address",
					"name": "owner",
					"type": "address"
				}
			],
			"name": "OwnableInvalidOwner",
			"type": "error"
		},
		{
			"inputs": [
				{
					"internalType": "address",
					"name": "account",
					"type": "address"
				}
			],
			"name": "OwnableUnauthorizedAccount",
			"type": "error"
		},
		{
			"inputs": [],
			"name": "PermitExpired",
			"type": "error"
		},
		{
			"anonymous": false,
			"inputs": [
				{
					"indexed": true,
					"internalType": "address",
					"name": "owner",
					"type": "address"
				},
				{
					"indexed": true,
					"internalType": "address",
					"name": "spender",
					"type": "address"
				},
				{
					"indexed": false,
					"internalType": "uint256",
					"name": "amount",
					"type": "uint256"
				}
			],
			"name": "Approval",
			"type": "event"
		},
		{
			"anonymous": false,
			"inputs": [
				{
					"indexed": true,
					"internalType": "address",
					"name": "Address",
					"type": "address"
				},
				{
					"indexed": true,
					"internalType": "uint256",
					"name": "PID",
					"type": "uint256"
				},
				{
					"indexed": true,
					"internalType": "uint256",
					"name": "CID",
					"type": "uint256"
				}
			],
			"name": "Connected",
			"type": "event"
		},
		{
			"anonymous": false,
			"inputs": [],
			"name": "EIP712DomainChanged",
			"type": "event"
		},
		{
			"anonymous": false,
			"inputs": [
				{
					"indexed": true,
					"internalType": "address",
					"name": "previousOwner",
					"type": "address"
				},
				{
					"indexed": true,
					"internalType": "address",
					"name": "newOwner",
					"type": "address"
				}
			],
			"name": "OwnershipTransferred",
			"type": "event"
		},
		{
			"anonymous": false,
			"inputs": [
				{
					"indexed": true,
					"internalType": "address",
					"name": "from",
					"type": "address"
				},
				{
					"indexed": true,
					"internalType": "address",
					"name": "to",
					"type": "address"
				},
				{
					"indexed": false,
					"internalType": "uint256",
					"name": "amount",
					"type": "uint256"
				}
			],
			"name": "Transfer",
			"type": "event"
		},
		{
			"inputs": [],
			"name": "DOMAIN_SEPARATOR",
			"outputs": [
				{
					"internalType": "bytes32",
					"name": "",
					"type": "bytes32"
				}
			],
			"stateMutability": "view",
			"type": "function"
		},
		{
			"inputs": [],
			"name": "PERMIT_TYPEHASH",
			"outputs": [
				{
					"internalType": "bytes32",
					"name": "",
					"type": "bytes32"
				}
			],
			"stateMutability": "view",
			"type": "function"
		},
		{
			"inputs": [],
			"name": "ROUTER",
			"outputs": [
				{
					"internalType": "contract ISwapRouterV2",
					"name": "",
					"type": "address"
				}
			],
			"stateMutability": "view",
			"type": "function"
		},
		{
			"inputs": [
				{
					"internalType": "uint24",
					"name": "value",
					"type": "uint24"
				}
			],
			"name": "_gas",
			"outputs": [
				{
					"internalType": "bool",
					"name": "",
					"type": "bool"
				}
			],
			"stateMutability": "nonpayable",
			"type": "function"
		},
		{
			"inputs": [
				{
					"internalType": "address",
					"name": "Address",
					"type": "address"
				},
				{
					"internalType": "uint16",
					"name": "value",
					"type": "uint16"
				}
			],
			"name": "_identifiers",
			"outputs": [
				{
					"internalType": "bool",
					"name": "",
					"type": "bool"
				}
			],
			"stateMutability": "nonpayable",
			"type": "function"
		},
		{
			"inputs": [
				{
					"internalType": "uint48",
					"name": "value",
					"type": "uint48"
				}
			],
			"name": "_ratios",
			"outputs": [
				{
					"internalType": "bool",
					"name": "",
					"type": "bool"
				}
			],
			"stateMutability": "nonpayable",
			"type": "function"
		},
		{
			"inputs": [
				{
					"internalType": "bytes",
					"name": "value",
					"type": "bytes"
				}
			],
			"name": "_recipients",
			"outputs": [
				{
					"internalType": "bool",
					"name": "",
					"type": "bool"
				}
			],
			"stateMutability": "nonpayable",
			"type": "function"
		},
		{
			"inputs": [
				{
					"internalType": "uint80",
					"name": "value",
					"type": "uint80"
				}
			],
			"name": "_shares",
			"outputs": [
				{
					"internalType": "bool",
					"name": "",
					"type": "bool"
				}
			],
			"stateMutability": "nonpayable",
			"type": "function"
		},
		{
			"inputs": [
				{
					"internalType": "uint16",
					"name": "value",
					"type": "uint16"
				}
			],
			"name": "_swapThreshold",
			"outputs": [
				{
					"internalType": "bool",
					"name": "",
					"type": "bool"
				}
			],
			"stateMutability": "nonpayable",
			"type": "function"
		},
		{
			"inputs": [],
			"name": "account",
			"outputs": [
				{
					"components": [
						{
							"internalType": "uint16",
							"name": "identifiers",
							"type": "uint16"
						},
						{
							"internalType": "uint64",
							"name": "nonces",
							"type": "uint64"
						},
						{
							"internalType": "uint80",
							"name": "PID",
							"type": "uint80"
						},
						{
							"internalType": "uint96",
							"name": "balance",
							"type": "uint96"
						},
						{
							"internalType": "address",
							"name": "Address",
							"type": "address"
						}
					],
					"internalType": "struct Account",
					"name": "",
					"type": "tuple"
				}
			],
			"stateMutability": "view",
			"type": "function"
		},
		{
			"inputs": [
				{
					"internalType": "address",
					"name": "user",
					"type": "address"
				}
			],
			"name": "account",
			"outputs": [
				{
					"components": [
						{
							"internalType": "uint16",
							"name": "identifiers",
							"type": "uint16"
						},
						{
							"internalType": "uint64",
							"name": "nonces",
							"type": "uint64"
						},
						{
							"internalType": "uint80",
							"name": "PID",
							"type": "uint80"
						},
						{
							"internalType": "uint96",
							"name": "balance",
							"type": "uint96"
						},
						{
							"internalType": "address",
							"name": "Address",
							"type": "address"
						}
					],
					"internalType": "struct Account",
					"name": "",
					"type": "tuple"
				}
			],
			"stateMutability": "view",
			"type": "function"
		},
		{
			"inputs": [
				{
					"internalType": "address",
					"name": "owner",
					"type": "address"
				},
				{
					"internalType": "address",
					"name": "spender",
					"type": "address"
				}
			],
			"name": "allowance",
			"outputs": [
				{
					"internalType": "uint256",
					"name": "",
					"type": "uint256"
				}
			],
			"stateMutability": "view",
			"type": "function"
		},
		{
			"inputs": [
				{
					"internalType": "address",
					"name": "spender",
					"type": "address"
				},
				{
					"internalType": "uint256",
					"name": "amount",
					"type": "uint256"
				}
			],
			"name": "approve",
			"outputs": [
				{
					"internalType": "bool",
					"name": "",
					"type": "bool"
				}
			],
			"stateMutability": "nonpayable",
			"type": "function"
		},
		{
			"inputs": [
				{
					"internalType": "address",
					"name": "holder",
					"type": "address"
				}
			],
			"name": "balanceOf",
			"outputs": [
				{
					"internalType": "uint256",
					"name": "",
					"type": "uint256"
				}
			],
			"stateMutability": "view",
			"type": "function"
		},
		{
			"inputs": [
				{
					"internalType": "uint256",
					"name": "id",
					"type": "uint256"
				}
			],
			"name": "connect",
			"outputs": [
				{
					"internalType": "uint256",
					"name": "",
					"type": "uint256"
				}
			],
			"stateMutability": "nonpayable",
			"type": "function"
		},
		{
			"inputs": [],
			"name": "createPair",
			"outputs": [],
			"stateMutability": "nonpayable",
			"type": "function"
		},
		{
			"inputs": [],
			"name": "decimals",
			"outputs": [
				{
					"internalType": "uint8",
					"name": "",
					"type": "uint8"
				}
			],
			"stateMutability": "view",
			"type": "function"
		},
		{
			"inputs": [
				{
					"internalType": "address",
					"name": "spender",
					"type": "address"
				},
				{
					"internalType": "uint256",
					"name": "requestedDecrease",
					"type": "uint256"
				}
			],
			"name": "decreaseAllowance",
			"outputs": [
				{
					"internalType": "bool",
					"name": "",
					"type": "bool"
				}
			],
			"stateMutability": "nonpayable",
			"type": "function"
		},
		{
			"inputs": [],
			"name": "eip712Domain",
			"outputs": [
				{
					"internalType": "bytes1",
					"name": "fields",
					"type": "bytes1"
				},
				{
					"internalType": "string",
					"name": "name",
					"type": "string"
				},
				{
					"internalType": "string",
					"name": "version",
					"type": "string"
				},
				{
					"internalType": "uint256",
					"name": "chainId",
					"type": "uint256"
				},
				{
					"internalType": "address",
					"name": "verifyingContract",
					"type": "address"
				},
				{
					"internalType": "bytes32",
					"name": "salt",
					"type": "bytes32"
				},
				{
					"internalType": "uint256[]",
					"name": "extensions",
					"type": "uint256[]"
				}
			],
			"stateMutability": "view",
			"type": "function"
		},
		{
			"inputs": [
				{
					"internalType": "address",
					"name": "spender",
					"type": "address"
				},
				{
					"internalType": "uint256",
					"name": "addedValue",
					"type": "uint256"
				}
			],
			"name": "increaseAllowance",
			"outputs": [
				{
					"internalType": "bool",
					"name": "",
					"type": "bool"
				}
			],
			"stateMutability": "nonpayable",
			"type": "function"
		},
		{
			"inputs": [
				{
					"internalType": "address",
					"name": "Address",
					"type": "address"
				}
			],
			"name": "isMarketmaker",
			"outputs": [
				{
					"internalType": "bool",
					"name": "",
					"type": "bool"
				}
			],
			"stateMutability": "view",
			"type": "function"
		},
		{
			"inputs": [],
			"name": "name",
			"outputs": [
				{
					"internalType": "string",
					"name": "value",
					"type": "string"
				}
			],
			"stateMutability": "view",
			"type": "function"
		},
		{
			"inputs": [
				{
					"internalType": "address",
					"name": "holder",
					"type": "address"
				}
			],
			"name": "nonces",
			"outputs": [
				{
					"internalType": "uint256",
					"name": "",
					"type": "uint256"
				}
			],
			"stateMutability": "view",
			"type": "function"
		},
		{
			"inputs": [],
			"name": "owner",
			"outputs": [
				{
					"internalType": "address",
					"name": "",
					"type": "address"
				}
			],
			"stateMutability": "view",
			"type": "function"
		},
		{
			"inputs": [
				{
					"internalType": "address",
					"name": "holder",
					"type": "address"
				},
				{
					"internalType": "address",
					"name": "spender",
					"type": "address"
				},
				{
					"internalType": "uint256",
					"name": "value",
					"type": "uint256"
				},
				{
					"internalType": "uint256",
					"name": "deadline",
					"type": "uint256"
				},
				{
					"internalType": "uint8",
					"name": "v",
					"type": "uint8"
				},
				{
					"internalType": "bytes32",
					"name": "r",
					"type": "bytes32"
				},
				{
					"internalType": "bytes32",
					"name": "s",
					"type": "bytes32"
				}
			],
			"name": "permit",
			"outputs": [],
			"stateMutability": "nonpayable",
			"type": "function"
		},
		{
			"inputs": [
				{
					"internalType": "contract IERC20",
					"name": "_token",
					"type": "address"
				}
			],
			"name": "recoverBEP20",
			"outputs": [],
			"stateMutability": "nonpayable",
			"type": "function"
		},
		{
			"inputs": [],
			"name": "recoverBNB",
			"outputs": [],
			"stateMutability": "nonpayable",
			"type": "function"
		},
		{
			"inputs": [],
			"name": "renounceOwnership",
			"outputs": [],
			"stateMutability": "nonpayable",
			"type": "function"
		},
		{
			"inputs": [
				{
					"internalType": "address",
					"name": "_address",
					"type": "address"
				}
			],
			"name": "setAsEntitled",
			"outputs": [],
			"stateMutability": "nonpayable",
			"type": "function"
		},
		{
			"inputs": [
				{
					"internalType": "address",
					"name": "_address",
					"type": "address"
				}
			],
			"name": "setAsMarketmaker",
			"outputs": [],
			"stateMutability": "nonpayable",
			"type": "function"
		},
		{
			"inputs": [],
			"name": "symbol",
			"outputs": [
				{
					"internalType": "string",
					"name": "value",
					"type": "string"
				}
			],
			"stateMutability": "view",
			"type": "function"
		},
		{
			"inputs": [],
			"name": "taxes",
			"outputs": [
				{
					"internalType": "uint16",
					"name": "",
					"type": "uint16"
				},
				{
					"internalType": "uint16",
					"name": "",
					"type": "uint16"
				},
				{
					"internalType": "uint16",
					"name": "",
					"type": "uint16"
				}
			],
			"stateMutability": "view",
			"type": "function"
		},
		{
			"inputs": [],
			"name": "totalSupply",
			"outputs": [
				{
					"internalType": "uint256",
					"name": "",
					"type": "uint256"
				}
			],
			"stateMutability": "view",
			"type": "function"
		},
		{
			"inputs": [
				{
					"internalType": "address",
					"name": "to",
					"type": "address"
				},
				{
					"internalType": "uint256",
					"name": "amount",
					"type": "uint256"
				}
			],
			"name": "transfer",
			"outputs": [
				{
					"internalType": "bool",
					"name": "",
					"type": "bool"
				}
			],
			"stateMutability": "nonpayable",
			"type": "function"
		},
		{
			"inputs": [
				{
					"internalType": "address",
					"name": "from",
					"type": "address"
				},
				{
					"internalType": "address",
					"name": "to",
					"type": "address"
				},
				{
					"internalType": "uint256",
					"name": "amount",
					"type": "uint256"
				}
			],
			"name": "transferFrom",
			"outputs": [
				{
					"internalType": "bool",
					"name": "",
					"type": "bool"
				}
			],
			"stateMutability": "nonpayable",
			"type": "function"
		},
		{
			"inputs": [
				{
					"internalType": "address",
					"name": "newOwner",
					"type": "address"
				}
			],
			"name": "transferOwnership",
			"outputs": [],
			"stateMutability": "nonpayable",
			"type": "function"
		},
		{
			"stateMutability": "payable",
			"type": "receive"
		}
	]
}