{
	"data": {
		"bytecode": {
			"linkReferences": {},
			"object": "60a06040523480156200001157600080fd5b50604051620030b2380380620030b28339818101604052810190620000379190620003c4565b3380600084600073ffffffffffffffffffffffffffffffffffffffff168173ffffffffffffffffffffffffffffffffffffffff1603620000b15760006040517fd7f73334000000000000000000000000000000000000000000000000000000008152600401620000a891906200041c565b60405180910390fd5b8073ffffffffffffffffffffffffffffffffffffffff1660808173ffffffffffffffffffffffffffffffffffffffff168152505050600073ffffffffffffffffffffffffffffffffffffffff168273ffffffffffffffffffffffffffffffffffffffff160362000158576040517f08c379a00000000000000000000000000000000000000000000000000000000081526004016200014f906200049a565b60405180910390fd5b816000806101000a81548173ffffffffffffffffffffffffffffffffffffffff021916908373ffffffffffffffffffffffffffffffffffffffff160217905550600073ffffffffffffffffffffffffffffffffffffffff168173ffffffffffffffffffffffffffffffffffffffff1614620001df57620001de816200022b60201b60201c565b5b50505080600e60006101000a81548173ffffffffffffffffffffffffffffffffffffffff021916908373ffffffffffffffffffffffffffffffffffffffff16021790555050506200052e565b3373ffffffffffffffffffffffffffffffffffffffff168173ffffffffffffffffffffffffffffffffffffffff16036200029c576040517f08c379a000000000000000000000000000000000000000000000000000000000815260040162000293906200050c565b60405180910390fd5b80600160006101000a81548173ffffffffffffffffffffffffffffffffffffffff021916908373ffffffffffffffffffffffffffffffffffffffff1602179055508073ffffffffffffffffffffffffffffffffffffffff1660008054906101000a900473ffffffffffffffffffffffffffffffffffffffff1673ffffffffffffffffffffffffffffffffffffffff167fed8889f560326eb138920d842192f0eb3dd22b4f139c87a2c57538e05bae127860405160405180910390a350565b600080fd5b600073ffffffffffffffffffffffffffffffffffffffff82169050919050565b60006200038c826200035f565b9050919050565b6200039e816200037f565b8114620003aa57600080fd5b50565b600081519050620003be8162000393565b92915050565b60008060408385031215620003de57620003dd6200035a565b5b6000620003ee85828601620003ad565b92505060206200040185828601620003ad565b9150509250929050565b62000416816200037f565b82525050565b60006020820190506200043360008301846200040b565b92915050565b600082825260208201905092915050565b7f43616e6e6f7420736574206f776e657220746f207a65726f0000000000000000600082015250565b60006200048260188362000439565b91506200048f826200044a565b602082019050919050565b60006020820190508181036000830152620004b58162000473565b9050919050565b7f43616e6e6f74207472616e7366657220746f2073656c66000000000000000000600082015250565b6000620004f460178362000439565b91506200050182620004bc565b602082019050919050565b600060208201905081810360008301526200052781620004e5565b9050919050565b608051612b616200055160003960008181610d1a0152610e980152612b616000f3fe6080604052600436106101235760003560e01c806379ba5097116100a057806392a8c1fe1161006457806392a8c1fe146103ed578063a32ba7ec14610416578063b0f479a11461043f578063f2fde38b1461046a578063fc491438146104935761012a565b806379ba5097146103085780637dc91a021461031f578063835b347c1461035c57806385572ffb146103995780638da5cb5b146103c25761012a565b806351cff8d9116100e757806351cff8d9146102275780636f695e261461025057806373645cff1461028d5780637736035b146102b65780637898d184146102df5761012a565b806301ffc9a71461012f578063263596a51461016c578063272efc69146101985780632f10a6c6146101d55780633aeac4e1146101fe5761012a565b3661012a57005b600080fd5b34801561013b57600080fd5b5061015660048036038101906101519190611805565b6104d0565b604051610163919061184d565b60405180910390f35b34801561017857600080fd5b506101816105a2565b60405161018f9291906119d7565b60405180910390f35b3480156101a457600080fd5b506101bf60048036038101906101ba9190611a5f565b6106b5565b6040516101cc919061184d565b60405180910390f35b3480156101e157600080fd5b506101fc60048036038101906101f79190611a5f565b6106d5565b005b34801561020a57600080fd5b5061022560048036038101906102209190611a8c565b610738565b005b34801561023357600080fd5b5061024e60048036038101906102499190611a5f565b610842565b005b34801561025c57600080fd5b5061027760048036038101906102729190611d8e565b6108ca565b6040516102849190611de2565b60405180910390f35b34801561029957600080fd5b506102b460048036038101906102af9190611dfd565b610a62565b005b3480156102c257600080fd5b506102dd60048036038101906102d89190611dfd565b610aad565b005b3480156102eb57600080fd5b5061030660048036038101906103019190611dfd565b610af8565b005b34801561031457600080fd5b5061031d610b43565b005b34801561032b57600080fd5b5061034660048036038101906103419190611dfd565b610cd8565b604051610353919061184d565b60405180910390f35b34801561036857600080fd5b50610383600480360381019061037e9190611dfd565b610cf8565b604051610390919061184d565b60405180910390f35b3480156103a557600080fd5b506103c060048036038101906103bb9190611e4e565b610d18565b005b3480156103ce57600080fd5b506103d7610dbd565b6040516103e49190611ea6565b60405180910390f35b3480156103f957600080fd5b50610414600480360381019061040f9190611a5f565b610de6565b005b34801561042257600080fd5b5061043d60048036038101906104389190611dfd565b610e49565b005b34801561044b57600080fd5b50610454610e94565b6040516104619190611ea6565b60405180910390f35b34801561047657600080fd5b50610491600480360381019061048c9190611a5f565b610ebc565b005b34801561049f57600080fd5b506104ba60048036038101906104b59190611d8e565b610ed0565b6040516104c79190611de2565b60405180910390f35b60007f85572ffb000000000000000000000000000000000000000000000000000000007bffffffffffffffffffffffffffffffffffffffffffffffffffffffff1916827bffffffffffffffffffffffffffffffffffffffffffffffffffffffff1916148061059b57507f01ffc9a7000000000000000000000000000000000000000000000000000000007bffffffffffffffffffffffffffffffffffffffffffffffffffffffff1916827bffffffffffffffffffffffffffffffffffffffffffffffffffffffff1916145b9050919050565b60006105ac611632565b600254600380604051806060016040529081600082016040518060400160405290816000820154815260200160018201548152505081526020016002820160405180604001604052908160008201600280602002604051908101604052809291908260028015610631576020028201915b81548152602001906001019080831161061d575b5050505050815260200160028201600280602002604051908101604052809291908260028015610676576020028201915b815481526020019060010190808311610662575b50505050508152505081526020016006820160405180604001604052908160008201548152602001600182015481525050815250509050915091509091565b600d6020528060005260406000206000915054906101000a900460ff1681565b6106dd611129565b6001600d60008373ffffffffffffffffffffffffffffffffffffffff1673ffffffffffffffffffffffffffffffffffffffff16815260200190815260200160002060006101000a81548160ff02191690831515021790555050565b610740611129565b60008173ffffffffffffffffffffffffffffffffffffffff166370a08231306040518263ffffffff1660e01b815260040161077b9190611ea6565b602060405180830381865afa158015610798573d6000803e3d6000fd5b505050506040513d601f19601f820116820180604052508101906107bc9190611ed6565b90508173ffffffffffffffffffffffffffffffffffffffff1663a9059cbb84836040518363ffffffff1660e01b81526004016107f9929190611f12565b6020604051808303816000875af1158015610818573d6000803e3d6000fd5b505050506040513d601f19601f8201168201806040525081019061083c9190611f67565b50505050565b61084a611129565b600047905060008273ffffffffffffffffffffffffffffffffffffffff168260405161087590611fc5565b60006040518083038185875af1925050503d80600081146108b2576040519150601f19603f3d011682016040523d82523d6000602084013e6108b7565b606091505b50509050806108c557600080fd5b505050565b60006108d4611129565b60006108e2848460006111b9565b905060003073ffffffffffffffffffffffffffffffffffffffff1663b0f479a16040518163ffffffff1660e01b8152600401602060405180830381865afa158015610931573d6000803e3d6000fd5b505050506040513d601f19601f820116820180604052508101906109559190611fef565b905060008173ffffffffffffffffffffffffffffffffffffffff166320487ded88856040518363ffffffff1660e01b8152600401610994929190612222565b602060405180830381865afa1580156109b1573d6000803e3d6000fd5b505050506040513d601f19601f820116820180604052508101906109d59190611ed6565b90508173ffffffffffffffffffffffffffffffffffffffff166396f4e9f98289866040518463ffffffff1660e01b8152600401610a13929190612222565b60206040518083038185885af1158015610a31573d6000803e3d6000fd5b50505050506040513d601f19601f82011682018060405250810190610a56919061227e565b93505050509392505050565b610a6a611129565b6000600b60008367ffffffffffffffff1667ffffffffffffffff16815260200190815260200160002060006101000a81548160ff02191690831515021790555050565b610ab5611129565b6001600c60008367ffffffffffffffff1667ffffffffffffffff16815260200190815260200160002060006101000a81548160ff02191690831515021790555050565b610b00611129565b6001600b60008367ffffffffffffffff1667ffffffffffffffff16815260200190815260200160002060006101000a81548160ff02191690831515021790555050565b600160009054906101000a900473ffffffffffffffffffffffffffffffffffffffff1673ffffffffffffffffffffffffffffffffffffffff163373ffffffffffffffffffffffffffffffffffffffff1614610bd3576040517f08c379a0000000000000000000000000000000000000000000000000000000008152600401610bca90612308565b60405180910390fd5b60008060009054906101000a900473ffffffffffffffffffffffffffffffffffffffff169050336000806101000a81548173ffffffffffffffffffffffffffffffffffffffff021916908373ffffffffffffffffffffffffffffffffffffffff1602179055506000600160006101000a81548173ffffffffffffffffffffffffffffffffffffffff021916908373ffffffffffffffffffffffffffffffffffffffff1602179055503373ffffffffffffffffffffffffffffffffffffffff168173ffffffffffffffffffffffffffffffffffffffff167f8be0079c531659141344cd1fd0a4f28419497f9722a3daafe3b4186f6b6457e060405160405180910390a350565b600c6020528060005260406000206000915054906101000a900460ff1681565b600b6020528060005260406000206000915054906101000a900460ff1681565b7f000000000000000000000000000000000000000000000000000000000000000073ffffffffffffffffffffffffffffffffffffffff163373ffffffffffffffffffffffffffffffffffffffff1614610da857336040517fd7f73334000000000000000000000000000000000000000000000000000000008152600401610d9f9190611ea6565b60405180910390fd5b610dba81610db5906125e5565b6112c1565b50565b60008060009054906101000a900473ffffffffffffffffffffffffffffffffffffffff16905090565b610dee611129565b6000600d60008373ffffffffffffffffffffffffffffffffffffffff1673ffffffffffffffffffffffffffffffffffffffff16815260200190815260200160002060006101000a81548160ff02191690831515021790555050565b610e51611129565b6000600c60008367ffffffffffffffff1667ffffffffffffffff16815260200190815260200160002060006101000a81548160ff02191690831515021790555050565b60007f0000000000000000000000000000000000000000000000000000000000000000905090565b610ec4611129565b610ecd81611487565b50565b6000610eda611129565b6000610f098484600e60009054906101000a900473ffffffffffffffffffffffffffffffffffffffff166111b9565b905060003073ffffffffffffffffffffffffffffffffffffffff1663b0f479a16040518163ffffffff1660e01b8152600401602060405180830381865afa158015610f58573d6000803e3d6000fd5b505050506040513d601f19601f82011682018060405250810190610f7c9190611fef565b905060008173ffffffffffffffffffffffffffffffffffffffff166320487ded88856040518363ffffffff1660e01b8152600401610fbb929190612222565b602060405180830381865afa158015610fd8573d6000803e3d6000fd5b505050506040513d601f19601f82011682018060405250810190610ffc9190611ed6565b9050600e60009054906101000a900473ffffffffffffffffffffffffffffffffffffffff1673ffffffffffffffffffffffffffffffffffffffff1663095ea7b383836040518363ffffffff1660e01b815260040161105b929190611f12565b6020604051808303816000875af115801561107a573d6000803e3d6000fd5b505050506040513d601f19601f8201168201806040525081019061109e9190611f67565b508173ffffffffffffffffffffffffffffffffffffffff166396f4e9f988856040518363ffffffff1660e01b81526004016110da929190612222565b6020604051808303816000875af11580156110f9573d6000803e3d6000fd5b505050506040513d601f19601f8201168201806040525081019061111d919061227e565b93505050509392505050565b60008054906101000a900473ffffffffffffffffffffffffffffffffffffffff1673ffffffffffffffffffffffffffffffffffffffff163373ffffffffffffffffffffffffffffffffffffffff16146111b7576040517f08c379a00000000000000000000000000000000000000000000000000000000081526004016111ae90612644565b60405180910390fd5b565b6111c1611665565b60006040518060a00160405280866040516020016111df9190611ea6565b6040516020818303038152906040528152602001856040516020016112049190612664565b6040516020818303038152906040528152602001600067ffffffffffffffff81111561123357611232611b22565b5b60405190808252806020026020018201604052801561126c57816020015b6112596116aa565b8152602001906001900390816112515790505b5081526020018473ffffffffffffffffffffffffffffffffffffffff1681526020016112b16040518060400160405280620249f08152602001600015158152506115b3565b8152509050809150509392505050565b80604001518060200190518101906112d991906126be565b600d60008273ffffffffffffffffffffffffffffffffffffffff1673ffffffffffffffffffffffffffffffffffffffff16815260200190815260200160002060009054906101000a900460ff1661136757806040517fbf3f938900000000000000000000000000000000000000000000000000000000815260040161135e9190611ea6565b60405180910390fd5b8160000151600281905550816060015180602001905181019061138a919061287b565b6003600082015181600001600082015181600001556020820151816001015550506020820151816002016000820151816000019060026113cb9291906116da565b506020820151816002019060026113e39291906116da565b50505060408201518160060160008201518160000155602082015181600101555050905050816020015167ffffffffffffffff1682600001517fb1e312a29937cc11967b0e4a346fef1ae132424ebaba9dc6d90249dba053e87c846040015180602001905181019061145591906126be565b856060015180602001905181019061146d919061294a565b60405161147b929190612a36565b60405180910390a35050565b3373ffffffffffffffffffffffffffffffffffffffff168173ffffffffffffffffffffffffffffffffffffffff16036114f5576040517f08c379a00000000000000000000000000000000000000000000000000000000081526004016114ec90612ab2565b60405180910390fd5b80600160006101000a81548173ffffffffffffffffffffffffffffffffffffffff021916908373ffffffffffffffffffffffffffffffffffffffff1602179055508073ffffffffffffffffffffffffffffffffffffffff1660008054906101000a900473ffffffffffffffffffffffffffffffffffffffff1673ffffffffffffffffffffffffffffffffffffffff167fed8889f560326eb138920d842192f0eb3dd22b4f139c87a2c57538e05bae127860405160405180910390a350565b60606397a657c960e01b826040516024016115ce9190612b10565b604051602081830303815290604052907bffffffffffffffffffffffffffffffffffffffffffffffffffffffff19166020820180517bffffffffffffffffffffffffffffffffffffffffffffffffffffffff83818316178352505050509050919050565b604051806060016040528061164561171a565b8152602001611652611734565b815260200161165f61171a565b81525090565b6040518060a00160405280606081526020016060815260200160608152602001600073ffffffffffffffffffffffffffffffffffffffff168152602001606081525090565b6040518060400160405280600073ffffffffffffffffffffffffffffffffffffffff168152602001600081525090565b8260028101928215611709579160200282015b828111156117085782518255916020019190600101906116ed565b5b509050611716919061175a565b5090565b604051806040016040528060008152602001600081525090565b6040518060400160405280611747611777565b8152602001611754611777565b81525090565b5b8082111561177357600081600090555060010161175b565b5090565b6040518060400160405280600290602082028036833780820191505090505090565b6000604051905090565b600080fd5b600080fd5b60007fffffffff0000000000000000000000000000000000000000000000000000000082169050919050565b6117e2816117ad565b81146117ed57600080fd5b50565b6000813590506117ff816117d9565b92915050565b60006020828403121561181b5761181a6117a3565b5b6000611829848285016117f0565b91505092915050565b60008115159050919050565b61184781611832565b82525050565b6000602082019050611862600083018461183e565b92915050565b6000819050919050565b61187b81611868565b82525050565b6000819050919050565b61189481611881565b82525050565b6040820160008201516118b0600085018261188b565b5060208201516118c3602085018261188b565b50505050565b600060029050919050565b600081905092915050565b6000819050919050565b60006118f5838361188b565b60208301905092915050565b6000602082019050919050565b611917816118c9565b61192181846118d4565b925061192c826118df565b8060005b8381101561195d57815161194487826118e9565b965061194f83611901565b925050600181019050611930565b505050505050565b60808201600082015161197b600085018261190e565b50602082015161198e604085018261190e565b50505050565b610100820160008201516119ab600085018261189a565b5060208201516119be6040850182611965565b5060408201516119d160c085018261189a565b50505050565b6000610120820190506119ed6000830185611872565b6119fa6020830184611994565b9392505050565b600073ffffffffffffffffffffffffffffffffffffffff82169050919050565b6000611a2c82611a01565b9050919050565b611a3c81611a21565b8114611a4757600080fd5b50565b600081359050611a5981611a33565b92915050565b600060208284031215611a7557611a746117a3565b5b6000611a8384828501611a4a565b91505092915050565b60008060408385031215611aa357611aa26117a3565b5b6000611ab185828601611a4a565b9250506020611ac285828601611a4a565b9150509250929050565b600067ffffffffffffffff82169050919050565b611ae981611acc565b8114611af457600080fd5b50565b600081359050611b0681611ae0565b92915050565b600080fd5b6000601f19601f8301169050919050565b7f4e487b7100000000000000000000000000000000000000000000000000000000600052604160045260246000fd5b611b5a82611b11565b810181811067ffffffffffffffff82111715611b7957611b78611b22565b5b80604052505050565b6000611b8c611799565b9050611b988282611b51565b919050565b600080fd5b611bab81611881565b8114611bb657600080fd5b50565b600081359050611bc881611ba2565b92915050565b600060408284031215611be457611be3611b0c565b5b611bee6040611b82565b90506000611bfe84828501611bb9565b6000830152506020611c1284828501611bb9565b60208301525092915050565b600080fd5b600067ffffffffffffffff821115611c3e57611c3d611b22565b5b602082029050919050565b600080fd5b6000611c61611c5c84611c23565b611b82565b90508060208402830185811115611c7b57611c7a611c49565b5b835b81811015611ca45780611c908882611bb9565b845260208401935050602081019050611c7d565b5050509392505050565b600082601f830112611cc357611cc2611c1e565b5b6002611cd0848285611c4e565b91505092915050565b600060808284031215611cef57611cee611b0c565b5b611cf96040611b82565b90506000611d0984828501611cae565b6000830152506040611d1d84828501611cae565b60208301525092915050565b60006101008284031215611d4057611d3f611b0c565b5b611d4a6060611b82565b90506000611d5a84828501611bce565b6000830152506040611d6e84828501611cd9565b60208301525060c0611d8284828501611bce565b60408301525092915050565b60008060006101408486031215611da857611da76117a3565b5b6000611db686828701611af7565b9350506020611dc786828701611a4a565b9250506040611dd886828701611d29565b9150509250925092565b6000602082019050611df76000830184611872565b92915050565b600060208284031215611e1357611e126117a3565b5b6000611e2184828501611af7565b91505092915050565b600080fd5b600060a08284031215611e4557611e44611e2a565b5b81905092915050565b600060208284031215611e6457611e636117a3565b5b600082013567ffffffffffffffff811115611e8257611e816117a8565b5b611e8e84828501611e2f565b91505092915050565b611ea081611a21565b82525050565b6000602082019050611ebb6000830184611e97565b92915050565b600081519050611ed081611ba2565b92915050565b600060208284031215611eec57611eeb6117a3565b5b6000611efa84828501611ec1565b91505092915050565b611f0c81611881565b82525050565b6000604082019050611f276000830185611e97565b611f346020830184611f03565b9392505050565b611f4481611832565b8114611f4f57600080fd5b50565b600081519050611f6181611f3b565b92915050565b600060208284031215611f7d57611f7c6117a3565b5b6000611f8b84828501611f52565b91505092915050565b600081905092915050565b50565b6000611faf600083611f94565b9150611fba82611f9f565b600082019050919050565b6000611fd082611fa2565b9150819050919050565b600081519050611fe981611a33565b92915050565b600060208284031215612005576120046117a3565b5b600061201384828501611fda565b91505092915050565b61202581611acc565b82525050565b600081519050919050565b600082825260208201905092915050565b60005b8381101561206557808201518184015260208101905061204a565b60008484015250505050565b600061207c8261202b565b6120868185612036565b9350612096818560208601612047565b61209f81611b11565b840191505092915050565b600081519050919050565b600082825260208201905092915050565b6000819050602082019050919050565b6120df81611a21565b82525050565b6040820160008201516120fb60008501826120d6565b50602082015161210e602085018261188b565b50505050565b600061212083836120e5565b60408301905092915050565b6000602082019050919050565b6000612144826120aa565b61214e81856120b5565b9350612159836120c6565b8060005b8381101561218a5781516121718882612114565b975061217c8361212c565b92505060018101905061215d565b5085935050505092915050565b600060a08301600083015184820360008601526121b48282612071565b915050602083015184820360208601526121ce8282612071565b915050604083015184820360408601526121e88282612139565b91505060608301516121fd60608601826120d6565b50608083015184820360808601526122158282612071565b9150508091505092915050565b6000604082019050612237600083018561201c565b81810360208301526122498184612197565b90509392505050565b61225b81611868565b811461226657600080fd5b50565b60008151905061227881612252565b92915050565b600060208284031215612294576122936117a3565b5b60006122a284828501612269565b91505092915050565b600082825260208201905092915050565b7f4d7573742062652070726f706f736564206f776e657200000000000000000000600082015250565b60006122f26016836122ab565b91506122fd826122bc565b602082019050919050565b60006020820190508181036000830152612321816122e5565b9050919050565b60008135905061233781612252565b92915050565b600080fd5b600067ffffffffffffffff82111561235d5761235c611b22565b5b61236682611b11565b9050602081019050919050565b82818337600083830152505050565b600061239561239084612342565b611b82565b9050828152602081018484840111156123b1576123b061233d565b5b6123bc848285612373565b509392505050565b600082601f8301126123d9576123d8611c1e565b5b81356123e9848260208601612382565b91505092915050565b600067ffffffffffffffff82111561240d5761240c611b22565b5b602082029050602081019050919050565b60006040828403121561243457612433611b0c565b5b61243e6040611b82565b9050600061244e84828501611a4a565b600083015250602061246284828501611bb9565b60208301525092915050565b600061248161247c846123f2565b611b82565b905080838252602082019050604084028301858111156124a4576124a3611c49565b5b835b818110156124cd57806124b9888261241e565b8452602084019350506040810190506124a6565b5050509392505050565b600082601f8301126124ec576124eb611c1e565b5b81356124fc84826020860161246e565b91505092915050565b600060a0828403121561251b5761251a611b0c565b5b61252560a0611b82565b9050600061253584828501612328565b600083015250602061254984828501611af7565b602083015250604082013567ffffffffffffffff81111561256d5761256c611b9d565b5b612579848285016123c4565b604083015250606082013567ffffffffffffffff81111561259d5761259c611b9d565b5b6125a9848285016123c4565b606083015250608082013567ffffffffffffffff8111156125cd576125cc611b9d565b5b6125d9848285016124d7565b60808301525092915050565b60006125f13683612505565b9050919050565b7f4f6e6c792063616c6c61626c65206279206f776e657200000000000000000000600082015250565b600061262e6016836122ab565b9150612639826125f8565b602082019050919050565b6000602082019050818103600083015261265d81612621565b9050919050565b60006101008201905061267a6000830184611994565b92915050565b600061268b82611a01565b9050919050565b61269b81612680565b81146126a657600080fd5b50565b6000815190506126b881612692565b92915050565b6000602082840312156126d4576126d36117a3565b5b60006126e2848285016126a9565b91505092915050565b60006040828403121561270157612700611b0c565b5b61270b6040611b82565b9050600061271b84828501611ec1565b600083015250602061272f84828501611ec1565b60208301525092915050565b600061274e61274984611c23565b611b82565b9050806020840283018581111561276857612767611c49565b5b835b81811015612791578061277d8882611ec1565b84526020840193505060208101905061276a565b5050509392505050565b600082601f8301126127b0576127af611c1e565b5b60026127bd84828561273b565b91505092915050565b6000608082840312156127dc576127db611b0c565b5b6127e66040611b82565b905060006127f68482850161279b565b600083015250604061280a8482850161279b565b60208301525092915050565b6000610100828403121561282d5761282c611b0c565b5b6128376060611b82565b90506000612847848285016126eb565b600083015250604061285b848285016127c6565b60208301525060c061286f848285016126eb565b60408301525092915050565b60006101008284031215612892576128916117a3565b5b60006128a084828501612816565b91505092915050565b600067ffffffffffffffff8211156128c4576128c3611b22565b5b6128cd82611b11565b9050602081019050919050565b60006128ed6128e8846128a9565b611b82565b9050828152602081018484840111156129095761290861233d565b5b612914848285612047565b509392505050565b600082601f83011261293157612930611c1e565b5b81516129418482602086016128da565b91505092915050565b6000602082840312156129605761295f6117a3565b5b600082015167ffffffffffffffff81111561297e5761297d6117a8565b5b61298a8482850161291c565b91505092915050565b6000819050919050565b60006129b86129b36129ae84611a01565b612993565b611a01565b9050919050565b60006129ca8261299d565b9050919050565b60006129dc826129bf565b9050919050565b6129ec816129d1565b82525050565b600081519050919050565b6000612a08826129f2565b612a1281856122ab565b9350612a22818560208601612047565b612a2b81611b11565b840191505092915050565b6000604082019050612a4b60008301856129e3565b8181036020830152612a5d81846129fd565b90509392505050565b7f43616e6e6f74207472616e7366657220746f2073656c66000000000000000000600082015250565b6000612a9c6017836122ab565b9150612aa782612a66565b602082019050919050565b60006020820190508181036000830152612acb81612a8f565b9050919050565b612adb81611832565b82525050565b604082016000820151612af7600085018261188b565b506020820151612b0a6020850182612ad2565b50505050565b6000604082019050612b256000830184612ae1565b9291505056fea26469706673582212209632964b27224b5010e2e7df7235ad714763239a5abd086a745b13dffde6af4d64736f6c63430008130033",
			"opcodes": "PUSH1 0xA0 PUSH1 0x40 MSTORE CALLVALUE DUP1 ISZERO PUSH3 0x11 JUMPI PUSH1 0x0 DUP1 REVERT JUMPDEST POP PUSH1 0x40 MLOAD PUSH3 0x30B2 CODESIZE SUB DUP1 PUSH3 0x30B2 DUP4 CODECOPY DUP2 DUP2 ADD PUSH1 0x40 MSTORE DUP2 ADD SWAP1 PUSH3 0x37 SWAP2 SWAP1 PUSH3 0x3C4 JUMP JUMPDEST CALLER DUP1 PUSH1 0x0 DUP5 PUSH1 0x0 PUSH20 0xFFFFFFFFFFFFFFFFFFFFFFFFFFFFFFFFFFFFFFFF AND DUP2 PUSH20 0xFFFFFFFFFFFFFFFFFFFFFFFFFFFFFFFFFFFFFFFF AND SUB PUSH3 0xB1 JUMPI PUSH1 0x0 PUSH1 0x40 MLOAD PUSH32 0xD7F7333400000000000000000000000000000000000000000000000000000000 DUP2 MSTORE PUSH1 0x4 ADD PUSH3 0xA8 SWAP2 SWAP1 PUSH3 0x41C JUMP JUMPDEST PUSH1 0x40 MLOAD DUP1 SWAP2 SUB SWAP1 REVERT JUMPDEST DUP1 PUSH20 0xFFFFFFFFFFFFFFFFFFFFFFFFFFFFFFFFFFFFFFFF AND PUSH1 0x80 DUP2 PUSH20 0xFFFFFFFFFFFFFFFFFFFFFFFFFFFFFFFFFFFFFFFF AND DUP2 MSTORE POP POP POP PUSH1 0x0 PUSH20 0xFFFFFFFFFFFFFFFFFFFFFFFFFFFFFFFFFFFFFFFF AND DUP3 PUSH20 0xFFFFFFFFFFFFFFFFFFFFFFFFFFFFFFFFFFFFFFFF AND SUB PUSH3 0x158 JUMPI PUSH1 0x40 MLOAD PUSH32 0x8C379A000000000000000000000000000000000000000000000000000000000 DUP2 MSTORE PUSH1 0x4 ADD PUSH3 0x14F SWAP1 PUSH3 0x49A JUMP JUMPDEST PUSH1 0x40 MLOAD DUP1 SWAP2 SUB SWAP1 REVERT JUMPDEST DUP2 PUSH1 0x0 DUP1 PUSH2 0x100 EXP DUP2 SLOAD DUP2 PUSH20 0xFFFFFFFFFFFFFFFFFFFFFFFFFFFFFFFFFFFFFFFF MUL NOT AND SWAP1 DUP4 PUSH20 0xFFFFFFFFFFFFFFFFFFFFFFFFFFFFFFFFFFFFFFFF AND MUL OR SWAP1 SSTORE POP PUSH1 0x0 PUSH20 0xFFFFFFFFFFFFFFFFFFFFFFFFFFFFFFFFFFFFFFFF AND DUP2 PUSH20 0xFFFFFFFFFFFFFFFFFFFFFFFFFFFFFFFFFFFFFFFF AND EQ PUSH3 0x1DF JUMPI PUSH3 0x1DE DUP2 PUSH3 0x22B PUSH1 0x20 SHL PUSH1 0x20 SHR JUMP JUMPDEST JUMPDEST POP POP POP DUP1 PUSH1 0xE PUSH1 0x0 PUSH2 0x100 EXP DUP2 SLOAD DUP2 PUSH20 0xFFFFFFFFFFFFFFFFFFFFFFFFFFFFFFFFFFFFFFFF MUL NOT AND SWAP1 DUP4 PUSH20 0xFFFFFFFFFFFFFFFFFFFFFFFFFFFFFFFFFFFFFFFF AND MUL OR SWAP1 SSTORE POP POP POP PUSH3 0x52E JUMP JUMPDEST CALLER PUSH20 0xFFFFFFFFFFFFFFFFFFFFFFFFFFFFFFFFFFFFFFFF AND DUP2 PUSH20 0xFFFFFFFFFFFFFFFFFFFFFFFFFFFFFFFFFFFFFFFF AND SUB PUSH3 0x29C JUMPI PUSH1 0x40 MLOAD PUSH32 0x8C379A000000000000000000000000000000000000000000000000000000000 DUP2 MSTORE PUSH1 0x4 ADD PUSH3 0x293 SWAP1 PUSH3 0x50C JUMP JUMPDEST PUSH1 0x40 MLOAD DUP1 SWAP2 SUB SWAP1 REVERT JUMPDEST DUP1 PUSH1 0x1 PUSH1 0x0 PUSH2 0x100 EXP DUP2 SLOAD DUP2 PUSH20 0xFFFFFFFFFFFFFFFFFFFFFFFFFFFFFFFFFFFFFFFF MUL NOT AND SWAP1 DUP4 PUSH20 0xFFFFFFFFFFFFFFFFFFFFFFFFFFFFFFFFFFFFFFFF AND MUL OR SWAP1 SSTORE POP DUP1 PUSH20 0xFFFFFFFFFFFFFFFFFFFFFFFFFFFFFFFFFFFFFFFF AND PUSH1 0x0 DUP1 SLOAD SWAP1 PUSH2 0x100 EXP SWAP1 DIV PUSH20 0xFFFFFFFFFFFFFFFFFFFFFFFFFFFFFFFFFFFFFFFF AND PUSH20 0xFFFFFFFFFFFFFFFFFFFFFFFFFFFFFFFFFFFFFFFF AND PUSH32 0xED8889F560326EB138920D842192F0EB3DD22B4F139C87A2C57538E05BAE1278 PUSH1 0x40 MLOAD PUSH1 0x40 MLOAD DUP1 SWAP2 SUB SWAP1 LOG3 POP JUMP JUMPDEST PUSH1 0x0 DUP1 REVERT JUMPDEST PUSH1 0x0 PUSH20 0xFFFFFFFFFFFFFFFFFFFFFFFFFFFFFFFFFFFFFFFF DUP3 AND SWAP1 POP SWAP2 SWAP1 POP JUMP JUMPDEST PUSH1 0x0 PUSH3 0x38C DUP3 PUSH3 0x35F JUMP JUMPDEST SWAP1 POP SWAP2 SWAP1 POP JUMP JUMPDEST PUSH3 0x39E DUP2 PUSH3 0x37F JUMP JUMPDEST DUP2 EQ PUSH3 0x3AA JUMPI PUSH1 0x0 DUP1 REVERT JUMPDEST POP JUMP JUMPDEST PUSH1 0x0 DUP2 MLOAD SWAP1 POP PUSH3 0x3BE DUP2 PUSH3 0x393 JUMP JUMPDEST SWAP3 SWAP2 POP POP JUMP JUMPDEST PUSH1 0x0 DUP1 PUSH1 0x40 DUP4 DUP6 SUB SLT ISZERO PUSH3 0x3DE JUMPI PUSH3 0x3DD PUSH3 0x35A JUMP JUMPDEST JUMPDEST PUSH1 0x0 PUSH3 0x3EE DUP6 DUP3 DUP7 ADD PUSH3 0x3AD JUMP JUMPDEST SWAP3 POP POP PUSH1 0x20 PUSH3 0x401 DUP6 DUP3 DUP7 ADD PUSH3 0x3AD JUMP JUMPDEST SWAP2 POP POP SWAP3 POP SWAP3 SWAP1 POP JUMP JUMPDEST PUSH3 0x416 DUP2 PUSH3 0x37F JUMP JUMPDEST DUP3 MSTORE POP POP JUMP JUMPDEST PUSH1 0x0 PUSH1 0x20 DUP3 ADD SWAP1 POP PUSH3 0x433 PUSH1 0x0 DUP4 ADD DUP5 PUSH3 0x40B JUMP JUMPDEST SWAP3 SWAP2 POP POP JUMP JUMPDEST PUSH1 0x0 DUP3 DUP3 MSTORE PUSH1 0x20 DUP3 ADD SWAP1 POP SWAP3 SWAP2 POP POP JUMP JUMPDEST PUSH32 0x43616E6E6F7420736574206F776E657220746F207A65726F0000000000000000 PUSH1 0x0 DUP3 ADD MSTORE POP JUMP JUMPDEST PUSH1 0x0 PUSH3 0x482 PUSH1 0x18 DUP4 PUSH3 0x439 JUMP JUMPDEST SWAP2 POP PUSH3 0x48F DUP3 PUSH3 0x44A JUMP JUMPDEST PUSH1 0x20 DUP3 ADD SWAP1 POP SWAP2 SWAP1 POP JUMP JUMPDEST PUSH1 0x0 PUSH1 0x20 DUP3 ADD SWAP1 POP DUP2 DUP2 SUB PUSH1 0x0 DUP4 ADD MSTORE PUSH3 0x4B5 DUP2 PUSH3 0x473 JUMP JUMPDEST SWAP1 POP SWAP2 SWAP1 POP JUMP JUMPDEST PUSH32 0x43616E6E6F74207472616E7366657220746F2073656C66000000000000000000 PUSH1 0x0 DUP3 ADD MSTORE POP JUMP JUMPDEST PUSH1 0x0 PUSH3 0x4F4 PUSH1 0x17 DUP4 PUSH3 0x439 JUMP JUMPDEST SWAP2 POP PUSH3 0x501 DUP3 PUSH3 0x4BC JUMP JUMPDEST PUSH1 0x20 DUP3 ADD SWAP1 POP SWAP2 SWAP1 POP JUMP JUMPDEST PUSH1 0x0 PUSH1 0x20 DUP3 ADD SWAP1 POP DUP2 DUP2 SUB PUSH1 0x0 DUP4 ADD MSTORE PUSH3 0x527 DUP2 PUSH3 0x4E5 JUMP JUMPDEST SWAP1 POP SWAP2 SWAP1 POP JUMP JUMPDEST PUSH1 0x80 MLOAD PUSH2 0x2B61 PUSH3 0x551 PUSH1 0x0 CODECOPY PUSH1 0x0 DUP2 DUP2 PUSH2 0xD1A ADD MSTORE PUSH2 0xE98 ADD MSTORE PUSH2 0x2B61 PUSH1 0x0 RETURN INVALID PUSH1 0x80 PUSH1 0x40 MSTORE PUSH1 0x4 CALLDATASIZE LT PUSH2 0x123 JUMPI PUSH1 0x0 CALLDATALOAD PUSH1 0xE0 SHR DUP1 PUSH4 0x79BA5097 GT PUSH2 0xA0 JUMPI DUP1 PUSH4 0x92A8C1FE GT PUSH2 0x64 JUMPI DUP1 PUSH4 0x92A8C1FE EQ PUSH2 0x3ED JUMPI DUP1 PUSH4 0xA32BA7EC EQ PUSH2 0x416 JUMPI DUP1 PUSH4 0xB0F479A1 EQ PUSH2 0x43F JUMPI DUP1 PUSH4 0xF2FDE38B EQ PUSH2 0x46A JUMPI DUP1 PUSH4 0xFC491438 EQ PUSH2 0x493 JUMPI PUSH2 0x12A JUMP JUMPDEST DUP1 PUSH4 0x79BA5097 EQ PUSH2 0x308 JUMPI DUP1 PUSH4 0x7DC91A02 EQ PUSH2 0x31F JUMPI DUP1 PUSH4 0x835B347C EQ PUSH2 0x35C JUMPI DUP1 PUSH4 0x85572FFB EQ PUSH2 0x399 JUMPI DUP1 PUSH4 0x8DA5CB5B EQ PUSH2 0x3C2 JUMPI PUSH2 0x12A JUMP JUMPDEST DUP1 PUSH4 0x51CFF8D9 GT PUSH2 0xE7 JUMPI DUP1 PUSH4 0x51CFF8D9 EQ PUSH2 0x227 JUMPI DUP1 PUSH4 0x6F695E26 EQ PUSH2 0x250 JUMPI DUP1 PUSH4 0x73645CFF EQ PUSH2 0x28D JUMPI DUP1 PUSH4 0x7736035B EQ PUSH2 0x2B6 JUMPI DUP1 PUSH4 0x7898D184 EQ PUSH2 0x2DF JUMPI PUSH2 0x12A JUMP JUMPDEST DUP1 PUSH4 0x1FFC9A7 EQ PUSH2 0x12F JUMPI DUP1 PUSH4 0x263596A5 EQ PUSH2 0x16C JUMPI DUP1 PUSH4 0x272EFC69 EQ PUSH2 0x198 JUMPI DUP1 PUSH4 0x2F10A6C6 EQ PUSH2 0x1D5 JUMPI DUP1 PUSH4 0x3AEAC4E1 EQ PUSH2 0x1FE JUMPI PUSH2 0x12A JUMP JUMPDEST CALLDATASIZE PUSH2 0x12A JUMPI STOP JUMPDEST PUSH1 0x0 DUP1 REVERT JUMPDEST CALLVALUE DUP1 ISZERO PUSH2 0x13B JUMPI PUSH1 0x0 DUP1 REVERT JUMPDEST POP PUSH2 0x156 PUSH1 0x4 DUP1 CALLDATASIZE SUB DUP2 ADD SWAP1 PUSH2 0x151 SWAP2 SWAP1 PUSH2 0x1805 JUMP JUMPDEST PUSH2 0x4D0 JUMP JUMPDEST PUSH1 0x40 MLOAD PUSH2 0x163 SWAP2 SWAP1 PUSH2 0x184D JUMP JUMPDEST PUSH1 0x40 MLOAD DUP1 SWAP2 SUB SWAP1 RETURN JUMPDEST CALLVALUE DUP1 ISZERO PUSH2 0x178 JUMPI PUSH1 0x0 DUP1 REVERT JUMPDEST POP PUSH2 0x181 PUSH2 0x5A2 JUMP JUMPDEST PUSH1 0x40 MLOAD PUSH2 0x18F SWAP3 SWAP2 SWAP1 PUSH2 0x19D7 JUMP JUMPDEST PUSH1 0x40 MLOAD DUP1 SWAP2 SUB SWAP1 RETURN JUMPDEST CALLVALUE DUP1 ISZERO PUSH2 0x1A4 JUMPI PUSH1 0x0 DUP1 REVERT JUMPDEST POP PUSH2 0x1BF PUSH1 0x4 DUP1 CALLDATASIZE SUB DUP2 ADD SWAP1 PUSH2 0x1BA SWAP2 SWAP1 PUSH2 0x1A5F JUMP JUMPDEST PUSH2 0x6B5 JUMP JUMPDEST PUSH1 0x40 MLOAD PUSH2 0x1CC SWAP2 SWAP1 PUSH2 0x184D JUMP JUMPDEST PUSH1 0x40 MLOAD DUP1 SWAP2 SUB SWAP1 RETURN JUMPDEST CALLVALUE DUP1 ISZERO PUSH2 0x1E1 JUMPI PUSH1 0x0 DUP1 REVERT JUMPDEST POP PUSH2 0x1FC PUSH1 0x4 DUP1 CALLDATASIZE SUB DUP2 ADD SWAP1 PUSH2 0x1F7 SWAP2 SWAP1 PUSH2 0x1A5F JUMP JUMPDEST PUSH2 0x6D5 JUMP JUMPDEST STOP JUMPDEST CALLVALUE DUP1 ISZERO PUSH2 0x20A JUMPI PUSH1 0x0 DUP1 REVERT JUMPDEST POP PUSH2 0x225 PUSH1 0x4 DUP1 CALLDATASIZE SUB DUP2 ADD SWAP1 PUSH2 0x220 SWAP2 SWAP1 PUSH2 0x1A8C JUMP JUMPDEST PUSH2 0x738 JUMP JUMPDEST STOP JUMPDEST CALLVALUE DUP1 ISZERO PUSH2 0x233 JUMPI PUSH1 0x0 DUP1 REVERT JUMPDEST POP PUSH2 0x24E PUSH1 0x4 DUP1 CALLDATASIZE SUB DUP2 ADD SWAP1 PUSH2 0x249 SWAP2 SWAP1 PUSH2 0x1A5F JUMP JUMPDEST PUSH2 0x842 JUMP JUMPDEST STOP JUMPDEST CALLVALUE DUP1 ISZERO PUSH2 0x25C JUMPI PUSH1 0x0 DUP1 REVERT JUMPDEST POP PUSH2 0x277 PUSH1 0x4 DUP1 CALLDATASIZE SUB DUP2 ADD SWAP1 PUSH2 0x272 SWAP2 SWAP1 PUSH2 0x1D8E JUMP JUMPDEST PUSH2 0x8CA JUMP JUMPDEST PUSH1 0x40 MLOAD PUSH2 0x284 SWAP2 SWAP1 PUSH2 0x1DE2 JUMP JUMPDEST PUSH1 0x40 MLOAD DUP1 SWAP2 SUB SWAP1 RETURN JUMPDEST CALLVALUE DUP1 ISZERO PUSH2 0x299 JUMPI PUSH1 0x0 DUP1 REVERT JUMPDEST POP PUSH2 0x2B4 PUSH1 0x4 DUP1 CALLDATASIZE SUB DUP2 ADD SWAP1 PUSH2 0x2AF SWAP2 SWAP1 PUSH2 0x1DFD JUMP JUMPDEST PUSH2 0xA62 JUMP JUMPDEST STOP JUMPDEST CALLVALUE DUP1 ISZERO PUSH2 0x2C2 JUMPI PUSH1 0x0 DUP1 REVERT JUMPDEST POP PUSH2 0x2DD PUSH1 0x4 DUP1 CALLDATASIZE SUB DUP2 ADD SWAP1 PUSH2 0x2D8 SWAP2 SWAP1 PUSH2 0x1DFD JUMP JUMPDEST PUSH2 0xAAD JUMP JUMPDEST STOP JUMPDEST CALLVALUE DUP1 ISZERO PUSH2 0x2EB JUMPI PUSH1 0x0 DUP1 REVERT JUMPDEST POP PUSH2 0x306 PUSH1 0x4 DUP1 CALLDATASIZE SUB DUP2 ADD SWAP1 PUSH2 0x301 SWAP2 SWAP1 PUSH2 0x1DFD JUMP JUMPDEST PUSH2 0xAF8 JUMP JUMPDEST STOP JUMPDEST CALLVALUE DUP1 ISZERO PUSH2 0x314 JUMPI PUSH1 0x0 DUP1 REVERT JUMPDEST POP PUSH2 0x31D PUSH2 0xB43 JUMP JUMPDEST STOP JUMPDEST CALLVALUE DUP1 ISZERO PUSH2 0x32B JUMPI PUSH1 0x0 DUP1 REVERT JUMPDEST POP PUSH2 0x346 PUSH1 0x4 DUP1 CALLDATASIZE SUB DUP2 ADD SWAP1 PUSH2 0x341 SWAP2 SWAP1 PUSH2 0x1DFD JUMP JUMPDEST PUSH2 0xCD8 JUMP JUMPDEST PUSH1 0x40 MLOAD PUSH2 0x353 SWAP2 SWAP1 PUSH2 0x184D JUMP JUMPDEST PUSH1 0x40 MLOAD DUP1 SWAP2 SUB SWAP1 RETURN JUMPDEST CALLVALUE DUP1 ISZERO PUSH2 0x368 JUMPI PUSH1 0x0 DUP1 REVERT JUMPDEST POP PUSH2 0x383 PUSH1 0x4 DUP1 CALLDATASIZE SUB DUP2 ADD SWAP1 PUSH2 0x37E SWAP2 SWAP1 PUSH2 0x1DFD JUMP JUMPDEST PUSH2 0xCF8 JUMP JUMPDEST PUSH1 0x40 MLOAD PUSH2 0x390 SWAP2 SWAP1 PUSH2 0x184D JUMP JUMPDEST PUSH1 0x40 MLOAD DUP1 SWAP2 SUB SWAP1 RETURN JUMPDEST CALLVALUE DUP1 ISZERO PUSH2 0x3A5 JUMPI PUSH1 0x0 DUP1 REVERT JUMPDEST POP PUSH2 0x3C0 PUSH1 0x4 DUP1 CALLDATASIZE SUB DUP2 ADD SWAP1 PUSH2 0x3BB SWAP2 SWAP1 PUSH2 0x1E4E JUMP JUMPDEST PUSH2 0xD18 JUMP JUMPDEST STOP JUMPDEST CALLVALUE DUP1 ISZERO PUSH2 0x3CE JUMPI PUSH1 0x0 DUP1 REVERT JUMPDEST POP PUSH2 0x3D7 PUSH2 0xDBD JUMP JUMPDEST PUSH1 0x40 MLOAD PUSH2 0x3E4 SWAP2 SWAP1 PUSH2 0x1EA6 JUMP JUMPDEST PUSH1 0x40 MLOAD DUP1 SWAP2 SUB SWAP1 RETURN JUMPDEST CALLVALUE DUP1 ISZERO PUSH2 0x3F9 JUMPI PUSH1 0x0 DUP1 REVERT JUMPDEST POP PUSH2 0x414 PUSH1 0x4 DUP1 CALLDATASIZE SUB DUP2 ADD SWAP1 PUSH2 0x40F SWAP2 SWAP1 PUSH2 0x1A5F JUMP JUMPDEST PUSH2 0xDE6 JUMP JUMPDEST STOP JUMPDEST CALLVALUE DUP1 ISZERO PUSH2 0x422 JUMPI PUSH1 0x0 DUP1 REVERT JUMPDEST POP PUSH2 0x43D PUSH1 0x4 DUP1 CALLDATASIZE SUB DUP2 ADD SWAP1 PUSH2 0x438 SWAP2 SWAP1 PUSH2 0x1DFD JUMP JUMPDEST PUSH2 0xE49 JUMP JUMPDEST STOP JUMPDEST CALLVALUE DUP1 ISZERO PUSH2 0x44B JUMPI PUSH1 0x0 DUP1 REVERT JUMPDEST POP PUSH2 0x454 PUSH2 0xE94 JUMP JUMPDEST PUSH1 0x40 MLOAD PUSH2 0x461 SWAP2 SWAP1 PUSH2 0x1EA6 JUMP JUMPDEST PUSH1 0x40 MLOAD DUP1 SWAP2 SUB SWAP1 RETURN JUMPDEST CALLVALUE DUP1 ISZERO PUSH2 0x476 JUMPI PUSH1 0x0 DUP1 REVERT JUMPDEST POP PUSH2 0x491 PUSH1 0x4 DUP1 CALLDATASIZE SUB DUP2 ADD SWAP1 PUSH2 0x48C SWAP2 SWAP1 PUSH2 0x1A5F JUMP JUMPDEST PUSH2 0xEBC JUMP JUMPDEST STOP JUMPDEST CALLVALUE DUP1 ISZERO PUSH2 0x49F JUMPI PUSH1 0x0 DUP1 REVERT JUMPDEST POP PUSH2 0x4BA PUSH1 0x4 DUP1 CALLDATASIZE SUB DUP2 ADD SWAP1 PUSH2 0x4B5 SWAP2 SWAP1 PUSH2 0x1D8E JUMP JUMPDEST PUSH2 0xED0 JUMP JUMPDEST PUSH1 0x40 MLOAD PUSH2 0x4C7 SWAP2 SWAP1 PUSH2 0x1DE2 JUMP JUMPDEST PUSH1 0x40 MLOAD DUP1 SWAP2 SUB SWAP1 RETURN JUMPDEST PUSH1 0x0 PUSH32 0x85572FFB00000000000000000000000000000000000000000000000000000000 PUSH28 0xFFFFFFFFFFFFFFFFFFFFFFFFFFFFFFFFFFFFFFFFFFFFFFFFFFFFFFFF NOT AND DUP3 PUSH28 0xFFFFFFFFFFFFFFFFFFFFFFFFFFFFFFFFFFFFFFFFFFFFFFFFFFFFFFFF NOT AND EQ DUP1 PUSH2 0x59B JUMPI POP PUSH32 0x1FFC9A700000000000000000000000000000000000000000000000000000000 PUSH28 0xFFFFFFFFFFFFFFFFFFFFFFFFFFFFFFFFFFFFFFFFFFFFFFFFFFFFFFFF NOT AND DUP3 PUSH28 0xFFFFFFFFFFFFFFFFFFFFFFFFFFFFFFFFFFFFFFFFFFFFFFFFFFFFFFFF NOT AND EQ JUMPDEST SWAP1 POP SWAP2 SWAP1 POP JUMP JUMPDEST PUSH1 0x0 PUSH2 0x5AC PUSH2 0x1632 JUMP JUMPDEST PUSH1 0x2 SLOAD PUSH1 0x3 DUP1 PUSH1 0x40 MLOAD DUP1 PUSH1 0x60 ADD PUSH1 0x40 MSTORE SWAP1 DUP2 PUSH1 0x0 DUP3 ADD PUSH1 0x40 MLOAD DUP1 PUSH1 0x40 ADD PUSH1 0x40 MSTORE SWAP1 DUP2 PUSH1 0x0 DUP3 ADD SLOAD DUP2 MSTORE PUSH1 0x20 ADD PUSH1 0x1 DUP3 ADD SLOAD DUP2 MSTORE POP POP DUP2 MSTORE PUSH1 0x20 ADD PUSH1 0x2 DUP3 ADD PUSH1 0x40 MLOAD DUP1 PUSH1 0x40 ADD PUSH1 0x40 MSTORE SWAP1 DUP2 PUSH1 0x0 DUP3 ADD PUSH1 0x2 DUP1 PUSH1 0x20 MUL PUSH1 0x40 MLOAD SWAP1 DUP2 ADD PUSH1 0x40 MSTORE DUP1 SWAP3 SWAP2 SWAP1 DUP3 PUSH1 0x2 DUP1 ISZERO PUSH2 0x631 JUMPI PUSH1 0x20 MUL DUP3 ADD SWAP2 JUMPDEST DUP2 SLOAD DUP2 MSTORE PUSH1 0x20 ADD SWAP1 PUSH1 0x1 ADD SWAP1 DUP1 DUP4 GT PUSH2 0x61D JUMPI JUMPDEST POP POP POP POP POP DUP2 MSTORE PUSH1 0x20 ADD PUSH1 0x2 DUP3 ADD PUSH1 0x2 DUP1 PUSH1 0x20 MUL PUSH1 0x40 MLOAD SWAP1 DUP2 ADD PUSH1 0x40 MSTORE DUP1 SWAP3 SWAP2 SWAP1 DUP3 PUSH1 0x2 DUP1 ISZERO PUSH2 0x676 JUMPI PUSH1 0x20 MUL DUP3 ADD SWAP2 JUMPDEST DUP2 SLOAD DUP2 MSTORE PUSH1 0x20 ADD SWAP1 PUSH1 0x1 ADD SWAP1 DUP1 DUP4 GT PUSH2 0x662 JUMPI JUMPDEST POP POP POP POP POP DUP2 MSTORE POP POP DUP2 MSTORE PUSH1 0x20 ADD PUSH1 0x6 DUP3 ADD PUSH1 0x40 MLOAD DUP1 PUSH1 0x40 ADD PUSH1 0x40 MSTORE SWAP1 DUP2 PUSH1 0x0 DUP3 ADD SLOAD DUP2 MSTORE PUSH1 0x20 ADD PUSH1 0x1 DUP3 ADD SLOAD DUP2 MSTORE POP POP DUP2 MSTORE POP POP SWAP1 POP SWAP2 POP SWAP2 POP SWAP1 SWAP2 JUMP JUMPDEST PUSH1 0xD PUSH1 0x20 MSTORE DUP1 PUSH1 0x0 MSTORE PUSH1 0x40 PUSH1 0x0 KECCAK256 PUSH1 0x0 SWAP2 POP SLOAD SWAP1 PUSH2 0x100 EXP SWAP1 DIV PUSH1 0xFF AND DUP2 JUMP JUMPDEST PUSH2 0x6DD PUSH2 0x1129 JUMP JUMPDEST PUSH1 0x1 PUSH1 0xD PUSH1 0x0 DUP4 PUSH20 0xFFFFFFFFFFFFFFFFFFFFFFFFFFFFFFFFFFFFFFFF AND PUSH20 0xFFFFFFFFFFFFFFFFFFFFFFFFFFFFFFFFFFFFFFFF AND DUP2 MSTORE PUSH1 0x20 ADD SWAP1 DUP2 MSTORE PUSH1 0x20 ADD PUSH1 0x0 KECCAK256 PUSH1 0x0 PUSH2 0x100 EXP DUP2 SLOAD DUP2 PUSH1 0xFF MUL NOT AND SWAP1 DUP4 ISZERO ISZERO MUL OR SWAP1 SSTORE POP POP JUMP JUMPDEST PUSH2 0x740 PUSH2 0x1129 JUMP JUMPDEST PUSH1 0x0 DUP2 PUSH20 0xFFFFFFFFFFFFFFFFFFFFFFFFFFFFFFFFFFFFFFFF AND PUSH4 0x70A08231 ADDRESS PUSH1 0x40 MLOAD DUP3 PUSH4 0xFFFFFFFF AND PUSH1 0xE0 SHL DUP2 MSTORE PUSH1 0x4 ADD PUSH2 0x77B SWAP2 SWAP1 PUSH2 0x1EA6 JUMP JUMPDEST PUSH1 0x20 PUSH1 0x40 MLOAD DUP1 DUP4 SUB DUP2 DUP7 GAS STATICCALL ISZERO DUP1 ISZERO PUSH2 0x798 JUMPI RETURNDATASIZE PUSH1 0x0 DUP1 RETURNDATACOPY RETURNDATASIZE PUSH1 0x0 REVERT JUMPDEST POP POP POP POP PUSH1 0x40 MLOAD RETURNDATASIZE PUSH1 0x1F NOT PUSH1 0x1F DUP3 ADD AND DUP3 ADD DUP1 PUSH1 0x40 MSTORE POP DUP2 ADD SWAP1 PUSH2 0x7BC SWAP2 SWAP1 PUSH2 0x1ED6 JUMP JUMPDEST SWAP1 POP DUP2 PUSH20 0xFFFFFFFFFFFFFFFFFFFFFFFFFFFFFFFFFFFFFFFF AND PUSH4 0xA9059CBB DUP5 DUP4 PUSH1 0x40 MLOAD DUP4 PUSH4 0xFFFFFFFF AND PUSH1 0xE0 SHL DUP2 MSTORE PUSH1 0x4 ADD PUSH2 0x7F9 SWAP3 SWAP2 SWAP1 PUSH2 0x1F12 JUMP JUMPDEST PUSH1 0x20 PUSH1 0x40 MLOAD DUP1 DUP4 SUB DUP2 PUSH1 0x0 DUP8 GAS CALL ISZERO DUP1 ISZERO PUSH2 0x818 JUMPI RETURNDATASIZE PUSH1 0x0 DUP1 RETURNDATACOPY RETURNDATASIZE PUSH1 0x0 REVERT JUMPDEST POP POP POP POP PUSH1 0x40 MLOAD RETURNDATASIZE PUSH1 0x1F NOT PUSH1 0x1F DUP3 ADD AND DUP3 ADD DUP1 PUSH1 0x40 MSTORE POP DUP2 ADD SWAP1 PUSH2 0x83C SWAP2 SWAP1 PUSH2 0x1F67 JUMP JUMPDEST POP POP POP POP JUMP JUMPDEST PUSH2 0x84A PUSH2 0x1129 JUMP JUMPDEST PUSH1 0x0 SELFBALANCE SWAP1 POP PUSH1 0x0 DUP3 PUSH20 0xFFFFFFFFFFFFFFFFFFFFFFFFFFFFFFFFFFFFFFFF AND DUP3 PUSH1 0x40 MLOAD PUSH2 0x875 SWAP1 PUSH2 0x1FC5 JUMP JUMPDEST PUSH1 0x0 PUSH1 0x40 MLOAD DUP1 DUP4 SUB DUP2 DUP6 DUP8 GAS CALL SWAP3 POP POP POP RETURNDATASIZE DUP1 PUSH1 0x0 DUP2 EQ PUSH2 0x8B2 JUMPI PUSH1 0x40 MLOAD SWAP2 POP PUSH1 0x1F NOT PUSH1 0x3F RETURNDATASIZE ADD AND DUP3 ADD PUSH1 0x40 MSTORE RETURNDATASIZE DUP3 MSTORE RETURNDATASIZE PUSH1 0x0 PUSH1 0x20 DUP5 ADD RETURNDATACOPY PUSH2 0x8B7 JUMP JUMPDEST PUSH1 0x60 SWAP2 POP JUMPDEST POP POP SWAP1 POP DUP1 PUSH2 0x8C5 JUMPI PUSH1 0x0 DUP1 REVERT JUMPDEST POP POP POP JUMP JUMPDEST PUSH1 0x0 PUSH2 0x8D4 PUSH2 0x1129 JUMP JUMPDEST PUSH1 0x0 PUSH2 0x8E2 DUP5 DUP5 PUSH1 0x0 PUSH2 0x11B9 JUMP JUMPDEST SWAP1 POP PUSH1 0x0 ADDRESS PUSH20 0xFFFFFFFFFFFFFFFFFFFFFFFFFFFFFFFFFFFFFFFF AND PUSH4 0xB0F479A1 PUSH1 0x40 MLOAD DUP2 PUSH4 0xFFFFFFFF AND PUSH1 0xE0 SHL DUP2 MSTORE PUSH1 0x4 ADD PUSH1 0x20 PUSH1 0x40 MLOAD DUP1 DUP4 SUB DUP2 DUP7 GAS STATICCALL ISZERO DUP1 ISZERO PUSH2 0x931 JUMPI RETURNDATASIZE PUSH1 0x0 DUP1 RETURNDATACOPY RETURNDATASIZE PUSH1 0x0 REVERT JUMPDEST POP POP POP POP PUSH1 0x40 MLOAD RETURNDATASIZE PUSH1 0x1F NOT PUSH1 0x1F DUP3 ADD AND DUP3 ADD DUP1 PUSH1 0x40 MSTORE POP DUP2 ADD SWAP1 PUSH2 0x955 SWAP2 SWAP1 PUSH2 0x1FEF JUMP JUMPDEST SWAP1 POP PUSH1 0x0 DUP2 PUSH20 0xFFFFFFFFFFFFFFFFFFFFFFFFFFFFFFFFFFFFFFFF AND PUSH4 0x20487DED DUP9 DUP6 PUSH1 0x40 MLOAD DUP4 PUSH4 0xFFFFFFFF AND PUSH1 0xE0 SHL DUP2 MSTORE PUSH1 0x4 ADD PUSH2 0x994 SWAP3 SWAP2 SWAP1 PUSH2 0x2222 JUMP JUMPDEST PUSH1 0x20 PUSH1 0x40 MLOAD DUP1 DUP4 SUB DUP2 DUP7 GAS STATICCALL ISZERO DUP1 ISZERO PUSH2 0x9B1 JUMPI RETURNDATASIZE PUSH1 0x0 DUP1 RETURNDATACOPY RETURNDATASIZE PUSH1 0x0 REVERT JUMPDEST POP POP POP POP PUSH1 0x40 MLOAD RETURNDATASIZE PUSH1 0x1F NOT PUSH1 0x1F DUP3 ADD AND DUP3 ADD DUP1 PUSH1 0x40 MSTORE POP DUP2 ADD SWAP1 PUSH2 0x9D5 SWAP2 SWAP1 PUSH2 0x1ED6 JUMP JUMPDEST SWAP1 POP DUP2 PUSH20 0xFFFFFFFFFFFFFFFFFFFFFFFFFFFFFFFFFFFFFFFF AND PUSH4 0x96F4E9F9 DUP3 DUP10 DUP7 PUSH1 0x40 MLOAD DUP5 PUSH4 0xFFFFFFFF AND PUSH1 0xE0 SHL DUP2 MSTORE PUSH1 0x4 ADD PUSH2 0xA13 SWAP3 SWAP2 SWAP1 PUSH2 0x2222 JUMP JUMPDEST PUSH1 0x20 PUSH1 0x40 MLOAD DUP1 DUP4 SUB DUP2 DUP6 DUP9 GAS CALL ISZERO DUP1 ISZERO PUSH2 0xA31 JUMPI RETURNDATASIZE PUSH1 0x0 DUP1 RETURNDATACOPY RETURNDATASIZE PUSH1 0x0 REVERT JUMPDEST POP POP POP POP POP PUSH1 0x40 MLOAD RETURNDATASIZE PUSH1 0x1F NOT PUSH1 0x1F DUP3 ADD AND DUP3 ADD DUP1 PUSH1 0x40 MSTORE POP DUP2 ADD SWAP1 PUSH2 0xA56 SWAP2 SWAP1 PUSH2 0x227E JUMP JUMPDEST SWAP4 POP POP POP POP SWAP4 SWAP3 POP POP POP JUMP JUMPDEST PUSH2 0xA6A PUSH2 0x1129 JUMP JUMPDEST PUSH1 0x0 PUSH1 0xB PUSH1 0x0 DUP4 PUSH8 0xFFFFFFFFFFFFFFFF AND PUSH8 0xFFFFFFFFFFFFFFFF AND DUP2 MSTORE PUSH1 0x20 ADD SWAP1 DUP2 MSTORE PUSH1 0x20 ADD PUSH1 0x0 KECCAK256 PUSH1 0x0 PUSH2 0x100 EXP DUP2 SLOAD DUP2 PUSH1 0xFF MUL NOT AND SWAP1 DUP4 ISZERO ISZERO MUL OR SWAP1 SSTORE POP POP JUMP JUMPDEST PUSH2 0xAB5 PUSH2 0x1129 JUMP JUMPDEST PUSH1 0x1 PUSH1 0xC PUSH1 0x0 DUP4 PUSH8 0xFFFFFFFFFFFFFFFF AND PUSH8 0xFFFFFFFFFFFFFFFF AND DUP2 MSTORE PUSH1 0x20 ADD SWAP1 DUP2 MSTORE PUSH1 0x20 ADD PUSH1 0x0 KECCAK256 PUSH1 0x0 PUSH2 0x100 EXP DUP2 SLOAD DUP2 PUSH1 0xFF MUL NOT AND SWAP1 DUP4 ISZERO ISZERO MUL OR SWAP1 SSTORE POP POP JUMP JUMPDEST PUSH2 0xB00 PUSH2 0x1129 JUMP JUMPDEST PUSH1 0x1 PUSH1 0xB PUSH1 0x0 DUP4 PUSH8 0xFFFFFFFFFFFFFFFF AND PUSH8 0xFFFFFFFFFFFFFFFF AND DUP2 MSTORE PUSH1 0x20 ADD SWAP1 DUP2 MSTORE PUSH1 0x20 ADD PUSH1 0x0 KECCAK256 PUSH1 0x0 PUSH2 0x100 EXP DUP2 SLOAD DUP2 PUSH1 0xFF MUL NOT AND SWAP1 DUP4 ISZERO ISZERO MUL OR SWAP1 SSTORE POP POP JUMP JUMPDEST PUSH1 0x1 PUSH1 0x0 SWAP1 SLOAD SWAP1 PUSH2 0x100 EXP SWAP1 DIV PUSH20 0xFFFFFFFFFFFFFFFFFFFFFFFFFFFFFFFFFFFFFFFF AND PUSH20 0xFFFFFFFFFFFFFFFFFFFFFFFFFFFFFFFFFFFFFFFF AND CALLER PUSH20 0xFFFFFFFFFFFFFFFFFFFFFFFFFFFFFFFFFFFFFFFF AND EQ PUSH2 0xBD3 JUMPI PUSH1 0x40 MLOAD PUSH32 0x8C379A000000000000000000000000000000000000000000000000000000000 DUP2 MSTORE PUSH1 0x4 ADD PUSH2 0xBCA SWAP1 PUSH2 0x2308 JUMP JUMPDEST PUSH1 0x40 MLOAD DUP1 SWAP2 SUB SWAP1 REVERT JUMPDEST PUSH1 0x0 DUP1 PUSH1 0x0 SWAP1 SLOAD SWAP1 PUSH2 0x100 EXP SWAP1 DIV PUSH20 0xFFFFFFFFFFFFFFFFFFFFFFFFFFFFFFFFFFFFFFFF AND SWAP1 POP CALLER PUSH1 0x0 DUP1 PUSH2 0x100 EXP DUP2 SLOAD DUP2 PUSH20 0xFFFFFFFFFFFFFFFFFFFFFFFFFFFFFFFFFFFFFFFF MUL NOT AND SWAP1 DUP4 PUSH20 0xFFFFFFFFFFFFFFFFFFFFFFFFFFFFFFFFFFFFFFFF AND MUL OR SWAP1 SSTORE POP PUSH1 0x0 PUSH1 0x1 PUSH1 0x0 PUSH2 0x100 EXP DUP2 SLOAD DUP2 PUSH20 0xFFFFFFFFFFFFFFFFFFFFFFFFFFFFFFFFFFFFFFFF MUL NOT AND SWAP1 DUP4 PUSH20 0xFFFFFFFFFFFFFFFFFFFFFFFFFFFFFFFFFFFFFFFF AND MUL OR SWAP1 SSTORE POP CALLER PUSH20 0xFFFFFFFFFFFFFFFFFFFFFFFFFFFFFFFFFFFFFFFF AND DUP2 PUSH20 0xFFFFFFFFFFFFFFFFFFFFFFFFFFFFFFFFFFFFFFFF AND PUSH32 0x8BE0079C531659141344CD1FD0A4F28419497F9722A3DAAFE3B4186F6B6457E0 PUSH1 0x40 MLOAD PUSH1 0x40 MLOAD DUP1 SWAP2 SUB SWAP1 LOG3 POP JUMP JUMPDEST PUSH1 0xC PUSH1 0x20 MSTORE DUP1 PUSH1 0x0 MSTORE PUSH1 0x40 PUSH1 0x0 KECCAK256 PUSH1 0x0 SWAP2 POP SLOAD SWAP1 PUSH2 0x100 EXP SWAP1 DIV PUSH1 0xFF AND DUP2 JUMP JUMPDEST PUSH1 0xB PUSH1 0x20 MSTORE DUP1 PUSH1 0x0 MSTORE PUSH1 0x40 PUSH1 0x0 KECCAK256 PUSH1 0x0 SWAP2 POP SLOAD SWAP1 PUSH2 0x100 EXP SWAP1 DIV PUSH1 0xFF AND DUP2 JUMP JUMPDEST PUSH32 0x0 PUSH20 0xFFFFFFFFFFFFFFFFFFFFFFFFFFFFFFFFFFFFFFFF AND CALLER PUSH20 0xFFFFFFFFFFFFFFFFFFFFFFFFFFFFFFFFFFFFFFFF AND EQ PUSH2 0xDA8 JUMPI CALLER PUSH1 0x40 MLOAD PUSH32 0xD7F7333400000000000000000000000000000000000000000000000000000000 DUP2 MSTORE PUSH1 0x4 ADD PUSH2 0xD9F SWAP2 SWAP1 PUSH2 0x1EA6 JUMP JUMPDEST PUSH1 0x40 MLOAD DUP1 SWAP2 SUB SWAP1 REVERT JUMPDEST PUSH2 0xDBA DUP2 PUSH2 0xDB5 SWAP1 PUSH2 0x25E5 JUMP JUMPDEST PUSH2 0x12C1 JUMP JUMPDEST POP JUMP JUMPDEST PUSH1 0x0 DUP1 PUSH1 0x0 SWAP1 SLOAD SWAP1 PUSH2 0x100 EXP SWAP1 DIV PUSH20 0xFFFFFFFFFFFFFFFFFFFFFFFFFFFFFFFFFFFFFFFF AND SWAP1 POP SWAP1 JUMP JUMPDEST PUSH2 0xDEE PUSH2 0x1129 JUMP JUMPDEST PUSH1 0x0 PUSH1 0xD PUSH1 0x0 DUP4 PUSH20 0xFFFFFFFFFFFFFFFFFFFFFFFFFFFFFFFFFFFFFFFF AND PUSH20 0xFFFFFFFFFFFFFFFFFFFFFFFFFFFFFFFFFFFFFFFF AND DUP2 MSTORE PUSH1 0x20 ADD SWAP1 DUP2 MSTORE PUSH1 0x20 ADD PUSH1 0x0 KECCAK256 PUSH1 0x0 PUSH2 0x100 EXP DUP2 SLOAD DUP2 PUSH1 0xFF MUL NOT AND SWAP1 DUP4 ISZERO ISZERO MUL OR SWAP1 SSTORE POP POP JUMP JUMPDEST PUSH2 0xE51 PUSH2 0x1129 JUMP JUMPDEST PUSH1 0x0 PUSH1 0xC PUSH1 0x0 DUP4 PUSH8 0xFFFFFFFFFFFFFFFF AND PUSH8 0xFFFFFFFFFFFFFFFF AND DUP2 MSTORE PUSH1 0x20 ADD SWAP1 DUP2 MSTORE PUSH1 0x20 ADD PUSH1 0x0 KECCAK256 PUSH1 0x0 PUSH2 0x100 EXP DUP2 SLOAD DUP2 PUSH1 0xFF MUL NOT AND SWAP1 DUP4 ISZERO ISZERO MUL OR SWAP1 SSTORE POP POP JUMP JUMPDEST PUSH1 0x0 PUSH32 0x0 SWAP1 POP SWAP1 JUMP JUMPDEST PUSH2 0xEC4 PUSH2 0x1129 JUMP JUMPDEST PUSH2 0xECD DUP2 PUSH2 0x1487 JUMP JUMPDEST POP JUMP JUMPDEST PUSH1 0x0 PUSH2 0xEDA PUSH2 0x1129 JUMP JUMPDEST PUSH1 0x0 PUSH2 0xF09 DUP5 DUP5 PUSH1 0xE PUSH1 0x0 SWAP1 SLOAD SWAP1 PUSH2 0x100 EXP SWAP1 DIV PUSH20 0xFFFFFFFFFFFFFFFFFFFFFFFFFFFFFFFFFFFFFFFF AND PUSH2 0x11B9 JUMP JUMPDEST SWAP1 POP PUSH1 0x0 ADDRESS PUSH20 0xFFFFFFFFFFFFFFFFFFFFFFFFFFFFFFFFFFFFFFFF AND PUSH4 0xB0F479A1 PUSH1 0x40 MLOAD DUP2 PUSH4 0xFFFFFFFF AND PUSH1 0xE0 SHL DUP2 MSTORE PUSH1 0x4 ADD PUSH1 0x20 PUSH1 0x40 MLOAD DUP1 DUP4 SUB DUP2 DUP7 GAS STATICCALL ISZERO DUP1 ISZERO PUSH2 0xF58 JUMPI RETURNDATASIZE PUSH1 0x0 DUP1 RETURNDATACOPY RETURNDATASIZE PUSH1 0x0 REVERT JUMPDEST POP POP POP POP PUSH1 0x40 MLOAD RETURNDATASIZE PUSH1 0x1F NOT PUSH1 0x1F DUP3 ADD AND DUP3 ADD DUP1 PUSH1 0x40 MSTORE POP DUP2 ADD SWAP1 PUSH2 0xF7C SWAP2 SWAP1 PUSH2 0x1FEF JUMP JUMPDEST SWAP1 POP PUSH1 0x0 DUP2 PUSH20 0xFFFFFFFFFFFFFFFFFFFFFFFFFFFFFFFFFFFFFFFF AND PUSH4 0x20487DED DUP9 DUP6 PUSH1 0x40 MLOAD DUP4 PUSH4 0xFFFFFFFF AND PUSH1 0xE0 SHL DUP2 MSTORE PUSH1 0x4 ADD PUSH2 0xFBB SWAP3 SWAP2 SWAP1 PUSH2 0x2222 JUMP JUMPDEST PUSH1 0x20 PUSH1 0x40 MLOAD DUP1 DUP4 SUB DUP2 DUP7 GAS STATICCALL ISZERO DUP1 ISZERO PUSH2 0xFD8 JUMPI RETURNDATASIZE PUSH1 0x0 DUP1 RETURNDATACOPY RETURNDATASIZE PUSH1 0x0 REVERT JUMPDEST POP POP POP POP PUSH1 0x40 MLOAD RETURNDATASIZE PUSH1 0x1F NOT PUSH1 0x1F DUP3 ADD AND DUP3 ADD DUP1 PUSH1 0x40 MSTORE POP DUP2 ADD SWAP1 PUSH2 0xFFC SWAP2 SWAP1 PUSH2 0x1ED6 JUMP JUMPDEST SWAP1 POP PUSH1 0xE PUSH1 0x0 SWAP1 SLOAD SWAP1 PUSH2 0x100 EXP SWAP1 DIV PUSH20 0xFFFFFFFFFFFFFFFFFFFFFFFFFFFFFFFFFFFFFFFF AND PUSH20 0xFFFFFFFFFFFFFFFFFFFFFFFFFFFFFFFFFFFFFFFF AND PUSH4 0x95EA7B3 DUP4 DUP4 PUSH1 0x40 MLOAD DUP4 PUSH4 0xFFFFFFFF AND PUSH1 0xE0 SHL DUP2 MSTORE PUSH1 0x4 ADD PUSH2 0x105B SWAP3 SWAP2 SWAP1 PUSH2 0x1F12 JUMP JUMPDEST PUSH1 0x20 PUSH1 0x40 MLOAD DUP1 DUP4 SUB DUP2 PUSH1 0x0 DUP8 GAS CALL ISZERO DUP1 ISZERO PUSH2 0x107A JUMPI RETURNDATASIZE PUSH1 0x0 DUP1 RETURNDATACOPY RETURNDATASIZE PUSH1 0x0 REVERT JUMPDEST POP POP POP POP PUSH1 0x40 MLOAD RETURNDATASIZE PUSH1 0x1F NOT PUSH1 0x1F DUP3 ADD AND DUP3 ADD DUP1 PUSH1 0x40 MSTORE POP DUP2 ADD SWAP1 PUSH2 0x109E SWAP2 SWAP1 PUSH2 0x1F67 JUMP JUMPDEST POP DUP2 PUSH20 0xFFFFFFFFFFFFFFFFFFFFFFFFFFFFFFFFFFFFFFFF AND PUSH4 0x96F4E9F9 DUP9 DUP6 PUSH1 0x40 MLOAD DUP4 PUSH4 0xFFFFFFFF AND PUSH1 0xE0 SHL DUP2 MSTORE PUSH1 0x4 ADD PUSH2 0x10DA SWAP3 SWAP2 SWAP1 PUSH2 0x2222 JUMP JUMPDEST PUSH1 0x20 PUSH1 0x40 MLOAD DUP1 DUP4 SUB DUP2 PUSH1 0x0 DUP8 GAS CALL ISZERO DUP1 ISZERO PUSH2 0x10F9 JUMPI RETURNDATASIZE PUSH1 0x0 DUP1 RETURNDATACOPY RETURNDATASIZE PUSH1 0x0 REVERT JUMPDEST POP POP POP POP PUSH1 0x40 MLOAD RETURNDATASIZE PUSH1 0x1F NOT PUSH1 0x1F DUP3 ADD AND DUP3 ADD DUP1 PUSH1 0x40 MSTORE POP DUP2 ADD SWAP1 PUSH2 0x111D SWAP2 SWAP1 PUSH2 0x227E JUMP JUMPDEST SWAP4 POP POP POP POP SWAP4 SWAP3 POP POP POP JUMP JUMPDEST PUSH1 0x0 DUP1 SLOAD SWAP1 PUSH2 0x100 EXP SWAP1 DIV PUSH20 0xFFFFFFFFFFFFFFFFFFFFFFFFFFFFFFFFFFFFFFFF AND PUSH20 0xFFFFFFFFFFFFFFFFFFFFFFFFFFFFFFFFFFFFFFFF AND CALLER PUSH20 0xFFFFFFFFFFFFFFFFFFFFFFFFFFFFFFFFFFFFFFFF AND EQ PUSH2 0x11B7 JUMPI PUSH1 0x40 MLOAD PUSH32 0x8C379A000000000000000000000000000000000000000000000000000000000 DUP2 MSTORE PUSH1 0x4 ADD PUSH2 0x11AE SWAP1 PUSH2 0x2644 JUMP JUMPDEST PUSH1 0x40 MLOAD DUP1 SWAP2 SUB SWAP1 REVERT JUMPDEST JUMP JUMPDEST PUSH2 0x11C1 PUSH2 0x1665 JUMP JUMPDEST PUSH1 0x0 PUSH1 0x40 MLOAD DUP1 PUSH1 0xA0 ADD PUSH1 0x40 MSTORE DUP1 DUP7 PUSH1 0x40 MLOAD PUSH1 0x20 ADD PUSH2 0x11DF SWAP2 SWAP1 PUSH2 0x1EA6 JUMP JUMPDEST PUSH1 0x40 MLOAD PUSH1 0x20 DUP2 DUP4 SUB SUB DUP2 MSTORE SWAP1 PUSH1 0x40 MSTORE DUP2 MSTORE PUSH1 0x20 ADD DUP6 PUSH1 0x40 MLOAD PUSH1 0x20 ADD PUSH2 0x1204 SWAP2 SWAP1 PUSH2 0x2664 JUMP JUMPDEST PUSH1 0x40 MLOAD PUSH1 0x20 DUP2 DUP4 SUB SUB DUP2 MSTORE SWAP1 PUSH1 0x40 MSTORE DUP2 MSTORE PUSH1 0x20 ADD PUSH1 0x0 PUSH8 0xFFFFFFFFFFFFFFFF DUP2 GT ISZERO PUSH2 0x1233 JUMPI PUSH2 0x1232 PUSH2 0x1B22 JUMP JUMPDEST JUMPDEST PUSH1 0x40 MLOAD SWAP1 DUP1 DUP3 MSTORE DUP1 PUSH1 0x20 MUL PUSH1 0x20 ADD DUP3 ADD PUSH1 0x40 MSTORE DUP1 ISZERO PUSH2 0x126C JUMPI DUP2 PUSH1 0x20 ADD JUMPDEST PUSH2 0x1259 PUSH2 0x16AA JUMP JUMPDEST DUP2 MSTORE PUSH1 0x20 ADD SWAP1 PUSH1 0x1 SWAP1 SUB SWAP1 DUP2 PUSH2 0x1251 JUMPI SWAP1 POP JUMPDEST POP DUP2 MSTORE PUSH1 0x20 ADD DUP5 PUSH20 0xFFFFFFFFFFFFFFFFFFFFFFFFFFFFFFFFFFFFFFFF AND DUP2 MSTORE PUSH1 0x20 ADD PUSH2 0x12B1 PUSH1 0x40 MLOAD DUP1 PUSH1 0x40 ADD PUSH1 0x40 MSTORE DUP1 PUSH3 0x249F0 DUP2 MSTORE PUSH1 0x20 ADD PUSH1 0x0 ISZERO ISZERO DUP2 MSTORE POP PUSH2 0x15B3 JUMP JUMPDEST DUP2 MSTORE POP SWAP1 POP DUP1 SWAP2 POP POP SWAP4 SWAP3 POP POP POP JUMP JUMPDEST DUP1 PUSH1 0x40 ADD MLOAD DUP1 PUSH1 0x20 ADD SWAP1 MLOAD DUP2 ADD SWAP1 PUSH2 0x12D9 SWAP2 SWAP1 PUSH2 0x26BE JUMP JUMPDEST PUSH1 0xD PUSH1 0x0 DUP3 PUSH20 0xFFFFFFFFFFFFFFFFFFFFFFFFFFFFFFFFFFFFFFFF AND PUSH20 0xFFFFFFFFFFFFFFFFFFFFFFFFFFFFFFFFFFFFFFFF AND DUP2 MSTORE PUSH1 0x20 ADD SWAP1 DUP2 MSTORE PUSH1 0x20 ADD PUSH1 0x0 KECCAK256 PUSH1 0x0 SWAP1 SLOAD SWAP1 PUSH2 0x100 EXP SWAP1 DIV PUSH1 0xFF AND PUSH2 0x1367 JUMPI DUP1 PUSH1 0x40 MLOAD PUSH32 0xBF3F938900000000000000000000000000000000000000000000000000000000 DUP2 MSTORE PUSH1 0x4 ADD PUSH2 0x135E SWAP2 SWAP1 PUSH2 0x1EA6 JUMP JUMPDEST PUSH1 0x40 MLOAD DUP1 SWAP2 SUB SWAP1 REVERT JUMPDEST DUP2 PUSH1 0x0 ADD MLOAD PUSH1 0x2 DUP2 SWAP1 SSTORE POP DUP2 PUSH1 0x60 ADD MLOAD DUP1 PUSH1 0x20 ADD SWAP1 MLOAD DUP2 ADD SWAP1 PUSH2 0x138A SWAP2 SWAP1 PUSH2 0x287B JUMP JUMPDEST PUSH1 0x3 PUSH1 0x0 DUP3 ADD MLOAD DUP2 PUSH1 0x0 ADD PUSH1 0x0 DUP3 ADD MLOAD DUP2 PUSH1 0x0 ADD SSTORE PUSH1 0x20 DUP3 ADD MLOAD DUP2 PUSH1 0x1 ADD SSTORE POP POP PUSH1 0x20 DUP3 ADD MLOAD DUP2 PUSH1 0x2 ADD PUSH1 0x0 DUP3 ADD MLOAD DUP2 PUSH1 0x0 ADD SWAP1 PUSH1 0x2 PUSH2 0x13CB SWAP3 SWAP2 SWAP1 PUSH2 0x16DA JUMP JUMPDEST POP PUSH1 0x20 DUP3 ADD MLOAD DUP2 PUSH1 0x2 ADD SWAP1 PUSH1 0x2 PUSH2 0x13E3 SWAP3 SWAP2 SWAP1 PUSH2 0x16DA JUMP JUMPDEST POP POP POP PUSH1 0x40 DUP3 ADD MLOAD DUP2 PUSH1 0x6 ADD PUSH1 0x0 DUP3 ADD MLOAD DUP2 PUSH1 0x0 ADD SSTORE PUSH1 0x20 DUP3 ADD MLOAD DUP2 PUSH1 0x1 ADD SSTORE POP POP SWAP1 POP POP DUP2 PUSH1 0x20 ADD MLOAD PUSH8 0xFFFFFFFFFFFFFFFF AND DUP3 PUSH1 0x0 ADD MLOAD PUSH32 0xB1E312A29937CC11967B0E4A346FEF1AE132424EBABA9DC6D90249DBA053E87C DUP5 PUSH1 0x40 ADD MLOAD DUP1 PUSH1 0x20 ADD SWAP1 MLOAD DUP2 ADD SWAP1 PUSH2 0x1455 SWAP2 SWAP1 PUSH2 0x26BE JUMP JUMPDEST DUP6 PUSH1 0x60 ADD MLOAD DUP1 PUSH1 0x20 ADD SWAP1 MLOAD DUP2 ADD SWAP1 PUSH2 0x146D SWAP2 SWAP1 PUSH2 0x294A JUMP JUMPDEST PUSH1 0x40 MLOAD PUSH2 0x147B SWAP3 SWAP2 SWAP1 PUSH2 0x2A36 JUMP JUMPDEST PUSH1 0x40 MLOAD DUP1 SWAP2 SUB SWAP1 LOG3 POP POP JUMP JUMPDEST CALLER PUSH20 0xFFFFFFFFFFFFFFFFFFFFFFFFFFFFFFFFFFFFFFFF AND DUP2 PUSH20 0xFFFFFFFFFFFFFFFFFFFFFFFFFFFFFFFFFFFFFFFF AND SUB PUSH2 0x14F5 JUMPI PUSH1 0x40 MLOAD PUSH32 0x8C379A000000000000000000000000000000000000000000000000000000000 DUP2 MSTORE PUSH1 0x4 ADD PUSH2 0x14EC SWAP1 PUSH2 0x2AB2 JUMP JUMPDEST PUSH1 0x40 MLOAD DUP1 SWAP2 SUB SWAP1 REVERT JUMPDEST DUP1 PUSH1 0x1 PUSH1 0x0 PUSH2 0x100 EXP DUP2 SLOAD DUP2 PUSH20 0xFFFFFFFFFFFFFFFFFFFFFFFFFFFFFFFFFFFFFFFF MUL NOT AND SWAP1 DUP4 PUSH20 0xFFFFFFFFFFFFFFFFFFFFFFFFFFFFFFFFFFFFFFFF AND MUL OR SWAP1 SSTORE POP DUP1 PUSH20 0xFFFFFFFFFFFFFFFFFFFFFFFFFFFFFFFFFFFFFFFF AND PUSH1 0x0 DUP1 SLOAD SWAP1 PUSH2 0x100 EXP SWAP1 DIV PUSH20 0xFFFFFFFFFFFFFFFFFFFFFFFFFFFFFFFFFFFFFFFF AND PUSH20 0xFFFFFFFFFFFFFFFFFFFFFFFFFFFFFFFFFFFFFFFF AND PUSH32 0xED8889F560326EB138920D842192F0EB3DD22B4F139C87A2C57538E05BAE1278 PUSH1 0x40 MLOAD PUSH1 0x40 MLOAD DUP1 SWAP2 SUB SWAP1 LOG3 POP JUMP JUMPDEST PUSH1 0x60 PUSH4 0x97A657C9 PUSH1 0xE0 SHL DUP3 PUSH1 0x40 MLOAD PUSH1 0x24 ADD PUSH2 0x15CE SWAP2 SWAP1 PUSH2 0x2B10 JUMP JUMPDEST PUSH1 0x40 MLOAD PUSH1 0x20 DUP2 DUP4 SUB SUB DUP2 MSTORE SWAP1 PUSH1 0x40 MSTORE SWAP1 PUSH28 0xFFFFFFFFFFFFFFFFFFFFFFFFFFFFFFFFFFFFFFFFFFFFFFFFFFFFFFFF NOT AND PUSH1 0x20 DUP3 ADD DUP1 MLOAD PUSH28 0xFFFFFFFFFFFFFFFFFFFFFFFFFFFFFFFFFFFFFFFFFFFFFFFFFFFFFFFF DUP4 DUP2 DUP4 AND OR DUP4 MSTORE POP POP POP POP SWAP1 POP SWAP2 SWAP1 POP JUMP JUMPDEST PUSH1 0x40 MLOAD DUP1 PUSH1 0x60 ADD PUSH1 0x40 MSTORE DUP1 PUSH2 0x1645 PUSH2 0x171A JUMP JUMPDEST DUP2 MSTORE PUSH1 0x20 ADD PUSH2 0x1652 PUSH2 0x1734 JUMP JUMPDEST DUP2 MSTORE PUSH1 0x20 ADD PUSH2 0x165F PUSH2 0x171A JUMP JUMPDEST DUP2 MSTORE POP SWAP1 JUMP JUMPDEST PUSH1 0x40 MLOAD DUP1 PUSH1 0xA0 ADD PUSH1 0x40 MSTORE DUP1 PUSH1 0x60 DUP2 MSTORE PUSH1 0x20 ADD PUSH1 0x60 DUP2 MSTORE PUSH1 0x20 ADD PUSH1 0x60 DUP2 MSTORE PUSH1 0x20 ADD PUSH1 0x0 PUSH20 0xFFFFFFFFFFFFFFFFFFFFFFFFFFFFFFFFFFFFFFFF AND DUP2 MSTORE PUSH1 0x20 ADD PUSH1 0x60 DUP2 MSTORE POP SWAP1 JUMP JUMPDEST PUSH1 0x40 MLOAD DUP1 PUSH1 0x40 ADD PUSH1 0x40 MSTORE DUP1 PUSH1 0x0 PUSH20 0xFFFFFFFFFFFFFFFFFFFFFFFFFFFFFFFFFFFFFFFF AND DUP2 MSTORE PUSH1 0x20 ADD PUSH1 0x0 DUP2 MSTORE POP SWAP1 JUMP JUMPDEST DUP3 PUSH1 0x2 DUP2 ADD SWAP3 DUP3 ISZERO PUSH2 0x1709 JUMPI SWAP2 PUSH1 0x20 MUL DUP3 ADD JUMPDEST DUP3 DUP2 GT ISZERO PUSH2 0x1708 JUMPI DUP3 MLOAD DUP3 SSTORE SWAP2 PUSH1 0x20 ADD SWAP2 SWAP1 PUSH1 0x1 ADD SWAP1 PUSH2 0x16ED JUMP JUMPDEST JUMPDEST POP SWAP1 POP PUSH2 0x1716 SWAP2 SWAP1 PUSH2 0x175A JUMP JUMPDEST POP SWAP1 JUMP JUMPDEST PUSH1 0x40 MLOAD DUP1 PUSH1 0x40 ADD PUSH1 0x40 MSTORE DUP1 PUSH1 0x0 DUP2 MSTORE PUSH1 0x20 ADD PUSH1 0x0 DUP2 MSTORE POP SWAP1 JUMP JUMPDEST PUSH1 0x40 MLOAD DUP1 PUSH1 0x40 ADD PUSH1 0x40 MSTORE DUP1 PUSH2 0x1747 PUSH2 0x1777 JUMP JUMPDEST DUP2 MSTORE PUSH1 0x20 ADD PUSH2 0x1754 PUSH2 0x1777 JUMP JUMPDEST DUP2 MSTORE POP SWAP1 JUMP JUMPDEST JUMPDEST DUP1 DUP3 GT ISZERO PUSH2 0x1773 JUMPI PUSH1 0x0 DUP2 PUSH1 0x0 SWAP1 SSTORE POP PUSH1 0x1 ADD PUSH2 0x175B JUMP JUMPDEST POP SWAP1 JUMP JUMPDEST PUSH1 0x40 MLOAD DUP1 PUSH1 0x40 ADD PUSH1 0x40 MSTORE DUP1 PUSH1 0x2 SWAP1 PUSH1 0x20 DUP3 MUL DUP1 CALLDATASIZE DUP4 CALLDATACOPY DUP1 DUP3 ADD SWAP2 POP POP SWAP1 POP POP SWAP1 JUMP JUMPDEST PUSH1 0x0 PUSH1 0x40 MLOAD SWAP1 POP SWAP1 JUMP JUMPDEST PUSH1 0x0 DUP1 REVERT JUMPDEST PUSH1 0x0 DUP1 REVERT JUMPDEST PUSH1 0x0 PUSH32 0xFFFFFFFF00000000000000000000000000000000000000000000000000000000 DUP3 AND SWAP1 POP SWAP2 SWAP1 POP JUMP JUMPDEST PUSH2 0x17E2 DUP2 PUSH2 0x17AD JUMP JUMPDEST DUP2 EQ PUSH2 0x17ED JUMPI PUSH1 0x0 DUP1 REVERT JUMPDEST POP JUMP JUMPDEST PUSH1 0x0 DUP2 CALLDATALOAD SWAP1 POP PUSH2 0x17FF DUP2 PUSH2 0x17D9 JUMP JUMPDEST SWAP3 SWAP2 POP POP JUMP JUMPDEST PUSH1 0x0 PUSH1 0x20 DUP3 DUP5 SUB SLT ISZERO PUSH2 0x181B JUMPI PUSH2 0x181A PUSH2 0x17A3 JUMP JUMPDEST JUMPDEST PUSH1 0x0 PUSH2 0x1829 DUP5 DUP3 DUP6 ADD PUSH2 0x17F0 JUMP JUMPDEST SWAP2 POP POP SWAP3 SWAP2 POP POP JUMP JUMPDEST PUSH1 0x0 DUP2 ISZERO ISZERO SWAP1 POP SWAP2 SWAP1 POP JUMP JUMPDEST PUSH2 0x1847 DUP2 PUSH2 0x1832 JUMP JUMPDEST DUP3 MSTORE POP POP JUMP JUMPDEST PUSH1 0x0 PUSH1 0x20 DUP3 ADD SWAP1 POP PUSH2 0x1862 PUSH1 0x0 DUP4 ADD DUP5 PUSH2 0x183E JUMP JUMPDEST SWAP3 SWAP2 POP POP JUMP JUMPDEST PUSH1 0x0 DUP2 SWAP1 POP SWAP2 SWAP1 POP JUMP JUMPDEST PUSH2 0x187B DUP2 PUSH2 0x1868 JUMP JUMPDEST DUP3 MSTORE POP POP JUMP JUMPDEST PUSH1 0x0 DUP2 SWAP1 POP SWAP2 SWAP1 POP JUMP JUMPDEST PUSH2 0x1894 DUP2 PUSH2 0x1881 JUMP JUMPDEST DUP3 MSTORE POP POP JUMP JUMPDEST PUSH1 0x40 DUP3 ADD PUSH1 0x0 DUP3 ADD MLOAD PUSH2 0x18B0 PUSH1 0x0 DUP6 ADD DUP3 PUSH2 0x188B JUMP JUMPDEST POP PUSH1 0x20 DUP3 ADD MLOAD PUSH2 0x18C3 PUSH1 0x20 DUP6 ADD DUP3 PUSH2 0x188B JUMP JUMPDEST POP POP POP POP JUMP JUMPDEST PUSH1 0x0 PUSH1 0x2 SWAP1 POP SWAP2 SWAP1 POP JUMP JUMPDEST PUSH1 0x0 DUP2 SWAP1 POP SWAP3 SWAP2 POP POP JUMP JUMPDEST PUSH1 0x0 DUP2 SWAP1 POP SWAP2 SWAP1 POP JUMP JUMPDEST PUSH1 0x0 PUSH2 0x18F5 DUP4 DUP4 PUSH2 0x188B JUMP JUMPDEST PUSH1 0x20 DUP4 ADD SWAP1 POP SWAP3 SWAP2 POP POP JUMP JUMPDEST PUSH1 0x0 PUSH1 0x20 DUP3 ADD SWAP1 POP SWAP2 SWAP1 POP JUMP JUMPDEST PUSH2 0x1917 DUP2 PUSH2 0x18C9 JUMP JUMPDEST PUSH2 0x1921 DUP2 DUP5 PUSH2 0x18D4 JUMP JUMPDEST SWAP3 POP PUSH2 0x192C DUP3 PUSH2 0x18DF JUMP JUMPDEST DUP1 PUSH1 0x0 JUMPDEST DUP4 DUP2 LT ISZERO PUSH2 0x195D JUMPI DUP2 MLOAD PUSH2 0x1944 DUP8 DUP3 PUSH2 0x18E9 JUMP JUMPDEST SWAP7 POP PUSH2 0x194F DUP4 PUSH2 0x1901 JUMP JUMPDEST SWAP3 POP POP PUSH1 0x1 DUP2 ADD SWAP1 POP PUSH2 0x1930 JUMP JUMPDEST POP POP POP POP POP POP JUMP JUMPDEST PUSH1 0x80 DUP3 ADD PUSH1 0x0 DUP3 ADD MLOAD PUSH2 0x197B PUSH1 0x0 DUP6 ADD DUP3 PUSH2 0x190E JUMP JUMPDEST POP PUSH1 0x20 DUP3 ADD MLOAD PUSH2 0x198E PUSH1 0x40 DUP6 ADD DUP3 PUSH2 0x190E JUMP JUMPDEST POP POP POP POP JUMP JUMPDEST PUSH2 0x100 DUP3 ADD PUSH1 0x0 DUP3 ADD MLOAD PUSH2 0x19AB PUSH1 0x0 DUP6 ADD DUP3 PUSH2 0x189A JUMP JUMPDEST POP PUSH1 0x20 DUP3 ADD MLOAD PUSH2 0x19BE PUSH1 0x40 DUP6 ADD DUP3 PUSH2 0x1965 JUMP JUMPDEST POP PUSH1 0x40 DUP3 ADD MLOAD PUSH2 0x19D1 PUSH1 0xC0 DUP6 ADD DUP3 PUSH2 0x189A JUMP JUMPDEST POP POP POP POP JUMP JUMPDEST PUSH1 0x0 PUSH2 0x120 DUP3 ADD SWAP1 POP PUSH2 0x19ED PUSH1 0x0 DUP4 ADD DUP6 PUSH2 0x1872 JUMP JUMPDEST PUSH2 0x19FA PUSH1 0x20 DUP4 ADD DUP5 PUSH2 0x1994 JUMP JUMPDEST SWAP4 SWAP3 POP POP POP JUMP JUMPDEST PUSH1 0x0 PUSH20 0xFFFFFFFFFFFFFFFFFFFFFFFFFFFFFFFFFFFFFFFF DUP3 AND SWAP1 POP SWAP2 SWAP1 POP JUMP JUMPDEST PUSH1 0x0 PUSH2 0x1A2C DUP3 PUSH2 0x1A01 JUMP JUMPDEST SWAP1 POP SWAP2 SWAP1 POP JUMP JUMPDEST PUSH2 0x1A3C DUP2 PUSH2 0x1A21 JUMP JUMPDEST DUP2 EQ PUSH2 0x1A47 JUMPI PUSH1 0x0 DUP1 REVERT JUMPDEST POP JUMP JUMPDEST PUSH1 0x0 DUP2 CALLDATALOAD SWAP1 POP PUSH2 0x1A59 DUP2 PUSH2 0x1A33 JUMP JUMPDEST SWAP3 SWAP2 POP POP JUMP JUMPDEST PUSH1 0x0 PUSH1 0x20 DUP3 DUP5 SUB SLT ISZERO PUSH2 0x1A75 JUMPI PUSH2 0x1A74 PUSH2 0x17A3 JUMP JUMPDEST JUMPDEST PUSH1 0x0 PUSH2 0x1A83 DUP5 DUP3 DUP6 ADD PUSH2 0x1A4A JUMP JUMPDEST SWAP2 POP POP SWAP3 SWAP2 POP POP JUMP JUMPDEST PUSH1 0x0 DUP1 PUSH1 0x40 DUP4 DUP6 SUB SLT ISZERO PUSH2 0x1AA3 JUMPI PUSH2 0x1AA2 PUSH2 0x17A3 JUMP JUMPDEST JUMPDEST PUSH1 0x0 PUSH2 0x1AB1 DUP6 DUP3 DUP7 ADD PUSH2 0x1A4A JUMP JUMPDEST SWAP3 POP POP PUSH1 0x20 PUSH2 0x1AC2 DUP6 DUP3 DUP7 ADD PUSH2 0x1A4A JUMP JUMPDEST SWAP2 POP POP SWAP3 POP SWAP3 SWAP1 POP JUMP JUMPDEST PUSH1 0x0 PUSH8 0xFFFFFFFFFFFFFFFF DUP3 AND SWAP1 POP SWAP2 SWAP1 POP JUMP JUMPDEST PUSH2 0x1AE9 DUP2 PUSH2 0x1ACC JUMP JUMPDEST DUP2 EQ PUSH2 0x1AF4 JUMPI PUSH1 0x0 DUP1 REVERT JUMPDEST POP JUMP JUMPDEST PUSH1 0x0 DUP2 CALLDATALOAD SWAP1 POP PUSH2 0x1B06 DUP2 PUSH2 0x1AE0 JUMP JUMPDEST SWAP3 SWAP2 POP POP JUMP JUMPDEST PUSH1 0x0 DUP1 REVERT JUMPDEST PUSH1 0x0 PUSH1 0x1F NOT PUSH1 0x1F DUP4 ADD AND SWAP1 POP SWAP2 SWAP1 POP JUMP JUMPDEST PUSH32 0x4E487B7100000000000000000000000000000000000000000000000000000000 PUSH1 0x0 MSTORE PUSH1 0x41 PUSH1 0x4 MSTORE PUSH1 0x24 PUSH1 0x0 REVERT JUMPDEST PUSH2 0x1B5A DUP3 PUSH2 0x1B11 JUMP JUMPDEST DUP2 ADD DUP2 DUP2 LT PUSH8 0xFFFFFFFFFFFFFFFF DUP3 GT OR ISZERO PUSH2 0x1B79 JUMPI PUSH2 0x1B78 PUSH2 0x1B22 JUMP JUMPDEST JUMPDEST DUP1 PUSH1 0x40 MSTORE POP POP POP JUMP JUMPDEST PUSH1 0x0 PUSH2 0x1B8C PUSH2 0x1799 JUMP JUMPDEST SWAP1 POP PUSH2 0x1B98 DUP3 DUP3 PUSH2 0x1B51 JUMP JUMPDEST SWAP2 SWAP1 POP JUMP JUMPDEST PUSH1 0x0 DUP1 REVERT JUMPDEST PUSH2 0x1BAB DUP2 PUSH2 0x1881 JUMP JUMPDEST DUP2 EQ PUSH2 0x1BB6 JUMPI PUSH1 0x0 DUP1 REVERT JUMPDEST POP JUMP JUMPDEST PUSH1 0x0 DUP2 CALLDATALOAD SWAP1 POP PUSH2 0x1BC8 DUP2 PUSH2 0x1BA2 JUMP JUMPDEST SWAP3 SWAP2 POP POP JUMP JUMPDEST PUSH1 0x0 PUSH1 0x40 DUP3 DUP5 SUB SLT ISZERO PUSH2 0x1BE4 JUMPI PUSH2 0x1BE3 PUSH2 0x1B0C JUMP JUMPDEST JUMPDEST PUSH2 0x1BEE PUSH1 0x40 PUSH2 0x1B82 JUMP JUMPDEST SWAP1 POP PUSH1 0x0 PUSH2 0x1BFE DUP5 DUP3 DUP6 ADD PUSH2 0x1BB9 JUMP JUMPDEST PUSH1 0x0 DUP4 ADD MSTORE POP PUSH1 0x20 PUSH2 0x1C12 DUP5 DUP3 DUP6 ADD PUSH2 0x1BB9 JUMP JUMPDEST PUSH1 0x20 DUP4 ADD MSTORE POP SWAP3 SWAP2 POP POP JUMP JUMPDEST PUSH1 0x0 DUP1 REVERT JUMPDEST PUSH1 0x0 PUSH8 0xFFFFFFFFFFFFFFFF DUP3 GT ISZERO PUSH2 0x1C3E JUMPI PUSH2 0x1C3D PUSH2 0x1B22 JUMP JUMPDEST JUMPDEST PUSH1 0x20 DUP3 MUL SWAP1 POP SWAP2 SWAP1 POP JUMP JUMPDEST PUSH1 0x0 DUP1 REVERT JUMPDEST PUSH1 0x0 PUSH2 0x1C61 PUSH2 0x1C5C DUP5 PUSH2 0x1C23 JUMP JUMPDEST PUSH2 0x1B82 JUMP JUMPDEST SWAP1 POP DUP1 PUSH1 0x20 DUP5 MUL DUP4 ADD DUP6 DUP2 GT ISZERO PUSH2 0x1C7B JUMPI PUSH2 0x1C7A PUSH2 0x1C49 JUMP JUMPDEST JUMPDEST DUP4 JUMPDEST DUP2 DUP2 LT ISZERO PUSH2 0x1CA4 JUMPI DUP1 PUSH2 0x1C90 DUP9 DUP3 PUSH2 0x1BB9 JUMP JUMPDEST DUP5 MSTORE PUSH1 0x20 DUP5 ADD SWAP4 POP POP PUSH1 0x20 DUP2 ADD SWAP1 POP PUSH2 0x1C7D JUMP JUMPDEST POP POP POP SWAP4 SWAP3 POP POP POP JUMP JUMPDEST PUSH1 0x0 DUP3 PUSH1 0x1F DUP4 ADD SLT PUSH2 0x1CC3 JUMPI PUSH2 0x1CC2 PUSH2 0x1C1E JUMP JUMPDEST JUMPDEST PUSH1 0x2 PUSH2 0x1CD0 DUP5 DUP3 DUP6 PUSH2 0x1C4E JUMP JUMPDEST SWAP2 POP POP SWAP3 SWAP2 POP POP JUMP JUMPDEST PUSH1 0x0 PUSH1 0x80 DUP3 DUP5 SUB SLT ISZERO PUSH2 0x1CEF JUMPI PUSH2 0x1CEE PUSH2 0x1B0C JUMP JUMPDEST JUMPDEST PUSH2 0x1CF9 PUSH1 0x40 PUSH2 0x1B82 JUMP JUMPDEST SWAP1 POP PUSH1 0x0 PUSH2 0x1D09 DUP5 DUP3 DUP6 ADD PUSH2 0x1CAE JUMP JUMPDEST PUSH1 0x0 DUP4 ADD MSTORE POP PUSH1 0x40 PUSH2 0x1D1D DUP5 DUP3 DUP6 ADD PUSH2 0x1CAE JUMP JUMPDEST PUSH1 0x20 DUP4 ADD MSTORE POP SWAP3 SWAP2 POP POP JUMP JUMPDEST PUSH1 0x0 PUSH2 0x100 DUP3 DUP5 SUB SLT ISZERO PUSH2 0x1D40 JUMPI PUSH2 0x1D3F PUSH2 0x1B0C JUMP JUMPDEST JUMPDEST PUSH2 0x1D4A PUSH1 0x60 PUSH2 0x1B82 JUMP JUMPDEST SWAP1 POP PUSH1 0x0 PUSH2 0x1D5A DUP5 DUP3 DUP6 ADD PUSH2 0x1BCE JUMP JUMPDEST PUSH1 0x0 DUP4 ADD MSTORE POP PUSH1 0x40 PUSH2 0x1D6E DUP5 DUP3 DUP6 ADD PUSH2 0x1CD9 JUMP JUMPDEST PUSH1 0x20 DUP4 ADD MSTORE POP PUSH1 0xC0 PUSH2 0x1D82 DUP5 DUP3 DUP6 ADD PUSH2 0x1BCE JUMP JUMPDEST PUSH1 0x40 DUP4 ADD MSTORE POP SWAP3 SWAP2 POP POP JUMP JUMPDEST PUSH1 0x0 DUP1 PUSH1 0x0 PUSH2 0x140 DUP5 DUP7 SUB SLT ISZERO PUSH2 0x1DA8 JUMPI PUSH2 0x1DA7 PUSH2 0x17A3 JUMP JUMPDEST JUMPDEST PUSH1 0x0 PUSH2 0x1DB6 DUP7 DUP3 DUP8 ADD PUSH2 0x1AF7 JUMP JUMPDEST SWAP4 POP POP PUSH1 0x20 PUSH2 0x1DC7 DUP7 DUP3 DUP8 ADD PUSH2 0x1A4A JUMP JUMPDEST SWAP3 POP POP PUSH1 0x40 PUSH2 0x1DD8 DUP7 DUP3 DUP8 ADD PUSH2 0x1D29 JUMP JUMPDEST SWAP2 POP POP SWAP3 POP SWAP3 POP SWAP3 JUMP JUMPDEST PUSH1 0x0 PUSH1 0x20 DUP3 ADD SWAP1 POP PUSH2 0x1DF7 PUSH1 0x0 DUP4 ADD DUP5 PUSH2 0x1872 JUMP JUMPDEST SWAP3 SWAP2 POP POP JUMP JUMPDEST PUSH1 0x0 PUSH1 0x20 DUP3 DUP5 SUB SLT ISZERO PUSH2 0x1E13 JUMPI PUSH2 0x1E12 PUSH2 0x17A3 JUMP JUMPDEST JUMPDEST PUSH1 0x0 PUSH2 0x1E21 DUP5 DUP3 DUP6 ADD PUSH2 0x1AF7 JUMP JUMPDEST SWAP2 POP POP SWAP3 SWAP2 POP POP JUMP JUMPDEST PUSH1 0x0 DUP1 REVERT JUMPDEST PUSH1 0x0 PUSH1 0xA0 DUP3 DUP5 SUB SLT ISZERO PUSH2 0x1E45 JUMPI PUSH2 0x1E44 PUSH2 0x1E2A JUMP JUMPDEST JUMPDEST DUP2 SWAP1 POP SWAP3 SWAP2 POP POP JUMP JUMPDEST PUSH1 0x0 PUSH1 0x20 DUP3 DUP5 SUB SLT ISZERO PUSH2 0x1E64 JUMPI PUSH2 0x1E63 PUSH2 0x17A3 JUMP JUMPDEST JUMPDEST PUSH1 0x0 DUP3 ADD CALLDATALOAD PUSH8 0xFFFFFFFFFFFFFFFF DUP2 GT ISZERO PUSH2 0x1E82 JUMPI PUSH2 0x1E81 PUSH2 0x17A8 JUMP JUMPDEST JUMPDEST PUSH2 0x1E8E DUP5 DUP3 DUP6 ADD PUSH2 0x1E2F JUMP JUMPDEST SWAP2 POP POP SWAP3 SWAP2 POP POP JUMP JUMPDEST PUSH2 0x1EA0 DUP2 PUSH2 0x1A21 JUMP JUMPDEST DUP3 MSTORE POP POP JUMP JUMPDEST PUSH1 0x0 PUSH1 0x20 DUP3 ADD SWAP1 POP PUSH2 0x1EBB PUSH1 0x0 DUP4 ADD DUP5 PUSH2 0x1E97 JUMP JUMPDEST SWAP3 SWAP2 POP POP JUMP JUMPDEST PUSH1 0x0 DUP2 MLOAD SWAP1 POP PUSH2 0x1ED0 DUP2 PUSH2 0x1BA2 JUMP JUMPDEST SWAP3 SWAP2 POP POP JUMP JUMPDEST PUSH1 0x0 PUSH1 0x20 DUP3 DUP5 SUB SLT ISZERO PUSH2 0x1EEC JUMPI PUSH2 0x1EEB PUSH2 0x17A3 JUMP JUMPDEST JUMPDEST PUSH1 0x0 PUSH2 0x1EFA DUP5 DUP3 DUP6 ADD PUSH2 0x1EC1 JUMP JUMPDEST SWAP2 POP POP SWAP3 SWAP2 POP POP JUMP JUMPDEST PUSH2 0x1F0C DUP2 PUSH2 0x1881 JUMP JUMPDEST DUP3 MSTORE POP POP JUMP JUMPDEST PUSH1 0x0 PUSH1 0x40 DUP3 ADD SWAP1 POP PUSH2 0x1F27 PUSH1 0x0 DUP4 ADD DUP6 PUSH2 0x1E97 JUMP JUMPDEST PUSH2 0x1F34 PUSH1 0x20 DUP4 ADD DUP5 PUSH2 0x1F03 JUMP JUMPDEST SWAP4 SWAP3 POP POP POP JUMP JUMPDEST PUSH2 0x1F44 DUP2 PUSH2 0x1832 JUMP JUMPDEST DUP2 EQ PUSH2 0x1F4F JUMPI PUSH1 0x0 DUP1 REVERT JUMPDEST POP JUMP JUMPDEST PUSH1 0x0 DUP2 MLOAD SWAP1 POP PUSH2 0x1F61 DUP2 PUSH2 0x1F3B JUMP JUMPDEST SWAP3 SWAP2 POP POP JUMP JUMPDEST PUSH1 0x0 PUSH1 0x20 DUP3 DUP5 SUB SLT ISZERO PUSH2 0x1F7D JUMPI PUSH2 0x1F7C PUSH2 0x17A3 JUMP JUMPDEST JUMPDEST PUSH1 0x0 PUSH2 0x1F8B DUP5 DUP3 DUP6 ADD PUSH2 0x1F52 JUMP JUMPDEST SWAP2 POP POP SWAP3 SWAP2 POP POP JUMP JUMPDEST PUSH1 0x0 DUP2 SWAP1 POP SWAP3 SWAP2 POP POP JUMP JUMPDEST POP JUMP JUMPDEST PUSH1 0x0 PUSH2 0x1FAF PUSH1 0x0 DUP4 PUSH2 0x1F94 JUMP JUMPDEST SWAP2 POP PUSH2 0x1FBA DUP3 PUSH2 0x1F9F JUMP JUMPDEST PUSH1 0x0 DUP3 ADD SWAP1 POP SWAP2 SWAP1 POP JUMP JUMPDEST PUSH1 0x0 PUSH2 0x1FD0 DUP3 PUSH2 0x1FA2 JUMP JUMPDEST SWAP2 POP DUP2 SWAP1 POP SWAP2 SWAP1 POP JUMP JUMPDEST PUSH1 0x0 DUP2 MLOAD SWAP1 POP PUSH2 0x1FE9 DUP2 PUSH2 0x1A33 JUMP JUMPDEST SWAP3 SWAP2 POP POP JUMP JUMPDEST PUSH1 0x0 PUSH1 0x20 DUP3 DUP5 SUB SLT ISZERO PUSH2 0x2005 JUMPI PUSH2 0x2004 PUSH2 0x17A3 JUMP JUMPDEST JUMPDEST PUSH1 0x0 PUSH2 0x2013 DUP5 DUP3 DUP6 ADD PUSH2 0x1FDA JUMP JUMPDEST SWAP2 POP POP SWAP3 SWAP2 POP POP JUMP JUMPDEST PUSH2 0x2025 DUP2 PUSH2 0x1ACC JUMP JUMPDEST DUP3 MSTORE POP POP JUMP JUMPDEST PUSH1 0x0 DUP2 MLOAD SWAP1 POP SWAP2 SWAP1 POP JUMP JUMPDEST PUSH1 0x0 DUP3 DUP3 MSTORE PUSH1 0x20 DUP3 ADD SWAP1 POP SWAP3 SWAP2 POP POP JUMP JUMPDEST PUSH1 0x0 JUMPDEST DUP4 DUP2 LT ISZERO PUSH2 0x2065 JUMPI DUP1 DUP3 ADD MLOAD DUP2 DUP5 ADD MSTORE PUSH1 0x20 DUP2 ADD SWAP1 POP PUSH2 0x204A JUMP JUMPDEST PUSH1 0x0 DUP5 DUP5 ADD MSTORE POP POP POP POP JUMP JUMPDEST PUSH1 0x0 PUSH2 0x207C DUP3 PUSH2 0x202B JUMP JUMPDEST PUSH2 0x2086 DUP2 DUP6 PUSH2 0x2036 JUMP JUMPDEST SWAP4 POP PUSH2 0x2096 DUP2 DUP6 PUSH1 0x20 DUP7 ADD PUSH2 0x2047 JUMP JUMPDEST PUSH2 0x209F DUP2 PUSH2 0x1B11 JUMP JUMPDEST DUP5 ADD SWAP2 POP POP SWAP3 SWAP2 POP POP JUMP JUMPDEST PUSH1 0x0 DUP2 MLOAD SWAP1 POP SWAP2 SWAP1 POP JUMP JUMPDEST PUSH1 0x0 DUP3 DUP3 MSTORE PUSH1 0x20 DUP3 ADD SWAP1 POP SWAP3 SWAP2 POP POP JUMP JUMPDEST PUSH1 0x0 DUP2 SWAP1 POP PUSH1 0x20 DUP3 ADD SWAP1 POP SWAP2 SWAP1 POP JUMP JUMPDEST PUSH2 0x20DF DUP2 PUSH2 0x1A21 JUMP JUMPDEST DUP3 MSTORE POP POP JUMP JUMPDEST PUSH1 0x40 DUP3 ADD PUSH1 0x0 DUP3 ADD MLOAD PUSH2 0x20FB PUSH1 0x0 DUP6 ADD DUP3 PUSH2 0x20D6 JUMP JUMPDEST POP PUSH1 0x20 DUP3 ADD MLOAD PUSH2 0x210E PUSH1 0x20 DUP6 ADD DUP3 PUSH2 0x188B JUMP JUMPDEST POP POP POP POP JUMP JUMPDEST PUSH1 0x0 PUSH2 0x2120 DUP4 DUP4 PUSH2 0x20E5 JUMP JUMPDEST PUSH1 0x40 DUP4 ADD SWAP1 POP SWAP3 SWAP2 POP POP JUMP JUMPDEST PUSH1 0x0 PUSH1 0x20 DUP3 ADD SWAP1 POP SWAP2 SWAP1 POP JUMP JUMPDEST PUSH1 0x0 PUSH2 0x2144 DUP3 PUSH2 0x20AA JUMP JUMPDEST PUSH2 0x214E DUP2 DUP6 PUSH2 0x20B5 JUMP JUMPDEST SWAP4 POP PUSH2 0x2159 DUP4 PUSH2 0x20C6 JUMP JUMPDEST DUP1 PUSH1 0x0 JUMPDEST DUP4 DUP2 LT ISZERO PUSH2 0x218A JUMPI DUP2 MLOAD PUSH2 0x2171 DUP9 DUP3 PUSH2 0x2114 JUMP JUMPDEST SWAP8 POP PUSH2 0x217C DUP4 PUSH2 0x212C JUMP JUMPDEST SWAP3 POP POP PUSH1 0x1 DUP2 ADD SWAP1 POP PUSH2 0x215D JUMP JUMPDEST POP DUP6 SWAP4 POP POP POP POP SWAP3 SWAP2 POP POP JUMP JUMPDEST PUSH1 0x0 PUSH1 0xA0 DUP4 ADD PUSH1 0x0 DUP4 ADD MLOAD DUP5 DUP3 SUB PUSH1 0x0 DUP7 ADD MSTORE PUSH2 0x21B4 DUP3 DUP3 PUSH2 0x2071 JUMP JUMPDEST SWAP2 POP POP PUSH1 0x20 DUP4 ADD MLOAD DUP5 DUP3 SUB PUSH1 0x20 DUP7 ADD MSTORE PUSH2 0x21CE DUP3 DUP3 PUSH2 0x2071 JUMP JUMPDEST SWAP2 POP POP PUSH1 0x40 DUP4 ADD MLOAD DUP5 DUP3 SUB PUSH1 0x40 DUP7 ADD MSTORE PUSH2 0x21E8 DUP3 DUP3 PUSH2 0x2139 JUMP JUMPDEST SWAP2 POP POP PUSH1 0x60 DUP4 ADD MLOAD PUSH2 0x21FD PUSH1 0x60 DUP7 ADD DUP3 PUSH2 0x20D6 JUMP JUMPDEST POP PUSH1 0x80 DUP4 ADD MLOAD DUP5 DUP3 SUB PUSH1 0x80 DUP7 ADD MSTORE PUSH2 0x2215 DUP3 DUP3 PUSH2 0x2071 JUMP JUMPDEST SWAP2 POP POP DUP1 SWAP2 POP POP SWAP3 SWAP2 POP POP JUMP JUMPDEST PUSH1 0x0 PUSH1 0x40 DUP3 ADD SWAP1 POP PUSH2 0x2237 PUSH1 0x0 DUP4 ADD DUP6 PUSH2 0x201C JUMP JUMPDEST DUP2 DUP2 SUB PUSH1 0x20 DUP4 ADD MSTORE PUSH2 0x2249 DUP2 DUP5 PUSH2 0x2197 JUMP JUMPDEST SWAP1 POP SWAP4 SWAP3 POP POP POP JUMP JUMPDEST PUSH2 0x225B DUP2 PUSH2 0x1868 JUMP JUMPDEST DUP2 EQ PUSH2 0x2266 JUMPI PUSH1 0x0 DUP1 REVERT JUMPDEST POP JUMP JUMPDEST PUSH1 0x0 DUP2 MLOAD SWAP1 POP PUSH2 0x2278 DUP2 PUSH2 0x2252 JUMP JUMPDEST SWAP3 SWAP2 POP POP JUMP JUMPDEST PUSH1 0x0 PUSH1 0x20 DUP3 DUP5 SUB SLT ISZERO PUSH2 0x2294 JUMPI PUSH2 0x2293 PUSH2 0x17A3 JUMP JUMPDEST JUMPDEST PUSH1 0x0 PUSH2 0x22A2 DUP5 DUP3 DUP6 ADD PUSH2 0x2269 JUMP JUMPDEST SWAP2 POP POP SWAP3 SWAP2 POP POP JUMP JUMPDEST PUSH1 0x0 DUP3 DUP3 MSTORE PUSH1 0x20 DUP3 ADD SWAP1 POP SWAP3 SWAP2 POP POP JUMP JUMPDEST PUSH32 0x4D7573742062652070726F706F736564206F776E657200000000000000000000 PUSH1 0x0 DUP3 ADD MSTORE POP JUMP JUMPDEST PUSH1 0x0 PUSH2 0x22F2 PUSH1 0x16 DUP4 PUSH2 0x22AB JUMP JUMPDEST SWAP2 POP PUSH2 0x22FD DUP3 PUSH2 0x22BC JUMP JUMPDEST PUSH1 0x20 DUP3 ADD SWAP1 POP SWAP2 SWAP1 POP JUMP JUMPDEST PUSH1 0x0 PUSH1 0x20 DUP3 ADD SWAP1 POP DUP2 DUP2 SUB PUSH1 0x0 DUP4 ADD MSTORE PUSH2 0x2321 DUP2 PUSH2 0x22E5 JUMP JUMPDEST SWAP1 POP SWAP2 SWAP1 POP JUMP JUMPDEST PUSH1 0x0 DUP2 CALLDATALOAD SWAP1 POP PUSH2 0x2337 DUP2 PUSH2 0x2252 JUMP JUMPDEST SWAP3 SWAP2 POP POP JUMP JUMPDEST PUSH1 0x0 DUP1 REVERT JUMPDEST PUSH1 0x0 PUSH8 0xFFFFFFFFFFFFFFFF DUP3 GT ISZERO PUSH2 0x235D JUMPI PUSH2 0x235C PUSH2 0x1B22 JUMP JUMPDEST JUMPDEST PUSH2 0x2366 DUP3 PUSH2 0x1B11 JUMP JUMPDEST SWAP1 POP PUSH1 0x20 DUP2 ADD SWAP1 POP SWAP2 SWAP1 POP JUMP JUMPDEST DUP3 DUP2 DUP4 CALLDATACOPY PUSH1 0x0 DUP4 DUP4 ADD MSTORE POP POP POP JUMP JUMPDEST PUSH1 0x0 PUSH2 0x2395 PUSH2 0x2390 DUP5 PUSH2 0x2342 JUMP JUMPDEST PUSH2 0x1B82 JUMP JUMPDEST SWAP1 POP DUP3 DUP2 MSTORE PUSH1 0x20 DUP2 ADD DUP5 DUP5 DUP5 ADD GT ISZERO PUSH2 0x23B1 JUMPI PUSH2 0x23B0 PUSH2 0x233D JUMP JUMPDEST JUMPDEST PUSH2 0x23BC DUP5 DUP3 DUP6 PUSH2 0x2373 JUMP JUMPDEST POP SWAP4 SWAP3 POP POP POP JUMP JUMPDEST PUSH1 0x0 DUP3 PUSH1 0x1F DUP4 ADD SLT PUSH2 0x23D9 JUMPI PUSH2 0x23D8 PUSH2 0x1C1E JUMP JUMPDEST JUMPDEST DUP2 CALLDATALOAD PUSH2 0x23E9 DUP5 DUP3 PUSH1 0x20 DUP7 ADD PUSH2 0x2382 JUMP JUMPDEST SWAP2 POP POP SWAP3 SWAP2 POP POP JUMP JUMPDEST PUSH1 0x0 PUSH8 0xFFFFFFFFFFFFFFFF DUP3 GT ISZERO PUSH2 0x240D JUMPI PUSH2 0x240C PUSH2 0x1B22 JUMP JUMPDEST JUMPDEST PUSH1 0x20 DUP3 MUL SWAP1 POP PUSH1 0x20 DUP2 ADD SWAP1 POP SWAP2 SWAP1 POP JUMP JUMPDEST PUSH1 0x0 PUSH1 0x40 DUP3 DUP5 SUB SLT ISZERO PUSH2 0x2434 JUMPI PUSH2 0x2433 PUSH2 0x1B0C JUMP JUMPDEST JUMPDEST PUSH2 0x243E PUSH1 0x40 PUSH2 0x1B82 JUMP JUMPDEST SWAP1 POP PUSH1 0x0 PUSH2 0x244E DUP5 DUP3 DUP6 ADD PUSH2 0x1A4A JUMP JUMPDEST PUSH1 0x0 DUP4 ADD MSTORE POP PUSH1 0x20 PUSH2 0x2462 DUP5 DUP3 DUP6 ADD PUSH2 0x1BB9 JUMP JUMPDEST PUSH1 0x20 DUP4 ADD MSTORE POP SWAP3 SWAP2 POP POP JUMP JUMPDEST PUSH1 0x0 PUSH2 0x2481 PUSH2 0x247C DUP5 PUSH2 0x23F2 JUMP JUMPDEST PUSH2 0x1B82 JUMP JUMPDEST SWAP1 POP DUP1 DUP4 DUP3 MSTORE PUSH1 0x20 DUP3 ADD SWAP1 POP PUSH1 0x40 DUP5 MUL DUP4 ADD DUP6 DUP2 GT ISZERO PUSH2 0x24A4 JUMPI PUSH2 0x24A3 PUSH2 0x1C49 JUMP JUMPDEST JUMPDEST DUP4 JUMPDEST DUP2 DUP2 LT ISZERO PUSH2 0x24CD JUMPI DUP1 PUSH2 0x24B9 DUP9 DUP3 PUSH2 0x241E JUMP JUMPDEST DUP5 MSTORE PUSH1 0x20 DUP5 ADD SWAP4 POP POP PUSH1 0x40 DUP2 ADD SWAP1 POP PUSH2 0x24A6 JUMP JUMPDEST POP POP POP SWAP4 SWAP3 POP POP POP JUMP JUMPDEST PUSH1 0x0 DUP3 PUSH1 0x1F DUP4 ADD SLT PUSH2 0x24EC JUMPI PUSH2 0x24EB PUSH2 0x1C1E JUMP JUMPDEST JUMPDEST DUP2 CALLDATALOAD PUSH2 0x24FC DUP5 DUP3 PUSH1 0x20 DUP7 ADD PUSH2 0x246E JUMP JUMPDEST SWAP2 POP POP SWAP3 SWAP2 POP POP JUMP JUMPDEST PUSH1 0x0 PUSH1 0xA0 DUP3 DUP5 SUB SLT ISZERO PUSH2 0x251B JUMPI PUSH2 0x251A PUSH2 0x1B0C JUMP JUMPDEST JUMPDEST PUSH2 0x2525 PUSH1 0xA0 PUSH2 0x1B82 JUMP JUMPDEST SWAP1 POP PUSH1 0x0 PUSH2 0x2535 DUP5 DUP3 DUP6 ADD PUSH2 0x2328 JUMP JUMPDEST PUSH1 0x0 DUP4 ADD MSTORE POP PUSH1 0x20 PUSH2 0x2549 DUP5 DUP3 DUP6 ADD PUSH2 0x1AF7 JUMP JUMPDEST PUSH1 0x20 DUP4 ADD MSTORE POP PUSH1 0x40 DUP3 ADD CALLDATALOAD PUSH8 0xFFFFFFFFFFFFFFFF DUP2 GT ISZERO PUSH2 0x256D JUMPI PUSH2 0x256C PUSH2 0x1B9D JUMP JUMPDEST JUMPDEST PUSH2 0x2579 DUP5 DUP3 DUP6 ADD PUSH2 0x23C4 JUMP JUMPDEST PUSH1 0x40 DUP4 ADD MSTORE POP PUSH1 0x60 DUP3 ADD CALLDATALOAD PUSH8 0xFFFFFFFFFFFFFFFF DUP2 GT ISZERO PUSH2 0x259D JUMPI PUSH2 0x259C PUSH2 0x1B9D JUMP JUMPDEST JUMPDEST PUSH2 0x25A9 DUP5 DUP3 DUP6 ADD PUSH2 0x23C4 JUMP JUMPDEST PUSH1 0x60 DUP4 ADD MSTORE POP PUSH1 0x80 DUP3 ADD CALLDATALOAD PUSH8 0xFFFFFFFFFFFFFFFF DUP2 GT ISZERO PUSH2 0x25CD JUMPI PUSH2 0x25CC PUSH2 0x1B9D JUMP JUMPDEST JUMPDEST PUSH2 0x25D9 DUP5 DUP3 DUP6 ADD PUSH2 0x24D7 JUMP JUMPDEST PUSH1 0x80 DUP4 ADD MSTORE POP SWAP3 SWAP2 POP POP JUMP JUMPDEST PUSH1 0x0 PUSH2 0x25F1 CALLDATASIZE DUP4 PUSH2 0x2505 JUMP JUMPDEST SWAP1 POP SWAP2 SWAP1 POP JUMP JUMPDEST PUSH32 0x4F6E6C792063616C6C61626C65206279206F776E657200000000000000000000 PUSH1 0x0 DUP3 ADD MSTORE POP JUMP JUMPDEST PUSH1 0x0 PUSH2 0x262E PUSH1 0x16 DUP4 PUSH2 0x22AB JUMP JUMPDEST SWAP2 POP PUSH2 0x2639 DUP3 PUSH2 0x25F8 JUMP JUMPDEST PUSH1 0x20 DUP3 ADD SWAP1 POP SWAP2 SWAP1 POP JUMP JUMPDEST PUSH1 0x0 PUSH1 0x20 DUP3 ADD SWAP1 POP DUP2 DUP2 SUB PUSH1 0x0 DUP4 ADD MSTORE PUSH2 0x265D DUP2 PUSH2 0x2621 JUMP JUMPDEST SWAP1 POP SWAP2 SWAP1 POP JUMP JUMPDEST PUSH1 0x0 PUSH2 0x100 DUP3 ADD SWAP1 POP PUSH2 0x267A PUSH1 0x0 DUP4 ADD DUP5 PUSH2 0x1994 JUMP JUMPDEST SWAP3 SWAP2 POP POP JUMP JUMPDEST PUSH1 0x0 PUSH2 0x268B DUP3 PUSH2 0x1A01 JUMP JUMPDEST SWAP1 POP SWAP2 SWAP1 POP JUMP JUMPDEST PUSH2 0x269B DUP2 PUSH2 0x2680 JUMP JUMPDEST DUP2 EQ PUSH2 0x26A6 JUMPI PUSH1 0x0 DUP1 REVERT JUMPDEST POP JUMP JUMPDEST PUSH1 0x0 DUP2 MLOAD SWAP1 POP PUSH2 0x26B8 DUP2 PUSH2 0x2692 JUMP JUMPDEST SWAP3 SWAP2 POP POP JUMP JUMPDEST PUSH1 0x0 PUSH1 0x20 DUP3 DUP5 SUB SLT ISZERO PUSH2 0x26D4 JUMPI PUSH2 0x26D3 PUSH2 0x17A3 JUMP JUMPDEST JUMPDEST PUSH1 0x0 PUSH2 0x26E2 DUP5 DUP3 DUP6 ADD PUSH2 0x26A9 JUMP JUMPDEST SWAP2 POP POP SWAP3 SWAP2 POP POP JUMP JUMPDEST PUSH1 0x0 PUSH1 0x40 DUP3 DUP5 SUB SLT ISZERO PUSH2 0x2701 JUMPI PUSH2 0x2700 PUSH2 0x1B0C JUMP JUMPDEST JUMPDEST PUSH2 0x270B PUSH1 0x40 PUSH2 0x1B82 JUMP JUMPDEST SWAP1 POP PUSH1 0x0 PUSH2 0x271B DUP5 DUP3 DUP6 ADD PUSH2 0x1EC1 JUMP JUMPDEST PUSH1 0x0 DUP4 ADD MSTORE POP PUSH1 0x20 PUSH2 0x272F DUP5 DUP3 DUP6 ADD PUSH2 0x1EC1 JUMP JUMPDEST PUSH1 0x20 DUP4 ADD MSTORE POP SWAP3 SWAP2 POP POP JUMP JUMPDEST PUSH1 0x0 PUSH2 0x274E PUSH2 0x2749 DUP5 PUSH2 0x1C23 JUMP JUMPDEST PUSH2 0x1B82 JUMP JUMPDEST SWAP1 POP DUP1 PUSH1 0x20 DUP5 MUL DUP4 ADD DUP6 DUP2 GT ISZERO PUSH2 0x2768 JUMPI PUSH2 0x2767 PUSH2 0x1C49 JUMP JUMPDEST JUMPDEST DUP4 JUMPDEST DUP2 DUP2 LT ISZERO PUSH2 0x2791 JUMPI DUP1 PUSH2 0x277D DUP9 DUP3 PUSH2 0x1EC1 JUMP JUMPDEST DUP5 MSTORE PUSH1 0x20 DUP5 ADD SWAP4 POP POP PUSH1 0x20 DUP2 ADD SWAP1 POP PUSH2 0x276A JUMP JUMPDEST POP POP POP SWAP4 SWAP3 POP POP POP JUMP JUMPDEST PUSH1 0x0 DUP3 PUSH1 0x1F DUP4 ADD SLT PUSH2 0x27B0 JUMPI PUSH2 0x27AF PUSH2 0x1C1E JUMP JUMPDEST JUMPDEST PUSH1 0x2 PUSH2 0x27BD DUP5 DUP3 DUP6 PUSH2 0x273B JUMP JUMPDEST SWAP2 POP POP SWAP3 SWAP2 POP POP JUMP JUMPDEST PUSH1 0x0 PUSH1 0x80 DUP3 DUP5 SUB SLT ISZERO PUSH2 0x27DC JUMPI PUSH2 0x27DB PUSH2 0x1B0C JUMP JUMPDEST JUMPDEST PUSH2 0x27E6 PUSH1 0x40 PUSH2 0x1B82 JUMP JUMPDEST SWAP1 POP PUSH1 0x0 PUSH2 0x27F6 DUP5 DUP3 DUP6 ADD PUSH2 0x279B JUMP JUMPDEST PUSH1 0x0 DUP4 ADD MSTORE POP PUSH1 0x40 PUSH2 0x280A DUP5 DUP3 DUP6 ADD PUSH2 0x279B JUMP JUMPDEST PUSH1 0x20 DUP4 ADD MSTORE POP SWAP3 SWAP2 POP POP JUMP JUMPDEST PUSH1 0x0 PUSH2 0x100 DUP3 DUP5 SUB SLT ISZERO PUSH2 0x282D JUMPI PUSH2 0x282C PUSH2 0x1B0C JUMP JUMPDEST JUMPDEST PUSH2 0x2837 PUSH1 0x60 PUSH2 0x1B82 JUMP JUMPDEST SWAP1 POP PUSH1 0x0 PUSH2 0x2847 DUP5 DUP3 DUP6 ADD PUSH2 0x26EB JUMP JUMPDEST PUSH1 0x0 DUP4 ADD MSTORE POP PUSH1 0x40 PUSH2 0x285B DUP5 DUP3 DUP6 ADD PUSH2 0x27C6 JUMP JUMPDEST PUSH1 0x20 DUP4 ADD MSTORE POP PUSH1 0xC0 PUSH2 0x286F DUP5 DUP3 DUP6 ADD PUSH2 0x26EB JUMP JUMPDEST PUSH1 0x40 DUP4 ADD MSTORE POP SWAP3 SWAP2 POP POP JUMP JUMPDEST PUSH1 0x0 PUSH2 0x100 DUP3 DUP5 SUB SLT ISZERO PUSH2 0x2892 JUMPI PUSH2 0x2891 PUSH2 0x17A3 JUMP JUMPDEST JUMPDEST PUSH1 0x0 PUSH2 0x28A0 DUP5 DUP3 DUP6 ADD PUSH2 0x2816 JUMP JUMPDEST SWAP2 POP POP SWAP3 SWAP2 POP POP JUMP JUMPDEST PUSH1 0x0 PUSH8 0xFFFFFFFFFFFFFFFF DUP3 GT ISZERO PUSH2 0x28C4 JUMPI PUSH2 0x28C3 PUSH2 0x1B22 JUMP JUMPDEST JUMPDEST PUSH2 0x28CD DUP3 PUSH2 0x1B11 JUMP JUMPDEST SWAP1 POP PUSH1 0x20 DUP2 ADD SWAP1 POP SWAP2 SWAP1 POP JUMP JUMPDEST PUSH1 0x0 PUSH2 0x28ED PUSH2 0x28E8 DUP5 PUSH2 0x28A9 JUMP JUMPDEST PUSH2 0x1B82 JUMP JUMPDEST SWAP1 POP DUP3 DUP2 MSTORE PUSH1 0x20 DUP2 ADD DUP5 DUP5 DUP5 ADD GT ISZERO PUSH2 0x2909 JUMPI PUSH2 0x2908 PUSH2 0x233D JUMP JUMPDEST JUMPDEST PUSH2 0x2914 DUP5 DUP3 DUP6 PUSH2 0x2047 JUMP JUMPDEST POP SWAP4 SWAP3 POP POP POP JUMP JUMPDEST PUSH1 0x0 DUP3 PUSH1 0x1F DUP4 ADD SLT PUSH2 0x2931 JUMPI PUSH2 0x2930 PUSH2 0x1C1E JUMP JUMPDEST JUMPDEST DUP2 MLOAD PUSH2 0x2941 DUP5 DUP3 PUSH1 0x20 DUP7 ADD PUSH2 0x28DA JUMP JUMPDEST SWAP2 POP POP SWAP3 SWAP2 POP POP JUMP JUMPDEST PUSH1 0x0 PUSH1 0x20 DUP3 DUP5 SUB SLT ISZERO PUSH2 0x2960 JUMPI PUSH2 0x295F PUSH2 0x17A3 JUMP JUMPDEST JUMPDEST PUSH1 0x0 DUP3 ADD MLOAD PUSH8 0xFFFFFFFFFFFFFFFF DUP2 GT ISZERO PUSH2 0x297E JUMPI PUSH2 0x297D PUSH2 0x17A8 JUMP JUMPDEST JUMPDEST PUSH2 0x298A DUP5 DUP3 DUP6 ADD PUSH2 0x291C JUMP JUMPDEST SWAP2 POP POP SWAP3 SWAP2 POP POP JUMP JUMPDEST PUSH1 0x0 DUP2 SWAP1 POP SWAP2 SWAP1 POP JUMP JUMPDEST PUSH1 0x0 PUSH2 0x29B8 PUSH2 0x29B3 PUSH2 0x29AE DUP5 PUSH2 0x1A01 JUMP JUMPDEST PUSH2 0x2993 JUMP JUMPDEST PUSH2 0x1A01 JUMP JUMPDEST SWAP1 POP SWAP2 SWAP1 POP JUMP JUMPDEST PUSH1 0x0 PUSH2 0x29CA DUP3 PUSH2 0x299D JUMP JUMPDEST SWAP1 POP SWAP2 SWAP1 POP JUMP JUMPDEST PUSH1 0x0 PUSH2 0x29DC DUP3 PUSH2 0x29BF JUMP JUMPDEST SWAP1 POP SWAP2 SWAP1 POP JUMP JUMPDEST PUSH2 0x29EC DUP2 PUSH2 0x29D1 JUMP JUMPDEST DUP3 MSTORE POP POP JUMP JUMPDEST PUSH1 0x0 DUP2 MLOAD SWAP1 POP SWAP2 SWAP1 POP JUMP JUMPDEST PUSH1 0x0 PUSH2 0x2A08 DUP3 PUSH2 0x29F2 JUMP JUMPDEST PUSH2 0x2A12 DUP2 DUP6 PUSH2 0x22AB JUMP JUMPDEST SWAP4 POP PUSH2 0x2A22 DUP2 DUP6 PUSH1 0x20 DUP7 ADD PUSH2 0x2047 JUMP JUMPDEST PUSH2 0x2A2B DUP2 PUSH2 0x1B11 JUMP JUMPDEST DUP5 ADD SWAP2 POP POP SWAP3 SWAP2 POP POP JUMP JUMPDEST PUSH1 0x0 PUSH1 0x40 DUP3 ADD SWAP1 POP PUSH2 0x2A4B PUSH1 0x0 DUP4 ADD DUP6 PUSH2 0x29E3 JUMP JUMPDEST DUP2 DUP2 SUB PUSH1 0x20 DUP4 ADD MSTORE PUSH2 0x2A5D DUP2 DUP5 PUSH2 0x29FD JUMP JUMPDEST SWAP1 POP SWAP4 SWAP3 POP POP POP JUMP JUMPDEST PUSH32 0x43616E6E6F74207472616E7366657220746F2073656C66000000000000000000 PUSH1 0x0 DUP3 ADD MSTORE POP JUMP JUMPDEST PUSH1 0x0 PUSH2 0x2A9C PUSH1 0x17 DUP4 PUSH2 0x22AB JUMP JUMPDEST SWAP2 POP PUSH2 0x2AA7 DUP3 PUSH2 0x2A66 JUMP JUMPDEST PUSH1 0x20 DUP3 ADD SWAP1 POP SWAP2 SWAP1 POP JUMP JUMPDEST PUSH1 0x0 PUSH1 0x20 DUP3 ADD SWAP1 POP DUP2 DUP2 SUB PUSH1 0x0 DUP4 ADD MSTORE PUSH2 0x2ACB DUP2 PUSH2 0x2A8F JUMP JUMPDEST SWAP1 POP SWAP2 SWAP1 POP JUMP JUMPDEST PUSH2 0x2ADB DUP2 PUSH2 0x1832 JUMP JUMPDEST DUP3 MSTORE POP POP JUMP JUMPDEST PUSH1 0x40 DUP3 ADD PUSH1 0x0 DUP3 ADD MLOAD PUSH2 0x2AF7 PUSH1 0x0 DUP6 ADD DUP3 PUSH2 0x188B JUMP JUMPDEST POP PUSH1 0x20 DUP3 ADD MLOAD PUSH2 0x2B0A PUSH1 0x20 DUP6 ADD DUP3 PUSH2 0x2AD2 JUMP JUMPDEST POP POP POP POP JUMP JUMPDEST PUSH1 0x0 PUSH1 0x40 DUP3 ADD SWAP1 POP PUSH2 0x2B25 PUSH1 0x0 DUP4 ADD DUP5 PUSH2 0x2AE1 JUMP JUMPDEST SWAP3 SWAP2 POP POP JUMP INVALID LOG2 PUSH5 0x6970667358 0x22 SLT KECCAK256 SWAP7 ORIGIN SWAP7 0x4B 0x27 0x22 0x4B POP LT 0xE2 0xE7 0xDF PUSH19 0x35AD714763239A5ABD086A745B13DFFDE6AF4D PUSH5 0x736F6C6343 STOP ADDMOD SGT STOP CALLER "
		},
		"gasEstimates": {
			"creation": {
				"codeDepositCost": "2221000",
				"executionCost": "infinite",
				"totalCost": "infinite"
			},
			"external": {
				"acceptOwnership()": "54563",
				"ccipReceive((bytes32,uint64,bytes,bytes,(address,uint256)[]))": "infinite",
				"denySender(address)": "27025",
				"denylistDestinationChain(uint64)": "27027",
				"denylistSourceChain(uint64)": "27004",
				"getLastReceivedMessageDetails()": "infinite",
				"getRouter()": "infinite",
				"owner()": "2633",
				"sendMessagePayLINK(uint64,address,((uint256,uint256),(uint256[2],uint256[2]),(uint256,uint256)))": "infinite",
				"sendMessagePayNative(uint64,address,((uint256,uint256),(uint256[2],uint256[2]),(uint256,uint256)))": "infinite",
				"supportsInterface(bytes4)": "708",
				"transferOwnership(address)": "30742",
				"whitelistDestinationChain(uint64)": "27071",
				"whitelistSender(address)": "27093",
				"whitelistSourceChain(uint64)": "27049",
				"whitelistedDestinationChains(uint64)": "2869",
				"whitelistedSenders(address)": "2913",
				"whitelistedSourceChains(uint64)": "2847",
				"withdraw(address)": "infinite",
				"withdrawToken(address,address)": "infinite"
			},
			"internal": {
				"_buildCCIPMessage(address,struct IVerification.Proof memory,address)": "infinite",
				"_ccipReceive(struct Client.Any2EVMMessage memory)": "infinite"
			}
		},
		"methodIdentifiers": {
			"acceptOwnership()": "79ba5097",
			"ccipReceive((bytes32,uint64,bytes,bytes,(address,uint256)[]))": "85572ffb",
			"denySender(address)": "92a8c1fe",
			"denylistDestinationChain(uint64)": "73645cff",
			"denylistSourceChain(uint64)": "a32ba7ec",
			"getLastReceivedMessageDetails()": "263596a5",
			"getRouter()": "b0f479a1",
			"owner()": "8da5cb5b",
			"sendMessagePayLINK(uint64,address,((uint256,uint256),(uint256[2],uint256[2]),(uint256,uint256)))": "fc491438",
			"sendMessagePayNative(uint64,address,((uint256,uint256),(uint256[2],uint256[2]),(uint256,uint256)))": "6f695e26",
			"supportsInterface(bytes4)": "01ffc9a7",
			"transferOwnership(address)": "f2fde38b",
			"whitelistDestinationChain(uint64)": "7898d184",
			"whitelistSender(address)": "2f10a6c6",
			"whitelistSourceChain(uint64)": "7736035b",
			"whitelistedDestinationChains(uint64)": "835b347c",
			"whitelistedSenders(address)": "272efc69",
			"whitelistedSourceChains(uint64)": "7dc91a02",
			"withdraw(address)": "51cff8d9",
			"withdrawToken(address,address)": "3aeac4e1"
		}
	},
	"abi": [
		{
			"inputs": [
				{
					"internalType": "address",
					"name": "_router",
					"type": "address"
				},
				{
					"internalType": "address",
					"name": "_link",
					"type": "address"
				}
			],
			"stateMutability": "nonpayable",
			"type": "constructor"
		},
		{
			"inputs": [
				{
					"internalType": "address",
					"name": "router",
					"type": "address"
				}
			],
			"name": "InvalidRouter",
			"type": "error"
		},
		{
			"inputs": [
				{
					"internalType": "address",
					"name": "sender",
					"type": "address"
				}
			],
			"name": "SenderNotWhitelisted",
			"type": "error"
		},
		{
			"anonymous": false,
			"inputs": [
				{
					"indexed": true,
					"internalType": "bytes32",
					"name": "messageId",
					"type": "bytes32"
				},
				{
					"indexed": true,
					"internalType": "uint64",
					"name": "sourceChainSelector",
					"type": "uint64"
				},
				{
					"indexed": false,
					"internalType": "address",
					"name": "sender",
					"type": "address"
				},
				{
					"indexed": false,
					"internalType": "string",
					"name": "text",
					"type": "string"
				}
			],
			"name": "MessageReceived",
			"type": "event"
		},
		{
			"anonymous": false,
			"inputs": [
				{
					"indexed": true,
					"internalType": "bytes32",
					"name": "messageId",
					"type": "bytes32"
				},
				{
					"indexed": true,
					"internalType": "uint64",
					"name": "destinationChainSelector",
					"type": "uint64"
				},
				{
					"indexed": false,
					"internalType": "address",
					"name": "receiver",
					"type": "address"
				},
				{
					"indexed": false,
					"internalType": "string",
					"name": "text",
					"type": "string"
				},
				{
					"indexed": false,
					"internalType": "address",
					"name": "feeToken",
					"type": "address"
				},
				{
					"indexed": false,
					"internalType": "uint256",
					"name": "fees",
					"type": "uint256"
				}
			],
			"name": "MessageSent",
			"type": "event"
		},
		{
			"anonymous": false,
			"inputs": [
				{
					"indexed": true,
					"internalType": "address",
					"name": "from",
					"type": "address"
				},
				{
					"indexed": true,
					"internalType": "address",
					"name": "to",
					"type": "address"
				}
			],
			"name": "OwnershipTransferRequested",
			"type": "event"
		},
		{
			"anonymous": false,
			"inputs": [
				{
					"indexed": true,
					"internalType": "address",
					"name": "from",
					"type": "address"
				},
				{
					"indexed": true,
					"internalType": "address",
					"name": "to",
					"type": "address"
				}
			],
			"name": "OwnershipTransferred",
			"type": "event"
		},
		{
			"inputs": [],
			"name": "acceptOwnership",
			"outputs": [],
			"stateMutability": "nonpayable",
			"type": "function"
		},
		{
			"inputs": [
				{
					"components": [
						{
							"internalType": "bytes32",
							"name": "messageId",
							"type": "bytes32"
						},
						{
							"internalType": "uint64",
							"name": "sourceChainSelector",
							"type": "uint64"
						},
						{
							"internalType": "bytes",
							"name": "sender",
							"type": "bytes"
						},
						{
							"internalType": "bytes",
							"name": "data",
							"type": "bytes"
						},
						{
							"components": [
								{
									"internalType": "address",
									"name": "token",
									"type": "address"
								},
								{
									"internalType": "uint256",
									"name": "amount",
									"type": "uint256"
								}
							],
							"internalType": "struct Client.EVMTokenAmount[]",
							"name": "destTokenAmounts",
							"type": "tuple[]"
						}
					],
					"internalType": "struct Client.Any2EVMMessage",
					"name": "message",
					"type": "tuple"
				}
			],
			"name": "ccipReceive",
			"outputs": [],
			"stateMutability": "nonpayable",
			"type": "function"
		},
		{
			"inputs": [
				{
					"internalType": "address",
					"name": "_sender",
					"type": "address"
				}
			],
			"name": "denySender",
			"outputs": [],
			"stateMutability": "nonpayable",
			"type": "function"
		},
		{
			"inputs": [
				{
					"internalType": "uint64",
					"name": "_destinationChainSelector",
					"type": "uint64"
				}
			],
			"name": "denylistDestinationChain",
			"outputs": [],
			"stateMutability": "nonpayable",
			"type": "function"
		},
		{
			"inputs": [
				{
					"internalType": "uint64",
					"name": "_sourceChainSelector",
					"type": "uint64"
				}
			],
			"name": "denylistSourceChain",
			"outputs": [],
			"stateMutability": "nonpayable",
			"type": "function"
		},
		{
			"inputs": [],
			"name": "getLastReceivedMessageDetails",
			"outputs": [
				{
					"internalType": "bytes32",
					"name": "messageId",
					"type": "bytes32"
				},
				{
					"components": [
						{
							"components": [
								{
									"internalType": "uint256",
									"name": "X",
									"type": "uint256"
								},
								{
									"internalType": "uint256",
									"name": "Y",
									"type": "uint256"
								}
							],
							"internalType": "struct Pairing.G1Point",
							"name": "a",
							"type": "tuple"
						},
						{
							"components": [
								{
									"internalType": "uint256[2]",
									"name": "X",
									"type": "uint256[2]"
								},
								{
									"internalType": "uint256[2]",
									"name": "Y",
									"type": "uint256[2]"
								}
							],
							"internalType": "struct Pairing.G2Point",
							"name": "b",
							"type": "tuple"
						},
						{
							"components": [
								{
									"internalType": "uint256",
									"name": "X",
									"type": "uint256"
								},
								{
									"internalType": "uint256",
									"name": "Y",
									"type": "uint256"
								}
							],
							"internalType": "struct Pairing.G1Point",
							"name": "c",
							"type": "tuple"
						}
					],
					"internalType": "struct IVerification.Proof",
					"name": "",
					"type": "tuple"
				}
			],
			"stateMutability": "view",
			"type": "function"
		},
		{
			"inputs": [],
			"name": "getRouter",
			"outputs": [
				{
					"internalType": "address",
					"name": "",
					"type": "address"
				}
			],
			"stateMutability": "view",
			"type": "function"
		},
		{
			"inputs": [],
			"name": "owner",
			"outputs": [
				{
					"internalType": "address",
					"name": "",
					"type": "address"
				}
			],
			"stateMutability": "view",
			"type": "function"
		},
		{
			"inputs": [
				{
					"internalType": "uint64",
					"name": "_destinationChainSelector",
					"type": "uint64"
				},
				{
					"internalType": "address",
					"name": "_receiver",
					"type": "address"
				},
				{
					"components": [
						{
							"components": [
								{
									"internalType": "uint256",
									"name": "X",
									"type": "uint256"
								},
								{
									"internalType": "uint256",
									"name": "Y",
									"type": "uint256"
								}
							],
							"internalType": "struct Pairing.G1Point",
							"name": "a",
							"type": "tuple"
						},
						{
							"components": [
								{
									"internalType": "uint256[2]",
									"name": "X",
									"type": "uint256[2]"
								},
								{
									"internalType": "uint256[2]",
									"name": "Y",
									"type": "uint256[2]"
								}
							],
							"internalType": "struct Pairing.G2Point",
							"name": "b",
							"type": "tuple"
						},
						{
							"components": [
								{
									"internalType": "uint256",
									"name": "X",
									"type": "uint256"
								},
								{
									"internalType": "uint256",
									"name": "Y",
									"type": "uint256"
								}
							],
							"internalType": "struct Pairing.G1Point",
							"name": "c",
							"type": "tuple"
						}
					],
					"internalType": "struct IVerification.Proof",
					"name": "_proof",
					"type": "tuple"
				}
			],
			"name": "sendMessagePayLINK",
			"outputs": [
				{
					"internalType": "bytes32",
					"name": "messageId",
					"type": "bytes32"
				}
			],
			"stateMutability": "nonpayable",
			"type": "function"
		},
		{
			"inputs": [
				{
					"internalType": "uint64",
					"name": "_destinationChainSelector",
					"type": "uint64"
				},
				{
					"internalType": "address",
					"name": "_receiver",
					"type": "address"
				},
				{
					"components": [
						{
							"components": [
								{
									"internalType": "uint256",
									"name": "X",
									"type": "uint256"
								},
								{
									"internalType": "uint256",
									"name": "Y",
									"type": "uint256"
								}
							],
							"internalType": "struct Pairing.G1Point",
							"name": "a",
							"type": "tuple"
						},
						{
							"components": [
								{
									"internalType": "uint256[2]",
									"name": "X",
									"type": "uint256[2]"
								},
								{
									"internalType": "uint256[2]",
									"name": "Y",
									"type": "uint256[2]"
								}
							],
							"internalType": "struct Pairing.G2Point",
							"name": "b",
							"type": "tuple"
						},
						{
							"components": [
								{
									"internalType": "uint256",
									"name": "X",
									"type": "uint256"
								},
								{
									"internalType": "uint256",
									"name": "Y",
									"type": "uint256"
								}
							],
							"internalType": "struct Pairing.G1Point",
							"name": "c",
							"type": "tuple"
						}
					],
					"internalType": "struct IVerification.Proof",
					"name": "_proof",
					"type": "tuple"
				}
			],
			"name": "sendMessagePayNative",
			"outputs": [
				{
					"internalType": "bytes32",
					"name": "messageId",
					"type": "bytes32"
				}
			],
			"stateMutability": "nonpayable",
			"type": "function"
		},
		{
			"inputs": [
				{
					"internalType": "bytes4",
					"name": "interfaceId",
					"type": "bytes4"
				}
			],
			"name": "supportsInterface",
			"outputs": [
				{
					"internalType": "bool",
					"name": "",
					"type": "bool"
				}
			],
			"stateMutability": "pure",
			"type": "function"
		},
		{
			"inputs": [
				{
					"internalType": "address",
					"name": "to",
					"type": "address"
				}
			],
			"name": "transferOwnership",
			"outputs": [],
			"stateMutability": "nonpayable",
			"type": "function"
		},
		{
			"inputs": [
				{
					"internalType": "uint64",
					"name": "_destinationChainSelector",
					"type": "uint64"
				}
			],
			"name": "whitelistDestinationChain",
			"outputs": [],
			"stateMutability": "nonpayable",
			"type": "function"
		},
		{
			"inputs": [
				{
					"internalType": "address",
					"name": "_sender",
					"type": "address"
				}
			],
			"name": "whitelistSender",
			"outputs": [],
			"stateMutability": "nonpayable",
			"type": "function"
		},
		{
			"inputs": [
				{
					"internalType": "uint64",
					"name": "_sourceChainSelector",
					"type": "uint64"
				}
			],
			"name": "whitelistSourceChain",
			"outputs": [],
			"stateMutability": "nonpayable",
			"type": "function"
		},
		{
			"inputs": [
				{
					"internalType": "uint64",
					"name": "",
					"type": "uint64"
				}
			],
			"name": "whitelistedDestinationChains",
			"outputs": [
				{
					"internalType": "bool",
					"name": "",
					"type": "bool"
				}
			],
			"stateMutability": "view",
			"type": "function"
		},
		{
			"inputs": [
				{
					"internalType": "address",
					"name": "",
					"type": "address"
				}
			],
			"name": "whitelistedSenders",
			"outputs": [
				{
					"internalType": "bool",
					"name": "",
					"type": "bool"
				}
			],
			"stateMutability": "view",
			"type": "function"
		},
		{
			"inputs": [
				{
					"internalType": "uint64",
					"name": "",
					"type": "uint64"
				}
			],
			"name": "whitelistedSourceChains",
			"outputs": [
				{
					"internalType": "bool",
					"name": "",
					"type": "bool"
				}
			],
			"stateMutability": "view",
			"type": "function"
		},
		{
			"inputs": [
				{
					"internalType": "address",
					"name": "_beneficiary",
					"type": "address"
				}
			],
			"name": "withdraw",
			"outputs": [],
			"stateMutability": "nonpayable",
			"type": "function"
		},
		{
			"inputs": [
				{
					"internalType": "address",
					"name": "_beneficiary",
					"type": "address"
				},
				{
					"internalType": "address",
					"name": "_token",
					"type": "address"
				}
			],
			"name": "withdrawToken",
			"outputs": [],
			"stateMutability": "nonpayable",
			"type": "function"
		},
		{
			"stateMutability": "payable",
			"type": "receive"
		}
	]
}