{
	"data": {
		"bytecode": {
			"linkReferences": {},
			"object": "608060405234801561001057600080fd5b506114ae806100206000396000f3fe608060405234801561001057600080fd5b506004361061002b5760003560e01c8063f48d772914610030575b600080fd5b61004a60048036038101906100459190611250565b610060565b60405161005791906112ad565b60405180910390f35b600080600167ffffffffffffffff81111561007e5761007d610f2e565b5b6040519080825280602002602001820160405280156100ac5781602001602082028036833780820191505090505b50905060005b6001811015610105578381600181106100ce576100cd6112c8565b5b60200201518282815181106100e6576100e56112c8565b5b60200260200101818152505080806100fd90611326565b9150506100b2565b506000610112828661012d565b03610121576001915050610127565b60009150505b92915050565b6000807f30644e72e131a029b85045b68181585d2833e84879b9709143e1f593f00000019050600061015d6102c4565b905080608001515160018651610173919061136e565b1461017d57600080fd5b60006040518060400160405280600081526020016000815250905060005b865181101561023657838782815181106101b8576101b76112c8565b5b6020026020010151106101ca57600080fd5b6102218261021c85608001516001856101e3919061136e565b815181106101f4576101f36112c8565b5b60200260200101518a858151811061020f5761020e6112c8565b5b60200260200101516106c8565b61076a565b9150808061022e90611326565b91505061019b565b50610260818360800151600081518110610253576102526112c8565b5b602002602001015161076a565b90506102a68560000151866020015161027884610832565b856040015161028a8a60400151610832565b876060015161029c8960000151610832565b89602001516108d7565b6102b657600193505050506102be565b600093505050505b92915050565b6102cc610dfa565b60405180604001604052807f1b979813ac43b640335cf6c75767acfc9a3a2dfb075c61974227b7050df1879a81526020017f2e6327fb0828b9dbbf70f07b9cee4492339ca41795b9fad4c7f920a387d68dbb8152508160000181905250604051806040016040528060405180604001604052807f1cd62c0d635adc58d0eaf57261102e85e72c58d3eb6e54c0d8a1b173790e9ed581526020017f11749acd92c2f9e95688499e287a1fb89419c47834529cf1e0a89ae897f242ef815250815260200160405180604001604052807f034d4df055c5b510c334f918f6df0cee794d782cc53a916fac54a67aa76500c281526020017f041b41daf1bfde2d1c0aad1e93021ebc149eb2076c8ccc799fd53261fbc938078152508152508160200181905250604051806040016040528060405180604001604052807f0ef51d5b1d19fae53c8b15ff1ffb511b7754c3482bb558e4d937edea41c3391281526020017f301fa6e368b7e68c773dd2df0c5918269e48f06c4fcaf06aff6f13e6ede36d83815250815260200160405180604001604052807f0cbd0906bbaa9e4ddedf7287a3dfde582a3bf36530dbd642878522bb2e1c7d6f81526020017f0c07a07e8b6076347bcc8924cdeef500e039a59c41e8ca0a6b3c40da23d7b14e8152508152508160400181905250604051806040016040528060405180604001604052807f0febc43eddcf02fbada2fc6d6ff3ff83e7323e836e7f610fca02819389ff9a6881526020017f1bd54db5e1e00f35150cf79ee0edf16f8d8ba18d66d7a7debbce84f8a113ea34815250815260200160405180604001604052807f23ac314953efe67e1bf1a8c1cc20a9558e478aa681059d6bc2d957c62bd304f981526020017f15e3dd68e9bcc5b24ca6f154eae58475aa4fd3db53f138b45ad581518e93cf3d8152508152508160600181905250600267ffffffffffffffff81111561059357610592610f2e565b5b6040519080825280602002602001820160405280156105cc57816020015b6105b9610e41565b8152602001906001900390816105b15790505b50816080018190525060405180604001604052807f2053b825f52cfc0d801d728ef574d82a16e288786c42d7d20e20c82a1f4a73a381526020017f0a6048a7773e9dc067b926181c2bbd2ecf8667d1fad2a2521059b314f523f14f8152508160800151600081518110610642576106416112c8565b5b602002602001018190525060405180604001604052807f0d112fa3afa3b0ad4b3786d9dece0d63f5b6242498292c54a70f0babd5836db881526020017f070296a040c447ad3cb6fed441bc748408242115bf3e454213fb4199597d3bb781525081608001516001815181106106ba576106b96112c8565b5b602002602001018190525090565b6106d0610e41565b6106d8610e5b565b8360000151816000600381106106f1576106f06112c8565b5b602002018181525050836020015181600160038110610713576107126112c8565b5b6020020181815250508281600260038110610731576107306112c8565b5b602002018181525050600060608360808460076107d05a03fa9050806000810361075757fe5b508061076257600080fd5b505092915050565b610772610e41565b61077a610e7d565b836000015181600060048110610793576107926112c8565b5b6020020181815250508360200151816001600481106107b5576107b46112c8565b5b6020020181815250508260000151816002600481106107d7576107d66112c8565b5b6020020181815250508260200151816003600481106107f9576107f86112c8565b5b602002018181525050600060608360c08460066107d05a03fa9050806000810361081f57fe5b508061082a57600080fd5b505092915050565b61083a610e41565b60007f30644e72e131a029b85045b68181585d97816a916871ca8d3c208c16d87cfd47905060008360000151148015610877575060008360200151145b1561089b5760405180604001604052806000815260200160008152509150506108d2565b6040518060400160405280846000015181526020018285602001516108c091906113d1565b836108cb9190611402565b8152509150505b919050565b600080600467ffffffffffffffff8111156108f5576108f4610f2e565b5b60405190808252806020026020018201604052801561092e57816020015b61091b610e41565b8152602001906001900390816109135790505b5090506000600467ffffffffffffffff81111561094e5761094d610f2e565b5b60405190808252806020026020018201604052801561098757816020015b610974610e9f565b81526020019060019003908161096c5790505b5090508a8260008151811061099f5761099e6112c8565b5b602002602001018190525088826001815181106109bf576109be6112c8565b5b602002602001018190525086826002815181106109df576109de6112c8565b5b602002602001018190525084826003815181106109ff576109fe6112c8565b5b60200260200101819052508981600081518110610a1f57610a1e6112c8565b5b60200260200101819052508781600181518110610a3f57610a3e6112c8565b5b60200260200101819052508581600281518110610a5f57610a5e6112c8565b5b60200260200101819052508381600381518110610a7f57610a7e6112c8565b5b6020026020010181905250610a948282610aa4565b9250505098975050505050505050565b60008151835114610ab457600080fd5b6000835190506000600682610ac99190611436565b905060008167ffffffffffffffff811115610ae757610ae6610f2e565b5b604051908082528060200260200182016040528015610b155781602001602082028036833780820191505090505b50905060005b83811015610d9a57868181518110610b3657610b356112c8565b5b602002602001015160000151826000600684610b529190611436565b610b5c919061136e565b81518110610b6d57610b6c6112c8565b5b602002602001018181525050868181518110610b8c57610b8b6112c8565b5b602002602001015160200151826001600684610ba89190611436565b610bb2919061136e565b81518110610bc357610bc26112c8565b5b602002602001018181525050858181518110610be257610be16112c8565b5b602002602001015160000151600160028110610c0157610c006112c8565b5b6020020151826002600684610c169190611436565b610c20919061136e565b81518110610c3157610c306112c8565b5b602002602001018181525050858181518110610c5057610c4f6112c8565b5b602002602001015160000151600060028110610c6f57610c6e6112c8565b5b6020020151826003600684610c849190611436565b610c8e919061136e565b81518110610c9f57610c9e6112c8565b5b602002602001018181525050858181518110610cbe57610cbd6112c8565b5b602002602001015160200151600160028110610cdd57610cdc6112c8565b5b6020020151826004600684610cf29190611436565b610cfc919061136e565b81518110610d0d57610d0c6112c8565b5b602002602001018181525050858181518110610d2c57610d2b6112c8565b5b602002602001015160200151600060028110610d4b57610d4a6112c8565b5b6020020151826005600684610d609190611436565b610d6a919061136e565b81518110610d7b57610d7a6112c8565b5b6020026020010181815250508080610d9290611326565b915050610b1b565b50610da3610ec5565b6000602082602086026020860160086107d05a03fa90508060008103610dc557fe5b5080610dd057600080fd5b600082600060018110610de657610de56112c8565b5b602002015114159550505050505092915050565b6040518060a00160405280610e0d610e41565b8152602001610e1a610e9f565b8152602001610e27610e9f565b8152602001610e34610e9f565b8152602001606081525090565b604051806040016040528060008152602001600081525090565b6040518060600160405280600390602082028036833780820191505090505090565b6040518060800160405280600490602082028036833780820191505090505090565b6040518060400160405280610eb2610ee7565b8152602001610ebf610ee7565b81525090565b6040518060200160405280600190602082028036833780820191505090505090565b6040518060400160405280600290602082028036833780820191505090505090565b6000604051905090565b600080fd5b600080fd5b6000601f19601f8301169050919050565b7f4e487b7100000000000000000000000000000000000000000000000000000000600052604160045260246000fd5b610f6682610f1d565b810181811067ffffffffffffffff82111715610f8557610f84610f2e565b5b80604052505050565b6000610f98610f09565b9050610fa48282610f5d565b919050565b6000819050919050565b610fbc81610fa9565b8114610fc757600080fd5b50565b600081359050610fd981610fb3565b92915050565b600060408284031215610ff557610ff4610f18565b5b610fff6040610f8e565b9050600061100f84828501610fca565b600083015250602061102384828501610fca565b60208301525092915050565b600080fd5b600067ffffffffffffffff82111561104f5761104e610f2e565b5b602082029050919050565b600080fd5b600061107261106d84611034565b610f8e565b9050806020840283018581111561108c5761108b61105a565b5b835b818110156110b557806110a18882610fca565b84526020840193505060208101905061108e565b5050509392505050565b600082601f8301126110d4576110d361102f565b5b60026110e184828561105f565b91505092915050565b600060808284031215611100576110ff610f18565b5b61110a6040610f8e565b9050600061111a848285016110bf565b600083015250604061112e848285016110bf565b60208301525092915050565b6000610100828403121561115157611150610f18565b5b61115b6060610f8e565b9050600061116b84828501610fdf565b600083015250604061117f848285016110ea565b60208301525060c061119384828501610fdf565b60408301525092915050565b600067ffffffffffffffff8211156111ba576111b9610f2e565b5b602082029050919050565b60006111d86111d38461119f565b610f8e565b905080602084028301858111156111f2576111f161105a565b5b835b8181101561121b57806112078882610fca565b8452602084019350506020810190506111f4565b5050509392505050565b600082601f83011261123a5761123961102f565b5b60016112478482856111c5565b91505092915050565b600080610120838503121561126857611267610f13565b5b60006112768582860161113a565b92505061010061128885828601611225565b9150509250929050565b60008115159050919050565b6112a781611292565b82525050565b60006020820190506112c2600083018461129e565b92915050565b7f4e487b7100000000000000000000000000000000000000000000000000000000600052603260045260246000fd5b7f4e487b7100000000000000000000000000000000000000000000000000000000600052601160045260246000fd5b600061133182610fa9565b91507fffffffffffffffffffffffffffffffffffffffffffffffffffffffffffffffff8203611363576113626112f7565b5b600182019050919050565b600061137982610fa9565b915061138483610fa9565b925082820190508082111561139c5761139b6112f7565b5b92915050565b7f4e487b7100000000000000000000000000000000000000000000000000000000600052601260045260246000fd5b60006113dc82610fa9565b91506113e783610fa9565b9250826113f7576113f66113a2565b5b828206905092915050565b600061140d82610fa9565b915061141883610fa9565b92508282039050818111156114305761142f6112f7565b5b92915050565b600061144182610fa9565b915061144c83610fa9565b925082820261145a81610fa9565b91508282048414831517611471576114706112f7565b5b509291505056fea2646970667358221220b54423285d5cf1c97d3c16f6a988902563ca03e457a8f40f9d384dc3c64974ed64736f6c63430008130033",
			"opcodes": "PUSH1 0x80 PUSH1 0x40 MSTORE CALLVALUE DUP1 ISZERO PUSH2 0x10 JUMPI PUSH1 0x0 DUP1 REVERT JUMPDEST POP PUSH2 0x14AE DUP1 PUSH2 0x20 PUSH1 0x0 CODECOPY PUSH1 0x0 RETURN INVALID PUSH1 0x80 PUSH1 0x40 MSTORE CALLVALUE DUP1 ISZERO PUSH2 0x10 JUMPI PUSH1 0x0 DUP1 REVERT JUMPDEST POP PUSH1 0x4 CALLDATASIZE LT PUSH2 0x2B JUMPI PUSH1 0x0 CALLDATALOAD PUSH1 0xE0 SHR DUP1 PUSH4 0xF48D7729 EQ PUSH2 0x30 JUMPI JUMPDEST PUSH1 0x0 DUP1 REVERT JUMPDEST PUSH2 0x4A PUSH1 0x4 DUP1 CALLDATASIZE SUB DUP2 ADD SWAP1 PUSH2 0x45 SWAP2 SWAP1 PUSH2 0x1250 JUMP JUMPDEST PUSH2 0x60 JUMP JUMPDEST PUSH1 0x40 MLOAD PUSH2 0x57 SWAP2 SWAP1 PUSH2 0x12AD JUMP JUMPDEST PUSH1 0x40 MLOAD DUP1 SWAP2 SUB SWAP1 RETURN JUMPDEST PUSH1 0x0 DUP1 PUSH1 0x1 PUSH8 0xFFFFFFFFFFFFFFFF DUP2 GT ISZERO PUSH2 0x7E JUMPI PUSH2 0x7D PUSH2 0xF2E JUMP JUMPDEST JUMPDEST PUSH1 0x40 MLOAD SWAP1 DUP1 DUP3 MSTORE DUP1 PUSH1 0x20 MUL PUSH1 0x20 ADD DUP3 ADD PUSH1 0x40 MSTORE DUP1 ISZERO PUSH2 0xAC JUMPI DUP2 PUSH1 0x20 ADD PUSH1 0x20 DUP3 MUL DUP1 CALLDATASIZE DUP4 CALLDATACOPY DUP1 DUP3 ADD SWAP2 POP POP SWAP1 POP JUMPDEST POP SWAP1 POP PUSH1 0x0 JUMPDEST PUSH1 0x1 DUP2 LT ISZERO PUSH2 0x105 JUMPI DUP4 DUP2 PUSH1 0x1 DUP2 LT PUSH2 0xCE JUMPI PUSH2 0xCD PUSH2 0x12C8 JUMP JUMPDEST JUMPDEST PUSH1 0x20 MUL ADD MLOAD DUP3 DUP3 DUP2 MLOAD DUP2 LT PUSH2 0xE6 JUMPI PUSH2 0xE5 PUSH2 0x12C8 JUMP JUMPDEST JUMPDEST PUSH1 0x20 MUL PUSH1 0x20 ADD ADD DUP2 DUP2 MSTORE POP POP DUP1 DUP1 PUSH2 0xFD SWAP1 PUSH2 0x1326 JUMP JUMPDEST SWAP2 POP POP PUSH2 0xB2 JUMP JUMPDEST POP PUSH1 0x0 PUSH2 0x112 DUP3 DUP7 PUSH2 0x12D JUMP JUMPDEST SUB PUSH2 0x121 JUMPI PUSH1 0x1 SWAP2 POP POP PUSH2 0x127 JUMP JUMPDEST PUSH1 0x0 SWAP2 POP POP JUMPDEST SWAP3 SWAP2 POP POP JUMP JUMPDEST PUSH1 0x0 DUP1 PUSH32 0x30644E72E131A029B85045B68181585D2833E84879B9709143E1F593F0000001 SWAP1 POP PUSH1 0x0 PUSH2 0x15D PUSH2 0x2C4 JUMP JUMPDEST SWAP1 POP DUP1 PUSH1 0x80 ADD MLOAD MLOAD PUSH1 0x1 DUP7 MLOAD PUSH2 0x173 SWAP2 SWAP1 PUSH2 0x136E JUMP JUMPDEST EQ PUSH2 0x17D JUMPI PUSH1 0x0 DUP1 REVERT JUMPDEST PUSH1 0x0 PUSH1 0x40 MLOAD DUP1 PUSH1 0x40 ADD PUSH1 0x40 MSTORE DUP1 PUSH1 0x0 DUP2 MSTORE PUSH1 0x20 ADD PUSH1 0x0 DUP2 MSTORE POP SWAP1 POP PUSH1 0x0 JUMPDEST DUP7 MLOAD DUP2 LT ISZERO PUSH2 0x236 JUMPI DUP4 DUP8 DUP3 DUP2 MLOAD DUP2 LT PUSH2 0x1B8 JUMPI PUSH2 0x1B7 PUSH2 0x12C8 JUMP JUMPDEST JUMPDEST PUSH1 0x20 MUL PUSH1 0x20 ADD ADD MLOAD LT PUSH2 0x1CA JUMPI PUSH1 0x0 DUP1 REVERT JUMPDEST PUSH2 0x221 DUP3 PUSH2 0x21C DUP6 PUSH1 0x80 ADD MLOAD PUSH1 0x1 DUP6 PUSH2 0x1E3 SWAP2 SWAP1 PUSH2 0x136E JUMP JUMPDEST DUP2 MLOAD DUP2 LT PUSH2 0x1F4 JUMPI PUSH2 0x1F3 PUSH2 0x12C8 JUMP JUMPDEST JUMPDEST PUSH1 0x20 MUL PUSH1 0x20 ADD ADD MLOAD DUP11 DUP6 DUP2 MLOAD DUP2 LT PUSH2 0x20F JUMPI PUSH2 0x20E PUSH2 0x12C8 JUMP JUMPDEST JUMPDEST PUSH1 0x20 MUL PUSH1 0x20 ADD ADD MLOAD PUSH2 0x6C8 JUMP JUMPDEST PUSH2 0x76A JUMP JUMPDEST SWAP2 POP DUP1 DUP1 PUSH2 0x22E SWAP1 PUSH2 0x1326 JUMP JUMPDEST SWAP2 POP POP PUSH2 0x19B JUMP JUMPDEST POP PUSH2 0x260 DUP2 DUP4 PUSH1 0x80 ADD MLOAD PUSH1 0x0 DUP2 MLOAD DUP2 LT PUSH2 0x253 JUMPI PUSH2 0x252 PUSH2 0x12C8 JUMP JUMPDEST JUMPDEST PUSH1 0x20 MUL PUSH1 0x20 ADD ADD MLOAD PUSH2 0x76A JUMP JUMPDEST SWAP1 POP PUSH2 0x2A6 DUP6 PUSH1 0x0 ADD MLOAD DUP7 PUSH1 0x20 ADD MLOAD PUSH2 0x278 DUP5 PUSH2 0x832 JUMP JUMPDEST DUP6 PUSH1 0x40 ADD MLOAD PUSH2 0x28A DUP11 PUSH1 0x40 ADD MLOAD PUSH2 0x832 JUMP JUMPDEST DUP8 PUSH1 0x60 ADD MLOAD PUSH2 0x29C DUP10 PUSH1 0x0 ADD MLOAD PUSH2 0x832 JUMP JUMPDEST DUP10 PUSH1 0x20 ADD MLOAD PUSH2 0x8D7 JUMP JUMPDEST PUSH2 0x2B6 JUMPI PUSH1 0x1 SWAP4 POP POP POP POP PUSH2 0x2BE JUMP JUMPDEST PUSH1 0x0 SWAP4 POP POP POP POP JUMPDEST SWAP3 SWAP2 POP POP JUMP JUMPDEST PUSH2 0x2CC PUSH2 0xDFA JUMP JUMPDEST PUSH1 0x40 MLOAD DUP1 PUSH1 0x40 ADD PUSH1 0x40 MSTORE DUP1 PUSH32 0x1B979813AC43B640335CF6C75767ACFC9A3A2DFB075C61974227B7050DF1879A DUP2 MSTORE PUSH1 0x20 ADD PUSH32 0x2E6327FB0828B9DBBF70F07B9CEE4492339CA41795B9FAD4C7F920A387D68DBB DUP2 MSTORE POP DUP2 PUSH1 0x0 ADD DUP2 SWAP1 MSTORE POP PUSH1 0x40 MLOAD DUP1 PUSH1 0x40 ADD PUSH1 0x40 MSTORE DUP1 PUSH1 0x40 MLOAD DUP1 PUSH1 0x40 ADD PUSH1 0x40 MSTORE DUP1 PUSH32 0x1CD62C0D635ADC58D0EAF57261102E85E72C58D3EB6E54C0D8A1B173790E9ED5 DUP2 MSTORE PUSH1 0x20 ADD PUSH32 0x11749ACD92C2F9E95688499E287A1FB89419C47834529CF1E0A89AE897F242EF DUP2 MSTORE POP DUP2 MSTORE PUSH1 0x20 ADD PUSH1 0x40 MLOAD DUP1 PUSH1 0x40 ADD PUSH1 0x40 MSTORE DUP1 PUSH32 0x34D4DF055C5B510C334F918F6DF0CEE794D782CC53A916FAC54A67AA76500C2 DUP2 MSTORE PUSH1 0x20 ADD PUSH32 0x41B41DAF1BFDE2D1C0AAD1E93021EBC149EB2076C8CCC799FD53261FBC93807 DUP2 MSTORE POP DUP2 MSTORE POP DUP2 PUSH1 0x20 ADD DUP2 SWAP1 MSTORE POP PUSH1 0x40 MLOAD DUP1 PUSH1 0x40 ADD PUSH1 0x40 MSTORE DUP1 PUSH1 0x40 MLOAD DUP1 PUSH1 0x40 ADD PUSH1 0x40 MSTORE DUP1 PUSH32 0xEF51D5B1D19FAE53C8B15FF1FFB511B7754C3482BB558E4D937EDEA41C33912 DUP2 MSTORE PUSH1 0x20 ADD PUSH32 0x301FA6E368B7E68C773DD2DF0C5918269E48F06C4FCAF06AFF6F13E6EDE36D83 DUP2 MSTORE POP DUP2 MSTORE PUSH1 0x20 ADD PUSH1 0x40 MLOAD DUP1 PUSH1 0x40 ADD PUSH1 0x40 MSTORE DUP1 PUSH32 0xCBD0906BBAA9E4DDEDF7287A3DFDE582A3BF36530DBD642878522BB2E1C7D6F DUP2 MSTORE PUSH1 0x20 ADD PUSH32 0xC07A07E8B6076347BCC8924CDEEF500E039A59C41E8CA0A6B3C40DA23D7B14E DUP2 MSTORE POP DUP2 MSTORE POP DUP2 PUSH1 0x40 ADD DUP2 SWAP1 MSTORE POP PUSH1 0x40 MLOAD DUP1 PUSH1 0x40 ADD PUSH1 0x40 MSTORE DUP1 PUSH1 0x40 MLOAD DUP1 PUSH1 0x40 ADD PUSH1 0x40 MSTORE DUP1 PUSH32 0xFEBC43EDDCF02FBADA2FC6D6FF3FF83E7323E836E7F610FCA02819389FF9A68 DUP2 MSTORE PUSH1 0x20 ADD PUSH32 0x1BD54DB5E1E00F35150CF79EE0EDF16F8D8BA18D66D7A7DEBBCE84F8A113EA34 DUP2 MSTORE POP DUP2 MSTORE PUSH1 0x20 ADD PUSH1 0x40 MLOAD DUP1 PUSH1 0x40 ADD PUSH1 0x40 MSTORE DUP1 PUSH32 0x23AC314953EFE67E1BF1A8C1CC20A9558E478AA681059D6BC2D957C62BD304F9 DUP2 MSTORE PUSH1 0x20 ADD PUSH32 0x15E3DD68E9BCC5B24CA6F154EAE58475AA4FD3DB53F138B45AD581518E93CF3D DUP2 MSTORE POP DUP2 MSTORE POP DUP2 PUSH1 0x60 ADD DUP2 SWAP1 MSTORE POP PUSH1 0x2 PUSH8 0xFFFFFFFFFFFFFFFF DUP2 GT ISZERO PUSH2 0x593 JUMPI PUSH2 0x592 PUSH2 0xF2E JUMP JUMPDEST JUMPDEST PUSH1 0x40 MLOAD SWAP1 DUP1 DUP3 MSTORE DUP1 PUSH1 0x20 MUL PUSH1 0x20 ADD DUP3 ADD PUSH1 0x40 MSTORE DUP1 ISZERO PUSH2 0x5CC JUMPI DUP2 PUSH1 0x20 ADD JUMPDEST PUSH2 0x5B9 PUSH2 0xE41 JUMP JUMPDEST DUP2 MSTORE PUSH1 0x20 ADD SWAP1 PUSH1 0x1 SWAP1 SUB SWAP1 DUP2 PUSH2 0x5B1 JUMPI SWAP1 POP JUMPDEST POP DUP2 PUSH1 0x80 ADD DUP2 SWAP1 MSTORE POP PUSH1 0x40 MLOAD DUP1 PUSH1 0x40 ADD PUSH1 0x40 MSTORE DUP1 PUSH32 0x2053B825F52CFC0D801D728EF574D82A16E288786C42D7D20E20C82A1F4A73A3 DUP2 MSTORE PUSH1 0x20 ADD PUSH32 0xA6048A7773E9DC067B926181C2BBD2ECF8667D1FAD2A2521059B314F523F14F DUP2 MSTORE POP DUP2 PUSH1 0x80 ADD MLOAD PUSH1 0x0 DUP2 MLOAD DUP2 LT PUSH2 0x642 JUMPI PUSH2 0x641 PUSH2 0x12C8 JUMP JUMPDEST JUMPDEST PUSH1 0x20 MUL PUSH1 0x20 ADD ADD DUP2 SWAP1 MSTORE POP PUSH1 0x40 MLOAD DUP1 PUSH1 0x40 ADD PUSH1 0x40 MSTORE DUP1 PUSH32 0xD112FA3AFA3B0AD4B3786D9DECE0D63F5B6242498292C54A70F0BABD5836DB8 DUP2 MSTORE PUSH1 0x20 ADD PUSH32 0x70296A040C447AD3CB6FED441BC748408242115BF3E454213FB4199597D3BB7 DUP2 MSTORE POP DUP2 PUSH1 0x80 ADD MLOAD PUSH1 0x1 DUP2 MLOAD DUP2 LT PUSH2 0x6BA JUMPI PUSH2 0x6B9 PUSH2 0x12C8 JUMP JUMPDEST JUMPDEST PUSH1 0x20 MUL PUSH1 0x20 ADD ADD DUP2 SWAP1 MSTORE POP SWAP1 JUMP JUMPDEST PUSH2 0x6D0 PUSH2 0xE41 JUMP JUMPDEST PUSH2 0x6D8 PUSH2 0xE5B JUMP JUMPDEST DUP4 PUSH1 0x0 ADD MLOAD DUP2 PUSH1 0x0 PUSH1 0x3 DUP2 LT PUSH2 0x6F1 JUMPI PUSH2 0x6F0 PUSH2 0x12C8 JUMP JUMPDEST JUMPDEST PUSH1 0x20 MUL ADD DUP2 DUP2 MSTORE POP POP DUP4 PUSH1 0x20 ADD MLOAD DUP2 PUSH1 0x1 PUSH1 0x3 DUP2 LT PUSH2 0x713 JUMPI PUSH2 0x712 PUSH2 0x12C8 JUMP JUMPDEST JUMPDEST PUSH1 0x20 MUL ADD DUP2 DUP2 MSTORE POP POP DUP3 DUP2 PUSH1 0x2 PUSH1 0x3 DUP2 LT PUSH2 0x731 JUMPI PUSH2 0x730 PUSH2 0x12C8 JUMP JUMPDEST JUMPDEST PUSH1 0x20 MUL ADD DUP2 DUP2 MSTORE POP POP PUSH1 0x0 PUSH1 0x60 DUP4 PUSH1 0x80 DUP5 PUSH1 0x7 PUSH2 0x7D0 GAS SUB STATICCALL SWAP1 POP DUP1 PUSH1 0x0 DUP2 SUB PUSH2 0x757 JUMPI INVALID JUMPDEST POP DUP1 PUSH2 0x762 JUMPI PUSH1 0x0 DUP1 REVERT JUMPDEST POP POP SWAP3 SWAP2 POP POP JUMP JUMPDEST PUSH2 0x772 PUSH2 0xE41 JUMP JUMPDEST PUSH2 0x77A PUSH2 0xE7D JUMP JUMPDEST DUP4 PUSH1 0x0 ADD MLOAD DUP2 PUSH1 0x0 PUSH1 0x4 DUP2 LT PUSH2 0x793 JUMPI PUSH2 0x792 PUSH2 0x12C8 JUMP JUMPDEST JUMPDEST PUSH1 0x20 MUL ADD DUP2 DUP2 MSTORE POP POP DUP4 PUSH1 0x20 ADD MLOAD DUP2 PUSH1 0x1 PUSH1 0x4 DUP2 LT PUSH2 0x7B5 JUMPI PUSH2 0x7B4 PUSH2 0x12C8 JUMP JUMPDEST JUMPDEST PUSH1 0x20 MUL ADD DUP2 DUP2 MSTORE POP POP DUP3 PUSH1 0x0 ADD MLOAD DUP2 PUSH1 0x2 PUSH1 0x4 DUP2 LT PUSH2 0x7D7 JUMPI PUSH2 0x7D6 PUSH2 0x12C8 JUMP JUMPDEST JUMPDEST PUSH1 0x20 MUL ADD DUP2 DUP2 MSTORE POP POP DUP3 PUSH1 0x20 ADD MLOAD DUP2 PUSH1 0x3 PUSH1 0x4 DUP2 LT PUSH2 0x7F9 JUMPI PUSH2 0x7F8 PUSH2 0x12C8 JUMP JUMPDEST JUMPDEST PUSH1 0x20 MUL ADD DUP2 DUP2 MSTORE POP POP PUSH1 0x0 PUSH1 0x60 DUP4 PUSH1 0xC0 DUP5 PUSH1 0x6 PUSH2 0x7D0 GAS SUB STATICCALL SWAP1 POP DUP1 PUSH1 0x0 DUP2 SUB PUSH2 0x81F JUMPI INVALID JUMPDEST POP DUP1 PUSH2 0x82A JUMPI PUSH1 0x0 DUP1 REVERT JUMPDEST POP POP SWAP3 SWAP2 POP POP JUMP JUMPDEST PUSH2 0x83A PUSH2 0xE41 JUMP JUMPDEST PUSH1 0x0 PUSH32 0x30644E72E131A029B85045B68181585D97816A916871CA8D3C208C16D87CFD47 SWAP1 POP PUSH1 0x0 DUP4 PUSH1 0x0 ADD MLOAD EQ DUP1 ISZERO PUSH2 0x877 JUMPI POP PUSH1 0x0 DUP4 PUSH1 0x20 ADD MLOAD EQ JUMPDEST ISZERO PUSH2 0x89B JUMPI PUSH1 0x40 MLOAD DUP1 PUSH1 0x40 ADD PUSH1 0x40 MSTORE DUP1 PUSH1 0x0 DUP2 MSTORE PUSH1 0x20 ADD PUSH1 0x0 DUP2 MSTORE POP SWAP2 POP POP PUSH2 0x8D2 JUMP JUMPDEST PUSH1 0x40 MLOAD DUP1 PUSH1 0x40 ADD PUSH1 0x40 MSTORE DUP1 DUP5 PUSH1 0x0 ADD MLOAD DUP2 MSTORE PUSH1 0x20 ADD DUP3 DUP6 PUSH1 0x20 ADD MLOAD PUSH2 0x8C0 SWAP2 SWAP1 PUSH2 0x13D1 JUMP JUMPDEST DUP4 PUSH2 0x8CB SWAP2 SWAP1 PUSH2 0x1402 JUMP JUMPDEST DUP2 MSTORE POP SWAP2 POP POP JUMPDEST SWAP2 SWAP1 POP JUMP JUMPDEST PUSH1 0x0 DUP1 PUSH1 0x4 PUSH8 0xFFFFFFFFFFFFFFFF DUP2 GT ISZERO PUSH2 0x8F5 JUMPI PUSH2 0x8F4 PUSH2 0xF2E JUMP JUMPDEST JUMPDEST PUSH1 0x40 MLOAD SWAP1 DUP1 DUP3 MSTORE DUP1 PUSH1 0x20 MUL PUSH1 0x20 ADD DUP3 ADD PUSH1 0x40 MSTORE DUP1 ISZERO PUSH2 0x92E JUMPI DUP2 PUSH1 0x20 ADD JUMPDEST PUSH2 0x91B PUSH2 0xE41 JUMP JUMPDEST DUP2 MSTORE PUSH1 0x20 ADD SWAP1 PUSH1 0x1 SWAP1 SUB SWAP1 DUP2 PUSH2 0x913 JUMPI SWAP1 POP JUMPDEST POP SWAP1 POP PUSH1 0x0 PUSH1 0x4 PUSH8 0xFFFFFFFFFFFFFFFF DUP2 GT ISZERO PUSH2 0x94E JUMPI PUSH2 0x94D PUSH2 0xF2E JUMP JUMPDEST JUMPDEST PUSH1 0x40 MLOAD SWAP1 DUP1 DUP3 MSTORE DUP1 PUSH1 0x20 MUL PUSH1 0x20 ADD DUP3 ADD PUSH1 0x40 MSTORE DUP1 ISZERO PUSH2 0x987 JUMPI DUP2 PUSH1 0x20 ADD JUMPDEST PUSH2 0x974 PUSH2 0xE9F JUMP JUMPDEST DUP2 MSTORE PUSH1 0x20 ADD SWAP1 PUSH1 0x1 SWAP1 SUB SWAP1 DUP2 PUSH2 0x96C JUMPI SWAP1 POP JUMPDEST POP SWAP1 POP DUP11 DUP3 PUSH1 0x0 DUP2 MLOAD DUP2 LT PUSH2 0x99F JUMPI PUSH2 0x99E PUSH2 0x12C8 JUMP JUMPDEST JUMPDEST PUSH1 0x20 MUL PUSH1 0x20 ADD ADD DUP2 SWAP1 MSTORE POP DUP9 DUP3 PUSH1 0x1 DUP2 MLOAD DUP2 LT PUSH2 0x9BF JUMPI PUSH2 0x9BE PUSH2 0x12C8 JUMP JUMPDEST JUMPDEST PUSH1 0x20 MUL PUSH1 0x20 ADD ADD DUP2 SWAP1 MSTORE POP DUP7 DUP3 PUSH1 0x2 DUP2 MLOAD DUP2 LT PUSH2 0x9DF JUMPI PUSH2 0x9DE PUSH2 0x12C8 JUMP JUMPDEST JUMPDEST PUSH1 0x20 MUL PUSH1 0x20 ADD ADD DUP2 SWAP1 MSTORE POP DUP5 DUP3 PUSH1 0x3 DUP2 MLOAD DUP2 LT PUSH2 0x9FF JUMPI PUSH2 0x9FE PUSH2 0x12C8 JUMP JUMPDEST JUMPDEST PUSH1 0x20 MUL PUSH1 0x20 ADD ADD DUP2 SWAP1 MSTORE POP DUP10 DUP2 PUSH1 0x0 DUP2 MLOAD DUP2 LT PUSH2 0xA1F JUMPI PUSH2 0xA1E PUSH2 0x12C8 JUMP JUMPDEST JUMPDEST PUSH1 0x20 MUL PUSH1 0x20 ADD ADD DUP2 SWAP1 MSTORE POP DUP8 DUP2 PUSH1 0x1 DUP2 MLOAD DUP2 LT PUSH2 0xA3F JUMPI PUSH2 0xA3E PUSH2 0x12C8 JUMP JUMPDEST JUMPDEST PUSH1 0x20 MUL PUSH1 0x20 ADD ADD DUP2 SWAP1 MSTORE POP DUP6 DUP2 PUSH1 0x2 DUP2 MLOAD DUP2 LT PUSH2 0xA5F JUMPI PUSH2 0xA5E PUSH2 0x12C8 JUMP JUMPDEST JUMPDEST PUSH1 0x20 MUL PUSH1 0x20 ADD ADD DUP2 SWAP1 MSTORE POP DUP4 DUP2 PUSH1 0x3 DUP2 MLOAD DUP2 LT PUSH2 0xA7F JUMPI PUSH2 0xA7E PUSH2 0x12C8 JUMP JUMPDEST JUMPDEST PUSH1 0x20 MUL PUSH1 0x20 ADD ADD DUP2 SWAP1 MSTORE POP PUSH2 0xA94 DUP3 DUP3 PUSH2 0xAA4 JUMP JUMPDEST SWAP3 POP POP POP SWAP9 SWAP8 POP POP POP POP POP POP POP POP JUMP JUMPDEST PUSH1 0x0 DUP2 MLOAD DUP4 MLOAD EQ PUSH2 0xAB4 JUMPI PUSH1 0x0 DUP1 REVERT JUMPDEST PUSH1 0x0 DUP4 MLOAD SWAP1 POP PUSH1 0x0 PUSH1 0x6 DUP3 PUSH2 0xAC9 SWAP2 SWAP1 PUSH2 0x1436 JUMP JUMPDEST SWAP1 POP PUSH1 0x0 DUP2 PUSH8 0xFFFFFFFFFFFFFFFF DUP2 GT ISZERO PUSH2 0xAE7 JUMPI PUSH2 0xAE6 PUSH2 0xF2E JUMP JUMPDEST JUMPDEST PUSH1 0x40 MLOAD SWAP1 DUP1 DUP3 MSTORE DUP1 PUSH1 0x20 MUL PUSH1 0x20 ADD DUP3 ADD PUSH1 0x40 MSTORE DUP1 ISZERO PUSH2 0xB15 JUMPI DUP2 PUSH1 0x20 ADD PUSH1 0x20 DUP3 MUL DUP1 CALLDATASIZE DUP4 CALLDATACOPY DUP1 DUP3 ADD SWAP2 POP POP SWAP1 POP JUMPDEST POP SWAP1 POP PUSH1 0x0 JUMPDEST DUP4 DUP2 LT ISZERO PUSH2 0xD9A JUMPI DUP7 DUP2 DUP2 MLOAD DUP2 LT PUSH2 0xB36 JUMPI PUSH2 0xB35 PUSH2 0x12C8 JUMP JUMPDEST JUMPDEST PUSH1 0x20 MUL PUSH1 0x20 ADD ADD MLOAD PUSH1 0x0 ADD MLOAD DUP3 PUSH1 0x0 PUSH1 0x6 DUP5 PUSH2 0xB52 SWAP2 SWAP1 PUSH2 0x1436 JUMP JUMPDEST PUSH2 0xB5C SWAP2 SWAP1 PUSH2 0x136E JUMP JUMPDEST DUP2 MLOAD DUP2 LT PUSH2 0xB6D JUMPI PUSH2 0xB6C PUSH2 0x12C8 JUMP JUMPDEST JUMPDEST PUSH1 0x20 MUL PUSH1 0x20 ADD ADD DUP2 DUP2 MSTORE POP POP DUP7 DUP2 DUP2 MLOAD DUP2 LT PUSH2 0xB8C JUMPI PUSH2 0xB8B PUSH2 0x12C8 JUMP JUMPDEST JUMPDEST PUSH1 0x20 MUL PUSH1 0x20 ADD ADD MLOAD PUSH1 0x20 ADD MLOAD DUP3 PUSH1 0x1 PUSH1 0x6 DUP5 PUSH2 0xBA8 SWAP2 SWAP1 PUSH2 0x1436 JUMP JUMPDEST PUSH2 0xBB2 SWAP2 SWAP1 PUSH2 0x136E JUMP JUMPDEST DUP2 MLOAD DUP2 LT PUSH2 0xBC3 JUMPI PUSH2 0xBC2 PUSH2 0x12C8 JUMP JUMPDEST JUMPDEST PUSH1 0x20 MUL PUSH1 0x20 ADD ADD DUP2 DUP2 MSTORE POP POP DUP6 DUP2 DUP2 MLOAD DUP2 LT PUSH2 0xBE2 JUMPI PUSH2 0xBE1 PUSH2 0x12C8 JUMP JUMPDEST JUMPDEST PUSH1 0x20 MUL PUSH1 0x20 ADD ADD MLOAD PUSH1 0x0 ADD MLOAD PUSH1 0x1 PUSH1 0x2 DUP2 LT PUSH2 0xC01 JUMPI PUSH2 0xC00 PUSH2 0x12C8 JUMP JUMPDEST JUMPDEST PUSH1 0x20 MUL ADD MLOAD DUP3 PUSH1 0x2 PUSH1 0x6 DUP5 PUSH2 0xC16 SWAP2 SWAP1 PUSH2 0x1436 JUMP JUMPDEST PUSH2 0xC20 SWAP2 SWAP1 PUSH2 0x136E JUMP JUMPDEST DUP2 MLOAD DUP2 LT PUSH2 0xC31 JUMPI PUSH2 0xC30 PUSH2 0x12C8 JUMP JUMPDEST JUMPDEST PUSH1 0x20 MUL PUSH1 0x20 ADD ADD DUP2 DUP2 MSTORE POP POP DUP6 DUP2 DUP2 MLOAD DUP2 LT PUSH2 0xC50 JUMPI PUSH2 0xC4F PUSH2 0x12C8 JUMP JUMPDEST JUMPDEST PUSH1 0x20 MUL PUSH1 0x20 ADD ADD MLOAD PUSH1 0x0 ADD MLOAD PUSH1 0x0 PUSH1 0x2 DUP2 LT PUSH2 0xC6F JUMPI PUSH2 0xC6E PUSH2 0x12C8 JUMP JUMPDEST JUMPDEST PUSH1 0x20 MUL ADD MLOAD DUP3 PUSH1 0x3 PUSH1 0x6 DUP5 PUSH2 0xC84 SWAP2 SWAP1 PUSH2 0x1436 JUMP JUMPDEST PUSH2 0xC8E SWAP2 SWAP1 PUSH2 0x136E JUMP JUMPDEST DUP2 MLOAD DUP2 LT PUSH2 0xC9F JUMPI PUSH2 0xC9E PUSH2 0x12C8 JUMP JUMPDEST JUMPDEST PUSH1 0x20 MUL PUSH1 0x20 ADD ADD DUP2 DUP2 MSTORE POP POP DUP6 DUP2 DUP2 MLOAD DUP2 LT PUSH2 0xCBE JUMPI PUSH2 0xCBD PUSH2 0x12C8 JUMP JUMPDEST JUMPDEST PUSH1 0x20 MUL PUSH1 0x20 ADD ADD MLOAD PUSH1 0x20 ADD MLOAD PUSH1 0x1 PUSH1 0x2 DUP2 LT PUSH2 0xCDD JUMPI PUSH2 0xCDC PUSH2 0x12C8 JUMP JUMPDEST JUMPDEST PUSH1 0x20 MUL ADD MLOAD DUP3 PUSH1 0x4 PUSH1 0x6 DUP5 PUSH2 0xCF2 SWAP2 SWAP1 PUSH2 0x1436 JUMP JUMPDEST PUSH2 0xCFC SWAP2 SWAP1 PUSH2 0x136E JUMP JUMPDEST DUP2 MLOAD DUP2 LT PUSH2 0xD0D JUMPI PUSH2 0xD0C PUSH2 0x12C8 JUMP JUMPDEST JUMPDEST PUSH1 0x20 MUL PUSH1 0x20 ADD ADD DUP2 DUP2 MSTORE POP POP DUP6 DUP2 DUP2 MLOAD DUP2 LT PUSH2 0xD2C JUMPI PUSH2 0xD2B PUSH2 0x12C8 JUMP JUMPDEST JUMPDEST PUSH1 0x20 MUL PUSH1 0x20 ADD ADD MLOAD PUSH1 0x20 ADD MLOAD PUSH1 0x0 PUSH1 0x2 DUP2 LT PUSH2 0xD4B JUMPI PUSH2 0xD4A PUSH2 0x12C8 JUMP JUMPDEST JUMPDEST PUSH1 0x20 MUL ADD MLOAD DUP3 PUSH1 0x5 PUSH1 0x6 DUP5 PUSH2 0xD60 SWAP2 SWAP1 PUSH2 0x1436 JUMP JUMPDEST PUSH2 0xD6A SWAP2 SWAP1 PUSH2 0x136E JUMP JUMPDEST DUP2 MLOAD DUP2 LT PUSH2 0xD7B JUMPI PUSH2 0xD7A PUSH2 0x12C8 JUMP JUMPDEST JUMPDEST PUSH1 0x20 MUL PUSH1 0x20 ADD ADD DUP2 DUP2 MSTORE POP POP DUP1 DUP1 PUSH2 0xD92 SWAP1 PUSH2 0x1326 JUMP JUMPDEST SWAP2 POP POP PUSH2 0xB1B JUMP JUMPDEST POP PUSH2 0xDA3 PUSH2 0xEC5 JUMP JUMPDEST PUSH1 0x0 PUSH1 0x20 DUP3 PUSH1 0x20 DUP7 MUL PUSH1 0x20 DUP7 ADD PUSH1 0x8 PUSH2 0x7D0 GAS SUB STATICCALL SWAP1 POP DUP1 PUSH1 0x0 DUP2 SUB PUSH2 0xDC5 JUMPI INVALID JUMPDEST POP DUP1 PUSH2 0xDD0 JUMPI PUSH1 0x0 DUP1 REVERT JUMPDEST PUSH1 0x0 DUP3 PUSH1 0x0 PUSH1 0x1 DUP2 LT PUSH2 0xDE6 JUMPI PUSH2 0xDE5 PUSH2 0x12C8 JUMP JUMPDEST JUMPDEST PUSH1 0x20 MUL ADD MLOAD EQ ISZERO SWAP6 POP POP POP POP POP POP SWAP3 SWAP2 POP POP JUMP JUMPDEST PUSH1 0x40 MLOAD DUP1 PUSH1 0xA0 ADD PUSH1 0x40 MSTORE DUP1 PUSH2 0xE0D PUSH2 0xE41 JUMP JUMPDEST DUP2 MSTORE PUSH1 0x20 ADD PUSH2 0xE1A PUSH2 0xE9F JUMP JUMPDEST DUP2 MSTORE PUSH1 0x20 ADD PUSH2 0xE27 PUSH2 0xE9F JUMP JUMPDEST DUP2 MSTORE PUSH1 0x20 ADD PUSH2 0xE34 PUSH2 0xE9F JUMP JUMPDEST DUP2 MSTORE PUSH1 0x20 ADD PUSH1 0x60 DUP2 MSTORE POP SWAP1 JUMP JUMPDEST PUSH1 0x40 MLOAD DUP1 PUSH1 0x40 ADD PUSH1 0x40 MSTORE DUP1 PUSH1 0x0 DUP2 MSTORE PUSH1 0x20 ADD PUSH1 0x0 DUP2 MSTORE POP SWAP1 JUMP JUMPDEST PUSH1 0x40 MLOAD DUP1 PUSH1 0x60 ADD PUSH1 0x40 MSTORE DUP1 PUSH1 0x3 SWAP1 PUSH1 0x20 DUP3 MUL DUP1 CALLDATASIZE DUP4 CALLDATACOPY DUP1 DUP3 ADD SWAP2 POP POP SWAP1 POP POP SWAP1 JUMP JUMPDEST PUSH1 0x40 MLOAD DUP1 PUSH1 0x80 ADD PUSH1 0x40 MSTORE DUP1 PUSH1 0x4 SWAP1 PUSH1 0x20 DUP3 MUL DUP1 CALLDATASIZE DUP4 CALLDATACOPY DUP1 DUP3 ADD SWAP2 POP POP SWAP1 POP POP SWAP1 JUMP JUMPDEST PUSH1 0x40 MLOAD DUP1 PUSH1 0x40 ADD PUSH1 0x40 MSTORE DUP1 PUSH2 0xEB2 PUSH2 0xEE7 JUMP JUMPDEST DUP2 MSTORE PUSH1 0x20 ADD PUSH2 0xEBF PUSH2 0xEE7 JUMP JUMPDEST DUP2 MSTORE POP SWAP1 JUMP JUMPDEST PUSH1 0x40 MLOAD DUP1 PUSH1 0x20 ADD PUSH1 0x40 MSTORE DUP1 PUSH1 0x1 SWAP1 PUSH1 0x20 DUP3 MUL DUP1 CALLDATASIZE DUP4 CALLDATACOPY DUP1 DUP3 ADD SWAP2 POP POP SWAP1 POP POP SWAP1 JUMP JUMPDEST PUSH1 0x40 MLOAD DUP1 PUSH1 0x40 ADD PUSH1 0x40 MSTORE DUP1 PUSH1 0x2 SWAP1 PUSH1 0x20 DUP3 MUL DUP1 CALLDATASIZE DUP4 CALLDATACOPY DUP1 DUP3 ADD SWAP2 POP POP SWAP1 POP POP SWAP1 JUMP JUMPDEST PUSH1 0x0 PUSH1 0x40 MLOAD SWAP1 POP SWAP1 JUMP JUMPDEST PUSH1 0x0 DUP1 REVERT JUMPDEST PUSH1 0x0 DUP1 REVERT JUMPDEST PUSH1 0x0 PUSH1 0x1F NOT PUSH1 0x1F DUP4 ADD AND SWAP1 POP SWAP2 SWAP1 POP JUMP JUMPDEST PUSH32 0x4E487B7100000000000000000000000000000000000000000000000000000000 PUSH1 0x0 MSTORE PUSH1 0x41 PUSH1 0x4 MSTORE PUSH1 0x24 PUSH1 0x0 REVERT JUMPDEST PUSH2 0xF66 DUP3 PUSH2 0xF1D JUMP JUMPDEST DUP2 ADD DUP2 DUP2 LT PUSH8 0xFFFFFFFFFFFFFFFF DUP3 GT OR ISZERO PUSH2 0xF85 JUMPI PUSH2 0xF84 PUSH2 0xF2E JUMP JUMPDEST JUMPDEST DUP1 PUSH1 0x40 MSTORE POP POP POP JUMP JUMPDEST PUSH1 0x0 PUSH2 0xF98 PUSH2 0xF09 JUMP JUMPDEST SWAP1 POP PUSH2 0xFA4 DUP3 DUP3 PUSH2 0xF5D JUMP JUMPDEST SWAP2 SWAP1 POP JUMP JUMPDEST PUSH1 0x0 DUP2 SWAP1 POP SWAP2 SWAP1 POP JUMP JUMPDEST PUSH2 0xFBC DUP2 PUSH2 0xFA9 JUMP JUMPDEST DUP2 EQ PUSH2 0xFC7 JUMPI PUSH1 0x0 DUP1 REVERT JUMPDEST POP JUMP JUMPDEST PUSH1 0x0 DUP2 CALLDATALOAD SWAP1 POP PUSH2 0xFD9 DUP2 PUSH2 0xFB3 JUMP JUMPDEST SWAP3 SWAP2 POP POP JUMP JUMPDEST PUSH1 0x0 PUSH1 0x40 DUP3 DUP5 SUB SLT ISZERO PUSH2 0xFF5 JUMPI PUSH2 0xFF4 PUSH2 0xF18 JUMP JUMPDEST JUMPDEST PUSH2 0xFFF PUSH1 0x40 PUSH2 0xF8E JUMP JUMPDEST SWAP1 POP PUSH1 0x0 PUSH2 0x100F DUP5 DUP3 DUP6 ADD PUSH2 0xFCA JUMP JUMPDEST PUSH1 0x0 DUP4 ADD MSTORE POP PUSH1 0x20 PUSH2 0x1023 DUP5 DUP3 DUP6 ADD PUSH2 0xFCA JUMP JUMPDEST PUSH1 0x20 DUP4 ADD MSTORE POP SWAP3 SWAP2 POP POP JUMP JUMPDEST PUSH1 0x0 DUP1 REVERT JUMPDEST PUSH1 0x0 PUSH8 0xFFFFFFFFFFFFFFFF DUP3 GT ISZERO PUSH2 0x104F JUMPI PUSH2 0x104E PUSH2 0xF2E JUMP JUMPDEST JUMPDEST PUSH1 0x20 DUP3 MUL SWAP1 POP SWAP2 SWAP1 POP JUMP JUMPDEST PUSH1 0x0 DUP1 REVERT JUMPDEST PUSH1 0x0 PUSH2 0x1072 PUSH2 0x106D DUP5 PUSH2 0x1034 JUMP JUMPDEST PUSH2 0xF8E JUMP JUMPDEST SWAP1 POP DUP1 PUSH1 0x20 DUP5 MUL DUP4 ADD DUP6 DUP2 GT ISZERO PUSH2 0x108C JUMPI PUSH2 0x108B PUSH2 0x105A JUMP JUMPDEST JUMPDEST DUP4 JUMPDEST DUP2 DUP2 LT ISZERO PUSH2 0x10B5 JUMPI DUP1 PUSH2 0x10A1 DUP9 DUP3 PUSH2 0xFCA JUMP JUMPDEST DUP5 MSTORE PUSH1 0x20 DUP5 ADD SWAP4 POP POP PUSH1 0x20 DUP2 ADD SWAP1 POP PUSH2 0x108E JUMP JUMPDEST POP POP POP SWAP4 SWAP3 POP POP POP JUMP JUMPDEST PUSH1 0x0 DUP3 PUSH1 0x1F DUP4 ADD SLT PUSH2 0x10D4 JUMPI PUSH2 0x10D3 PUSH2 0x102F JUMP JUMPDEST JUMPDEST PUSH1 0x2 PUSH2 0x10E1 DUP5 DUP3 DUP6 PUSH2 0x105F JUMP JUMPDEST SWAP2 POP POP SWAP3 SWAP2 POP POP JUMP JUMPDEST PUSH1 0x0 PUSH1 0x80 DUP3 DUP5 SUB SLT ISZERO PUSH2 0x1100 JUMPI PUSH2 0x10FF PUSH2 0xF18 JUMP JUMPDEST JUMPDEST PUSH2 0x110A PUSH1 0x40 PUSH2 0xF8E JUMP JUMPDEST SWAP1 POP PUSH1 0x0 PUSH2 0x111A DUP5 DUP3 DUP6 ADD PUSH2 0x10BF JUMP JUMPDEST PUSH1 0x0 DUP4 ADD MSTORE POP PUSH1 0x40 PUSH2 0x112E DUP5 DUP3 DUP6 ADD PUSH2 0x10BF JUMP JUMPDEST PUSH1 0x20 DUP4 ADD MSTORE POP SWAP3 SWAP2 POP POP JUMP JUMPDEST PUSH1 0x0 PUSH2 0x100 DUP3 DUP5 SUB SLT ISZERO PUSH2 0x1151 JUMPI PUSH2 0x1150 PUSH2 0xF18 JUMP JUMPDEST JUMPDEST PUSH2 0x115B PUSH1 0x60 PUSH2 0xF8E JUMP JUMPDEST SWAP1 POP PUSH1 0x0 PUSH2 0x116B DUP5 DUP3 DUP6 ADD PUSH2 0xFDF JUMP JUMPDEST PUSH1 0x0 DUP4 ADD MSTORE POP PUSH1 0x40 PUSH2 0x117F DUP5 DUP3 DUP6 ADD PUSH2 0x10EA JUMP JUMPDEST PUSH1 0x20 DUP4 ADD MSTORE POP PUSH1 0xC0 PUSH2 0x1193 DUP5 DUP3 DUP6 ADD PUSH2 0xFDF JUMP JUMPDEST PUSH1 0x40 DUP4 ADD MSTORE POP SWAP3 SWAP2 POP POP JUMP JUMPDEST PUSH1 0x0 PUSH8 0xFFFFFFFFFFFFFFFF DUP3 GT ISZERO PUSH2 0x11BA JUMPI PUSH2 0x11B9 PUSH2 0xF2E JUMP JUMPDEST JUMPDEST PUSH1 0x20 DUP3 MUL SWAP1 POP SWAP2 SWAP1 POP JUMP JUMPDEST PUSH1 0x0 PUSH2 0x11D8 PUSH2 0x11D3 DUP5 PUSH2 0x119F JUMP JUMPDEST PUSH2 0xF8E JUMP JUMPDEST SWAP1 POP DUP1 PUSH1 0x20 DUP5 MUL DUP4 ADD DUP6 DUP2 GT ISZERO PUSH2 0x11F2 JUMPI PUSH2 0x11F1 PUSH2 0x105A JUMP JUMPDEST JUMPDEST DUP4 JUMPDEST DUP2 DUP2 LT ISZERO PUSH2 0x121B JUMPI DUP1 PUSH2 0x1207 DUP9 DUP3 PUSH2 0xFCA JUMP JUMPDEST DUP5 MSTORE PUSH1 0x20 DUP5 ADD SWAP4 POP POP PUSH1 0x20 DUP2 ADD SWAP1 POP PUSH2 0x11F4 JUMP JUMPDEST POP POP POP SWAP4 SWAP3 POP POP POP JUMP JUMPDEST PUSH1 0x0 DUP3 PUSH1 0x1F DUP4 ADD SLT PUSH2 0x123A JUMPI PUSH2 0x1239 PUSH2 0x102F JUMP JUMPDEST JUMPDEST PUSH1 0x1 PUSH2 0x1247 DUP5 DUP3 DUP6 PUSH2 0x11C5 JUMP JUMPDEST SWAP2 POP POP SWAP3 SWAP2 POP POP JUMP JUMPDEST PUSH1 0x0 DUP1 PUSH2 0x120 DUP4 DUP6 SUB SLT ISZERO PUSH2 0x1268 JUMPI PUSH2 0x1267 PUSH2 0xF13 JUMP JUMPDEST JUMPDEST PUSH1 0x0 PUSH2 0x1276 DUP6 DUP3 DUP7 ADD PUSH2 0x113A JUMP JUMPDEST SWAP3 POP POP PUSH2 0x100 PUSH2 0x1288 DUP6 DUP3 DUP7 ADD PUSH2 0x1225 JUMP JUMPDEST SWAP2 POP POP SWAP3 POP SWAP3 SWAP1 POP JUMP JUMPDEST PUSH1 0x0 DUP2 ISZERO ISZERO SWAP1 POP SWAP2 SWAP1 POP JUMP JUMPDEST PUSH2 0x12A7 DUP2 PUSH2 0x1292 JUMP JUMPDEST DUP3 MSTORE POP POP JUMP JUMPDEST PUSH1 0x0 PUSH1 0x20 DUP3 ADD SWAP1 POP PUSH2 0x12C2 PUSH1 0x0 DUP4 ADD DUP5 PUSH2 0x129E JUMP JUMPDEST SWAP3 SWAP2 POP POP JUMP JUMPDEST PUSH32 0x4E487B7100000000000000000000000000000000000000000000000000000000 PUSH1 0x0 MSTORE PUSH1 0x32 PUSH1 0x4 MSTORE PUSH1 0x24 PUSH1 0x0 REVERT JUMPDEST PUSH32 0x4E487B7100000000000000000000000000000000000000000000000000000000 PUSH1 0x0 MSTORE PUSH1 0x11 PUSH1 0x4 MSTORE PUSH1 0x24 PUSH1 0x0 REVERT JUMPDEST PUSH1 0x0 PUSH2 0x1331 DUP3 PUSH2 0xFA9 JUMP JUMPDEST SWAP2 POP PUSH32 0xFFFFFFFFFFFFFFFFFFFFFFFFFFFFFFFFFFFFFFFFFFFFFFFFFFFFFFFFFFFFFFFF DUP3 SUB PUSH2 0x1363 JUMPI PUSH2 0x1362 PUSH2 0x12F7 JUMP JUMPDEST JUMPDEST PUSH1 0x1 DUP3 ADD SWAP1 POP SWAP2 SWAP1 POP JUMP JUMPDEST PUSH1 0x0 PUSH2 0x1379 DUP3 PUSH2 0xFA9 JUMP JUMPDEST SWAP2 POP PUSH2 0x1384 DUP4 PUSH2 0xFA9 JUMP JUMPDEST SWAP3 POP DUP3 DUP3 ADD SWAP1 POP DUP1 DUP3 GT ISZERO PUSH2 0x139C JUMPI PUSH2 0x139B PUSH2 0x12F7 JUMP JUMPDEST JUMPDEST SWAP3 SWAP2 POP POP JUMP JUMPDEST PUSH32 0x4E487B7100000000000000000000000000000000000000000000000000000000 PUSH1 0x0 MSTORE PUSH1 0x12 PUSH1 0x4 MSTORE PUSH1 0x24 PUSH1 0x0 REVERT JUMPDEST PUSH1 0x0 PUSH2 0x13DC DUP3 PUSH2 0xFA9 JUMP JUMPDEST SWAP2 POP PUSH2 0x13E7 DUP4 PUSH2 0xFA9 JUMP JUMPDEST SWAP3 POP DUP3 PUSH2 0x13F7 JUMPI PUSH2 0x13F6 PUSH2 0x13A2 JUMP JUMPDEST JUMPDEST DUP3 DUP3 MOD SWAP1 POP SWAP3 SWAP2 POP POP JUMP JUMPDEST PUSH1 0x0 PUSH2 0x140D DUP3 PUSH2 0xFA9 JUMP JUMPDEST SWAP2 POP PUSH2 0x1418 DUP4 PUSH2 0xFA9 JUMP JUMPDEST SWAP3 POP DUP3 DUP3 SUB SWAP1 POP DUP2 DUP2 GT ISZERO PUSH2 0x1430 JUMPI PUSH2 0x142F PUSH2 0x12F7 JUMP JUMPDEST JUMPDEST SWAP3 SWAP2 POP POP JUMP JUMPDEST PUSH1 0x0 PUSH2 0x1441 DUP3 PUSH2 0xFA9 JUMP JUMPDEST SWAP2 POP PUSH2 0x144C DUP4 PUSH2 0xFA9 JUMP JUMPDEST SWAP3 POP DUP3 DUP3 MUL PUSH2 0x145A DUP2 PUSH2 0xFA9 JUMP JUMPDEST SWAP2 POP DUP3 DUP3 DIV DUP5 EQ DUP4 ISZERO OR PUSH2 0x1471 JUMPI PUSH2 0x1470 PUSH2 0x12F7 JUMP JUMPDEST JUMPDEST POP SWAP3 SWAP2 POP POP JUMP INVALID LOG2 PUSH5 0x6970667358 0x22 SLT KECCAK256 0xB5 PREVRANDAO 0x23 0x28 0x5D 0x5C CALL 0xC9 PUSH30 0x3C16F6A988902563CA03E457A8F40F9D384DC3C64974ED64736F6C634300 ADDMOD SGT STOP CALLER "
		},
		"gasEstimates": {
			"creation": {
				"codeDepositCost": "1058800",
				"executionCost": "1100",
				"totalCost": "1059900"
			},
			"external": {
				"verifyTx(((uint256,uint256),(uint256[2],uint256[2]),(uint256,uint256)),uint256[1])": "infinite"
			},
			"internal": {
				"verify(uint256[] memory,struct Verifier.Proof memory)": "infinite",
				"verifyingKey()": "infinite"
			}
		},
		"methodIdentifiers": {
			"verifyTx(((uint256,uint256),(uint256[2],uint256[2]),(uint256,uint256)),uint256[1])": "f48d7729"
		}
	},
	"abi": [
		{
			"inputs": [
				{
					"components": [
						{
							"components": [
								{
									"internalType": "uint256",
									"name": "X",
									"type": "uint256"
								},
								{
									"internalType": "uint256",
									"name": "Y",
									"type": "uint256"
								}
							],
							"internalType": "struct Pairing.G1Point",
							"name": "a",
							"type": "tuple"
						},
						{
							"components": [
								{
									"internalType": "uint256[2]",
									"name": "X",
									"type": "uint256[2]"
								},
								{
									"internalType": "uint256[2]",
									"name": "Y",
									"type": "uint256[2]"
								}
							],
							"internalType": "struct Pairing.G2Point",
							"name": "b",
							"type": "tuple"
						},
						{
							"components": [
								{
									"internalType": "uint256",
									"name": "X",
									"type": "uint256"
								},
								{
									"internalType": "uint256",
									"name": "Y",
									"type": "uint256"
								}
							],
							"internalType": "struct Pairing.G1Point",
							"name": "c",
							"type": "tuple"
						}
					],
					"internalType": "struct Verifier.Proof",
					"name": "proof",
					"type": "tuple"
				},
				{
					"internalType": "uint256[1]",
					"name": "input",
					"type": "uint256[1]"
				}
			],
			"name": "verifyTx",
			"outputs": [
				{
					"internalType": "bool",
					"name": "r",
					"type": "bool"
				}
			],
			"stateMutability": "view",
			"type": "function"
		}
	]
}