{
	"data": {
		"bytecode": {
			"linkReferences": {},
			"object": "608060405234801561001057600080fd5b506107c3806100206000396000f3fe608060405234801561001057600080fd5b506004361061002b5760003560e01c8063615357d614610030575b600080fd5b61004a6004803603810190610045919061046e565b61004c565b005b6000735a8b4377fa297ea54585a34423a8c07fcc24fb2173ffffffffffffffffffffffffffffffffffffffff1663f48d772984846040518363ffffffff1660e01b815260040161009d929190610680565b6020604051808303816000875af11580156100bc573d6000803e3d6000fd5b505050506040513d601f19601f820116820180604052508101906100e091906106e3565b905080610122576040517f08c379a00000000000000000000000000000000000000000000000000000000081526004016101199061076d565b60405180910390fd5b505050565b6000604051905090565b600080fd5b600080fd5b6000601f19601f8301169050919050565b7f4e487b7100000000000000000000000000000000000000000000000000000000600052604160045260246000fd5b6101848261013b565b810181811067ffffffffffffffff821117156101a3576101a261014c565b5b80604052505050565b60006101b6610127565b90506101c2828261017b565b919050565b6000819050919050565b6101da816101c7565b81146101e557600080fd5b50565b6000813590506101f7816101d1565b92915050565b60006040828403121561021357610212610136565b5b61021d60406101ac565b9050600061022d848285016101e8565b6000830152506020610241848285016101e8565b60208301525092915050565b600080fd5b600067ffffffffffffffff82111561026d5761026c61014c565b5b602082029050919050565b600080fd5b600061029061028b84610252565b6101ac565b905080602084028301858111156102aa576102a9610278565b5b835b818110156102d357806102bf88826101e8565b8452602084019350506020810190506102ac565b5050509392505050565b600082601f8301126102f2576102f161024d565b5b60026102ff84828561027d565b91505092915050565b60006080828403121561031e5761031d610136565b5b61032860406101ac565b90506000610338848285016102dd565b600083015250604061034c848285016102dd565b60208301525092915050565b6000610100828403121561036f5761036e610136565b5b61037960606101ac565b90506000610389848285016101fd565b600083015250604061039d84828501610308565b60208301525060c06103b1848285016101fd565b60408301525092915050565b600067ffffffffffffffff8211156103d8576103d761014c565b5b602082029050919050565b60006103f66103f1846103bd565b6101ac565b905080602084028301858111156104105761040f610278565b5b835b81811015610439578061042588826101e8565b845260208401935050602081019050610412565b5050509392505050565b600082601f8301126104585761045761024d565b5b60016104658482856103e3565b91505092915050565b600080610120838503121561048657610485610131565b5b600061049485828601610358565b9250506101006104a685828601610443565b9150509250929050565b6104b9816101c7565b82525050565b6040820160008201516104d560008501826104b0565b5060208201516104e860208501826104b0565b50505050565b600060029050919050565b600081905092915050565b6000819050919050565b600061051a83836104b0565b60208301905092915050565b6000602082019050919050565b61053c816104ee565b61054681846104f9565b925061055182610504565b8060005b83811015610582578151610569878261050e565b965061057483610526565b925050600181019050610555565b505050505050565b6080820160008201516105a06000850182610533565b5060208201516105b36040850182610533565b50505050565b610100820160008201516105d060008501826104bf565b5060208201516105e3604085018261058a565b5060408201516105f660c08501826104bf565b50505050565b600060019050919050565b600081905092915050565b6000819050919050565b6000602082019050919050565b610632816105fc565b61063c8184610607565b925061064782610612565b8060005b8381101561067857815161065f878261050e565b965061066a8361061c565b92505060018101905061064b565b505050505050565b60006101208201905061069660008301856105b9565b6106a4610100830184610629565b9392505050565b60008115159050919050565b6106c0816106ab565b81146106cb57600080fd5b50565b6000815190506106dd816106b7565b92915050565b6000602082840312156106f9576106f8610131565b5b6000610707848285016106ce565b91505092915050565b600082825260208201905092915050565b7f70726f6f66206e6f742074727565000000000000000000000000000000000000600082015250565b6000610757600e83610710565b915061076282610721565b602082019050919050565b600060208201905081810360008301526107868161074a565b905091905056fea2646970667358221220d0c507e06150c4c57a5fc645ae36b2307f39da67c1883f4807359074e0ed46a164736f6c63430008120033",
			"opcodes": "PUSH1 0x80 PUSH1 0x40 MSTORE CALLVALUE DUP1 ISZERO PUSH2 0x10 JUMPI PUSH1 0x0 DUP1 REVERT JUMPDEST POP PUSH2 0x7C3 DUP1 PUSH2 0x20 PUSH1 0x0 CODECOPY PUSH1 0x0 RETURN INVALID PUSH1 0x80 PUSH1 0x40 MSTORE CALLVALUE DUP1 ISZERO PUSH2 0x10 JUMPI PUSH1 0x0 DUP1 REVERT JUMPDEST POP PUSH1 0x4 CALLDATASIZE LT PUSH2 0x2B JUMPI PUSH1 0x0 CALLDATALOAD PUSH1 0xE0 SHR DUP1 PUSH4 0x615357D6 EQ PUSH2 0x30 JUMPI JUMPDEST PUSH1 0x0 DUP1 REVERT JUMPDEST PUSH2 0x4A PUSH1 0x4 DUP1 CALLDATASIZE SUB DUP2 ADD SWAP1 PUSH2 0x45 SWAP2 SWAP1 PUSH2 0x46E JUMP JUMPDEST PUSH2 0x4C JUMP JUMPDEST STOP JUMPDEST PUSH1 0x0 PUSH20 0x5A8B4377FA297EA54585A34423A8C07FCC24FB21 PUSH20 0xFFFFFFFFFFFFFFFFFFFFFFFFFFFFFFFFFFFFFFFF AND PUSH4 0xF48D7729 DUP5 DUP5 PUSH1 0x40 MLOAD DUP4 PUSH4 0xFFFFFFFF AND PUSH1 0xE0 SHL DUP2 MSTORE PUSH1 0x4 ADD PUSH2 0x9D SWAP3 SWAP2 SWAP1 PUSH2 0x680 JUMP JUMPDEST PUSH1 0x20 PUSH1 0x40 MLOAD DUP1 DUP4 SUB DUP2 PUSH1 0x0 DUP8 GAS CALL ISZERO DUP1 ISZERO PUSH2 0xBC JUMPI RETURNDATASIZE PUSH1 0x0 DUP1 RETURNDATACOPY RETURNDATASIZE PUSH1 0x0 REVERT JUMPDEST POP POP POP POP PUSH1 0x40 MLOAD RETURNDATASIZE PUSH1 0x1F NOT PUSH1 0x1F DUP3 ADD AND DUP3 ADD DUP1 PUSH1 0x40 MSTORE POP DUP2 ADD SWAP1 PUSH2 0xE0 SWAP2 SWAP1 PUSH2 0x6E3 JUMP JUMPDEST SWAP1 POP DUP1 PUSH2 0x122 JUMPI PUSH1 0x40 MLOAD PUSH32 0x8C379A000000000000000000000000000000000000000000000000000000000 DUP2 MSTORE PUSH1 0x4 ADD PUSH2 0x119 SWAP1 PUSH2 0x76D JUMP JUMPDEST PUSH1 0x40 MLOAD DUP1 SWAP2 SUB SWAP1 REVERT JUMPDEST POP POP POP JUMP JUMPDEST PUSH1 0x0 PUSH1 0x40 MLOAD SWAP1 POP SWAP1 JUMP JUMPDEST PUSH1 0x0 DUP1 REVERT JUMPDEST PUSH1 0x0 DUP1 REVERT JUMPDEST PUSH1 0x0 PUSH1 0x1F NOT PUSH1 0x1F DUP4 ADD AND SWAP1 POP SWAP2 SWAP1 POP JUMP JUMPDEST PUSH32 0x4E487B7100000000000000000000000000000000000000000000000000000000 PUSH1 0x0 MSTORE PUSH1 0x41 PUSH1 0x4 MSTORE PUSH1 0x24 PUSH1 0x0 REVERT JUMPDEST PUSH2 0x184 DUP3 PUSH2 0x13B JUMP JUMPDEST DUP2 ADD DUP2 DUP2 LT PUSH8 0xFFFFFFFFFFFFFFFF DUP3 GT OR ISZERO PUSH2 0x1A3 JUMPI PUSH2 0x1A2 PUSH2 0x14C JUMP JUMPDEST JUMPDEST DUP1 PUSH1 0x40 MSTORE POP POP POP JUMP JUMPDEST PUSH1 0x0 PUSH2 0x1B6 PUSH2 0x127 JUMP JUMPDEST SWAP1 POP PUSH2 0x1C2 DUP3 DUP3 PUSH2 0x17B JUMP JUMPDEST SWAP2 SWAP1 POP JUMP JUMPDEST PUSH1 0x0 DUP2 SWAP1 POP SWAP2 SWAP1 POP JUMP JUMPDEST PUSH2 0x1DA DUP2 PUSH2 0x1C7 JUMP JUMPDEST DUP2 EQ PUSH2 0x1E5 JUMPI PUSH1 0x0 DUP1 REVERT JUMPDEST POP JUMP JUMPDEST PUSH1 0x0 DUP2 CALLDATALOAD SWAP1 POP PUSH2 0x1F7 DUP2 PUSH2 0x1D1 JUMP JUMPDEST SWAP3 SWAP2 POP POP JUMP JUMPDEST PUSH1 0x0 PUSH1 0x40 DUP3 DUP5 SUB SLT ISZERO PUSH2 0x213 JUMPI PUSH2 0x212 PUSH2 0x136 JUMP JUMPDEST JUMPDEST PUSH2 0x21D PUSH1 0x40 PUSH2 0x1AC JUMP JUMPDEST SWAP1 POP PUSH1 0x0 PUSH2 0x22D DUP5 DUP3 DUP6 ADD PUSH2 0x1E8 JUMP JUMPDEST PUSH1 0x0 DUP4 ADD MSTORE POP PUSH1 0x20 PUSH2 0x241 DUP5 DUP3 DUP6 ADD PUSH2 0x1E8 JUMP JUMPDEST PUSH1 0x20 DUP4 ADD MSTORE POP SWAP3 SWAP2 POP POP JUMP JUMPDEST PUSH1 0x0 DUP1 REVERT JUMPDEST PUSH1 0x0 PUSH8 0xFFFFFFFFFFFFFFFF DUP3 GT ISZERO PUSH2 0x26D JUMPI PUSH2 0x26C PUSH2 0x14C JUMP JUMPDEST JUMPDEST PUSH1 0x20 DUP3 MUL SWAP1 POP SWAP2 SWAP1 POP JUMP JUMPDEST PUSH1 0x0 DUP1 REVERT JUMPDEST PUSH1 0x0 PUSH2 0x290 PUSH2 0x28B DUP5 PUSH2 0x252 JUMP JUMPDEST PUSH2 0x1AC JUMP JUMPDEST SWAP1 POP DUP1 PUSH1 0x20 DUP5 MUL DUP4 ADD DUP6 DUP2 GT ISZERO PUSH2 0x2AA JUMPI PUSH2 0x2A9 PUSH2 0x278 JUMP JUMPDEST JUMPDEST DUP4 JUMPDEST DUP2 DUP2 LT ISZERO PUSH2 0x2D3 JUMPI DUP1 PUSH2 0x2BF DUP9 DUP3 PUSH2 0x1E8 JUMP JUMPDEST DUP5 MSTORE PUSH1 0x20 DUP5 ADD SWAP4 POP POP PUSH1 0x20 DUP2 ADD SWAP1 POP PUSH2 0x2AC JUMP JUMPDEST POP POP POP SWAP4 SWAP3 POP POP POP JUMP JUMPDEST PUSH1 0x0 DUP3 PUSH1 0x1F DUP4 ADD SLT PUSH2 0x2F2 JUMPI PUSH2 0x2F1 PUSH2 0x24D JUMP JUMPDEST JUMPDEST PUSH1 0x2 PUSH2 0x2FF DUP5 DUP3 DUP6 PUSH2 0x27D JUMP JUMPDEST SWAP2 POP POP SWAP3 SWAP2 POP POP JUMP JUMPDEST PUSH1 0x0 PUSH1 0x80 DUP3 DUP5 SUB SLT ISZERO PUSH2 0x31E JUMPI PUSH2 0x31D PUSH2 0x136 JUMP JUMPDEST JUMPDEST PUSH2 0x328 PUSH1 0x40 PUSH2 0x1AC JUMP JUMPDEST SWAP1 POP PUSH1 0x0 PUSH2 0x338 DUP5 DUP3 DUP6 ADD PUSH2 0x2DD JUMP JUMPDEST PUSH1 0x0 DUP4 ADD MSTORE POP PUSH1 0x40 PUSH2 0x34C DUP5 DUP3 DUP6 ADD PUSH2 0x2DD JUMP JUMPDEST PUSH1 0x20 DUP4 ADD MSTORE POP SWAP3 SWAP2 POP POP JUMP JUMPDEST PUSH1 0x0 PUSH2 0x100 DUP3 DUP5 SUB SLT ISZERO PUSH2 0x36F JUMPI PUSH2 0x36E PUSH2 0x136 JUMP JUMPDEST JUMPDEST PUSH2 0x379 PUSH1 0x60 PUSH2 0x1AC JUMP JUMPDEST SWAP1 POP PUSH1 0x0 PUSH2 0x389 DUP5 DUP3 DUP6 ADD PUSH2 0x1FD JUMP JUMPDEST PUSH1 0x0 DUP4 ADD MSTORE POP PUSH1 0x40 PUSH2 0x39D DUP5 DUP3 DUP6 ADD PUSH2 0x308 JUMP JUMPDEST PUSH1 0x20 DUP4 ADD MSTORE POP PUSH1 0xC0 PUSH2 0x3B1 DUP5 DUP3 DUP6 ADD PUSH2 0x1FD JUMP JUMPDEST PUSH1 0x40 DUP4 ADD MSTORE POP SWAP3 SWAP2 POP POP JUMP JUMPDEST PUSH1 0x0 PUSH8 0xFFFFFFFFFFFFFFFF DUP3 GT ISZERO PUSH2 0x3D8 JUMPI PUSH2 0x3D7 PUSH2 0x14C JUMP JUMPDEST JUMPDEST PUSH1 0x20 DUP3 MUL SWAP1 POP SWAP2 SWAP1 POP JUMP JUMPDEST PUSH1 0x0 PUSH2 0x3F6 PUSH2 0x3F1 DUP5 PUSH2 0x3BD JUMP JUMPDEST PUSH2 0x1AC JUMP JUMPDEST SWAP1 POP DUP1 PUSH1 0x20 DUP5 MUL DUP4 ADD DUP6 DUP2 GT ISZERO PUSH2 0x410 JUMPI PUSH2 0x40F PUSH2 0x278 JUMP JUMPDEST JUMPDEST DUP4 JUMPDEST DUP2 DUP2 LT ISZERO PUSH2 0x439 JUMPI DUP1 PUSH2 0x425 DUP9 DUP3 PUSH2 0x1E8 JUMP JUMPDEST DUP5 MSTORE PUSH1 0x20 DUP5 ADD SWAP4 POP POP PUSH1 0x20 DUP2 ADD SWAP1 POP PUSH2 0x412 JUMP JUMPDEST POP POP POP SWAP4 SWAP3 POP POP POP JUMP JUMPDEST PUSH1 0x0 DUP3 PUSH1 0x1F DUP4 ADD SLT PUSH2 0x458 JUMPI PUSH2 0x457 PUSH2 0x24D JUMP JUMPDEST JUMPDEST PUSH1 0x1 PUSH2 0x465 DUP5 DUP3 DUP6 PUSH2 0x3E3 JUMP JUMPDEST SWAP2 POP POP SWAP3 SWAP2 POP POP JUMP JUMPDEST PUSH1 0x0 DUP1 PUSH2 0x120 DUP4 DUP6 SUB SLT ISZERO PUSH2 0x486 JUMPI PUSH2 0x485 PUSH2 0x131 JUMP JUMPDEST JUMPDEST PUSH1 0x0 PUSH2 0x494 DUP6 DUP3 DUP7 ADD PUSH2 0x358 JUMP JUMPDEST SWAP3 POP POP PUSH2 0x100 PUSH2 0x4A6 DUP6 DUP3 DUP7 ADD PUSH2 0x443 JUMP JUMPDEST SWAP2 POP POP SWAP3 POP SWAP3 SWAP1 POP JUMP JUMPDEST PUSH2 0x4B9 DUP2 PUSH2 0x1C7 JUMP JUMPDEST DUP3 MSTORE POP POP JUMP JUMPDEST PUSH1 0x40 DUP3 ADD PUSH1 0x0 DUP3 ADD MLOAD PUSH2 0x4D5 PUSH1 0x0 DUP6 ADD DUP3 PUSH2 0x4B0 JUMP JUMPDEST POP PUSH1 0x20 DUP3 ADD MLOAD PUSH2 0x4E8 PUSH1 0x20 DUP6 ADD DUP3 PUSH2 0x4B0 JUMP JUMPDEST POP POP POP POP JUMP JUMPDEST PUSH1 0x0 PUSH1 0x2 SWAP1 POP SWAP2 SWAP1 POP JUMP JUMPDEST PUSH1 0x0 DUP2 SWAP1 POP SWAP3 SWAP2 POP POP JUMP JUMPDEST PUSH1 0x0 DUP2 SWAP1 POP SWAP2 SWAP1 POP JUMP JUMPDEST PUSH1 0x0 PUSH2 0x51A DUP4 DUP4 PUSH2 0x4B0 JUMP JUMPDEST PUSH1 0x20 DUP4 ADD SWAP1 POP SWAP3 SWAP2 POP POP JUMP JUMPDEST PUSH1 0x0 PUSH1 0x20 DUP3 ADD SWAP1 POP SWAP2 SWAP1 POP JUMP JUMPDEST PUSH2 0x53C DUP2 PUSH2 0x4EE JUMP JUMPDEST PUSH2 0x546 DUP2 DUP5 PUSH2 0x4F9 JUMP JUMPDEST SWAP3 POP PUSH2 0x551 DUP3 PUSH2 0x504 JUMP JUMPDEST DUP1 PUSH1 0x0 JUMPDEST DUP4 DUP2 LT ISZERO PUSH2 0x582 JUMPI DUP2 MLOAD PUSH2 0x569 DUP8 DUP3 PUSH2 0x50E JUMP JUMPDEST SWAP7 POP PUSH2 0x574 DUP4 PUSH2 0x526 JUMP JUMPDEST SWAP3 POP POP PUSH1 0x1 DUP2 ADD SWAP1 POP PUSH2 0x555 JUMP JUMPDEST POP POP POP POP POP POP JUMP JUMPDEST PUSH1 0x80 DUP3 ADD PUSH1 0x0 DUP3 ADD MLOAD PUSH2 0x5A0 PUSH1 0x0 DUP6 ADD DUP3 PUSH2 0x533 JUMP JUMPDEST POP PUSH1 0x20 DUP3 ADD MLOAD PUSH2 0x5B3 PUSH1 0x40 DUP6 ADD DUP3 PUSH2 0x533 JUMP JUMPDEST POP POP POP POP JUMP JUMPDEST PUSH2 0x100 DUP3 ADD PUSH1 0x0 DUP3 ADD MLOAD PUSH2 0x5D0 PUSH1 0x0 DUP6 ADD DUP3 PUSH2 0x4BF JUMP JUMPDEST POP PUSH1 0x20 DUP3 ADD MLOAD PUSH2 0x5E3 PUSH1 0x40 DUP6 ADD DUP3 PUSH2 0x58A JUMP JUMPDEST POP PUSH1 0x40 DUP3 ADD MLOAD PUSH2 0x5F6 PUSH1 0xC0 DUP6 ADD DUP3 PUSH2 0x4BF JUMP JUMPDEST POP POP POP POP JUMP JUMPDEST PUSH1 0x0 PUSH1 0x1 SWAP1 POP SWAP2 SWAP1 POP JUMP JUMPDEST PUSH1 0x0 DUP2 SWAP1 POP SWAP3 SWAP2 POP POP JUMP JUMPDEST PUSH1 0x0 DUP2 SWAP1 POP SWAP2 SWAP1 POP JUMP JUMPDEST PUSH1 0x0 PUSH1 0x20 DUP3 ADD SWAP1 POP SWAP2 SWAP1 POP JUMP JUMPDEST PUSH2 0x632 DUP2 PUSH2 0x5FC JUMP JUMPDEST PUSH2 0x63C DUP2 DUP5 PUSH2 0x607 JUMP JUMPDEST SWAP3 POP PUSH2 0x647 DUP3 PUSH2 0x612 JUMP JUMPDEST DUP1 PUSH1 0x0 JUMPDEST DUP4 DUP2 LT ISZERO PUSH2 0x678 JUMPI DUP2 MLOAD PUSH2 0x65F DUP8 DUP3 PUSH2 0x50E JUMP JUMPDEST SWAP7 POP PUSH2 0x66A DUP4 PUSH2 0x61C JUMP JUMPDEST SWAP3 POP POP PUSH1 0x1 DUP2 ADD SWAP1 POP PUSH2 0x64B JUMP JUMPDEST POP POP POP POP POP POP JUMP JUMPDEST PUSH1 0x0 PUSH2 0x120 DUP3 ADD SWAP1 POP PUSH2 0x696 PUSH1 0x0 DUP4 ADD DUP6 PUSH2 0x5B9 JUMP JUMPDEST PUSH2 0x6A4 PUSH2 0x100 DUP4 ADD DUP5 PUSH2 0x629 JUMP JUMPDEST SWAP4 SWAP3 POP POP POP JUMP JUMPDEST PUSH1 0x0 DUP2 ISZERO ISZERO SWAP1 POP SWAP2 SWAP1 POP JUMP JUMPDEST PUSH2 0x6C0 DUP2 PUSH2 0x6AB JUMP JUMPDEST DUP2 EQ PUSH2 0x6CB JUMPI PUSH1 0x0 DUP1 REVERT JUMPDEST POP JUMP JUMPDEST PUSH1 0x0 DUP2 MLOAD SWAP1 POP PUSH2 0x6DD DUP2 PUSH2 0x6B7 JUMP JUMPDEST SWAP3 SWAP2 POP POP JUMP JUMPDEST PUSH1 0x0 PUSH1 0x20 DUP3 DUP5 SUB SLT ISZERO PUSH2 0x6F9 JUMPI PUSH2 0x6F8 PUSH2 0x131 JUMP JUMPDEST JUMPDEST PUSH1 0x0 PUSH2 0x707 DUP5 DUP3 DUP6 ADD PUSH2 0x6CE JUMP JUMPDEST SWAP2 POP POP SWAP3 SWAP2 POP POP JUMP JUMPDEST PUSH1 0x0 DUP3 DUP3 MSTORE PUSH1 0x20 DUP3 ADD SWAP1 POP SWAP3 SWAP2 POP POP JUMP JUMPDEST PUSH32 0x70726F6F66206E6F742074727565000000000000000000000000000000000000 PUSH1 0x0 DUP3 ADD MSTORE POP JUMP JUMPDEST PUSH1 0x0 PUSH2 0x757 PUSH1 0xE DUP4 PUSH2 0x710 JUMP JUMPDEST SWAP2 POP PUSH2 0x762 DUP3 PUSH2 0x721 JUMP JUMPDEST PUSH1 0x20 DUP3 ADD SWAP1 POP SWAP2 SWAP1 POP JUMP JUMPDEST PUSH1 0x0 PUSH1 0x20 DUP3 ADD SWAP1 POP DUP2 DUP2 SUB PUSH1 0x0 DUP4 ADD MSTORE PUSH2 0x786 DUP2 PUSH2 0x74A JUMP JUMPDEST SWAP1 POP SWAP2 SWAP1 POP JUMP INVALID LOG2 PUSH5 0x6970667358 0x22 SLT KECCAK256 0xD0 0xC5 SMOD 0xE0 PUSH2 0x50C4 0xC5 PUSH27 0x5FC645AE36B2307F39DA67C1883F4807359074E0ED46A164736F6C PUSH4 0x43000812 STOP CALLER "
		},
		"gasEstimates": {
			"creation": {
				"codeDepositCost": "397400",
				"executionCost": "436",
				"totalCost": "397836"
			},
			"external": {
				"verifyProof(((uint256,uint256),(uint256[2],uint256[2]),(uint256,uint256)),uint256[1])": "infinite"
			}
		},
		"methodIdentifiers": {
			"verifyProof(((uint256,uint256),(uint256[2],uint256[2]),(uint256,uint256)),uint256[1])": "615357d6"
		}
	},
	"abi": [
		{
			"inputs": [
				{
					"components": [
						{
							"components": [
								{
									"internalType": "uint256",
									"name": "X",
									"type": "uint256"
								},
								{
									"internalType": "uint256",
									"name": "Y",
									"type": "uint256"
								}
							],
							"internalType": "struct Pairing.G1Point",
							"name": "a",
							"type": "tuple"
						},
						{
							"components": [
								{
									"internalType": "uint256[2]",
									"name": "X",
									"type": "uint256[2]"
								},
								{
									"internalType": "uint256[2]",
									"name": "Y",
									"type": "uint256[2]"
								}
							],
							"internalType": "struct Pairing.G2Point",
							"name": "b",
							"type": "tuple"
						},
						{
							"components": [
								{
									"internalType": "uint256",
									"name": "X",
									"type": "uint256"
								},
								{
									"internalType": "uint256",
									"name": "Y",
									"type": "uint256"
								}
							],
							"internalType": "struct Pairing.G1Point",
							"name": "c",
							"type": "tuple"
						}
					],
					"internalType": "struct IVerification.Proof",
					"name": "proof",
					"type": "tuple"
				},
				{
					"internalType": "uint256[1]",
					"name": "input",
					"type": "uint256[1]"
				}
			],
			"name": "verifyProof",
			"outputs": [],
			"stateMutability": "nonpayable",
			"type": "function"
		}
	]
}